:020000040800F2
:1000000048D70020850B0008B9040008BB0400088D
:10001000BD040008BF040008C1040008000000007F
:10002000000000000000000000000000C304000801
:10003000C5040008000000009B0B00082108000810
:100040009F0B00089F0B00089F0B00089F0B0008E8
:100050009F0B00089F0B00089F0B00089F0B0008D8
:100060009F0B00089F0B00089F0B00089F0B0008C8
:100070009F0B00089F0B00089F0B00089F0B0008B8
:100080009F0B00089F0B00089F0B00089F0B0008A8
:100090009F0B00089F0B00089F0B00089F0B000898
:1000A0009F0B00089F0B00089F0B00089F0B000888
:1000B0009F0B00089F0B00089F0B00089F0B000878
:1000C0009F0B00089F0B00089F0B00089F0B000868
:1000D0009F0B00089F0B0008B90900089F0B000840
:1000E0009F0B00089F0B00089F0B000800000000FA
:1000F0000000000000000000000000000000000000
:1001000000000000000000009F0B00089F0B00088B
:100110009F0B00089F0B00089F0B00089F0B000817
:100120009F0B00089F0B00089F0B00089F0B000807
:100130009F0B00089F0B00089F0B00089F0B0008F7
:100140009F0B00089F0B00089F0B00089F0B0008E7
:1001500000F002F800F03FF80AA090E8000C82449A
:100160008344AAF10107DA4501D100F034F8AFF277
:10017000090EBAE80F0013F0010F18BFFB1A43F085
:1001800001031847043F0000243F0000103A24BF39
:1001900078C878C1FAD8520724BF30C830C144BFEC
:1001A00004680C607047000000230024002500262E
:1001B000103A28BF78C1FBD8520728BF30C148BFCA
:1001C0000B607047642903F01F85002070471FB53E
:1001D0001FBD10B510BD03F06EFE1146FFF7F7FF0F
:1001E00000F011F903F08CFE03B4FFF7F2FF03BC3B
:1001F00000F086FB9C480178052902D1002181800E
:1002000001709A4A81881278114481800178491CD2
:100210000170704794494878401CC0B24870062865
:1002200001D900204870704738B50D21012000F039
:1002300081FC050019D08C4C8DA1A27803F0A6FC9E
:10024000A0782946401CA070E06802F0EAFA8DF818
:100250000000002809D02946012000F064FC00229B
:100260006B461146A06903F0D9FA38BD4FF4967079
:1002700000F020BB7C4C00F06BFA010002D0A068BB
:1002800002F0D9F80A2000F015FBF4E71CB5764C13
:1002900001AD0095002303221F21E06901F050FE0B
:1002A00000F0ACFA322000F005FB00F0ABFA01AB35
:1002B00000221F21E06901F004FFEAE71FB503AD4A
:1002C0006FA00026AFF2D3030096CDE901050A2105
:1002D0000222084603F022F9634C20616AA0AFF2C3
:1002E000CB030096CDE90105022214210A2003F078
:1002F00015F9606166A0AFF2CF030096CDE9010564
:100300000A210222084603F009F9A06103A9206925
:1003100003F054FA03A9606903F050FA0A2000F0D0
:10032000C9FAFBE708B5504C4FF4FA756A4600214C
:10033000E06802F0DBF90146012000F0F4FB2846FA
:1003400000F0B8FAF2E7052000F0B4FAFBE7002469
:10035000514D01262746641CE4B20A2000F0AAFA97
:10036000082C05D0642CF6D10024C5F88871F2E77A
:10037000C5F88861EFE738B5002001F051FF3A4C2D
:100380004FF48071A060454802F001F9E0606946D1
:10039000002001F0BEFCE06101F0B9FA03F046FB79
:1003A00007233F4A04460021AFF25D0002F048FDFA
:1003B00006233C4A0021AFF2710002F041FD052303
:1003C000394A0021AFF2A30002F03AFD0423374A74
:1003D0000021AFF2171002F033FD0323344A00214D
:1003E000AFF2571002F02CFD2C4A0223121F0021FD
:1003F000AFF27F1002F024FD0A2002F033FF204606
:1004000003F018FB38BD10B500F018FA4FF4A060E7
:1004100000F0D8FB4FF4E13000F07CFA002000F04F
:1004200031F90021084600F04DF90021012000F0CB
:1004300049F90021022000F045F90021032000F0D5
:1004400041F900F0C5F94FF4967000F033FA01F06D
:1004500057F90A23174A0021AFF2E50002F0F0FC39
:1004600001F042FA002010BD0000002084000020AE
:10047000414C49454E54454B202530336400000023
:10048000746D723100000000746D72320000000063
:10049000746D72330000000000802242E00C0020E6
:1004A000DC020020DC040020DC060020DC08002048
:1004B000DC0A0020DC0100207047FEE7FEE7FEE7D3
:1004C000FEE77047704700000CB5002262480092BA
:1004D0000192016841F4803101604FF4A06301682A
:1004E00001F4003101910099491C0091019911B961
:1004F00000999942F3D10168890342D50121019104
:1005000056490A6842F010020A600A6822F00302A3
:100510000A600A6842F002020A604168416041686C
:100520004160416841F480614160C16A4C4A1140B8
:10053000C162C16A4B4A1143C162016841F08061E6
:10054000016001680901FCD5416821F47C1141601A
:10055000416841F4E8114160016841F08071016037
:1005600001688901FCD5416821F0030141604168BF
:1005700041F0020141604168C1F381010229FAD1D1
:100580000CBD01920CBD344810B5016841F0010169
:1005900001604168344A114041600168334A1140AA
:1005A0000160016821F480210160416821F4FE01AD
:1005B0004160016821F0A05101604FF47F0181602A
:1005C0000021C162FFF780FF29494FF000600860F9
:1005D00010BD70B5204B5868264A274910F00C0012
:1005E00004D0264C042803D0082803D00A6029E050
:1005F0000C6027E058685A680F2505EA904002F41D
:1006000080320D2801D0801C00E00620BAB1DA6AE1
:1006100012F4803FDA6A02F00F0202F101020AD0FE
:10062000DD6AC5F30316DD6A761CB4FBF6F4C5F388
:100630000325AD1C6C43B4FBF2F24243D6E7104AEB
:100640005043086058680C4AC0F30310121D105C38
:100650000A68C2400A6070BD0010024000200240DB
:1006600000F0FEFF440601000000FFF0FFFFF6FE71
:1006700008ED00E000127A002000002040787D01A3
:1006800000093D0038B504460C48012150F824000B
:1006900000F076FD09486946083830F81400ADF8D6
:1006A000000010208DF8030003208DF8020004489C
:1006B00050F8240000F035FB38BD00002C3F000846
:1006C000340000207FB504463C480D46012150F817
:1006D000240040F0010000F053FD04208DF80F00CD
:1006E000364803A9283830F81400ADF80C00344817
:1006F00050F8240000F015FB012D28D12F481038A8
:1007000010F81410083810F8140000F0BCFB2B4847
:10071000203830F81400009000208DF804000C20E0
:100720008DF805008DF80650684600F02DFF23482F
:10073000083810F814008DF808000F208DF8090013
:100740008DF80A008DF80B5002A800F040FA7FBD2A
:1007500070B51C4CD4F8100128B90F2000F0AAF88D
:10076000D4F8100120B1184DD5F8280110B107E0D8
:10077000012070BD0F2000F09DF8D5F8280118B1B8
:10078000D4F8340110B107E0022070BD0F2000F052
:1007900091F8D4F8340120B10C4CD4F8000110B118
:1007A00007E0032070BD0F2000F084F8D4F80001AA
:1007B00008B1002070BD042070BD0000643F000837
:1007C000440000200000224200802142000021421B
:1007D00008B50121042000F0D3FC0820ADF800008A
:1007E00010208DF8030003208DF8020069460748A9
:1007F00000F097FA06490120086008BD044900206E
:1008000008607047024901200860704700080140F5
:100810008C01214201F01BB801F04CB802F0CEBDB2
:10082000324810B50078012807D100F0DDFF01F053
:1008300086F8BDE8104000F0E1BF10BD10B56FF0C4
:10084000040000F002FA2A4841F28832016829487F
:10085000B1FBF0F1284801705143052242804FF06E
:10086000E020026942F0020202614161016941F047
:100870000101016110BD2DE9F0414FF0E027002496
:100880007E691D49097800FB01F500F0E0FFB969B8
:10089000B8698842FCD002D2A1EB000102E0A6EBCD
:1008A000000211440C440146AC42F1D3BDE8F041D2
:1008B00001F000B870B504460C48007878B10F48D4
:1008C000007860B90C4D6888844203D3B4FBF0F023
:1008D00002F074FD6888B4FBF0F100FB11444FF4A2
:1008E0007A706043BDE87040C5E700008B000020CF
:1008F0002000002000127A00540000208600002012
:10090000704745490A885206FCD5434AC1B2121DB8
:100910001180704770B50546012186B0480400F08B
:1009200038FC0121212000F02BFC0121082000F0DF
:1009300081FA2020ADF8100003248DF81240182011
:10094000364E8DF8130004A9304600F0EAF9402035
:10095000ADF8100004208DF8130004A9304600F013
:10096000E0F926208DF814008DF815408DF816401A
:1009700001208DF8170005A800F029F90020ADF836
:100980000400ADF80600ADF80800ADF80C000C202E
:10099000234CADF80A0000956946204600F07EFC25
:1009A000012240F22551204600F0FAFC01212046A8
:1009B00000F0ECFC06B070BD70B500F015FF184CEF
:1009C00040F22551204600F0A2FDE0B1204600F0A3
:1009D00037FD144AC1B21088030414D444044FF004
:1009E000000304D50A290DD140F4004011E00D297F
:1009F0000DD0C0F30D040C4D401C80B22955108061
:100A0000C72800D91380BDE8704000F0F7BE40F45D
:100A100080401080F7E700000038014000140140DA
:100A20000044004058000020E010002003E011F8CE
:100A3000013B00F8013B521EF9D2704701E000F87B
:100A4000011B521EFBD2704710B54D4C4FF4206273
:100A50000021E068FFF7F2FF4FF420420021A06878
:100A6000FFF7ECFF0120207410BDEDE7444A10B5FC
:100A70000021D26808464FF4A06332F8104004B158
:100A8000491C401C9842F8D364204143B1FBF3F069
:100A9000C0B210BDEAE770B5394D06460024287C87
:100AA00008B9286880474FF0FF32F6B1C6F34F11FE
:100AB000F00601D0491C89B2EB6840F2FF4033F8E0
:100AC000105025B100248C420DD1002206E0641C98
:100AD000A4B2F8E78418521C23F814108A42F9D300
:100AE0004FEA401070BD401EE9D5104670BD70B58C
:100AF000234A117C49B1B0F5204F12D24109D26886
:100B00000020034632F8114007E0106880470120BA
:100B100070BD0D18401C22F81530A042F9DB0020F2
:100B200070BD022070BD002903D015488068081AE6
:100B3000DDE7704710B50846FFF7ADFF411C03D055
:100B40000F498968084410BD002010BD2DE9F0410F
:100B500016460F461046FFF79EFF0446401C0CD079
:100B6000074D32463946A8682044FFF75FFF3946F3
:100B70000120FFF7D8FFA8682044BDE8F0810000FD
:100B80005C0000200948804709480047FEE7FEE76F
:100B9000FEE7FEE7FEE7FEE7FEE7FEE7FEE7FEE72D
:100BA00004480549054A064B7047000087050008C0
:100BB0005101000848CB002048D7002048CF002032
:100BC00048CF00202749084327490860704770B57F
:100BD0000F23C278017801244FF0E025DAB1224AD0
:100BE000126802F4E062C2F5E062120AC2F1040681
:100BF000D3404278B24086781E401C4B16433201E7
:100C0000CA54007800F01F018C40400905EB8000B9
:100C1000C0F8004170BD01F01F008440480905EB99
:100C20008000C0F8804170BD114A114001430E4858
:100C3000001F016070470C4A121D0029116801D085
:100C4000014300E08143116070474FF0E021042828
:100C5000086903D020F004000861704740F00400E8
:100C6000FAE700000000FA050CED00E000E400E007
:100C700080FFFF1F8E4910B5884206D10121042054
:100C800000F099FA002104203BE08A49884206D10D
:100C90000121082000F08FFA0021082031E0864968
:100CA000884206D10121102000F085FA0021102091
:100CB00027E08249884206D10121202000F07BFAFA
:100CC000002120201DE07E49884206D101214020DC
:100CD00000F071FA0021402013E07A49884206D1E1
:100CE0000121802000F067FA0021802009E0764988
:100CF00088420AD184150121204600F05CFA0021C7
:100D00002046BDE8104000F056BA10BD10B50121D4
:100D1000084600F050FA0021BDE81040012000F024
:100D20004ABAF0B5CC78002204F00F03E40601D5EE
:100D30008C7823430C784FF00F0C4FF0010EDCB190
:100D400005680E880EFA02F42640A64210D19600DD
:100D50000CFA06F725EA070703FA06F5CE783D43B5
:100D6000282E02D0482E02D002E0446100E0046147
:100D7000521C082AE5D305600A88FF2A1CD944685A
:100D8000002202F108060EFA06F50E882E40AE4249
:100D90000ED196000CFA06F7BC4303FA06F7CE789C
:100DA0003C43282E00D14561CE78482E00D1056104
:100DB000521C082AE5D34460F0BD4FF6FF71018054
:100DC000022181700421C1707047024600209268A0
:100DD0000A4200D001207047806880B27047024606
:100DE0000020D2680A4200D001207047C06880B25B
:100DF000704701617047416170470AB101617047F6
:100E000041617047C160704741F480328261816105
:100E100082618169806970472C4B10B51A684FF662
:100E20008074224042EA00100843186010BD28492F
:100E3000C8617047F0B5254C002801DAE36900E08D
:100E40006368450D2E0185B2C0F30157B540C0F36C
:100E50000342032F05D0C6020AD503269640B343AA
:100E600007E023F07062636823F07063636002E060
:100E7000AB4343F0706201B12A43002801DAE2611A
:100E8000F0BD6260F0BD10B58A0721F003040F4980
:100E9000120F21440F238C6893409C438C608B6815
:100EA000904003438B6010BD0949DC3108607047F6
:100EB00000080140000C01400010014000140140F6
:100EC00000180140001C01400020014000000140CA
:100ED00000002042CE48016841F0010101604168F4
:100EE000CC4A114041600168CB4A11400160016861
:100EF00021F480210160416821F4FE014160016814
:100F000021F0A05101604FF47F0181600021C16296
:100F10007047BF490A6822F480320A600A6822F4E6
:100F200080220A60B0F5803F07D0B0F5802F03D152
:100F3000086840F4A02008607047086840F48030DA
:100F4000F9E7034600205909B14A01290AD00229CC
:100F50000AD0516A03F01F02012393400B4200D0D4
:100F6000012070471168F5E7116AF3E718B5002012
:100F70004FF4A06400903120FFF7E3FF0099491C73
:100F80000091A14201D00028F5D03120FFF7D9FF10
:100F9000002800D0012018BD9D4A116821F0F801F9
:100FA00041EAC000106070479C4908607047984B48
:100FB0005A68084322F474121043586070479749E6
:100FC00008667047924B10B5DA6A954C0843224088
:100FD0001043D86210BD8E4AD16A21F0F00101435E
:100FE000D16270478A4AD16A21F470610143D162AB
:100FF00070478A4988667047854AD16A21F47041F2
:101000000143D1627047854908677047804A51683B
:1010100021F003010143516070477D48406800F0B2
:101020000C0070477A4A516821F0F0010143516089
:101030007047774A516821F4E0610143516070477D
:10104000734A516821F4605141EAC0005060704712
:101050006F4A0029517A01D0014300E08143517267
:1010600070476E49D83108607047694A516821F469
:1010700040410143516070476A49086070476949BF
:10108000091D086070476249002281F8202081F81C
:101090002020012802D0042802D1052081F8200058
:1010A000704761490860704759490A6A02430A62F9
:1010B00070475D49443908607047F0B5544B596832
:1010C0005A4A11F00C014FF00F0604D0584C042975
:1010D00003D0082903D0026028E0046026E05968A4
:1010E0005A6806EA914102F480320D2901D0891C28
:1010F00000E00621BAB1DA6A12F4803FDA6A02F03F
:101100000F0202F101020AD0DD6AC5F30317DD6A9E
:101110007F1CB4FBF7F4C5F30325AD1C6C43B4FB93
:10112000F2F24A43D7E7434A514301605968424AC1
:1011300006EA1111545C0168E14041605C680725D2
:1011400005EA1424145D21FA04F484605C6805EA5D
:10115000D424125DD140C1605A68032303EA92325D
:10116000354B1B1F9A5CB1FBF2F10161F0BD284ABF
:101170000029516901D0014300E08143516170476A
:10118000234A0029916901D0014300E08143916124
:1011900070471F4A0029D16901D0014300E0814313
:1011A000D16170471A4A0029916A01D0014300E0D9
:1011B000814391627047164A0029D16801D00143EA
:1011C00000E08143D1607047114A0029116901D0C4
:1011D000014300E0814311617047134940390860C1
:1011E00070470E49C86470470949C871704708487C
:1011F000416A41F0807141627047054A0146002012
:1012000092680A4200D001207047014988727047F5
:10121000001002400000FFF0FFFFF6FE0000424217
:10122000F0FFFEFFC40542428004424200127A00F1
:1012300040787D0100093D0074000020C64910B5CA
:1012400088420AD101218C032046FFF7B4FF2046D3
:10125000BDE810400021FFF7AEBFC049884202D16F
:1012600001214C0410E0BE49884202D101218C04C6
:101270000AE0BC49884202D10121CC0404E0BA4909
:1012800088420AD101210C052046FFF79DFF204628
:10129000BDE810400021FFF797BF10BD30B50446F0
:1012A000008A85B00D464CF6FF710840E98801437D
:1012B0002182A0894EF6F3110840A9882A8911439A
:1012C0006A8902431143A181A08A4FF6FF41084079
:1012D000A9890143A1826846FFF7EFFE9E48844238
:1012E00001D1039800E00298A1890904002900EBCC
:1012F000C00101EB0010296802DA4FEA410101E068
:101300004FEA8101B0FBF1F06422B0FBF2F14FEA49
:1013100001114FEA11136FF018056B4300EB8300C6
:10132000A3891D044FF0320306D503EBC000B0FBC8
:10133000F2F000F0070005E003EB0010B0FBF2F064
:1013400000F00F000843208105B030BD4FF4165166
:10135000016000218180C18001810C224281818154
:10136000704710B5028A4FF2FF031A400B884C8871
:1013700023438C88C9880C4323431343038210BD45
:101380000021018041808180C180704700298189CE
:1013900002D041F4005101E021F4005181817047F5
:1013A00010B5C1F3421301F01F040121A140012B2C
:1013B00007D0022B07D01430002A026805D00A4358
:1013C00004E00C30F8E71030F6E78A43026010BD05
:1013D000002A828A01D00A4300E08A438282704751
:1013E000028A22F00F020282028A0A4302827047B6
:1013F000828922F40062828182890A438281704755
:101400000029818902D041F0020101E021F00201AE
:1014100081817047028A22F020020282028A0A43F6
:10142000028270470029018A02D041F4804101E024
:1014300021F4804101827047C1F308018180704727
:101440008088C0F308007047818941F001018181E3
:101450007047028BD2B20283028B42EA01210183E0
:101460007047028B02F47F420283028B0A4302839D
:1014700070470029818A02D041F0200101E021F06B
:101480002001818270470029818A02D041F0100139
:1014900001E021F01001818270470029818A02D089
:1014A00041F0080101E021F0080181827047002924
:1014B000818902D041F4004101E0C1F30E01818134
:1014C00070470029818A02D041F4006101E021F4D3
:1014D000006181827047828A22F004028282828ABD
:1014E0000A43828270470029818A02D041F00201BA
:1014F00001E021F00201818270470246002012883B
:101500000A4200D001207047C9430180704770B57E
:1015100001F01F0501260024C1F3421306FA05F26B
:10152000012B0FD0022B0FD0838A4FEA11210088A4
:10153000134206FA01F600EA060001D000B10124C8
:10154000204670BD8389F0E7038AEEE70A0A01218D
:101550009140C94301807047003801400044004079
:1015600000480040004C0040005000403749002037
:101570000860091D0860091D0860091D08603349DD
:10158000334814310860704730B5304A83790168B8
:1015900053B313688B431360111D0B680468A34396
:1015A0000B60017911440B68046823430B60274BDF
:1015B000083319680468A14319601C1D2168056877
:1015C000A94321604179102905D011440A680068B7
:1015D00002430A6030BD196802681143196021682E
:1015E00000680143216030BD0079104402688A43DD
:1015F000026030BD0021016001710C2242718171D5
:101600007047124910310A6802430A607047014668
:101610000E4A0020143212680A4200D0012070479E
:101620000A49143108607047084A014600201268D0
:10163000064B0A4014331B680B4202D0002A00D02C
:1016400001207047014914310860704700040140CF
:10165000FFFF0F007CB5FF4D00246946204601F0D6
:10166000D0FD58B955F8241041B1012906D0D1E96F
:10167000020200EB8200486401988864641CE4B2B2
:101680003F2CEAD97CBDF44C02E0282001F096FE04
:1016900060780028F9D0642160690025B0FBF1F082
:1016A000606118B92570FF2001F0DCFD02F0BEF981
:1016B000E169C4E9061502F0BDF9D4E90510B0FBF3
:1016C000F1F0C0F16400207002F012FAFFF7C2FFDF
:1016D000142001F073FEE9E7DF4C02F0A7F9E1699D
:1016E000491CE16102F0A6F902F001FAF5E70022D7
:1016F00003E0491E00F8012B89B20029F9D1704797
:1017000070B586B002F0ECF9D34D00242C63AC70B8
:10171000EC702C72EC71EC60EC61AC616C616C7023
:10172000AC71204605F134010C54401CC0B20828AD
:10173000FAD32C716C71AC622C6200F057FAC8219C
:10174000C648FFF7D4FFC54B0020411C0A4600EBFA
:10175000800089B203EB800001EB810103EB810182
:101760000470416090B20928EFD300EB800003EBD6
:101770008000047044602B6100F01EFD01F03FF911
:101780008026B748CDE90106B24A03254FF6FF701F
:101790003F23121F00210090AFF2C300CDE90345A3
:1017A00001F097FB05AAAFA13F2001F0B5FCAB48C3
:1017B000AB4AC830CDE901064FF6FE703E23121F3A
:1017C00000210090AFF24110CDE9034501F081FB0B
:1017D00005AAA8A13E2001F09FFC02F0B0F806B0D7
:1017E000BDE8704002F080B99B49C879012804D156
:1017F0008878FF2801D2401C8870704770B5964CDD
:10180000E079012822D102F011F9A178054621B131
:10181000491E11F0FF00A07013D1E07888B900F0E4
:1018200015FA8C49607951F82010A1622279904212
:1018300007D0886B401C8863E068401CE06002F0C1
:1018400014F92846BDE8704002F0F4B870BD10B538
:10185000814CE07901280CD102F0E8F8A17821B997
:10186000E178FF2901D2491CE170BDE8104002F087
:10187000E1B810BD70B502F0D9F8774C0546A078F4
:1018800098B9E07888B900F0E1F97248627950F8C7
:101890002210A1622079824207D0886B401C8863A5
:1018A000E068401CE06002F0D9F82846BDE87040CE
:1018B00002F0C0B810B5684CE079012813D102F0ED
:1018C000B5F8E17831B1491E11F0FF01E17001D1A5
:1018D000A17819B1BDE8104002F0ACB802F0AAF846
:1018E000BDE81040C6E710BD10B55B4CE07900289C
:1018F0000CD100F0ABF960795649207151F8200005
:10190000A0622062BDE8104002F097B810BD10B58B
:10191000022001F053FD02F089F84F4C0021E161F3
:1019200002F088F8142001F049FD02F07FF8E16927
:10193000616101216170BDE8104002F07BB82DE9C2
:10194000F04102F011F902F071F8434D296B491C86
:10195000296302F06FF8E87901283BD1687A012603
:10196000002720B1012835D0022802D06F72EC6A1E
:101970002CE06E72FBE702F059F8E16A19B3491ED8
:10198000E16220D194F8301011F0370F06D001F049
:10199000C80184F8301084F8316001E084F83170B7
:1019A00094F8301009070ED494F83610AA792A4B0F
:1019B0001143A97194F83410343394F835C05A5C4B
:1019C00042EA0C025A54646902F034F894F8320086
:1019D0003F28D0D1BDE8F08140F223107047704716
:1019E00010B590F8342090F835408B18DA7AA2437D
:1019F000DA7204D18A7A90F8360082438A7210BD76
:101A0000F0B50E460146847A1E484FF00007045D8B
:101A100001EB0405ED7A405D00EBC400C5B20D4852
:101A200050F8250000F12000C7600660067C26EA19
:101A3000020606744374A0F12000320726D4064A39
:101A400090F83630967933439371343290F835609C
:101A5000135D19E070C0002084000020A8BB0020A6
:101A600070BE002075432F4F532D49492049646CA7
:101A70006500000075432F4F532D49492053746171
:101A800074000000743F000833431355FFF7A8FFAC
:101A90002846F0BD30B5734C00F10B02216A41F8C5
:101AA0001C0F0B7E497E9D5C0D439D54216A827AFA
:101AB00034318B781A438272087804F134034D78FC
:101AC0001A5C3439AA431A5404D191F83610A0791B
:101AD0008843A07130BD0022827211464318491C10
:101AE000C9B2DA720829F9D3704705E011F8013B51
:101AF000521E00F8013B92B2002AF7D1704701460E
:101B0000002002E0491C401CC0B20A78002AF9D12A
:101B100070472DE9F05F9846DDE90ABA91460E4616
:101B2000054601F083FF4F4F7C6A002C5AD0616953
:101B30001834796201F07EFF44F8186CA57600260F
:101B400026766676666144F80CBC44E905A90C98D3
:101B500024F8080CE80824F8068CE67701222077A0
:101B600005F0070102FA00F3E176A3778A40627775
:101B70006660E660A6602662A66266623AA0E662D9
:101B8000C4E90C60183C002004EB8001401C0E6589
:101B900010F0FF00F8D0204601F0E5FF204601F0EC
:101BA000A4FF01F043FF0146304840F82540F86AA1
:101BB000C4E9050600B18461FC623434BA79A078C6
:101BC0001043B871274A207834326478135C234379
:101BD0001354387A401C3872084601F02BFF00205D
:101BE000BDE8F09F01F026FF4220F9E700B54FF471
:101BF0007C711F48FFF77BFD4FF480711B48FFF796
:101C000076FD1B4B0020411C0A46C9B2C0EBC00048
:101C100000EB4000C1EBC10103EB800001EB41018F
:101C200003EB8101416110A1C164D0B20B28EAD35A
:101C3000C0EBC00000EB400003EB80000AA20021D3
:101C4000C264416107484362C16200BD0549094A57
:101C500001F134038879105C1B5CD25C02EBC0009C
:101C600048717047840000203F00000070C00020D1
:101C700070C10020743F00082DE9F041054600784E
:101C80000F461E461446052804D001201870002077
:101C9000BDE8F08114F0800002D022F08004012021
:101CA00080460020307001F0C1FE7022FCB1012C92
:101CB00023D0022C08D0032C11D001F0BBFE00244D
:101CC0006F2030702046E3E72C8921463C40BC421F
:101CD00009D01CE0A14318E001F0ACFEF2E72C892A
:101CE00021463C4013D0B8F1010FF5D1F2E7298924
:101CF00027EA0104BC4204D009E0298937EA01043B
:101D000005D0B8F1010FE7D121432981E4E7327012
:101D1000E2E770B50646FA480D46007818B1102083
:101D20000870002070BD01F081FEF6490C6864B1B6
:101D300062680A600521217026810026F2A1666092
:101D4000E16001F077FE2E7003E001F073FE722077
:101D50002870204670BDD0E9001200232AB111601E
:101D600001B14A60806843627047C26800295160CF
:101D7000F8D04B60F6E710B50246806800232830A3
:101D800043600180017A11F0DF0101724372A0F11A
:101D9000280005D000241046FFF7DDFF204610BDC7
:101DA000DA49343083780C7823430B700178D84BB0
:101DB00040785C5C04435C540124ECE72DE9F05F5F
:101DC0000446CF4888461646007808B10F2003E045
:101DD0002078052802D0012010701AE001F026FEBC
:101DE000656881460DB1012700E00027DFF814A3E4
:101DF0004FF0000BB8F1000F06D0B8F1010F20D062
:101E000001F018FE072003E037B101F013FE49206E
:101E100030702046BDE8F09FBBA0E06084F800B0C1
:101E2000DAF800106160A4F808B05D464846CAF8C8
:101E3000004001F0FFFD19E000212846FFF79BFF5D
:101E40002D68002DF8D1B0A0E06084F800B0DAF879
:101E500000106160A4F808B05D464846CAF800402A
:101E600001F0E8FD012F01D1FFF704FD35700020DE
:101E7000D0E72DE9F0410746A1480E461446007808
:101E800010B1112010700AE001F0D0FD054638783D
:101E9000052806D0284601F0CDFD01202070002045
:101EA000F6E6F8683060FFF72AFE0646284601F09D
:101EB000C1FD002020703046EAE670B50546904826
:101EC0000E461446007810B11220107070BD01F05B
:101ED000ADFD2978052903D001F0ACFD012003E018
:101EE000EE6001F0A7FD0020207070BDF0B5894DB7
:101EF000059E2C682434277B47F020072773002792
:101F00006773A66044F824190A828B748C60426857
:101F1000C860C1E90027426802B151604160286889
:101F20007B4B90F8341090F835405A5CA2435A54D9
:101F300005D1764990F83620087890430870F0BDB6
:101F40002DE9F04F04466E4887B09A460078109D00
:101F500091460F4608B1022099E06F48007808B119
:101F60000D2094E02078052801D001208FE019F0A1
:101F7000800F03D009F07F09012600E0002601F060
:101F800055FD06905FEA09004FF0000B21D00128B3
:101F900036D0022808D0B9F1030F13D0069801F00B
:101FA00049FD00206F215FE0208900EA0708B8455D
:101FB0000CD02FE020EA08002AE056490968A1F871
:101FC000288014E0208910EA070823D0012EF4D1DC
:101FD000F0E7208927EA0008B8451BD1012E02D17D
:101FE00040EA080020814B480068A0F82880069845
:101FF00001F020FD85F800B0404607B0BDE8F08F45
:10200000208937EA000805D0012ED6D140EA080021
:102010002081D2E74B463A4601A92046CDF800A0E0
:10202000FFF764FF069801F005FDFFF723FC01F0C0
:10203000FDFCDFF8E0808446D8F8000090F83170AD
:10204000A7B180F831B05C4601A8FFF784FED8F84C
:10205000000080F83040604601F0ECFC0020022FC8
:1020600001D00A2100E00E212970C6E7078D012E5C
:1020700016D15FEA090010D001280ED0022809D03D
:10208000B9F1030F06D0604601F0D4FC6F20287030
:102090000020B2E72089B84301E02089384320813D
:1020A000604601F0C7FC85F800B03846A5E710B5DA
:1020B00001F0BCFC174909680C8D01F0BBFC2046FF
:1020C00010BD2DE9F0410546007814460E461F4626
:1020D000052802D0012018702DE001F0A7FC8046F1
:1020E0002CB1012C06D001F0A5FC712022E028893A
:1020F000B04301E028893043288100266C6836E02F
:1021000086000020C00000203F0000008A00002060
:10211000B8000020A400002087000020A07CA0B10F
:10212000012819D0022808D003280AD0404601F01F
:1021300081FC6F2038700020AAE52989208A01409F
:1021400007E02989208A014009E0218A2A89084676
:102150009143884204D009E0218A2889814329B12A
:102160002046FFF708FE012800D101262468002C34
:10217000D4D1404601F05EFC012E01D1FFF77AFB7D
:1021800001F054FC2C8901F055FC002038702046E9
:102190007EE570B5054600780C46052803D0012081
:1021A0000870002070BD01F041FC2D8901F042FC57
:1021B00000202070284670BD10B550210E48FFF752
:1021C00096FA00200C4B0446411C03EB00108AB227
:1021D00003EB021204704260AFF2D402C26088B214
:1021E0000428F1D303EB00100470AFF2E401446063
:1021F000C1600248036010BD60C50020C00000201F
:1022000070B504460078012801D0002070BD01F0AF
:102210000DFC00216568616001F00CFC284670BD72
:1022200070B50546C248007808B1002070BD01F0C5
:10223000FDFBC0490C680CB162680A6001F0FAFB52
:102240003CB1012020700020208120466560FFF70E
:1022500042FC204670BD2DE9F047044600788846D0
:102260001546012801D0012003E0B148007810B1E3
:102270000F2010701BE001F0D9FB0746A07A08B1CF
:10228000012600E000265FEA0800DFF8A8924FF080
:10229000000806D0012822D0384601F0CBFB0720E9
:1022A00004E03EB1384601F0C5FB492028702046C5
:1022B000BDE8F08784F80080D9F800106160A4F8C8
:1022C000088046463846C9F8004001F0B3FB2E703E
:1022D0001AE00023022219462046FFF791FBA07A5C
:1022E0000028F6D184F80080D9F800206260A4F8B4
:1022F00008803846C9F8004001F09CFB012E01D14E
:10230000FFF7B8FA85F800800020D1E72DE9F04703
:10231000064600788A461446012801D0012008E0CC
:102320008348007808B1022003E08348007818B1A0
:102330000D2010700020BBE701F078FB75680746A0
:1023400000213DB188463846716001F073FB84F886
:10235000008037E0DFF8E4918846D9F8000010F8F3
:10236000302F42F002020270417040F804AC304657
:10237000FFF790FB384601F05DFBFFF77BFA01F0B9
:1023800055FB0746D9F8000090F8311031B1022909
:1023900008D03146FFF724FB0A2004E0056A84F8E0
:1023A000008001E00E202070D9F800001C3080F879
:1023B000148080F81580C0F80080C0F8048038468A
:1023C00001F038FB284673E72DE9F0410F4605463A
:1023D000017801201646012901D0107029E001F092
:1023E00025FB8046A87AF8B10024012F10D00223E3
:1023F0001A4600212846FFF703FB0124404601F05E
:1024000019FBFFF737FA0E2030702046BDE8F08147
:1024100002231A4600212846FFF7F2FA641CA87A24
:10242000E4B20028F4D1E9E7404601F003FB0020C4
:1024300030700020EAE770B5044600780E460128A7
:1024400001D0012070BD01F0F1FA0546A07A58B123
:102450000023022231462046FFF7D2FA284601F037
:10246000E9FAFFF707FA0AE0606820B1284601F0B0
:10247000E1FA142070BD2846666001F0DBFA002006
:1024800070BD2DE9F0410446007815460F4601283D
:1024900001D00120BAE701F0C9FA0646A07AD0B10E
:1024A000E80709D00023022239462046FFF7A8FAA0
:1024B000A07A0028F6D105E0002302223946204602
:1024C000FFF79EFA304601F0B5FA680701D4FFF72E
:1024D000D1F900209AE7606820B1304601F0AAFAED
:1024E000142093E73046676001F0A4FAF1E72DE984
:1024F000F041064600780F46012801D0012085E70B
:1025000001F094FA0146B07A38733C1D06F10B05D0
:102510000020401C15F8012BC0B204F8012B08283C
:10252000F7D370683860084601F084FA00206DE740
:10253000860000209400002087000020A4000020D6
:1025400070B5054600780C46022803D001200870BB
:10255000002070BD01F06AFA6A680346D08A70B143
:102560001169081D10610D68D18A491ED1829168D8
:10257000884201D1506810610020207002E01F20C5
:1025800020700025184601F055FA284670BD2DE947
:10259000F0410646F7488846007810B10020BDE8B3
:1025A000F08101F043FAF44F3D680DB1696839607C
:1025B00001F040FA05B301F039FAF0490C68ACB10A
:1025C00022680A6001F036FA06EB8800C4E901606F
:1025D000E6602661A4F814800020E08202212970C0
:1025E000288128466C60FFF776FA05E03968696053
:1025F0003D6001F01FFA00252846D0E72DE9F0479D
:102600000446007888461546022801D0012003E0E0
:10261000D848007810B10F2010701DE001F006FAC4
:102620000746A07A08B1012600E000265FEA08000C
:10263000DFF84883DFF840A34FF0000906D00128F7
:1026400028D0384601F0F6F9072004E03EB13846BC
:1026500001F0F0F9492028702046BDE8F087606855
:10266000D8F800204E460260C8F8000084F80090B8
:10267000DAF800106160A4F808903846CAF8004003
:1026800001F0D8F92E7021E00023042219462046DB
:10269000FFF7B6F9A07A0028F6D16068D8F80020D4
:1026A0000260C8F8000084F80090DAF80020626048
:1026B000A4F80890C8463846CAF8004001F0BAF9B4
:1026C000012E01D1FFF7D6F885F800800020C4E77D
:1026D00010B5044601F0AAF961684A68CA600A6147
:1026E0000022CA8201F0A6F9002010BD2DE9F047B2
:1026F0000646007889461446022801D0012008E0E9
:102700009C48007808B1022003E09D48007818B189
:102710000D2010700020A0E701F088F905467068D0
:102720000027C18A89B10269111D01611668C28A38
:10273000521EC2828268914201D1416801612846DD
:1027400001F078F92770304687E7DFF83882D8F84B
:10275000000010F8301F41F004010170477040F88C
:10276000049C3046FFF796F9284601F063F9FFF71D
:1027700081F801F05BF98146D8F8000090F831103B
:1027800039B1022908D03146FFF72AF900250A207D
:1027900004E0056A277002E000250E202070D8F8BA
:1027A00000001C300775477507604760484601F018
:1027B00041F9284651E72DE9F0410F4605460178D9
:1027C00001201646022901D0107028E001F02EF9F0
:1027D0008046A87AF0B10024012F0FD002230422F2
:1027E00000212846FFF70CF90124404601F022F9A8
:1027F000FFF740F80E2030702046D0E60223042276
:1028000000212846FFF7FCF8641CA87AE4B20028EF
:10281000F4D1EAE7404601F00DF9002030700020C5
:10282000BDE670B5044600780E46022801D00120AE
:1028300070BD01F0FBF80546A07A58B100230422D0
:1028400031462046FFF7DCF8284601F0F3F8FFF7A1
:1028500011F819E06068C18A828A914204D328463F
:1028600001F0E8F81E2070BDC1680A1DC2600E604C
:10287000C18A491CC182D0E902128A4201D1416851
:10288000C160284601F0D6F8002070BD70B504463E
:1028900000780E46022801D0012070BD01F0C6F874
:1028A0000546A07A58B10023042231462046FFF79E
:1028B000A7F8284601F0BEF8FEF7DCFF18E06068D4
:1028C000C18A828A914204D3284601F0B3F81E20BF
:1028D00070BD42680169914201D181680161091F9F
:1028E00001610E60C18A491CC182284601F0A2F82C
:1028F000002070BD2DE9F0410746007814460D46D2
:10290000022801D001204AE601F090F80646B87A84
:10291000D0B1E00709D00023042229463846FFF74A
:102920006FF8B87A0028F6D105E000230422294682
:102930003846FFF765F8304601F07CF8600701D4AF
:10294000FEF798FF00202AE67B68D88A998A884299
:1029500004D3304601F06EF81E2020E6A00713D500
:1029600059681869884201D198681861001F186178
:10297000056013E08600002094000020C4000020C1
:1029800087000020A4000020D868011DD9600560E0
:10299000D3E90201814201D15868D860D88A401C2D
:1029A000D882304601F046F8CCE72DE9F0410746E1
:1029B00000780E46022801D00120F0E501F036F83B
:1029C0000146B87A307407F10B0406F108050020BF
:1029D000401C14F8012BC0B205F8012B0828F7D3CE
:1029E0007868C28A0AB1026912683260C28AB2800B
:1029F000808AF080084601F01DF80020CFE510B570
:102A000078210D48FEF773FE0B4B0020411C0A464F
:102A100089B200EB400001EB410103EBC10143F837
:102A2000301090B20428F1D300EB4000002143F8AD
:102A300030100248036010BDB0C50020C400002063
:102A400070B505460078032801D0002070BD00F065
:102A5000EDFF2C890CB1611E298100F0EBFF2046AF
:102A600070BD70B50546B148007808B1002070BD52
:102A700000F0DCFFAE490C680CB162680A6000F03F
:102A8000D9FF3CB1032020702581002060602046E2
:102A9000FFF721F8204670BD2DE9F0470446007885
:102AA00088461546032801D0012003E09F4800789E
:102AB00010B10F2010701BE000F0B8FF0746A07A9D
:102AC00008B1012600E000265FEA0800DFF8609206
:102AD0004FF0000806D0012822D0384600F0AAFFA7
:102AE000072004E03EB1384600F0A4FF49202870DA
:102AF0002046BDE8F08784F80080D9F800106160B6
:102B0000A4F8088046463846C9F8004000F092FF15
:102B10002E701AE00023012219462046FEF770FFAE
:102B2000A07A0028F6D184F80080D9F800206260ED
:102B3000A4F808803846C9F8004000F07BFF012E59
:102B400001D1FEF797FE85F800800020D1E72DE93E
:102B5000F0470546007889461446032801D0012035
:102B600008E07248007808B1022003E0714800785C
:102B700010B10D201070BCE700F058FF0646288900
:102B8000002730B1401E2881304600F053FF2770E7
:102B9000AFE7DFF8A481D8F8000010F8301F41F04B
:102BA00001010170477040F8049C2846FEF772FF4F
:102BB000304600F03FFFFEF75DFE00F037FF0646AF
:102BC000D8F8000090F8311031B1022906D029461A
:102BD000FEF706FF0A2002E0277001E00E202070B9
:102BE000D8F800001C300775477507603046BDE80F
:102BF000F04700F01FBF2DE9F0410F460546017870
:102C000001201646032901D0107029E000F00EFFC4
:102C10008046A87AF8B10024012F10D002230122A7
:102C200000212846FEF7ECFE0124404600F002FF9A
:102C3000FEF720FE0E2030702046BDE8F081022312
:102C4000012200212846FEF7DBFE641CA87AE4B2CC
:102C50000028F4D1E9E7404600F0ECFE0020307097
:102C60000020EAE770B504460078032801D001206F
:102C700070BD00F0DBFE0546A07A58B100230122AA
:102C800019462046FEF7BCFE284600F0D3FEFEF7AC
:102C9000F1FD09E020894FF6FF71884206D2401C01
:102CA0002081284600F0C6FE002070BD284600F0B6
:102CB000C1FE332070BD2DE9F041064600780F4675
:102CC000032801D00120B8E700F0B0FE0146B07A39
:102CD000B872BC1C06F10B050020401C15F8012B36
:102CE000C0B204F8012B0828F7D330893880084691
:102CF00000F0A0FE0020A0E770B5044600780E4664
:102D00001546032802D00120107070BD00F08EFE21
:102D100000212970218939B9A17A29B14921297065
:102D2000BDE8704000F086BE2681F9E786000020ED
:102D30009400002087000020A40000202DE9F05F0F
:102D40000C46054600F072FEDFF80CC401465CF844
:102D5000240028B1084600F06DFE2820BDE8F09F51
:102D6000FF2D03D1FD48006890F832505CF8252013
:102D70001AB3012A26D0E308012000FA03F604F072
:102D8000070AF7B200FA0AF0C6B200204CF8250094
:102D90004CF8242092F834C0DFF8C4E392F83550A0
:102DA00092F836901EF80C00284221D0A843DFF894
:102DB000B4B30EF80C000AD00FE0084600F03AFE5B
:102DC0002920CBE7084600F035FE4320C6E79BF8F4
:102DD000000020EA09008BF800009BF8000038434F
:102DE0008BF800001EF8038048EA06080EF80380FE
:102DF000D06998B100EB0C0898F80BC03CEA050CC0
:102E000088F80BC003D1857A25EA09058572857A91
:102E10003D4385721844C57A3543C57202F8324F76
:102E20000846937082F801A01771D67000F002FE78
:102E3000CD480078012801D1FEF71CFD00208DE768
:102E40002DE9FE431C4616460F46804600F0EEFD77
:102E5000C649097821B100F0EDFD3C20BDE8FE83B4
:102E6000BD4D55F8241019B100F0E4FD2820F5E718
:102E7000012145F8241000F0DDFD002332463946DB
:102E8000404600F036FE0026014600960196334685
:102E9000324620460296FEF73CFE070007D000F0BF
:102EA000C5FD45F8246000F0C5FD3846D6E7AE48BC
:102EB00000780128F9D1FEF7DDFCF6E7D30707D04B
:102EC000920705D50022002902D004C0491EFAE766
:102ED00070472DE9FF4F83B01C46DDE91386DDE91D
:102EE000119792468B4600F0A1FDA049097829B1BF
:102EF00000F0A0FD3C2007B0BDE8F08F964D55F8DE
:102F0000241019B100F096FD2820F4E7012145F8BE
:102F1000241000F08FFD324639464846FFF7CEFFB9
:102F2000334652465946039800F0E3FD0097CDE939
:102F3000018601464A462046109BFEF7EAFD060040
:102F400008D000F073FD002145F8241000F072FD58
:102F50003046D0E7844800780128F9D1FEF78AFC92
:102F6000F6E72DE9F04705468048007810B140208B
:102F7000BDE8F0873F2D05D000F058FD0646FF2D37
:102F800002D005E03E20F3E77448006890F8325024
:102F9000DFF8C49159F825405CB1012C0ED094F8AB
:102FA00034106F4A94F83530505C984350540AD02E
:102FB0000FE0304600F03EFD4320D9E7304600F0F8
:102FC00039FD3D20D4E7674894F8362001789143D5
:102FD0000170E16911B12046FEF702FD606A08B197
:102FE000FEF7B9FE4FF00008C4F82C80604F84F85B
:102FF000308084F831803878FF2801D2401C387046
:10300000304600F017FDFEF7EAFC00F00FFD064623
:10301000387808B1401E3870204600F067FD5549E9
:103020000878401E087049F82580A069414690B193
:1030300061694161D4E9050181614F4801686161BD
:1030400004604EA0E064304600F0F4FC464800788E
:10305000012806D007E0606981614949606908601C
:10306000EBE7FEF707FC002082E710B504463F2897
:1030700010D0FF2C10D000F0D9FC374951F82410A3
:10308000A1B1012916D03F2281F8372000F0D2FCEF
:10309000002010BD3E2010BD00F0C8FC2F4909687B
:1030A00091F8374000F0C6FC204610BD00F0C2FC8D
:1030B000432010BD00F0BEFC3D2010BD2DE9F041C5
:1030C00006462A480F461446007810B111201070A9
:1030D00020E000F0ABFC0546FF2E03D11F4800683E
:1030E00090F832601C4850F82600432670B1012841
:1030F0000CD0C06C3860FEF702FD0646284600F092
:1031000099FC002020703046BDE8F081284600F090
:1031100091FC26700020F7E770B5054613480E466F
:103120001446007810B11220107070BD00F07EFCC3
:10313000FF2D03D10949096891F83250064951F829
:1031400025204325F2B1012A1CD0D66400F072FC80
:103150000020207070BD000070C00020A40000207E
:10316000B80000208A0000208B000020860000208C
:10317000870000208C000020A80000203F000000F5
:10318000B000002000F056FC257070BD10B504465C
:1031900000F04CFC844951F8241059B101290DD09C
:1031A00091F83020130728D512F0F70281F830206B
:1031B00008D009E000F03EFC462010BD00F03AFCCB
:1031C000432010BDCA6A1AB100F034FC002010BDC3
:1031D000764B34318A781C7822431A700A78744B03
:1031E00049789C5C0C439C5400F024FC71480078A6
:1031F0000128EBD1FEF73EFBE8E700F01BFC442082
:1032000010BD2DE9F0410446002008600E464860DC
:1032100000F00CFCFF2C03D16749096891F832409B
:10322000614951F8241051B1012908D00A7CD20714
:1032300009D0D1E90257002400F0FCFB08E000F0BF
:10324000F9FB432060E700F0F5FB45205CE7641CD8
:1032500001CD0028FBD0A0003060381B80007060DA
:10326000002051E770B5044600F0E0FB01465248EB
:10327000FF2C006805D090F83200A04204D101254F
:1032800003E090F83240FAE70025474850F8240060
:1032900058B101280ED090F83420454C90F8356094
:1032A000A35CB343A3540AD00FE0084600F0C2FB6E
:1032B000482070BD084600F0BDFB432070BD3B4A6E
:1032C00090F836401378A343137010F8302F42F073
:1032D00008020270084600F0ADFB012D01D1FEF797
:1032E000C9FA002070BD70B50E46054600F09EFB81
:1032F0000446FF2D03D13048006890F832502A4828
:1033000050F8251051B101290DD054223046FEF756
:10331000ECFB204600F08EFB002070BD204600F044
:1033200089FB292070BD204600F084FB432070BD3E
:1033300070B515460E46044600F078FB0146FF2C9A
:103340000CD0194850F8240000EB8600046D0846A4
:1033500000F070FB00202870204670BD1648006801
:10336000F2E72DE9F0411C4615460E46074600F0EF
:103370005DFB0146FF2F0BD00B4850F8270000EBF8
:1033800086000565084600F055FB00202070BBE66E
:1033900009480068F3E7084810B5006800F0F0FB42
:1033A000BDE81040FF20DCE570C000208A0000204E
:1033B000B80000208B000020A400002070B5044657
:1033C0004F480078002821D14E48007800281DD1B0
:1033D000002C1BD000F02AFB03464B484B4D0168E4
:1033E00091F8342091F83560A85CB043A85405D119
:1033F000474891F836500278AA4302701846CC62CA
:1034000000F018FBBDE87040FEF734BA70BD10B58F
:103410003B4C24780CB1552010BD3A4C24780CB1AB
:10342000322010BD9B1CC82463434FF47A74B3FB55
:10343000F4F34FF461646043C1EB011100EB8100D0
:10344000104400EBC00101EB001003EBC000FFF7DC
:10345000B5FF002010BD10B504463F2801D32A2037
:1034600010BD00F0E3FA2B4951F8241091B1012965
:1034700010D0CA6A92B10023CB6291F8302012F0CA
:10348000370F0FD022F0370281F83020012281F867
:10349000312009E000F0CEFA432010BD00F0CAFA56
:1034A000502010BD81F8313091F83020120710D42F
:1034B000174A34318B781478234313700A78134BEE
:1034C00049789C5C0C439C5400F0B4FAFEF7D2F9A6
:1034D00001E000F0AFFA002010BD10B500F0A6FA30
:1034E0000D490C6800F0A6FA204610BD10B5044640
:1034F00000F09CFA08490C60BDE8104000F09ABA50
:103500008600002087000020A4000020B8000020D2
:103510008A00002070C00020B40000202DE9F05F78
:103520008246FC48DDF828B00C9D00781F46904686
:10353000894608B18B2028E0FEF789F9F648002675
:103540000468ECB1E1680160F448E6602661018836
:10355000491C0180F2490888401E088094B101206E
:1035600084F82500C4E906A984F82480C4E9017B15
:103570000B982062FEF79EF92E702046BDE8F09F62
:103580003446EBE7FEF796F9862028700020F5E731
:10359000002180F8251080F82410C161416141604C
:1035A000E0A2816002620161DB490A68C2600860D2
:1035B000DA490888401E0880D9490888401C0880DC
:1035C000704710B5017DD84A01F0070102EBC10137
:1035D00000240B68C268834203D10A602AB11461D7
:1035E00003E00369DA6002B11361012280F825204B
:1035F000C46004618888401E888010BD70B505468F
:1036000000780C46642801D0892003E0C148007886
:1036100010B18B2008701EE0FEF719F995F82510FF
:10362000A9B1002601290AD0022908D0032903D014
:10363000FEF740F98D200DE02846FFF7C2FF28462F
:10364000FFF7A6FFFEF736F92670012070BDFEF7E2
:1036500031F987202070002070BD70B505460078D4
:103660000E461446642801D0892003E0A94800785A
:1036700010B1112010701DE0FEF7E9F895F8252033
:10368000A2B1012A07D0022A05D0032A03D0FEF7EF
:1036900011F98D200DE0286A3060FEF730FA0546FA
:1036A000FEF708F900212170284670BDFEF702F9E7
:1036B00087202070002070BD2DE9F041054600787C
:1036C0000C46642801D0892003E09248007810B1AC
:1036D0008B2008702DE0FEF7BAF895F8250020B38E
:1036E0000026012811D002281BD0032803D0FEF7A2
:1036F000E1F88D201CE08D4968690968451AFEF7DC
:10370000D9F826702846BDE8F08195F82400AF6905
:10371000022801D107B9EF69FEF7CCF826703846C8
:10372000F1E7FEF7C7F8267003E0FEF7C3F887203D
:1037300020700020E7E770B5044600780D46642845
:1037400001D0892003E07348007818B18B200870FD
:10375000002070BDFEF77BF894F825403CB1012CA9
:1037600005D0022C03D0032C01D08D2000E00020D6
:103770002870FEF79FF8204670BD032280F82520B0
:103780006A4A0129126814D0816991B111444161DA
:10379000017D654A01F0070102EBC10100230A68BF
:1037A000086042B1C26010618A88521C8A8003613D
:1037B0007047C169EAE70122C360F7E770B50546C3
:1037C00000780C46642801D0892003E05148007835
:1037D00010B18B2008701FE0FEF739F895F825101E
:1037E000B1B1002601290AD0022908D0032903D04B
:1037F000FEF760F88D200EE02846FFF7E2FE00217C
:103800002846FFF7BAFFFEF755F82670012070BD75
:10381000FEF750F887202070002070BD2DE9F041A0
:103820000546007817460E461C46642801D08920BC
:1038300003E03848007810B18B20187033E0FEF7B1
:1038400006F895F8250050B3012823D0022821D08E
:10385000032803D0FEF72EF88D2023E02846FFF73B
:10386000B0FE002020708EB18F20032E03D0042ED6
:1038700005D0842009E06A683AB1A96802E06A6864
:103880001AB139462846904700E02070FEF712F83A
:10389000012038E7FEF70EF88E202070F8E7FEF7DB
:1038A00009F88720207000202DE721480068FFF7E5
:1038B000D9B908B5DFF87880DFF86C901B4E6A46FE
:1038C0000021D8F80000FFF742F9FDF7C0FF30688B
:1038D000401C306000F00700022759F8304013E028
:1038E00060693168E56888420DD12046FFF769FEBE
:1038F00094F8240002281DD084F82570626812B163
:103900002046A16890472C46002CE9D1FDF7D2FF54
:10391000D5E7000086000020D8000020CA00002063
:10392000C80000203F000000A8CA0020CC000020F2
:10393000D400002001212046FFF71FFFDEE730B54D
:1039400087B04FF420712B48FDF7D1FE40212A4863
:10395000FDF7CDFE0020274B04466425411C00EBFB
:1039600080000A4603EBC00089B201EB81010570BB
:1039700003EBC10180F82540C160AFF2580101623C
:1039800090B20F28EAD300EB800003EBC000057073
:1039900080F82540AFF27401C460016217481949EC
:1039A0000460174804801020088017480360012035
:1039B000FFF757F8154908600020FFF752F814493F
:1039C000144A00230860802102910320CDE90340BE
:1039D0004FF6FD70CDE9000202F5FE7219460E4861
:1039E000FFF777FA05AA0DA10020FFF795FB07B0B6
:1039F00030BD000028C60020A8CA0020CC0000204E
:103A0000CA000020C8000020D8000020D0000020FC
:103A1000D4000020A8C80020B338000875432F4FF9
:103A2000532D494920546D7200000000EFF31080BF
:103A300072B6704780F310887047204C204D256087
:103A40004FF0000484F309881E4C4FF001052570E7
:103A50001D4C4FF08055256062B6FEE730B41A4C1D
:103A60004FF08055256030BC704730B4164C4FF095
:103A70008055256030BC704700BF72B6EFF30980F7
:103A800028B1203880E8F00F10490968086000B5B7
:103A90000F4880475DF804EB0E480F490A78027022
:103AA0000A480E490A680260106890E8F00F20305A
:103AB00080F309884EF0040E62B6704720ED00E0F6
:103AC0000000FFFF8B00002004ED00E0A4000020B8
:103AD000653B00088800002089000020AC00002021
:103AE000284900200880704770477047704770472A
:103AF00070474FF080731360131F1860A2F1080025
:103B00006FF001030360001F4FF012330360001FCA
:103B10004FF003330360001F4FF002330360001FB8
:103B20005B100360001F0160001F4FF01131016046
:103B3000001F19010160001F4FF009310160001FD3
:103B4000D9000160001F4FF007310160001F4FF0E6
:103B500006310160001F4FF0053101609900001F20
:103B6000016070477047704706490888401C80B262
:103B70000880022803D300200880FFF796BE704714
:103B800070470000DC000020704700000FB41CB537
:103B9000074B06AA7B4469460090059800F073F92C
:103BA0000020694600F082F91CBC5DF814FB00009F
:103BB0001503000070B5044685690068C10601D58B
:103BC000302600E02026C00708D070BDD4E90121CE
:103BD00030469047206A00F1010020626D1EF5D545
:103BE00070BD70B5044685690078C00708D170BD06
:103BF000D4E9012120209047206A00F101002062D1
:103C00006D1EF5D570BD00002DE9F041064600247B
:103C100010687529314616A511D0AFF30080002831
:103C200003DAC0F1000013A507E031688A0701D567
:103C300011A502E0490704D510A5012401E0AFF366
:103C4000008000210A2306F1240707E0B0FBF3F20D
:103C500003FB1200303078541046491C0028F5D17F
:103C600023462A463046BDE8F04100F0ABB80000DC
:103C7000000000002D0000002B00000020000000CC
:103C80002DE9F05F894604464FF0000ADFF828B1BD
:103C9000FB44C0F820A02046E168884700287CD07B
:103CA000252806D0D4E901219047206A401C2062D3
:103CB000F1E700255F462046E16888472028064650
:103CC00008DB312E06D207EB060010F8200C08B1F5
:103CD0000543F0E7A80701D525F00405C4F81CA0AA
:103CE0000027C4F818A02A2E09D0304600F012F997
:103CF00038B304EB8708303EC8F8186019E059F86B
:103D0000041B204604EB87029161E1688847012F7C
:103D1000064618D1E069002820DA25F020051DE0CC
:103D2000D8F8180000EB800006EB40003038C8F8E7
:103D300018002046E1688847064600F0EBF80028A6
:103D4000EED1012F0AD02E2E08D12046E1688847F7
:103D50007F1C0646022F45F02005C4DBA069002821
:103D600003DA404245F00105A061E80701D025F0E3
:103D7000100596B1A6F14100192802D8203645F465
:103D800000654A463146204625604D46FCF71AFA42
:103D900060B1012807D0ED1D00E009E025F0070023
:103DA00000F1080977E705F1040974E7304679E77F
:103DB000206ABDE8F09F0000E003000070477047F4
:103DC000704770472DE9F0470D46994692460446E4
:103DD00000F124080168880604D5E06921F010018B
:103DE000216000E00120A84202DDA0EB050700E011
:103DF0000027A16907EB050202EB0900A1EB000017
:103E0000A0612078C00602D42046FFF7D3FE00262A
:103E100008E0D4E901211AF806009047206A401C06
:103E2000761C20624E45F4DB2078C0060AD5204679
:103E3000FFF7C0FE06E0D4E9012130209047206A58
:103E4000401C2062381EA7F10107F4DC07E0D4E92A
:103E5000012118F805009047206A401C2062281EA6
:103E6000A5F10105F3DC2046FFF7BBFE2078000634
:103E700002D50220BDE8F0870120FBE701694A1C5A
:103E800002610878704700B58FB0CDE9013100219B
:103E9000059105497944CDE9031011466846FFF7BD
:103EA000EFFE0FB000BD0000E5FFFFFF0A6802F85B
:103EB000010B0A607047754600F028F8AE46050011
:103EC0006946534620F00700854618B020B5FCF738
:103ED00067FEBDE820404FF000064FF000074FF0AE
:103EE00000084FF0000B21F00701AC46ACE8C00918
:103EF000ACE8C009ACE8C009ACE8C0098D46704721
:103F00000446AFF300802046FCF76EF90048704786
:103F1000E8CA002030380A2801D20120704700206A
:103F2000704700000400080010008000200000001E
:103F3000200000002000000020000000100000040D
:103F40000020010010000004002001000200010018
:103F50000200000004000A000D0000000A00280012
:103F600028000600100000000800000010000000FB
:103F70000400000000000100020001000300010035
:103F80000200010004000100020001000300010022
:103F90000200010005000100020001000300010011
:103FA0000200010004000100020001000300010002
:103FB00002000100060001000200010003000100F0
:103FC00002000100040001000200010003000100E2
:103FD00002000100050001000200010003000100D1
:103FE00002000100040001000200010003000100C2
:103FF00002000100070001000200010003000100AF
:1040000002000100040001000200010003000100A1
:104010000200010005000100020001000300010090
:104020000200010004000100020001000300010081
:10403000020001000600010002000100030001006F
:104040000200010004000100020001000300010061
:104050000200010005000100020001000300010050
:104060000200010004000100020001000300010041
:10407000020001000400000800000000000000022F
:104080000001000010000000A8400008000000200F
:10409000E00000008C01000888410008E0000020DA
:1040A00068D60000A8010008000000000000000021
:1040B0000000000000000000000000000000000000
:1040C000000000000000000000A24A040000000000
:1040D0000000000001020304060708090014014063
:1040E0000014014000140140001401400010014080
:1040F000000C0140001001400008014000000000D9
:1041000000000000490A00086D0A0008A8110020FC
:10411000A8B1002000000000020406080000000012
:10412000010203040102030406070809000000005D
:10413000000000000000000000000000000000007F
:10414000000000000000000000000000000000006F
:10415000000000000000000000000000000000005F
:10416000000000000000000000000000000000004F
:10417000000000000000000000000000000000003F
:08418000000000000000000037
:04000005080001519D
:00000001FF
