:020000040800F2
:10000000006700200D2F00089D0500089F050008CF
:10001000A1050008A3050008A505000800000000D0
:10002000000000000000000000000000A70500081C
:10003000A9050008000000003B4B0008072D000840
:10004000272F0008272F0008272F0008272F000838
:10005000272F0008272F0008272F0008272F000828
:10006000272F0008272F0008272F0008272F000818
:10007000272F0008272F0008272F0008272F000808
:10008000272F0008272F0008272F0008272F0008F8
:10009000272F0008272F0008272F0008272F0008E8
:1000A000272F0008272F0008272F0008272F0008D8
:1000B000272F0008272F0008272F0008272F0008C8
:1000C000272F0008272F0008272F0008272F0008B8
:1000D000272F0008272F00089D2E0008272F000833
:1000E000272F0008272F0008272F000800000000F6
:1000F0000000000000000000000000000000000000
:100100000000000000000000272F0008272F000833
:10011000272F0008272F0008272F0008272F000867
:10012000272F0008272F0008272F0008272F000857
:10013000272F0008272F0008272F0008272F000847
:10014000272F0008272F0008272F0008272F000837
:1001500000F002F800F069F80AA090E8000C824470
:100160008344AAF10107DA4501D100F05EF8AFF24D
:10017000090EBAE80F0013F0010F18BFFB1A43F085
:1001800001031847D48B0000F48B000010F8013BEA
:100190000A4413F0030408BF10F8014B1D1108BFF7
:1001A00010F8015B641E05D010F8016B641E01F8A5
:1001B000016BF9D1002D15D010F8014B03F00C03A1
:1001C0000C2BA1EB04040ABF10F8013BA4EB831431
:1001D000A4EB032405F1010314F8016B5B1E01F885
:1001E000016BF9D5914238BF10F8013BD1D370476C
:1001F0000023002400250026103A28BF78C1FBD830
:10020000520728BF30C148BF0B607047642906F011
:10021000C582782906F0FE82732906F0C284002088
:1002200070471FB51FBD10B510BD06F007FD114684
:10023000FFF7F7FF00F0B9F806F025FD03B4FFF76C
:10024000F2FF03BC02F0CEFD10B501F024FFBDE8C3
:1002500010404FF4967002F0A0BD0026984C4FF469
:100260007A750127C4F89C61284602F096FDC4F80F
:100270009C71284602F091FDF4E70026904C4FF463
:100280007A750127C4F89061284602F086FDC4F80B
:100290009071284602F081FDF4E7BAB06421684607
:1002A00006F0C9FB87A006F007FA02F0B7FC1FA80A
:1002B00002F03AFA002004F0B3FC8949002005F06E
:1002C000C9F9694632A805F0ECFC002828D085A0C1
:1002D00006F0F2F900267A4C4FF47A750127C4F83B
:1002E0008C61284602F059FDC4F88C71284602F052
:1002F00054FDF4E79DF86C0080060CD59DF86D0068
:100300000028E7D021467CA006F0D6F980A01999F4
:1003100006F0D2F906E0214683A006F0CDF9D9E730
:100320000DF16D0419A932A805F0E2FC0028E1D016
:10033000D0E70024624D01262746641CE4B20A205F
:1003400002F02BFD082C05D0642CF6D10024C5F852
:100350008871F2E7C5F88861EFE710B504F0CCFBCF
:100360000723764A04460021AFF2390004F074F9FD
:100370000623734A0021AFF2DD0004F06DF9042377
:10038000704A0021AFF20D1004F066F902236E4AA4
:100390000021AFF2391004F05FF90A2004F027FBC6
:1003A0002046BDE8104004F0ABBB10B5BAB06421E4
:1003B000684606F040FB02F0B4FC4FF4A06002F087
:1003C000C5FD4FF4E13002F017FD01F046F80020C2
:1003D00000F0C8F9012000F0C5F9022000F0C2F9D0
:1003E000032000F0BFF937A006F066F902F016FC12
:1003F00019A802F099F9002004F012FC38490020F5
:1004000005F028F94FF6FF7001F07EF801F089FD44
:100410004EA1002001F00CFE2A984FA1020D2846A3
:1004200006F056F901F07DFD4078294601F000FE06
:10043000694632A805F035FC002837D029A006F01F
:100440003BF903F037FC0A23484A0021AFF2F500DC
:1004500004F002F903F024FD3AB0002010BD9DF82D
:10046000B80080061DD59DF8B9000028E9D02246C5
:100470003FA1284606F02CF901F053FD40782946AB
:10048000400001F0D5FD3FA128462C9A06F020F946
:1004900001F047FD4078294600EB400001F0C8FD1F
:1004A00006E0214620A006F007F9CAE70DF1B904DD
:1004B0002CA932A805F01CFC0028D0D0C1E7000010
:1004C000008022420A2066696C6520737973746526
:1004D0006D207374617274696E6721200A000000D8
:1004E000484500200A0D206572723A20665F6F70E1
:1004F000656E6469720A0D000A0D2066696C6520DC
:100500006E616D652069733A2025730A0000000052
:100510000A0D2066696C652073697A652069733AF3
:1005200020256420000000000A0D2050617468201E
:100530006E616D652069733A20257300784900204B
:10054000784B0020784D0020784F00205344204302
:1005500061726420494E000066696C652073697A97
:10056000652069733A202564204D420078480020B8
:1005700066696C652073697A652069733A20257312
:100580000000000066696C652073697A65206973F4
:100590003A20256420627974657300007047FEE795
:1005A000FEE7FEE7FEE77047704770470CB5002294
:1005B000614800920192016841F4803101604FF47A
:1005C000A063016801F4003101910099491C009178
:1005D000019911B900999942F3D10168890340D575
:1005E0000121019155490A6842F010020A600A6827
:1005F00022F003020A600A6842F001020A604168C0
:1006000041604168416041684160416821F47C116A
:100610004160416841F4E8114160C16A484A1140B3
:10062000C162C16A474A1143C162016841F08061F9
:10063000016001680901FCD5016841F08071016029
:1006400001688901FCD5416821F0030141604168DE
:1006500041F0020141604168C1F381010229FAD1F0
:100660000CBD01920CBD344810B5016841F0010188
:1006700001604168344A114041600168334A1140C9
:100680000160016821F480210160416821F4FE01CC
:100690004160016821F0A05101604FF47F01816049
:1006A0000021C162FFF782FF29494FF00060086016
:1006B00010BD70B5204B5868264A274910F00C0031
:1006C00004D0264C042803D0082803D00A6029E06F
:1006D0000C6027E058685A680F2505EA904002F43C
:1006E00080320D2801D0801C00E00620BAB1DA6A01
:1006F00012F4803FDA6A02F00F0202F101020AD01E
:10070000DD6AC5F30316DD6A761CB4FBF6F4C5F3A7
:100710000325AD1C6C43B4FBF2F24243D6E7104A0A
:100720005043086058680C4AC0F30310121D105C57
:100730000A68C2400A6070BD0010024000200240FA
:1007400000F0FEFF490601000000FFF0FFFFF6FE8B
:1007500008ED00E000127A000000002040787D01E2
:1007600000093D0038B504460C48012150F824002A
:1007700002F0CAFE09486946083830F81400ADF89E
:10078000000010208DF8030003208DF802000448BB
:1007900050F8240002F089FC38BD0000A06E00086B
:1007A0001400002008B54FF6FF70ADF800000420DB
:1007B0008DF803006946FE4802F077FC08BD08B5D5
:1007C0004FF6FF70ADF8000003208DF802001020F6
:1007D0008DF803006946F64802F067FC08BD70B565
:1007E000F44C00222260F44D2A60F44B1A60F04E63
:1007F0000C3630600120186028601A603160186083
:10080000206070BD2DE9F041EA4F00243C60EA4DC4
:100810002C60EA490C60E64A0C32106001260E603A
:10082000FFF7C0FF2E60AC60AE60E14808300068A2
:100830003E6084B2FFF7C3FF2046BDE8F08138B5C3
:100840000121782002F060FE4FF6FF70ADF8000045
:1008500003208DF8020010208DF803006946D4486B
:1008600002F023FC4FF48040ADF800006946D44804
:1008700002F01BFC4FF48070ADF800006946D148CF
:1008800002F013FC4FF40050CF4CADF80000694665
:10089000204602F00AFC4FF40041ADF80010694612
:1008A000204602F002FCC34901200860C3490860E9
:1008B000C1498860086038BD2DE9F05FFFF7BFFFD0
:1008C000322002F06AFA01210020FFF788FF32206F
:1008D00002F063FA0020FFF795FFBC4CE080002097
:1008E000FFF790FFE080E188B9A005F0E5FE322037
:1008F00002F053FAE08848F68916A0F509419939C3
:1009000003D1E680C0A005F0D7FEE08849F2253883
:10091000404502D1C2A005F0CFFEE0884FF4E06967
:1009200040F2077540F23F1A4FF4887B49F22837AE
:10093000404502D0E088B8427ED143F20801E3206E
:10094000FFF74DFF1221E720FFF749FF41F2312168
:10095000EF20FFF744FF01210020FFF740FF4FF495
:1009600080710120FFF73BFF49460220FFF737FF68
:1009700041F218010320FFF732FF00210420FFF7A6
:100980002EFF40F207210820FFF729FF0021092050
:10099000FFF725FF00210A20FFF721FF01210C208E
:1009A000FFF71DFF00210D20FFF719FF00210F2089
:1009B000FFF715FF00211020FFF711FF072111207D
:1009C000FFF70DFF00211220FFF709FF0021132080
:1009D000FFF705FFFA2002F0E0F9FA2002F0DDF956
:1009E00041F290511020FFF7FAFE40F2272111202A
:1009F000FFF7F5FEFA2002F0D0F9FA2002F0CDF967
:100A00009C211220FFF7EBFEFA2002F0C6F9FA2033
:100A100002F0C3F94FF4C8511320FFF7E0FE232181
:100A20002920FFF7DCFE0E212B20FFF7D8FEFA204D
:100A300002F0B3F9FA2000E09EE002F0AEF90021E6
:100A40002020FFF7CCFE00212120FFF7C8FEFA206E
:100A500002F0A3F9FA2002F0A0F907213020FFF7F5
:100A6000BEFE29463120FFF7BAFE06213220FFF7ED
:100A7000B6FE40F204713520FFF7B1FE41F6047175
:100A80003620FFF7ACFE04213720FFF7A8FE002137
:100A90003820FFF7A4FE40F206713920FFF79FFED1
:100AA00040F201713C20FFF79AFE0F213D20FFF735
:100AB00096FEFA2002F071F9FA2002F06EF9002198
:100AC0005020FFF78CFEEF215120FFF788FE002118
:100AD0005220FFF784FE51465320FFF780FE4FF46B
:100AE00027416020FFF77BFE01216120FFF777FEA1
:100AF00000216A20FFF773FE00218020FFF76FFEC0
:100B000000218120FFF76BFE00218220FFF767FEA6
:100B100000218320FFF763FE00218420FFF75FFEA2
:100B200000218520FFF75BFE10219020FFF757FE84
:100B30004FF4C0619220FFF752FEE088B8420FD117
:100B400003219320FFF74BFE59469520FFF747FE00
:100B500000219720FFF743FE00219820FFF73FFE7A
:100B600040F233110720FFF73AFE00212020FFF763
:100B700036FE002121207FE2E188A1F513402038D4
:100B80007ED0E088B0F5134FFAD0E0884FF40068CB
:100B9000A0F513414FF40177313972D141F21401BC
:100BA000E720FFF71CFE4FF48071012044E00000B5
:100BB00000180140A0012242B4812242B8812142A2
:100BC000000C0140001001400014014024000020EE
:100BD0000A0D20232323232323207777772E617286
:100BE0006D6A697368752E636F6D204465766963FD
:100BF000654964436F6465203D2030782578202363
:100C000023232323232000000A0D20546869732026
:100C10004C43442069732053534431323839200007
:100C20000A0D2054686973204C434420697320697D
:100C30006C69393332352000FFF7D1FD391F0220AE
:100C4000FFF7CDFD41F230010320FFF7C8FDB91ECB
:100C50000820FFF7C4FD00210920FFF7C0FD002197
:100C60000A20FFF7BCFD00210C20FFF7B8FD002192
:100C70000D20FFF7B4FD00210F20FFF7B0FD01E0CC
:100C8000BAE06AE100211020FFF7A9FD0721112039
:100C9000FFF7A5FD00211220FFF7A1FD0021132081
:100CA000FFF79DFDFA2002F078F841F290611020E4
:100CB000FFF795FD40F227211120FFF790FD6420FA
:100CC00002F06BF80C211220FFF789FD642002F07E
:100CD00064F841461320FFF782FD11212920FFF718
:100CE0007EFD0B212B20FFF77AFD642002F055F8E2
:100CF00000212020FFF773FD00212120FFF76FFD69
:100D000000213020FFF76BFD4FF483742146312022
:100D1000FFF765FD00213220FFF761FD39463520E0
:100D2000FFF75DFD41F20A613620FFF758FD2946C5
:100D30003720FFF754FD21463820FFF750FD2946A4
:100D40003920FFF74CFD40F202413C20FFF747FD00
:100D500040F60F413D20FFF742FD00215020FFF7F4
:100D60003EFDEF215120FFF73AFD00215220FFF711
:100D700036FD51465320FFF732FD4FF41C516020E1
:100D8000FFF72DFD01216120FFF729FD00216A20D9
:100D9000FFF725FD00218020FFF721FD00218120A4
:100DA000FFF71DFD00218220FFF719FD00218320A0
:100DB000FFF715FD00218420FFF711FD002185209C
:100DC000FFF70DFD10219020FFF709FD4FF4C061E2
:100DD0009220FFF704FD21210720FFF700FD64208A
:100DE00001F0DBFF61210720FFF7F9FC642001F02F
:100DF000D4FF40F2331159E2E188FEA005F05CFC1B
:100E000001210020FFF7EBFC4FF480710120FFF778
:100E1000E6FC49460220FFF7E2FC41F218010320FC
:100E2000FFF7DDFC00210420FFF7D9FC40F202218E
:100E30000820FFF7D4FC00210920FFF7D0FC002197
:100E40000A20FFF7CCFC01210C20FFF7C8FC002191
:100E50000D20FFF7C4FC00210F20FFF7C0FCFA2093
:100E600001F09BFF40F201110720FFF7B8FCFA20C8
:100E700001F093FF4FF486511020FFF7B0FC0721DB
:100E80001120FFF7ACFC5C4659461220FFF7A7FC87
:100E90004FF430611320FFF7A2FC00212920FFF757
:100EA0009EFC44F210012B20FFF799FC00215020FA
:100EB000FFF795FCEF215120FFF791FC0021522014
:100EC000FFF78DFC51465320FFF789FC4FF41C516E
:100ED0006020FFF784FC01216120FFF780FC0021E6
:100EE0006A20FFF77CFC00218020FFF778FC0021BE
:100EF0008120FFF774FC00218220FFF770FC0021A5
:100F00008320FFF76CFC00218420FFF768FC0021A0
:100F10008520FFF764FC10219020FFF760FC002182
:100F20009220FFF75CFC01219320FFF758FC21463B
:100F30009520FFF754FC00219720FFF750FC00217B
:100F40009820FFF74CFCFA2001F027FF40F27311C4
:100F50000720FFF744FCFA20ACE1E0884FF4004C96
:100F6000A0F519414FF4407B19397CD10621282086
:100F7000FFF735FC01210020FFF731FC0021102094
:100F8000FFF72DFC47F2EF210120FFF728FC4FF47B
:100F9000C0610220FFF723FC46F638210320FFF74B
:100FA0001EFC46F674011120FFF719FC00210F20EA
:100FB000FFF715FC45F208310B20FFF710FC032169
:100FC0000C20FFF70CFC0A210D20FFF708FC4FF462
:100FD00038510E20FFF703FCBE211E20FFF7FFFB58
:100FE00061462520FFF7FBFB4FF4F0412620FFF779
:100FF000F6FB78212720FFF7F2FB00214E20FFF7B8
:10100000EEFB00214F20FFF7EAFB40F6D90112204A
:10101000FFF7E5FB00213020FFF7E1FB4FF4827181
:101020003120FFF7DCFB4FF480713220FFF7D7FB54
:1010300040F2053421463320FFF7D1FB40F2055141
:101040003420FFF7CCFB21463520FFF7C8FB2946AB
:101050003620FFF7C4FB59463720FFF7C0FB4FF49B
:1010600090513A2000E008E0FFF7B9FB41463B20F1
:10107000FFF7B5FB33210720E2E1E088A0F5A85196
:1010800005397DD10720FFF7AAFB642001F085FE1A
:101090004FF48E711220FFF7A2FB0121A420FFF76D
:1010A0009EFB0F210820FFF79AFB08210A20FFF77B
:1010B00096FB08210D20FFF792FB29463020FFF711
:1010C0008EFB07213120FFF78AFB40F203613220BB
:1010D000FFF785FB4C4649463320FFF780FB40F283
:1010E00002213420FFF77BFB02213520FFF777FB3D
:1010F00041F60F713620FFF772FB29463720FFF7C4
:101100006EFB00213820FFF76AFB00213920FFF732
:1011100066FB29463A20FFF762FB00213B20FFF7E0
:101120005EFB07213C20FFF75AFB00213D20FFF723
:1011300056FB642001F031FE01210720FFF74FFB31
:1011400001211720FFF74BFB642001F026FE4FF42E
:10115000BD511020FFF743FB40F217211120FFF78C
:101160003EFB4FF48F711220FFF739FB4FF4706193
:101170001320FFF734FB00212A20FFF730FB00E0AB
:101180009CE00A212920FFF72AFB4FF49F711220CF
:10119000FFF725FB00215020FFF721FBEF21512015
:1011A000FFF71DFB00215220FFF719FB514653208A
:1011B000FFF715FB4FF41C516020FFF710FB0121D6
:1011C0006120FFF70CFB00216A20FFF708FB0021DC
:1011D0008020FFF704FB00218120FFF700FB0021A6
:1011E0008220FFF7FCFA00218320FFF7F8FA0021A4
:1011F00084200BE00A0D2054686973204C4344207E
:10120000697320696C6925782E000000FFF7E7FA02
:1012100000218520FFF7E3FA13219020FFF7DFFA82
:1012200059469220FFF7DBFA05219320FFF7D7FA02
:1012300000219520FFF7D3FA00219720FFF7CFFA7E
:1012400000219820FFF7CBFA4FF480710120FFF7BF
:10125000C6FA21460220FFF7C2FA41F2300103200C
:10126000FFF7BDFA00210420FFF7B9FA00210C2096
:10127000FFF7B5FA00210F20FFF7B1FA0021202077
:10128000FFF7ADFA00212120FFF7A9FA212107205D
:10129000FFF7A5FA642001F080FD61210720FFF728
:1012A0009EFA642001F079FD40F273110720FFF7E8
:1012B00096FA6420BDE8F05F01F06FBDE088B042AF
:1012C0007DD106212820FFF78AFA01210020FFF7AF
:1012D00086FA4AF6A4610320FFF781FA04210C2064
:1012E000FFF77DFA0C210D20FFF779FA4FF420511A
:1012F0000E20FFF774FAB5211E20FFF770FA47F6AB
:101300003F310120FFF76BFA4FF4C0610220FFF775
:1013100066FA00211020FFF762FA46F278011120E8
:10132000FFF75DFA00210520FFF759FA002106209A
:10133000FFF755FA4EF61C711620FFF750FA3321CD
:101340000720FFF74CFA00210B20FFF748FA002195
:101350000F20FFF744FA00214120FFF740FA002157
:101360004220FFF73CFA00214820FFF738FA5446A4
:1013700051464920FFF733FA00214A20FFF72FFAA0
:1013800000214B20FFF72BFA4FF46F414420FFF769
:1013900026FA00214520FFF722FA21464620FFF7D2
:1013A0001EFA29463020FFF71AFA40F202213120B6
:1013B000FFF715FA39463220FFF711FA00E043E053
:1013C00040F2025421463320FFF709FA611D342010
:1013D000FFF705FA39463520FFF701FA394636207E
:1013E000FFF7FDF921463720FFF7F9F940F2023403
:1013F00021463A20FFF7F3F921463B20FFF7EFF9AA
:1014000000212320FFF7EBF900212420FFF7E7F963
:1014100061462520FFF7E3F94FF4E0412620FFF76E
:10142000DEF94BF2EB012020FFF7D9F97C212720D0
:10143000FFF7D5F900214E20FFF7D1F900214F2009
:10144000BDE8F05FFFF7CBB9E188BDE8F05FF4A03D
:1014500005F032B9FE498860704710B5FFF72CFAE5
:10146000FB49FC48886010BD03B5BDF80010F84882
:101470004180BDF8041081800CBDF54A538803807B
:1014800090880880704701B5BDF80000F049488099
:1014900008BD01B5BDF80000ED49888008BDEE49E2
:1014A00000200860ED490860ED4A1060ED4B2220F5
:1014B0001860012010600860704770B5E44A0D465E
:1014C000D188A1F50943893B06D101464E20FFF79B
:1014D00086F929464F200DE0D388A5F23F114C42F2
:1014E000A3F51346203E09D101462020FFF777F9E6
:1014F000A1B22120BDE87040FFF771B9D188A1F5F4
:101500001942193AF0D1E0E730B5002405462146EA
:101510002046FFF7D2FFFFF7C2FFD34B0022C3F8EC
:10152000A021CE4801210160CE480560CF484FF48C
:101530009635C0F8B821C0F8B811641CAC42F8D395
:10154000C3F8A01130BDC64900220A60C54A106028
:1015500001200860704710B51446FFF7AEFFFFF793
:101560009EFF2046FFF7EFFFBB490120086010BD3A
:10157000F12809D2002907DBB1F5A07F04DCB44AC9
:1015800089B280B25288E6E770472DE9F041FFF753
:1015900094FFB14F00253D60B04C2560B048056018
:1015A000B04A22211160012606602660FFF7FAF892
:1015B000A560A660A560A660AA48001F00683E60FE
:1015C00084B2FFF7FCF82046BDE8F08110B5012198
:1015D00000220846FFF7BFFF01210846FFF7D5FFAD
:1015E000010002D0A2A005F067F84FF6FF740121B8
:1015F00022460846FFF7AFFF01210846FFF7C5FF67
:101600000146A04202D09AA005F056F845F65A24A9
:10161000012122460846FFF79EFF01210846FFF7F9
:10162000B4FFA04204D0BDE810409FA005F044B82C
:1016300010BD2DE9F04190460C460646FFF78BFFA2
:10164000A6F1010C1FFA8CF042462146FFF783FFFA
:10165000771CB8B242462146FFF77DFF651EA9B24E
:1016600042463046FFF777FF641CA1B2424630463F
:10167000FFF771FFA9B21FFA8CF04246FFF76BFF2C
:10168000A1B21FFA8CF04246FFF765FFA9B2B8B2CB
:101690004246FFF760FFA1B2B8B24246BDE8F04152
:1016A00059E710B50446FFF7FAFE2046FFF74BFF57
:1016B00069490120086010BD2DE9F043984616469F
:1016C000894605460024FFF7F8FE0127DFF880C1B0
:1016D000B8F1000F1CD1FFF7E2FEBCF80200FFF7E3
:1016E00032FF01200022614904E0C1F8B821C1F8AD
:1016F000B871401CB042F8D30CE0BCF80200FFF710
:10170000D0FF6D1CADB249462846FFF7D6FE641CDB
:10171000B442F2D350480760BDE8F08330B50546C7
:101720000C46A1F10F0081B200231E222846FFF7CC
:10173000C3FF0F3DA8B22146BDE8304001231E2261
:10174000BAE7F0B51E4614460F460546002332465A
:10175000FFF7B2FF281980B2002332463946FFF75F
:10176000ABFF0123224639462846FFF7A5FFB819EB
:10177000401E81B222462846BDE8F04001239BE787
:101780002DE9F04F804603208C46A0EB4206002452
:101790001546C7E00CEB050B08EB04091FFA8BF1AB
:1017A0001FFA89F0FFF789FE294F7888FFF779FF44
:1017B000ACEB050A1FFA8AF11FFA89F0FFF77DFEEC
:1017C0007888FFF76EFFA8EB04091FFA8BF11FFA68
:1017D00089F0FFF772FE7888FFF763FF1FFA8AF13E
:1017E0001FFA89F0FFF769FE7888FFF75AFF0CEBC4
:1017F000040B08EB05091FFA8BF11FFA89F0FFF7BC
:101800005CFE7888FFF74DFFACEB040A1FFA8AF103
:101810001FFA89F0FFF751FE7888FFF742FF61E079
:101820000A0D20232323232323204572723A2055B7
:101830006E6B6E6F77204465766963654964436FAC
:101840006465203078257820232323232323200058
:1018500024000020B8440020A0012242B48122428A
:10186000B88121420C180140000022420080214230
:101870000D0A204572723A204C43445F5365745000
:101880006F696E7428312C312C30783029204C430C
:10189000445F476574506F696E7428312C31293D5F
:1018A00030782530345800000D0A204E6F74653AA8
:1018B000204C4344205772697465206F72646572CE
:1018C00020697320522D472D422C206275742052BE
:1018D000656164206F7264657220697320422D47D0
:1018E0002D520000A8EB05091FFA8BF11FFA89F0B1
:1018F000FFF7E3FD7888FFF7D4FE1FFA8AF11FFA9D
:1019000089F0FFF7DAFD7888FFF7CBFE002E03DAC7
:1019100006EB8406B61D04E0601B06EB80060A3663
:101920006D1E641CAC427FF635AFBDE8F08F2DE92B
:10193000F8471446984689460546FE4E7788D2B247
:10194000FFF7FFFEA41E1FFA84FAA8F1010084B27B
:1019500009F101001FFA80F8B088ADF80000BDF869
:101960000000708007E06D1CADB200235246414676
:101970002846FFF7A1FE2000A4F10104A4B2F2D191
:10198000ADF80070BDF800007080BDE8F8872DE963
:10199000F74F0746E748894682B04188019104998C
:1019A0000322A2EB41060D4681880024ADF8001009
:1019B000BDF8001041804FF6FF7B35E09DB10BEA8A
:1019C0004502A9EB050A381B90461FFA8AF180B23E
:1019D0000023FFF771FE381942461FFA8AF180B2E0
:1019E0000023FFF769FE9CB10BEA4402A9EB040A4D
:1019F000781B90461FFA8AF180B20023FFF75CFE45
:101A0000781942461FFA8AF180B20023FFF754FE8C
:101A1000002E03DA06EB8406B61D04E0601B06EB1D
:101A200080060A366D1E641CAC42C7D90198ADF819
:101A30000000BDF80010BF484180049A05B0494637
:101A40003846BDE8F04F9BE62DE9FC4F8446002761
:101A5000A2EB0C000C46002801DCACEB020001B24A
:101A6000181B002800DCE01A00B20FFA8CF625B231
:101A70004FF0FF38624503D34FF0010BDA4601E027
:101A8000C346DA46A34203D34FF00109C84600E03B
:101A9000C14681424FF0000209DB9346904601EBBC
:101AA000D17252108C4614B2CDE9000124E0924666
:101AB00000EBD072CDE9001052104FF000098446BF
:101AC00014B219E029463046FFF752FD0098204431
:101AD00004B2644508DBA4EB0C0004B206EB0B0077
:101AE00006B205EB090005B206EB0A0006B205EBEB
:101AF00008007F1C05B23FB201988742E2DDBDE8D5
:101B0000FC8F30B50D46044602290DD308E020882D
:101B10006188241D89B26388228880B2FFF794FF10
:101B20006D1E2D042D0CF2D130BD2DE9F0439146F0
:101B30000F4604468046022925D3B4F90060B4F963
:101B4000025010E0241DA9B26088284483B2208886
:101B5000304482B2B0B2FFF777FF2088304406B23B
:101B60006088284405B27F1E3F043F0CEAD1B9F1DA
:101B7000000F08D0ABB2B2B2B8F80210B8F800004B
:101B8000BDE8F04360E7C7E530B50D460446FFF712
:101B9000B8FF04EB8500001F618843880288208815
:101BA000BDE8304050E70022BFE70122BDE72DE944
:101BB000F34FB0F80080E7B043880446C1460120E7
:101BC000659313E004EB80014A884A4500D29146B0
:101BD000424500D9904634F82010994200D20B4675
:101BE000659A914200D96591401C80B268998842FB
:101BF000E8D350488188ADF89011BDF8901141802C
:101C00009A46ADE0002668983546401E87B248E007
:101C1000504605F06DF883466491669134F92500CD
:101C200005F04FF85A46669B05F076F80AD264999B
:101C3000669134F9270005F044F85A46669B05F092
:101C4000F5F813D96499669134F9270005F039F84D
:101C50005A46669B05F060F820D234F9250005F05D
:101C600030F85A46649B05F0E1F817D804EB87007A
:101C7000B0F9021004EB8500B0F902000A1A34F939
:101C80002510AAEB01035A4334F92730591A92FB65
:101C9000F1F108442DF81600761CB6B22F466D1CE3
:101CA000ADB268988542B3D30020771E0DE06D4633
:101CB00005EB40033DF810105A88914209D925F8E8
:101CC0001020598008B1401E80B2B842EFDB0025D9
:101CD00040E0401CF8E73DF815006A4640453BD21D
:101CE00002EB45077988494532D9484501D222F8A7
:101CF0001590414501D9A7F80280DFF838B0BBF84C
:101D00000400ADF89001BDF89011ABF8021079888D
:101D100032F815000023081A82B25046FFF7CCFCB7
:101D2000BBF80200ADF89001BDF89011ABF80210BD
:101D300002E0000024000020B7F902100FFA8AF038
:101D40000746FFF715FC3DF915103846FFF710FC64
:101D5000AD1CADB2B542BED30AF101001FFA80FA44
:101D600065988245FFF44EAFFA484188ADF890116E
:101D7000BDF89011418069B0D7E5F74B002119609B
:101D8000F64A1160F64A1160F649086001201060B9
:101D90001860704770472DE9F04F9A4691468B4680
:101DA00007460026DFF8AC83099C1EE059463846FA
:101DB000FFF783FBFFF773FB802314F801CB0025AB
:101DC0000EE013B914F801CB80231CEA030F404640
:101DD00001D0408800E08088FFF7B5FB5B086D1CF0
:101DE0004D45EED37F1CBFB2761C5645DED39CE535
:101DF00018B554889388921D00922246FFF7CBFFB6
:101E000018BD2DE9F043002498461746894606463A
:101E10002546DDF81CC012E049463046FFF74DFB71
:101E2000FFF73DFB002305E03CF81400FFF78BFBB8
:101E3000641C5B1CBB42F7D3761CB6B26D1C4545D7
:101E4000EAD369E4F8B596795588938802F10804D5
:101E5000012E02D15278102A04D0BDE8F840C2A069
:101E600004F02ABC2A460094FFF7CBFFF8BD2DE909
:101E7000F74FC0B2002681460199FFF71EFB4FF0D5
:101E8000800BDFF8D082FFF70AFB002506EB460A3D
:101E9000019800240AEB050C00EBC507029810F826
:101EA0000C102BFA04F00142404601D040880BE0B0
:101EB000017841B13819401C81B24846FFF7FDFA5C
:101EC000FFF7EDFA02E08088FFF73DFB641C082C69
:101ED000E4D36D1C032DDBD39F490120086009F179
:101EE0000100C0B281460199FFF7E7FA761C182E6F
:101EF000C9D3BDE8FE8FF0B50024AB4D07460426DC
:101F000004EBC40005EBC00204EB440006EBC00088
:101F100081B23846FFF7ABFF641CA4B20D2CEFD39F
:101F2000F0BD8C48806870478A490870704770B56A
:101F300000242146FFF7C1FAFFF7B1FA9B4E0022B9
:101F4000C6F8A02185480121016082488388854D1B
:101F50002B60974B856805E0C3F8B821C3F8B8112A
:101F6000641CA4B2687800EB8000B4EB801FF3D34C
:101F7000C6F8A01170BD2DE9F74FC0B293460026F8
:101F800081460199FFF799FAB446DFF8C8813DE030
:101F9000FFF785FAA068A046047829E0082C01D351
:101FA000082700E0274600254FF0800A1DE01BF8B7
:101FB00006102AFA05F00142404601D0408810E0A0
:101FC000017869B1D8F808000078011B019808442D
:101FD000401C81B24846FFF770FAFFF760FA02E052
:101FE0008088FFF7B0FA641E6D1CBD42DFD3761CFB
:101FF000002CD3D158490120086009F10100C0B27A
:1020000081460199FFF759FA0CF1010CD8F8080044
:10201000444640786045BBD86BE7203AD3B24D4A7E
:1020200010B492685468927803FB024210BCA2E795
:102030002DE9F0410D4680460024464E4FF4A0772E
:102040000BE021464046FFF7E8FFB0680078011931
:102050008CB22044B84203D86D1C2A78002AF0D1F3
:10206000BDE8F0812DE9F04115460C468046394E19
:102070004FF4A0770BE021464046FFF7CEFFB06853
:10208000007801198CB22044B842E9D86D1C2A7836
:10209000002AF0D1E4E72DE9F04385B000261421B1
:1020A000684604F0C8FC2B4F42A1B8684378027818
:1020B000684604F00DFB4FF6FF794846FFF724FA17
:1020C00069460020FFF7B4FFB8684FF4A078457860
:1020D0006D1C2024E2B231462846FFF79EFFB86807
:1020E00001788A19521C96B23144414515D940787D
:1020F00000264119491C8DB24119F0290DD9451C02
:102100007F2C0AD84FF47A7000F047FE4846FFF75C
:10211000FBF969460020FFF78BFF641CA4B27F2CFB
:10212000D8D905B02FE52DE9F0410A4D0024244F00
:102130004FF47A78AE6806E0A860FFF7ACFF40463F
:1021400000F02BFE641C57F824000028F4D1AE6088
:1021500086E7000024000020A0012242B481224230
:10216000B88121420C1801400A0D204C43445F49BC
:102170006D616765324C636444726177426D70359E
:1021800036355069633A204E6F7420496D6167653A
:10219000324C6364206F7220426D70353635206694
:1021A0006F726D61742E0000B06E00080000224254
:1021B0000080214253495A453A256458256400005D
:1021C000D04400200021FE4801F0BDBA10B586B011
:1021D00001212C2001F098F90121080301F094F964
:1021E0000121084601F090F92020ADF814000320E9
:1021F0008DF816001820F34C8DF8170005A920461D
:1022000000F053FF4021ADF8141005A9204600F05E
:102210004CFF8021ADF8141005A9204600F045FFC1
:10222000E014ADF8140010208DF8170005A9E64859
:1022300000F03BFF0020ADF80000ADF804004FF4C3
:102240008271ADF802100221ADF806100121ADF83F
:102250000C00ADF80810ADF80E0049020720D84C6C
:10226000ADF80A10ADF810006946204601F0CEF92D
:102270000121204601F067FA06B010BD014630F09A
:10228000380008D1CE48028822F038020A43028082
:10229000012101F058BA70473820EFE70020EDE740
:1022A00070B5C74C05460221204601F0B8FA002857
:1022B000F9D02946204601F06EFA0121204601F0AE
:1022C000AEFA0028F9D0204601F067FAC0B270BD1E
:1022D00008B501208DF80000BC4800F041FF400423
:1022E00002D500208DF800009DF8000008BD10B553
:1022F000B34C0221204601F092FA0028F9D0FF21C8
:10230000204601F048FA0121204601F088FA002811
:10231000F9D0204601F041FAC0B210BD70B50546B3
:1023200040F2FF6400E0641EFFF7E1FFA84202D024
:10233000002CF8D102E00CB1002070BDFF2070BD70
:102340007CB540F040008DF80000080E8DF80100CB
:10235000080C00248DF80200080A8DF804108DF88E
:1023600003008DF805206D46285DFFF799FF641C7A
:10237000062CF9D37CBD2DE9FF41DFF84C820446E1
:102380004FF400670025FF263946404600F0F7FE6F
:10239000FF2200210A20FFF7D3FF0020FFF7BEFF36
:1023A00088B9FE20FFF7BAFF30B96E46FFF79FFFEE
:1023B00070556D1C102DF9D3FF20FFF771FFFF2022
:1023C000FFF76EFF00263946404600F0D6FEFF209C
:1023D000FFF766FF9DF8000020709DF801000002E5
:1023E000608060889DF80210084360809DF80300BB
:1023F0000006606060689DF8041040EA014060607B
:1024000060689DF8051040EA0120606060689DF8F2
:102410000610084360609DF8070020729DF80800D0
:1024200060729DF809000006E060E0689DF80A10FF
:1024300040EA0140E060E0689DF80B1040EA0120AE
:10244000E060E0689DF80C100843E060217C9DF896
:102450000D0041EA101121740007000D6082608AAE
:102460009DF80E10084360829DF80F00400820750B
:102470000120607504B03046BDE8F0812DE9F047D9
:10248000DFF844A104464FF400698AB00025FF2616
:102490004946504600F073FEFF2200210920FFF755
:1024A0004FFF0020FFF73AFF18B130460AB0BDE8F1
:1024B000F087FE20FFF732FF454E68B96F46FFF701
:1024C00016FF7855716821B90246294641A004F0EB
:1024D000F3F86D1C102DF2D3FF20FFF7E1FEFF2073
:1024E000FFF7DEFE4FF000084946504600F045FE7B
:1024F000FF20FFF7D5FE9DF8000081092170C0F391
:102500008301617000F00300A0700027706801254E
:1025100030B92078012851D033A004F0CDF83770BD
:102520009DF80100E0709DF8020020719DF8030005
:1025300060719DF804000001E080E1889DF80500CD
:1025400041EA1011E18000F00F0020729DF80600B2
:10255000C1096172C0F38011A172C0F34011E17230
:10256000C0F30011217367733278002A7ED09DF882
:1025700007008006800A206120699DF8081000EBA2
:102580000120206120699DF80910084420619DF810
:102590000800C0F3C20104F8141F00F007006070C7
:1025A0009DF809004109A170C0F38201E170800724
:1025B000400F207121799DF80A0031E07DE0000094
:1025C000003001400008014000140140000C0140AF
:1025D000EC4400200A0D204353445F5461625B25A4
:1025E000645D2030782558000A0D20534453432061
:1025F0004353442056657273696F6E20312E30202C
:102600004163657373204153205344205374616EBA
:10261000646172642043617061636974792E0000A3
:1026200041EAD0112171C0F3801161718006400E22
:10263000A071A1799DF80B0041EAD011A17100F0C1
:102640007F00E0719DF80C00C1092172C0F34111B7
:102650006172C0F38201A1728007000FE072E17A1B
:102660009DF80D0041EA9011E17200E02AE0C0F30C
:1026700040112173677300F00100A0739DF80E00F4
:10268000C109E173C0F380112174C0F3401161747A
:10269000C0F30011A174C0F38101E17400F00300E4
:1026A00020759DF80F0040086075A5757068143C92
:1026B000032837D2012A14D015E0FAA003F0FCFF5A
:1026C00035702DE78007000D206120699DF8071007
:1026D00040EA8100206120699DF8081040EA9110CD
:1026E00054E7082020762069217E401C891C884000
:1026F000217A8840020D207A174605FA00F1F6A0EB
:1027000003F0DAFF706850B93A46FEA104A803F05E
:10271000DFFFFFF706FC04A90020FFF789FC7068C3
:10272000401C70604046C1E610B50446FFF7A6FEA7
:10273000FF2802D12046FFF7A1FE04F12C00FFF78D
:102740001AFE21690246207E491C801C237A8140A2
:10275000012098404143C4E91110104610BD2DE9F5
:10276000F047DFF8B4A30F4605464FF400699046E2
:102770000024FF264946504600F001FDE748007856
:10278000012800D17F0AFF2239461120FFF7D8FD2A
:102790000020FFF7C3FD80B9FE20FFF7BFFD28B181
:1027A0000BE0FFF7A4FD05F8010B641C4445F8D3CA
:1027B000FFF79DFDFFF79BFD00264946504600F0C0
:1027C000DCFCFF20FFF76CFD304670E62DE9F05F82
:1027D000DFF844B3884606464FF4006A1F46914628
:1027E0000025FF245146584600F0C9FC19E0CB48AB
:1027F000007801280CD008EB0501FF221120FFF71B
:102800009FFD0020FFF78AFD30B1FF20BDE8F09F5B
:1028100008EB0500410AF0E7FE20FFF77FFD58B105
:10282000FF247F1EE3D25146584600F0A6FCFF204D
:10283000FFF736FD2046E9E7002404E0FFF757FDE7
:1028400006F8010B641C4C45F8D305F50075FFF73D
:102850004EFDFFF74CFD0024E3E770B50025FFF7C0
:1028600046FD00F01F04052C06D00B2C0AD00D2CC1
:102870000AD06D1C402DF2D9FFF739FD0028FBD09E
:10288000204670BD0B2070BD0D2070BD2DE9F047B6
:10289000DFF884A20F4605464FF4006990460024F5
:1028A000FF264946504600F06AFC9C480078012803
:1028B00000D17F0AFF2239461820FFF741FD002092
:1028C000FFF72CFDB0B9FF20FFF7EAFCFE20FFF771
:1028D000E7FC04E02878FFF7E3FC6D1C641C44452A
:1028E000F8D3FFF704FDFFF702FDFFF7B6FF052859
:1028F00000D100264946504600F03FFCFF20FFF77C
:10290000CFFC3046D3E52DE9F05FDFF80CB2884606
:1029100006464FF4006A1F4691460025FF245146A3
:10292000584600F02CFC2DE07C480078012813D09C
:1029300008EB0501FF221820FFF702FD0020FFF73A
:10294000EDFC00284FF0FF0026D1FFF7A9FCFE2088
:10295000FFF7A6FC002408E008EB0500410AE9E7C0
:102960003078FFF79DFC761C641C4C45F8D305F5C8
:102970000075FFF7BCFCFFF7BAFCFFF76EFF0528F8
:102980000BD0FF247F1ECFD25146584600F0F5FBF6
:10299000FF20FFF785FC204638E70024F2E770B5FA
:1029A0005D4E4FF400652946304600F0E8FBFF22FB
:1029B00000210D20FFF7C4FCFFF799FC0446FFF748
:1029C00096FC44EA00242946304600F0D6FBFF205E
:1029D000FFF766FC204670BD2DE9F0414E4F4FF4E5
:1029E000006600253146384600F0C9FB00219522DB
:1029F0000846FFF7A5FC0120FFF790FC20B148A096
:102A000003F05AFEFF2037E587224FF4D5710820E6
:102A1000FFF796FCC82401E0641EA4B2FFF767FC30
:102A2000FF283DD005283CD0012803D0014642A014
:102A300003F042FE46A003F03FFE0024FFF757FCE0
:102A4000641CA4B2052CF9D33146384600F095FB3E
:102A5000FF20FFF725FC3146384600F090FBFF20B1
:102A6000FFF71EFCFF20FFF71BFCFF244FF0804602
:102A7000FF2200213720FFF763FC0025FFF737FC1A
:102A8000012800D000246D1CADB2082DF6D3002221
:102A900031462920FFF754FC0025FFF728FC6DE0A4
:102AA00078E07BE00A0D2053444843204353442000
:102AB00056657273696F6E20322E302041636573E4
:102AC0007320415320534420486967682043617054
:102AD00061636974792E00000A0D2053442043611C
:102AE0007264426C6F636B53697A6520256420437E
:102AF0006172644361706163697479202564204D5B
:102B00002E00000020534420436172642053697AF0
:102B1000652025644D2E200000140140EC44002067
:102B20000A0D204E6F205344206361726420646557
:102B3000746563742E0000000A0D20534420636105
:102B400072642072312069732025582E0A0D00000E
:102B50000D0A207468697320697320534448433A0E
:102B600020484947485F43415041434954595F53C6
:102B7000445F43415244210A0000000018B16D1C1B
:102B8000ADB2FF2D89D3641EA4B260B3002C7FF4D4
:102B90006FAF3EE0002C7FF43FAF47E732A003F079
:102BA0008BFD00243146384600F0E7FAFF20FFF79E
:102BB00077FB3146384600F0E2FAFF22002101207F
:102BC000FFF7BEFB641CA4B2F02C04D00020FFF77A
:102BD000A5FB0500E6D13146384600F0CEFAFF20CD
:102BE000FFF75EFB13E0A4B1002211463A20FFF785
:102BF000A7FB0024FFF77BFB641CA4B2052CF9D3D0
:102C000022490120087022A003F056FD0025284625
:102C100032E4FF2528A003F04FFDF8E72DE9F0414D
:102C20002EA003F049FDFFF7D1FA3820FFF726FB6D
:102C3000304F00254FF400663146384600F09DFACB
:102C40000024FF20FFF72CFB641C092CF9D9FFF7A7
:102C5000C3FE0446062D02D86D1C002CECD10020CA
:102C6000FFF70CFB204607E40D0A20207468697307
:102C7000206973205354445F4341504143495459A0
:102C80005F53445F43415244210A0000EC4400205A
:102C90000D0A2041637469766174657320746865F8
:102CA00020534448432063617264207375636573E5
:102CB000736564210A0000000D0A2041637469767F
:102CC00061746573207468652053444843206361D0
:102CD00072642066616C6C6564210A00285344208C
:102CE000496E697420696E20535049206D6F646588
:102CF000290000000014014001F084B801F0B6B8CA
:102D000080B201F0CBBE324810B50078012807D15F
:102D100001F044F801F0D8F8BDE8104001F048B8DF
:102D200010BD10B56FF0040000F053F929484FF4BE
:102D30007A7201682848B1FBF0F1284801705143CC
:102D4000012242804FF0E020026942F0020202615B
:102D50004161016941F00101016110BD2DE9F041BE
:102D60004FF0E02700247E691C49097800FB01F53B
:102D700001F048F8B969B8698842FCD002D2A1EBE9
:102D8000000102E0A6EB000211440C440146AC42F3
:102D9000F1D3BDE8F04101F069B870B504460C48C4
:102DA000007878B10E48007860B90C4D688884428C
:102DB00003D3B4FBF0F0FFF7A3FF6888B4FBF0F196
:102DC00000FB11444FF47A706043BDE87040C5E7E2
:102DD000194500200000002000127A00F444002071
:102DE00014450020704745490A885206FCD5434ADD
:102DF000C1B2121D1180704770B50546012186B021
:102E0000480400F08AFB0121212000F07DFB012114
:102E1000082000F0D3F92020ADF8100003248DF82D
:102E200012401820364E8DF8130004A9304600F0E9
:102E30003CF94020ADF8100004208DF8130004A9DF
:102E4000304600F032F926208DF814008DF8154038
:102E50008DF8164001208DF8170005A800F07BF8CA
:102E60000020ADF80400ADF80600ADF80800ADF89C
:102E70000C000C20214CADF80A0000956946204654
:102E800000F02EFD012240F22551204600F0AAFD5F
:102E90000121204600F09CFD06B070BD70B500F029
:102EA0007DFF164C40F22551204600F052FEE0B165
:102EB000204600F0E7FD134AC1B21088030414D481
:102EC00044044FF0000304D50A290DD140F400401A
:102ED00011E00D290DD0C0F30D040B4D401C80B244
:102EE00029551080C72800D91380BDE8704000F034
:102EF0005FBF40F480401080F7E7000000440040CE
:102F000000140140F84400207C4F0020094880470D
:102F100009480047FEE7FEE7FEE7FEE7FEE7FEE7BB
:102F2000FEE7FEE7FEE7FEE704480549054A064BD3
:102F3000704700006706000851010008005B002090
:102F400000670020005F0020005F00202749084341
:102F500027490860704770B50F23C27801780124B3
:102F60004FF0E025DAB1224A126802F4E062C2F5BD
:102F7000E062120AC2F10406D3404278B240867879
:102F80001E401C4B16433201CA54007800F01F014A
:102F90008C40400905EB8000C0F8004170BD01F095
:102FA0001F008440480905EB8000C0F8804170BDD7
:102FB000114A114001430E48001F016070470C4A3E
:102FC000121D0029116801D0014300E08143116006
:102FD00070474FF0E0210428086903D020F0040076
:102FE0000861704740F00400FAE700000000FA05AD
:102FF0000CED00E000E400E080FFFF1F8E4910B5FB
:10300000884206D10121042000F099FA0021042011
:103010003BE08A49884206D10121082000F08FFA5E
:103020000021082031E08649884206D10121102084
:1030300000F085FA0021102027E08249884206D15D
:103040000121202000F07BFA002120201DE07E4994
:10305000884206D10121402000F071FA0021402071
:1030600013E07A49884206D10121802000F067FAF6
:103070000021802009E0764988420AD18415012187
:10308000204600F05CFA00212046BDE8104000F028
:1030900056BA10BD10B50121084600F050FA0021C3
:1030A000BDE81040012000F04ABAF0B5CC7800220B
:1030B00004F00F03E40601D58C7823430C784FF01D
:1030C0000F0C4FF0010EDCB105680E880EFA02F409
:1030D0002640A64210D196000CFA06F725EA07070B
:1030E00003FA06F5CE783D43282E02D0482E02D0B2
:1030F00002E0446100E00461521C082AE5D3056047
:103100000A88FF2A1CD94468002202F108060EFA38
:1031100006F50E882E40AE420ED196000CFA06F748
:10312000BC4303FA06F7CE783C43282E00D1456114
:10313000CE78482E00D10561521C082AE5D34460A0
:10314000F0BD4FF6FF710180022181700421C17032
:1031500070470246002092680A4200D00120704762
:10316000806880B2704702460020D2680A4200D0D0
:1031700001207047C06880B27047016170474161AB
:1031800070470AB10161704741617047C160704783
:1031900041F4803282618161826181698069704716
:1031A0002C4B10B51A684FF68074224042EA00108A
:1031B0000843186010BD2849C8617047F0B5254C18
:1031C000002801DAE36900E06368450D2E0185B24D
:1031D000C0F30157B540C0F30342032F05D0C60228
:1031E0000AD503269640B34307E023F07062636874
:1031F00023F07063636002E0AB4343F0706201B19F
:103200002A43002801DAE261F0BD6260F0BD10B52A
:103210008A0721F003040F49120F21440F238C6801
:1032200093409C438C608B68904003438B6010BD3F
:103230000949DC310860704700080140000C01407A
:10324000001001400014014000180140001C014022
:10325000002001400000014000002042CE480168EB
:1032600041F0010101604168CC4A114041600168B0
:10327000CB4A11400160016821F48021016041685E
:1032800021F4FE014160016821F0A05101604FF47A
:103290007F0181600021C1627047BF490A6822F442
:1032A00080320A600A6822F480220A60B0F5803F0A
:1032B00007D0B0F5802F03D1086840F4A020086043
:1032C0007047086840F48030F9E703460020590948
:1032D000B14A01290AD002290AD0516A03F01F021B
:1032E000012393400B4200D0012070471168F5E79D
:1032F000116AF3E718B500204FF4A0640090312064
:10330000FFF7E3FF0099491C0091A14201D000287A
:10331000F5D03120FFF7D9FF002800D0012018BDDB
:103320009D4A116821F0F80141EAC0001060704721
:103330009C4908607047984B5A68084322F47412FD
:10334000104358607047974908667047924B10B514
:10335000DA6A954C084322401043D86210BD8E4A69
:10336000D16A21F0F0010143D16270478A4AD16AE3
:1033700021F470610143D16270478A4988667047C1
:10338000854AD16A21F470410143D1627047854971
:1033900008677047804A516821F00301014351607A
:1033A00070477D48406800F00C0070477A4A5168C9
:1033B00021F0F001014351607047774A516821F4D0
:1033C000E061014351607047734A516821F46051D4
:1033D00041EAC000506070476F4A0029517A01D01D
:1033E000014300E08143517270476E49D831086053
:1033F0007047694A516821F4404101435160704768
:103400006A49086070476949091D08607047624948
:10341000002281F8202081F82020012802D00428F1
:1034200002D1052081F8200070476149086070478B
:1034300059490A6A02430A6270475D494439086083
:103440007047F0B5544B59685A4A11F00C014FF0CF
:103450000F0604D0584C042903D0082903D0026079
:1034600028E0046026E059685A6806EA914102F4AF
:1034700080320D2901D0891C00E00621BAB1DA6A38
:1034800012F4803FDA6A02F00F0202F101020AD060
:10349000DD6AC5F30317DD6A7F1CB4FBF7F4C5F3DF
:1034A0000325AD1C6C43B4FBF2F24A43D7E7434A11
:1034B000514301605968424A06EA1111545C01689F
:1034C000E14041605C68072505EA1424145D21FA97
:1034D00004F484605C6805EAD424125DD140C160C4
:1034E0005A68032303EA9232354B1B1F9A5CB1FBE7
:1034F000F2F10161F0BD284A0029516901D0014370
:1035000000E0814351617047234A0029916901D04D
:10351000014300E08143916170471F4A0029D1694E
:1035200001D0014300E08143D16170471A4A00296C
:10353000916A01D0014300E0814391627047164ACD
:103540000029D16801D0014300E08143D160704778
:10355000114A0029116901D0014300E08143116142
:10356000704713494039086070470E49C864704776
:103570000949C87170470848416A41F08071416249
:103580007047054A0146002092680A4200D0012097
:103590007047014988727047001002400000FFF038
:1035A000FFFFF6FE00004242F0FFFEFFC40542426C
:1035B0008004424200127A0040787D0100093D00FB
:1035C00004450020A94910B588420AD1841401217C
:1035D0002046FFF7B4FF2046BDE810400021FFF76A
:1035E000AEBFA349884202D10121041404E0A149DD
:1035F00088420AD10121C4132046FFF7A9FF2046C3
:10360000BDE810400021FFF7A3BF10BD30B5028810
:103610004C8802F441530A88CD8822438C882C437D
:1036200022430C8922434C8922438C892243CC8932
:1036300022431A430280828B22F400628283098A29
:10364000018230BDF0B505460C4602200021AA8B50
:1036500085B001264FF240031A40AA832884AF8B1D
:10366000A268022A42D0A08800B102268048854282
:1036700002D14FF4003001E04FF480207E49CA6A45
:10368000024214D0C86AC0F30330821F092A01D253
:10369000801C02E00F2800D11420C96A774AC1F3C8
:1036A0000311491CB2FBF1F14143480003E06846B5
:1036B000FFF7C7FE0098E188B1F5007F2CD07101BB
:1036C000B0FBF1F000EB8000A1684000B0FBF1F02E
:1036D000401D80B20A21B0FBF1F000F00101401A58
:1036E0004FF6FF72C0F34F0002EA0121821EFE2A4C
:1036F00001D302200021E288084302432A84208863
:103700006188A2890843A18811430843384340F4E3
:103710000060A88305B0F0BD000AD3E70021018056
:1037200041808180C180018141818181C1810721E6
:10373000018270470021018041808180C180022286
:103740008260818170470029018802D041F04001E8
:1037500001E021F04001018070470029818B02D0F7
:1037600041F4806101E021F480618183704709099F
:1037700001238B40002A828899B201D00A4300E0DD
:103780008A4382807047002A828801D00A4300E081
:103790008A43828070478181704780897047A1F594
:1037A0007E420188FF3A02D041F4807101E021F4A9
:1037B0008071018070470029818802D041F00401A6
:1037C00001E021F0040181807047028822F4006248
:1037D000028002880A4302807047018841F48051C8
:1037E000018070470029018802D041F4005101E0B6
:1037F00021F4005101807047012901D0008B7047EE
:10380000808A7047008A7047B1F5804F018803D0E5
:1038100021F480410180704741F48041FAE702467B
:10382000002012890A4200D001207047C94301815B
:10383000704730B501F00F030125024605FA03F485
:103840000020A3B2090905FA01F49188A4B21289F3
:1038500021401A4202D0002900D0012030BD01F0E1
:103860000F0201219140C94301817047003001409E
:1038700000380040003C00400010024040787D01CC
:10388000C64910B588420AD101218C032046FFF7B2
:1038900056FE2046BDE810400021FFF750BEC0494B
:1038A000884202D101214C0410E0BE49884202D175
:1038B00001218C040AE0BC49884202D10121CC04D8
:1038C00004E0BA4988420AD101210C052046FFF7DD
:1038D0003FFE2046BDE810400021FFF739BE10BD75
:1038E00030B50446008A85B00D464CF6FF7108409D
:1038F000E98801432182A0894EF6F3110840A98886
:103900002A8911436A8902431143A181A08A4FF693
:10391000FF410840A9890143A1826846FFF791FD54
:103920009E48844201D1039800E00298A1890904CD
:10393000002900EBC00101EB0010296802DA4FEA10
:10394000410101E04FEA8101B0FBF1F06422B0FBDC
:10395000F2F14FEA01114FEA11136FF018056B43B2
:1039600000EB8300A3891D044FF0320306D503EB5F
:10397000C000B0FBF2F000F0070005E003EB001020
:10398000B0FBF2F000F00F000843208105B030BD1D
:103990004FF41651016000218180C18001810C2209
:1039A00042818181704710B5028A4FF2FF031A40AD
:1039B0000B884C8823438C88C9880C4323431343CA
:1039C000038210BD0021018041808180C180704749
:1039D0000029818902D041F4005101E021F4005115
:1039E0008181704710B5C1F3421301F01F0401211A
:1039F000A140012B07D0022B07D01430002A026807
:103A000005D00A4304E00C30F8E71030F6E78A43AB
:103A1000026010BD002A828A01D00A4300E08A4376
:103A200082827047028A22F00F020282028A0A43CF
:103A300002827047828922F40062828182890A436D
:103A4000828170470029818902D041F0020101E0A2
:103A500021F0020181817047028A22F02002028255
:103A6000028A0A43028270470029018A02D041F487
:103A7000804101E021F4804101827047C1F30801D7
:103A8000818070478088C0F308007047818941F0C9
:103A9000010181817047028BD2B20283028B42EA1C
:103AA000012101837047028B02F47F420283028B63
:103AB0000A43028370470029818A02D041F0200125
:103AC00001E021F02001818270470029818A02D023
:103AD00041F0100101E021F01001818270470029BE
:103AE000818A02D041F0080101E021F008018182C1
:103AF00070470029818902D041F4004101E0C1F3FF
:103B00000E01818170470029818A02D041F4006151
:103B100001E021F4006181827047828A22F0040270
:103B20008282828A0A43828270470029818A02D077
:103B300041F0020101E021F002018182704702465A
:103B4000002012880A4200D001207047C94301803A
:103B5000704770B501F01F0501260024C1F3421320
:103B600006FA05F2012B0FD0022B0FD0838A4FEA01
:103B700011210088134206FA01F600EA060001D07E
:103B800000B10124204670BD8389F0E7038AEEE787
:103B90000A0A01219140C943018070470038014061
:103BA0000044004000480040004C004000500040ED
:103BB000002204E0491C521C00F8013BD2B20B78F1
:103BC000002BF7D100210170104670472DE9F0411C
:103BD0000546FC480E461446007808B1112009E05D
:103BE000287801280AD0022808D0032806D0042803
:103BF00004D0012010700020BDE8F08100F07CFFAF
:103C0000074605F10F013046FFF7D2FF054638465B
:103C100000F076FF002020702846EDE701460020E6
:103C200002E0491C401CC0B20A78002AF9D1704752
:103C30002DE9F0410546E3480E461446007808B1E8
:103C4000122009E02878012808D0022806D003288D
:103C500004D0042802D001201070CDE700F04CFF02
:103C600007463046FFF7DAFF1F2804D9384600F030
:103C700047FF0B2008E0314605F10F00FFF798FFE2
:103C8000384600F03DFF00202070B5E7CD4C00F035
:103C900033FF6169491C616100F032FF00F082FF6F
:103CA000F5E7002203E0491E00F8012B89B2002944
:103CB000F9D1704730B587B000F070FFC14B0024D8
:103CC0001C705C709C715C719C605C611C7103F188
:103CD00010012046401CC0B201F8014B0428F9D362
:103CE0009C70DC701C624FF46771B7489C61FFF7F1
:103CF000D8FFB54880218038FFF7D3FFB2480022B3
:103D000000F154013F25416180F8445080F845405E
:103D1000521C54305431D2B20A2AF4D3446180F890
:103D2000445080F84540A8485C62D8614FF4F07177
:103D3000A0F58C60FFF7B5FFA448002200F1300128
:103D400004704160C5730474521C3030303192B23B
:103D5000092AF5D304704460C57304749B48D86085
:103D600000F05FFC802103200291CDE90340984AD6
:103D70004FF6FF70CDE900021F2302F5FE7200210D
:103D8000AFF2F70000F0A6FC05AA92A11F2000F0F8
:103D9000BEFD07B0BDE8304000F001BF8949487959
:103DA000012804D10878FF2801D2401C0870704710
:103DB00070B5844C6079012823D100F09DFE054642
:103DC000207820B1401E10F0FF00207014D16078E0
:103DD00090B900F0A6F9E078A17888420CD07A4931
:103DE000803951F820102162086B401C0863A068DC
:103DF000401CA06000F09CFE2846BDE8704000F02A
:103E00007FBE70BD10B56F4C607901280CD100F0F9
:103E100073FE217821B96178FF2901D2491C6170B4
:103E2000BDE8104000F06CBE10BD70B500F064FE3F
:103E3000644C05462078A0B9607890B900F071F91B
:103E4000E078A17888420CD05F49803951F8201081
:103E50002162086B401C0863A068401CA06000F051
:103E600062FE2846BDE8704000F04ABE10B5554CD1
:103E70006079012813D100F03FFE617831B1491E0D
:103E800011F0FF01617001D1217819B1BDE8104036
:103E900000F036BE00F034FEBDE81040C5E710BDAE
:103EA00010B5484C607900280DD100F03AF9464928
:103EB000E0788039A07051F820002062A061BDE850
:103EC000104000F020BE10BD70B53E4D687901284D
:103ED00031D16C6A2BE000F00FFEA18C21B3A1F16F
:103EE00001010904090CA1841ED194F8261011F0D7
:103EF000370F05D021F0370184F82610012100E0AA
:103F0000002184F8271094F8261009070CD42A34CD
:103F10002A79A178114329712A4A217810326678CA
:103F2000535C2A3C33435354646900F0E9FD94F830
:103F300028001F28CFD170BD4FF48F707047704795
:103F400010B590F82A2090F82B408B18DA7AA2430B
:103F5000DA7204D18A7A90F82C0082438A7210BDFA
:103F6000F0B50E460146847A1E484FF00007045D06
:103F700001EB0405ED7A405D00EBC400C5B21248C8
:103F8000A0F1800050F8250000F120008780066035
:103F9000867926EA02068671C371A0F120003207F5
:103FA0000BD4084A90F82C30167933431371103231
:103FB00090F82B60135D33431355FFF7C1FF28467C
:103FC000F0BD000014450020A454002044500020FF
:103FD0002452002075432F4F532D49492049646CCA
:103FE00065000000D88B000830B5544C00F10B027E
:103FF000A16941F81C0F8B7BC97B9D5C0D439D54CF
:10400000A169827A2A318B781A438272087804F186
:1040100010034D781A5C2A39AA431A5404D191F836
:104020002C1020798843207130BD002282720B3021
:104030001146491CC9B200F8012B0429F9D3704775
:1040400005E011F8013B521E00F8013B92B2002A34
:10405000F7D170472DE9F05F9846DDE90ABA91463D
:104060000D46064600F048FD344FFC69002C54D044
:1040700010346168F96100F043FD44F8105C267665
:104080000025A575E575A58244F804BC44E903A99B
:104090000C982080A4F80280F0086577A0760123B0
:1040A00006F0070103FA00F26176227703FA01F2C3
:1040B000E276E56025612562A5626562E5623F20E2
:1040C000256384F8340084F83550103C204600F015
:1040D000A5FD204600F064FD00F00EFD01461848E5
:1040E00040F82640786AC4E9050500B184617C6225
:1040F0002A343A79A07810433871104A2078103267
:104100006478135C23431354B879401CB871084693
:1041100000F0F6FC0020BDE8F09F00F0F1FC42202A
:10412000F9E70649074A01F110030879105C1B5CA6
:10413000D25C02EBC000C87070470000144500203C
:1041400024540020D88B000870B5054600780C4632
:10415000022803D001200870002070BD00F0CCFCC4
:104160006A680346D08A70B11169081D10610D6834
:10417000D18A491ED1829168884201D1506810616C
:104180000020207002E01F2020700025184600F05B
:10419000B7FC284670BD2DE9F0410646F848884630
:1041A000007810B10020BDE8F08100F0A5FCF54FCB
:1041B0003C680CB16168396000F0A2FC1CB300F0EF
:1041C0009BFCF1490D68C5B12A680A6000F098FCB3
:1041D00006EB8800C5E90160EE602E61A5F8148049
:1041E0000020E8820221217020813F216560E17377
:1041F00020742046FFF719FF05E0396861603C60D4
:1042000000F07EFC00242046CDE72DE9F05F044657
:10421000007888461546022801D0012003E0D848DE
:10422000007810B10F2010701FE000F065FC074609
:10423000A07A08B1012600E000265FEA0800DFF856
:104240004893DFF840A34FF03F084FF0000B06D033
:1042500001282CD0384600F053FC072004E03EB182
:10426000384600F04DFC492028702046BDE8F09FFC
:1042700084F80F8084F810B06068D9F800205E469A
:104280000260C9F8000084F800B0DAF8001061603C
:10429000A4F808B03846CAF8004000F031FC2E708F
:1042A00025E00023042219462046FFF759FEA07A94
:1042B0000028F6D184F80F8084F810B06068D9F82F
:1042C0000030D8460360C9F8000084F800B0DAF87E
:1042D00000206260A4F808B03846CAF8004000F038
:1042E0000FFC012E01D1FFF7A0FD85F80080002012
:1042F000BCE710B5044600F0FFFB61684A68CA607D
:104300000A610022CA8200F0FBFB002010BD2DE9EB
:10431000F0470646007889461446022801D001205D
:1043200008E09748007808B1022003E09748007839
:1043300020B10D2010700020BDE8F08700F0DCFBFC
:10434000054670680027C18A89B10269111D0161A3
:104350001668C28A521EC2828268914201D14168A7
:104360000161284600F0CCFB27703046E4E7DFF817
:104370002082D8F8000010F8261F41F004010170D7
:10438000477020F8029C3046FFF72EFE284600F0CA
:10439000B7FBFFF74AFD00F0AFFB8146D8F80000FD
:1043A00090F8271039B1022908D03146FFF7C8FD2F
:1043B00000250A2004E0056A277002E000250E208F
:1043C0002070D8F800001C308772C7720760476001
:1043D000484600F095FB2846AEE72DE9F0410F4630
:1043E0000546017801201646022901D0107028E008
:1043F00000F082FB8046A87AF0B10024012F0FD094
:104400000223042200212846FFF7AAFD012440468A
:1044100000F076FBFFF709FD0E2030702046C2E663
:104420000223042200212846FFF79AFD641CA87A83
:10443000E4B20028F4D1EAE7404600F061FB002036
:1044400030700020AFE670B5044600780E460228B2
:1044500001D0012070BD00F04FFB0546A07A58B195
:104460000023042231462046FFF77AFD284600F05B
:1044700047FBFFF7DAFC19E06068C18A828A914243
:1044800004D3284600F03CFB1E2070BDC1680A1D05
:10449000C2600E60C18A491CC182D0E902128A4200
:1044A00001D14168C160284600F02AFB002070BDA0
:1044B00070B5044600780E46022801D0012070BD78
:1044C00000F01AFB0546A07A58B1002304223146B9
:1044D0002046FFF745FD284600F012FBFFF7A5FC3C
:1044E00018E06068C18A828A914204D3284600F0AD
:1044F00007FB1E2070BD42680169914201D18168AD
:104500000161091F01610E60C18A491CC1822846F0
:1045100000F0F6FA002070BD2DE9F0410746007862
:1045200014460D46022801D001203CE600F0E4FAD2
:104530000646B87AD0B1E00709D000230422294604
:104540003846FFF70DFDB87A0028F6D105E00023C4
:10455000042229463846FFF703FD304600F0D0FA22
:10456000600701D4FFF761FC00201CE67B68D88A55
:10457000998A88420ED3304600F0C2FA1E2012E615
:1045800014450020204500203C4500201545002012
:104590002C450020A00709D559681869884201D127
:1045A00098681861001F1861056009E0D868011D4E
:1045B000D9600560D3E90201814201D15868D86011
:1045C000D88A401CD882304600F09AFACCE72DE910
:1045D000F041074600780E46022801D00120E2E5AE
:1045E00000F08AFA0146B87A307307F10B0406F13D
:1045F00008050020401C14F8012BC0B205F8012B5F
:104600000428F7D37868C28A0AB102691268326056
:10461000C28AB280808AF080084600F071FA0020D9
:10462000C1E510B560210A48FFF73BFB08480022AE
:1046300000F1180140F8181B521C183192B2032ADD
:10464000F8D30021016003490148086010BD000053
:10465000405800203C4500202DE9FE431C461646EC
:104660000F46804600F048FAF749097821B100F07A
:1046700047FA3C20BDE8FE83F44D55F8241019B1EB
:1046800000F03EFA2820F5E7012145F8241000F05B
:1046900037FA002332463946404600F085FA0026B4
:1046A0000146009601963346324620460296FFF7B1
:1046B000D1FC070007D000F01FFA45F8246000F095
:1046C0001FFA3846D6E7E24800780128F9D1FFF70B
:1046D000ACFBF6E72DE9FF4F83B01C46DDE913760E
:1046E000DDE911A891468B4600F006FAD649097813
:1046F00029B100F005FA3C2007B0BDE8F08FD34D9A
:1047000055F8241019B100F0FBF92820F4E7012135
:1047100045F8241000F0F4F933464A465946039808
:1047200000F042FACDF80080CDE90176014652460C
:104730002046109BFFF78EFC060008D000F0DCF945
:10474000002145F8241000F0DBF93046D4E7C048DA
:1047500000780128F9D1FFF768FBF6E72DE9F0476B
:104760000546B948007810B14020BDE8F0871F2DFC
:1047700005D000F0C1F90646FF2D02D005E03E202D
:10478000F3E7B448006890F82850DFF8C09259F871
:1047900025405CB1012C0ED094F82A10AE4A94F852
:1047A0002B30505C984350540AD00FE0304600F054
:1047B000A7F94320D9E7304600F0A2F93D20D4E71D
:1047C000A64894F82C20017891430170E16911B159
:1047D0002046FFF7B5FB4FF00008A4F82480A04F57
:1047E00084F8268084F827803878FF2801D2401C7E
:1047F0003870304600F084F9FFF7A1FB00F07CF937
:104800000646387808B1401E3870204600F0C9F9D5
:1048100094490878401E087049F82580A0694146EF
:10482000A0B162694261D4E9050282618E480268E2
:10483000626104603F2004F8440F3046617000F06C
:104840005FF983480078012806D007E06069874A4D
:10485000816160691060E9E7FFF7E7FA002084E70B
:1048600010B504461F2810D0FF2C10D000F044F9DA
:10487000764951F82410A1B1012916D03F2281F8C0
:104880002D2000F03DF9002010BD3E2010BD00F0AD
:1048900033F97049096891F82D4000F031F920464C
:1048A00010BD00F02DF9432010BD00F029F93D2086
:1048B00010BD2DE9F041064663480F4614460078C6
:1048C00010B11120107020E000F016F90546FF2EFF
:1048D00003D16048006890F828605C4850F82610C2
:1048E000432671B101290CD044313846FFF760F9F5
:1048F0000646284600F004F9002020703046BDE846
:10490000F081284600F0FCF826700020F7E72DE93A
:10491000F04105464C4888461446007810B11220F4
:104920001070ECE700F0E8F80646FF2D03D1494887
:10493000006890F828504548432750F825505DB14D
:10494000012D09D04046FFF769F90F2809D93046F3
:1049500000F0D6F841200DE0304600F0D1F8277085
:10496000CDE7414605F14400FFF722F9304600F05B
:10497000C7F800202070C2E710B5044600F0BCF86C
:10498000324951F8241059B101290DD091F826204F
:10499000130728D532F0080281F8262008D009E054
:1049A00000F0AEF8462010BD00F0AAF8432010BD7C
:1049B0008A8C1AB100F0A4F8002010BD274B2A31D0
:1049C0008A781C7822431A700A78234B49789C5CB9
:1049D0000C439C5400F094F81D4800780128EBD15A
:1049E000FFF723FAE8E700F08BF8442010BD70B51C
:1049F000044600F081F801461648FF2C006805D0F7
:104A000090F82800A04204D1012503E090F8284046
:104A1000FAE700250D4850F8240058B101280ED0BF
:104A200090F82A200C4C90F82B60A35CB343A3545D
:104A30001ED023E0084600F063F8482070BD084609
:104A400000F05EF8432070BD14450020245400207F
:104A5000194500202C450020244500201845002041
:104A6000154500201A45002030450020384500201B
:104A7000094A90F82C401378A343137010F8262F9E
:104A800042F008020270084600F03AF8012D01D108
:104A9000FFF7CBF90020D6E71845002070B5044693
:104AA0001148007800281DD1002C1BD000F024F8FC
:104AB00003460E480E4D016891F82A2091F82B60AC
:104AC000A85CB043A85405D10A4891F82C5002784C
:104AD000AA4302708C84184600F012F8BDE87040BA
:104AE000FFF7A3B970BD0000144500202C4500203D
:104AF0002445002018450020EFF3108072B670475F
:104B000080F3108870471D484FF0FF0101700020AE
:104B100080F309881A48012101701A484FF080512A
:104B2000016062B6FEE717484FF0805101607047A0
:104B300014484FF080510160704772B6EFF309805E
:104B400028B1203880E8F00F0F490968086000B5E7
:104B50000E4880475DF804EB0D480E490A78027054
:104B600009480D490A680260106890E8F00F20308B
:104B700080F309884EF0040E62B6704722ED00E023
:104B80001945002004ED00E02C4500201B4C0008D6
:104B90001645002017450020344500207047704717
:104BA00070477047704770474FF080731360131F52
:104BB0001860A2F108006FF001030360001F4FF0BE
:104BC00012330360001F4FF003330360001F4FF0E8
:104BD00002330360001F5B100360001F0160001FB1
:104BE0004FF011310160001F19010160001F4FF0EB
:104BF00009310160001FD9000160001F4FF007312B
:104C00000160001F4FF006310160001F4FF00531B9
:104C100001609900001F01607047704770470000F5
:104C2000002070470020704770B50D4651021C46A9
:104C30004FF40072012B09D01848FDF7C7FD62023E
:104C40001649284601F0B2FE002070BD14461348F4
:104C5000FDF785FD2246F3E770B554021D464FF47B
:104C60000076012B0BD06A020C4801F09FFE214612
:104C70002B4632460948FDF746FE002070BD3246FD
:104C8000064801F093FE214632460448FDF7FEFD3A
:104C9000F3E700207047002070470000A058002074
:104CA0002DE9F041056B0F460446BD422BD021791A
:104CB00004F13408D9B1607801232A464146FFF750
:104CC000CBFFE0B900202071E169606A0844A84286
:104CD0000DD9E67809E0E0690123054460782A46A9
:104CE0004146FFF7B9FF761EF6B2012EF3D857B151
:104CF000607801233A464146FFF796FF10B1012044
:104D0000BDE8F08127630020FAE72DE9F041044671
:104D10000021FFF7C5FF05002BD12078032821D102
:104D2000A07AF8B1002604F134004FF40072314645
:104D30000746266301F06BFC4AF65520A4F83202C0
:104D4000FE486063FE48C4F818022069C4F81C02DB
:104D5000E068C4F820026078012339466269FFF7F1
:104D60007BFFA672002260781146FFF792FF00B128
:104D700001252846C4E72DE9F0410C4605460229E5
:104D800002D3286AA04201D80120B9E728786E6AC8
:104D9000012804D0022824D0032833D12CE004EBCE
:104DA000540706EB57212846FFF77AFF50BBC7F39D
:104DB000080028447F1C90F8348006EB57212846D1
:104DC000FFF76EFFF0B9C7F30800284490F83410DD
:104DD00048EA0120E10701D0000991E7C0F30B0088
:104DE0008EE706EB14212846FFF75AFF50B9E0B2D0
:104DF00005EB4000808E83E706EBD4112846FFF7D1
:104E00004FFF10B14FF0FF307AE74FF4FE7000EA29
:104E100084002844406B20F0704071E72DE9F04792
:104E200016460C460546022902D3286AA04202D83B
:104E30000220BDE8F08728786F6A4FF00109012849
:104E400007D0022837D0032841D0022085F80490EB
:104E5000EFE704EB540807EB58212846FFF720FF43
:104E60000028F3D1C8F3080028443430E10704D007
:104E70000178F2B262F31F1100E03146017008F1CF
:104E8000010885F8049007EB58212846FFF708FF32
:104E90000028DBD1C8F3080129443431E20702D0ED
:104EA000C6F3071205E00A78C6F3032302F0F00206
:104EB0001A430A70CAE707EB14212846FFF7F0FEF1
:104EC0000028C3D1E1B205EB41018E86BEE707EBB6
:104ED000D4112846FFF7E4FE0028B7D14FF4FE7145
:104EE00001EA840129444E63B0E72DE9F0410F4601
:104EF0000546022918D3286AB84215D900264FF072
:104F000001081DE039462846FFF735FF04001AD096
:104F1000012C09D0601C09D0002239462846FFF731
:104F20007DFF06000FD103E002260CE001260AE017
:104F30002869411C03D0401C286185F80A80274657
:104F4000286AB842DED83046DAE62DE9F041076A31
:104F50005FEA0108064607D041463046FFF70BFFDF
:104F6000022807D20120CBE6F5680DB1BD4204D37B
:104F7000012502E0B842F6D345462C46641CBC42EB
:104F800002D30224022D0AD321463046FFF7F3FE56
:104F900038B1411CE7D00128E5D0AC42EED1002069
:104FA000AEE66FF0704221463046FFF737FF4FF014
:104FB000FF3540B95FEA080007D001462246304677
:104FC000FFF72CFF08B128469AE6F4603069411CCF
:104FD00003D0401E30610120B072204690E670B5CB
:104FE0000D46C1808168044601291ED02068026AEE
:104FF0008A421AD921B90278032A04D1816A11B1EF
:105000008078060117E0E1600189A9420DD9806A24
:1050100017E02068FFF7AFFE0146401C07D00229C9
:1050200003D32068006A884203D8022070BD0120A3
:1050300070BDA81B85B2B542EBD2E160206801F0DB
:10504000F9FA00EB1510206105F00F0134222068F9
:1050500002EB411108446061002070BD2DE9F04170
:105060000446C0880E46401C07043F0C2DD0206922
:1050700058B339075CD1401C2061E168206829B130
:105080008278521E12EA171F04D051E00089B842FC
:105090001BD94DE0FFF76FFE0546012819D9681CA2
:1050A00031D02068016AA9423CD876B1E168FFF7A7
:1050B0004CFF05000BD0012D0BD0681C23D0002124
:1050C0002068FFF7EDFDF0B905E0042018E60720A1
:1050D00016E6022014E620684FF4007234300021F6
:1050E00001F095FA2946206801F0A4FA216800260B
:1050F0004FF0010808630EE080F80480002120686A
:10510000FFF7CEFD08B10120FAE52068016B491CCC
:10511000761CF6B2016320688178B142ECD8016B4D
:10512000891B0163E5602946206801F083FA20614C
:10513000E78007F00F01342204E000005252614181
:1051400072724161206802EB4111084460610020E5
:10515000D6E510B50446042013E02068FFF7A0FD53
:10516000A0B961690A7852B1E52A02D0C97A090763
:105170000ED500212046FFF771FF10B106E0042094
:1051800004E021690029E8D1002801D00021216133
:1051900010BD70B504460021FFF721FF0EE0216924
:1051A0002068FFF77DFD050024D160690078E528BF
:1051B00007D030B101212046FFF750FF0500EED0A7
:1051C00018E021692068FFF76BFD050012D16669C0
:1051D00020220021304601F01AFA0B223046A16944
:1051E00001F00DFAA069C07A00F018003073216850
:1051F00001200871284670BD10B50446C188FFF72C
:10520000EEFE00280BD121692068FFF749FD002838
:1052100005D16269E521117022680121117110BD6B
:105220002DE9F047846989460B222021204601F0B0
:10523000EEF9D9F8006000200246317808271346BD
:105240002E2918D1F05C5B1C2E280CD02F2803D0FF
:105250005C2801D0202869D2F218C9F80020202843
:1052600006D2242005E0032B60DAA054521CE9E7A3
:105270002020E0726FE0F15C5B1C202949D32F29CC
:1052800047D05C2945D02E2901D0BA4208DB082F2F
:105290004CD12E294AD108220B278006000EEAE7BE
:1052A000802901D340F00300A1F181057D2D13D8A1
:1052B000F55C5B1CA5F1400CBCF13F0F04D3A5F1DC
:1052C000800CBCF17F0F31D2A7F1010C62452DDAC1
:1052D000A154521CA5541AE0FBA500E06D1C95F8E2
:1052E00000C0BCF1000F02D08C45F7D11EE0A1F147
:1052F0004105192D02D840F0020007E0A1F1610537
:10530000192D03D8203940F00100C9B2A154521C14
:10531000B1E7F518C9F80050202901D2042100E0B6
:1053200000211AB12278E52A02D003E0062080E5A8
:1053300005222270082F01D18006000E00F0030222
:10534000012A01D141F01001C0F38100012801D1EF
:1053500041F00801E17200206BE570B5036901F1CD
:105360000902A3B3436900241D7B185D20280FD0D8
:10537000052800D1E5202E0705D5A0F14106192EFC
:1053800001D82030C0B2641C02F8010B082CECDB01
:10539000187A202813D02E2002F8010B0824185D5B
:1053A00020280CD0EE0605D5A0F14106192E01D813
:1053B0002030C0B2641C02F8010B0B2CEFDBD87A52
:1053C0000872D8690860188B8880D88AC880002045
:1053D000107070BD73B504460199002508782F2818
:1053E0000ED05C280CD020688069A06001980078FD
:1053F000202809D200212046FFF7F1FD65617CBD20
:10540000491C0191A560F1E701A92046FFF708FFBB
:105410000028F4D100212046FFF7E1FDB8B9216949
:105420002068FFF73DFC050010D160690178C9B123
:10543000C17A090704D40B22A16901F0EFF828B161
:1054400000212046FFF70AFE0500E8D02846A169A2
:10545000C97A01F0040138B10428D0D10029CED195
:1054600005207CBD0425F1E70029FAD16069C17AE5
:10547000C906F5D5418B808A41EA0040A060C3E7A8
:1054800010B504460A464078012304F13401FFF7C1
:10549000CBFB08B1032010BDB4F83202A0F52A41BD
:1054A000553901D0022010BD03228A4904F16A0057
:1054B00001F0B4F80028F6D00322864904F18600F2
:1054C00001F0ACF828B994F85C00000601D4002083
:1054D00010BD012010BD2DE9F0410B4601681546B5
:1054E000DFF8F4810A78303A092A02D84C783A2C4D
:1054F00004D098F8002022B10B2005E4891C01603B
:10550000F9E77548001D04681C6084B1207820B15B
:105510006078FFF787FBC1070BD00027277038465C
:105520006770FFF77DFBC10708D0032022E40C2041
:1055300020E40DB1400704D400201BE41DB1400756
:1055400001D50A2016E4002631462046FFF798FFD1
:10555000012808D104F5F970017979B186682046EF
:105560003146FFF78DFF032801D038B901E0012053
:105570000BE4B4F83F00B0F5007F01D00D2004E447
:10558000B4F84A0000B9A06DE06194F84410E170ED
:10559000B4F842C041430CEB0603636294F84150F7
:1055A000A570B4F845202281B4F8470000B9606DB9
:1055B000A0EB0C00401AA0EB1210B0FBF5F0801C21
:1055C000012540F6F77C2062604500D302254FF6A6
:1055D000F77C604501D303250EE0032D0CD058184D
:1055E000A06201EB12101844E0624FF0FF3020611E
:1055F0002771032D02D022E0206EF1E7A772B4F8E4
:105600006400012382196261607804F13401FFF7BC
:105610000BFBA0B9B4F83202A0F52A4155390ED1DE
:105620002E49606B88420AD12D49D4F8180288426D
:1056300005D1D4F82002E060D4F81C022061257066
:105640002763A761B8F80200401CA8F80200E080B8
:10565000384679E408B10B2070471F4B1B1D002210
:10566000186800B1027001B10A700020196070471B
:105670002DE9F7478BB04FF00008064602F01F05F2
:10568000C0F8008005F01E0269460CA8FFF723FF52
:1056900000282AD107A8069068460C99FFF79AFEC1
:1056A00015F01C0F58D04FF00109D8B104281CD1B7
:1056B0006846FFF76EFD002817D145F00805059CE8
:1056C00028073CD457E0000020222A2B2C5B3D5DAC
:1056D0007C7F0000D88C0008404500205252614178
:1056E00072724161680702D508200EB01FE6059C62
:1056F0008CB3E07A10F0110F3BD128073BD5608BBB
:10570000A18AA4F81480A4F81A8050EA0147C4F8CA
:105710001C80009981F804900098D0F830A008D03F
:1057200039460098FFF7E1FB0028DED100987F1E84
:10573000C76051460098FFF7B3FA0028D5D184F826
:105740000B80FFF7A8FAC4F80E00009945F0200579
:1057500081F804900FE00CE00028C6D1059C14B13C
:10576000E07AC10601D50420BFE7A90703D5C00729
:1057700001D00720B9E70098006BF061059830620E
:10578000B571608BA18A40EA01403061E069FF2178
:10579000C6E90280F171C6F8188000983060009860
:1057A000C088B0800020A0E72DE9F05F4FF0000A2C
:1057B0008846C3F800A004468188994616460068CA
:1057C00000F069FF002803D1A079010602D502206C
:1057D000BDE8F09FC00708D0D4E90210401A04F1D8
:1057E000240B864200D9064683E00720F0E7A06834
:1057F000C10566D12268E179937899420BD308B349
:1058000010466169FFF7B7FA01281DD9411C4ED037
:10581000606184F807A06169206800F00BFF98B10F
:10582000E1790F18750A28D020684B1982789342C5
:1058300000D9551AEBB240783A464146FFF7F4F9E1
:10584000A8BB06E02069DFE7A07940F08000A071E6
:10585000BDE7A07940060AD5A069C01BA84206D2C0
:1058600008EB40204FF40072594600F0C8FEE07982
:105870002844E0714FEA452531E0A07940060BD578
:105880002068012359464078A269FFF7E5F970B90D
:10589000A07920F04000A071A069B8420DD0206826
:1058A00001233A4640785946FFF7BEF928B1A0795E
:1058B00040F08000A07101208AE7A761E079401CD8
:1058C000E0712089C0F30800C0F50075B54200D929
:1058D0003546011924312A46404600F090FEA06862
:1058E000A8442844A060D9F800004119761BC9F8E3
:1058F0000010002E7FF47BAF002069E72DE9F05FF8
:105900004FF0000A8846C3F800A0044681889946F3
:105910001646006800F0BFFE002803D1A0790106FA
:1059200001D5022054E7800701D4072050E7E06842
:1059300004F1240B8219824275D396E0A068C10558
:1059400077D12268E179937899420DD3C0B110469E
:105950006169FFF7FAFA002865D0012834D0411CAC
:105960005BD0606184F807A0A079400615D5206857
:10597000012359464078A269FFF76EF9E8BB08E0B9
:1059800020690028E9D100211046FFF7DEFA2061E6
:10599000E1E7A07920F04000A0716169206800F083
:1059A00049FE88B1E1790F18750A27D020684B1994
:1059B0008278934200D9551AEBB240783A46414674
:1059C000FFF74AF9C8B904E0A07940F08000A0715F
:1059D000A7E7A069C01BA8420AD208EB40214FF4F8
:1059E0000072584600F00BFEA07920F04000A07134
:1059F000E0792844E0716D022DE00EE0A069B84224
:105A000013D0D4E9020188420FD2206801233A461C
:105A100040785946FFF708F938B1A07940F0800086
:105A2000A0710120D4E623E003E0A761E079401CE7
:105A3000E0712089C0F30800C0F50075B54200D9B7
:105A40003546204424302A46414600F0D8FDA0794E
:105A500040F04000A071A068A8442844A060D9F894
:105A600000004119761BC9F80010002E7FF466AFC4
:105A7000D4E90201884200D9E060A07940F020001A
:105A8000A0710020A4E670B504468188006800F08B
:105A900002FE00280ED1A1798A060BD548060ED544
:105AA0002068012304F124014078A269FFF7D4F8AB
:105AB00008B1012070BDA07920F04000A071E1691B
:105AC0002068FFF7EDF80028F4D1256AE87A40F065
:105AD0002000E872E068E861208A68832069000C91
