:020000040800F2
:1000000028710020812200084504000847040008E8
:10001000490400084B0400084D04000800000000DB
:100020000000000000000000000000004F04000875
:1000300051040008000000002B3C00087B20000851
:100040009B2200089B2200089B2200089B2200089C
:100050009B2200089B2200089B2200089B2200088C
:100060009B2200089B2200089B2200089B2200087C
:100070009B2200089B2200089B2200089B2200086C
:100080009B2200089B2200089B2200089B2200085C
:100090009B2200089B2200089B2200089B2200084C
:1000A0009B2200089B2200089B2200089B2200083C
:1000B0009B2200089B2200089B2200089B2200082C
:1000C0009B2200089B2200089B2200089B2200081C
:1000D0009B2200089B220008112200089B22000896
:1000E0009B2200089B2200089B22000800000000C1
:1000F0000000000000000000000000000000000000
:1001000000000000000000009B2200089B22000865
:100110009B2200089B2200089B2200089B220008CB
:100120009B2200089B2200089B2200089B220008BB
:100130009B2200089B2200089B2200089B220008AB
:100140009B2200089B2200089B2200089B2200089B
:1001500000F002F800F066F80AA090E8000C824473
:100160008344AAF10107DA4501D100F05BF8AFF250
:10017000090EBAE80F0013F0010F18BFFB1A43F085
:100180000103184704AB000024AB000010F8013B4A
:100190000A4413F0030408BF10F8014B1D1108BFF7
:1001A00010F8015B641E05D010F8016B641E01F8A5
:1001B000016BF9D1002D15D010F8014B03F00C03A1
:1001C0000C2BA1EB04040ABF10F8013BA4EB831431
:1001D000A4EB032405F1010314F8016B5B1E01F885
:1001E000016BF9D5914238BF10F8013BD1D370476C
:1001F0000023002400250026103A28BF78C1FBD830
:10020000520728BF30C148BF0B607047642905F012
:10021000BF86782905F0F886002070471FB51FBDFE
:1002200010B510BD06F078F81146FFF7F7FF00F0A3
:10023000C2F806F096F803B4FFF7F2FF03BC01F032
:100240008BFF000010B501F07AFEBDE810404FF4BE
:10025000967001F05CBFC0F30741C908C0F30722E4
:10026000C902920841EA4211C0F3C4000843704732
:1002700010B503460C461046FFF7EDFFA1B202464B
:10028000BDE8104098B201F0BAB80026614C4FF4B6
:100290007A750127C4F89C61284601F038FFC4F83C
:1002A0009C71284601F033FFF4E701787047ECB009
:1002B000AFF209030A2214A903A804F002FE56A112
:1002C00003A804F0B4FF574903A804F0BDFF0A20B7
:1002D0003C226E218DE807000346002264A903A892
:1002E00005F060FA4F4A002103A805F01DFB4EA25D
:1002F000002103A805F006FB03A804F038FE002641
:10030000444C4FF47A750127C4F89061284601F0F7
:10031000FEFEC4F89071284601F0F9FEF4E70026CD
:100320003C4C4FF47A750127C4F88C61284601F0E3
:10033000EEFEC4F88C71284601F0E9FEF4E70024D3
:10034000344D01262746641CE4B20A2001F0DFFE8A
:10035000082C05D0642CF6D10024C5F88871F2E78A
:10036000C5F88861EFE710B503F03EFC07232F4A7C
:1003700004460021AFF2390003F0D2F906232C4ADB
:100380000021AFF2650003F0CBF91423294A0021C4
:10039000AFF2E50003F0C4F90223274A0021AFF2CF
:1003A000151003F0BDF90A2003F085FB2046BDE8D7
:1003B000104003F01DBC10B501F06DFE4FF4A060BD
:1003C00001F07EFF4FF4E13001F0D0FE00F099FF24
:1003D0004FF4A073F022AFF26711184803F098FCB5
:1003E000002000F013F9012000F010F9022000F0C5
:1003F0000DF9032000F00AF902F0B8FC0A23104AB4
:100400000021AFF29D0003F08BF902F0A6FD002061
:1004100010BD000000802242546573742057696E3D
:10042000646F7700B4AB00084F4B0000A04700207A
:10043000A0490020A0590020A05B002048450020D2
:10044000A04600207047FEE7FEE7FEE7FEE77047A4
:10045000704770470CB50022614800920192016814
:1004600041F4803101604FF4A063016801F4003170
:1004700001910099491C0091019911B90099994283
:10048000F3D10168890340D50121019155490A68DA
:1004900042F010020A600A6822F003020A600A6849
:1004A00042F001020A604168416041684160416870
:1004B0004160416821F47C114160416841F4E811D8
:1004C0004160C16A484A1140C162C16A474A11434A
:1004D000C162016841F08061016001680901FCD5D9
:1004E000016841F08071016001688901FCD54168B3
:1004F00021F003014160416841F00201416041681F
:10050000C1F381010229FAD10CBD01920CBD34481E
:1005100010B5016841F0010101604168344A1140A1
:1005200041600168334A11400160016821F4802173
:100530000160416821F4FE014160016821F0A05191
:1005400001604FF47F0181600021C162FFF782FFEB
:1005500029494FF00060086010BD70B5204B586805
:10056000264A274910F00C0004D0264C042803D05A
:10057000082803D00A6029E00C6027E058685A6810
:100580000F2505EA904002F480320D2801D0801C2E
:1005900000E00620BAB1DA6A12F4803FDA6A02F0AB
:1005A0000F0202F101020AD0DD6AC5F30316DD6A0B
:1005B000761CB4FBF6F4C5F30325AD1C6C43B4FB09
:1005C000F2F24243D6E7104A5043086058680C4A9A
:1005D000C0F30310121D105C0A68C2400A6070BDAF
:1005E000001002400020024000F0FEFF490601001A
:1005F0000000FFF0FFFFF6FE08ED00E000127A00B9
:100600000000002040787D0100093D0038B5044617
:100610000C48012150F8240002F030F909486946DD
:10062000083830F81400ADF8000010208DF80300F1
:1006300003208DF80200044850F8240001F0EFFE7A
:1006400038BD00007C6500081400002008B54FF696
:10065000FF70ADF8000004208DF803006946FE48E5
:1006600001F0DDFE08BD08B54FF6FF70ADF80000E3
:1006700003208DF8020010208DF803006946F6482B
:1006800001F0CDFE08BD70B5F44C00222260F44D9F
:100690002A60F44B1A60F04E0C363060012018606E
:1006A00028601A6031601860206070BD2DE9F0414B
:1006B000EA4F00243C60EA4D2C60EA490C60E64AAF
:1006C0000C32106001260E60FFF7C0FF2E60AC6098
:1006D000AE60E148083000683E6084B2FFF7C3FFB7
:1006E0002046BDE8F08138B50121782002F0C6F837
:1006F0004FF6FF70ADF8000003208DF802001020C7
:100700008DF803006946D44801F089FE4FF480401B
:10071000ADF800006946D44801F081FE4FF48070C6
:10072000ADF800006946D14801F079FE4FF4005061
:10073000CF4CADF800006946204601F070FE4FF442
:100740000041ADF800106946204601F068FEC3493B
:1007500001200860C3490860C1498860086038BD4D
:100760002DE9F05FFFF7BFFF322001F0D0FC01213F
:100770000020FFF788FF322001F0C9FC0020FFF7BE
:1007800095FFBC4CE0800020FFF790FFE080E188FF
:10079000B9A005F0B3FB322001F0B9FCE08848F6BF
:1007A0008916A0F50941993903D1E680C0A005F06A
:1007B000A5FBE08849F22538404502D1C2A005F0EA
:1007C0009DFBE0884FF4E06940F2077540F23F1A64
:1007D0004FF4887B49F22837404502D0E088B84280
:1007E0007ED143F20801E320FFF74DFF1221E720FD
:1007F000FFF749FF41F23121EF20FFF744FF0121CC
:100800000020FFF740FF4FF480710120FFF73BFF0E
:1008100049460220FFF737FF41F218010320FFF796
:1008200032FF00210420FFF72EFF40F207210820AD
:10083000FFF729FF00210920FFF725FF00210A20EB
:10084000FFF721FF01210C20FFF71DFF00210D20E4
:10085000FFF719FF00210F20FFF715FF00211020DF
:10086000FFF711FF07211120FFF70DFF00211220D4
:10087000FFF709FF00211320FFF705FFFA2001F021
:1008800046FCFA2001F043FC41F290511020FFF7A2
:10089000FAFE40F227211120FFF7F5FEFA2001F0C1
:1008A00036FCFA2001F033FC9C211220FFF7EBFE0E
:1008B000FA2001F02CFCFA2001F029FC4FF4C85179
:1008C0001320FFF7E0FE23212920FFF7DCFE0E2195
:1008D0002B20FFF7D8FEFA2001F019FCFA2000E0E7
:1008E0009EE001F014FC00212020FFF7CCFE002147
:1008F0002120FFF7C8FEFA2001F009FCFA2001F0E0
:1009000006FC07213020FFF7BEFE29463120FFF705
:10091000BAFE06213220FFF7B6FE40F20471352000
:10092000FFF7B1FE41F604713620FFF7ACFE04215B
:100930003720FFF7A8FE00213820FFF7A4FE40F281
:1009400006713920FFF79FFE40F201713C20FFF74E
:100950009AFE0F213D20FFF796FEFA2001F0D7FB0B
:10096000FA2001F0D4FB00215020FFF78CFEEF218C
:100970005120FFF788FE00215220FFF784FE5146E8
:100980005320FFF780FE4FF427416020FFF77BFEE6
:1009900001216120FFF777FE00216A20FFF773FE37
:1009A00000218020FFF76FFE00218120FFF76BFE02
:1009B00000218220FFF767FE00218320FFF763FEFE
:1009C00000218420FFF75FFE00218520FFF75BFEFA
:1009D00010219020FFF757FE4FF4C0619220FFF7DF
:1009E00052FEE088B8420FD103219320FFF74BFE5F
:1009F00059469520FFF747FE00219720FFF743FE59
:100A000000219820FFF73FFE40F233110720FFF747
:100A10003AFE00212020FFF736FE002121207FE250
:100A2000E188A1F5134020387ED0E088B0F5134F5F
:100A3000FAD0E0884FF40068A0F513414FF4017735
:100A4000313972D141F21401E720FFF71CFE4FF457
:100A50008071012044E0000000180140A001224202
:100A6000B4812242B8812142000C014000100140B3
:100A700000140140E04400200A0D202323232323F7
:100A800023207777772E61726D6A697368752E639C
:100A90006F6D204465766963654964436F646520C2
:100AA0003D20307825782023232323232320000092
:100AB0000A0D2054686973204C4344206973205305
:100AC00053443132383920000A0D205468697320AC
:100AD0004C434420697320696C69393332352000F6
:100AE000FFF7D1FD391F0220FFF7CDFD41F23001A4
:100AF0000320FFF7C8FDB91E0820FFF7C4FD002141
:100B00000920FFF7C0FD00210A20FFF7BCFD0021EE
:100B10000C20FFF7B8FD00210D20FFF7B4FD0021E8
:100B20000F20FFF7B0FD01E0BAE06AE100211020DC
:100B3000FFF7A9FD07211120FFF7A5FD00211220D5
:100B4000FFF7A1FD00211320FFF79DFDFA2001F022
:100B5000DEFA41F290611020FFF795FD40F2272167
:100B60001120FFF790FD642001F0D1FA0C21122032
:100B7000FFF789FD642001F0CAFA41461320FFF710
:100B800082FD11212920FFF77EFD0B212B20FFF78D
:100B90007AFD642001F0BBFA00212020FFF773FDED
:100BA00000212120FFF76FFD00213020FFF76BFDB2
:100BB0004FF4837421463120FFF765FD0021322078
:100BC000FFF761FD39463520FFF75DFD41F20A610F
:100BD0003620FFF758FD29463720FFF754FD214600
:100BE0003820FFF750FD29463920FFF74CFD40F231
:100BF00002413C20FFF747FD40F60F413D20FFF743
:100C000042FD00215020FFF73EFDEF215120FFF76C
:100C10003AFD00215220FFF736FD51465320FFF7E1
:100C200032FD4FF41C516020FFF72DFD01216120A2
:100C3000FFF729FD00216A20FFF725FD0021802014
:100C4000FFF721FD00218120FFF71DFD00218220FB
:100C5000FFF719FD00218320FFF715FD00218420F7
:100C6000FFF711FD00218520FFF70DFD10219020D9
:100C7000FFF709FD4FF4C0619220FFF704FD212129
:100C80000720FFF700FD642001F041FA61210720F1
:100C9000FFF7F9FC642001F03AFA40F2331159E20F
:100CA000E188FEA005F02AF901210020FFF7EBFC06
:100CB0004FF480710120FFF7E6FC49460220FFF760
:100CC000E2FC41F218010320FFF7DDFC00210420C3
:100CD000FFF7D9FC40F202210820FFF7D4FC0021E5
:100CE0000920FFF7D0FC00210A20FFF7CCFC0121EE
:100CF0000C20FFF7C8FC00210D20FFF7C4FC0021E9
:100D00000F20FFF7C0FCFA2001F001FA40F20111B8
:100D10000720FFF7B8FCFA2001F0F9F94FF48651EB
:100D20001020FFF7B0FC07211120FFF7ACFC5C4658
:100D300059461220FFF7A7FC4FF430611320FFF74C
:100D4000A2FC00212920FFF79EFC44F210012B2079
:100D5000FFF799FC00215020FFF795FCEF2151206F
:100D6000FFF791FC00215220FFF78DFC51465320E4
:100D7000FFF789FC4FF41C516020FFF784FC012130
:100D80006120FFF780FC00216A20FFF77CFC002136
:100D90008020FFF778FC00218120FFF774FC002100
:100DA0008220FFF770FC00218320FFF76CFC0021FC
:100DB0008420FFF768FC00218520FFF764FC1021E8
:100DC0009020FFF760FC00219220FFF75CFC0121DE
:100DD0009320FFF758FC21469520FFF754FC002193
:100DE0009720FFF750FC00219820FFF74CFCFA20D9
:100DF00001F08DF940F273110720FFF744FCFA204F
:100E0000ACE1E0884FF4004CA0F519414FF4407B71
:100E100019397CD106212820FFF735FC012100205B
:100E2000FFF731FC00211020FFF72DFC47F2EF21E6
:100E30000120FFF728FC4FF4C0610220FFF723FCDC
:100E400046F638210320FFF71EFC46F674011120F8
:100E5000FFF719FC00210F20FFF715FC45F20831C0
:100E60000B20FFF710FC03210C20FFF70CFC0A21DC
:100E70000D20FFF708FC4FF438510E20FFF703FC5C
:100E8000BE211E20FFF7FFFB61462520FFF7FBFB7D
:100E90004FF4F0412620FFF7F6FB78212720FFF7DB
:100EA000F2FB00214E20FFF7EEFB00214F20FFF761
:100EB000EAFB40F6D9011220FFF7E5FB00213020C4
:100EC000FFF7E1FB4FF482713120FFF7DCFB4FF4B9
:100ED00080713220FFF7D7FB40F2053421463320E2
:100EE000FFF7D1FB40F205513420FFF7CCFB214640
:100EF0003520FFF7C8FB29463620FFF7C4FB5946CB
:100F00003720FFF7C0FB4FF490513A2000E008E093
:100F1000FFF7B9FB41463B20FFF7B5FB3321072024
:100F2000E2E1E088A0F5A85105397DD10720FFF75F
:100F3000AAFB642001F0EBF84FF48E711220FFF74A
:100F4000A2FB0121A420FFF79EFB0F210820FFF741
:100F50009AFB08210A20FFF796FB08210D20FFF7D6
:100F600092FB29463020FFF78EFB07213120FFF747
:100F70008AFB40F203613220FFF785FB4C4649466D
:100F80003320FFF780FB40F202213420FFF77BFB88
:100F900002213520FFF777FB41F60F713620FFF76E
:100FA00072FB29463720FFF76EFB00213820FFF740
:100FB0006AFB00213920FFF766FB29463A20FFF73C
:100FC00062FB00213B20FFF75EFB07213C20FFF77F
:100FD0005AFB00213D20FFF756FB642001F097F8F3
:100FE00001210720FFF74FFB01211720FFF74BFBE3
:100FF000642001F08CF84FF4BD511020FFF743FB43
:1010000040F217211120FFF73EFB4FF48F711220A1
:10101000FFF739FB4FF470611320FFF734FB002119
:101020002A20FFF730FB00E09CE00A212920FFF78F
:101030002AFB4FF49F711220FFF725FB002150205F
:10104000FFF721FBEF215120FFF71DFB002152206C
:10105000FFF719FB51465320FFF715FB4FF41C51C6
:101060006020FFF710FB01216120FFF70CFB00213E
:101070006A20FFF708FB00218020FFF704FB002116
:101080008120FFF700FB00218220FFF7FCFA0021FE
:101090008320FFF7F8FA002184200BE00A0D20548A
:1010A000686973204C434420697320696C69257812
:1010B0002E000000FFF7E7FA00218520FFF7E3FA92
:1010C00013219020FFF7DFFA59469220FFF7DBFA51
:1010D00005219320FFF7D7FA00219520FFF7D3FAD7
:1010E00000219720FFF7CFFA00219820FFF7CBFAD5
:1010F0004FF480710120FFF7C6FA21460220FFF766
:10110000C2FA41F230010320FFF7BDFA00210420AA
:10111000FFF7B9FA00210C20FFF7B5FA00210F20E4
:10112000FFF7B1FA00212020FFF7ADFA00212120BE
:10113000FFF7A9FA21210720FFF7A5FA642000F0A4
:10114000E6FF61210720FFF79EFA642000F0DFFF31
:1011500040F273110720FFF796FA6420BDE8F05FB4
:1011600000F0D5BFE088B0427DD106212820FFF7EE
:101170008AFA01210020FFF786FA4AF6A4610320CB
:10118000FFF781FA04210C20FFF77DFA0C210D20D6
:10119000FFF779FA4FF420510E20FFF774FAB521CA
:1011A0001E20FFF770FA47F63F310120FFF76BFA78
:1011B0004FF4C0610220FFF766FA00211020FFF70C
:1011C00062FA46F278011120FFF75DFA002105204E
:1011D000FFF759FA00210620FFF755FA4EF61C7169
:1011E0001620FFF750FA33210720FFF74CFA0021B1
:1011F0000B20FFF748FA00210F20FFF744FA0021E7
:101200004120FFF740FA00214220FFF73CFA00217D
:101210004820FFF738FA544651464920FFF733FA81
:1012200000214A20FFF72FFA00214B20FFF72BFA6D
:101230004FF46F414420FFF726FA00214520FFF7C5
:1012400022FA21464620FFF71EFA29463020FFF7F2
:101250001AFA40F202213120FFF715FA39463220FE
:10126000FFF711FA00E043E040F202542146332038
:10127000FFF709FA611D3420FFF705FA39463520DA
:10128000FFF701FA39463620FFF7FDF921463720EE
:10129000FFF7F9F940F2023421463A20FFF7F3F95B
:1012A00021463B20FFF7EFF900212320FFF7EBF960
:1012B00000212420FFF7E7F961462520FFF7E3F935
:1012C0004FF4E0412620FFF7DEF94BF2EB0120203E
:1012D000FFF7D9F97C212720FFF7D5F900214E200F
:1012E000FFF7D1F900214F20BDE8F05FFFF7CBB940
:1012F000E188BDE8F05FF4A004F000BEFE4988601C
:10130000704710B5FFF72CFAFB49FC48886010BD08
:1013100003B5BDF80010F8484180BDF80410818085
:101320000CBDF54A5388038090880880704701B54A
:10133000BDF80000F049488008BD01B5BDF80000C7
:10134000ED49888008BDEE4900200860ED4908603D
:10135000ED4A1060ED4B22201860012010600860FB
:10136000704770B5E44A0D46D188A1F50943893B21
:1013700006D101464E20FFF786F929464F200DE0A1
:10138000D388A5F23F114C42A3F51346203E09D164
:1013900001462020FFF777F9A1B22120BDE8704077
:1013A000FFF771B9D188A1F51942193AF0D1E0E7F8
:1013B00030B50024054621462046FFF7D2FFFFF74F
:1013C000C2FFD34B0022C3F8A021CE480121016007
:1013D000CE480560CF484FF49635C0F8B821C0F824
:1013E000B811641CAC42F8D3C3F8A01130BDC64993
:1013F00000220A60C54A106001200860704710B5DD
:101400001446FFF7AEFFFFF79EFF2046FFF7EFFF02
:10141000BB490120086010BDF12809D2002907DB73
:10142000B1F5A07F04DCB44A89B280B25288E6E705
:1014300070472DE9F041FFF794FFB14F00253D6063
:10144000B04C2560B0480560B04A222111600126E9
:1014500006602660FFF7FAF8A560A660A560A660A2
:10146000AA48001F00683E6084B2FFF7FCF82046DF
:10147000BDE8F08110B5012100220846FFF7BFFF4B
:1014800001210846FFF7D5FF010002D0A2A004F019
:1014900035FD4FF6FF74012122460846FFF7AFFFE6
:1014A00001210846FFF7C5FF0146A04202D09AA0DD
:1014B00004F024FD45F65A24012122460846FFF790
:1014C0009EFF01210846FFF7B4FFA04204D0BDE80B
:1014D00010409FA004F012BD10BD2DE9F0419046D0
:1014E0000C460646FFF78BFFA6F1010C1FFA8CF0A5
:1014F00042462146FFF783FF771CB8B24246214699
:10150000FFF77DFF651EA9B242463046FFF777FF21
:10151000641CA1B242463046FFF771FFA9B21FFA20
:101520008CF04246FFF76BFFA1B21FFA8CF04246E7
:10153000FFF765FFA9B2B8B24246FFF760FFA1B25C
:10154000B8B24246BDE8F04159E710B50446FFF78E
:10155000FAFE2046FFF74BFF69490120086010BDE5
:101560002DE9F04398461646894605460024FFF7C4
:10157000F8FE0127DFF880C1B8F1000F1CD1FFF79A
:10158000E2FEBCF80200FFF732FF012000226149B1
:1015900004E0C1F8B821C1F8B871401CB042F8D3DA
:1015A0000CE0BCF80200FFF7D0FF6D1CADB249465D
:1015B0002846FFF7D6FE641CB442F2D350480760B9
:1015C000BDE8F08330B505460C46A1F10F0081B2AD
:1015D00000231E222846FFF7C3FF0F3DA8B2214675
:1015E000BDE8304001231E22BAE7F0B51E4614467E
:1015F0000F46054600233246FFF7B2FF281980B296
:10160000002332463946FFF7ABFF01232246394615
:101610002846FFF7A5FFB819401E81B2224628468A
:10162000BDE8F04001239BE72DE9F04F8046032001
:101630008C46A0EB420600241546C7E00CEB050BD8
:1016400008EB04091FFA8BF11FFA89F0FFF789FEF6
:10165000294F7888FFF779FFACEB050A1FFA8AF16A
:101660001FFA89F0FFF77DFE7888FFF76EFFA8EB81
:1016700004091FFA8BF11FFA89F0FFF772FE7888D0
:10168000FFF763FF1FFA8AF11FFA89F0FFF769FE7F
:101690007888FFF75AFF0CEB040B08EB05091FFADB
:1016A0008BF11FFA89F0FFF75CFE7888FFF74DFF9A
:1016B000ACEB040A1FFA8AF11FFA89F0FFF751FE1A
:1016C0007888FFF742FF61E00A0D202323232323BC
:1016D00023204572723A20556E6B6E6F77204465F9
:1016E000766963654964436F6465203078257820A6
:1016F0002323232323232000E0440020AC440020A4
:10170000A0012242B4812242B88121420C1801403A
:1017100000002242008021420D0A204572723A20C8
:101720004C43445F536574506F696E7428312C319B
:101730002C30783029204C43445F476574506F69E2
:101740006E7428312C31293D307825303458000012
:101750000D0A204E6F74653A204C4344205772693D
:101760007465206F7264657220697320522D472D55
:10177000422C206275742052656164206F7264652A
:101780007220697320422D472D520000A8EB0509F5
:101790001FFA8BF11FFA89F0FFF7E3FD7888FFF756
:1017A000D4FE1FFA8AF11FFA89F0FFF7DAFD788874
:1017B000FFF7CBFE002E03DA06EB8406B61D04E02D
:1017C000601B06EB80060A366D1E641CAC427FF679
:1017D00035AFBDE8F08F2DE9F847144698468946A5
:1017E0000546FE4E7788D2B2FFF7FFFEA41E1FFA11
:1017F00084FAA8F1010084B209F101001FFA80F80F
:10180000B088ADF80000BDF80000708007E06D1CE6
:10181000ADB20023524641462846FFF7A1FE200004
:10182000A4F10104A4B2F2D1ADF80070BDF800003B
:101830007080BDE8F8872DE9F74F0746E7488946ED
:1018400082B04188019104990322A2EB41060D4622
:1018500081880024ADF80010BDF8001041804FF6DB
:10186000FF7B35E09DB10BEA4502A9EB050A381B69
:1018700090461FFA8AF180B20023FFF771FE3819F3
:1018800042461FFA8AF180B20023FFF769FE9CB13D
:101890000BEA4402A9EB040A781B90461FFA8AF16E
:1018A00080B20023FFF75CFE781942461FFA8AF1E6
:1018B00080B20023FFF754FE002E03DA06EB840605
:1018C000B61D04E0601B06EB80060A366D1E641C24
:1018D000AC42C7D90198ADF80000BDF80010BF4870
:1018E0004180049A05B049463846BDE8F04F9BE672
:1018F0002DE9FC4F84460027A2EB0C000C46002883
:1019000001DCACEB020001B2181B002800DCE01A7D
:1019100000B20FFA8CF625B24FF0FF38624503D3C0
:101920004FF0010BDA4601E0C346DA46A34203D387
:101930004FF00109C84600E0C14681424FF0000265
:1019400009DB9346904601EBD17252108C4614B2DB
:10195000CDE9000124E0924600EBD072CDE9001001
:1019600052104FF00009844614B219E0294630465F
:10197000FFF752FD0098204404B2644508DBA4EB55
:101980000C0004B206EB0B0006B205EB090005B231
:1019900006EB0A0006B205EB08007F1C05B23FB259
:1019A00001988742E2DDBDE8FC8F30B50D46044664
:1019B00002290DD308E020886188241D89B263883C
:1019C000228880B2FFF794FF6D1E2D042D0CF2D1FA
:1019D00030BD2DE9F04391460F460446804602296A
:1019E00025D3B4F90060B4F9025010E0241DA9B267
:1019F0006088284483B22088304482B2B0B2FFF7B6
:101A000077FF2088304406B26088284405B27F1EE4
:101A10003F043F0CEAD1B9F1000F08D0ABB2B2B22B
:101A2000B8F80210B8F80000BDE8F04360E7C7E579
:101A300030B50D460446FFF7B8FF04EB8500001FE4
:101A40006188438802882088BDE8304050E7002242
:101A5000BFE70122BDE72DE9F34FB0F80080E7B002
:101A600043880446C1460120659313E004EB8001DE
:101A70004A884A4500D29146424500D9904634F8FA
:101A80002010994200D20B46659A914200D9659187
:101A9000401C80B268998842E8D350488188ADF8EC
:101AA0009011BDF8901141809A46ADE000266898EB
:101AB0003546401E87B248E0504604F087FC834616
:101AC0006491669134F9250004F069FC5A46669BDE
:101AD00004F090FC0AD26499669134F9270004F06E
:101AE0005EFC5A46669B04F00FFD13D9649966911B
:101AF00034F9270004F053FC5A46669B04F07AFC44
:101B000020D234F9250004F04AFC5A46649B04F0C4
:101B1000FBFC17D804EB8700B0F9021004EB85003A
:101B2000B0F902000A1A34F92510AAEB01035A434E
:101B300034F92730591A92FBF1F108442DF81600B8
:101B4000761CB6B22F466D1CADB268988542B3D3F1
:101B50000020771E0DE06D4605EB40033DF81010A8
:101B60005A88914209D925F81020598008B1401EA1
:101B700080B2B842EFDB002540E0401CF8E73DF8BA
:101B800015006A4640453BD202EB45077988494536
:101B900032D9484501D222F81590414501D9A7F81C
:101BA0000280DFF838B0BBF80400ADF89001BDF852
:101BB0009011ABF80210798832F815000023081A4A
:101BC00082B25046FFF7CCFCBBF80200ADF89001A2
:101BD000BDF89011ABF8021002E00000E0440020D4
:101BE000B7F902100FFA8AF00746FFF715FC3DF926
:101BF00015103846FFF710FCAD1CADB2B542BED390
:101C00000AF101001FFA80FA65988245FFF44EAF91
:101C1000FA484188ADF89011BDF89011418069B043
:101C2000D7E5F74B00211960F64A1160F64A1160BA
:101C3000F6490860012010601860704770472DE970
:101C4000F04F9A4691468B4607460026DFF8AC8354
:101C5000099C1EE059463846FFF783FBFFF773FBEC
:101C6000802314F801CB00250EE013B914F801CB42
:101C700080231CEA030F404601D0408800E08088A2
:101C8000FFF7B5FB5B086D1C4D45EED37F1CBFB263
:101C9000761C5645DED39CE518B554889388921D72
:101CA00000922246FFF7CBFF18BD2DE9F043002438
:101CB00098461746894606462546DDF81CC012E0C0
:101CC00049463046FFF74DFBFFF73DFB002305E09B
:101CD0003CF81400FFF78BFB641C5B1CBB42F7D382
:101CE000761CB6B26D1C4545EAD369E4F8B5967921
:101CF0005588938802F10804012E02D15278102AE7
:101D000004D0BDE8F840C2A004F0F8B82A46009418
:101D1000FFF7CBFFF8BD2DE9F74FC0B20026814693
:101D20000199FFF71EFB4FF0800BDFF8D082FFF721
:101D30000AFB002506EB460A019800240AEB050C75
:101D400000EBC507029810F80C102BFA04F00142C2
:101D5000404601D040880BE0017841B13819401C61
:101D600081B24846FFF7FDFAFFF7EDFA02E08088FE
:101D7000FFF73DFB641C082CE4D36D1C032DDBD363
:101D80009F490120086009F10100C0B28146019914
:101D9000FFF7E7FA761C182EC9D3BDE8FE8FF0B521
:101DA0000024AB4D0746042604EBC40005EBC0023B
:101DB00004EB440006EBC00081B23846FFF7ABFFEE
:101DC000641CA4B20D2CEFD3F0BD8C488068704722
:101DD0008A490870704770B500242146FFF7C1FAA0
:101DE000FFF7B1FA9B4E0022C6F8A02185480121D9
:101DF000016082488388854D2B60974B856805E09C
:101E0000C3F8B821C3F8B811641CA4B2687800EB19
:101E10008000B4EB801FF3D3C6F8A01170BD2DE98C
:101E2000F74FC0B29346002681460199FFF799FA11
:101E3000B446DFF8C8813DE0FFF785FAA068A04608
:101E4000047829E0082C01D3082700E02746002564
:101E50004FF0800A1DE01BF806102AFA05F0014237
:101E6000404601D0408810E0017869B1D8F80800F8
:101E70000078011B01980844401C81B24846FFF7D6
:101E800070FAFFF760FA02E08088FFF7B0FA641E8C
:101E90006D1CBD42DFD3761C002CD3D158490120E4
:101EA000086009F10100C0B281460199FFF759FAB3
:101EB0000CF1010CD8F80800444640786045BBD8C6
:101EC0006BE7203AD3B24D4A10B4926854689278C6
:101ED00003FB024210BCA2E72DE9F0410D4680460B
:101EE0000024464E4FF4A0770BE021464046FFF712
:101EF000E8FFB068007801198CB22044B84203D8DA
:101F00006D1C2A78002AF0D1BDE8F0812DE9F0415E
:101F100015460C468046394E4FF4A0770BE021461B
:101F20004046FFF7CEFFB068007801198CB220441C
:101F3000B842E9D86D1C2A78002AF0D1E4E72DE9EF
:101F4000F04385B000261421684604F029F92B4F90
:101F500042A1B86843780278684603F0DBFF4FF689
:101F6000FF794846FFF724FA69460020FFF7B4FFDF
:101F7000B8684FF4A07845786D1C2024E2B2314651
:101F80002846FFF79EFFB86801788A19521C96B25E
:101F90003144414515D9407800264119491C8DB27C
:101FA0004119F0290DD9451C7F2C0AD84FF47A70BD
:101FB00000F0ADF84846FFF7FBF969460020FFF74F
:101FC0008BFF641CA4B27F2CD8D905B02FE52DE976
:101FD000F0410A4D0024244F4FF47A78AE6806E0B1
:101FE000A860FFF7ACFF404600F091F8641C57F87A
:101FF00024000028F4D1AE6086E70000E044002011
:10200000A0012242B4812242B88121420C18014031
:102010000A0D204C43445F496D616765324C63642F
:1020200044726177426D703536355069633A204E9F
:102030006F7420496D616765324C6364206F722054
:10204000426D7035363520666F726D61742E0000FA
:102050000C7F0008000022420080214253495A456B
:102060003A25645825640000C444002000F027BFCE
:1020700000F059BF80B201F075BD324810B500784C
:10208000012807D100F0E7FE00F07BFFBDE810401B
:1020900000F0EBBE10BD10B56FF0040000F053F976
:1020A00029484FF47A7201682848B1FBF0F12848BA
:1020B00001705143012242804FF0E020026942F05A
:1020C000020202614161016941F00101016110BD3B
:1020D0002DE9F0414FF0E02700247E691C49097882
:1020E00000FB01F500F0EBFEB969B8698842FCD04D
:1020F00002D2A1EB000102E0A6EB000211440C4465
:102100000146AC42F1D3BDE8F04100F00CBF70B520
:1021100004460C48007878B10E48007860B90C4D40
:102120006888844203D3B4FBF0F0FFF7A3FF68880C
:10213000B4FBF0F100FB11444FF47A706043BDE84A
:102140007040C5E7114500200000002000127A0011
:10215000EC4400200C450020704745490A8852068F
:10216000FCD5434AC1B2121D1180704770B50546B7
:10217000012186B0480400F08AFB0121212000F0F3
:102180007DFB0121082000F0D3F92020ADF81000DC
:1021900003248DF812401820364E8DF8130004A940
:1021A000304600F03CF94020ADF8100004208DF8D6
:1021B000130004A9304600F032F926208DF81400EF
:1021C0008DF815408DF8164001208DF8170005A8F0
:1021D00000F07BF80020ADF80400ADF80600ADF883
:1021E0000800ADF80C000C20214CADF80A00009559
:1021F0006946204600F0D0FB012240F225512046DE
:1022000000F04CFC0121204600F03EFC06B070BD01
:1022100070B500F020FE164C40F22551204600F02B
:10222000F4FCE0B1204600F089FC134AC1B21088EA
:10223000030414D444044FF0000304D50A290DD13B
:1022400040F4004011E00D290DD0C0F30D040B4DFA
:10225000401C80B229551080C72800D91380BDE8E2
:10226000704000F002BE40F480401080F7E70000AC
:102270000044004000140140F0440020A45B002012
:102280000948804709480047FEE7FEE7FEE7FEE70A
:10229000FEE7FEE7FEE7FEE7FEE7FEE70448054946
:1022A000054A064B704700000F0500085101000861
:1022B0002865002028710020286900202869002056
:1022C0002749084327490860704770B50F23C27833
:1022D000017801244FF0E025DAB1224A126802F4B5
:1022E000E062C2F5E062120AC2F10406D34042780D
:1022F000B24086781E401C4B16433201CA54007807
:1023000000F01F018C40400905EB8000C0F800413F
:1023100070BD01F01F008440480905EB8000C0F843
:10232000804170BD114A114001430E48001F0160F9
:1023300070470C4A121D0029116801D0014300E0CA
:102340008143116070474FF0E0210428086903D0F1
:1023500020F004000861704740F00400FAE7000034
:102360000000FA050CED00E000E400E080FFFF1F34
:102370008E4910B5884206D10121042000F099FA57
:10238000002104203BE08A49884206D1012108202F
:1023900000F08FFA0021082031E08649884206D1FA
:1023A0000121102000F085FA0021102027E0824949
:1023B000884206D10121202000F07BFA0021202054
:1023C0001DE07E49884206D10121402000F071FACB
:1023D0000021402013E07A49884206D10121802063
:1023E00000F067FA0021802009E0764988420AD18E
:1023F00084150121204600F05CFA00212046BDE84A
:10240000104000F056BA10BD10B50121084600F08A
:1024100050FA0021BDE81040012000F04ABAF0B5A2
:10242000CC78002204F00F03E40601D58C78234316
:102430000C784FF00F0C4FF0010EDCB105680E88E0
:102440000EFA02F42640A64210D196000CFA06F7C6
:1024500025EA070703FA06F5CE783D43282E02D079
:10246000482E02D002E0446100E00461521C082AB8
:10247000E5D305600A88FF2A1CD94468002202F1CE
:1024800008060EFA06F50E882E40AE420ED19600D2
:102490000CFA06F7BC4303FA06F7CE783C43282E25
:1024A00000D14561CE78482E00D10561521C082A22
:1024B000E5D34460F0BD4FF6FF71018002218170C9
:1024C0000421C17070470246002092680A4200D081
:1024D00001207047806880B2704702460020D268B1
:1024E0000A4200D001207047C06880B27047016185
:1024F0007047416170470AB101617047416170479F
:10250000C160704741F4803282618161826181697A
:10251000806970472C4B10B51A684FF680742240C2
:1025200042EA00100843186010BD2849C86170478E
:10253000F0B5254C002801DAE36900E06368450D39
:102540002E0185B2C0F30157B540C0F30342032FFB
:1025500005D0C6020AD503269640B34307E023F010
:102560007062636823F07063636002E0AB4343F022
:10257000706201B12A43002801DAE261F0BD6260B5
:10258000F0BD10B58A0721F003040F49120F214452
:102590000F238C6893409C438C608B68904003436E
:1025A0008B6010BD0949DC310860704700080140AC
:1025B000000C0140001001400014014000180140CF
:1025C000001C0140002001400000014000002042AA
:1025D000CE48016841F0010101604168CC4A1140D8
:1025E00041600168CB4A11400160016821F48021FB
:1025F0000160416821F4FE014160016821F0A051B1
:1026000001604FF47F0181600021C1627047BF49C2
:102610000A6822F480320A600A6822F480220A6082
:10262000B0F5803F07D0B0F5802F03D1086840F4A3
:10263000A02008607047086840F48030F9E703463E
:1026400000205909B14A01290AD002290AD0516A49
:1026500003F01F02012393400B4200D0012070477A
:102660001168F5E7116AF3E718B500204FF4A0648C
:1026700000903120FFF7E3FF0099491C0091A1422F
:1026800001D00028F5D03120FFF7D9FF002800D075
:10269000012018BD9D4A116821F0F80141EAC000EF
:1026A000106070479C4908607047984B5A6808430F
:1026B00022F47412104358607047974908667047B7
:1026C000924B10B5DA6A954C084322401043D86209
:1026D00010BD8E4AD16A21F0F0010143D1627047EA
:1026E0008A4AD16A21F470610143D16270478A49F4
:1026F00088667047854AD16A21F470410143D162EE
:102700007047854908677047804A516821F0030186
:102710000143516070477D48406800F00C007047ED
:102720007A4A516821F0F001014351607047774ABD
:10273000516821F4E061014351607047734A516868
:1027400021F4605141EAC000506070476F4A00298F
:10275000517A01D0014300E08143517270476E49C4
:10276000D83108607047694A516821F440410143FB
:10277000516070476A49086070476949091D0860DF
:1027800070476249002281F8202081F8202001282A
:1027900002D0042802D1052081F820007047614949
:1027A0000860704759490A6A02430A6270475D49E6
:1027B000443908607047F0B5544B59685A4A11F0D3
:1027C0000C014FF00F0604D0584C042903D00829FF
:1027D00003D0026028E0046026E059685A6806EADF
:1027E000914102F480320D2901D0891C00E00621BC
:1027F000BAB1DA6A12F4803FDA6A02F00F0202F12B
:1028000001020AD0DD6AC5F30317DD6A7F1CB4FB41
:10281000F7F4C5F30325AD1C6C43B4FBF2F24A4355
:10282000D7E7434A514301605968424A06EA111109
:10283000545C0168E14041605C68072505EA1424A6
:10284000145D21FA04F484605C6805EAD424125D06
:10285000D140C1605A68032303EA9232354B1B1FF3
:102860009A5CB1FBF2F10161F0BD284A002951697F
:1028700001D0014300E0814351617047234A0029A0
:10288000916901D0014300E08143916170471F4A83
:102890000029D16901D0014300E08143D161704733
:1028A0001A4A0029916A01D0014300E081439162F4
:1028B0007047164A0029D16801D0014300E08143E6
:1028C000D1607047114A0029116901D0014300E02D
:1028D00081431161704713494039086070470E49C0
:1028E000C86470470949C87170470848416A41F097
:1028F000807141627047054A0146002092680A4291
:1029000000D00120704701498872704700100240D2
:102910000000FFF0FFFFF6FE00004242F0FFFEFF66
:10292000C40542428004424200127A0040787D0190
:1029300000093D00FC440020C64910B588420AD178
:1029400001218C032046FFF7B4FF2046BDE810406C
:102950000021FFF7AEBFC049884202D101214C04DB
:1029600010E0BE49884202D101218C040AE0BC4932
:10297000884202D10121CC0404E0BA4988420AD13C
:1029800001210C052046FFF79DFF2046BDE81040C1
:102990000021FFF797BF10BD30B50446008A85B00F
:1029A0000D464CF6FF710840E98801432182A08959
:1029B0004EF6F3110840A9882A8911436A89024317
:1029C0001143A181A08A4FF6FF410840A989014324
:1029D000A1826846FFF7EFFE9E48844201D103982A
:1029E00000E00298A1890904002900EBC00101EB75
:1029F0000010296802DA4FEA410101E04FEA810143
:102A0000B0FBF1F06422B0FBF2F14FEA01114FEAA2
:102A100011136FF018056B4300EB8300A3891D04AD
:102A20004FF0320306D503EBC000B0FBF2F000F02C
:102A3000070005E003EB0010B0FBF2F000F00F0020
:102A40000843208105B030BD4FF4165101600021CC
:102A50008180C18001810C2242818181704710B543
:102A6000028A4FF2FF031A400B884C8823438C885C
:102A7000C9880C4323431343038210BD0021018006
:102A800041808180C18070470029818902D041F452
:102A9000005101E021F400518181704710B5C1F36C
:102AA000421301F01F040121A140012B07D0022B8A
:102AB00007D01430002A026805D00A4304E00C3025
:102AC000F8E71030F6E78A43026010BD002A828AD8
:102AD00001D00A4300E08A4382827047028A22F0D2
:102AE0000F020282028A0A4302827047828922F41C
:102AF0000062828182890A4382817047002981892C
:102B000002D041F0020101E021F002018181704711
:102B1000028A22F020020282028A0A43028270475D
:102B20000029018A02D041F4804101E021F4804172
:102B300001827047C1F30801818070478088C0F32B
:102B400008007047818941F0010181817047028B43
:102B5000D2B20283028B42EA012101837047028BC9
:102B600002F47F420283028B0A43028370470029EA
:102B7000818A02D041F0200101E021F02001818210
:102B800070470029818A02D041F0100101E021F054
:102B90001001818270470029818A02D041F008012A
:102BA00001E021F00801818270470029818902D06B
:102BB00041F4004101E0C1F30E0181817047002919
:102BC000818A02D041F4006101E021F40061818238
:102BD0007047828A22F004028282828A0A438282B9
:102BE00070470029818A02D041F0020101E021F002
:102BF0000201818270470246002012880A4200D0FA
:102C000001207047C9430180704770B501F01F056E
:102C100001260024C1F3421306FA05F2012B0FD05E
:102C2000022B0FD0838A4FEA11210088134206FA43
:102C300001F600EA060001D000B10124204670BD73
:102C40008389F0E7038AEEE70A0A01219140C9432C
:102C500001807047003801400044004000480040B7
:102C6000004C004000500040002204E0491C521C6F
:102C700000F8013BD2B20B78002BF7D10021017094
:102C8000104670472DE9F0410546FF480E461446B0
:102C9000007808B1112009E0287801280AD002281C
:102CA00008D0032806D0042804D00120107000208A
:102CB000BDE8F08100F098FF074605F10F013046AE
:102CC000FFF7D2FF0546384600F092FF0020207043
:102CD0002846EDE70146002002E0491C401CC0B236
:102CE0000A78002AF9D170472DE9F0410546E648F7
:102CF0000E461446007808B1122009E02878012811
:102D000008D0022806D0032804D0042802D00120CD
:102D10001070CDE700F068FF07463046FFF7DAFF96
:102D20001F2804D9384600F063FF0B2008E0314625
:102D300005F10F00FFF798FF384600F059FF00201B
:102D40002070B5E7D04C00F04FFF6169491C61610C
:102D500000F04EFF00F09EFFF5E7002203E0491E61
:102D600000F8012B89B20029F9D1704730B587B03E
:102D700000F08CFFC44B00249C621C705C709C7142
:102D80005C719C605C611C7103F110012046401C69
:102D9000C0B201F8014B0428F9D39C70DC701C62AE
:102DA0004FF46771B9489C61FFF7D7FFB74880219E
:102DB0008038FFF7D2FFB548002200F154013F25CB
:102DC000416180F8445080F84540521C54305431E1
:102DD000D2B20A2AF4D3446180F8445080F84540C6
:102DE000AA485C62D8614FF4F071A0F58C60FFF7DF
:102DF000B4FFA748002200F1300104704160C573A0
:102E00000474521C3030303192B2092AF5D3047068
:102E10004460C57304749E48D86000F066FC80214D
:102E200003200291CDE903409A4A4FF6FF70CDE9A5
:102E300000021F2302F5FE720021AFF2F70000F03E
:102E4000ADFC05AA94A11F2000F0C5FD07B0BDE8A8
:102E5000304000F01CBF8C494879012804D1087823
:102E6000FF2801D2401C0870704770B5864C60790D
:102E7000012823D100F0B8FE0546207820B1401E7D
:102E800010F0FF00207014D1607890B900F0ADF917
:102E9000E078A17888420CD07C49803951F8201024
:102EA0002162086B401C0863A068401CA06000F011
:102EB000B7FE2846BDE8704000F09ABE70BD10B560
:102EC000714C607901280CD100F08EFE217821B977
:102ED0006178FF2901D2491C6170BDE8104000F003
:102EE00087BE10BD70B500F07FFE674C05462078A8
:102EF000A0B9607890B900F078F9E078A1788842BC
:102F00000CD06249803951F820102162086B401CB6
:102F10000863A068401CA06000F07DFE2846BDE864
:102F2000704000F065BE10B5574C6079012813D190
:102F300000F05AFE617831B1491E11F0FF01617055
:102F400001D1217819B1BDE8104000F051BE00F068
:102F50004FFEBDE81040C5E710BD10B54A4C607982
:102F600000280DD100F041F94849E0788039A0707F
:102F700051F820002062A061BDE8104000F03BBE87
:102F800010BD70B500F030FE3F4DA96A491CA96222
:102F900000F02EFE6879012831D16C6A2BE000F038
:102FA00023FEA18C21B3A1F101010904090CA18424
:102FB0001ED194F8261011F0370F05D021F03701FB
:102FC00084F82610012100E0002184F8271094F8ED
:102FD000261009070CD42A342A79A17811432971C3
:102FE000294A217810326678535C2A3C3343535483
:102FF000646900F0FDFD94F828001F28CFD170BD52
:103000004FF48F707047704710B590F82A2090F8F1
:103010002B408B18DA7AA243DA7204D18A7A90F8BC
:103020002C0082438A7210BDF0B50E460146847AA8
:103030001D484FF00007045D01EB0405ED7A405D8B
:1030400000EBC400C5B21148A0F1800050F8250083
:1030500000F1200087800660867926EA02068671E4
:10306000C371A0F1200032070BD4074A90F82C302E
:10307000167933431371103290F82B60135D33438C
:103080001355FFF7C1FF11E00C450020CC60002074
:103090006C5C00204C5E002075432F4F532D494936
:1030A0002049646C65000000B48200082846F0BD29
:1030B00030B5544C00F10B02A16941F81C0F8B7B19
:1030C000C97B9D5C0D439D54A169827A2A318B781E
:1030D0001A438272087804F110034D781A5C2A3979
:1030E000AA431A5404D191F82C10207988432071F6
:1030F00030BD002282720B301146491CC9B200F863
:10310000012B0429F9D3704705E011F8013B521E49
:1031100000F8013B92B2002AF7D170472DE9F05F29
:103120009846DDE90ABA91460D46064600F05CFD78
:10313000344FFC69002C54D010346168F96100F000
:1031400057FD44F8105C26760025A575E575A58227
:1031500044F804BC44E903A90C982080A4F8028038
:10316000F0086577A076012306F0070103FA00F264
:103170006176227703FA01F2E276E5602561256245
:10318000A5626562E5623F20256384F8340084F817
:103190003550103C204600F0B9FD204600F078FD87
:1031A00000F022FD0146184840F82640786AC4E93C
:1031B000050500B184617C622A343A79A078104315
:1031C0003871104A207810326478135C234313540A
:1031D000B879401CB871084600F00AFD0020BDE82F
:1031E000F09F00F005FD4220F9E70649074A01F18A
:1031F00010030879105C1B5CD25C02EBC000C87045
:10320000704700000C4500204C600020B48200088C
:1032100070B5054600780C46022803D001200870DE
:10322000002070BD00F0E0FC6A680346D08A70B1EF
:103230001169081D10610D68D18A491ED1829168FB
:10324000884201D1506810610020207002E01F20E8
:1032500020700025184600F0CBFC284670BD2DE9F3
:10326000F0410646F8488846007810B10020BDE8D5
:10327000F08100F0B9FCF54F3C680CB16168396031
:1032800000F0B6FC1CB300F0AFFCF1490D68C5B10D
:103290002A680A6000F0ACFC06EB8800C5E9016012
:1032A000EE602E61A5F814800020E88202212170D2
:1032B00020813F216560E17320742046FFF719FFEC
:1032C00005E0396861603C6000F092FC0024204613
:1032D000CDE72DE9F05F04460078884615460228C0
:1032E00001D0012003E0D848007810B10F20107001
:1032F0001FE000F079FC0746A07A08B1012600E043
:1033000000265FEA0800DFF84893DFF840A34FF09B
:103310003F084FF0000B06D001282CD0384600F0B3
:1033200067FC072004E03EB1384600F061FC49200C
:1033300028702046BDE8F09F84F80F8084F810B014
:103340006068D9F800205E460260C9F8000084F881
:1033500000B0DAF800106160A4F808B03846CAF886
:10336000004000F045FC2E7025E0002304221946A1
:103370002046FFF759FEA07A0028F6D184F80F8086
:1033800084F810B06068D9F80030D8460360C9F8F6
:10339000000084F800B0DAF800206260A4F808B0F9
:1033A0003846CAF8004000F023FC012E01D1FFF797
:1033B00099FD85F800800020BCE710B5044600F0B8
:1033C00013FC61684A68CA600A610022CA8200F080
:1033D0000FFC002010BD2DE9F04706460078894615
:1033E0001446022801D0012008E09748007808B16F
:1033F000022003E09748007820B10D2010700020D3
:10340000BDE8F08700F0F0FB054670680027C18A30
:1034100089B10269111D01611668C28A521EC282F9
:103420008268914201D141680161284600F0E0FBC9
:1034300027703046E4E7DFF82082D8F8000010F863
:10344000261F41F004010170477020F8029C3046AD
:10345000FFF72EFE284600F0CBFBFFF743FD00F000
:10346000C3FB8146D8F8000090F8271039B1022933
:1034700008D03146FFF7C8FD00250A2004E0056AA0
:10348000277002E000250E202070D8F800001C30C4
:103490008772C77207604760484600F0A9FB28465C
:1034A000AEE72DE9F0410F460546017801201646AA
:1034B000022901D0107028E000F096FB8046A87A1F
:1034C000F0B10024012F0FD002230422002128464E
:1034D000FFF7AAFD0124404600F08AFBFFF702FD3A
:1034E0000E2030702046C2E6022304220021284626
:1034F000FFF79AFD641CA87AE4B20028F4D1EAE749
:10350000404600F075FB002030700020AFE670B53B
:10351000044600780E46022801D0012070BD00F05C
:1035200063FB0546A07A58B10023042231462046A9
:10353000FFF77AFD284600F05BFBFFF7D3FC19E0AC
:103540006068C18A828A914204D3284600F050FB09
:103550001E2070BDC1680A1DC2600E60C18A491C70
:10356000C182D0E902128A4201D14168C160284675
:1035700000F03EFB002070BD70B5044600780E469A
:10358000022801D0012070BD00F02EFB0546A07A74
:1035900058B10023042231462046FFF745FD284656
:1035A00000F026FBFFF79EFC18E06068C18A828A63
:1035B000914204D3284600F01BFB1E2070BD4268D8
:1035C0000169914201D181680161091F01610E60A9
:1035D000C18A491CC182284600F00AFB002070BD48
:1035E0002DE9F0410746007814460D46022801D027
:1035F00001203CE600F0F8FA0646B87AD0B1E007C0
:1036000009D00023042229463846FFF70DFDB87A79
:103610000028F6D105E00023042229463846FFF7AA
:1036200003FD304600F0E4FA600701D4FFF75AFCCE
:1036300000201CE67B68D88A998A88420ED33046DF
:1036400000F0D6FA1E2012E60C4500201845002096
:10365000384500200D45002024450020A00709D54D
:1036600059681869884201D198681861001F18616B
:10367000056009E0D868011DD9600560D3E9020141
:10368000814201D15868D860D88A401CD88230461F
:1036900000F0AEFACCE72DE9F041074600780E467F
:1036A000022801D00120E2E500F09EFA0146B87A36
:1036B000307307F10B0406F108050020401C14F8D4
:1036C000012BC0B205F8012B0428F7D37868C28A11
:1036D0000AB1026912683260C28AB280808AF080C0
:1036E000084600F085FA0020C1E510B560210A48BF
:1036F000FFF733FB0848002200F1180140F8181BBF
:10370000521C183192B2032AF8D3002101600349F8
:103710000148086010BD00006864002038450020A2
:103720002DE9FE431C4616460F46804600F05CFA23
:10373000F749097821B100F05BFA3C20BDE8FE832F
:10374000F44D55F8241019B100F052FA2820F5E78D
:10375000012145F8241000F04BFA00233246394687
:10376000404600F099FA002601460096019633463D
:10377000324620460296FFF7D1FC070007D000F042
:1037800033FA45F8246000F033FA3846D6E7E248C9
:1037900000780128F9D1FFF7A5FBF6E72DE9FF4FE7
:1037A00083B01C46DDE91376DDE911A891468B460E
:1037B00000F01AFAD649097829B100F019FA3C202C
:1037C00007B0BDE8F08FD34D55F8241019B100F0C3
:1037D0000FFA2820F4E7012145F8241000F008FA38
:1037E00033464A465946039800F056FACDF8008011
:1037F000CDE90176014652462046109BFFF78EFC2C
:10380000060008D000F0F0F9002145F8241000F07F
:10381000EFF93046D4E7C04800780128F9D1FFF726
:1038200061FBF6E72DE9F0470546B948007810B18D
:103830004020BDE8F0871F2D05D000F0D5F90646E1
:10384000FF2D02D005E03E20F3E7B448006890F871
:103850002850DFF8C09259F825405CB1012C0ED0F9
:1038600094F82A10AE4A94F82B30505C9843505488
:103870000AD00FE0304600F0BBF94320D9E73046CC
:1038800000F0B6F93D20D4E7A64894F82C20017842
:1038900091430170E16911B12046FFF7B5FB4FF08C
:1038A0000008A4F82480A04F84F8268084F827809C
:1038B0003878FF2801D2401C3870304600F098F963
:1038C000FFF7A1FB00F090F90646387808B1401EDA
:1038D0003870204600F0DDF994490878401E0870E1
:1038E00049F82580A0694146A0B162694261D4E9E6
:1038F000050282618E480268626104603F2004F81C
:10390000440F3046617000F073F983480078012855
:1039100006D007E06069874A816160691060E9E765
:10392000FFF7E0FA002084E710B504461F2810D006
:10393000FF2C10D000F058F9764951F82410A1B1AD
:10394000012916D03F2281F82D2000F051F90020E6
:1039500010BD3E2010BD00F047F97049096891F88C
:103960002D4000F045F9204610BD00F041F94320FC
:1039700010BD00F03DF93D2010BD2DE9F041064697
:1039800063480F461446007810B11120107020E0F3
:1039900000F02AF90546FF2E03D16048006890F830
:1039A00028605C4850F82610432671B101290CD0DC
:1039B00044313846FFF758F90646284600F018F912
:1039C000002020703046BDE8F081284600F010F954
:1039D00026700020F7E72DE9F04105464C4888465F
:1039E0001446007810B112201070ECE700F0FCF8DB
:1039F0000646FF2D03D14948006890F828504548F5
:103A0000432750F825505DB1012D09D04046FFF7FE
:103A100061F90F2809D9304600F0EAF841200DE09D
:103A2000304600F0E5F82770CDE7414605F1440047
:103A3000FFF71AF9304600F0DBF800202070C2E7EB
:103A400010B5044600F0D0F8324951F8241059B1AD
:103A500001290DD091F82620130728D532F008024D
:103A600081F8262008D009E000F0C2F8462010BDF9
:103A700000F0BEF8432010BD8A8C1AB100F0B8F8EF
:103A8000002010BD274B2A318A781C7822431A70F7
:103A90000A78234B49789C5C0C439C5400F0A8F8AE
:103AA0001D4800780128EBD1FFF71CFAE8E700F089
:103AB0009FF8442010BD70B5044600F095F801460B
:103AC0001648FF2C006805D090F82800A04204D1C9
:103AD000012503E090F82840FAE700250D4850F84A
:103AE000240058B101280ED090F82A200C4C90F8F0
:103AF0002B60A35CB343A3541ED023E0084600F020
:103B000077F8482070BD084600F072F8432070BD79
:103B10000C4500204C600020114500202445002069
:103B20001C450020104500200D45002012450020B6
:103B30002845002030450020094A90F82C40137891
:103B4000A343137010F8262F42F0080202700846B3
:103B500000F04EF8012D01D1FFF7C4F90020D6E79F
:103B60001045002070B504461A48007800281DD181
:103B7000002C1BD000F038F803461748174D016899
:103B800091F82A2091F82B60A85CB043A85405D185
:103B9000134891F82C500278AA4302708C8418467E
:103BA00000F026F8BDE87040FFF79CB970BD10B575
:103BB00000F01AF80B490C6800F01AF8204610BD06
:103BC00010B5044600F010F806490C60BDE810403E
:103BD00000F00EB80C450020244500201C450020B4
:103BE0001045002034450020EFF3108072B6704776
:103BF00080F3108870471D484FF0FF0101700020CE
:103C000080F309881A48012101701A484FF0805149
:103C1000016062B6FEE717484FF0805101607047BF
:103C200014484FF080510160704772B6EFF309807D
:103C300028B1203880E8F00F0F490968086000B506
:103C40000E4880475DF804EB0D480E490A78027073
:103C500009480D490A680260106890E8F00F2030AA
:103C600080F309884EF0040E62B6704722ED00E042
:103C70001145002004ED00E0244500200B3D000824
:103C80000E4500200F4500202C450020704770474E
:103C900070477047704770474FF080731360131F71
:103CA0001860A2F108006FF001030360001F4FF0DD
:103CB00012330360001F4FF003330360001F4FF007
:103CC00002330360001F5B100360001F0160001FD0
:103CD0004FF011310160001F19010160001F4FF00A
:103CE00009310160001FD9000160001F4FF007314A
:103CF0000160001F4FF006310160001F4FF00531D9
:103D000001609900001F0160704770477047000014
:103D100001608280C380042101844184521F828417
:103D20005B1FC3848283C383012180F8381080F82D
:103D300039100023FE49036341646FF07F41C0E9FD
:103D40000F13036143611946836100EBC102491CF3
:103D5000D364C9B282F850300229F6D3F54908601D
:103D600001207047F349086001207047F14902685B
:103D700009680A6382888A86C088C88670472DE9E8
:103D8000F84F8046DDF828A01F4616460D464245EE
:103D900001DA46469046AF4201DA0F461D46DFF88B
:103DA0009493D9F8000090F85810890719D5CDF8E8
:103DB00000A0446D3B46324629464046A0470028B5
:103DC00011D00EE0444608E0D9F8000052462946DA
:103DD000036820469847641C24B2B442F4DD6D1C8D
:103DE0002DB2BD42EEDDBDE8F88F08B50090D14898
:103DF0000068C1888088491E0BB2401E02B20021B3
:103E00000846FFF7BCFF08BD2DE9F84F81461C4668
:103E1000154688464A4501DA4D469146444501DA41
:103E200044469846C348006890F85010890709D561
:103E30000A990091C66C23462A4641464846B04737
:103E40000028D0D0A5EB090000B2A4EB080109B20C
:103E5000002801DD024600E0424215B2002901DDE2
:103E60000A4600E04A4214B24FF0FF32002801DD5A
:103E7000012000E010468346002900DD0122AD4804
:103E80009246671000686E104146036848460A9AD9
:103E90009847A5421BDB002716E0301906B2AE4258
:103EA00005DB701B06B208EB0A000FFA80F809EB7D
:103EB0000B000FFA80F99F4841460A9A0068036890
:103EC000484698477F1C3FB2AF42E6DB8BE70026AF
:103ED00016E0781907B2A74205DB381B07B209EBD9
:103EE0000B000FFA80F908EB0A000FFA80F89148EE
:103EF00041460A9A0068036848469847761C36B2DD
:103F0000A642E6DB6FE72DE9FF4F83B08246DDE98D
:103F100010489B4691461046524501DAD1468246EA
:103F2000049918468B4501DA8B460490002C64DD19
:103F30000320A0EB440007B2A9EB040002B20AEB95
:103F400004000025264600B25B46CDF800800499A7
:103F5000FFF715FF4FE0002E1DDD06EB0B00001BE9
:103F600003B2049909EB0500891B001B214400B230
:103F700009B2CDF80080029302460191FFF744FF99
:103F8000AAEB0500CDF800802044DDE9011300B262
:103F90000246FFF739FF002D1DDD05EB0B00001B6E
:103FA00003B20499AAEB0600491B2044214400B245
:103FB00009B2CDF80080029302460191FFF724FF79
:103FC00009EB0600CDF80080001BDDE9011300B20B
:103FD0000246FFF719FF002F04DA07EB8500801D6A
:103FE00007B206E0A81B07EB80000A30761E07B276
:103FF00036B26D1C2DB2B542ADDD07B0BDE8F08F15
:104000002DE9F0478046DDF820A01F4616464245C0
:1040100001DA464690468F4201DA0F4619460D46B0
:10402000DFF810910EE0444608E0D9F8000052464F
:104030002946036820469847A41C24B2B442F4DD04
:10404000AD1C2DB2BD42EEDDBDE8F0872DE9F84391
:104050001E46089C1746884605460B460094FFF707
:10406000D3FE33463A46194628460094FFF7CCFE65
:104070002A463346414610460094FFF7C5FE3A46AD
:104080003346414610460094FFF7BEFEBDE8F88374
:104090002DE9F84F98460E46071E7CDB002E7ADB92
:1040A000002A78DD0120A0EB42000FFA80FA002000
:1040B000814614460546DFF87CB000907FE05FEA59
:1040C000C87008D0DBF80020701B01B238191368E3
:1040D00000B20A9A98475FEA887008D5DBF800209A
:1040E000301B01B27819136800B20A9A98475FEA48
:1040F000487008D5DBF80020301B01B2781B13682C
:1041000000B20A9A98475FEA087008D5DBF80020E9
:10411000701B01B2381B136800B20A9A98475FEA15
:10412000C8600ED5701901B2381B00B204E000005F
:10413000EF8B5E003C450020DBF8002013680A9AF4
:1041400098475FEA886008D5DBF80020301901B293
:10415000781B136800B20A9A98475FEA486008D54E
:10416000DBF80020301901B27819136800B20A9AFE
:1041700098475FEA086008D5DBF80020701901B2A3
:104180003819136800B20A9A984700996D1C2DB22D
:1041900009EB010000E015E00FFA80F9881C00B27D
:1041A00000900AEB4900002809DD09EB0A000FFA2C
:1041B00080F9641E0AF1020024B20FFA80FAAC42C0
:1041C000BFF67DAF0FE62DE9F84F0746DDE90A544B
:1041D000984616468946BA4201DA3E4617461846C0
:1041E000C84501DAC8468146B54245DC454543DC51
:1041F000701B79190FFA80FA0FFA81FB4B46524671
:10420000194658460094FFF7FFFD434652461946AB
:1042100058460094FFF7F8FDA8EB050003B209EB40
:10422000050001B23A469846894610460094FFF7C9
:10423000EBFD32464346494610460094FFF7E4FD45
:10424000494658460C232A460094FFF721FF494669
:10425000504603232A460094FFF71AFF414658466A
:1042600030232A460094FFF713FF41465046C023EF
:104270002A460094FFF70CFFB5E5F74B1B681B6857
:1042800018472DE9FF4F83B08846B0F1000975DB70
:10429000B8F1000F72DB002A70DD01204FF0000B37
:1042A000A0EB420007B25E4614465D4664E008EBB0
:1042B000050001B2A9EB0400DFF89CA300B2CDE930
:1042C0000101DAF800201368069A9847A8EB050068
:1042D00001B20091DAF8002001981368069A984715
:1042E00009EB040000B20190DAF80020029913688B
:1042F000069A9847DAF80020DDE900101368069A5C
:10430000984708EB040001B2A9EB050000B2CDE923
:104310000101DAF800201368069A9847A8EB040018
:1043200001B20091DAF8002001981368069A9847C4
:1043300009EB050000B20190DAF800200299136839
:10434000069A9847DAF80020DDE900101368069A0B
:10435000984706EB0B0006B20BF102006D1C0FFA3A
:1043600080FB07EB46002DB2002805DD641EF01926
:10437000BF1C24B206B23FB2AC4298DA3DE62DE94A
:10438000FF4F81B099460F46B0F1000859DB002F6E
:1043900057DB0398002854DD0321A1EB400006B24F
:1043A0000024039D43E0002D17DD781903B2A8EB2C
:1043B0000400791B00B209B29B468A460246CDF83A
:1043C0000090FFF721FD08EB040000B25B46514668
:1043D0000246CDF80090FFF717FD002C17DD3819C5
:1043E00003B2A8EB0500391B00B209B29B468A460E
:1043F0000246CDF80090FFF707FD08EB050000B27C
:104400005B4651460246CDF80090FFF7FDFC002EBA
:1044100004DA06EB8400801D06B206E0601B06EBA2
:1044200080000A306D1E06B22DB2641C24B2AC426C
:10443000B9DD039A05B04B4639464046BDE8F04F1A
:104440001FE705B0DAE52DE9FF4F81B0DC2816D073
:1044500008DCB0281BD0B52817D0C42813D0D62824
:1044600016D108E0E4280CD0F62802D0FC280FD1A1
:1044700003E094200CE099200AE0812008E09A20D3
:1044800006E0842004E08E2002E0E62000E0F82030
:10449000714B1FFA82F819688A8E002AD1D04FEA30
:1044A000D20B91F83420520701D00BF1010BB1F976
:1044B00036400A6B00FB0BF004FB002A00202CE0C6
:1044C0000299878E8CB200201DE01AF8016B00253E
:1044D00014E0F00760480068036801D0049A00E027
:1044E0000E9A0FFA88F120B29847641C7F1E6D1C4B
:1044F0007608ADB2A4B2BFB2082D01D2002FE8D128
:1045000009F1010080B281465845DED308F101006F
:104510001FFA80F80098401C80B24F4A0090009922
:104520001068B0F936308B42CADC8AE72DE9F843CF
:1045300015460E4607460446DFF81C8124E0BCF110
:104540000A0F27D0D8F80000B0F93420B0F90430B1
:1045500022445B1E9A4206DDC28E90F939303C46F9
:104560001A44324416B2016C0091C36B32462146A4
:104570006046FFF768FFD8F80000818E90F9380098
:104580000844204404B26D1C95F800C0BCF1000F33
:10459000D5D17BE5D8F80000B0F90440F3E7F8B5D1
:1045A00005462D4F38E00A2E3AD03C68B4F9340065
:1045B00094F93810A28B0144114409B2A183B4F9D3
:1045C00024200844904208DD208CA083E08E94F9DA
:1045D00039100844E18B0844E083B4F91E00B4F9B3
:1045E0003610B4F926300844984209DDB4F92000A9
:1045F000A083B4F92210E183E46A0094FFF7BFFBC3
:104600003868C16A0091B0F91E20B0F91C10836AA5
:104610003046FFF718FF6D1C2E78002EC3D1F8BD71
:10462000386881888183F6E710B50B4C24682084B4
:104630006184A284E38410BD0749096888627047D9
:1046400005490968C862704703490968C86370472B
:1046500001490968086470473C450020F748006834
:10466000B0F90400F7E7F5480068B0F90600F2E792
:10467000F249096881F83800EDE7F049096881F8E6
:104680003900E8E72DE9F04F8DB00546B0F9080094
:104690000590B5F90A30B5F90C000490B5F90E4053
:1046A000287E07906868B0F904100091B0F90620E0
:1046B0000292B5F91A100191B5F91C100391D5F8C1
:1046C00000B00068594600286FD0BBF1000F6CD0D5
:1046D000E41A944269DB012004E00A2A01D1401C5B
:1046E00080B2491C0A78002AF7D1079A002112F0FB
:1046F000300F0DD0641C029A21B202FB1011C0F1E0
:104700000102039809B200FB021001B200294CDB40
:104710000798C00600D54910C818ADE0491C401CD8
:1047200080B20A780AB10A2AF8D1DDE90421511AC7
:10473000491C009A09B202FB1011C0F10102019854
:1047400009B200FB021000B200282EDB0799C9074E
:1047500001D0002003E00799890700D54010059992
:10476000084400B20A907BE000291ED0DC2916D054
:1047700008DCB0291CD0B52918D0C42913D0D629FB
:1047800017D108E0E4290CD0F62902D0FC2910D179
:1047900003E094210DE099210BE0812109E09A21A9
:1047A00007E0842105E08E2103E06AE0E62100E0D5
:1047B000F821099886B20098C0F3CC0006900098C2
:1047C000400702D00698401C06906868029A514340
:1047D0000068069A01FB02000890002033E00A9866
:1047E00084B200981FFA80F9002023E0089800277F
:1047F00010F8018B089017E05FEAC87001D02A69B1
:1048000000E06A698D4831B20068036820B29847B9
:10481000641C7F1CA9F10100BFB24FEA5808A4B282
:104820001FFA80F9082F02D2B9F1000FE4D10AF182
:10483000010080B2069982468842D7D3761C0B9835
:10484000B6B2401C80B202990B908842C7DBDDE90A
:10485000000101440A980BF1010B084400B20A90D0
:104860009BF800100A297FF47FAFDDE902010144C3
:1048700009980BF1010B084400B209900020594639
:104880004FE70DB0BDE8F08F30B5002104784368E4
:1048900008E003EB41100278D50701D0920704D459
:1048A000491CC9B28C42F4D8002030BDF0B50023B9
:1048B000067845680EE005EB43100478E70707D15A
:1048C000A40705D5047E8C4202D1447E944204D0D4
:1048D0005B1CDBB29E42EED80020F0BD00B5FFF7B6
:1048E000E5FF4FF0FF3218B1017811F0280F01D029
:1048F000104600BD032101700021C161817641761F
:10490000417001764160084600BDF0B54B4907781B
:1049100000230968B1F90A40B1F90C500E7A54E04D
:10492000416801EB431292F800C051785FEACC7EF7
:1049300048D15FEA8C7E45D55FEA0C7E42D55FEABE
:104940004C6C3FD43EB314F1010C24D05FEA416CAF
:1049500003D421F0980141F00501B2F908C021F01B
:104960002001A44514DCB2F90CC0A44510DBB2F957
:104970000AC0AC450CDCB2F90EC0AC4508DB41F016
:1049800020015FEA416C03D421F0040141F00201EF
:1049900041F0400116E05FEA416C13D55FEA816C9B
:1049A00007D55FEA817C01D541F0800141F0080123
:1049B00001E041F010015FEA416C01D541F00101D5
:1049C00021F046015B1C51709BB2BB42A8D3F0BDE5
:1049D0002DE9F047804690F8009000261CE0D8F8BA
:1049E000040000EB46152C786F78E00712D1A00781
:1049F00010D5A00603D56A6829464046904720078F
:104A000008D5200606D517F0410F03D06A6829465D
:104A100040469047761CB6B24E45E0D3BDE8F087DD
:104A20002DE9F84305460020044F04463F1D0221AE
:104A3000786039702E788046E9461AE03C450020BF
:104A4000686800EB441000900178CA070FD189070D
:104A50000DD5817E59B1C7F80490017E7970407EF2
:104A6000B870296CF7488847009981F81A80641C4F
:104A7000A4B2B442E4D38CE52DE9FF4F81B0DDF858
:104A80003880D8F800000090DDE90230401E02B204
:104A9000924619460198FFF7B7F9D8F8040000903C
:104AA0000498401E03B2DDE90120401C01B21F46FC
:104AB00089461046FFF7A8F9D8F808000090DDE90C
:104AC000032319460198FFF79FF9DDE90212D8F890
:104AD0000C0000903B461046FFF796F9D8F81000FE
:104AE000009003984B46801E02B201989346401CEA
:104AF00000B219460646FFF787F9D8F8140000906F
:104B000004983246801E03B202981D46801C01B2F2
:104B10000C461046FFF778F9D8F818003B4600908D
:104B2000524619463046FFF76FF9D8F81C00524636
:104B300000902B4649461046FFF766F9D8F820004A
:104B4000009003982346C01E02B201981946801CAB
:104B500000B20646FFF758F9D8F8240000900498F0
:104B60003246C01E03B202981F46C01C01B2104656
:104B7000FFF74AF9D8F828002B4600905A46194604
:104B80003046FFF741F9D8F82C005A4600903B46D2
:104B900021461046FFF738F953E4022808D2A94A03
:104BA000121F126802EBC000C164032180F850108C
:104BB00051E502280CD2A349091F096801EBC00086
:104BC00090F85010CA0703D041F0020180F850104D
:104BD00041E502280CD29B49091F096801EBC0007E
:104BE00090F85010CA0703D021F0020180F850104D
:104BF00031E52DE9F0418AB0040059D0207A8007D0
:104C000056D5207FB4F91460B4F91650B4F9187071
:104C1000C00705D0F61CED1CFF1E36B22DB23FB208
:104C20008848001F00684069A04203D1206B0690AD
:104C3000E06A02E0A06B0690606B05900698203455
:104C40000090217FA5F1010801EB080003B23A466C
:104C500029463046FFF793F820680190606802907B
:104C6000F01CADF80C00ADF80E50ADF81070217FBF
:104C700001EB0800ADF81200A07A8DF81C0094F941
:104C80000800ADF81E0094F90900ADF8200001A855
:104C9000FFF7F8FC6C480090207F3A46284401B2A8
:104CA0000B463046FFF7B0F800200AB0BDE8F081AF
:104CB0004FF0FF30F9E72DE9F843B0F91410B0F9DF
:104CC00018200446B0F91650B0F91A70007A0E4652
:104CD00020F0200090462072030748D5217FC907A5
:104CE00015D0400613D4594800903B46294630461B
:104CF000FFF7C2FE06F1030605F10305A8F1030064
:104D0000A7F1030736B22DB20FFA80F83FB2207F29
:104D100080070FD52046FFF76CFF94F83C0005F1A3
:104D20000105284405B2207A410603D520F0400051
:104D300020722EE4206900903B46424629463046C8
:104D4000FFF71DF8237800200EE0616801EB4012A8
:104D50001178CD0706D18D0704D50D0702D541F096
:104D600060011170401C80B29842EED311E43548C6
:104D70003B46001F0068406C00903046FEF7FFFF86
:104D800007E410B52F4C241F216891F84800C20792
:104D900003D020F0010081F84800D1E904208242CC
:104DA0002CD05AB3C1E90520017F89071CD5017AAF
:104DB000090719D5B0F91410B2F91430994211D17C
:104DC000B0F91810B2F9183099420BD1B0F9161099
:104DD000B2F91630994205D1B0F91A10B2F91A2079
:104DE000914201D0FFF705FF20684269117A21F056
:104DF00040011172406941F0280101722068446944
:104E0000002C12D0207A800602D52046FFF753FFEF
:104E1000207A000709D52046FFF777FD2046FFF7E7
:104E2000D7FD2046BDE81040FAE510BD0548001F3B
:104E3000016811F8480F40F001000870C107FDD16A
:104E400009E4000040450020A0A0A000BCAB000881
:104E50002DE9F047166890468946002E2AD098F82A
:104E60000810102926D1824600271FE0544600254D
:104E700012E036F8020BC10AC0F34512C90441EA38
:104E80008222C00642EA10622046641C24B24946CF
:104E9000FFF7F3F96D1C2DB2B8F80400A842E8DC66
:104EA00009F101007F1C0FFA80F93FB2B8F8060043
:104EB000B842DBDCB2E5F74B1B68588199811A7266
:104EC00076E6F0B5040005D021B11AB100200646FF
:104ED000032708E04FF0FF30F0BD01EB4015401C08
:104EE0002F70C0B2EE619042F7D322706160022150
:104EF000E9482172C4E90360A682E682FFF7AEFBAF
:104F0000401E2083FFF7AFFB401E6083236427779A
:104F10002662666284F8281084F82910112084F82B
:104F20002A006FF07F40FF21C4E90B016063DB487A
:104F3000A0630F2084F83C000020F0BDD5494FF05D
:104F4000FF320968496981420FD070B1017A89073F
:104F50000BD5002101720164017041608182C18220
:104F6000018341830177084622E6104620E650B1CE
:104F7000017A21F0400141F028010172C549096818
:104F80000861002014E64FF0FF3011E638B5040048
:104F900023D0207A01071ED5BE4D20F008002072D4
:104FA0002868406C0090B4F91A30B4F91820B4F9AC
:104FB0001610B4F91400FEF7E2FE29684869A04211
:104FC00009D0027A130706D522F04002027248691E
:104FD00042F020010172002038BD4FF0FF3038BD93
:104FE00070B580B3AB4C23685A6982422CD1996961
:104FF00001B30D7A2D071DD5B1F91420B0F9143085
:105000009A4211DCB1F91620B0F916309A420BDC45
:10501000B1F91820B0F918309A4205DBB1F91A102D
:10502000B0F91A20914201DAFFF7B0FF20688169D8
:1050300001610BE0107A20F008001072596940F00D
:105040002000087202E003E0FFF7A0FF002070BD1F
:105050004FF0FF3070BDF8B50446069FFFF7FEFA2B
:10506000401E06B2FFF7FFFAA0F1010005B24FF0B3
:10507000FF30002C62D094F808C05FEA8C7E5DD5CA
:1050800000295BDB002A59DBB34257DCAF4255DC19
:10509000A3EB010E0FFA8EFEBEF10A0F4EDBA7EB5B
:1050A000020E0FFA8EFEBEF10A0F47DBA182E282EA
:1050B000238367835FEA0C703FD5764F3868416978
:1050C000A1423AD142B1406C521E13B2002100906D
:1050D00032460846FEF753FE608B401C01B2A942DF
:1050E00007DC38682B463246406C00900020FEF703
:1050F00046FEB4F9140058B13968401E02B2496C3A
:105100000091B4F91A30B4F916100020FEF737FEFA
:10511000208B401C00B2B04209DC39683246496C31
:105120000091B4F91A30B4F91610FEF728FE207A6F
:1051300020F0400040F0200020720020F8BD40B177
:10514000027A930705D5016342F0600101720020E5
:105150002EE54FF0FF302BE5002118B1027A9207BF
:1051600000D5016B084623E540B1027A930705D5C7
:10517000C16242F060010172002019E54FF0FF307A
:1051800016E5002118B1027A920700D5C16A0846D7
:105190000EE570B50446FFF7F4FF05462046FFF71D
:1051A000DBFF01462046FFF7DFFF401C4FF0FF36D4
:1051B00007D029462046FFF7C2FF401C01D000203F
:1051C00070BD304670BD40B1027A930705D5C1600D
:1051D00042F0200101720020EAE44FF0FF30E7E4E2
:1051E00040B1027A930705D5016142F020010172B6
:1051F0000020DDE44FF0FF30DAE440B1027A93079B
:1052000005D5416342F0600101720020D0E44FF007
:10521000FF30CDE440B1027A930705D5816342F0B7
:10522000600101720020C3E44FF0FF30C0E440B1E0
:10523000027A930705D5016242F0600101720020F5
:10524000B6E44FF0FF30B3E410B5A8B1027A93078B
:1052500012D542F0600202724162B1F9061090F874
:105260003C404B1C9C4205DC891C80F83C1022F021
:1052700040010172002010BD4FF0FF3010BD78B129
:10528000027A93070CD580F8281042F06001017271
:1052900000208DE43C450020F0F0F000808080008C
:1052A0004FF0FF3084E448B1027A930706D580F8C6
:1052B000291042F060010172002079E44FF0FF30C4
:1052C00076E448B1027A930706D580F82A1042F0B6
:1052D0006001017200206BE44FF0FF3068E458B1C8
:1052E000027A930708D580F83C1022F0400141F083
:1052F0002001017200205BE44FF0FF3058E438B524
:105300004FF0FF3480B1027A92070DD58182B0F957
:105310001A200092B0F91830B0F91620FFF79BFE62
:10532000401C01D0002038BD204638BD38B54FF0B4
:10533000FF3490B1027A92070FD5C182B0F91A20DA
:105340000092B0F914500A46B0F918302946FFF718
:1053500082FE401C01D0002038BD204638BD38B543
:105360004FF0FF3490B1027A92070FD50183B0F964
:105370001A200092B0F914500B46B0F916202946B5
:10538000FFF769FE401C01D0002038BD204638BD23
:1053900038B54FF0FF3480B1027A92070DD54183C2
:1053A0000091B0F91830B0F91620B0F91410FFF7D9
:1053B00052FE401C01D0002038BD204638BDC8B187
:1053C000027A930716D5CB07037F02D043F001037F
:1053D00001E023F0010389070377D9B202D541F038
:1053E000020101E021F00201017742F02001017287
:1053F000002025E54FF0FF3022E5002118B1027AA8
:10540000920700D5C16808461AE5002118B1027A52
:10541000920700D50169084612E5002118B1027A09
:10542000920700D5416B08460AE5002118B1027ABF
:10543000920700D5816B084602E5002118B1027A77
:10544000920700D5016A0846FAE4002118B1027AF1
:10545000920700D5416A0846F2E4002120B1027AA1
:10546000920701D590F928100846E9E4002120B1FF
:10547000027A920701D590F929100846E0E400214C
:1054800020B1027A920701D590F82A100846D7E495
:10549000002120B1027A920701D590F83C1008460D
:1054A000CEE44FF0FF3120B1027A920701D5B0F976
:1054B00014100846C4E44FF0FF3120B1027A92077D
:1054C00001D5B0F916100846BAE44FF0FF3120B10B
:1054D000027A920701D5B0F918100846B0E44FF0EF
:1054E000FF3120B1027A920701D5B0F91A100846AF
:1054F000A6E4002118B1027A920700D5017F084680
:105500009EE470B540B3027A920725D5B0F9142015
:105510000A80B0F916504D80B0F918408C80B0F96F
:105520001A30CB80067FF6070BD002F103020A8007
:1055300005F103054D80A4F103048C80A3F103035E
:10554000CB80027F920705D54A8890F83C00104432
:10555000401C4880002070BD4FF0FF3070BD01003E
:105560004FF000000ED00A7A92070BD5088B8A8A7A
:10557000097F801A00B2C90701D0801F00B200283D
:1055800000DA00205CE401004FF0000009D00A7A44
:10559000920706D5088B898A401A00B2002800DAE3
:1055A00000204DE401004FF0000016D00A7A920767
:1055B00013D5488BCA8AA0EB02000A7F00B2D3073A
:1055C00002D0A0F1060000B2920703D591F83C107A
:1055D000401A00B2002800DA002031E401004FF048
:1055E000000009D00A7A920706D5488BC98A401A6A
:1055F00000B2002800DA002022E470B506464878A0
:105600000C46CD698CB0C1071AD0010605D5012121
:10561000A176217841F0200121708007287802D5F9
:1056200040F0010003E0C10706D020F0010028701F
:10563000207840F020002070607820F00100607039
:10564000207881067CD501077BD5400602D42878D6
:1056500080076CD509A93046FFF753FF218ABDF8B2
:10566000240001442181618ABDF826201144618112
:10567000A18A084400B2A081E18ABDF82620114425
:1056800009B2E181B6F91A20914259DAB6F9181037
:10569000884255DA6878C00701D0032600E0012669
:1056A000A8680690686805902878C0070CD06878CC
:1056B000810703D568680690A86804E0400703D511
:1056C00028690690E868059006980090E089801B9C
:1056D00003B2A089801B02B26089304401B22089E4
:1056E000304400B2FEF74BFB20893044ADF80C008B
:1056F00060893044ADF80E00A089801BADF8100021
:10570000E089801BADF8120012208DF81C0068693A
:1057100002900220ADF81E00ADF82000A8690190AB
:1057200001A8FEF7AFFF207820F0400020706878D5
:10573000C00728784FEAC07012D018B1FA4803E0C9
:105740002EE01DE0F84830300090B4F90E30B4F986
:105750000C20B4F90A10B4F90800FFF78DF91BE02A
:1057600008B1286900E0E8680090B4F90E30B4F997
:105770000C20B4F90A10B4F90800FEF767FC0BE03E
:1057800030690090B4F90E30B4F90C20B4F90A1065
:10579000B4F90800FEF7F3FA207820F0200020701A
:1057A0000CB070BD2DE9F0431E46DDE908891746AF
:1057B0000C460546DDF81CC0FFF766F84FF0FF31D8
:1057C00050B3002222702B69A360EB6863602B69E1
:1057D0002361EB68E36001236370D4A5C4E9052568
:1057E000AFF2E91545604270037682760682A0F832
:1057F00012C0A0F81480A0F8169001814181818127
:10580000C18147760178C46121F0010141F0CA01EC
:1058100001700020BDE8F0830846FBE70A4601213D
:10582000FFF75CB800B50A460121FFF73FF828B141
:10583000017841F068010170002000BD4FF0FF3099
:1058400000BD00B50A460121FFF730F878B1C16903
:105850000A7822F001020A700021417081760178F5
:1058600021F0080141F020010170002000BD4FF03F
:10587000FF3000BD10B514460A460121FFF716F8A7
:1058800038B1C1694C60017841F0600101700020BD
:1058900010BD4FF0FF3010BD10B514460A4601216F
:1058A000FFF704F838B1C1698C60017841F06001FC
:1058B0000170002010BD4FF0FF3010BD10B5144630
:1058C0000A460121FEF7F2FF38B1C169CC600178C8
:1058D00041F060010170002010BD4FF0FF3010BD9D
:1058E00010B514460A460121FEF7E0FF38B1C16940
:1058F0000C61017841F060010170002010BD4FF093
:10590000FF3010BD10B514460A460121FEF7CEFF48
:1059100038B1C1698C61017841F0600101700020EB
:1059200010BD4FF0FF3010BD10B514460A460121DE
:10593000FEF7BCFF38B1C1694C61017841F06001EC
:105940000170002010BD4FF0FF3010BD30B514467F
:105950000A460121FEF7AAFF68B1C169A5074A7886
:1059600022F006024A700B7843F002030B7005D553
:1059700042F0020206E04FF0FF3030BD650703D56C
:1059800042F004024A7002E023F002020A70E207C9
:105990004A7802D042F0010201E022F001024A708E
:1059A000017841F060010170002030BD10B50A4659
:1059B00000240121FEF77AFF08B1C069446820463F
:1059C00010BD10B50A4600240121FEF76FFF08B193
:1059D000C0698468204610BD10B50A460024012124
:1059E000FEF764FF08B1C069C468204610BD10B559
:1059F0000A4600240121FEF759FF08B1C069046975
:105A0000204610BD10B50A4600240121FEF74EFFC6
:105A100008B1C0698469204610BD10B50A4600244B
:105A20000121FEF743FF08B1C0694469204610BD5B
:105A300010B50A4600240121FEF738FF08B1C069FD
:105A40004478204610BD70B5064608780C46CD69EE
:105A50008CB0810666D5010754D540065ED509A9EC
:105A60003046FFF74EFD218ABDF824000144218114
:105A7000618ABDF8262011446181A18A084400B2E0
:105A8000A081E18ABDF82620114409B2E181B6F96E
:105A90001A20914246DAB6F91810884242DA28698B
:105AA0000690E868059006980090B4F90E30B4F9B5
:105AB0000C20B4F90A10B4F90800FEF760F9208947
:105AC000ADF80C006089ADF80E00A089ADF81000AB
:105AD000E089ADF81200287D8DF81C0068680290FE
