:020000040800F2
:10000000084C0020892D0008430200084502000822
:1000100047020008490200084B02000800000000E7
:100020000000000000000000000000004D02000879
:100030004F0200080000000051020008710400088F
:10004000A32D0008A32D0008A32D0008A32D000850
:10005000A32D0008A32D0008A32D0008A32D000840
:10006000A32D0008A32D0008A32D0008A32D000830
:10007000A32D0008A32D0008A32D0008A32D000820
:10008000A32D0008A32D0008A32D0008A32D000810
:10009000A32D0008A32D0008A32D0008A32D000800
:1000A000A32D0008A32D0008A32D0008A32D0008F0
:1000B000A32D0008A32D0008A32D0008A32D0008E0
:1000C000A32D0008A32D0008A32D0008A32D0008D0
:1000D000A32D0008A32D0008A32D0008A32D0008C0
:1000E000A32D0008A32D0008A32D00080000000088
:1000F0000000000000000000000000000000000000
:100100000000000000000000A32D0008A32D00083F
:10011000A32D0008A32D0008A32D0008A32D00087F
:10012000A32D0008A32D0008A32D0008A32D00086F
:10013000A32D0008A32D0008A32D0008A32D00085F
:10014000A32D0008A32D0008A32D0008A32D00084F
:1001500000F002F800F066F80AA090E8000C824473
:100160008344AAF10107DA4501D100F05BF8AFF250
:10017000090EBAE80F0013F0010F18BFFB1A43F085
:100180000103184760BB000080BB000010F8013B72
:100190000A4413F0030408BF10F8014B1D1108BFF7
:1001A00010F8015B641E05D010F8016B641E01F8A5
:1001B000016BF9D1002D15D010F8014B03F00C03A1
:1001C0000C2BA1EB04040ABF10F8013BA4EB831431
:1001D000A4EB032405F1010314F8016B5B1E01F885
:1001E000016BF9D5914238BF10F8013BD1D370476C
:1001F0000023002400250026103A28BF78C1FBD830
:10020000520728BF30C148BF0B607047642904F013
:100210004D87732905F03D80002070471FB51FBD35
:1002200010B510BD05F04CF81146FFF7F7FF00F0D0
:1002300026F805F06AF803B4FFF7F2FF03BC00F0FC
:10024000A1FA7047FEE7FEE7FEE7FEE7704770475A
:100250007047000030B40C46F82101EA124109024F
:10026000FC2303EA122341EAC303C2F3C40143EAB5
:10027000010281B2A0B230BC01F0E0B9704770B5A4
:10028000ADF5007D4FF4E131012000F044FA01F0BA
:10029000ABF9F0234FF4A072AFF24701454802F0EA
:1002A00093FDAFF227030A2214A903A803F065FE09
:1002B00041A103A804F017F8444903A804F020F86A
:1002C0000A263C206E240096CDE9014033460022E8
:1002D00064A903A804F0C2FA5021CDE900148220D9
:1002E00002900A2301226BA903A804F0B7FAC825DB
:1002F00096208DE831000A23022272A903A804F097
:10030000ADFA324A002103A804F06AFB30A20021B2
:1003100003A804F053FB2D4A012103A804F060FB5D
:100320002EA2012103A804F049FB284A022103A8B8
:1003300004F056FB2CA2022103A804F03FFB4FF46B
:100340009B700096CDE901057823002279A903A8C6
:1003500004F04AFC274A002103A804F0D8FC26A296
:10036000002103A804F0C1FC0022114603A804F0F8
:1003700098FC1222002103A804F0FFFC03A803F05C
:1003800052FE4FF47A7000F04DF80DF5007D00201C
:1003900070BD10B51C4C4FF47A712068B0FBF1F2BF
:1003A00001FB120008B903F048FD2068401C2060E2
:1003B00010BD000040450020754755492044656D3B
:1003C0006F2057696E646F77000000004CBC000816
:1003D000427574746F6E206E6E41000042757474C5
:1003E0006F6E206E6E420000427574746F6E206EE8
:1003F0006E43000044BC000848656C6C6F20776F4A
:10040000726C6421212100000000002001B50098D9
:1004100001E0401E00900028FBD108BD4FF4C060F1
:1004200002F070B9F3490968B1FBF0F0B0F1807FD8
:100430000DD220F07F414FF0E020491E4161EE4A8D
:10044000F021117000218161072101617047FEE7F1
:1004500001B5EA480099016001680029FCD108BD96
:10046000E6480168002902D00168491E0160704712
:1004700010B5FFF7F5FFBDE81040FFF78ABFE04871
:100480000168E0480160DE49091D09684160DC49F6
:10049000083109688160704738B50446DA4801219F
:1004A00050F8240001F0A0FFD7486946483830F8DA
:1004B0001400ADF8000010208DF8030003208DF823
:1004C0000200CE48203050F8240002F042F838BD37
:1004D000CD49CA4A4839203231F8101052F820006C
:1004E00041617047C849C54A4839203231F8101077
:1004F00052F8200001617047C049203151F82010A6
:10050000CA68C14B483B33F810004240CA6070478C
:1005100008B50121042001F067FF0820ADF80000B4
:1005200010208DF8030003208DF802006946B748BB
:1005300002F00FF8B6490120086008BDB449002058
:1005400008607047B249012008607047B149D1F88E
:100550008C0118B10020C1F88C0170470120FAE726
:100560007FB50446A8480D461030012150F82400FC
:1005700040F0010001F038FF04208DF80F00A24880
:1005800003A9403830F81400ADF80C009B48303017
:1005900050F8240001F0DDFF012D28D19A482838B9
:1005A00010F81410083810F8140002F084F8964877
:1005B000383830F81400009000208DF804000C202A
:1005C0008DF805008DF80650684602F001F98E4856
:1005D000203810F814008DF808000F208DF809005D
:1005E0008DF80A008DF80B5002A802F090F87FBD3C
:1005F0008549824A4039303231F8101052F82000D3
:1006000001F0FBBF844910B5D1F81001834C28B923
:100610002046FFF7FBFED1F8100120B1804AD2F846
:10062000280110B107E0012010BD2046FFF7EEFEC3
:10063000D2F8280118B1D1F8340110B107E0022036
:1006400010BD2046FFF7E2FED1F8340120B1714918
:10065000D1F8000110B107E0032010BD2046FFF7DC
:10066000D5FED1F8000108B1002010BD042010BD56
:10067000F8B50D460446644863491038083950F807
:10068000240051F82410084340F00100012101F03A
:10069000ABFE5D4E183EC4B30121082001F0E2FF1D
:1006A00056F82400012101F0A8FE18208DF803005F
:1006B00055486946503830F81400ADF80000032062
:1006C0008DF802004D48103050F8240001F041FF31
:1006D00004208DF803004C4869464C3830F814006B
:1006E000ADF800004548183050F8240001F031FF03
:1006F000424E2946083656F8240002F0FFF856F814
:100700002400012102F072F9F8BDFFE701213068F1
:1007100001F06AFEC9E71FB5044600910021ADF85B
:100720000810ADF804100C20ADF80610ADF80C1050
:10073000ADF80A0069462046FFF79AFF002C1FD04B
:1007400038A13AA004F034FC454804F031FC2E49AD
:1007500044A0203104F02CFC00230522032142A0F8
:1007600004F026FC2648083801884FA004F020FC3D
:1007700002F0B1FA1F48016859A004F019FC1FBD2E
:1007800063A1DEE7704770B5634D044640212846FB
:1007900002F0E3F90028F9D0E1B2284602F07CF932
:1007A000204670BD4FF0FF30704710B55A4C2021E5
:1007B000204602F0D2F90028F9D05748001D0088E1
:1007C0000E49C4B2091D204604F0ACFC204610BD01
:1007D00010B507E003780C78A34201D0002010BDCB
:1007E000401C491C1300A2F1010292B2F2D1012077
:1007F00010BD00002045002023ED00E00400002093
:10080000E8F7FF1F9C4500205C55000800080140E8
:100810008C0121420000214200002242F0490200E6
:100820000080214255534152543200000D0A0A0AF9
:100830000D205757572E41524D4A495348552E4384
:100840004F4D20202573207072696E746620636F8F
:100850006E666967757265642E2E2E2E000000008C
:10086000D456000825730000205757572E41524D8B
:100870004A495348552E434F4D20757365205F5F9D
:1008800053544D3332463130585F535444504552DF
:100890004950485F56455253494F4E2025642E25F6
:1008A000642E2564000000000A0D20B2FAC6B7C409
:1008B000DAB2BF466C617368B4F3D0A1CEAAA3BA12
:1008C00025644BD7D6BDDAA3A12009207777772EF0
:1008D00061726D6A697368752E636F6D0000000048
:1008E0000A0D20CFB5CDB3C4DABACBCAB1D6D3C6C0
:1008F000B5C2CA2853797374656D436F7265436CD2
:100900006F636B29CEAAA3BA2564487A2E0A0D001C
:1009100055534152543100000044004008B54FF691
:10092000FF70ADF8000004208DF803006946FE4812
:1009300001F00FFE08BD08B54FF6FF70ADF80000DE
:1009400003208DF8020010208DF803006946F64858
:1009500001F0FFFD08BDF54900200860F44908607A
:10096000F44A1060F04B22200C3318600120106014
:100970000860704770B5ED4C00222260EC4D2A6093
:10098000EC4B1A60E84E0C3630600120186028608D
:100990001A6031601860206070BD70B5E64A0D467F
:1009A000D188A1F50943893B06D101464E20FFF7C6
:1009B000E1FF29464F200DE0D388A5F23F114C42BC
:1009C000A3F51346203E08D101462020FFF7D2FFB1
:1009D000A1B22120BDE87040CCE7D188A1F5194231
:1009E000193AF1D1E1E730B5002405462146204609
:1009F000FFF7D3FFFFF7AFFFD04B0022C3F8A021D2
:100A0000CB4801210160C8480C300560CC484FF448
:100A10009635C0F8B821C0F8B811641CAC42F8D3C0
:100A2000C3F8A01130BD2DE9F041C04F00243C6057
:100A3000BF4D2C60BF490C60BB4A0C3210600126D0
:100A40000E60FFF76BFF2E60AC60AE60B6480830FA
:100A500000683E6084B2FFF76EFF2046BDE8F0817B
:100A600038B50121782001F0BFFC4FF6FF70ADF8DA
:100A7000000003208DF8020010208DF80300694665
:100A8000A94801F066FD4FF48040ADF800006946CA
:100A9000AC4801F05EFD4FF48070ADF8000069468F
:100AA000A94801F056FD4FF40050A84CADF80000E5
:100AB0006946204601F04DFD4FF40041ADF80010AD
:100AC0006946204601F045FD984901200860994992
:100AD000086097498860086038BD2DE9F05FFFF72E
:100AE000BFFF42F6E0652846FFF790FC0121002099
:100AF000FFF740FF2846FFF789FC0020FFF793FF30
:100B00008D4CE0800020FFF78EFFE0802846FFF745
:100B10007DFCE18848F68910A1F50942993A00D197
:100B2000E080E188E2884FF4E068A2F5134141F2E9
:100B300018074EF6602C40F2272B40F2077540F262
:100B40003F194FF4887A49F22836253902D0E188D6
:100B5000B1427DD143F20801E320FFF70BFF1221E0
:100B6000E720FFF707FF41F23121EF20FFF702FFF7
:100B700001210020FFF7FEFE4FF480710120FFF7F6
:100B8000F9FE41460220FFF7F5FE39460320FFF744
:100B9000F1FE00210420FFF7EDFE40F207210820BE
:100BA000FFF7E8FE00210920FFF7E4FE00210A20FC
:100BB000FFF7E0FE01210C20FFF7DCFE00210D20F5
:100BC000FFF7D8FE00210F20FFF7D4FE00211020F0
:100BD000FFF7D0FE07211120FFF7CCFE00211220E5
:100BE000FFF7C8FE00211320FFF7C4FE67466046EA
:100BF000FFF70CFC3846FFF709FC41F2905110203A
:100C0000FFF7B8FE59461120FFF7B4FE3846FFF74C
:100C1000FDFB3846FFF7FAFB9C211220FFF7AAFEE6
:100C20003846FFF7F3FB3846FFF7F0FB4FF4C851A7
:100C30001320FFF79FFE23212920FFF79BFE0E21A3
:100C40002B20FFF797FE3846FFF7E0FB384600E021
:100C5000B4E0FFF7DBFB00212020FFF78BFE002133
:100C60002120FFF787FE3846FFF7D0FB3846FFF715
:100C7000CDFB07213020FFF77DFE29463120FFF70D
:100C800079FE06213220FFF775FE40F2047135200F
:100C9000FFF770FE41F604713620FFF76BFE04216A
:100CA0003720FFF767FE00213820FFF763FE40F290
:100CB00006713920FFF75EFE40F201713C20FFF71C
:100CC00059FE0F213D20FFF755FE3846FFF79EFBEA
:100CD0003846FFF79BFB00215020FFF74BFEEF212A
:100CE0005120FFF747FE00215220FFF743FE4946FF
:100CF0005320FFF73FFE4FF427416020FFF73AFEF5
:100D000001216120FFF736FE00216A20FFF732FE45
:100D100000218020FFF72EFE00218120FFF72AFE10
:100D20000021822014E0000000180140A0012242AE
:100D3000B4812242B88121424400002000002242B6
:100D400000802142000C01400010014000140140CD
:100D5000FFF710FE00218320FFF70CFE0021842006
:100D6000FFF708FE00218520FFF704FE10219020E8
:100D7000FFF700FE4FF4C0619220FFF7FBFDE08813
:100D8000B0420FD103219320FFF7F4FD5146952087
:100D9000FFF7F0FD00219720FFF7ECFD00219820E0
:100DA000FFF7E8FD40F233110720FFF7E3FD0021D4
:100DB0002020FFF7DFFD0021212036E2E188A1F5A8
:100DC0001342203A7ED0E188B1F5134FFAD0E18882
:100DD00045F6C056A1F513424FF4006A4FF401776F
:100DE000313A70D141F21401E720FFF7C3FD4FF40F
:100DF00080710120FFF7BEFD391F0220FFF7BAFD09
:100E000041F230010320FFF7B5FDB91E0820FFF7BE
:100E1000B1FD00210920FFF7ADFD00210A20FFF7F9
:100E2000A9FD00210C20FFF7A5FD00210D20FFF7F3
:100E3000A1FD00210F20FFF79DFD00211020FFF7ED
:100E400099FD07211120FFF795FD00211220FFF7E2
:100E500091FD00211320FFF78DFD6046FFF7D6FAC4
:100E600041F290611020FFF785FD59461120FFF7F0
:100E700081FD3046FFF7CAFA0C211220FFF77AFDF8
:100E80003046FFF7C3FA51461320FFF773FD1121D7
:100E90002920FFF76FFD0B212B20FFF76BFD30465C
:100EA000FFF7B4FA00212020FFF764FD0021212084
:100EB000FFF760FD00213020FFF75CFD4FF48374E5
:100EC000214601E075E021E13120FFF753FD0021CB
:100ED0003220FFF74FFD39463520FFF74BFD41F239
:100EE0000A613620FFF746FD29463720FFF742FD0D
:100EF00021463820FFF73EFD29463920FFF73AFD0D
:100F000040F202413C20FFF735FD40F60F413D2005
:100F1000FFF730FD00215020FFF72CFDEF2151207D
:100F2000FFF728FD00215220FFF724FD49465320FA
:100F3000FFF720FD4FF41C516020FFF71BFD01213E
:100F40006120FFF717FD00216A20FFF713FD002144
:100F50008020FFF70FFD00218120FFF70BFD00210E
:100F60008220FFF707FD00218320FFF703FD00210A
:100F70008420FFF7FFFC00218520FFF7FBFC1021F8
:100F80009020FFF7F7FC4FF4C0619220FFF7F2FCCE
:100F900021210720FFF7EEFC3046FFF737FA6121E9
:100FA0000720FFF7E7FC3046FFF730FA40F2331135
:100FB00049E201210020FFF7DDFC4FF480710120A0
:100FC000FFF7D8FC41460220FFF7D4FC3946032046
:100FD000FFF7D0FC00210420FFF7CCFC40F20221F7
:100FE0000820FFF7C7FC00210920FFF7C3FC002100
:100FF0000A20FFF7BFFC01210C20FFF7BBFC0021FA
:101000000D20FFF7B7FC00210F20FFF7B3FC64466B
:101010006046FFF7FBF940F201110720FFF7AAFC39
:101020002046FFF7F3F94FF486511020FFF7A2FC9A
:1010300007211120FFF79EFC554651461220FFF76D
:1010400099FC4FF430611320FFF794FC0021292014
:10105000FFF790FC44F210012B20FFF78BFC0021DE
:101060005020FFF787FCEF215120FFF783FC002180
:101070005220FFF77FFC49465320FFF77BFC4FF4DB
:101080001C516020FFF776FC01216120FFF772FC04
:1010900000216A20FFF76EFC00218020FFF76AFC28
:1010A00000218120FFF766FC00218220FFF762FC0F
:1010B00000218320FFF75EFC00218420FFF75AFC0B
:1010C00000218520FFF756FC10219020FFF752FCED
:1010D00000219220FFF74EFC01219320FFF74AFCEC
:1010E00029469520FFF746FC00219720FFF742FC98
:1010F00000219820FFF73EFC2046FFF787F940F2D9
:1011000073110720FFF736FC2046A0E1E1884FF479
:10111000004CA1F519424FF4407B193A7ED10621CB
:101120002820FFF727FC01210020FFF723FC0021E6
:101130001020FFF71FFC47F2EF210120FFF71AFCF8
:101140004FF4C0610220FFF715FC46F6382103205A
:10115000FFF710FC46F674011120FFF70BFC00218D
:101160000F20FFF707FC45F208310B20FFF702FCC8
:1011700003210C20FFF7FEFB0A210D20FFF7FAFBED
:101180004FF438510E20FFF7F5FBBE211E20FFF76C
:10119000F1FB61462520FFF7EDFB4FF4F0412620DF
:1011A000FFF7E8FB78212720FFF7E4FB00214E2022
:1011B000FFF7E0FB00214F20FFF7DCFB40F6D901F1
:1011C0001220FFF7D7FB00213020FFF7D3FB4FF4AD
:1011D00082713120FFF7CEFB4FF480713220FFF790
:1011E000C9FB40F2053421463320FFF7C3FB40F230
:1011F00005513420FFF7BEFB21463520FFF7BAFB2F
:1012000029463620FFF7B6FB59463720FFF7B2FBD9
:101210004FF490513A20FFF7ADFB00E006E0514655
:101220003B20FFF7A7FB33210720D3E1E188A1F59D
:10123000A852053A7ED100210720FFF79BFB3046DC
:10124000FFF7E4F84FF48E711220FFF793FB0121B2
:10125000A420FFF78FFB0F210820FFF78BFB08214D
:101260000A20FFF787FB08210D20FFF783FB2946A3
:101270003020FFF77FFB07213120FFF77BFB40F297
:1012800003613220FFF776FB444641463320FFF7E7
:1012900071FB40F202213420FFF76CFB0221352064
:1012A000FFF768FB41F60F713620FFF763FB294615
:1012B0003720FFF75FFB00213820FFF75BFB0021A1
:1012C0003920FFF757FB29463A20FFF753FB00214F
:1012D0003B20FFF74FFB07213C20FFF74BFB002192
:1012E0003D20FFF747FB3046FFF790F8012107202C
:1012F000FFF740FB01211720FFF73CFB3046FFF7CB
:1013000085F84FF4BD511020FFF734FB40F2172150
:101310001120FFF72FFB4FF48F711220FFF72AFBEC
:101320004FF470611320FFF725FB00212A20FFF7FF
:1013300021FB00E08EE00A212920FFF71BFB4FF480
:101340009F711220FFF716FB00215020FFF712FBC0
:10135000EF215120FFF70EFB00215220FFF70AFB7F
:1013600049465320FFF706FB4FF41C516020FFF75E
:1013700001FB01216120FFF7FDFA00216A20FFF740
:10138000F9FA00218020FFF7F5FA00218120FFF70C
:10139000F1FA00218220FFF7EDFA00218320FFF708
:1013A000E9FA00218420FFF7E5FA00218520FFF704
:1013B000E1FA13219020FFF7DDFA59469220FFF75A
:1013C000D9FA05219320FFF7D5FA00219520FFF7E0
:1013D000D1FA00219720FFF7CDFA00219820FFF7DE
:1013E000C9FA4FF480710120FFF7C4FA21460220A8
:1013F000FFF7C0FA41F230010320FFF7BBFA0021EA
:101400000420FFF7B7FA00210C20FFF7B3FA002100
:101410000F20FFF7AFFA00212020FFF7ABFA0021E1
:101420002120FFF7A7FA21210720FFF7A3FA304672
:10143000FEF7ECFF61210720FFF79CFA3046FEF72C
:10144000E5FF40F273110720FFF794FA3046FEF7EC
:10145000DDFFC1E0E1888142FBD106212820FFF7B2
:1014600089FA01210020FFF785FA4AF6A4610320DA
:10147000FFF780FA04210C20FFF77CFA0C210D20E5
:10148000FFF778FA4FF420510E20FFF773FAB521D9
:101490001E20FFF76FFA47F63F310120FFF76AFA87
:1014A0004FF4C0610220FFF765FA00211020FFF71A
:1014B00061FA46F278011120FFF75CFA002105205D
:1014C000FFF758FA00210620FFF754FA4EF61C7178
:1014D0001620FFF74FFA33210720FFF74BFA0021C0
:1014E0000B20FFF747FA00210F20FFF743FA0021F6
:1014F0004120FFF73FFA00214220FFF73BFA00218D
:101500004820FFF737FA4C4649464920FFF732FAA0
:1015100000214A20FFF72EFA00214B20FFF72AFA7C
:101520004FF46F414420FFF725FA00214520FFF7D3
:1015300021FA21464620FFF71DFA29463020FFF701
:1015400019FA40F202213120FFF714FA394632200D
:10155000FFF710FA40F2025421463320FFF70AFA4F
:10156000611D3420FFF706FA39463520FFF702FAED
:1015700039463620FFF7FEF921463720FFF7FAF902
:1015800040F2023421463A20FFF7F4F921463B208D
:10159000FFF7F0F900212320FFF7ECF900212420C8
:1015A000FFF7E8F961462520FFF7E4F94FF4E04141
:1015B0002620FFF7DFF94BF2EB012020FFF7DAF9E5
:1015C0007C212720FFF7D6F900214E20FFF7D2F922
:1015D00000214F20FFF7CEF9BDE8F05F1F20FFF795
:1015E00002BAFE498860704710B5FFF776FAFB49EA
:1015F000FB48886010BD03B5BDF80010F748418076
:10160000BDF8041081800CBDF44A53880380908893
:101610000880704701B5BDF80000F049488008BD5A
:1016200001B5BDF80000ED49888008BDED490022F4
:101630000A60ED4A106001200860704710B514463A
:10164000FFF7ABF9FFF787F92046FFF7EFFFE74910
:101650000120086010BDF12809D2002907DBB1F58F
:10166000A07F04DCDD4A89B280B25288E6E7704789
:101670002DE9F041FFF791F9DC4F00253D60DC4C8E
:101680002560D8480560D84A2221116001260660ED
:101690002660FFF743F9A560A660A560A660D24862
:1016A000001F00683E6084B2FFF745F92046BDE8A0
:1016B000F08110B5012100220846FFF7BFFF01218C
:1016C0000846FFF7D5FF01214FF6FF720846FFF7E6
:1016D000B5FF01210846FFF7CBFF012145F65A224D
:1016E0000846FFF7ABFF0121BDE810400846BFE701
:1016F0002DE9F04190460C460646FFF79FFFA6F104
:10170000010C1FFA8CF042462146FFF797FF771C29
:10171000B8B242462146FFF791FF651EA9B2424684
:101720003046FFF78BFF641CA1B242463046FFF7FC
:1017300085FFA9B21FFA8CF04246FFF77FFFA1B2E6
:101740001FFA8CF04246FFF779FFA9B2B8B24246C1
:10175000FFF774FFA1B2B8B24246BDE8F0416DE7B1
:1017600010B50446FFF7F7F82046FFF75FFF9F49E3
:101770000120086010BD2DE9F043984616468946C1
:1017800005460024FFF709F90127DFF850C2B8F138
:10179000000F1CD1FFF7DFF8BCF80200FFF746FF8F
:1017A00001200022934904E0C1F8B821C1F8B871C2
:1017B000401CB042F8D30CE0BCF80200FFF7D0FFA9
:1017C0006D1CADB249462846FFF7E7F8641CB442E9
:1017D000F2D386480760BDE8F08330B505460C4675
:1017E000A1F10F0081B200231E222846FFF7C3FF9C
:1017F0000F3DA8B22146BDE8304001231E22BAE7C2
:10180000F0B51E4614460F46054600233246FFF744
:10181000B2FF281980B2002332463946FFF7ABFFEA
:101820000123224639462846FFF7A5FFB819401E76
:1018300081B222462846BDE8F04001239BE72DE90E
:10184000F04F804603208C46A0EB4206002415464C
:1018500064E00CEB050B08EB04091FFA8BF11FFA8F
:1018600089F0FFF79AF85D4F7888FFF779FFACEBC6
:10187000050A1FFA8AF11FFA89F0FFF78EF87888B7
:10188000FFF76EFFA8EB04091FFA8BF11FFA89F02E
:10189000FFF783F87888FFF763FF1FFA8AF11FFAD2
:1018A00089F0FFF77AF87888FFF75AFF0CEB040B02
:1018B00008EB05091FFA8BF11FFA89F0FFF76DF8A5
:1018C0007888FFF74DFFACEB040A1FFA8AF11FFA84
:1018D00089F0FFF762F87888FFF742FFA8EB050967
:1018E0001FFA8BF11FFA89F0FFF757F87888FFF796
:1018F00037FF1FFA8AF11FFA89F0FFF74EF8788850
:10190000FFF72EFF002E03DA06EB8406B61D04E077
:10191000601B06EB80060A366D1E641CAC4298D92B
:10192000BDE8F08F2DE9F8472C4E1446984677888D
:1019300089460546D2B2FFF763FFA41E1FFA84FA58
:10194000A8F1010084B209F101001FFA80F8B08803
:10195000ADF80000BDF80000708007E06D1CADB26E
:101960000023524641462846FFF705FF2000A4F118
:101970000104A4B2F2D1ADF80070BDF8000070808F
:10198000BDE8F8872DE9F74F07461448894682B02D
:101990004188019104990322A2EB41060D468188FA
:1019A0000024ADF80010BDF8001041804FF6FF7B19
:1019B00045E095B10BEA4502A9EB050A381B9046B4
:1019C0001FFA8AF180B20023FFF7D5FE381942468C
:1019D0001FFA8AF180B200230EE00FE044000020DD
:1019E000C0440020B88121420C180140A0012242CD
:1019F000B481224200802142FFF7BDFE9CB10BEA78
:101A00004402A9EB040A781B90461FFA8AF180B2BF
:101A10000023FFF7B0FE781942461FFA8AF180B220
:101A20000023FFF7A8FE002E03DA06EB8406B61D9E
:101A300004E0601B06EB80060A366D1E641CAC4297
:101A4000B7D90198ADF80000BDF80010FE484180FC
:101A5000049A05B049463846BDE8F04FEFE62DE957
:101A6000FC4F84460027A2EB0C000C46002801DC4A
:101A7000ACEB020001B2181B002800DCE01A00B237
:101A80000FFA8CF625B24FF0FF38624503D34FF0C2
:101A9000010BDA4601E0C346DA46A34203D34FF016
:101AA0000109C84600E0C14681424FF0000209DB4F
:101AB0009346904601EBD17252108C4614B2CDE998
:101AC000000124E0924600EBD072CDE900105210E4
:101AD0004FF00009844614B219E029463046FFF75A
:101AE000BAFD0098204404B2644508DBA4EB0C0066
:101AF00004B206EB0B0006B205EB090005B206EBDB
:101B00000A0006B205EB08007F1C05B23FB201983F
:101B10008742E2DDBDE8FC8F30B50D460446022960
:101B20000DD308E020886188241D89B2638822884B
:101B300080B2FFF794FF6D1E2D042D0CF2D130BD45
:101B40002DE9F04391460F4604468046022925D3ED
:101B5000B4F90060B4F9025010E0241DA9B2608805
:101B6000284483B22088304482B2B0B2FFF777FFB6
:101B70002088304406B26088284405B27F1E3F04A6
:101B80003F0CEAD1B9F1000F08D0ABB2B2B2B8F84D
:101B90000210B8F80000BDE8F04360E71BE630B57E
:101BA0000D460446FFF7B8FF04EB8500001F61886F
:101BB000438802882088BDE8304050E70022BFE714
:101BC0000122BDE72DE9F34FB0F80080E7B043886C
:101BD0000446C1460120659313E004EB80014A8866
:101BE0004A4500D29146424500D9904634F820102B
:101BF000994200D20B46659A914200D96591401CEA
:101C000080B268998842E8D38F488188ADF89011F6
:101C1000BDF8901141809A46A9E0002668983546A3
:101C2000401E87B248E0504603F09DFB8346649116
:101C3000669134F9250003F07FFB5A46669B03F05A
:101C4000A5FB0AD26499669134F9270003F074FB6E
:101C50005A46669B03F024FC13D96499669134F9C3
:101C6000270003F069FB5A46669B03F08FFB20D2E6
:101C700034F9250003F060FB5A46649B03F010FC26
:101C800017D804EB8700B0F9021004EB8500B0F917
:101C900002000A1A34F92510AAEB01035A4334F959
:101CA0002730591A92FBF1F108442DF81600761CE2
:101CB000B6B22F466D1CADB268988542B3D30020F2
:101CC000771E0DE06D4605EB40033DF810105A8875
:101CD000914209D925F81020598008B1401E80B2E0
:101CE000B842EFDB00253CE0401CF8E73DF815006A
:101CF0006A46404537D202EB4507798849452ED9D7
:101D0000484501D222F81590414501D9A7F8028033
:101D1000DFF834B1BBF80400ADF89001BDF89011C4
:101D2000ABF80210798832F815000023081A82B245
:101D30005046FFF720FDBBF80200ADF89001BDF85A
:101D40009011ABF80210B7F902100FFA8AF00746AB
:101D5000FFF781FC3DF915103846FFF77CFCAD1C00
:101D6000ADB2B542C2D30AF101001FFA80FA6598FC
:101D70008245FFF452AF34484188ADF89011BDF868
:101D80009011418069B0CBE5304B00211960304A99
:101D90001160304A116030490860012010601860FD
:101DA000704770472DE9F04F9A4691468B4607469B
:101DB0000026DFF89480099C1EE059463846FEF75D
:101DC000ECFDFEF7C8FD802314F801CB00250EE0E2
:101DD00013B914F801CB80231CEA030F404601D04D
:101DE000408800E08088FFF721FC5B086D1C4D45B2
:101DF000EED37F1CBFB2761C5645DED390E518B5F6
:101E000054889388921D00922246FFF7CBFF18BD9D
:101E10002DE9F74FC0B2002681460199FEF7BDFDBE
:101E20004FF0800BDFF82080FEF795FD002506EBD4
:101E3000460A019800240AEB050C00EBC50702983E
:101E400010F80C100AE0000044000020A00122421B
:101E5000B4812242B88121420C1801402BFA04F0CF
:101E60000142404601D040880BE0017841B1381969
:101E7000401C81B24846FEF790FDFEF76CFD02E083
:101E80008088FFF7D3FB641C082CD8D36D1C032D6E
:101E9000CFD39E490120086009F10100C0B28146FC
:101EA0000199FEF77AFD761C182EBDD3BDE8FE8F92
:101EB000F0B50024964D0746042604EBC40005EB5C
:101EC000C00204EB440006EBC00081B23846FFF7C5
:101ED0009FFF641CA4B20D2CEFD3F0BD8D48806829
:101EE00070478C490870704770B500242146FEF792
:101EF00054FDFEF730FD884E0022C6F8A021874829
:101F00000121016083488388854D2B60854B85685E
:101F100005E0C3F8B821C3F8B811641CA4B268780E
:101F200000EB8000B4EB801FF3D3C6F8A01170BDA6
:101F30002DE9F74FC0B29346002681460199FEF77E
:101F40002CFDB446DFF8CC813DE0FEF704FDA0682F
:101F5000A046047829E0082C01D3082700E0274692
:101F600000254FF0800A1DE01BF806102AFA05F044
:101F70000142404601D0408810E0017869B1D8F8AC
:101F800008000078011B01980844401C81B24846B3
:101F9000FEF703FDFEF7DFFC02E08088FFF746FB5B
:101FA000641E6D1CBD42DFD3761C002CD3D1574973
:101FB0000120086009F10100C0B281460199FEF7D5
:101FC000ECFC0CF1010CD8F8080044464078604560
:101FD000BBD86BE7203AD3B24E4A10B4926854682B
:101FE000927803FB024210BCA2E72DE9F0410D46B6
:101FF00080460024474E4FF4A0770BE02146404630
:10200000FFF7E8FFB068007801198CB22044B842AD
:1020100003D86D1C2A78002AF0D1BDE8F0812DE9A3
:10202000F04115460C4680463A4E4FF4A0770BE03F
:1020300021464046FFF7CEFFB068007801198CB208
:102040002044B842E9D86D1C2A78002AF0D1E4E790
:102050002DE9F04385B000261421684603F064F8AA
:102060002C4F31A1B86843780278684602F0ACFF83
:102070004FF6FF794846FEF7B6FC69460020FFF7A9
:10208000B4FFB8684FF4A07845786D1C2024E2B204
:1020900031462846FFF79EFFB86801788A19521C1E
:1020A00096B23144414514D9407800264119491C63
:1020B0008DB24119F0290CD9451C7F2C09D81D4837
:1020C000FEF7A4F94846FEF78EFC69460020FFF7AC
:1020D0008CFF641CA4B27F2CD9D905B05EE52DE934
:1020E000F0410C4D0024144FDFF84880AE6806E044
:1020F000A860FFF7ADFF4046FEF788F9641C57F86B
:1021000024000028F4D1AE6087E70000A00122423D
:102110001C5700084400002000002242B4812242E3
:102120000C1801400080214253495A453A25645811
:102130002564000000512502F0440020CE480168CB
:1021400041F0010101604168CC4A114041600168E1
:10215000CB4A11400160016821F48021016041688F
:1021600021F4FE014160016821F0A05101604FF4AB
:102170007F0181600021C1627047BF490A6822F473
:1021800080320A600A6822F480220A60B0F5803F3B
:1021900007D0B0F5802F03D1086840F4A020086074
:1021A0007047086840F48030F9E703460020590979
:1021B000B14A01290AD002290AD0516A03F01F024C
:1021C000012393400B4200D0012070471168F5E7CE
:1021D000116AF3E718B500204FF4A0640090312095
:1021E000FFF7E3FF0099491C0091A14201D00028AC
:1021F000F5D03120FFF7D9FF002800D0012018BD0D
:102200009D4A116821F0F80141EAC0001060704752
:102210009C4908607047984B5A68084322F474122E
:10222000104358607047974908667047924B10B545
:10223000DA6A954C084322401043D86210BD8E4A9A
:10224000D16A21F0F0010143D16270478A4AD16A14
:1022500021F470610143D16270478A4988667047F2
:10226000854AD16A21F470410143D16270478549A2
:1022700008677047804A516821F0030101435160AB
:1022800070477D48406800F00C0070477A4A5168FA
:1022900021F0F001014351607047774A516821F401
:1022A000E061014351607047734A516821F4605105
:1022B00041EAC000506070476F4A0029517A01D04E
:1022C000014300E08143517270476E49D831086084
:1022D0007047694A516821F4404101435160704799
:1022E0006A49086070476949091D0860704762497A
:1022F000002281F8202081F82020012802D0042823
:1023000002D1052081F820007047614908607047BC
:1023100059490A6A02430A6270475D4944390860B4
:102320007047F0B5544B59685A4A11F00C014FF000
:102330000F0604D0584C042903D0082903D00260AA
:1023400028E0046026E059685A6806EA914102F4E0
:1023500080320D2901D0891C00E00621BAB1DA6A69
:1023600012F4803FDA6A02F00F0202F101020AD091
:10237000DD6AC5F30317DD6A7F1CB4FBF7F4C5F310
:102380000325AD1C6C43B4FBF2F24A43D7E7434A42
:10239000514301605968424A06EA1111545C0168D0
:1023A000E14041605C68072505EA1424145D21FAC8
:1023B00004F484605C6805EAD424125DD140C160F5
:1023C0005A68032303EA9232354B1B1F9A5CB1FB18
:1023D000F2F10161F0BD284A0029516901D00143A1
:1023E00000E0814351617047234A0029916901D07F
:1023F000014300E08143916170471F4A0029D16980
:1024000001D0014300E08143D16170471A4A00299D
:10241000916A01D0014300E0814391627047164AFE
:102420000029D16801D0014300E08143D1607047A9
:10243000114A0029116901D0014300E08143116173
:10244000704713494039086070470E49C8647047A7
:102450000949C87170470848416A41F0807141627A
:102460007047054A0146002092680A4200D00120C8
:102470007047014988727047001002400000FFF069
:10248000FFFFF6FE00004242F0FFFEFFC40542429D
:102490008004424200127A0040787D0100093D002C
:1024A000104500208E4910B5884206D10121042034
:1024B000FFF7B5FF002104203BE08A49884206D19E
:1024C00001210820FFF7ABFF0021082031E08649F9
:1024D000884206D101211020FFF7A1FF0021102022
:1024E00027E08249884206D101212020FFF797FF8B
:1024F000002120201DE07E49884206D10121402094
:10250000FFF78DFF0021402013E07A49884206D171
:1025100001218020FFF783FF0021802009E0764918
:1025200088420AD1841501212046FFF778FF002157
:102530002046BDE81040FFF772BF10BD10B5012165
:102540000846FFF76CFF0021BDE810400120FFF7AF
:1025500066BFF0B5CC78002204F00F03E40601D585
:102560008C7823430C784FF00F0C4FF0010EDCB148
:1025700005680E880EFA02F42640A64210D1960095
:102580000CFA06F725EA070703FA06F5CE783D436D
:10259000282E02D0482E02D002E0446100E00461FF
:1025A000521C082AE5D305600A88FF2A1CD9446812
:1025B000002202F108060EFA06F50E882E40AE4201
:1025C0000ED196000CFA06F7BC4303FA06F7CE7854
:1025D0003C43282E00D14561CE78482E00D10561BC
:1025E000521C082AE5D34460F0BD4FF6FF7101800C
:1025F000022181700421C170704702460020926858
:102600000A4200D001207047806880B270470246BD
:102610000020D2680A4200D001207047C06880B212
:10262000704701617047416170470AB101617047AD
:1026300041617047C160704741F4803282618161BD
:1026400082618169806970472C4B10B51A684FF61A
:102650008074224042EA00100843186010BD2849E7
:10266000C8617047F0B5254C002801DAE36900E045
:102670006368450D2E0185B2C0F30157B540C0F324
:102680000342032F05D0C6020AD503269640B34362
:1026900007E023F07062636823F07063636002E018
:1026A000AB4343F0706201B12A43002801DAE261D2
:1026B000F0BD6260F0BD10B58A0721F003040F4938
:1026C000120F21440F238C6893409C438C608B68CD
:1026D000904003438B6010BD0949DC3108607047AE
:1026E00000080140000C01400010014000140140AE
:1026F00000180140001C0140002001400000014082
:10270000000020422749084327490860704770B5F8
:102710000F23C278017801244FF0E025DAB1224A74
:10272000126802F4E062C2F5E062120AC2F1040625
:10273000D3404278B24086781E401C4B164332018B
:10274000CA54007800F01F018C40400905EB80005E
:10275000C0F8004170BD01F01F008440480905EB3E
:102760008000C0F8804170BD114A114001430E48FD
:10277000001F016070470C4A121D0029116801D02A
:10278000014300E08143116070474FF0E0210428CD
:10279000086903D020F004000861704740F004008D
:1027A000FAE700000000FA050CED00E000E400E0AC
:1027B00080FFFF1F374900200860091D0860091DC0
:1027C0000860091D086033493348143108607047B8
:1027D00030B5304A8379016853B313688B43136073
:1027E000111D0B680468A3430B60017911440B6849
:1027F000046823430B60274B083319680468A1431E
:1028000019601C1D21680568A943216041791029C0
:1028100005D011440A68006802430A6030BD196897
:10282000026811431960216800680143216030BDCE
:102830000079104402688A43026030BD00210160C3
:1028400001710C22427181717047124910310A687E
:1028500002430A60704701460E4A00201432126893
:102860000A4200D0012070470A49143108607047BD
:10287000084A014600201268064B0A4014331B68C0
:102880000B4202D0002A00D00120704701491431C8
:102890000860704700040140FFFF0F00C64910B5F3
:1028A00088420AD101218C032046FFF7B8FD20465B
:1028B000BDE810400021FFF7B2BDC049884202D1F7
:1028C00001214C0410E0BE49884202D101218C0450
:1028D0000AE0BC49884202D10121CC0404E0BA4993
:1028E00088420AD101210C052046FFF7A1FD2046B0
:1028F000BDE810400021FFF79BBD10BD30B5044678
:10290000008A85B00D464CF6FF710840E988014306
:102910002182A0894EF6F3110840A9882A89114323
:102920006A8902431143A181A08A4FF6FF41084002
:10293000A9890143A1826846FFF7F3FC9E488442BF
:1029400001D1039800E00298A1890904002900EB55
:10295000C00101EB0010296802DA4FEA410101E0F1
:102960004FEA8101B0FBF1F06422B0FBF2F14FEAD3
:1029700001114FEA11136FF018056B4300EB830050
:10298000A3891D044FF0320306D503EBC000B0FB52
:10299000F2F000F0070005E003EB0010B0FBF2F0EE
:1029A00000F00F000843208105B030BD4FF41651F0
:1029B000016000218180C18001810C2242818181DE
:1029C000704710B5028A4FF2FF031A400B884C88FB
:1029D00023438C88C9880C4323431343038210BDCF
:1029E0000021018041808180C18070470029818958
:1029F00002D041F4005101E021F40051818170477F
:102A000010B5C1F3421301F01F040121A140012BB5
:102A100007D0022B07D01430002A026805D00A43E1
:102A200004E00C30F8E71030F6E78A43026010BD8E
:102A3000002A828A01D00A4300E08A4382827047DA
:102A4000028A22F00F020282028A0A43028270473F
:102A5000828922F40062828182890A4382817047DE
:102A60000029818902D041F0020101E021F0020138
:102A700081817047028A22F020020282028A0A4380
:102A8000028270470029018A02D041F4804101E0AE
:102A900021F4804101827047C1F3080181807047B1
:102AA0008088C0F308007047818941F0010181816D
:102AB0007047028BD2B20283028B42EA012101836A
:102AC0007047028B02F47F420283028B0A43028327
:102AD00070470029818A02D041F0200101E021F0F5
:102AE0002001818270470029818A02D041F01001C3
:102AF00001E021F01001818270470029818A02D013
:102B000041F0080101E021F00801818270470029AD
:102B1000818902D041F4004101E0C1F30E018181BD
:102B200070470029818A02D041F4006101E021F45C
:102B3000006181827047828A22F004028282828A46
:102B40000A43828270470029818A02D041F0020143
:102B500001E021F0020181827047024600201288C4
:102B60000A4200D001207047C9430180704770B508
:102B700001F01F0501260024C1F3421306FA05F2F5
:102B8000012B0FD0022B0FD0838A4FEA112100882E
:102B9000134206FA01F600EA060001D000B1012452
:102BA000204670BD8389F0E7038AEEE70A0A012117
:102BB0009140C94301807047003801400044004003
:102BC00000480040004C0040005000400CB500227E
:102BD000624800920192016841F4803101604FF433
:102BE000A063016801F4003101910099491C009132
:102BF000019911B900999942F3D10168890342D52D
:102C00000121019156490A6842F010020A600A68DF
:102C100022F003020A600A6842F002020A60416878
:102C2000416041684160416841F480614160C16A2E
:102C30004C4A1140C162C16A4B4A1143C1620168EA
:102C400041F08061016001680901FCD5416821F40F
:102C50007C114160416841F4E8114160016841F034
:102C60008071016001688901FCD5416821F0030190
:102C70004160416841F0020141604168C1F3810156
:102C80000229FAD10CBD01920CBD344810B501687F
:102C900041F0010101604168344A1140416001681E
:102CA000334A11400160016821F4802101604168CC
:102CB00021F4FE014160016821F0A05101604FF450
:102CC0007F0181600021C162FFF780FF29494FF039
:102CD0000060086010BD70B5204B5868264A27492F
:102CE00010F00C0004D0264C042803D0082803D090
:102CF0000A6029E00C6027E058685A680F2505EA49
:102D0000904002F480320D2801D0801C00E00620A3
:102D1000BAB1DA6A12F4803FDA6A02F00F0202F105
:102D200001020AD0DD6AC5F30316DD6A761CB4FB26
:102D3000F6F4C5F30325AD1C6C43B4FBF2F2424339
:102D4000D6E7104A5043086058680C4AC0F3031095
:102D5000121D105C0A68C2400A6070BD001002407B
:102D60000020024000F0FEFF440601000000FFF0DA
:102D7000FFFFF6FE08ED00E000127A00204500207B
:102D800040787D0100093D00094880470948004717
:102D9000FEE7FEE7FEE7FEE7FEE7FEE7FEE7FEE70B
:102DA000FEE7FEE704480549054A064B7047000068
:102DB0008B2C00085101000808460020084C002018
:102DC000084800200848002001608280C380042158
:102DD00001844184521F82845B1FC3848283C38326
:102DE000012180F8381080F839100023FE49036370
:102DF00041646FF07F41C0E90F13036143611946DD
:102E0000836100EBC102491CD364C9B282F850301F
:102E10000229F6D3F549086001207047F34908609C
:102E200001207047F149026809680A6382888A862E
:102E3000C088C88670472DE9F84F8046DDF828A085
:102E40001F4616460D46424501DA46469046AF42B9
:102E500001DA0F461D46DFF89493D9F8000090F888
:102E60005810890719D5CDF800A0446D3B4632466D
:102E700029464046A047002811D00EE0444608E00D
:102E8000D9F8000052462946036820469847641C3A
:102E900024B2B442F4DD6D1C2DB2BD42EEDDBDE8BE
:102EA000F88F08B50090D1480068C1888088491E15
:102EB0000BB2401E02B200210846FFF7BCFF08BD5E
:102EC0002DE9F84F81461C46154688464A4501DAE9
:102ED0004D469146444501DA44469846C348006849
:102EE00090F85010890709D50A990091C66C2346BD
:102EF0002A4641464846B0470028D0D0A5EB0900F5
:102F000000B2A4EB080109B2002801DD024600E08E
:102F1000424215B2002901DD0A4600E04A4214B2DD
:102F20004FF0FF32002801DD012000E0104683460B
:102F3000002900DD0122AD489246671000686E103E
:102F40004146036848460A9A9847A5421BDB00277A
:102F500016E0301906B2AE4205DB701B06B208EB74
:102F60000A000FFA80F809EB0B000FFA80F99F486E
:102F700041460A9A00680368484698477F1C3FB25A
:102F8000AF42E6DB8BE7002616E0781907B2A742CE
:102F900005DB381B07B209EB0B000FFA80F908EBD1
:102FA0000A000FFA80F8914841460A9A00680368BF
:102FB00048469847761C36B2A642E6DB6FE72DE915
:102FC000FF4F83B08246DDE910489B46914610468C
:102FD000524501DAD1468246049918468B4501DAFA
:102FE0008B460490002C64DD0320A0EB440007B264
:102FF000A9EB040002B20AEB04000025264600B249
:103000005B46CDF800800499FFF715FF4FE0002ED6
:103010001DDD06EB0B00001B03B2049909EB050054
:10302000891B001B214400B209B2CDF80080029335
:1030300002460191FFF744FFAAEB0500CDF800809E
:103040002044DDE9011300B20246FFF739FF002DED
:103050001DDD05EB0B00001B03B20499AAEB060073
:10306000491B2044214400B209B2CDF800800293EC
:1030700002460191FFF724FF09EB0600CDF800801E
:10308000001BDDE9011300B20246FFF719FF002F14
:1030900004DA07EB8500801D07B206E0A81B07EBEA
:1030A00080000A30761E07B236B26D1C2DB2B542D2
:1030B000ADDD07B0BDE8F08F2DE9F0478046DDF8C3
:1030C00020A01F461646424501DA464690468F42EA
:1030D00001DA0F4619460D46DFF810910EE044461E
:1030E00008E0D9F800005246294603682046984770
:1030F000A41C24B2B442F4DDAD1C2DB2BD42EEDD01
:10310000BDE8F0872DE9F8431E46089C174688461F
:1031100005460B460094FFF7D3FE33463A46194660
:1031200028460094FFF7CCFE2A4633464146104617
:103130000094FFF7C5FE3A463346414610460094D8
:10314000FFF7BEFEBDE8F8832DE9F84F98460E461E
:10315000071E7CDB002E7ADB002A78DD0120A0EB45
:1031600042000FFA80FA0020814614460546DFF837
:103170007CB000907FE05FEAC87008D0DBF80020E8
:10318000701B01B23819136800B20A9A98475FEAB7
:10319000887008D5DBF80020301B01B2781913685D
:1031A00000B20A9A98475FEA487008D5DBF8002019
:1031B000301B01B2781B136800B20A9A98475FEA85
:1031C000087008D5DBF80020701B01B2381B1368AB
:1031D00000B20A9A98475FEAC8600ED5701901B22A
:1031E000381B00B204E00000EF8B5E003445002085
:1031F000DBF8002013680A9A98475FEA886008D5D0
:10320000DBF80020301901B2781B136800B20A9A6B
:1032100098475FEA486008D5DBF80020301901B212
:103220007819136800B20A9A98475FEA086008D5CF
:10323000DBF80020701901B23819136800B20A9A3D
:10324000984700996D1C2DB209EB010000E015E0D4
:103250000FFA80F9881C00B200900AEB49000028A0
:1032600009DD09EB0A000FFA80F9641E0AF1020079
:1032700024B20FFA80FAAC42BFF67DAF0FE62DE91B
:10328000F84F0746DDE90A54984616468946BA4281
:1032900001DA3E4617461846C84501DAC846814657
:1032A000B54245DC454543DC701B79190FFA80FABD
:1032B0000FFA81FB4B465246194658460094FFF7D9
:1032C000FFFD43465246194658460094FFF7F8FD65
:1032D000A8EB050003B209EB050001B23A46984697
:1032E000894610460094FFF7EBFD324643464946B7
:1032F00010460094FFF7E4FD494658460C232A4641
:103300000094FFF721FF4946504603232A460094C4
:10331000FFF71AFF4146584630232A460094FFF72C
:1033200013FF41465046C0232A460094FFF70CFF86
:10333000B5E5F74B1B681B6818472DE9FF4F83B0B5
:103340008846B0F1000975DBB8F1000F72DB002A86
:1033500070DD01204FF0000BA0EB420007B25E468B
:1033600014465D4664E008EB050001B2A9EB0400D9
:10337000DFF89CA300B2CDE90101DAF80020136860
:10338000069A9847A8EB050001B20091DAF80020F0
:1033900001981368069A984709EB040000B201905F
:1033A000DAF8002002991368069A9847DAF80020A4
:1033B000DDE900101368069A984708EB040001B293
:1033C000A9EB050000B2CDE90101DAF8002013688D
:1033D000069A9847A8EB040001B20091DAF80020A1
:1033E00001981368069A984709EB050000B201900E
:1033F000DAF8002002991368069A9847DAF8002054
:10340000DDE900101368069A984706EB0B0006B238
:103410000BF102006D1C0FFA80FB07EB46002DB28A
:10342000002805DD641EF019BF1C24B206B23FB2AD
:10343000AC4298DA3DE62DE9FF4F81B099460F4640
:10344000B0F1000859DB002F57DB0398002854DD4A
:103450000321A1EB400006B20024039D43E0002DB0
:1034600017DD781903B2A8EB0400791B00B209B28A
:103470009B468A460246CDF80090FFF721FD08EBF7
:10348000040000B25B4651460246CDF80090FFF7BB
:1034900017FD002C17DD381903B2A8EB0500391B06
:1034A00000B209B29B468A460246CDF80090FFF76B
:1034B00007FD08EB050000B25B4651460246CDF819
:1034C0000090FFF7FDFC002E04DA06EB8400801D5F
:1034D00006B206E0601B06EB80000A306D1E06B2E5
:1034E0002DB2641C24B2AC42B9DD039A05B04B4640
:1034F00039464046BDE8F04F1FE705B0DAE52DE953
:10350000FF4F81B0DC2816D008DCB0281BD0B528CE
:1035100017D0C42813D0D62816D108E0E4280CD040
:10352000F62802D0FC280FD103E094200CE099206B
:103530000AE0812008E09A2006E0842004E08E2042
:1035400002E0E62000E0F820714B1FFA82F81968CB
:103550008A8E002AD1D04FEAD20B91F8342052073C
:1035600001D00BF1010BB1F936400A6B00FB0BF0F7
:1035700004FB002A00202CE00299878E8CB20020E8
:103580001DE01AF8016B002514E0F00760480068A0
:10359000036801D0049A00E00E9A0FFA88F120B275
:1035A0009847641C7F1E6D1C7608ADB2A4B2BFB2F2
:1035B000082D01D2002FE8D109F1010080B2814627
:1035C0005845DED308F101001FFA80F80098401C2E
:1035D00080B24F4A009000991068B0F936308B42A3
:1035E000CADC8AE72DE9F84315460E46074604462D
:1035F000DFF81C8124E0BCF10A0F27D0D8F80000C6
:10360000B0F93420B0F9043022445B1E9A4206DD42
:10361000C28E90F939303C461A44324416B2016CDD
:103620000091C36B324621466046FFF768FFD8F829
:103630000000818E90F938000844204404B26D1CCB
:1036400095F800C0BCF1000FD5D17BE5D8F800009B
:10365000B0F90440F3E7F8B505462D4F38E00A2EDF
:103660003AD03C68B4F9340094F93810A28B014484
:10367000114409B2A183B4F924200844904208DD22
:10368000208CA083E08E94F939100844E18B084423
:10369000E083B4F91E00B4F93610B4F926300844BA
:1036A000984209DDB4F92000A083B4F92210E18327
:1036B000E46A0094FFF7BFFB3868C16A0091B0F973
:1036C0001E20B0F91C10836A3046FFF718FF6D1CEE
:1036D0002E78002EC3D1F8BD386881888183F6E743
:1036E00010B50B4C246820846184A284E38410BD4F
:1036F000074909688862704705490968C8627047C8
:1037000003490968C863704701490968086470473C
:1037100034450020F7480068B0F90400F7E7F548A1
:103720000068B0F90600F2E7F249096881F838004C
:10373000EDE7F049096881F83900E8E72DE9F04F35
:103740008DB00546B0F908000590B5F90A30B5F915
:103750000C000490B5F90E40287E07906868B0F917
:1037600004100091B0F906200292B5F91A100191E7
:10377000B5F91C100391D5F800B00068594600282F
:103780006FD0BBF1000F6CD0E41A944269DB0120CA
:1037900004E00A2A01D1401C80B2491C0A78002AA0
:1037A000F7D1079A002112F0300F0DD0641C029A55
:1037B00021B202FB1011C0F10102039809B200FB13
:1037C000021001B200294CDB0798C00600D5491051
:1037D000C818ADE0491C401C80B20A780AB10A2A18
:1037E000F8D1DDE90421511A491C009A09B202FB03
:1037F0001011C0F10102019809B200FB021000B2E1
:1038000000282EDB0799C90701D0002003E00799A3
:10381000890700D540100599084400B20A907BE062
:1038200000291ED0DC2916D008DCB0291CD0B5290F
:1038300018D0C42913D0D62917D108E0E4290CD018
:10384000F62902D0FC2910D103E094210DE0992142
:103850000BE0812109E09A2107E0842105E08E2117
:1038600003E06AE0E62100E0F821099886B20098BA
:10387000C0F3CC0006900098400702D00698401C88
:1038800006906868029A51430068069A01FB02009C
:103890000890002033E00A9884B200981FFA80F95B
:1038A000002023E00898002710F8018B089017E00B
:1038B0005FEAC87001D02A6900E06A698D4831B2B8
:1038C0000068036820B29847641C7F1CA9F10100BE
:1038D000BFB24FEA5808A4B21FFA80F9082F02D2EB
:1038E000B9F1000FE4D10AF1010080B206998246D5
:1038F0008842D7D3761C0B98B6B2401C80B202998E
:103900000B908842C7DBDDE9000101440A980BF106
:10391000010B084400B20A909BF800100A297FF4BA
:103920007FAFDDE90201014409980BF1010B084466
:1039300000B20990002059464FE70DB0BDE8F08F66
:1039400030B500210478436808E003EB41100278A9
:10395000D50701D0920704D4491CC9B28C42F4D8CF
:10396000002030BDF0B50023067845680EE005EB79
:1039700043100478E70707D1A40705D5047E8C42DD
:1039800002D1447E944204D05B1CDBB29E42EED84E
:103990000020F0BD00B5FFF7E5FF4FF0FF3218B192
:1039A000017811F0280F01D0104600BD03210170ED
:1039B0000021C161817641764170017641600846FF
:1039C00000BDF0B54B49077800230968B1F90A40FA
:1039D000B1F90C500E7A54E0416801EB431292F8B1
:1039E00000C051785FEACC7E48D15FEA8C7E45D535
:1039F0005FEA0C7E42D55FEA4C6C3FD43EB314F1D3
:103A0000010C24D05FEA416C03D421F0980141F00D
:103A10000501B2F908C021F02001A44514DCB2F977
:103A20000CC0A44510DBB2F90AC0AC450CDCB2F9FD
:103A30000EC0AC4508DB41F020015FEA416C03D4C5
:103A400021F0040141F0020141F0400116E05FEA7B
:103A5000416C13D55FEA816C07D55FEA817C01D5A3
:103A600041F0800141F0080101E041F010015FEAFE
:103A7000416C01D541F0010121F046015B1C517000
:103A80009BB2BB42A8D3F0BD2DE9F047804690F829
:103A9000009000261CE0D8F8040000EB46152C78B6
:103AA0006F78E00712D1A00710D5A00603D56A6889
:103AB000294640469047200708D5200606D517F02E
:103AC000410F03D06A68294640469047761CB6B23B
:103AD0004E45E0D3BDE8F0872DE9F84305460020C8
:103AE000044F04463F1D0221786039702E788046CD
:103AF000E9461AE034450020686800EB4410009065
:103B00000178CA070FD189070DD5817E59B1C7F851
:103B10000490017E7970407EB870296CF748884720
:103B2000009981F81A80641CA4B2B442E4D38CE5F5
:103B30002DE9FF4F81B0DDF83880D8F80000009003
:103B4000DDE90230401E02B2924619460198FFF7A5
:103B5000B7F9D8F8040000900498401E03B2DDE9DC
:103B60000120401C01B21F4689461046FFF7A8F904
:103B7000D8F808000090DDE9032319460198FFF703
:103B80009FF9DDE90212D8F80C0000903B46104680
:103B9000FFF796F9D8F81000009003984B46801E66
:103BA00002B201989346401C00B219460646FFF740
:103BB00087F9D8F81400009004983246801E03B2AA
:103BC00002981D46801C01B20C461046FFF778F99A
:103BD000D8F818003B460090524619463046FFF789
:103BE0006FF9D8F81C00524600902B464946104603
:103BF000FFF766F9D8F82000009003982346C01E0E
:103C000002B201981946801C00B20646FFF758F927
:103C1000D8F82400009004983246C01E03B20298DF
:103C20001F46C01C01B21046FFF74AF9D8F8280019
:103C30002B4600905A4619463046FFF741F9D8F80E
:103C40002C005A4600903B4621461046FFF738F9B3
:103C500053E4022808D2A94A121F126802EBC000DE
:103C6000C164032180F8501051E502280CD2A34909
:103C7000091F096801EBC00090F85010CA0703D073
:103C800041F0020180F8501041E502280CD29B4916
:103C9000091F096801EBC00090F85010CA0703D053
:103CA00021F0020180F8501031E52DE9F0418AB091
:103CB000040059D0207A800756D5207FB4F91460CB
:103CC000B4F91650B4F91870C00705D0F61CED1CF5
:103CD000FF1E36B22DB23FB28848001F006840690F
:103CE000A04203D1206B0690E06A02E0A06B069030
:103CF000606B0590069820340090217FA5F10108A3
:103D000001EB080003B23A4629463046FFF793F824
:103D10002068019060680290F01CADF80C00ADF8CE
:103D20000E50ADF81070217F01EB0800ADF81200C5
:103D3000A07A8DF81C0094F90800ADF81E0094F9E3
:103D40000900ADF8200001A8FFF7F8FC6C480090CE
:103D5000207F3A46284401B20B463046FFF7B0F8C0
:103D600000200AB0BDE8F0814FF0FF30F9E72DE9FF
:103D7000F843B0F91410B0F918200446B0F9165001
:103D8000B0F91A70007A0E4620F02000904620729A
:103D9000030748D5217FC90715D0400613D45948D9
:103DA00000903B4629463046FFF7C2FE06F1030667
:103DB00005F10305A8F10300A7F1030736B22DB200
:103DC0000FFA80F83FB2207F80070FD52046FFF71B
:103DD0006CFF94F83C0005F10105284405B2207AF7
:103DE000410603D520F0400020722EE420690090A7
:103DF0003B46424629463046FFF71DF8237800200F
:103E00000EE0616801EB40121178CD0706D18D07F5
:103E100004D50D0702D541F060011170401C80B23D
:103E20009842EED311E435483B46001F0068406CD1
:103E300000903046FEF7FFFF07E410B52F4C241F1B
:103E4000216891F84800C20703D020F0010081F8F2
:103E50004800D1E9042082422CD05AB3C1E90520A0
:103E6000017F89071CD5017A090719D5B0F914100B
:103E7000B2F91430994211D1B0F91810B2F91830D2
:103E800099420BD1B0F91610B2F91630994205D10A
:103E9000B0F91A10B2F91A20914201D0FFF705FFCC
:103EA00020684269117A21F040011172406941F0A5
:103EB0002801017220684469002C12D0207A800603
:103EC00002D52046FFF753FF207A000709D5204688
:103ED000FFF777FD2046FFF7D7FD2046BDE81040ED
:103EE000FAE510BD0548001F016811F8480F40F0C1
:103EF00001000870C107FDD109E400003845002029
:103F0000A0A0A00054BC00082DE9F0471668904618
:103F10008946002E2AD098F80810102926D182460A
:103F200000271FE05446002512E036F8020BC10AB4
:103F3000C0F34512C90441EA8222C00642EA106277
:103F40002046641C24B24946FFF7F3F96D1C2DB2DC
:103F5000B8F80400A842E8DC09F101007F1C0FFA60
:103F600080F93FB2B8F80600B842DBDCB2E5F74BA7
:103F70001B68588199811A7276E6F0B5040005D065
:103F800021B11AB100200646032708E04FF0FF30A8
:103F9000F0BD01EB4015401C2F70C0B2EE619042A5
:103FA000F7D3227061600221E9482172C4E90360FD
:103FB000A682E682FFF7AEFB401E2083FFF7AFFB31
:103FC000401E6083236427772662666284F8281087
:103FD00084F82910112084F82A006FF07F40FF2117
:103FE000C4E90B016063DB48A0630F2084F83C0048
:103FF0000020F0BDD5494FF0FF3209684969814280
:104000000FD070B1017A89070BD5002101720164CC
:10401000017041608182C18201834183017708463A
:1040200022E6104620E650B1017A21F0400141F02D
:1040300028010172C54909680861002014E64FF0A3
:10404000FF3011E638B5040023D0207A01071ED5D1
:10405000BE4D20F0080020722868406C0090B4F932
:104060001A30B4F91820B4F91610B4F91400FEF798
:10407000E2FE29684869A04209D0027A130706D5F2
:1040800022F040020272486942F0200101720020D1
:1040900038BD4FF0FF3038BD70B580B3AB4C2368EE
:1040A0005A6982422CD1996901B30D7A2D071DD529
:1040B000B1F91420B0F914309A4211DCB1F916208C
:1040C000B0F916309A420BDCB1F91820B0F918306B
:1040D0009A4205DBB1F91A10B0F91A20914201DABF
:1040E000FFF7B0FF2068816901610BE0107A20F0D2
:1040F00008001072596940F02000087202E003E0E5
:10410000FFF7A0FF002070BD4FF0FF3070BDF8B585
:104110000446069FFFF7FEFA401E06B2FFF7FFFABD
:10412000A0F1010005B24FF0FF30002C62D094F8EE
:1041300008C05FEA8C7E5DD500295BDB002A59DB75
:10414000B34257DCAF4255DCA3EB010E0FFA8EFEF3
:10415000BEF10A0F4EDBA7EB020E0FFA8EFEBEF188
:104160000A0F47DBA182E282238367835FEA0C7038
:104170003FD5764F38684169A1423AD142B1406C8F
:10418000521E13B20021009032460846FEF753FE3D
:10419000608B401C01B2A94207DC38682B463246CE
:1041A000406C00900020FEF746FEB4F9140058B1B0
:1041B0003968401E02B2496C0091B4F91A30B4F962
:1041C00016100020FEF737FE208B401C00B2B042D4
:1041D00009DC39683246496C0091B4F91A30B4F9F7
:1041E0001610FEF728FE207A20F0400040F0200054
:1041F00020720020F8BD40B1027A930705D5016313
:1042000042F06001017200202EE54FF0FF302BE5F7
:10421000002118B1027A920700D5016B084623E508
:1042200040B1027A930705D5C16242F06001017284
:10423000002019E54FF0FF3016E5002118B1027A91
:10424000920700D5C16A08460EE570B50446FFF72F
:10425000F4FF05462046FFF7DBFF01462046FFF747
:10426000DFFF401C4FF0FF3607D029462046FFF7FE
:10427000C2FF401C01D0002070BD304670BD40B16F
:10428000027A930705D5C16042F020010172002037
:10429000EAE44FF0FF30E7E440B1027A930705D536
:1042A000016142F0200101720020DDE44FF0FF3097
:1042B000DAE440B1027A930705D5416342F0600128
:1042C00001720020D0E44FF0FF30CDE440B1027A1B
:1042D000930705D5816342F0600101720020C3E4B9
:1042E0004FF0FF30C0E440B1027A930705D5016278
:1042F00042F0600101720020B6E44FF0FF30B3E4F9
:1043000010B5A8B1027A930712D542F0600202728A
:104310004162B1F9061090F83C404B1C9C4205DC10
:10432000891C80F83C1022F040010172002010BD71
:104330004FF0FF3010BD78B1027A93070CD580F8AA
:10434000281042F06001017200208DE43445002005
:10435000F0F0F000808080004FF0FF3084E448B13E
:10436000027A930706D580F8291042F060010172A5
:10437000002079E44FF0FF3076E448B1027A9307E9
:1043800006D580F82A1042F06001017200206BE42B
:104390004FF0FF3068E458B1027A930708D580F8EF
:1043A0003C1022F0400141F02001017200205BE44A
:1043B0004FF0FF3058E438B54FF0FF3480B1027A47
:1043C00092070DD58182B0F91A200092B0F9183009
:1043D000B0F91620FFF79BFE401C01D0002038BD2D
:1043E000204638BD38B54FF0FF3490B1027A9207BD
:1043F0000FD5C182B0F91A200092B0F914500A46C4
:10440000B0F918302946FFF782FE401C01D0002089
:1044100038BD204638BD38B54FF0FF3490B1027A30
:1044200092070FD50183B0F91A200092B0F9145009
:104430000B46B0F916202946FFF769FE401C01D053
:10444000002038BD204638BD38B54FF0FF3480B16C
:10445000027A92070DD541830091B0F91830B0F976
:104460001620B0F91410FFF752FE401C01D00020B6
:1044700038BD204638BDC8B1027A930716D5CB07A0
:10448000037F02D043F0010301E023F00103890719
:104490000377D9B202D541F0020101E021F0020117
:1044A000017742F020010172002025E54FF0FF3036
:1044B00022E5002118B1027A920700D5C1680846AA
:1044C0001AE5002118B1027A920700D50169084661
:1044D00012E5002118B1027A920700D5416B084617
:1044E0000AE5002118B1027A920700D5816B0846CF
:1044F00002E5002118B1027A920700D5016A084648
:10450000FAE4002118B1027A920700D5416A084600
:10451000F2E4002120B1027A920701D590F9281027
:104520000846E9E4002120B1027A920701D590F90A
:1045300029100846E0E4002120B1027A920701D553
:1045400090F82A100846D7E4002120B1027A920799
:1045500001D590F83C100846CEE44FF0FF3120B171
:10456000027A920701D5B0F914100846C4E44FF05E
:10457000FF3120B1027A920701D5B0F91610084632
:10458000BAE44FF0FF3120B1027A920701D5B0F9B9
:1045900018100846B0E44FF0FF3120B1027A9207BC
:1045A00001D5B0F91A100846A6E4002118B1027A24
:1045B000920700D5017F08469EE470B540B3027AA9
:1045C000920725D5B0F914200A80B0F916504D8015
:1045D000B0F918408C80B0F91A30CB80067FF6070E
:1045E0000BD002F103020A8005F103054D80A4F10E
:1045F00003048C80A3F10303CB80027F920705D5CF
:104600004A8890F83C001044401C4880002070BD4F
:104610004FF0FF3070BD01004FF000000ED00A7A5D
:1046200092070BD5088B8A8A097F801A00B2C907C6
:1046300001D0801F00B2002800DA00205CE40100F5
:104640004FF0000009D00A7A920706D5088B898AB4
:10465000401A00B2002800DA00204DE401004FF0BB
:10466000000016D00A7A920713D5488BCA8AA0EBAD
:1046700002000A7F00B2D30702D0A0F1060000B208
:10468000920703D591F83C10401A00B2002800DAD6
:10469000002031E401004FF0000009D00A7A9207AF
:1046A00006D5488BC98A401A00B2002800DA0020DB
:1046B00022E470B5064648780C46CD698CB0C10737
:1046C0001AD0010605D50121A176217841F02001FB
:1046D00021708007287802D540F0010003E0C1076F
:1046E00006D020F001002870207840F020002070D3
:1046F000607820F001006070207881067CD5010789
:104700007BD5400602D4287880076CD509A93046AD
:10471000FFF753FF218ABDF8240001442181618AFB
:10472000BDF8262011446181A18A084400B2A0810D
:10473000E18ABDF82620114409B2E181B6F91A20B8
:10474000914259DAB6F91810884255DA6878C007EC
:1047500001D0032600E00126A8680690686805904D
:104760002878C0070CD06878810703D56868069060
:10477000A86804E0400703D528690690E86805901A
:1047800006980090E089801B03B2A089801B02B2CA
:104790006089304401B22089304400B2FEF74BFBFF
:1047A00020893044ADF80C0060893044ADF80E002B
:1047B000A089801BADF81000E089801BADF81200C5
:1047C00012208DF81C00686902900220ADF81E00CE
:1047D000ADF82000A869019001A8FEF7AFFF20788E
:1047E00020F0400020706878C00728784FEAC07039
:1047F00012D018B1FA4803E02EE01DE0F84830303E
:104800000090B4F90E30B4F90C20B4F90A10B4F9E0
:104810000800FFF78DF91BE008B1286900E0E8689F
:104820000090B4F90E30B4F90C20B4F90A10B4F9C0
:104830000800FEF767FC0BE030690090B4F90E3019
:10484000B4F90C20B4F90A10B4F90800FEF7F3FA31
:10485000207820F0200020700CB070BD2DE9F043CE
:104860001E46DDE9088917460C460546DDF81CC0E2
:10487000FFF766F84FF0FF3150B3002222702B692A
:10488000A360EB6863602B692361EB68E36001233D
:104890006370D4A5C4E90525AFF2E91545604270FF
:1048A000037682760682A0F812C0A0F81480A0F8E1
:1048B0001690018141818181C18147760178C4616F
:1048C00021F0010141F0CA0101700020BDE8F08330
:1048D0000846FBE70A460121FFF75CB800B50A4627
:1048E0000121FFF73FF828B1017841F0680101701C
:1048F000002000BD4FF0FF3000BD00B50A46012189
:10490000FFF730F878B1C1690A7822F001020A7025
:10491000002141708176017821F0080141F02001E9
:104920000170002000BD4FF0FF3000BD10B51446EF
:104930000A460121FFF716F838B1C1694C600178C9
:1049400041F060010170002010BD4FF0FF3010BD3C
:1049500010B514460A460121FFF704F838B1C169C1
:104960008C60017841F060010170002010BD4FF0B3
:10497000FF3010BD10B514460A460121FEF7F2FFC4
:1049800038B1C169CC60017841F06001017000204C
:1049900010BD4FF0FF3010BD10B514460A4601217E
:1049A000FEF7E0FF38B1C1690C61017841F06001A8
:1049B0000170002010BD4FF0FF3010BD10B514463F
:1049C0000A460121FEF7CEFF38B1C1698C6101783A
:1049D00041F060010170002010BD4FF0FF3010BDAC
:1049E00010B514460A460121FEF7BCFF38B1C16973
:1049F0004C61017841F060010170002010BD4FF062
:104A0000FF3010BD30B514460A460121FEF7AAFF5B
:104A100068B1C169A5074A7822F006024A700B788E
:104A200043F002030B7005D542F0020206E04FF09E
:104A3000FF3030BD650703D542F004024A7002E042
:104A400023F002020A70E2074A7802D042F0010223
:104A500001E022F001024A70017841F0600101702A
:104A6000002030BD10B50A4600240121FEF77AFF70
:104A700008B1C0694468204610BD10B50A4600243C
:104A80000121FEF76FFF08B1C0698468204610BDA0
:104A900010B50A4600240121FEF764FF08B1C06981
:104AA000C468204610BD10B50A4600240121FEF757
:104AB00059FF08B1C0690469204610BD10B50A4607
:104AC00000240121FEF74EFF08B1C0698469204629
:104AD00010BD10B50A4600240121FEF743FF08B1BE
:104AE000C0694469204610BD10B50A460024012162
:104AF000FEF738FF08B1C0694478204610BD70B594
:104B0000064608780C46CD698CB0810666D501074B
:104B100054D540065ED509A93046FFF74EFD218ADF
:104B2000BDF8240001442181618ABDF8262011448A
:104B30006181A18A084400B2A081E18ABDF82620E3
:104B4000114409B2E181B6F91A20914246DAB6F968
:104B50001810884242DA28690690E868059006989D
:104B60000090B4F90E30B4F90C20B4F90A10B4F97D
:104B70000800FEF760F92089ADF80C006089ADF8F7
:104B80000E00A089ADF81000E089ADF81200287D74
:104B90008DF81C006868029095F91500ADF81E00AC
:104BA00095F91600ADF820002868019001A8FEF7DD
:104BB000C5FD207820F0400020700BE030690090A7
:104BC000B4F90E30B4F90C20B4F90A10B4F90800A5
:104BD000FEF731F9207820F0200020703CE600003C
:104BE00084BC00082D0000002DE9F0431E46DDE9DD
:104BF000088917460C460546DDF81CC0FEF7A0FEE6
:104C00004FF0FF3238B30021216061602172EB6800
:104C1000E3602B6923611223237502236375A37557
:104C2000AFF2251545604170037681760682A0F8C3
:104C300012C0A0F81480A0F81690028142818281EF
:104C4000C28147760178C46121F0010141F04A0137
:104C5000017000203AE6104638E60A460221FEF7C7
:104C600099BE00B50A460221FEF77CFE28B1017804
:104C700041F068010170002000BD4FF0FF3000BD21
:104C800000B50A460221FEF76DFE38B1017821F029
:104C9000080141F020010170002000BD4FF0FF30FD
:104CA00000BD10B514460A460221FEF75BFE38B17E
:104CB000C169CC60017841F060010170002010BD35
:104CC0004FF0FF3010BD10B514460A460221FEF722
:104CD00049FE38B1C1690C61017841F06001017091
:104CE000002010BD4FF0FF3010BD10B514460A462D
:104CF0000221FEF737FE38B1C1690C60017841F03E
:104D000060010170002010BD4FF0FF3010BD10B5E4
:104D100014460A460221FEF725FE38B1C1694C60EF
:104D2000017841F060010170002010BD4FF0FF30AC
:104D300010BD10B514460A460221FEF713FE38B125
:104D4000C1694C75017841F060010170002010BD0F
:104D50004FF0FF3010BD10B514460A460221FEF791
:104D600001FE38B1C1698C75017841F060010170B4
:104D7000002010BD4FF0FF3010BD10B514460A469C
:104D80000221FEF7EFFD38B1C1690C75017841F0E1
:104D900060010170002010BD4FF0FF3010BD10B554
:104DA0000A4600240221FEF7DDFD08B1C069C4688F
:104DB000204610BD10B50A4600240221FEF7D2FDA0
:104DC00008B1C0690469204610BD10B50A46002428
:104DD0000221FEF7C7FD08B1C0690468204610BD76
:104DE00010B50A4600240221FEF7BCFD08B1C069D7
:104DF0004468204610BD10B50A4600240221FEF783
:104E0000B1FD10B1C06990F91540204610BD10B534
:104E10000A4600240221FEF7A5FD10B1C06990F9F1
:104E20001640204610BD10B50A4600240221FEF7A8
:104E300099FD08B1C069047D204610BDFEB5064647
:104E400008780C46CD69810649D5010737D540065B
:104E500041D501A93046FFF7B0FB218ABDF80420F7
:104E6000881803B22381608ABDF8067007443FB2F8
:104E70006781D5F800C0BCF804C06144114409B290
:104E8000A1812A68D2881044BDF80620104400B2DF
:104E9000E081B6F91A20904221DAB6F91800814271
:104EA0001DDA2A6832B12879C00703D0394618467E
:104EB000FFF72AF8207820F0400020700BE03069DE
:104EC0000090B4F90E30B4F90C20B4F90A10B4F91A
:104ED0000800FDF7B0FF207820F020002070FEBD14
:104EE0002DE9F0411D46DDE9077816460C46DDF850
:104EF00018C0FEF725FD4FF0FF31F8B10022012365
:104F000022602371AFF2CB03436042700323037628
:104F100082760582A0F812C08782A0F816800181EF
:104F200041818181C18146760178C46121F001010E
:104F300041F04A0101700020BDE8F0810846FBE71E
:104F40000A460321FEF726BD00B50A460321FEF7F7
:104F500009FD28B1017841F068010170002000BD11
:104F60004FF0FF3000BD00B50A460321FEF7FAFC02
:104F700038B1017821F0080141F0200101700020D2
:104F800000BD4FF0FF3000BD10B514460A460321A6
:104F9000FEF7E8FC48B1C16901220C600A71017892
:104FA00041F060010170002010BD4FF0FF3010BDD6
:104FB0000FB4044910B503AA029800F06FF910BCB1
:104FC0005DF814FB080000200FB41CB5074B06AABF
:104FD0007B4469460090059800F031F9002069464D
:104FE00000F040F91CBC5DF814FB000091020000C9
:104FF0002DE9F0410E460446002020622046E1687B
:10500000884730B3252805D0D4E901219047206A8C
:10501000401CF2E7E168204600278847050018D0C9
:10502000A5F14100192802D820354FF40067324617
:10503000294620462760FBF7E9F840B1012804D053
:10504000F61D26F007060836D8E7361DD6E72846AF
:10505000DAE7206ABDE8F08170B50C460546012A02
:1050600005D02878800600D5EA69002302E00123F4
:1050700005E05B1C934202D2E05C0028F9D1A869EC
:10508000E618C01AA861286A184428622846AFF3B7
:10509000008004E0D5E9012114F8010B9047B442E7
:1050A000F8D32846AFF3008070BD00002DE9F04131
:1050B0000646002410687529314616A511D0AFF3B5
:1050C0000080002803DAC0F1000013A507E0316872
:1050D0008A0701D511A502E0490704D510A50124CE
:1050E00001E0AFF3008000210A2306F1240707E066
:1050F000B0FBF3F203FB1200303078541046491C29
:105100000028F5D123462A463046BDE8F04100F09C
:1051100035B80000000000002D0000002B0000004A
:1051200020000000FBF72FBB4FF0000200B5134634
:1051300094469646203922BFA0E80C50A0E80C50B7
:10514000B1F12001BFF4F7AF090728BFA0E80C5068
:1051500048BF0CC05DF804EB890028BF40F8042B61
:1051600008BF704748BF20F8022B11F0804F18BFCE
:1051700000F8012B70477047704770472DE9F047E2
:105180000D4699469246044600F1240801688806B7
:1051900004D5E06921F01001216000E00120A8425F
:1051A00002DDA0EB050700E00027A16907EB05027F
:1051B00002EB0900A1EB0000A0612078C00602D438
:1051C0002046AFF30080002608E0D4E901211AF858
:1051D00006009047206A401C761C20624E45F4DB96
:1051E0002078C0060AD52046AFF3008006E0D4E957
:1051F000012130209047206A401C2062381EA7F110
:105200000107F4DC07E0D4E9012118F80500904714
:10521000206A401C2062281EA5F10105F3DC20460F
:10522000AFF300802078000602D50220BDE8F087A9
:105230000120FBE701694A1C02610878704700B54C
:105240008FB0CDE901310021059105497944CDE9BF
:10525000031011466846FFF7CBFE0FB000BD0000FB
:10526000E5FFFFFF0A6802F8010B0A60704710B5FE
:10527000436913B1AFF3008001E0FFF7EDFE0120B9
:1052800010BD127800F124010A7000224A70012238
:10529000EDE711684FF0FF32E9E70000074B70B50A
:1052A0000D467B44FFF7CBFF04462846FBF77AFA0E
:1052B00010B14FF0FF3070BD204670BDE1B4FFFF6C
:1052C000754600F029F8AE4605006946534620F0C1
:1052D0000700854618B020B5FDF764FDBDE8204005
:1052E0004FF000064FF000074FF000084FF0000BA2
:1052F00021F00701AC46ACE8C009ACE8C009ACE855
:10530000C009ACE8C0098D4670470446AFF3008081
:105310002046FAF790FF000000487047A84500209B
:10532000491058BFC1F140415B1058BFC3F1404321
:105330008B42EFF30080704710F0004248BF4042BC
:10534000B0FA80F310FA03F10AD0C3F11D0303F59C
:1053500080634FEA415002EB035202EBD1217047C8
:105360004FF000007047B0FA80F310FA03F10AD052
:10537000C3F11D0303F580634FEA41504FEA035226
:1053800002EBD12170474FF00000704751EA030C47
:1053900017D41CF5801F58BFBCF5801F00F1068094
:1053A000994218BF704708BF9042704707D711F560
:1053B000801F58BF13F5801F19D499427047894246
:1053C00070471CF5801F08D5BCF5801FF7D58B42B0
:1053D00018BF704708BF824270474FF4001C1CEB97
:1053E000410F38BF1CEB430F01D28B42704770B5A1
:1053F00000F008F8922449004FF000514FF080531C
:10540000FFF78EBF0EF1020E2EF0030E5EF8046B56
:10541000364205D4012A43EB030515F5001F12D8C7
:10542000012841EB010C1CF5001F0CD80ED14FEAEE
:10543000D17C15F5001F0CEB4C0C0CF1020C08BFD5
:105440004CEBD37C04E04FF0080C01E04FEAD37C36
:105450000CEB4C0526FA05F606F00706B6F1040C2F
:1054600006D20EEB860CBDE870404CF0010C604794
:10547000DFE80CF0090B02024FF000414FF0000092
:10548000A1F5002170BD19461046012851EB010419
:1054900018BFD4F5001484BF002001F0004170BD96
:1054A00053EA010C17D41CF5801F58BFBCF5801FB0
:1054B00000F106808B4218BF704708BF82427047D8
:1054C00007D713F5801F58BF11F5801F19D48B42E1
:1054D00070479B4270471CF5801F08D5BCF5801FA4
:1054E000F7D5994218BF704708BF904270474FF4F4
:1054F000001C1CEB430F38BF1CEB410F01D299423B
:1055000070470FB40CBC03BCFFF771BF0002200052
:105510000004400004000800100080001000000497
:105520000020010010000004002001000200010022
:105530000200000004000A000D0000000A0028001C
:1055400028000600004000000000020004000000E7
:1055500020000000040000002000000020000000E7
:1055600020000000200000002000000010000000CB
:105570000800000010000000040000000D0A2020B8
:105580005F5F5F5F5F205F5F5F5F5F5F5F205F5FA9
:1055900020205F5F205F5F5F5F205F5F5F20205F95
:1055A0005F5F5F5F5F205F5F20205F5F5F0D0A20AE
:1055B0002F205F5F5F5F7C5F5F2020205F5F7C202C
:1055C000205C2F20207C5F5F5F205C5F5F205C7C25
:1055D00020205F5F5F5F2F5F207C2F205F205C0DAE
:1055E0000A7C20285F5F5F202020207C207C2020F8
:1055F0007C205C20202F207C205F5F29207C2029BC
:10560000207C207C5F5F2020207C207C207C207CF4
:10561000207C5F20205F5F0D0A205C5F5F5F205C65
:105620002020207C207C20207C207C5C2F7C207C07
:105630007C5F5F203C202F202F7C20205F5F7C2020
:10564000207C207C207C207C205C205C2F202F0D67
:105650000A205F5F5F5F29207C20207C207C202047
:105660007C207C20207C207C5F5F5F29202F202FE6
:105670005F7C207C20202020207C207C207C5F7C84
:10568000207C3E20203C0D0A7C5F5F5F5F5F2F2007
:1056900020207C5F7C20207C5F7C20207C5F7C5FE6
:1056A0005F5F5F2F5F5F5F5F7C5F7C20202020203B
:1056B0007C5F7C5C5F5F5F2F2F5F2F5C5F5CC9F15D
:1056C000D6DBCFB5C1D0BFAAB7A2B0E50D0A0D0A8F
:1056D000000000000A0D2023232323232323232358
:1056E000232323205757572E41524D4A495348559B
:1056F0002E434F4D212023232323232323232323FE
:10570000232320284F637420203720323031382063
:105710002D2031373A32333A30352900000000006D
:105720000000000000001000001800001800001821
:1057300000003C00003C00007C003FFFFC1FFFF825
:1057400007FFE003FFC001FF8001FF8001FF800130
:10575000FF8003E7C00381C00300C00400600000B5
:105760000000000000000000000000020000060031
:105770000046003FC40000C404008FFE20880811CA
:105780008990091180052180022180030380058210
:105790008005824008C24008C460104C20200830B8
:1057A00040101800600E00800000000000000000A3
:1057B00000001802000C0E000672080441FC0041B3
:1057C000080041080441087E4108044108044108DA
:1057D0000441080445080459080461780441180488
:1057E00001001A010071000060E002003FFC0000AF
:1057F0000000000000000000000003180006180070
:105800000430000C3FFC0C4410144320248200445C
:105810003240042220044218048218051E0804069F
:1058200000002000019820098C1009884C19804C38
:105830003180440180E000FFC00000000000000053
:10584000000001810003010003010402FFFE0601C4
:10585000000401000E21180E3FE816210826210839
:10586000262108463FF8062100061300061200060E
:105870000A00060600060600060F000610E0066095
:105880003C0180000000000000000800100FFFF83D
:105890000C08100C08100C08100C08100C08100F45
:1058A000FFF00808100808100808100808100FFF7B
:1058B000F008081008081008081010181010181028
:1058C0002018102018F040003000000000000000F8
:1058D0000100040080020080020080000088009F18
:1058E000FC3F9088011088031088021FF80610887A
:1058F0000D90880CD08814508C241FFC4410880410
:105900000080040080040080040080040080040102
:1059100080000100000000000000001800001000DE
:1059200000200003FFE0020040022040021040027D
:10593000184002084002004002004E3FFFF0020003
:105940004002204002104006184006184004004063
:105950000800401007C02001804000000000000047
:1059600000000000F8007F001F9800003000004099
:10597000400080C0073F0007C400001800006040DE
:10598000008020077FF807881801080000C8800100
:10599000886002083804081C18080C20F80C00184D
:1059A0000000000000000000000000000C000C08D7
:1059B0003FF00801000803018802008802188807E8
:1059C000F8880410880C30880A2088132088216009
:1059D0008801408800C08800818801010802000811
:1059E00004000818007820001800000000000000E3
:1059F00000000000000000181FFFE000818000810F
:105A00008000818000818000818000818400818C01
:105A10001FFFF00081800081800081800181800172
:105A200001800101800201800401800801803001B1
:105A3000800000000000000000000031000460C091
:105A40000C60600C606008400018400C17FFF0000C
:105A5000C00000C00000FFE000A06001A0400110F5
:105A600080030980020900060600040600080D8074
:105A70001030E020403E438008000000000000009D
:105A800000000600300400F8041F00041000049019
:105A9000003F10000C10100C1FF00E14300D1420DD
:105AA0001C942014B2601432402423C0442180444A
:105AB00021800423C004466004883804B01C05C05B
:105AC00000000000000000000000000000000000D6
:105AD00000000000000000000000000000000000C6
