:020000040800F2
:10000000405A0020492C000843020008450200081D
:1000100047020008490200084B02000800000000E7
:100020000000000000000000000000004D02000879
:100030004F02000800000000510200084D030008B4
:10004000632C0008632C0008632C0008632C000854
:10005000632C0008632C0008632C0008632C000844
:10006000632C0008632C0008632C0008632C000834
:10007000632C0008632C0008632C0008632C000824
:10008000632C0008632C0008632C0008632C000814
:10009000632C0008632C0008632C0008632C000804
:1000A000632C0008632C0008632C0008632C0008F4
:1000B000632C0008632C0008632C0008632C0008E4
:1000C000632C0008632C0008632C0008632C0008D4
:1000D000632C0008632C0008632C0008632C0008C4
:1000E000632C0008632C0008632C0008000000004B
:1000F0000000000000000000000000000000000000
:100100000000000000000000632C0008632C0008C1
:10011000632C0008632C0008632C0008632C000883
:10012000632C0008632C0008632C0008632C000873
:10013000632C0008632C0008632C0008632C000863
:10014000632C0008632C0008632C0008632C000853
:1001500000F002F800F066F80AA090E8000C824473
:100160008344AAF10107DA4501D100F05BF8AFF250
:10017000090EBAE80F0013F0010F18BFFB1A43F085
:1001800001031847984F0000B84F000010F8013BDA
:100190000A4413F0030408BF10F8014B1D1108BFF7
:1001A00010F8015B641E05D010F8016B641E01F8A5
:1001B000016BF9D1002D15D010F8014B03F00C03A1
:1001C0000C2BA1EB04040ABF10F8013BA4EB831431
:1001D000A4EB032405F1010314F8016B5B1E01F885
:1001E000016BF9D5914238BF10F8013BD1D370476C
:1001F0000023002400250026103A28BF78C1FBD830
:10020000520728BF30C148BF0B607047642902F015
:10021000B985732902F0A986002070471FB51FBD5C
:1002200010B510BD02F0B8FE1146FFF7F7FF00F061
:1002300011F802F0D6FE03B4FFF7F2FF03BC00F0A2
:100240000FFA7047FEE7FEE7FEE7FEE770477047EC
:10025000704700002DE9F04100254FF4E131012005
:1002600000F0C7F94FF47A7000F04AF801F02BF96A
:10027000DFF86C8005EB850000EBC507002405EB7B
:1002800045000601381900EBC00108EB011204EB30
:100290004400C100304601F0B9FD641CE4B20D2CED
:1002A000F0D36D1CEDB2022DE4D30020BDE8F08147
:1002B0000B4A121F64211068B0FBF1F301FB13011C
:1002C00051B94FF4FA61B0FBF1F301FB1303054997
:1002D00003B10123C1F89C31401C1060704700003D
:1002E000040000200080224201B5009801E0401E79
:1002F00000900028FBD108BD4FF4C06002F062B945
:10030000F3490968B1FBF0F0B0F1807F0DD220F025
:100310007F414FF0E020491E4161EE4AF02111700B
:1003200000218161072101617047FEE701B5EA48BC
:100330000099016001680029FCD108BDE648016808
:10034000002902D00168491E0160704710B5FFF70F
:10035000F5FFBDE81040FFF7ABBFE0480168E0489B
:100360000160DE49091D09684160DC4908310968FE
:100370008160704738B50446DA48012150F82400FE
:1003800001F092FFD7486946483830F81400ADF8BC
:10039000000010208DF8030003208DF80200CE48E5
:1003A000203050F8240002F034F838BDCD49CA4A54
:1003B0004839203231F8101052F82000416170475E
:1003C000C849C54A4839203231F8101052F8200087
:1003D00001617047C049203151F82010CA68C14BF3
:1003E000483B33F810004240CA60704708B501210D
:1003F000042001F059FF0820ADF8000010208DF80E
:10040000030003208DF802006946B74802F001F8A6
:10041000B6490120086008BDB44900200860704753
:10042000B249012008607047B149D1F88C0118B178
:100430000020C1F88C0170470120FAE77FB504461F
:10044000A8480D461030012150F8240040F001006A
:1004500001F02AFF04208DF80F00A24803A94038BC
:1004600030F81400ADF80C009B48303050F82400F0
:1004700001F0CFFF012D28D19A48283810F8141028
:10048000083810F8140002F076F89648383830F83A
:100490001400009000208DF804000C208DF8050059
:1004A0008DF80650684602F0F3F88E48203810F8B0
:1004B00014008DF808000F208DF809008DF80A004F
:1004C0008DF80B5002A802F082F87FBD8549824A60
:1004D0004039303231F8101052F8200001F0EDBFF1
:1004E000844910B5D1F81001834C28B92046FFF794
:1004F000FBFED1F8100120B1804AD2F8280110B1DA
:1005000007E0012010BD2046FFF7EEFED2F82801DB
:1005100018B1D1F8340110B107E0022010BD204617
:10052000FFF7E2FED1F8340120B17149D1F80001A2
:1005300010B107E0032010BD2046FFF7D5FED1F82B
:10054000000108B1002010BD042010BDF8B50D4613
:100550000446644863491038083950F8240051F8BB
:100560002410084340F00100012101F09DFE5D4E82
:10057000183EC4B30121082001F0D4FF56F824002E
:10058000012101F09AFE18208DF8030055486946B4
:10059000503830F81400ADF8000003208DF8020048
:1005A0004D48103050F8240001F033FF04208DF83E
:1005B00003004C4869464C3830F81400ADF8000090
:1005C0004548183050F8240001F023FF424E2946D8
:1005D000083656F8240002F0F1F856F824000121FC
:1005E00002F064F9F8BDFFE70121306801F05CFE1C
:1005F000C9E71FB5044600910021ADF80810ADF819
:1006000004100C20ADF80610ADF80C10ADF80A007F
:1006100069462046FFF79AFF002C1FD038A13AA068
:1006200002F032FB454802F02FFB2E4944A0203156
:1006300002F02AFB00230522032142A002F024FB42
:100640002648083801884FA002F01EFB02F0A3FAEA
:100650001F48016859A002F017FB1FBD63A1DEE728
:10066000704770B5634D04464021284602F0D5F925
:100670000028F9D0E1B2284602F06EF9204670BD9C
:100680004FF0FF30704710B55A4C2021204602F041
:10069000C4F90028F9D05748001D00880E49C4B29B
:1006A000091D204602F0AAFB204610BD10B507E048
:1006B00003780C78A34201D0002010BD401C491CD7
:1006C0001300A2F1010292B2F2D1012010BD00008C
:1006D000C053002023ED00E0A40E0020E8F7FF1F28
:1006E000D453002034320008000801408C0121421C
:1006F0000000214200002242F04902000080214215
:1007000055534152543200000D0A0A0A0D20575722
:10071000572E41524D4A495348552E434F4D2020A4
:100720002573207072696E746620636F6E666967E8
:10073000757265642E2E2E2E00000000AC3300086A
:1007400025730000205757572E41524D4A495348B0
:10075000552E434F4D20757365205F5F53544D33C5
:1007600032463130585F5354445045524950485FE7
:1007700056455253494F4E2025642E25642E25643C
:10078000000000000A0D20B2FAC6B7C4DAB2BF46B4
:100790006C617368B4F3D0A1CEAAA3BA25644BD719
:1007A000D6BDDAA3A12009207777772E61726D6A12
:1007B000697368752E636F6D000000000A0D20CF0D
:1007C000B5CDB3C4DABACBCAB1D6D3C6B5C2CA287E
:1007D00053797374656D436F7265436C6F636B29F6
:1007E000CEAAA3BA2564487A2E0A0D005553415269
:1007F000543100000044004008B54FF6FF70ADF8DA
:10080000000004208DF803006946FE4801F001FE57
:1008100008BD08B54FF6FF70ADF8000003208DF855
:10082000020010208DF803006946F64801F0F1FD42
:1008300008BDF54900200860F4490860F44A1060DA
:10084000F04B22200C3318600120106008607047C4
:1008500070B5ED4C00222260EC4D2A60EC4B1A6022
:10086000E84E0C3630600120186028601A60316054
:100870001860206070BD70B5E64A0D46D188A1F5BC
:100880000943893B06D101464E20FFF7E1FF294687
:100890004F200DE0D388A5F23F114C42A3F513463B
:1008A000203E08D101462020FFF7D2FFA1B221202F
:1008B000BDE87040CCE7D188A1F51942193AF1D1D1
:1008C000E1E730B50024054621462046FFF7D3FF77
:1008D000FFF7AFFFD04B0022C3F8A021CB48012186
:1008E0000160C8480C300560CC484FF49635C0F81C
:1008F000B821C0F8B811641CAC42F8D3C3F8A011F9
:1009000030BD2DE9F041C04F00243C60BF4D2C604C
:10091000BF490C60BB4A0C32106001260E60FFF725
:100920006BFF2E60AC60AE60B648083000683E6079
:1009300084B2FFF76EFF2046BDE8F08138B5012193
:10094000782001F0B1FC4FF6FF70ADF800000320F5
:100950008DF8020010208DF803006946A94801F0C7
:1009600058FD4FF48040ADF800006946AC4801F0F6
:1009700050FD4FF48070ADF800006946A94801F0C1
:1009800048FD4FF40050A84CADF8000069462046E1
:1009900001F03FFD4FF40041ADF8001069462046DC
:1009A00001F037FD9849012008609949086097498E
:1009B0008860086038BD2DE9F05FFFF7BFFF42F6A1
:1009C000E0652846FFF790FC01210020FFF740FF7B
:1009D0002846FFF789FC0020FFF793FF8D4CE0804D
:1009E0000020FFF78EFFE0802846FFF77DFCE188BE
:1009F00048F68910A1F50942993A00D1E080E188D2
:100A0000E2884FF4E068A2F5134141F218074EF670
:100A1000602C40F2272B40F2077540F23F194FF44B
:100A2000887A49F22836253902D0E188B1427DD151
:100A300043F20801E320FFF70BFF1221E720FFF745
:100A400007FF41F23121EF20FFF702FF01210020D3
:100A5000FFF7FEFE4FF480710120FFF7F9FE4146DB
:100A60000220FFF7F5FE39460320FFF7F1FE0021D3
:100A70000420FFF7EDFE40F207210820FFF7E8FE13
:100A800000210920FFF7E4FE00210A20FFF7E0FE25
:100A900001210C20FFF7DCFE00210D20FFF7D8FE1E
:100AA00000210F20FFF7D4FE00211020FFF7D0FE19
:100AB00007211120FFF7CCFE00211220FFF7C8FE0E
:100AC00000211320FFF7C4FE67466046FFF70CFCC9
:100AD0003846FFF709FC41F290511020FFF7B8FEAD
:100AE00059461120FFF7B4FE3846FFF7FDFB3846A4
:100AF000FFF7FAFB9C211220FFF7AAFE3846FFF70A
:100B0000F3FB3846FFF7F0FB4FF4C8511320FFF713
:100B10009FFE23212920FFF79BFE0E212B20FFF7AC
:100B200097FE3846FFF7E0FB384600E0B4E0FFF7F9
:100B3000DBFB00212020FFF78BFE00212120FFF7A7
:100B400087FE3846FFF7D0FB3846FFF7CDFB07217D
:100B50003020FFF77DFE29463120FFF779FE062180
:100B60003220FFF775FE40F204713520FFF770FE6A
:100B700041F604713620FFF76BFE04213720FFF7A2
:100B800067FE00213820FFF763FE40F2067139202E
:100B9000FFF75EFE40F201713C20FFF759FE0F2186
:100BA0003D20FFF755FE3846FFF79EFB3846FFF71E
:100BB0009BFB00215020FFF74BFEEF215120FFF758
:100BC00047FE00215220FFF743FE49465320FFF71E
:100BD0003FFE4FF427416020FFF73AFE01216120DC
:100BE000FFF736FE00216A20FFF732FE0021802049
:100BF000FFF72EFE00218120FFF72AFE0021822030
:100C000014E0000000180140A0012242B4812242F9
:100C1000B8812142E40E00200000224200802142DF
:100C2000000C01400010014000140140FFF710FECD
:100C300000218320FFF70CFE00218420FFF708FE2F
:100C400000218520FFF704FE10219020FFF700FE11
:100C50004FF4C0619220FFF7FBFDE088B0420FD156
:100C600003219320FFF7F4FD51469520FFF7F0FD97
:100C700000219720FFF7ECFD00219820FFF7E8FD09
:100C800040F233110720FFF7E3FD00212020FFF79A
:100C9000DFFD0021212036E2E188A1F51342203A50
:100CA0007ED0E188B1F5134FFAD0E18845F6C05601
:100CB000A1F513424FF4006A4FF40177313A70D135
:100CC00041F21401E720FFF7C3FD4FF480710120CA
:100CD000FFF7BEFD391F0220FFF7BAFD41F23001D8
:100CE0000320FFF7B5FDB91E0820FFF7B1FD002175
:100CF0000920FFF7ADFD00210A20FFF7A9FD002123
:100D00000C20FFF7A5FD00210D20FFF7A1FD00211C
:100D10000F20FFF79DFD00211020FFF799FD07210F
:100D20001120FFF795FD00211220FFF791FD002112
:100D30001320FFF78DFD6046FFF7D6FA41F2906170
:100D40001020FFF785FD59461120FFF781FD304641
:100D5000FFF7CAFA0C211220FFF77AFD3046FFF7A1
:100D6000C3FA51461320FFF773FD11212920FFF725
:100D70006FFD0B212B20FFF76BFD3046FFF7B4FA18
:100D800000212020FFF764FD00212120FFF760FDF6
:100D900000213020FFF75CFD4FF48374214601E011
:100DA00075E021E13120FFF753FD00213220FFF7EC
:100DB0004FFD39463520FFF74BFD41F20A613620E1
:100DC000FFF746FD29463720FFF742FD2146382030
:100DD000FFF73EFD29463920FFF73AFD40F2024178
:100DE0003C20FFF735FD40F60F413D20FFF730FD79
:100DF00000215020FFF72CFDEF215120FFF728FDA7
:100E000000215220FFF724FD49465320FFF720FD23
:100E10004FF41C516020FFF71BFD01216120FFF7FB
:100E200017FD00216A20FFF713FD00218020FFF746
:100E30000FFD00218120FFF70BFD00218220FFF72D
:100E400007FD00218320FFF703FD00218420FFF729
:100E5000FFFC00218520FFF7FBFC10219020FFF70D
:100E6000F7FC4FF4C0619220FFF7F2FC212107202C
:100E7000FFF7EEFC3046FFF737FA61210720FFF756
:100E8000E7FC3046FFF730FA40F2331149E2012126
:100E90000020FFF7DDFC4FF480710120FFF7D8FC44
:100EA00041460220FFF7D4FC39460320FFF7D0FC6F
:100EB00000210420FFF7CCFC40F202210820FFF7BC
:100EC000C7FC00210920FFF7C3FC00210A20FFF71F
:100ED000BFFC01210C20FFF7BBFC00210D20FFF718
:100EE000B7FC00210F20FFF7B3FC64466046FFF714
:100EF000FBF940F201110720FFF7AAFC2046FFF79B
:100F0000F3F94FF486511020FFF7A2FC07211120BE
:100F1000FFF79EFC554651461220FFF799FC4FF40F
:100F200030611320FFF794FC00212920FFF790FC8B
:100F300044F210012B20FFF78BFC00215020FFF71B
:100F400087FCEF215120FFF783FC00215220FFF79F
:100F50007FFC49465320FFF77BFC4FF41C51602077
:100F6000FFF776FC01216120FFF772FC00216A2067
:100F7000FFF76EFC00218020FFF76AFC0021812032
:100F8000FFF766FC00218220FFF762FC002183202E
:100F9000FFF75EFC00218420FFF75AFC002185202A
:100FA000FFF756FC10219020FFF752FC0021922001
:100FB000FFF74EFC01219320FFF74AFC29469520BC
:100FC000FFF746FC00219720FFF742FC0021982004
:100FD000FFF73EFC2046FFF787F940F27311072028
:100FE000FFF736FC2046A0E1E1884FF4004CA1F564
:100FF00019424FF4407B193A7ED106212820FFF791
:1010000027FC01210020FFF723FC00211020FFF71F
:101010001FFC47F2EF210120FFF71AFC4FF4C061DB
:101020000220FFF715FC46F638210320FFF710FCDD
:1010300046F674011120FFF70BFC00210F20FFF78B
:1010400007FC45F208310B20FFF702FC03210C20BE
:10105000FFF7FEFB0A210D20FFF7FAFB4FF4385192
:101060000E20FFF7F5FBBE211E20FFF7F1FB6146C6
:101070002520FFF7EDFB4FF4F0412620FFF7E8FBBA
:1010800078212720FFF7E4FB00214E20FFF7E0FB4B
:1010900000214F20FFF7DCFB40F6D9011220FFF7BB
:1010A000D7FB00213020FFF7D3FB4FF482713120B2
:1010B000FFF7CEFB4FF480713220FFF7C9FB40F2FF
:1010C000053421463320FFF7C3FB40F2055134209D
:1010D000FFF7BEFB21463520FFF7BAFB2946362035
:1010E000FFF7B6FB59463720FFF7B2FB4FF490519C
:1010F0003A20FFF7ADFB00E006E051463B20FFF74A
:10110000A7FB33210720D3E1E188A1F5A852053AD6
:101110007ED100210720FFF79BFB3046FFF7E4F864
:101120004FF48E711220FFF793FB0121A420FFF7EB
:101130008FFB0F210820FFF78BFB08210A20FFF708
:1011400087FB08210D20FFF783FB29463020FFF79E
:101150007FFB07213120FFF77BFB40F20361322048
:10116000FFF776FB444641463320FFF771FB40F220
:1011700002213420FFF76CFB02213520FFF768FBCA
:1011800041F60F713620FFF763FB29463720FFF742
:101190005FFB00213820FFF75BFB00213920FFF7C0
:1011A00057FB29463A20FFF753FB00213B20FFF76E
:1011B0004FFB07213C20FFF74BFB00213D20FFF7B1
:1011C00047FB3046FFF790F801210720FFF740FB6F
:1011D00001211720FFF73CFB3046FFF785F84FF45D
:1011E000BD511020FFF734FB40F217211120FFF70B
:1011F0002FFB4FF48F711220FFF72AFB4FF4706121
:101200001320FFF725FB00212A20FFF721FB00E038
:101210008EE00A212920FFF71BFB4FF49F7112205B
:10122000FFF716FB00215020FFF712FBEF215120A2
:10123000FFF70EFB00215220FFF70AFB494653201F
:10124000FFF706FB4FF41C516020FFF701FB012163
:101250006120FFF7FDFA00216A20FFF7F9FA00216B
:101260008020FFF7F5FA00218120FFF7F1FA002135
:101270008220FFF7EDFA00218320FFF7E9FA002131
:101280008420FFF7E5FA00218520FFF7E1FA13211A
:101290009020FFF7DDFA59469220FFF7D9FA052191
:1012A0009320FFF7D5FA00219520FFF7D1FA00210E
:1012B0009720FFF7CDFA00219820FFF7C9FA4FF4E5
:1012C00080710120FFF7C4FA21460220FFF7C0FA1F
:1012D00041F230010320FFF7BBFA00210420FFF7A1
:1012E000B7FA00210C20FFF7B3FA00210F20FFF717
:1012F000AFFA00212020FFF7ABFA00212120FFF7F1
:10130000A7FA21210720FFF7A3FA3046FEF7ECFFEA
:1013100061210720FFF79CFA3046FEF7E5FF40F217
:1013200073110720FFF794FA3046FEF7DDFFC1E0A6
:10133000E1888142FBD106212820FFF789FA0121AB
:101340000020FFF785FA4AF6A4610320FFF780FA30
:1013500004210C20FFF77CFA0C210D20FFF778FA0E
:101360004FF420510E20FFF773FAB5211E20FFF72E
:101370006FFA47F63F310120FFF76AFA4FF4C06178
:101380000220FFF765FA00211020FFF761FA46F20C
:1013900078011120FFF75CFA00210520FFF758FAC9
:1013A00000210620FFF754FA4EF61C711620FFF7B5
:1013B0004FFA33210720FFF74BFA00210B20FFF7EC
:1013C00047FA00210F20FFF743FA00214120FFF7E1
:1013D0003FFA00214220FFF73BFA00214820FFF7A7
:1013E00037FA4C4649464920FFF732FA00214A2095
:1013F000FFF72EFA00214B20FFF72AFA4FF46F4136
:101400004420FFF725FA00214520FFF721FA214665
:101410004620FFF71DFA29463020FFF719FA40F25F
:1014200002213120FFF714FA39463220FFF710FA73
:1014300040F2025421463320FFF70AFA611D34209E
:10144000FFF706FA39463520FFF702FA394636200B
:10145000FFF7FEF921463720FFF7FAF940F2023490
:1014600021463A20FFF7F4F921463B20FFF7F0F937
:1014700000212320FFF7ECF900212420FFF7E8F9F1
:1014800061462520FFF7E4F94FF4E0412620FFF7FD
:10149000DFF94BF2EB012020FFF7DAF97C2127205E
:1014A000FFF7D6F900214E20FFF7D2F900214F2097
:1014B000FFF7CEF9BDE8F05F4FF4FC60FFF701BA2B
:1014C000FE498860704710B5FFF775FAFB49FC4884
:1014D000886010BD03B5BDF80010F8484180BDF824
:1014E000041081800CBDF54A5388038090880880E1
:1014F000704701B5BDF80000F049488008BD01B54E
:10150000BDF80000ED49888008BDEE4900220A6060
:10151000ED4A106001200860704710B51446FFF7CF
:10152000AAF9FFF786F92046FFF7EFFFE749012008
:10153000086010BDF12809D2002907DBB1F5A07FB2
:1015400004DCDE4A89B280B25288E6E770472DE9B2
:10155000F041FFF790F9DD4F00253D60DC4C256040
:10156000D8480560D84A222111600126066026600D
:10157000FFF742F9A560A660A560A660D248001FEB
:1015800000683E6084B2FFF744F92046BDE8F08170
:1015900010B5012100220846FFF7BFFF01210846D0
:1015A000FFF7D5FF01214FF6FF720846FFF7B5FFA1
:1015B00001210846FFF7CBFF012145F65A220846D4
:1015C000FFF7ABFF0121BDE810400846BFE72DE95A
:1015D000F04190460C460646FFF79FFFA6F1010C2E
:1015E0001FFA8CF042462146FFF797FF771CB8B2EE
:1015F00042462146FFF791FF651EA9B2424630469A
:10160000FFF78BFF641CA1B242463046FFF785FF0F
:10161000A9B21FFA8CF04246FFF77FFFA1B21FFA72
:101620008CF04246FFF779FFA9B2B8B24246FFF705
:1016300074FFA1B2B8B24246BDE8F0416DE710B503
:101640000446FFF7F6F82046FFF75FFF9F490120A9
:10165000086010BD2DE9F0439846164689460546B8
:101660000024FFF708F90127DFF850C2B8F1000F96
:101670001CD1FFF7DEF8BCF80200FFF746FF01209F
:101680000022944904E0C1F8B821C1F8B871401CA7
:10169000B042F8D30CE0BCF80200FFF7D0FF6D1C9D
:1016A000ADB249462846FFF7E6F8641CB442F2D3CF
:1016B00086480760BDE8F08330B505460C46A1F1C9
:1016C0000F0081B200231E222846FFF7C3FF0F3D03
:1016D000A8B22146BDE8304001231E22BAE7F0B58A
:1016E0001E4614460F46054600233246FFF7B2FF5A
:1016F000281980B2002332463946FFF7ABFF012399
:10170000224639462846FFF7A5FFB819401E81B288
:1017100022462846BDE8F04001239BE72DE9F04F23
:10172000804603208C46A0EB42060024154664E068
:101730000CEB050B08EB04091FFA8BF11FFA89F07B
:10174000FFF799F85D4F7888FFF779FFACEB050A52
:101750001FFA8AF11FFA89F0FFF78DF87888FFF7F2
:101760006EFFA8EB04091FFA8BF11FFA89F0FFF74F
:1017700082F87888FFF763FF1FFA8AF11FFA89F071
:10178000FFF779F87888FFF75AFF0CEB040B08EBAA
:1017900005091FFA8BF11FFA89F0FFF76CF87888BA
:1017A000FFF74DFFACEB040A1FFA8AF11FFA89F02C
:1017B000FFF761F87888FFF742FFA8EB05091FFAE9
:1017C0008BF11FFA89F0FFF756F87888FFF737FF9B
:1017D0001FFA8AF11FFA89F0FFF74DF87888FFF7B2
:1017E0002EFF002E03DA06EB8406B61D04E0601B14
:1017F00006EB80060A366D1E641CAC4298D9BDE823
:10180000F08F2DE9F8472D4E144698467788894683
:101810000546D2B2FFF763FFA41E1FFA84FAA8F1AF
:10182000010084B209F101001FFA80F8B088ADF818
:101830000000BDF80000708007E06D1CADB2002311
:10184000524641462846FFF705FF2000A4F1010457
:10185000A4B2F2D1ADF80070BDF800007080BDE810
:10186000F8872DE9F74F07461448894682B041882A
:10187000019104990322A2EB41060D4681880024C0
:10188000ADF80010BDF8001041804FF6FF7B44E03A
:101890009DB10BEA4502A9EB050A381B90461FFAD9
:1018A0008AF180B20023FFF7D5FE381942461FFAAD
:1018B0008AF180B20023FFF7CDFE0DE0E40E002098
:1018C00060530020B88121420C180140A00122423F
:1018D000B4812242008021429CB10BEA4402A9EB70
:1018E000040A781B90461FFA8AF180B20023FFF7A2
:1018F000B1FE781942461FFA8AF180B20023FFF741
:10190000A9FE002E03DA06EB8406B61D04E0601B78
:1019100006EB80060A366D1E641CAC42B8D90198ED
:10192000ADF80000BDF80010FE484180049A05B0F3
:1019300049463846BDE8F04FF0E62DE9FC4F8446B5
:101940000027A2EB0C000C46002801DCACEB0200E7
:1019500001B2181B002800DCE01A00B20FFA8CF666
:1019600025B24FF0FF38624503D34FF0010BDA4642
:1019700001E0C346DA46A34203D34FF00109C8464B
:1019800000E0C14681424FF0000209DB93469046D9
:1019900001EBD17252108C4614B2CDE9000124E063
:1019A000924600EBD072CDE9001052104FF00009C2
:1019B000844614B219E029463046FFF7BBFD009873
:1019C000204404B2644508DBA4EB0C0004B206EB2F
:1019D0000B0006B205EB090005B206EB0A0006B2E1
:1019E00005EB08007F1C05B23FB201988742E2DD9B
:1019F000BDE8FC8F30B50D46044602290DD308E042
:101A000020886188241D89B26388228880B2FFF70C
:101A100094FF6D1E2D042D0CF2D130BD2DE9F04345
:101A200091460F4604468046022925D3B4F900604A
:101A3000B4F9025010E0241DA9B26088284483B292
:101A40002088304482B2B0B2FFF777FF208830445C
:101A500006B26088284405B27F1E3F043F0CEAD1DD
:101A6000B9F1000F08D0ABB2B2B2B8F80210B8F8B2
:101A70000000BDE8F04360E71CE630B50D460446C3
:101A8000FFF7B8FF04EB8500001F618843880288D8
:101A90002088BDE8304050E70022BFE70122BDE7C3
:101AA0002DE9F34FB0F80080E7B043880446C14603
:101AB0000120659313E004EB80014A884A4500D277
:101AC0009146424500D9904634F82010994200D200
:101AD0000B46659A914200D96591401C80B2689985
:101AE0008842E8D38F488188ADF89011BDF89011F5
:101AF00041809A46A9E0002668983546401E87B284
:101B000048E0504601F09BFA83466491669134F9AF
:101B1000250001F07DFA5A46669B01F0A3FA0AD22D
:101B20006499669134F9270001F072FA5A46669B6F
:101B300001F022FB13D96499669134F9270001F072
:101B400067FA5A46669B01F08DFA20D234F92500D7
:101B500001F05EFA5A46649B01F00EFB17D804EBC5
:101B60008700B0F9021004EB8500B0F902000A1AF0
:101B700034F92510AAEB01035A4334F92730591AD6
:101B800092FBF1F108442DF81600761CB6B22F46F0
:101B90006D1CADB268988542B3D30020771E0DE06E
:101BA0006D4605EB40033DF810105A88914209D963
:101BB00025F81020598008B1401E80B2B842EFDBF2
:101BC00000253CE0401CF8E73DF815006A4640451A
:101BD00037D202EB4507798849452ED9484501D2CD
:101BE00022F81590414501D9A7F80280DFF834B1F9
:101BF000BBF80400ADF89001BDF89011ABF80210ED
:101C0000798832F815000023081A82B25046FFF78F
:101C100021FDBBF80200ADF89001BDF89011ABF8C2
:101C20000210B7F902100FFA8AF00746FFF782FC9C
:101C30003DF915103846FFF77DFCAD1CADB2B5423D
:101C4000C2D30AF101001FFA80FA65988245FFF4B9
:101C500052AF34484188ADF89011BDF890114180E1
:101C600069B0CCE5304B00211960304A1160304A30
:101C7000116030490860012010601860704770479B
:101C80002DE9F04F9A4691468B4607460026DFF82D
:101C90009480099C1EE059463846FEF7ECFDFEF79D
:101CA000C8FD802314F801CB00250EE013B914F809
:101CB00001CB80231CEA030F404601D0408800E09E
:101CC0008088FFF722FC5B086D1C4D45EED37F1C1E
:101CD000BFB2761C5645DED391E518B5548893887B
:101CE000921D00922246FFF7CBFF18BD2DE9F74F5A
:101CF000C0B2002681460199FEF7BDFD4FF0800B72
:101D0000DFF82080FEF795FD002506EB460A0198D6
:101D100000240AEB050C00EBC507029810F80C1024
:101D20000AE00000E40E0020A0012242B481224219
:101D3000B88121420C1801402BFA04F001424046C0
:101D400001D040880BE0017841B13819401C81B2C4
:101D50004846FEF790FDFEF76CFD02E08088FFF735
:101D6000D4FB641C082CD8D36D1C032DCFD3904911
:101D70000120086009F10100C0B281460199FEF717
:101D80007AFD761C182EBDD3BDE8FE8FF0B5002479
:101D9000884D0746042604EBC40005EBC00204EBA3
:101DA000440006EBC00081B23846FFF79FFF641C79
:101DB000A4B20D2CEFD3F0BD7F48806870477E49F8
:101DC0000870704770B500242146FEF754FDFEF7F9
:101DD00030FD7A4E0022C6F8A02179480121016029
:101DE00075488388774D2B60774B856805E0C3F88D
:101DF000B821C3F8B811641CA4B2687800EB800065
:101E0000B4EB801FF3D3C6F8A01170BD2DE9F74FD6
:101E100082B03021C0B2009100264FF0180C8246EB
:101E20000399FEF728FDB046DFF88C91FEF701FD1F
:101E3000644627E0082C01D3082700E02746002548
:101E40004FF0800B1BE00498815D2BFA05F00142F6
:101E5000484601D040880EE0017859B10398ACEBB8
:101E600004010844401C81B25046FEF704FDFEF711
:101E7000E0FC02E08088FFF748FB641E6D1CBD4259
:101E8000E1D3761C002CD5D14949012008600AF124
:101E90000100C0B282460399FEF7EDFC009908F1FB
:101EA00001088845C2D305B03146BDE8F04F47A0D0
:101EB00000F0EABE704710B53F4A00204FF4A0740E
:101EC000936806E01A78104480B20244A24203D814
:101ED000491C0A78002AF5D110BD10B536484FF4D8
:101EE000A074836806E01878014489B20844A042CF
:101EF00003D8521C10780028F5D110BD2DE9F0430D
:101F000085B000261421684600F07AFF2A4F36A1DA
:101F1000B86843780278684600F0C2FE4FF6FF7951
:101F20004846FEF7CEFC69460020FFF7C4FFB868BC
:101F30004FF4A0784478641C2025B86801788A1989
:101F4000521C96B23144414514D9407800260119FB
:101F5000491C8CB20119F0290CD9441C7F2D09D8D9
:101F60002448FEF7C1F94846FEF7ABFC694600205D
:101F7000FFF7A1FF6D1CADB27F2DDED905B07BE56B
:101F80002DE9F0410C4D00241B4FDFF86880AE684E
:101F900006E0A860FFF7B2FF4046FEF7A5F9641C13
:101FA00057F824000028F4D1AE60BDE8F0810000AD
:101FB000A0012242F4330008E40E00200000224277
:101FC000B48122420C1801400080214223232323A4
:101FD000232320696E6465783A2564202323232314
:101FE00023230D0A0000000053495A453A2564583E
:101FF000256400000051250290530020CE4801685E
:1020000041F0010101604168CC4A11404160016822
:10201000CB4A11400160016821F4802101604168D0
:1020200021F4FE014160016821F0A05101604FF4EC
:102030007F0181600021C1627047BF490A6822F4B4
:1020400080320A600A6822F480220A60B0F5803F7C
:1020500007D0B0F5802F03D1086840F4A0200860B5
:102060007047086840F48030F9E7034600205909BA
:10207000B14A01290AD002290AD0516A03F01F028D
:10208000012393400B4200D0012070471168F5E70F
:10209000116AF3E718B500204FF4A06400903120D6
:1020A000FFF7E3FF0099491C0091A14201D00028ED
:1020B000F5D03120FFF7D9FF002800D0012018BD4E
:1020C0009D4A116821F0F80141EAC0001060704794
:1020D0009C4908607047984B5A68084322F4741270
:1020E000104358607047974908667047924B10B587
:1020F000DA6A954C084322401043D86210BD8E4ADC
:10210000D16A21F0F0010143D16270478A4AD16A55
:1021100021F470610143D16270478A498866704733
:10212000854AD16A21F470410143D16270478549E3
:1021300008677047804A516821F0030101435160EC
:1021400070477D48406800F00C0070477A4A51683B
:1021500021F0F001014351607047774A516821F442
:10216000E061014351607047734A516821F4605146
:1021700041EAC000506070476F4A0029517A01D08F
:10218000014300E08143517270476E49D8310860C5
:102190007047694A516821F44041014351607047DA
:1021A0006A49086070476949091D086070476249BB
:1021B000002281F8202081F82020012802D0042864
:1021C00002D1052081F820007047614908607047FE
:1021D00059490A6A02430A6270475D4944390860F6
:1021E0007047F0B5544B59685A4A11F00C014FF042
:1021F0000F0604D0584C042903D0082903D00260EC
:1022000028E0046026E059685A6806EA914102F421
:1022100080320D2901D0891C00E00621BAB1DA6AAA
:1022200012F4803FDA6A02F00F0202F101020AD0D2
:10223000DD6AC5F30317DD6A7F1CB4FBF7F4C5F351
:102240000325AD1C6C43B4FBF2F24A43D7E7434A83
:10225000514301605968424A06EA1111545C016811
:10226000E14041605C68072505EA1424145D21FA09
:1022700004F484605C6805EAD424125DD140C16036
:102280005A68032303EA9232354B1B1F9A5CB1FB59
:10229000F2F10161F0BD284A0029516901D00143E2
:1022A00000E0814351617047234A0029916901D0C0
:1022B000014300E08143916170471F4A0029D169C1
:1022C00001D0014300E08143D16170471A4A0029DF
:1022D000916A01D0014300E0814391627047164A40
:1022E0000029D16801D0014300E08143D1607047EB
:1022F000114A0029116901D0014300E081431161B5
:10230000704713494039086070470E49C8647047E8
:102310000949C87170470848416A41F080714162BB
:102320007047054A0146002092680A4200D0012009
:102330007047014988727047001002400000FFF0AA
:10234000FFFFF6FE00004242F0FFFEFFC4054242DE
:102350008004424200127A0040787D0100093D006D
:10236000B05300208E4910B5884206D101210420C7
:10237000FFF7B5FF002104203BE08A49884206D1DF
:1023800001210820FFF7ABFF0021082031E086493A
:10239000884206D101211020FFF7A1FF0021102063
:1023A00027E08249884206D101212020FFF797FFCC
:1023B000002120201DE07E49884206D101214020D5
:1023C000FFF78DFF0021402013E07A49884206D1B3
:1023D00001218020FFF783FF0021802009E076495A
:1023E00088420AD1841501212046FFF778FF002199
:1023F0002046BDE81040FFF772BF10BD10B50121A7
:102400000846FFF76CFF0021BDE810400120FFF7F0
:1024100066BFF0B5CC78002204F00F03E40601D5C6
:102420008C7823430C784FF00F0C4FF0010EDCB189
:1024300005680E880EFA02F42640A64210D19600D6
:102440000CFA06F725EA070703FA06F5CE783D43AE
:10245000282E02D0482E02D002E0446100E0046140
:10246000521C082AE5D305600A88FF2A1CD9446853
:10247000002202F108060EFA06F50E882E40AE4242
:102480000ED196000CFA06F7BC4303FA06F7CE7895
:102490003C43282E00D14561CE78482E00D10561FD
:1024A000521C082AE5D34460F0BD4FF6FF7101804D
:1024B000022181700421C170704702460020926899
:1024C0000A4200D001207047806880B270470246FF
:1024D0000020D2680A4200D001207047C06880B254
:1024E000704701617047416170470AB101617047EF
:1024F00041617047C160704741F4803282618161FF
:1025000082618169806970472C4B10B51A684FF65B
:102510008074224042EA00100843186010BD284928
:10252000C8617047F0B5254C002801DAE36900E086
:102530006368450D2E0185B2C0F30157B540C0F365
:102540000342032F05D0C6020AD503269640B343A3
:1025500007E023F07062636823F07063636002E059
:10256000AB4343F0706201B12A43002801DAE26113
:10257000F0BD6260F0BD10B58A0721F003040F4979
:10258000120F21440F238C6893409C438C608B680E
:10259000904003438B6010BD0949DC3108607047EF
:1025A00000080140000C01400010014000140140EF
:1025B00000180140001C01400020014000000140C3
:1025C000000020422749084327490860704770B53A
:1025D0000F23C278017801244FF0E025DAB1224AB6
:1025E000126802F4E062C2F5E062120AC2F1040667
:1025F000D3404278B24086781E401C4B16433201CD
:10260000CA54007800F01F018C40400905EB80009F
:10261000C0F8004170BD01F01F008440480905EB7F
:102620008000C0F8804170BD114A114001430E483E
:10263000001F016070470C4A121D0029116801D06B
:10264000014300E08143116070474FF0E02104280E
:10265000086903D020F004000861704740F00400CE
:10266000FAE700000000FA050CED00E000E400E0ED
:1026700080FFFF1F374900200860091D0860091D01
:102680000860091D086033493348143108607047F9
:1026900030B5304A8379016853B313688B431360B4
:1026A000111D0B680468A3430B60017911440B688A
:1026B000046823430B60274B083319680468A1435F
:1026C00019601C1D21680568A94321604179102902
:1026D00005D011440A68006802430A6030BD1968D9
:1026E000026811431960216800680143216030BD10
:1026F0000079104402688A43026030BD0021016005
:1027000001710C22427181717047124910310A68BF
:1027100002430A60704701460E4A002014321268D4
:102720000A4200D0012070470A49143108607047FE
:10273000084A014600201268064B0A4014331B6801
:102740000B4202D0002A00D0012070470149143109
:102750000860704700040140FFFF0F00C64910B534
:1027600088420AD101218C032046FFF7B8FD20469C
:10277000BDE810400021FFF7B2BDC049884202D138
:1027800001214C0410E0BE49884202D101218C0491
:102790000AE0BC49884202D10121CC0404E0BA49D4
:1027A00088420AD101210C052046FFF7A1FD2046F1
:1027B000BDE810400021FFF79BBD10BD30B50446B9
:1027C000008A85B00D464CF6FF710840E988014348
:1027D0002182A0894EF6F3110840A9882A89114365
:1027E0006A8902431143A181A08A4FF6FF41084044
:1027F000A9890143A1826846FFF7F3FC9E48844201
:1028000001D1039800E00298A1890904002900EB96
:10281000C00101EB0010296802DA4FEA410101E032
:102820004FEA8101B0FBF1F06422B0FBF2F14FEA14
:1028300001114FEA11136FF018056B4300EB830091
:10284000A3891D044FF0320306D503EBC000B0FB93
:10285000F2F000F0070005E003EB0010B0FBF2F02F
:1028600000F00F000843208105B030BD4FF4165131
:10287000016000218180C18001810C22428181811F
:10288000704710B5028A4FF2FF031A400B884C883C
:1028900023438C88C9880C4323431343038210BD10
:1028A0000021018041808180C18070470029818999
:1028B00002D041F4005101E021F4005181817047C0
:1028C00010B5C1F3421301F01F040121A140012BF7
:1028D00007D0022B07D01430002A026805D00A4323
:1028E00004E00C30F8E71030F6E78A43026010BDD0
:1028F000002A828A01D00A4300E08A43828270471C
:10290000028A22F00F020282028A0A430282704780
:10291000828922F40062828182890A43828170471F
:102920000029818902D041F0020101E021F0020179
:1029300081817047028A22F020020282028A0A43C1
:10294000028270470029018A02D041F4804101E0EF
:1029500021F4804101827047C1F3080181807047F2
:102960008088C0F308007047818941F001018181AE
:102970007047028BD2B20283028B42EA01210183AB
:102980007047028B02F47F420283028B0A43028368
:1029900070470029818A02D041F0200101E021F036
:1029A0002001818270470029818A02D041F0100104
:1029B00001E021F01001818270470029818A02D054
:1029C00041F0080101E021F00801818270470029EF
:1029D000818902D041F4004101E0C1F30E018181FF
:1029E00070470029818A02D041F4006101E021F49E
:1029F000006181827047828A22F004028282828A88
:102A00000A43828270470029818A02D041F0020184
:102A100001E021F002018182704702460020128805
:102A20000A4200D001207047C9430180704770B549
:102A300001F01F0501260024C1F3421306FA05F236
:102A4000012B0FD0022B0FD0838A4FEA112100886F
:102A5000134206FA01F600EA060001D000B1012493
:102A6000204670BD8389F0E7038AEEE70A0A012158
:102A70009140C94301807047003801400044004044
:102A800000480040004C0040005000400CB50022BF
:102A9000624800920192016841F4803101604FF474
:102AA000A063016801F4003101910099491C009173
:102AB000019911B900999942F3D10168890342D56E
:102AC0000121019156490A6842F010020A600A6821
:102AD00022F003020A600A6842F002020A604168BA
:102AE000416041684160416841F480614160C16A70
:102AF0004C4A1140C162C16A4B4A1143C16201682C
:102B000041F08061016001680901FCD5416821F450
:102B10007C114160416841F4E8114160016841F075
:102B20008071016001688901FCD5416821F00301D1
:102B30004160416841F0020141604168C1F3810197
:102B40000229FAD10CBD01920CBD344810B50168C0
:102B500041F0010101604168344A1140416001685F
:102B6000334A11400160016821F48021016041680D
:102B700021F4FE014160016821F0A05101604FF491
:102B80007F0181600021C162FFF780FF29494FF07A
:102B90000060086010BD70B5204B5868264A274970
:102BA00010F00C0004D0264C042803D0082803D0D1
:102BB0000A6029E00C6027E058685A680F2505EA8A
:102BC000904002F480320D2801D0801C00E00620E5
:102BD000BAB1DA6A12F4803FDA6A02F00F0202F147
:102BE00001020AD0DD6AC5F30316DD6A761CB4FB68
:102BF000F6F4C5F30325AD1C6C43B4FBF2F242437B
:102C0000D6E7104A5043086058680C4AC0F30310D6
:102C1000121D105C0A68C2400A6070BD00100240BC
:102C20000020024000F0FEFF440601000000FFF01B
:102C3000FFFFF6FE08ED00E000127A00C05300200E
:102C400040787D0100093D00094880470948004758
:102C5000FEE7FEE7FEE7FEE7FEE7FEE7FEE7FEE74C
:102C6000FEE7FEE704480549054A064B70470000A9
:102C70004B2B00085101000840540020405A00200E
:102C800040560020405600200FB4044910B503AA56
:102C9000029800F06FF910BC5DF814FBA80E00203C
:102CA0000FB41CB5074B06AA7B44694600900598F3
:102CB00000F031F90020694600F040F91CBC5DF8D5
:102CC00014FB0000910200002DE9F0410E4604467D
:102CD000002020622046E168884730B3252805D0CF
:102CE000D4E901219047206A401CF2E7E1682046C0
:102CF00000278847050018D0A5F14100192802D8FF
:102D000020354FF400673246294620462760FDF7FC
:102D10007DFA40B1012804D0F61D26F007060836DA
:102D2000D8E7361DD6E72846DAE7206ABDE8F08105
:102D300070B50C460546012A05D02878800600D5D6
:102D4000EA69002302E0012305E05B1C934202D202
:102D5000E05C0028F9D1A869E618C01AA861286AC1
:102D6000184428622846AFF3008004E0D5E9012129
:102D700014F8010B9047B442F8D32846AFF3008013
:102D800070BD00002DE9F041064600241068752949
:102D9000314616A511D0AFF30080002803DAC0F148
:102DA000000013A507E031688A0701D511A502E0EC
:102DB000490704D510A5012401E0AFF300800021EC
:102DC0000A2306F1240707E0B0FBF3F203FB12002D
:102DD000303078541046491C0028F5D123462A4645
:102DE0003046BDE8F04100F035B8000000000000BA
:102DF0002D0000002B00000020000000FDF731BC7A
:102E00004FF0000200B5134694469646203922BF83
:102E1000A0E80C50A0E80C50B1F12001BFF4F7AFCE
:102E2000090728BFA0E80C5048BF0CC05DF804EBB0
:102E3000890028BF40F8042B08BF704748BF20F81E
:102E4000022B11F0804F18BF00F8012B704770471C
:102E5000704770472DE9F0470D4699469246044663
:102E600000F124080168880604D5E06921F010010A
:102E7000216000E00120A84202DDA0EB050700E090
:102E80000027A16907EB050202EB0900A1EB000096
:102E9000A0612078C00602D42046AFF3008000264F
:102EA00008E0D4E901211AF806009047206A401C86
:102EB000761C20624E45F4DB2078C0060AD52046F9
:102EC000AFF3008006E0D4E9012130209047206A6A
:102ED000401C2062381EA7F10107F4DC07E0D4E9AA
:102EE000012118F805009047206A401C2062281E26
:102EF000A5F10105F3DC2046AFF300802078000641
:102F000002D50220BDE8F0870120FBE701694A1CD9
:102F100002610878704700B58FB0CDE9013100211A
:102F2000059105497944CDE9031011466846FFF73C
:102F3000CBFE0FB000BD0000E5FFFFFF0A6802F8FE
:102F4000010B0A60704710B5436913B1AFF30080FD
:102F500001E0FFF7EDFE012010BD127800F1240121
:102F60000A7000224A700122EDE711684FF0FF322B
:102F7000E9E70000074B70B50D467B44FFF7CBFF38
:102F800004462846FDF77CFB10B14FF0FF3070BDC2
:102F9000204670BDE5D6FFFF754600F029F8AE4625
:102FA00005006946534620F00700854618B020B555
:102FB000FFF758FEBDE820404FF000064FF0000735
:102FC0004FF000084FF0000B21F00701AC46ACE8D1
:102FD000C009ACE8C009ACE8C009ACE8C0098D463E
:102FE00070470446AFF300802046FDF724F9000047
:102FF00000487047E0530020491058BFC1F14041DC
:103000005B1058BFC3F140438B42EFF30080704721
:1030100010F0004248BF4042B0FA80F310FA03F1CA
:103020000AD0C3F11D0303F580634FEA415002EB60
:10303000035202EBD12170474FF000007047B0FA05
:1030400080F310FA03F10AD0C3F11D0303F5806386
:103050004FEA41504FEA035202EBD12170474FF043
:103060000000704751EA030C17D41CF5801F58BFAD
:10307000BCF5801F00F10680994218BF704708BF59
:103080009042704707D711F5801F58BF13F5801F76
:1030900019D499427047894270471CF5801F08D5A2
:1030A000BCF5801FF7D58B4218BF704708BF82421E
:1030B00070474FF4001C1CEB410F38BF1CEB430F53
:1030C00001D28B42704770B500F008F89224490095
:1030D0004FF000514FF08053FFF78EBF0EF1020EFC
:1030E0002EF0030E5EF8046B364205D4012A43EB42
:1030F000030515F5001F12D8012841EB010C1CF542
:10310000001F0CD80ED14FEAD17C15F5001F0CEB37
:103110004C0C0CF1020C08BF4CEBD37C04E04FF0DC
:10312000080C01E04FEAD37C0CEB4C0526FA05F6BF
:1031300006F00706B6F1040C06D20EEB860CBDE8CD
:1031400070404CF0010C6047DFE80CF0090B020204
:103150004FF000414FF00000A1F5002170BD19466D
:103160001046012851EB010418BFD4F5001484BFA8
:10317000002001F0004170BD53EA010C17D41CF58A
:10318000801F58BFBCF5801F00F106808B4218BF1E
:10319000704708BF8242704707D713F5801F58BF9A
:1031A00011F5801F19D48B4270479B4270471CF564
:1031B000801F08D5BCF5801FF7D5994218BF70470E
:1031C00008BF904270474FF4001C1CEB430F38BF00
:1031D0001CEB410F01D2994270470FB40CBC03BCE9
:1031E000FFF771BF00022000000440000400080047
:1031F00010008000100000040020010010000004F6
:1032000000200100020001000200000004000A008A
:103210000D0000000A002800280006000040000001
:103220000000020004000000200000000400000074
:10323000200000002000000020000000200000000E
:103240002000000010000000080000001000000036
:10325000040000000D0A20205F5F5F5F5F205F5F5A
:103260005F5F5F5F5F205F5F20205F5F205F5F5F6A
:103270005F205F5F5F20205F5F5F5F5F5F205F5F5A
:1032800020205F5F5F0D0A202F205F5F5F5F7C5F04
:103290005F2020205F5F7C20205C2F20207C5F5FF0
:1032A0005F205C5F5F205C7C20205F5F5F5F2F5F43
:1032B000207C2F205F205C0D0A7C20285F5F5F2030
:1032C0002020207C207C20207C205C20202F207C43
:1032D000205F5F29207C2029207C207C5F5F2020CC
:1032E000207C207C207C207C207C5F20205F5F0D68
:1032F0000A205C5F5F5F205C2020207C207C2020F7
:103300007C207C5C2F7C207C7C5F5F203C202F20FD
:103310002F7C20205F5F7C20207C207C207C207CF8
:10332000205C205C2F202F0D0A205F5F5F5F29202B
:103330007C20207C207C20207C207C20207C207C09
:103340005F5F5F29202F202F5F7C207C20202020A2
:10335000207C207C207C5F7C207C3E20203C0D0A51
:103360007C5F5F5F5F5F2F2020207C5F7C20207C64
:103370005F7C20207C5F7C5F5F5F5F2F5F5F5F5FB4
:103380007C5F7C20202020207C5F7C5C5F5F5F2F47
:103390002F5F2F5C5F5CC9F1D6DBCFB5C1D0BFAA70
:1033A000B7A2B0E50D0A0D0A000000000A0D2023A7
:1033B0002323232323232323232323205757572E39
:1033C00041524D4A495348552E434F4D2120232306
:1033D00023232323232323232323202853657020FF
:1033E00032332032303138202D2031333A33363ADF
:1033F000353529000000000000000000000010002A
:10340000001800001800001800003C00003C0000FC
:103410007C003FFFFC1FFFF807FFE003FFC001FF38
:103420008001FF8001FF8001FF8003E7C00381C0AE
:103430000300C00400600000000000000000000065
:1034400000000002000006000046003FC40000C467
:1034500004008FFE208808118990091180052180C1
:1034600002218003038005828005824008C2400853
:10347000C460104C2020083040101800600E0080FE
:10348000000000000000000000001802000C0E0008
:103490000672080441FC0041080041080441087E0E
:1034A000410804410804410804410804450804593E
:1034B000080461780441180401001A010071000039
:1034C00060E002003FFC000000000000000000007F
:1034D00000000318000618000430000C3FFC0C44E8
:1034E0001014432024820044324004222004421855
:1034F000048218051E080406000020000198200917
:103500008C1009884C19804C3180440180E000FF08
:10351000C000000000000000000001810003010065
:1035200003010402FFFE0601000401000E21180E33
:103530003FE8162108262108262108463FF80621E3
:1035400000061300061200060A0006060006060022
:10355000060F000610E006603C018000000000003D
:1035600000000800100FFFF80C08100C08100C08E1
:10357000100C08100C08100FFFF0080810080810B5
:103580000808100808100FFFF008081008081008B5
:1035900008101018101018102018102018F04000F3
:1035A00030000000000000000100040080020080E4
:1035B000020080000088009FFC3F90880110880373
:1035C0001088021FF80610880D90880CD0881450BF
:1035D0008C241FFC441088040080040080040080B8
:1035E000040080040080040180000100000000004D
:1035F000000000180000100000200003FFE002009F
:1036000040022040021040021840020840020040E0
:1036100002004E3FFFF00200400220400210400630
:1036200018400618400400400800401007C0200160
:10363000804000000000000000000000F8007F0053
:103640001F98000030000040400080C0073F000786
:10365000C400001800006040008020077FF8078841
:103660001801080000C88001886002083804081C9E
:1036700018080C20F80C00180000000000000000E2
:10368000000000000C000C083FF0080100080301D6
:103690008802008802188807F8880410880C30888F
:1036A0000A208813208821608801408800C0880093
:1036B0008188010108020008040008180078200031
:1036C00018000000000000000000000000000018CA
:1036D0001FFFE000818000818000818000818000E8
:1036E000818000818400818C1FFFF0008180008137
:1036F00080008180018180010180010180020180C0
:1037000004018008018030018000000000000000FA
:1037100000000031000460C00C60600C6060084074
:103720000018400C17FFF000C00000C00000FFE0D0
:1037300000A06001A040011080030980020900067A
:103740000600040600080D801030E020403E438053
:10375000080000000000000000000600300400F82F
:10376000041F000410000490003F10000C10100C07
:103770001FF00E14300D14201C942014B26014326B
:10378000402423C04421804421800423C004466097
:1037900004883804B01C05C00000000000000000D0
:1037A0000000000000000000000000000000000019
:1037B0000000000000000000000000000000000009
:1037C0000000000000000000000000000000018078
:1037D00001800180018001800180018001800180E1
:1037E00001800180018001800000000001800180D3
:1037F00000000000000000000000000000000000C9
:103800000330033003300330033003300000000086
:1038100000000000000000000000000000000000A8
:103820000000000000000000000000000000000098
:103830000630063006300C600C607FF87FF80C60B4
:103840001CE018C07FF87FF818C018C031803180A4
:1038500031800000000000000000000000000100B6
:1038600007C01FF0397031383118310019001F803E
:1038700007E0017001383118311839181D300FF088
:1038800007C001000100000000000000000000006F
:1038900000007018D83088308860886088C088C080
:1038A000D9807180031C0336062206220C220C22CA
:1038B00018221836301C00000000000000000780AD
:1038C0000FC01CE0186018600CC00F800F001F00B4
:1038D000398C70CC60786038603860FC3FCE0F84E3
:1038E00000000000000000000000000000000000D8
:1038F00001800180018001800180018000000000C2
:1039000000000000000000000000000000000000B7
:103910000000000000000000000000000000004067
:1039200000C0018003000300060006000C000C002C
:103930000C000C000C000C000C000C000600060033
:1039400003000300018000C00040000000000400EC
:10395000060003000180018000C000C0006000601C
:1039600000600060006000600060006000C000C097
:103970000180018003000600040000000000000038
:1039800000000000000000000000030003001B60B6
:103990001FE007800CC01CE00000000000000000D9
:1039A0000000000000000000000000000000000017
:1039B0000000000000000180018001800180018082
:1039C0003FFC3FFC018001800180018001800000FC
:1039D00000000000000000000000000000000000E7
:1039E00000000000000000000000000000000000D7
:1039F0000000000000000000000000000000018046
:103A00000180008000800100000000000000000034
:103A100000000000000000000000000000000000A6
:103A20003FFC3FFC00000000000000000000000020
:103A30000000000000000000000000000000000086
:103A40000000000000000000000000000000000076
:103A50000000000000000000000000000000030063
:103A60000300000000000000000000000000003023
:103A7000003000600060006000C000C000C001C0F5
:103A8000018001800180030003000300060006009E
:103A9000000000000000000000000000000007C05F
:103AA0000FE01C70183030183018301830183018EB
:103AB000301830183018301818301C700FE007C05C
:103AC0000000000000000000000000000000008076
:103AD000018003800F8019801180018001800180A6
:103AE00001800180018001800180018001800180CE
:103AF000000000000000000000000000000007C0FF
:103B00001FF018303018301800180018003000600E
:103B100000C00180030006000C0018003FF83FF8C9
:103B2000000000000000000000000000000007800E
:103B30001FE01870303030300030006003C003E008
:103B40000030001800183018301818301FE007C077
:103B50000000000000000000000000000000003035
:103B6000007000F000F001B00330063006300C3079
:103B7000183030303FFC3FFC003000300030003067
:103B800000000000000000000000000000001FF026
:103B90001FF018001800300037C03FE038700038C0
:103BA0000018001800183018383018701FE007C0CF
:103BB000000000000000000000000000000003E022
:103BC0000FF01C3818181800300033C037F03C7064
:103BD000383830183018301818381C700FE007C00B
:103BE00000000000000000000000000000003FF89E
:103BF0003FF800300060006000C001C00180038019
:103C000003000700060006000E000C000C000C006C
:103C1000000000000000000000000000000007C0DD
:103C20000FE01C701830183018301C600FE00FE0E7
:103C3000183030183018301830181C301FF007C0FA
:103C4000000000000000000000000000000007C0AD
:103C50000FE01C70383030183018301838381C78A5
:103C60001FD8079800180030003038701FE00F8010
:103C70000000000000000000000000000000000044
:103C80000000000000000000018001800000000032
:103C90000000000000000000000000000180018022
:103CA0000000000000000000000000000000000014
:103CB0000000000000000000018001800000000002
:103CC00000000000000000000000000001800180F2
:103CD00000800080010000000000000000000000E3
:103CE00000000000000000000008003801F007C0DC
:103CF0001F0018001F0007C001F000380008000076
:103D000000000000000000000000000000000000B3
:103D100000000000000000000000000000001FF88C
:103D20000000000000001FF800000000000000007C
:103D30000000000000000000000000000000000083
:103D4000000000000000000010001C000F8003E0D5
:103D500000F8001800F803E00F801C0010000000BD
:103D6000000000000000000000000000000007C08C
:103D70001FF018303018301800180030006000C0F4
:103D800001800300030003000000000003000300A3
:103D90000000000000000000000000000000000023
:103DA00007E018182004439444528822902290225D
:103DB0009022904488C8473040022004181807E039
:103DC000000000000000000000000000000001C032
:103DD00001C0036003600360063006300C180C1845
:103DE0000C181FFC1FFC380E300630066003600301
:103DF00000000000000000000000000000003FC0C4
:103E00003FF0303030183018301830303FE03FF09D
:103E10003018300C300C300C300C30183FF83FE0CC
:103E2000000000000000000000000000000003E0AF
:103E30000FF81C1C380C300E60066000600060003B
:103E40006000600060006006300E380C0FF807E07C
:103E500000000000000000000000000000007FC023
:103E60007FF0607060186018600C600C600C600C73
:103E7000600C600C600C6018601860707FF07FC090
:103E800000000000000000000000000000003FFCF7
:103E90003FFC300030003000300030003FF83FF889
:103EA0003000300030003000300030003FFC3FFC7C
:103EB00000000000000000000000000000001FFCE7
:103EC0001FFC180018001800180018001FF81FF831
:103ED0001800180018001800180018001800180022
:103EE000000000000000000000000000000007F0DB
:103EF0001FFC3C1E70066007E003C000C000C07FCE
:103F0000C07FC003E003600370033C0F1FFC07F099
:103F10000000000000000000000000000000300C65
:103F2000300C300C300C300C300C300C3FFC3FFCB3
:103F3000300C300C300C300C300C300C300C300CA1
:103F400000000000000000000000000000000180F0
:103F50000180018001800180018001800180018059
:103F60000180018001800180018001800180018049
:103F700000000000000000000000000000000060E1
:103F80000060006000600060006000600060006031
:103F9000006000600060186018601CE00FC00780BF
:103FA0000000000000000000000000000000600CA5
:103FB00060186030606060C06180630066006E0001
:103FC0007B00718060C0606060306018600C6006CB
:103FD00000000000000000000000000000001800C9
:103FE0001800180018001800180018001800180011
:103FF0001800180018001800180018001FF81FF803
:104000000000000000000000000000000000700739
:10401000780F780F780F6C1B6C1B6C1B6C1B663356
:1040200066336633636363636363636361C361C3FE
:104030000000000000000000000000000000300C44
:10404000380C3C0C3C0C360C360C330C330C318CDD
:1040500030CC30CC306C306C303C303C301C300CD0
:10406000000000000000000000000000000007E069
:104070001FF8381C700E6006C003C003C003C003E5
:10408000C003C003C0036006700E381C1FF807E0B1
:1040900000000000000000000000000000003FF0F1
:1040A0003FF8301C300C300C300C300C30183FF81E
:1040B0003FE0300030003000300030003000300091
:1040C000000000000000000000000000000007E009
:1040D0001FF8381C700E6006C007C003C003C00381
:1040E000C003C003E00760C670FC383C1FFC07EF4C
:1040F00000030000000000000000000000007FF04E
:104100007FF8601C600C600C600C601C7FF87FE026
:1041100060C06060603060186018600C600C600601
:10412000000000000000000000000000000007C0C8
:104130001FF0383030183018300038001FC007F03A
:104140000078001C600C600C700C38381FF007E021
:1041500000000000000000000000000000007FFEE2
:104160007FFE01800180018001800180018001804B
:104170000180018001800180018001800180018037
:104180000000000000000000000000000000300CF3
:10419000300C300C300C300C300C300C300C300C3F
:1041A000300C300C300C300C300C18181FF807E0B5
:1041B0000000000000000000000000000000C00639
:1041C000600C600C600C3018301830181830183043
:1041D0001C700C600C600EE006C006C003800380FB
:1041E0000000000000000000000000000000C00609
:1041F000C386C386C38666CC66CC66CC66CC66CCEA
:1042000066CC36D836D836D834583C781C701C70FA
:104210000000000000000000000000000000F007A7
:10422000300E180C0C180E30067003E001C001C0EF
:1042300003C007600E300C381818300C7006E00709
:104240000000000000000000000000000000C003AB
:104250006006300C381C1C180C30066007E003C0E8
:104260000180018001800180018001800180018046
:1042700000000000000000000000000000003FFE01
:104280003FFE0006000C00180030006000C00180F6
:10429000030006000C001800300060007FFE7FFE67
:1042A000000000000000000000000000000007C047
:1042B00007C006000600060006000600060006000D
:1042C00006000600060006000600060006000600BE
:1042D00006000600060007C007C0000000000C0032
:1042E0000C00060006000600030003000300038024
:1042F00001800180018000C000C000C0006000603B
:10430000000000000000000000000000000007C0E6
:1043100007C000C000C000C000C000C000C000C096
:1043200000C000C000C000C000C000C000C000C08D
:1043300000C000C000C007C007C0000000000000AF
:104340000380038006C006C006C00C600C601830F5
:104350001830000000000000000000000000000015
:10436000000000000000000000000000000000004D
:10437000000000000000000000000000000000003D
:104380000000000000000000000000000000FFFF2F
:10439000FFFF0000000000000000000000007000AF
:1043A00038001C0006000300008000000000000030
:1043B00000000000000000000000000000000000FD
:1043C00000000000000000000000000000000000ED
:1043D00000000000000000000FC01FE03830303047
:1043E00000F00FF01F303030303038F01FF00F1871
:1043F00000000000000000000000000000001800A5
:1044000018001800180018001BC01FF01C301818E6
:10441000181818181818181818181C301FF01BC076
:10442000000000000000000000000000000000008C
:10443000000000000000000003C00FE00C70183006
:10444000180018001800180018300C700FE003C096
:104450000000000000000000000000000000001844
:10446000001800180018001803D80FF80C38181896
:10447000181818181818181818180C380FF803D826
:10448000000000000000000000000000000000002C
:10449000000000000000000003C00FF00C301818EE
:1044A0001FF81FF8180018001C180C380FF003E054
:1044B000000000000000000000000000000001F00B
:1044C00003F00300030003000FE00FE0030003000C
:1044D00003000300030003000300030003000300C4
:1044E00000000000000000000000000000000000CC
:1044F000000000000000000007B01FF0187030300E
:104500003030303030303030303018701FF007B07D
:104510000030303038601FE00F80000000001800CD
:1045200018001800180018001BE01FF01C3818189D
:1045300018181818181818181818181818181818FB
:104540000000000000000000000000000000030068
:10455000030000000000000003000300030003004C
:104560000300030003000300030003000300030033
:104570000000000000000000000000000000030038
:10458000030000000000000003000300030003001C
:104590000300030003000300030003000300030003
:1045A0000300030003001F001E0000000000300095
:1045B00030003000300030003030306030C03180AA
:1045C000330036003F00398031C030C030603030B9
:1045D00000000000000000000000000000000300D8
:1045E00003000300030003000300030003000300B3
:1045F00003000300030003000300030003000300A3
:1046000000000000000000000000000000000000AA
:1046100000000000000000003E3CFF7EE3C7C183B5
:10462000C183C183C183C183C183C183C183C1836A
:10463000000000000000000000000000000000007A
:10464000000000000000000019E01FF01C381818DE
:1046500018181818181818181818181818181818DA
:10466000000000000000000000000000000000004A
:10467000000000000000000003C00FF00C3018180C
:10468000181818181818181818180C300FF003C03C
:10469000000000000000000000000000000000001A
:1046A00000000000000000001BC01FF01C301818A4
:1046B000181818181818181818181C301FF01BC0D4
:1046C0001800180018001800180000000000000072
:1046D000000000000000000003D80FF80C38181884
:1046E000181818181818181818180C380FF803D8B4
:1046F0000018001800180018001800000000000042
:1047000000000000000000000DE00FC00E000C00D3
:104710000C000C000C000C000C000C000C000C0039
:104720000000000000000000000000000000000089
:10473000000000000000000007C00FC01C7018300F
:104740001C000FC003E0003018301C700FE007C0E1
:104750000000000000000000000000000000000059
:1047600001000300030003000FE00FE0030003005B
:1047700003000300030003000300030003E001E063
:104780000000000000000000000000000000000029
:104790000000000000000000181818181818181859
:1047A000181818181818181818181C380FF807981F
:1047B00000000000000000000000000000000000F9
:1047C00000000000000000003018183018301830C9
:1047D0000C600C600C6006C006C006C0038003803D
:1047E00000000000000000000000000000000000C9
:1047F000000000000000000083828382C386C6C6DA
:10480000C6C6C6C66C6C6C6C6C6C383838383838B8
:104810000000000000000000000000000000000098
:104820000000000000000000381C1C380C3006603E
:1048300003C003C003C003C006600C301C38381C22
:104840000000000000000000000000000000000068
:104850000000000000000000180C0C180C180E18C6
:104860000630063007300360036001C001C001C09C
:104870000180018003800F000E0000000000000096
:1048800000000000000000003FF83FF8003000602A
:1048900000C00180030006000C0018003FF83FF83C
:1048A000000000000000000000000000000000C048
:1048B000018003000300030003000300030006005F
:1048C00006000C00060002000300030003000300C2
:1048D00003000300018000C0000000000000018010
:1048E00001800180018001800180018001800180C0
:1048F00001800180018001800180018001800180B0
:10490000018001800180018001800000000006001C
:10491000030003800180018001800180018000C0CC
:1049200000C0006000C00080018001800180018023
:10493000018001800300060000000000000000006C
:104940000000000000000000000000000000000067
:104950000F081FF810F00000000000000000000029
:1049600000000000000000000000000000007FFECA
:104970007FFE7FFE7FFE7FFE7FFE7FFE7FFE7FFE4F
:104980007FFE7FFE7FFE7FFE7FFE7FFE7FFE7FFE3F
:104990007FFE7FFE7FFE7FFE7FFE000000000000A6
:1049A00000000000000000000000001010101010B7
:1049B000100010000000002828280000000000005F
:1049C00000000014143E14287C2828000000103831
:1049D000545038141454381000000044A8A850143F
:1049E0001A2A240000000020505020E89898600007
:1049F00000000080808000000000000000000040F7
:104A00008080808080808080000000804040404026
:104A10004040404000000040E040A0000000000096
:104A200000000000002020F820200000000000000E
:104A300000000000000040400000000000000000F6
:104A4000C000000000000000000000000000400066
:104A50000000002020204040808080000000006096
:104A600090909090909060000000002060A0202026
:104A70002020200000000060901010204080F000F6
:104A800000000060901060101090600000000010A6
:104A900030505090F8101000000000704080E0107E
:104AA00010906000000000609080A0D090906000A6
:104AB000000000F010202020404040000000006076
:104AC0009090609090906000000000609090B050D6
:104AD0001090600000000000004000000000400056
:104AE0000000000000400000000040400000000006
:104AF0000010608060100000000000000000F00066
:104B0000F0000000000000000080601060800000E5
:104B10000000006090102040400040000000001C99
:104B2000225BA5A5A5A59E41000000205050505035
:104B300070888800000000F08888F0888888F0007D
:104B4000000000384484808084443800000000E085
:104B5000908888888890E000000000F88080F880C5
:104B60008080F800000000784040704040404000E5
:104B7000000000384484809C844438000000008891
:104B80008888F8888888880000000080808080807D
:104B900080808000000000101010101090906000C5
:104BA0000000008890A0E0A09090880000000080A5
:104BB000808080808080F00000000082C6C6AAAAA3
:104BC000AAAA920000000084C4A4A494948C840037
:104BD000000000304884848484483000000000F0E5
:104BE000888888F0808080000000003048848484B9
:104BF000845834040000007844447850484442000B
:104C0000000000708880700888887000000000F83C
:104C10002020202020202000000000848484848420
:104C200084483000000000888850505050502000C8
:104C300000000092AAAAAAAAAAAA4400000000841E
:104C400048483030484884000000008850502020F8
:104C500020202000000000F8081020204080F800EC
:104C6000000000C080808080808080800000008004
:104C70008040404040202000000000C040404040B4
:104C80004040404000000040A0A0A0000000000004
:104C90000000000000000000000000F8000000809C
:104CA00040000000000000000000000000E0107064
:104CB000909070000000008080A0D09090D0A00064
:104CC00000000000006090808090600000000010F4
:104CD0001050B09090B0500000000000006090F0C4
:104CE00080906000000000C080C0808080808000D4
:104CF000000000000050B09090B050100000008004
:104D000080A0D09090909000000000800080808073
:104D10008080800000000080008080808080808013
:104D2000000000808090A0C0A09090000000008053
:104D300080808080808080000000000000A6DA92E1
:104D4000929292000000000000A0D09090909000FD
:104D50000000000000609090909060000000000053
:104D600000A0D09090D0A080000000000050B09033
:104D700090B050100000000000A0C0808080800033
:104D80000000000000E090402090600000000080E3
:104D900080C080808080C000000000000090909063
:104DA00090B0500000000000008888505050200053
:104DB000000000000092AAAAAAAA44000000000075
:104DC00000885020205088000000000000885050CB
:104DD000502020200000000000F010204080F00053
:104DE000000000C080808000808080800000008003
:104DF0008080808080808080000000C04040402013
:104E0000404040400000000000E8B000000000000A
:104E1000007E7E7E7E7E7E7E7E7E7E0000000000A6
:104E2000000000004040404040400040A0A0A000E2
:104E300000000000002424FE48FC48483854503844
:104E40001414543844A8A850141A2A2410282810DE
:104E5000744C4C30101010000000000008101010AE
:104E6000101010081008080808080810000024187E
:104E70003C182400000010107C10100000000000FE
:104E800000080810000000003C00000000000000C6
:104E900000001818080808101020202018242424C6
:104EA000242424180818280808080808384400048E
:104EB0000810207C1824041804042418040C14245A
:104EC000447E04043C20203804042418182420388C
:104ED000242424183C04080808101010182424184E
:104EE00024242418182424241C042418000010004E
:104EF0000010000000000800000810000000041866
:104F0000201804000000003C003C000000002018B5
:104F10000418200018240408101000103C4299A521
:104F2000A59D4238384444447C4444447844447801
:104F3000444444781C2242404042221C704844446D
:104F4000444448707C40407C4040407C3C202038B9
:104F5000202020201C2242404E42221C4444447CFB
:104F600044444444101010101010101004040404A1
:104F700004242418444850705048484420202020DD
:104F80002020203C82C6C6AAAAAAAA9242625252F5
:104F90004A4A464218244242424224187844444431
:104FA000784040401824424242422C1A78444478C7
:104FB0005048444238444038044444387C1010106F
:104FC0001010101042424242424224184444282801
:104FD0002828281092AAAAAAAAAAAA4442242418D5
:104FE0001824244244282810101010107C040810A3
:104FF0001020407C1C1010101010101C10100808FD
:10500000080804041C0404040404041C10284400BC
:105010000000000000000000000000002010100050
:1050200000000000000018041C24241C2020283448
:105030002424342800001824202024180404142CCC
:1050400024242C14000018243C20241800181010CC
:1050500018101010001824241804241820202834B4
:105060002424242410001010101010100800080828
:10507000080828102020242830282424101010107C
:10508000101010100000A6DA9292929200002834BC
:105090002424242400001824242424180028342440
:1050A0003820202000142C241C04040400002C3080
:1050B0002020202000001824100824180010381088
:1050C000101010180000242424242C140000444440
:1050D00028282810000092AAAAAAAA44000044285E
:1050E00010102844002828281010101000003C043C
:1050F0000810203C0008101020101008101010108C
:1051000010101010001008080408081000000060BB
:10511000920C0000007E7E7E7E7E7E003C51000868
:1051200000000020D45300008C01000884680008AF
:10513000D45300206C060000F001000802170001A3
:10514000600B100000700000780000F8036005D8C4
:1051500000019C0360058C00030E03800506000619
:10516000070310070C03800FFF8006110950061873
:1051700003C018010350063001E030000300082D81
:105180007000F0FC03FC0001E010FFFE001C078033
:105190001C03C01C01C01C00E003320118200903DD
:1051A000801C07001FFC0009420027327003021216
:1051B0003803411B12E036115D012F01341F3F08F7
:1051C00000C1F80300780600380E00180C00181C07
:1051D000000C18000C3800043800003040011C039B
:1051E000312A113023081C0300102F180E00300F35
:1051F00000600781C001FF80007E8F1006FFF00075
:105200001C0EF97004001C01FC6260FF06153002E0
:10521000A10366301132703945532550231C1E5DA1
:10522000052FB076FFAA11873220842005101C00BC
:105230000003920103140503001FFFDA41BA610362
:10524000A20003452032100331A500063001E0FF23
:10525000FFE0901004F01C000316786B31519005AC
:105260000C1C000466828003180501801FFF6A2160
:105270000991180219000315B2052FB1240AF8404C
:105280000387C00601C00C26180EC0180040380065
:10529000603000607000201F000513600000E00314
:1052A0002C0A07FCE001F0E000E060480351033203
:1052B00038030C0E2F1800E00C00E00E01E0038311
:1052C00000005F03600600FF07FC384B011F03006E
:1052D00004283FFFE02D1130115D0D2E5F03160FE6
:1052E000E31D49030154030A300F4000075801FF32
:1052F000FC000700032F30064B042B780CA10C0692
:105300001E3830000FC0F0031F8FF809035DF5044D
:105310001DF6033E06FF0320141C001C18001C3061
:10532000001C70001C60001CE0001DF00330091F11
:1053300078001F38001E3C21321E2A3E0E75032DB8
:10534000780339EB4D58054E014F050C042FF0FF43
:1053500083A0050006437FC0000E00033204031C37
:10536000050C0E000858052E0E5E050F30F87F81E3
:10537000049007F800FE3C01F0038004702E030344
:1053800070052F0670270360050470238C03300816
:10539000887023C87021D8037007D07021F0702066
:1053A0000332E0032260030F2FFC4331061C04FC90
:1053B00000FEC20410081E00101F00101703100486
:1053C000801013031004C01011031004E010100328
:1053D000301AF010107010107810103810103C10A7
:1053E000101C10101E10100E101007031008039050
:1053F0001003D01001034004F010000332700312B8
:1054000030032EFEB107052DB118057C000183780D
:105410003C06C00600C00C2A0610071800303800F1
:1054200038032005300018700302191C03112411E1
:1054300027413011391DDF051145114B10040301BF
:105440008057115D0D32E0072DB6070D1FB3073DE4
:105450009C060C061C03801FFE0094050D3EA00553
:105460003404FC00032034040E006020C630200207
:105470001F1C03102138F01839FC383B1C383E0E35
:10548000301E0E700E07600E07E00707C001878010
:10549000007F880003033C05F00001F0EA050D27BA
:1054A00000095DFD089EF0AD0771036D090936071F
:1054B0001D4DED037DF0030E130FF003514E0F2F22
:1054C000FF80A005100601FC2006076F2D78061D41
:1054D000E2052E70BA065DBD064D3A0A1C053C0079
:1054E000001FC7051004C00007E61DEF09127F0D5D
:1054F0004C07800007C00001CB066006F04000703A
:1055000060032230031DC6060C0930C03C01C03FB9
:10551000030021C0060C16203FFFF0707070607011
:1055200030607010407010C07018807008850901DC
:1055300024030E3003200A1FFF01500702482003F6
:105540001DA2031E40280834060F038007FF5001E8
:105550002E901D10052D5C062DAB031D9309620EC8
:105560000360050F00C0070350040381800350054A
:10557000C10001C303600600E20000E6033E74DBE5
:1055800003367CE17D9E070F3110007F047009FC1B
:10559000FEFC7078307038031260031005781C60D0
:1055A0003803423C03101040383CC0387CC03C6E8D
:1055B000C01C4EC01CCE032004801C8E0310091D8D
:1055C0008F801F87800F0703420003420E033007BE
:1055D000030006020004030D2FC0061C0483F81EFE
:1055E0003F092DF0031004800701033C13000783DB
:1055F0000003820003C60001C40001EC0000EC08B7
:105600000D5E78BC0B2D49081508100A5C0000DE01
:1056100000008E0001032C0E070003070002038028
:105620000603800403D8095E081E030F31F0FEF064
:105630000C4C0807F83C01E03C00A80313800E0363
:10564000100703000F03000703100D060003860078
:10565000038E0003CC0001034C04DC0001A70D0AFB
:1056600059F0D02C050FFFF80F2F0D1EF0F0031E80
:1056700018CE0D1C0801C02003C00003D203110383
:105680001DDB033DBD073E1E0E0B451D4D09043DB0
:10569000EC03120129812C2F080FED0C1D0B07299B
:1056A0008B0C08213C00703801E07FD00B100A38C9
:1056B00001400044004000080883140108E104127E
:1056C0001004520C08212C3D8C0C0D1D6D0A2C056C
:1056D00008000018180A0F4E07F86C0A0C06327CF6
:1056E0000007FFC07C063D4C0F4D3D0F7D770B3210
:1056F0003C03461C522555368081357B661C7562FD
:10570000E01A3C0A00000600200C002018580C503B
:10571000062000C07FFF0301349019D76E0C3406B9
:10572000321E035E0EA50C318D3201733E0E250331
:10573000190E110F1118211E4E6045055005180055
:10574000703C033E60AF0C1D22031E803C100D31E7
:10575000CC0421694D380B3E0F65063C1417000040
:10576000370000270000670000C70000870001879E
:105770008B033D99101A04721C07070018070010CC
:10578000650B1E07620F1C04007FFF510A0E15F8FF
:10579000890B1380001B0D30AC0C41033A084B7190
:1057A000037210035C08FE0013FF001703C0073EDE
:1057B000180007AD6206F51D1D6403252006340799
:1057C000201E7EDC092F80038A041FC00C86111D59
:1057D000891159E12D99105D9C102C107E0071FFEC
:1057E000807783C07601C07C00E0784A0EA2700307
:1057F0001D93073238033E180F101E0C2A0A0F346F
:1058000001805C0E30041FFFF0032D0C10100910F6
:1058100000C030008020010335C81DAA056C0806B1
:1058200000000400000C87039218A6EE600B0FF234
:1058300001030E2F00CB0D1C040001FE47051D5374
:1058400005558C6238EA3A38A019DC1C0A1F00E0C2
:105850000F81C007E380F90711031C06063F000C07
:105860000F5B121EC0AB041DAE041DC112D52C6906
:10587000D01EC09E050D319C071DBF051DD4052EF1
:105880000C11111E80040911035E304F09C26069BA
:105890001EF04C061E38D60CDC0B03701F0E700F6A
:1058A000FC7003F02C102D17041937131E03032C62
:1058B00007001E06000E1C650A014D013E786010AF
:1058C0007103024E783001349371030131337973DF
:1058D0003A30730D1D8A069E20680539BE6A0CB5E4
:1058E0003E600C05E280173A18DE3A06F05D1805B6
:1058F000021060194D2E05327060054AAF10047F0A
:10590000FFFC0301341E05318B3E1068043E1C0C65
:1059100010011BF0A50905153991177DE3060D2E21
:105920006B0A1D7C0C1D320B3E0E4D073D84163F4D
:1059300060604E0330057800707C035E3C36072EB5
:10594000E0A5081D00066E0FC508F2300379709EB1
:10595000701A170E3370A0052C04C18003310F1D7F
:10596000A1071D3A0F100B18180ED818319838617E
:105970008C03200C30C18C70C18C71818C718303BD
:105980004373030310080C730308730718037C0D9B
:10599000330F10399B3039FBE038E1CC3C161DDA6F
:1059A000060C043203C1E03C160DFFEC170DFFECB2
:1059B000170DFFEC170DFFEC170DFFEC170DFFECAB
:1059C000170DFFEC170DFFEC170DFFEC170DFFEC9B
:1059D000170DFFEC170DFFEC170DFFEC170DFFEC8B
:1059E000170D83EC171E00FD211103036EC0000389
:1059F00041780D18CA146E18B4113E0C00096E06D9
:105A0000BD1121032E80FA115DF7167DFA164DFDAA
:105A1000163E3014114DDC14C21C3DC2073D021667
:105A2000013DCD010522F803515101690351780D63
:105A30001261082C0600FE0001EF67081D0220001D
:105A400005FC04004000019C05FFFFFEFF55287E79
:105A50001F0D073E70221801AE011D44133E062B98
:105A6000241E388E1A61032DD71B3C071FC001F17D
:105A7000C00F7D29411B52700312C4030C09293841
:105A800007CC1C19F807E0BC234D08180E1FFCD3E7
:105A9000212C0B3E001CFF801DC3C01F01AC178EC4
:105AA0001EE9290113032D3322040C511E00C01ED0
:105AB00001801B830010FCF03D71191F07013D1E82
:105AC0002FE00C962521030D13D20E4DC6283C0560
:105AD0001E00200EEC291E03B0130D2C4B241D7D3F
