:020000040801F1
:10000000D85D0020B96501087D1001087F10010846
:1000100083100108871001088B1001080000000000
:100020000000000000000000000000008F10010828
:10003000911001080000000009A9010893100108AF
:10004000D3650108D3650108D3650108D3650108AC
:10005000D3650108D3650108D3650108D36501089C
:10006000D3650108D3650108D3650108D36501088C
:10007000D3650108D3650108D3650108D36501087C
:10008000D3650108D3650108D3650108C3150108CC
:1000900061150108D3650108B115010865640108FF
:1000A000D3650108D3650108D3650108D36501084C
:1000B000D3650108D3650108D3650108D36501083C
:1000C000D3650108D3650108D3650108D36501082C
:1000D000D3650108D3650108D3650108D36501081C
:1000E000D3650108D3650108D3650108D36501080C
:1000F000D3650108D3650108D3650108D3650108FC
:10010000D3650108D3650108D3650108D3650108EB
:10011000D3650108D3650108D3650108D3650108DB
:10012000D3650108D3650108D3650108D3650108CB
:10013000D3650108D3650108D3650108D3650108BB
:1001400071160108D3650108D3650108D36501085C
:10015000D3650108D3650108D3650108D36501089B
:10016000D3650108D3650108D3650108D36501088B
:10017000D3650108D3650108D3650108D36501087B
:10018000D3650108D365010800F002F800F05CF8BF
:100190000AA090E8000C82448344AAF10107DA45E2
:1001A00001D100F051F8AFF2090EBAE80F0013F0D8
:1001B000010F18BFFB1A43F0010318476CCC000075
:1001C0008CCC00000A444FF0000C10F8013B13F0F7
:1001D000070408BF10F8014B1D1108BF10F8015BA0
:1001E000641E05D010F8016B641E01F8016BF9D193
:1001F00013F0080F1EBF10F8014BAD1C0C1B09D1EA
:100200006D1E58BF01F801CBFAD505E014F8016B5B
:1002100001F8016B6D1EF9D59142D6D370470000ED
:100220000023002400250026103A28BF78C1FBD8FF
:10023000520728BF30C148BF0B6070471FB50CF094
:1002400039FB1FBD10B510BD0AF04EFC1146FFF77B
:10025000F5FF00F02BFE0AF06CFC03B4FFF7F2FF91
:1002600003BC0AF06DFC00007FB5684606F089FC0F
:100270004FF47A720198B0FBF2F1481EB0F1807F22
:1002800000D319E0481E4FF0E022506150170F22B2
:10029000002806DA1301FE4C00F00F052D1F6355F0
:1002A00002E01301FB4C235400BF00204FF0E0227A
:1002B00090610720106100BF7FBD06F049F900BFC3
:1002C00006F04AF94FF47A700AF0DAF9F8E708B55F
:1002D000002400BF6A460021EF48006809F0D6FDFF
:1002E0009DF800000028F5D1EC490870EC49087031
:1002F000EC48007806F08CF80446EB480470E9E717
:1003000008B500BF6A460021E848006808F0BAFD59
:1003100004469DF800000028F4D16A460021E44814
:10032000006809F04DF8D4E90032D4E9020105F083
:10033000B3FBDF48006809F070F90120DD4908705F
:100340000020DD490870DDE708B500BF6A460021DE
:10035000DA48006808F096FD04469DF80000002881
:10036000F4D16A460021D248006809F029F8D4E99E
:10037000001005F010FCCE48006809F04EF901208D
:10038000CF4908700020CF490870DFE708B500BFEB
:100390006A46FA21CC48006809F0D8FA0446CB48EE
:1003A00000780228F4D19DF8000000284ED1C848FA
:1003B000007840B10020C7490860C54908704FF077
:1003C00032000AF05DF9C448007808B9E07A78B9DB
:1003D0000020C24908700120C14908704870C14816
:1003E000006808F00CFE4EF66020BF490860CFE7B9
:1003F000E07A0128CCD10F20005BBC4908600D20B9
:10040000005BBB490860BB480068B849096888427E
:1004100005D1B5480068B649096888420DD0B3488F
:100420000068B5494860B248006808609F480068A5
:1004300008F0E5FD0120A0490870AC480068AD490E
:100440000860AB480068A8490860A1E7AB4800789D
:1004500000289DD00020A14908700120A049087003
:100460004870A048006808F0CAFD4EF660209E491A
:1004700008608DE708B500BF6A46FA21A048006809
:1004800009F064FA0446914800780228F4D19DF8F6
:100490000000002856D1032004F064FA0546C5F395
:1004A000C00058B19748006810B99748006828B153
:1004B000012005F010F932200AF0E2F886480078B1
:1004C00008B9E07A80B90020904908700220844978
:1004D0000870012048708348006808F090FD4EF6CF
:1004E00060208B490860C7E7E07A0128C4D10F205B
:1004F000005B884908600D20005B874908608748D9
:10050000006884490968884205D1814800688249A9
:10051000096888420DD07F480068814948607E485C
:10052000006808606548006808F069FD01206549B9
:10053000087078480068794908607748006874490D
:10054000086099E777480078002895D000206F4927
:1005500008700220624908700120487061480068F4
:1005600008F04DFD4EF660206949086084E708B543
:1005700000BF6A4600215B48006808F083FC04461F
:100580009DF800000028F4D146480078022813D1D5
:100590002078012820D16A4600214548006808F0EB
:1005A0000FFF61782278521ED0B204F0B1FF4048AC
:1005B000006809F032F80FE06A4600213C48006804
:1005C00008F0FEFE61782278521ED0B204F0A0FF3F
:1005D0003748006809F021F82078012802D13F4906
:1005E0000870C6E72078022803D101204749087027
:1005F000BFE700203949087044490870B9E78AB05C
:1006000000BF2948007804F047FB2648017801A87C
:1006100004F0EFFC01A80FC8CDE90723CDE90501DF
:1006200009AA00214048006808F0CAFE05A80FC8C2
:1006300004F083FC3C48006808F0EFFF64200AF0F7
:100640001FF8DEE78AB0002007900890059006901A
:100650008DF809008DF8080000F001FF432000909C
:1006600005208DF80A00FF208DF80B0002218DF87F
:100670000C1005218DF80D1018218DF80E102B4847
:1006800001788DF80F106946294806F07DFE51E08B
:1006900018ED00E000E400E08400002006000020E7
:1006A000070000200D0000200A0000205800002054
:1006B0008000002005000020440000205C00002095
:1006C0000400002045000020480000200000002019
:1006D0009409002098024042B10900200B0000203C
:1006E0009400002060000020300000202400002042
:1006F000280000202C000020D04100209709002075
:100700004C00002034824142308241420C000020E3
:100710004000002034000020380000203C00002071
:100720008C000020980900207C00002000000D08AB
:1007300000640040642009F0A3FF00BF09AA002163
:10074000F948006809F002F90446206833287DD092
:1007500006DC30280BD0312867D0322864D199E0EC
:10076000362874D0372873D03F28F7D1D2E1402003
:10077000009001208DF80A0030208DF80B00E07AFF
:1007800030B101281ED0022829D0032844D13DE0F1
:10079000E6480078062803D0E4480078032810D102
:1007A000A07A01280DD10121032004F0D0FB012003
:1007B000DF4908700F20DF490870DF48006809F042
:1007C00016FC29E0002004F086FF322009F058FFD3
:1007D000012004F080FF322009F052FF1CE0D348D2
:1007E0000078022811D1002004F0DCFF052009F078
:1007F00047FF0121022004F0AAFB0120CF49086035
:10080000CF49C1F89C02CF49087005E00020CB49D0
:100810000860CC49087000BF00BF6946CA4806F0AE
:10082000B3FD012009F02CFFDFE141200090012001
:100830008DF80A0031208DF80B006946C24806F099
:10084000A3FD012009F01CFFC04902E053E003E1D1
:1008500031E1097801EB8101BD4A02EB81001422EC
:1008600021460AF0D2F8B94802780078401CB74B0C
:10087000187002EB8200B64A02EB8001B5480068AE
:1008800009F02EF9B14800781E2802D10020AF49A6
:100890000870AAE14220009001208DF80A00322061
:1008A0008DF80B006946A84806F06EFD012009F09E
:1008B000E7FEA949097801EB8101A84A02EB810012
:1008C000142221460AF0A1F8A34802780078401CBF
:1008D000A14B187002EB8200A04A02EB8001A048F5
:1008E000006809F0FDF89C4800781E2802D100201D
:1008F0009949087079E143200090E07AFB2878D08C
:10090000FC283AD0FD2815D0FF2812D105208DF8FB
:100910000A00FF208DF80B0002218DF80C10052134
:100920008DF80D1018218DF80E108E4801788DF875
:100930000F1088E008208DF80A00FD208DF80B00CC
:10094000894801788DF80C10401C01788DF80D1045
:10095000401C01788DF80E10401C01788DF80F10A6
:10096000401C01788DF81010401C01788DF8111092
:10097000401C01788DF8121065E001208DF80A0006
:10098000FC208DF80B0007F0BEFF07F045F90020B2
:1009900007F025F90221302007F092F9217B7248F7
:1009A00007F000FB617B7048401C07F0FBFAA17B5D
:1009B0006D48801C07F0F6FAE17B6B48C01C07F01D
:1009C000F1FA217C6848001D07F0ECFA617C66486A
:1009D000401D07F0E7FAA17C6348801D07F0E2FAAA
:1009E000012007F0FCF807F024F907F0A5FF2AE042
:1009F000FFE701208DF80A00FB208DF80B00594815
:100A00000078032804DC57480178207B814219D004
:100A100007F079FF07F000F9002007F0E0F8022165
:100A2000502007F04DF9217B4E4807F0BBFA01201A
:100A300007F0D5F807F0FDF807F07EFF4948007889
:100A40004A49087000BF00BF69463F4806F09CFC59
:100A5000012009F015FEC8E054F80B0F07906068FC
:100A60000890082207A9012004F0A2FA01204049B9
:100A7000087009AA4FF4FA613E48006809F006FAC6
:100A80009DF8240060B90020059006903A4801685E
:100A900005914068069005A9462000F0EDFC09E0AC
:100AA000002005900690FF208DF8140005A946202F
:100AB00000F0E2FC99E054F80B0F07906068089092
:100AC000082207A9022004F073FA012028490870BF
:100AD00009AA4FF4FA612948006809F0D7F99DF88E
:100AE000240060B900200590069023480168059114
:100AF0004068069005A9472000F0BEFC09E00020F0
:100B000005900690FF208DF8140005A9472000F0FD
:100B1000B3FC6AE04F200090E07A20B1012839D080
:100B2000102855D13FE02BE05000002000000020AD
:100B3000010000200A0000208400002098024042AA
:100B4000000040429409002000640040880000201A
:100B5000E041002048000020180000203844002018
:100B60004C00002000000D08000805080D000020C2
:100B700021000020740000201900002078000020CF
:100B800001208DF80A0000208DF80B000A2009F0E2
:100B900073FC21E001208DF80A008DF80B000A207B
:100BA00009F0D3FC18E0012080F3138800BF00BFD8
:100BB000BFF34F8FF548006800F4E060F449084344
:100BC000001DF2490860BFF34F8F00BF00BFFEE772
:100BD000EE208DF80B0000BF00BF6946ED4806F01F
:100BE000D3FB012009F04CFD00BFA7E58AB000BF90
:100BF0006A460021E848006808F044F90446607A33
:100C00008DF81D00207A8DF81C00A07A8DF81E004A
:100C100020680590002507E004F10B00415D0DF10F
:100C20001F004155681CC5B2082DF5DB01A905A8B8
:100C300000F07AFC0198C0F3C7162068A0F5E061C7
:100C400001390CD1E07A0F2809D0D448007830B9A6
:100C5000D348006809F0CBF90120D049087020681A
:100C6000A0F5E06102390CD1E07A0F2809D0CD4817
:100C7000007830B9CC48006809F0B9F90120C949B9
:100C800008702068A0F50071813915D1E07A372805
:100C900012D1207BC0F3800070B1207B10F0010FD7
:100CA0000AD1C2480078012806D1C148006809F07D
:100CB0009EF90020BD4908702068A0F500718139B7
:100CC00002D10020BB4908702068B0F5C17F15D162
:100CD000E07A372812D1207BC0F3800070B1207BEE
:100CE00010F0010F0AD1B4480078012806D1B348AA
:100CF000006809F07CF90020AF4908702068B0F561
:100D0000C17F02D10020AE4908702068A0F5A06123
:100D1000813911D1AB48007801280DD10020A949B3
:100D20000870A948D4F80B100160D4F80F10416086
:100D3000A648006809F05BF9207B01280ED1607B92
:100D400010280BD12068A0F5A061813906D10020C0
:100D5000984908700F2000599D4908602068A0F547
:100D6000A061823911D19748007801280DD1002067
:100D7000944908709448D4F80B100160D4F80F100F
:100D800041609448006809F032F9207B01280ED1B7
:100D9000607B10280BD12068A0F5A061823906D1B4
:100DA0000020874908700F2000598B490860C6EB66
:100DB000C6008A4901EB8000806900283FF418AF23
:100DC000C6EBC60001EB800001A9826900209047B4
:100DD0000EE770B505460923814A0021814809F0D4
:100DE00083F904460B23804A0021804809F07CF9EE
:100DF000044604237E4A00217E4809F075F9044622
:100E00000E237D4A00217D4809F06EF904460F2328
:100E10007B4A00217B4809F067F9044608237A4A97
:100E200000217A4809F060F904460A23784A002133
:100E3000784809F059F904460C23774A002177488D
:100E400009F052F904460D23754A0021754809F04E
:100E50004BF904460CB100BFFEE7FF2009F0DEF9B4
:100E600070BD70B50546FFF7FFF96F48007803289D
:100E700003DD00206D49087003E06B4800786B4982
:100E8000087007236A4A00216A4809F02DF90446D0
:100E90000323694A0021694809F026F904460CB188
:100EA00000BFFEE7FF2009F0B9F970BD08B564483E
:100EB0003649091F086040F6AC5005F051FB00F0C0
:100EC00001FC05F0F0FA00F0F3F907F0C4FC1E2174
:100ED0005C4808F067FC5C4908601E215B4808F02C
:100EE00061FC5B4908601E215A4808F05BFC5A49C6
:100EF0000860002007F039FF27490860002007F04C
:100F000034FF56490860002007F02FFF544908605D
:100F1000002007F02AFF53490860002008F029FF4D
:100F20001F490860002008F024FF1F4908600020C6
:100F300008F01FFF1E490860002008F01AFF1F4933
:100F40000860002008F015FF47490860002008F0FD
:100F500010FF1E490860002008F00BFF1D490860C3
:100F60006946052008F024F94049086069460620D2
:100F700008F01EF93E49086002233E4A00213E481F
:100F800009F0B2F807F001FD002008BD0CED00E00B
:100F90000000FA0500640040540000200600002014
:100FA00064000020070000206800002008000020E6
:100FB0006C0000209509002009000020700000202E
:100FC0009609002021000020190000207400002054
:100FD000100000207800002014000020CC00002029
:100FE000EC13002045060108EC270020CF02010881
:100FF000EC370020BB020108EC2B002001030108A4
:10100000EC2F002049030108EC3300206F05010894
:10101000EC1B0020FF050108EC3B00208D030108BC
:10102000EC3F00207504010800000D080D000020B1
:10103000EC1F0020ED0B0108EC230020D30D01086C
:1010400000000108E0400020480000205841002036
:101050004C000020F03F00205000002058000020ED
:101060005C00002060000020840000207C00002044
:1010700080000020EC0B0020630E0108704700BFC9
:10108000FEE700BFFEE700BFFEE700BFFEE77047D8
:10109000704710B507F0F1FB07F08FFC07F0FBFB82
:1010A00010BD00000CB5002001900090754800684C
:1010B00040F480307349086000BF7248006800F453
:1010C000003000900198401C0190009818B90198D8
:1010D000B0F5A04FF1D16B48006810F4003F02D08A
:1010E0000120009001E0002000900098012845D1E7
:1010F00064484030006840F08050624940310860E8
:101100006148006840F440405F4908605D4808302D
:1011100000685C49083108600846006840F40040F7
:1011200008600846006840F4A05008605748091F4E
:101130000860081F006840F08070091F086000BF49
:101140005048006810F0007FFAD040F20570504916
:1011500008604C480830006820F003004949083115
:1011600008600846006840F00200086000BF45487B
:101170000830006800F00C000828F8D10CBD10B54C
:101180004448006840F47000424908603D480068E7
:1011900040F001003B49086000203A4908310860EE
:1011A000384800683C490840364908603B48091DFA
:1011B0000860081F006820F48020091F08600020D4
:1011C00030490C310860FFF76DFF4FF00060314986
:1011D0008039086010BD70B5002000220223002471
:1011E0000221284D08352D6805F00C0020B1042897
:1011F00006D0082834D107E0294D2A4E356033E067
:10120000294D284E35602FE01E4D2D1D2D68C5F34C
:1012100080541C4D2D1D2D6805F03F0154B1224D09
:10122000B5FBF1F5174E361D3668C6F3881605FB7B
:1012300006F209E01A4DB5FBF1F5124E361D36687F
:10124000C6F3881605FB06F20E4D2D1D2D68C5F35D
:1012500001456D1C6B00B2FBF3F5124E356003E0E7
:101260000F4D104E356000BF00BF064D08352D688C
:10127000C5F303150D4E705D0A4D2D68C540094E2E
:10128000356070BD003802400070004019544007BE
:10129000003C024088ED00E0FFFFF6FE1030002425
:1012A0000024F4009800002040787D019C0000207C
:1012B00000B58BB0F848F94908600020F84908707B
:1012C00001210A2005F02EFD01214FF0C06005F03C
:1012D00072FD0320099002208DF8280000208DF86F
:1012E0002A0003208DF8290001208DF82B0009A980
:1012F000EC4805F079FA6020099002208DF828006A
:1013000000208DF82A0003208DF8290001208DF897
:101310002B0009A9E44805F067FA09220021E148F9
:1013200005F0EDFA09220121DE4805F0E8FA09226C
:101330000521DD4805F0E3FA09220621DA4805F027
:10134000DEFA4FF4C06005F057F914208DF8200044
:1013500002208DF8210000208DF8220001208DF858
:10136000230008A805F04DF916208DF82000012073
:101370008DF8210000208DF8220001208DF8230037
:1013800008A805F03EF913208DF8200003208DF801
:10139000210000208DF8220008A805F032F9402035
:1013A0008DF8200000208DF8210008A805F029F90B
:1013B000BE4805F057FEBE4805F054FE05A805F0EE
:1013C00075FF00208DF81A0001208DF81B00002009
:1013D0008DF81C008DF81D008DF81E008DF81F0083
:1013E0008DF816008DF8170005208DF818000620DE
:1013F0008DF81900ADF8140005A9AC4805F04BFEB6
:1014000005A9AB4805F047FE00208DF80E008DF8C9
:101410000F0001208DF810004FF4C060ADF80400FB
:101420000020ADF806004FF47E40ADF80800002023
:10143000ADF80A00ADF80C0001208DF8110001A8EC
:1014400005F0B3FE0020ADF80800ADF80A000E204C
:101450008DF80E0001A805F0A8FE0BB000BD10B578
:10146000012248F60301914806F09DF9012202216C
:101470008F4806F098F910BD70B586B005460C4649
:101480000120029000208DF80D008DF80C0008203E
:101490008DF80E00019520788DF80F0061788DF899
:1014A0001010A1788DF81110E1788DF812102179C3
:1014B0008DF8131061798DF81410A1798DF815103D
:1014C000E1798DF8161000BF01A9784805F05CFF9E
:1014D00006463146754805F0EFFF012009F0D0F8C7
:1014E000744800780028EFD006B070BD10B50246F1
:1014F000106808601079012802D10220487201E0CA
:10150000002048725079887200200872002306E09B
:10151000901DC45C01F10B00C454581CC3B2507937
:101520009842F5DC002010BD10B502461068086036
:10153000507A022802D10120087101E000200871D0
:10154000907A4871002306E002F10B00C45C881D0C
:10155000C454581CC3B2907A9842F5DC002010BDE8
:1015600010B507F08AF94D48002102684F4805F090
:10157000FFFF4A4801685048006808F0B1FA48483F
:1015800000781D2803D100204549087004E0444834
:101590000078401C424908704148007800EB800008
:1015A0003D4901EB80003D49086007F074F910BD2A
:1015B00010B53E4818300468C1143C4806F0F3F9F1
:1015C00010BD10B507F059F938480830006810F020
:1015D000010F14D035480830006810F0020F03D016
:1015E00001203449087002E00020324908702F4879
:1015F0000830006840F080002C49083108602B4812
:101600000830006810F4807F14D028480830006843
:1016100010F4007F03D001202649087002E000206A
:101620002449087021480830006840F400401F49F0
:10163000083108601D480830006810F4803F14D05D
:101640001A480830006810F4003F03D001201949FF
:10165000087002E00020174908701448083000683C
:1016600040F4000011490831086007F014F910BD7A
:1016700010B507F002F9114A00210D4805F078FF76
:101680000E480068802804D00C490D48006807F017
:10169000B6FC07F000F910BD90460020B000002015
:1016A000B4000020000C024000040240006400402E
:1016B00000680040AC00002050000020E8480020F6
:1016C000540000201CB50121084605F02BFB41F613
:1016D000F000009001208DF8040000208DF8060035
:1016E0008DF8050069462D4805F07EF80121084671
:1016F00005F018FB4FF48070009000208DF8040076
:101700008DF805006946254805F06EF80121022094
:1017100005F008FB4FF40060009001208DF80400F4
:1017200000208DF806008DF8050069461C4805F07C
:101730005BF80121042005F0F5FA802000900120DB
:101740008DF8040000208DF806008DF8050069462C
:10175000144805F049F80121082005F0E3FA4FF498
:10176000FC40009000208DF804008DF805006946CB
:101770000D4805F039F800200C4908604FF00100D1
:101780000B49C1F89C020B4908604FF000000A4960
:10179000086001F1040108601CBD00000000024067
:1017A0000004024000080240000C0240980240423F
:1017B0000000404294024042AC024042FE480078A1
:1017C0007047FD4908707047FC480078704711B5B4
:1017D00087B09DF81C00F94908709DF81C0000F5C1
:1017E000C06006900020042306AA012100904FF457
:1017F000905000F061FE9DF81C0000F5B06006906E
:101800000020042306AA022100904FF4905000F01B
:1018100053FE0020012307AA032100904FF49050AB
:1018200000F04AFEE64B0FCB02AC0FC4002411E0DF
:1018300002A850F824009DF81C10084406900020CF
:10184000009004F5A050042306AA012100F034FE04
:10185000601CC4B2DB488089A04201DD042CE7DBB8
:10186000D74B10330FCBCDE90423CDE9020100247F
:1018700011E002A850F824009DF81C1008440690BE
:101880000020009004F5C050042306AA012100F0B6
:1018900013FE601CC4B2CB48008AA04201DD042CB8
:1018A000E7DB002008B010BD30B5002155E0002274
:1018B0004FE0002001EB8104C34D05EB441402EB23
:1018C000820504F8350001EB8104BF4D05EB44149B
:1018D00002EB820504EBC504607001EB8104BA4D94
:1018E00005EB441402EB820504EBC504608001EBB8
:1018F0008104B54D05EB441402EB820504EBC504ED
:10190000207101EB8104B04D05EB441402EB82051C
:1019100004EBC504607101EB8104AB4D05EB44148D
:1019200002EB820504EBC504A07100230DE0002446
:1019300001EB8100A44D05EB401002EB820500EBAA
:10194000C500C01DC454581CC3B2202BEFDB501C73
:10195000C2B2042AADDB481CC1B20129A7DB0021B9
:101960000CE0002206E00120984C04EB8104A05416
:10197000501CC2B2042AF6DB481CC1B20129F0DBBC
:10198000002123E000221DE0012001EB0114904D15
:1019900005EBC40402EB021504F8150000230DE06A
:1019A000002401EB01108A4D05EBC00002EB02158B
:1019B00000EB4500401CC454581CC3B2202BEFDB85
:1019C000501CC2B2042ADFDB481CC1B20129D9DB9A
:1019D00000210DE0002207E00F2001EB41047D4DC6
:1019E0002C44A054501CC2B2032AF5DB481CC1B2DF
:1019F0000129EFDB002030BD00B585B080200490C8
:101A00000020039002900190042304AA0146009054
:101A100041F2050000F050FD0020042303AA014616
:101A2000009041F2060000F047FD0020042302AAC6
:101A30000146009041F2070000F03EFD0020022325
:101A400001AA0146009041F2170000F035FD002088
:101A50006149087005B000BD00205F4908707047FB
:101A600070B504462146002000F040FA054628469D
:101A700070BDFEB504460D46042605F5C060029013
:101A800000200090A0B2334602AA012100F014FD0C
:101A900005F5B060029000200090A0B2334602AA83
:101AA000022100F009FD0195012600200090A0B25E
:101AB000334601AA032100F0FFFCFEBD2DE9F041F1
:101AC00005460E46002716B1FF20BDE8F08100BF95
:101AD0002946002002F04EFE0446012008F0D0FD09
:101AE000B7F57A7F01DBFF20EFE7781C87B2002C87
:101AF000EED0802C01D1FF20E7E70020E5E72DE9BB
:101B0000F04105460E4617469846B8F1000F02D040
:101B1000FF20BDE8F08100BF3B4632462946002049
:101B200002F0EFFD0028F7D03B4632462946002060
:101B300002F0E7FD0446802C01D1FF20E9E70020F8
:101B4000E7E7FEB504460D4601270026029502A8E8
:101B500003234FF490522146CDE90070002002F09B
:101B600079FC064631462046FFF7A8FF0020FEBD5F
:101B70007FB584B005461646002001900090A8B2BB
:101B8000042305AA012100F097FC002005F500714F
:101B9000009088B2012307AA002100F08DFC0020EC
:101BA00005F50071009088B201AB03AA002100F096
:101BB00053FC00242CE00000B5000020C8000020E9
:101BC000C0C80108C8CA0108044A00208C090020C6
:101BD000A44A0020BE000020B600002036F83400E1
:101BE000010406EBC400007941EA002006EBC401C1
:101BF0004979084302900020621CD1B205F50072B9
:101C0000009090B2042302AA00F056FC601CC4B2FB
:101C10009DF81C008442E1DB08B070BD2DE9FE4F49
:101C200080460C4617461E464FF00109052008F075
:101C300027FD07F10040029002A80421A2B201236F
:101C4000CDE900104146002002F004FC8246052048
:101C500008F016FD51464046FFF730FFFF2801D13E
:101C6000BDE8FE8F0DA80121A2B20223CDE900102C
:101C70004146002002F0EEFB8246052008F000FD00
:101C800051464046FFF71AFF0020029002A8CDE916
:101C9000009004F5007082B200234146184602F01D
:101CA000D9FB8246052008F0EBFC51464046FFF781
:101CB00005FF002523E036F83500010406EBC500DA
:101CC000007941EA002006EBC501497908430290FA
:101CD00002A80421CDE90010681CC3B204F500700D
:101CE00082B24146002002F0B5FB8246052008F092
:101CF000C7FC51464046FFF7E1FE681CC5B29DF89F
:101D000030008542D7DB0CA8CDE9009004F50070C7
:101D100082B200234146184602F09CFB8246052011
:101D200008F0AEFC51464046FFF7C8FE029702A8F5
:101D30000421A2B20123CDE900104146002002F0A7
:101D400089FB8246052008F09BFC51464046FFF780
:101D5000B5FE00BF84E7FEB505460E46019600209D
:101D6000012301AA0146009041F2160000F0A4FBF5
:101D7000002413E015F8240005EB8401498860F382
:101D80001F41029100200090601CC1B2042302AAEE
:101D900041F2160000F090FB601CC4B2B442E9DBD3
:101DA000FEBD1CB5044601940020022301AA014691
:101DB000009041F2170000F07FFB1CBD2DE9FE43AF
:101DC00006460D46174600241AE015F8240005EBD8
:101DD0008401498860F31F41029102A80421CDE9E2
:101DE0000010601CC3B241F216023146002002F01E
:101DF00031FB804641463046FFF760FE601CC4B2AE
:101E0000BC42E2DBBDE8FE8333B583B0044604A8E0
:101E10000221002341F21702CDE9001021461846A5
:101E200002F018FB054629462046FFF747FE05B09D
:101E300030BD13B582B0044600200090A0B201234B
:101E400003AA022100F038FB1FBD77B583B004461A
:101E50000D4605A80121AAB20223CDE900102146B2
:101E6000002002F0F7FA064631462046FFF726FE2C
:101E700006B070BD01B582B00020042302AA01465D
:101E8000009041F2060000F017FB0EBDFFB583B0D5
:101E900005460C461E4605A80421002341F2060211
:101EA000CDE900102946184602F0D4FA0746394613
:101EB0002846FFF703FE0A2008F0E2FB0EB9029461
:101EC00002E004F18040029002A80421002341F2C4
:101ED0000502CDE900102946184602F0BBFA074674
:101EE00039462846FFF7EAFD07B0F0BD10B50246B7
:101EF00002EB42037E4C2344585C10BD352803D1CD
:101F000001217C4A117004E0332802D10021794A72
:101F1000117070472DE9F04F8DB006460C462078C1
:101F200000F07F050DF1140B207901282FD17248A4
:101F30000078854227D17048007800F5E060019074
:101F400001208DF8090000208DF808006B4800780A
:101F50008DF80A006A48007848B19DF80A0040F000
:101F600080008DF80A0000206549087002E0012019
:101F70006349087008A901A8FFF7B8FA08A96148E1
:101F800005F002FA00BF01200DB0BDE8F08F207906
:101F9000002851D1A07900F07F0006EB4601544A99
:101FA0001144485506EB460011460844405D08B907
:101FB0000120E9E706EB46004D490844405D0F2843
:101FC0003AD000205B4607AA0146009041F2160075
:101FD00000F042FA80BB079800780A2802DD4FF033
:101FE0000A0802E0079890F80080002722E000200D
:101FF0000090781CC1B25B4606AA41F2160000F0C0
:102000002BFAA8B9069800881FFA80F9069800688C
:10201000C0F3074AB9F1000F0AD0554508D1354839
:102020000078012804D13320FFF768FF0020ABE7D8
:10203000781CC7B24745DADB0120A5E770472DE9D8
:1020400070438EB00DF1040900204B4604AA0146EE
:10205000009041F2160000F0FFF940BB04980078B0
:102060000A2801DD0A2601E00498067800251CE014
:1020700000200090681CC1B24B4603AA41F2160032
:1020800000F0EAF978B90398008884B25CB1BC42E8
:1020900009DA03980068C0F307483520FFF72EFFE0
:1020A0004046FFF7CBFF681CC5B2B542E0DB00201D
:1020B0004B4602AA0146009041F2170000F0CCF90D
:1020C00078B90298048864B1A7420ADB0AA905A876
:1020D000FFF72AFA05A90B4805F056F900200A492E
:1020E00088800EB0BDE870830020024908707047F8
:1020F000BE000020C1000020C8000020B500002064
:10210000B600002000680040B800002010B5002193
:102110000DE0002207E0002001EB4103334C234493
:102120009854501CC2B2032AF5DB481CC1B20129E5
:10213000EFDB002010BD70B586B006460C46154694
:10214000002001908DF80D0002208DF80E008DF812
:102150000F508DF8104000208DF80C0001A9244884
:1021600005F012F9002006B070BD30B585B0054607
:102170000C4644F4E060009002208DF80900012034
:102180008DF80A0000208DF808006946184805F00F
:10219000FBF8002005B030BD70B504460D460F2099
:1021A00004EB4401134A11444855012004EB440157
:1021B0000E4A114448559DB9002000BF0DE00F2183
:1021C00004EB44020B4B1A441154012104EB44026A
:1021D000064B1A441154411CC8B20328EFDB00BF60
:1021E00029462046FFF7C1FF002070BDC200002035
:1021F00000680040BE00002070B50546049CCA4E31
:10220000A01BB44214D007DCC84820180ED0A0F59B
:102210007F40FE380DD107E0C54E801907D06FF41E
:102220000036801905D100E004E003E002E001E09F
:1022300000E000BF00BF002070BD70B504460D4631
:102240001646002100201860B4F5805F16DBB4F557
:10225000905F13DAA4F5805081B2B6480088A0429E
:1022600003DBB54850F8310018B9B44818600020B5
:1022700070BDB14800EBC1021046F9E7B4F5A05FAC
:1022800016DBB4F5B05F13DAA4F5A05081B2A9480B
:102290004089A04203DBAA4850F8310018B9A7488A
:1022A00018600020E4E7A64800EBC1021046DFE713
:1022B000B4F5C05F16DBB4F5D05F13DAA4F5C050F7
:1022C00081B29C48C089A04203DB9E4850F831008F
:1022D00018B99A4818600020CAE79A4800EBC10272
:1022E0001046C5E7B4F5B05F16DBB4F5C05F13DA8E
:1022F000A4F5B05081B28F48408AA04203DB9248D7
:1023000050F8310018B98D4818600020B0E78E48A9
:1023100000EBC1021046ABE7B4F5D05F16DBB4F5B5
:10232000E05F13DAA4F5D05081B28248808AA042DF
:1023300003DB864850F8310018B980481860002047
:1023400096E7824800EBC102104691E7B4F5905F32
:1023500016DBB4F5945F13DAA4F5905081B275489A
:102360004088A04203DB7A4850F8310018B973481E
:10237000186000207CE7764800EBC102104677E742
:10238000B4F5945F16DBB4F5985F13DAA4F59450B6
:1023900081B26848C088A04203DB6E4850F8310023
:1023A00018B966481860002062E76A4800EBC1026D
:1023B00010465DE7B4F5005F16DBB4F5C04F13DAE5
:1023C000A4F5005081B25B48C08AA04203DB62489A
:1023D00050F8310018B959481860002048E75E48A5
:1023E00000EBC102104643E7B4F5C04F16DBB4F56D
:1023F000C44F13DAA4F5C04081B24E48008BA0420E
:1024000003DB564850F8310018B94C4818600020DA
:102410002EE7524800EBC102104629E7B4F5C44F3D
:1024200016DBB4F5204F13DAA4F5C44081B241485D
:10243000408BA04203DB4A4850F8310018B93F48AE
:102440001860002014E7464800EBC10210460FE771
:102450003A48186000200BE72DE9F84380460C4607
:1024600016461F46DDF820906B4600222146404666
:10247000FFF7E3FE0546009810B10098BDE8F88329
:102480002879A04201DC3748F8E7B9F1000F07D0FE
:10249000286810F83400012802D12448C043EDE731
:1024A000286800EBC40040683060286800EBC40076
:1024B000807838700020E1E72DE9F84F81460C461E
:1024C00017461E46DDF828A06B4632462146484690
:1024D000FFF7B3FE0546009810B10098BDE8F88FED
:1024E0002879A04201DC1F48F8E7286800EBC40007
:1024F00090F80280B04501D01B48EFE7BAF1000F19
:1025000007D0286810F83400022802D1074840425A
:10251000E4E7296801EBC40132464868394608F00F
:102520002FFA0020DAE7000041000406FEFFFEF962
:102530003100FDFFC8CA0108E0C80108000002061A
:1025400000CA010830CA010850CA010870CA01084F
:10255000A8C90108B0C9010888CA010890CA0108C1
:10256000C0CA010811000906100007060FB470B5B3
:1025700086B006460F9DF948007805282BD100202B
:102580008DF80C000B98C0F30A000190A5B900204B
:102590008DF80D009DF830008DF80E00002406E047
:1025A0000DF13100015D22380155601CC4B29DF867
:1025B0003000A042F4DC05E002208DF80D00002080
:1025C0008DF80E0001A9E64804F0DEFE002006B0FA
:1025D00070BC5DF814FBFF20F9E7F0B587B0074643
:1025E0000D46E0480078012825D10395DD48407864
:1025F0008DF81000002407E0DA48801C015D0DF121
:1026000011000155601CC4B29DF81000A042F3DC1B
:102610000020019006980090384603A90EC9FFF7E4
:10262000A5FF0646CF48007840F00800CD49087065
:10263000304607B0F0BDFF20FBE72DE9F04F85B035
:102640000746884600200490039002900DF1040B89
:102650004FF0010A00250026A7F5C0501FFA80F9A7
:10266000BE480078052803D0FF2005B0BDE8F08FF4
:102670006FE0BAF1070F6BD2DFE80AF06A041324A7
:10268000365E680000205B464246012100903846D5
:10269000FFF7E2FE044614B94FF0020A58E0FF20AB
:1026A000E3E7002009F5D051009088B25B4604AA08
:1026B0000021FFF7D1FE044614B94FF0030A47E0AA
:1026C000FF20D2E700206A1CD1B209F5D052009059
:1026D00090B25B4602AAFFF7BFFE044614B94FF062
:1026E000040A35E0FF20C0E700200090029A12881B
:1026F000C2F30721029A1268100C5B4603AAFFF787
:10270000ABFE0446B4B902990978C1F3C4029549F5
:10271000891C8819039908F033F902980078C0F3EE
:10272000C4003044C6B28F484670681CC5B24FF032
:10273000050A0DE0FF2098E704980078A84202DD22
:102740004FF0030A04E04FF0060A01E000208CE796
:1027500000BF8EE72DE9F04188B007460E46002401
:102760000DF1180800BF20E00020009004F5A050F3
:10277000434607AA0121FFF76FFE05469DB907985A
:102780000068B0420FD107980068029000208DF8D1
:102790000C000120019005980090384602A90EC94E
:1027A000FFF7E4FE00BF601CC4B26F48007CA0428B
:1027B000DADC08B0BDE8F0812DE9F04F89B083463E
:1027C0000D4600200890079006900590049002A8FE
:1027D00003904FF0010A61480078052879D100BFC5
:1027E0004FF0000900244FF000082879002871D12B
:1027F000ADE0BAF1090F19D2DFE80AF0A805192BEC
:102800004B5B6F839C00002706E0A81DC15D554807
:10281000801CC155781CC7B26879B842F5DC68796C
:1028200050494870F72008704FF0020A8EE00020EF
:10283000009004F5A05004AA0121039BFFF70CFEB1
:10284000064616B94FF0030A80E0FF2009B0BDE844
:10285000F08F049800682988C1F30A01884202D1E8
:102860004FF0040A72E0601CC4B24FF0020A002765
:1028700006E0A81DC15D3B48801CC155781CC7B24D
:102880006879B842F5DC687936494870F7200870F5
:102890005CE00020009004F5B05008AA0021039BE2
:1028A000FFF7DAFD064616B94FF0050A4EE0FF20A5
:1028B000CCE7002008F10102D1B2009004F5B0503D
:1028C00006AA039BFFF7C8FD064626B94FF0060A85
:1028D0003CE0F9E04AE0FF20B8E700200090069ACB
:1028E0001288C2F30721069A1268100C07AA039BEC
:1028F000FFF7B2FD064616B94FF0070A26E0FF20A3
:10290000A4E706980078C0F3C4021648801C00EBC8
:102910000901079808F034F806980078C0F3C4005D
:10292000484400F0FF0908F1010000F0FF084FF0F3
:10293000080A0BE008980078404502DD4FF0050AD0
:1029400004E04FF00009C84600207FE700BF0648BA
:102950008089A0423FF74DAFB4E00000B5000020F1
:1029600000680040F8490020C8CA010828790128F9
:10297000F2D1A2E0BAF10A0F18D2DFE80AF09D0501
:102980009D9D1D39495B889B0020009004F5C05037
:1029900004AA0121039BFFF75FFD06463EB9049898
:1029A00000682968884202D14FF0040A84E0601C64
:1029B000C4B24FF0010A7FE00020009004F5C0503F
:1029C00005AA0221039BFFF747FD064676B9059845
:1029D0000078FD2807D005980078FC2803D00598DA
:1029E0000078FF2802D14FF0050A65E0FF202DE7AF
:1029F0000020009004F5D05008AA0021039BFFF7A7
:102A00002BFD064616B94FF0060A55E0FF201DE7DC
:102A1000002008F10102D1B2009004F5D05006AABE
:102A2000039BFFF719FD064616B94FF0070A43E06E
:102A3000FF200BE700200090069A1288C2F30721BE
:102A4000069A1268100C07AA039BFFF705FD0646BD
:102A5000DEB906990978C1F3C402704901EB090097
:102A6000079907F08DFF06980078C0F3C40048442A
:102A700000F0FF096948801E80F8019008F101000C
:102A800000F0FF084FF0080A16E0FF20DEE6089885
:102A90000078404502DD4FF0060A0DE001205F4955
:102AA000891E0870049801685846FFF796FD4FF09C
:102AB000090A01E00020C9E600BF5948008AA04287
:102AC0003FF758AF0020C1E60020BFE62DE9F047F0
:102AD00088B081460F46002500200790069005909B
:102AE00004900390002401260DF1080A4FF001081C
:102AF00093E0B8F1090F13D2DFE808F08E05172D27
:102B0000334761717E000020009004F5D050534699
:102B100007AA0021FFF7A0FC054615B94FF00208EF
:102B20007AE0FF2008B0BDE8F08707980078B0424F
:102B30000CDB0020009004F5D050534606AA314625
:102B4000FFF78AFC05464FF0030803E0601CC4B29F
:102B50000126B04660E015B94FF004085CE0FF20A4
:102B6000E0E700200090069A1288C2F30721069A37
:102B70001268100C534605AAFFF76EFC054615B9FE
:102B80004FF0050848E0FF20CCE70598B84211D186
:102B900000260020009004F5C050534603AA0121EE
:102BA000FFF75AFC054615B94FF0060801E0FF2073
:102BB000B8E731E0701CC6B24FF002082CE00020EC
:102BC000009004F5C050534604AA0221FFF744FCCC
:102BD000054615B94FF007081EE0FF20A2E704984C
:102BE0000078FF2802D14FF0080815E0601CC4B23D
:102BF0004FF00108FF2095E704F5C05003A9FFF747
:102C00001CFD01200549891E08700398016848468B
:102C1000FFF7E3FC002085E700BF6AE7FA490020E0
:102C2000C8CA010830B5002300EB8004FE4D05EB57
:102C3000441401EB810504F8353000EB8004FA4DB3
:102C400005EB441401EB810504EBC504637000EB54
:102C50008004F54D05EB441401EB810504EBC5043C
:102C6000638000EB8004F04D05EB441401EB81051B
:102C700004EBC504237100EB8004EB4D05EB441419
:102C800001EB810504EBC504637100EB8004E64DA4
:102C900005EB441401EB810504EBC504A37100228C
:102CA0000DE0002400EB8003DF4D05EB431301EB47
:102CB000810503EBC503DB1D9C54531CDAB2202AAB
:102CC000EFDB30BD30B5014600204FE0002301EBC3
:102CD0008104D54D05EB441400EB800504F8353034
:102CE00001EB8104D04D05EB441400EB800504EBAF
:102CF000C504637001EB8104CB4D05EB441400EB7C
:102D0000800504EBC504638001EB8104C64D05EB2F
:102D1000441400EB800504EBC504237101EB81042E
:102D2000C14D05EB441400EB800504EBC504637151
:102D300001EB8104BC4D05EB441400EB800504EB72
:102D4000C504A37100220DE0002401EB8103B64D00
:102D500005EB431300EB800503EBC503DB1D9C541F
:102D6000531CDAB2202AEFDB431CD8B20428ADDBB7
:102D700030BD10B502460B4600210EE002EB82008A
:102D8000A94C04EB401001EB810410F8340010B999
:102D90001970002010BD481CC1B20429EEDBFF20D1
:102DA000F8E730B503460C4600210FE003EB830043
:102DB0009D4D05EB401001EB810510F83500A04258
:102DC00002D11170002030BD481CC1B20429EDDBD6
:102DD000FF20F8E72DE9FF418EB080469348007848
:102DE000052803D0914800787F2877D100200490EF
:102DF000039002AF9DF83C008D490978884209D1C3
:102E000000203B4604AA022100904FF49050FFF7A7
:102E100023FB30E0002518E0002005F594510090D8
:102E200088B23B4603AA0321FFF716FB064636B9D4
:102E3000039800789DF83C10884204D109E0FF20F7
:102E400012B0BDE8F081681C85B27A480089A842BA
:102E5000E2DC00BF77480089A84201D1FF20EFE7FC
:102E6000002005F59451009088B23B4604AA012148
:102E7000FFF7F2FA00BF049800680A9000208DF86E
:102E80002C0008208DF82D009DF83D00002803DD62
:102E90009DF83E008DF82E00012407E0611E0DF123
:102EA0003F00415C11380155601CC4B29DF83D00E3
:102EB000A042F3DC9DF83D4005E000210DF12E001D
:102EC0000155601CC4B2082CF7DB05A90AA8FEF75F
:102ED0000DFB05A9584804F057FA00BFFF20AFE7E3
:102EE0002DE9FE4307460D4616461C4608208DF880
:102EF000010080208DF802004D4800788DF8000018
:102F0000E9B28DF80310290A8DF804108DF80560D8
:102F1000E1B28DF80610210A8DF80710210C8DF80A
:102F20000810210E8DF8091038469DE80E00FFF7B5
:102F300051FF80464046BDE8FE832DE9F04F85B045
:102F400004460D46FF20049004EB8400364901EB53
:102F5000401005EB850110F831008DF8000004EBFE
:102F60008400314901EB401005EB850100EBC10005
:102F7000407810F0080F56D104EB84002A4901EB89
:102F8000401005EB850100EBC100407800F0030024
:102F9000012802D003287CD1F0E004EB8400224910
:102FA00001EB401005EB850100EBC10081788DF845
:102FB000031004EB84001C4901EB401005EB850174
:102FC00000EBC1004088010A8DF8041004EB840076
:102FD000154901EB401005EB850100EBC1000179BB
:102FE0008DF8051004EB84000F4901EB401005EB50
:102FF000850100EBC100407810F0040F7DD104EB97
:103000008400094901EB401005EB850100EBC1008C
:10301000407905284EDA04EB8400034901EB4010A7
:1030200005EB85010AE0DEE1044A0020B50000203E
:10303000C8000020C8CA01080068004000EBC100B9
:103040004079C0F10400C7B24FF0010AD346C7F17E
:103050000800C0B28DF80100002610E004EB8400E7
:10306000FE4901EB401005EB850100EBC100C01DDE
:10307000825D0DF10300F11C4254701CC6B2C7F111
:103080000400B042EADC04EB8400F44901EB401098
:1030900000E0A2E105EB850100EBC100407904EB03
:1030A0008401EE4A02EB411105EB850201EBC201FE
:1030B000887126E00027BA464FF0010B04EB84002C
:1030C000E64901EB401005EB850100EBC1004179B9
:1030D0008DF8061000218DF809108DF807108DF875
:1030E000081008208DF80100002004EB8401DB4A61
:1030F00002EB411105EB850200E00EE001EBC2019D
:10310000887107F00300202141EA800040EA4A006C
:1031100040EA0B008DF8020010E004208DF8010059
:1031200040208DF80200002004EB8401CB4A02EB22
:10313000411105EB850201EBC201887120469DE833
:103140000E00FFF747FE049004EB8400C34901EB37
:10315000401005EB850100EBC100407820F0030032
:10316000C01C40F0080004EB8401BC4A02EB411192
:1031700005EB850201EBC201487033E104EB8400EA
:10318000B64A02EB401005EB850210F8321003AA94
:103190002046FFF706FE9DF80C5004EB8400AF4973
:1031A00001EB401005EB850100EBC100407810F009
:1031B000040F7CD104EB8400A84901EB401005EB1F
:1031C000850100EBC100407904EB8401A34A02EBC6
:1031D000411105EB850201EBC2018979401AC6B2A3
:1031E000002E10DC0020049004EB84019B4A02EBCB
:1031F000411105EB850201EBC201487029462046CA
:10320000FFF710FDEEE0072E02DD0027B94604E0CF
:10321000C6F10700C7B24FF00109C7F10800C0B2FC
:103220008DF8010000262EE004EB84008B4901EBB1
:10323000401005EB850100EBC100817904EB8400AF
:10324000864A02EB401005EB850200EBC200807954
:10325000401C04EB8402814B03EB421205EB850317
:1032600002EBC302907104EB84007C4A02EB401035
:1032700005EB850200EBC200C01D415C0DF10300AF
:103280008155701CC6B2C7F10700B042CCDC04EB1C
:103290008400724901EB401005EB850100EBC10091
:1032A0004078C0F30018002040EA081000E025E054
:1032B00007F0070140EA410040EA09008DF80200EA
:1032C00004EB8400654901EB401005EB850100EB40
:1032D000C100407880F0100004EB84015F4A02EBEB
:1032E000411105EB850201EBC2014870B9F1000FF5
:1032F00053D029462046FFF795FC4EE004EB8400AE
:10330000564901EB401005EB850100EBC1008178C7
:103310008DF8031004EB8400504901EB401005EBDD
:10332000850100EBC1004088010A8DF8041004EB10
:1033300084004A4901EB401005EB850100EBC10018
:1033400001798DF8051004208DF8010004EB84004C
:10335000424901EB401005EB850100EBC1004078CC
:10336000C0F30018602040EA08108DF8020004EB5A
:1033700084003A4901EB401005EB850100EBC100E8
:10338000407880F0100004EB8401344A02EB4111D4
:1033900005EB850201EBC201487020469DE80E0056
:1033A000FFF718FD049004EB84002C4901EB40105A
:1033B00005EB850100EBC100407820F00300C01C44
:1033C00040F0080004EB8401244A02EB411105EBB4
:1033D000850201EBC201487004E029462046FFF750
:1033E00021FC00BF00BF049805B0BDE8F08F2DE9B7
:1033F000FF5F04468946924600200390B4F5B05F13
:1034000004DBB4F5C05F01DA012000E00020029087
:10341000B4F5D05F04DBB4F5E05F01DA012100E030
:1034200000210191DDE90110084332D0B9F1000F0C
:103430002FDDDAF80070380C0090C7F30725C7F3CA
:10344000C40803AB424629460098FEF7F6FE06463E
:10345000039838B1024804B0BDE8F09F044A002048
:10346000410004063079A84201DCFE48F3E73068E9
:1034700000EBC50090F802B0C34501D0F948EAE777
:10348000029830B1306810F83500022801D1F548B3
:10349000E1E70020DFE72DE9F04F8FB004468846D2
:1034A00000200B90079006908346824604A8059062
:1034B000ED480078052803D0EB4800787F287DD1BF
:1034C00098F8000000F07F008DF8200098F80500C3
:1034D0008DF821009DF82100002803DD98F80600F2
:1034E0008DF82200012508E008F10600425D691E02
:1034F0000DF123004254681CC5B29DF82100A8427A
:10350000F2DC9DF820100DAA2046FFF74AFC0E9031
:103510000E9820B10DA92046FFF72BFC0E9004EB6E
:103520008400D24901EB40109DF8341001EB810179
:1035300000EBC100407800F0030003287ED104EBCB
:103540008400CA4901EB40109DF8341001EB810161
:1035500000EBC100407810F0080F6FD098F804001D
:103560000028EBD10C9086E2002000900C9901F528
:10357000945006AA0221059BFEF76EFF0290029866
:10358000002875D106980068D8F800108842F8D154
:103590009DF8220080286DD104EB8400B34901EB33
:1035A00040109DF8341001EB810100EBC100408810
:1035B000AF4901EB44119DF8202000E0FEE321F823
:1035C000320004EB8400A94901EB40109DF834104F
:1035D00001EB810100EBC1000079A54901EB441129
:1035E0009DF8202001EBC201887008A88179C0797C
:1035F00041EA002108A8007A41EA004108A8407A7F
:1036000041EA00609A4901EB44119DF8202001EB4A
:10361000C201486004EB8400944901EB40109DF81E
:10362000341001EB810100EBC100407810F0040F71
:1036300009D180208F4901EB840100E022E29DF84E
:10364000202088540BE0802004EB04118A4A02EB0E
:10365000C1019DF8202002EB021201F812009DF832
:1036600034102046FFF7DEFA80200FB0BDE8F08F5F
:10367000FDE1FFE79DF8220010F0200F35D004EBAC
:1036800084007A4901EB40109DF8341001EB810170
:1036900000EBC100407904EB8401744A02EB411154
:1036A0009DF8342002EB820201EBC2018979884245
:1036B0001ADC704800EB84009DF82010405C30B9A3
:1036C00001206C4901EB84019DF8202088540020E2
:1036D00004EB8401654A02EB41119DF8342002EBB2
:1036E000820201EBC2014870A2E19DF8220010F0B5
:1036F000400F75D19DF82200C0F300199DF82200FB
:10370000C0F342069DF8220000F0010B002538E0CE
:103710000DF12300415D04EB8400544A02EB40109C
:103720009DF8342002EB820200EBC200827904EBA8
:1037300084004E4B03EB40109DF8343003EB8303C1
:1037400000EBC3008079401CC3B204EB8400DFF8B7
:103750001CC10CEB40109DF834C00CEB8C0C00EB42
:10376000CC00837104EB8400404B03EB40109DF8C8
:10377000343003EB830300EBC300C01D8154681C8D
:10378000C5B2C6F10700A842C2DCBBF1000FABD046
:10379000042004EB8401354A02EB41119DF83420EA
:1037A00002EB820201EBC201487004EB04103249C3
:1037B00001EBC0009DF8201001EB011110F8110081
:1037C000002891D1012004EB04112B4A02EBC10126
:1037D0009DF8202002EB021201F8120000251CE0E7
:1037E00051E004EB8400214901EB40109DF83410B6
:1037F00001EB810100EBC100C01D415D04EB041031
:103800001D4A02EBC0009DF8202002EB021200EBE3
:103810004200401C4155681CC5B204EB84001349AA
:1038200001EB40109DF8341001EB810100EBC10069
:103830008079A842D5DC04EB84000C4901EB4010F0
:103840009DF8341001EB810100EBC100807904EB9D
:103850000411094A02EBC1019DF8202002EB02127B
:103860000CE0000041000406B5000020044A0020DE
:103870002C4B00208C090020A44A002001EB4201BF
:1038800081F82100D4E09DF82200C0F381069DF864
:103890002200C0F340000B909DF8220000F0010AC6
:1038A0000B9800287ED0BAF1000F00D10026002529
:1038B00012E00DF12300E91C415C04EB8400FE4A98
:1038C00002EB40109DF8342002EB820200EBC200B4
:1038D000C01D4155681CC5B2C6F10400A842E8DC11
:1038E000C6F1040004EB8401F34A02EB41119DF898
:1038F000342002EB820201EBC2014871042004EB88
:103900008401ED4A02EB41119DF8342002EB820262
:1039100001EBC201487004EB0410E84901EBC00060
:103920009DF8201001EB011110F81100D8BB012007
:1039300004EB0411E14A02EBC1019DF8202002EBE7
:10394000021201F8120000251BE004EB8400DA49A2
:1039500001EB40109DF8341001EB810100EBC10038
:10396000C01D415D04EB0410D44A02EBC0009DF879
:10397000202002EB021200EB4200401C4155681C63
:10398000C5B204EB8400CC4901EB40109DF8341023
:1039900001EB810100EBC1004079A842D5DC04EBCA
:1039A000840001E018E043E0C34901EB40109DF8BA
:1039B000341001EB810100EBC100407904EB0411EC
:1039C000BE4A02EBC1019DF8202002EB021201EB7E
:1039D000420181F821002BE0BAF1000F1BD008A8AA
:1039E000807904EB8401B44A02EB41119DF8342044
:1039F00002EB820201EBC2014871002004EB84015A
:103A0000AD4A02EB41119DF8342002EB820201EB3A
:103A1000C20188710CE0002004EB8401A64A02EB8D
:103A200041119DF8342002EB820201EBC201887142
:103A300004EB8400A04901EB40109DF8341001EB29
:103A4000810100EBC100407820F0080004EB840104
:103A5000994A02EB41119DF8342002EB820201EBFE
:103A6000C20148709DF834102046FFF766FA0C98A2
:103A7000401CC0B20C90924801890C9881423FF7DB
:103A800073AD16E29DF8220010F0800F7ED19DF8F4
:103A900020008C4909788842F8D10020009007AABC
:103AA00001214FF49050059BFEF7D6FC029002983E
:103AB0000028E6D107980068D8F800108842E0D1C5
:103AC0009DF8220010F0400F7ED09DF8220010F0EB
:103AD000400F04D19DF8220010F0200F09D09DF86E
:103AE000220010F0400F70D09DF8220010F0200F3F
:103AF0006BD09DF82200C0F3001904EB84006E49DE
:103B000001EB40109DF8341001EB810100EBC10086
:103B1000407904EB8401684A02EB41119DF834209E
:103B200002EB820201EBC2018979401AC5B2002D75
:103B300005DC9DF834102046FFF774F8B9E1072D35
:103B400002DD0026B34604E0C5F10700C6B24FF01F
:103B5000010B00253CE004EB8400574901EB4010C9
:103B60009DF8341001EB810100EBC100817904EB79
:103B70008400514A02EB40109DF8342002EB82028F
:103B800000EBC2008079401CC2B200E0F6E304EB17
:103B90008400494B03EB40109DF8343003EB830362
:103BA00000EBC300827104EB8400434A02EB401037
:103BB0009DF8342002EB820200EBC200C01D415C84
:103BC0000DF12300415501E074E11BE0681CC5B212
:103BD000C6F10700A842BEDC002040EA091006F04A
:103BE000070140EA410040EA0B008DF82200C6F1CF
:103BF0000800C0B28DF82100204608A90EC9FFF7C1
:103C0000E9F856E10DA92046FFF7B3F808A80079B6
:103C100008A9C97860F31F2104EB8400264A02EB4F
:103C200040109DF8342002EB820200EBC20041807C
:103C300008A8407904EB84011F4A02EB41119DF86A
:103C4000342002EB820201EBC2010871002004EB78
:103C50008401194A02EB41119DF8342002EB8202E3
:103C600001EBC201487104EB8401134A02EB4111DC
:103C70009DF8342002EB820201EBC20188710390AF
:103C800004EB8402DFF830C00CEB421200909DF888
:103C900034C00CEB8C0C02EBCC02531D04EB840201
:103CA000DFF814C00CEB42129DF834C00CEB8C0C06
:103CB00002EBCC02117907E0044A0020A44A00205C
:103CC000C8CA0108C800002004EB8402DFF81CC445
:103CD0000CEB42129DF834C00CEB8C0C02EBCC02C6
:103CE000508803AAFEF7B8FB074617B304EB84001D
:103CF000FE4B03EB40109DF8343003EB830300EBE5
:103D0000C300027904EB8400F84B03EB40109DF8EC
:103D1000343003EB830300EBC30041883B4620466D
:103D2000FFF7DEF89DF834102046FEF77BFFFF20FA
:103D30009BE4002510E00398415D04EB8400EB4A0E
:103D400002EB40109DF8342002EB820200EBC2002F
:103D5000C01D4155681CC5B204EB8400E34901EB6A
:103D600040109DF8341001EB810100EBC100407957
:103D7000A842E0DC04EB8400DC4901EB40109DF834
:103D8000341001EB810100EBC1004079052858DABD
:103D900004EB8400D54901EB40109DF8341001EB91
:103DA000810100EBC1004079C0F10400C6B20120DE
:103DB0000B90824604EB8400CC4900E048E301EB21
:103DC00040109DF8341001EB810100EBC1008178B7
:103DD00008A8C17004EB8400C44901EB40109DF8B1
:103DE000341001EB810100EBC1004088010A08A8F2
:103DF000017104EB8400BD4901EB40109DF83410C3
:103E000001EB810100EBC100017908A84171002597
:103E100012E004EB8400B54901EB40109DF834102A
:103E200001EB810100EBC100C01D425D0DF12300DB
:103E3000E91C4254681CC5B2C6F10400A842E8DC83
:103E400016E0002600200B904FF0010A04EB8400DE
:103E5000A64901EB40109DF8341001EB810100EB05
:103E6000C100417908A8817100214172C1710172BC
:103E700006F00300402141EA80010B9841EA40002E
:103E800040EA0A008DF8220008208DF82100002168
:103E900004EB8400954A02EB40109DF8342002EBBD
:103EA000820200EBC2008171204608A90EC9FEF70C
:103EB00091FFCBE29DF8220010F0400F04D19DF855
:103EC000220010F0200F09D09DF8220010F0400FC2
:103ED0007DD09DF8220010F0200FF9D09DF8201021
:103EE0000DAA2046FEF75DFF9DF82200C0F30019E1
:103EF0009DF82200C0F342069DF8220000F0010B5D
:103F0000002537E00DF12300415D04EB8400774A82
:103F100002EB40109DF8342002EB820200EBC2005D
:103F2000827904EB8400714B03EB40109DF8343030
:103F300003EB830300EBC3008079401C04EB840394
:103F4000DFF8A8C10CEB43139DF834C00CEB8C0CCC
:103F500003EBCC03987104EB8400644B03EB40103B
:103F60009DF8343003EB830300EBC300C01D815484
:103F7000681CC5B2C6F10700A842C3DCBBF1000F44
:103F80007ED004EB8400594901EB40109DF83410B9
:103F900001EB810100EBC100807904EB8401534AFD
:103FA00002EB41119DF8342002EB820201EBC201C9
:103FB0004871002104EB84004C4A02EB40109DF84C
:103FC000342002EB820200EBC200817100E097E036
:103FD00004EB8403DFF814C10CEB43139DF834C0E9
:103FE0000CEB8C0C03EBCC03DA1D04EB8403DFF841
:103FF000FCC00CEB43139DF834C00CEB8C0C03EBB2
:10400000CC03197904EB8403DFF8E0C00CEB431315
:104010009DF834C00CEB8C0C03EBCC035888FFF7F5
:10402000E6F907466FBB012004EB840CDFF8BCE027
:104030000EEB4C1C00909DF834E00EEB8E0E0CEB5A
:10404000CE0C9CF8053004EB840CDFF8A0E00EEBFE
:104050004C1C9DF834E00EEB8E0E0CEBCE0C0CF1EC
:10406000070204EB840CDFF884E00EEB4C1C9DF897
:1040700034E00EEB8E0E0CEBCE0C9CF8041001E03D
:1040800038E010E004EB840CDFF860E00EEB4C1C31
:104090009DF834E00EEB8E0E0CEBCE0CBCF802005B
:1040A000FEF70AFA07462FB304EB84000F4B03EB2D
:1040B00040109DF8343003EB830300EBC30002791A
:1040C00004EB8400094B03EB40109DF8343003EB04
:1040D000830300EBC30041883B462046FEF700FF08
:1040E0009DF834102046FEF79DFD01E0044A0020B3
:1040F000FF201DE6202040EA09108DF822005AE139
:104100009DF82200C0F381069DF82200C0F3400014
:104110000B909DF8220000F0010A9DF8201004EB9E
:104120008400FE4A02EB40109DF8342002EB82022C
:1041300000F8321008A8007908A9C97860F31F2197
:1041400004EB8400F54A02EB40109DF8342002EBAA
:10415000820200EBC200418008A8407904EB840190
:10416000EE4A02EB41119DF8342002EB820201EB92
:10417000C20108710B9800287ED0BAF1000F7CD0E4
:10418000002512E00DF12300E91C415C04EB8400E2
:10419000E24A02EB40109DF8342002EB820200EB71
:1041A000C200C01D4155681CC5B2C6F10400A8423A
:1041B000E8DCC6F1040004EB8401D84A02EB4111AB
:1041C0009DF8342002EB820201EBC201487100200D
:1041D00004EB8401D14A02EB41119DF8342002EB3B
:1041E000820201EBC201887104EB8403DFF82CC367
:1041F0000CEB43139DF834C00CEB8C0C03EBCC039D
:10420000DA1D04EB8403DFF814C30CEB43139DF8B1
:1042100034C00CEB8C0C03EBCC03197904EB840356
:10422000DFF8F8C20CEB43139DF834C00CEB8C0C98
:1042300003EBCC035888FFF7DAF80746EFBB012001
:1042400004EB840CDFF8D4E20EEB4C1C00909DF8DC
:1042500034E00EEB8E0E0CEBCE0C9CF8053004EB2C
:10426000840CDFF8B8E20EEB4C1C9DF834E00EEB4A
:104270008E0E0CEBCE0C01E061E046E00CF1070283
:1042800004EB840CDFF894E20EEB4C1C9DF834E058
:104290000EEB8E0E0CEBCE0C9CF8041004EB840C91
:1042A000DFF878E20EEB4C1C9DF834E00EEB8E0E3E
:1042B0000CEBCE0CBCF8020000E002E0FEF7FCF8CC
:1042C0000746DFB304EB8400944B03EB40109DF8EA
:1042D000343003EB830300EBC300027904EB84006A
:1042E0008E4B03EB40109DF8343003EB830300EB5F
:1042F000C30041883B462046FEF7F2FD9DF834108E
:104300002046FEF78FFCFF2012E5002104EB84001D
:10431000824A02EB40109DF8342002EB820200EB4F
:10432000C200817104EB84007C4A02EB40109DF8CE
:10433000342002EB820200EBC200417138E0BAF196
:10434000000F1CD008A8817904EB8400734A02EBAB
:1043500040109DF8342002EB820200EBC200417154
:10436000002104EB84006D4A02EB40109DF83420DC
:1043700002EB820200EBC200817119E059E00021DA
:1043800004EB8400654A02EB40109DF8342002EBF8
:10439000820200EBC200817104EB84005F4A02EBF1
:1043A00040109DF8342002EB820200EBC200417104
:1043B00060208DF8220004208DF8210004EB840099
:1043C000564901EB40109DF8341001EB810100EBE0
:1043D000C100817808A8C17004EB84004F4901EB4B
:1043E00040109DF8341001EB810100EBC1004088C2
:1043F000010A08A8017104EB8400484901EB401050
:104400009DF8341001EB810100EBC100017908A88F
:104410004171204608A90EC9FEF7DCFC0B9810B9C3
:10442000BBF1000F12D09DF834102046FEF7FAFBC6
:104430000CE0022004EB8401384A02EB41119DF8A4
:10444000342002EB820201EBC201487000206FE4CD
:10445000FF206DE42DE9F04F87B004460E469246EA
:104460009B46DDF8408000200490019002A8039054
:104470002046FEF727FC05AA31462046FEF791FCB0
:104480000690069820B105A92046FEF772FC06901A
:1044900000278CE00020009007F5945004AA012129
:1044A000039BFDF7D9FF8146B9F1000F7DD1049838
:1044B000007800F07F00B04277D10120019004EB3A
:1044C0008400164901EB40109DF8141001EB8101A6
:1044D00000F8316004EB8400104901EB40109DF8B6
:1044E000141001EB810100EBC100A0F802A004EB65
:1044F00084000A4901EB40109DF8141001EB810182
:1045000000EBC10080F804B004EB8400034901EB28
:1045100040109DF8141001EB810101E0044A0020D5
:1045200000EBC10080F8058004EB8401994A02EB9E
:1045300041119DF8142002EB820201EBC201C81D5B
:104540004246119906F01CFA002510E01198415DD1
:1045500004EB84008F4A02EB40109DF8142002EB1C
:10456000820200EBC200C01D4155681CC5B2454522
:10457000ECDB012104EB8400864A02EB40109DF83D
:10458000142002EB820200EBC2004170002082493D
:1045900001EB840188559DF814102046FEF7CDFCF0
:1045A000002007B0BDE8F08FFFE7781CC7B27B485A
:1045B0000089B8423FF76EAFFF20F2E72DE9F04FD8
:1045C00085B004460D4691469A460020039001A806
:1045D000029004AA29462046FEF7E3FB8346BBF17E
:1045E000000F0BD004A92046FEF7C3FB8346BBF1A6
:1045F000000F08D0FF2005B0BDE8F08F9DF8101027
:104600002046FEF70FFB00270DE0002104EB04100D
:10461000634A02EBC00005EB051200EB4200401CB0
:10462000C155781CC7B2202FEFDB002663E00020C5
:10463000009006F5945003AA0121029BFDF70CFFA0
:104640008046B8F1000F54D10398007800F07F0045
:10465000A8424ED104EB84004E4901EB40109DF876
:10466000101001EB810100F8315004EB840049493E
:1046700001EB40109DF8101001EB810100EBC1002F
:10468000A0F8029004EB8400424901EB40109DF831
:10469000101001EB810100EBC10080F804A00020A4
:1046A00004EB84013B4A02EB41119DF8102002EB20
:1046B000820201EBC2014871052004EB8401354AF6
:1046C00002EB41119DF8102002EB820201EBC201C6
:1046D00048709DF810102046FEF72FFC002004EBD8
:1046E00004112F4A02EBC10105EB051201F812007B
:1046F00081E7701CC6B229480089B04297DCFF20D0
:1047000079E770B5044615460020187004EB0410D4
:10471000234E06EBC00001EB011610F8160001282D
:104720001ED104EB04101E4E06EBC00001EB011677
:1047300000EB460090F82100187000220DE004EB19
:104740000410174E06EBC00001EB011600EB46000B
:10475000401C805CA854501CC2B218789042EEDC19
:1047600004EB04100E4E06EBC00001EB011610F82E
:10477000160070BD0246084800EB8200405C70479E
:1047800010B5084B03EB411303EBC20418CCC0E98E
:10479000003410BD044A00208C090020C8CA01085A
:1047A000A44A00202C4B00202DE9F04F89B083460D
:1047B00000200890079006900590049002A80390AE
:1047C0000320019000240026002762480078052875
:1047D00003D0002009B0BDE8F08FB4E00198C01EFE
:1047E00009287DD2DFE800F0051633AC4455679206
:1047F000A9000020009004F5C05005AA0221039BE7
:10480000FDF72AFE054615B90420019001E0FF20BE
:10481000E0E797E005980078012813DB0598007819
:10482000F0280FDC4C48005D401CC0B24A490855D6
:1048300005990978884205D1002047490855052087
:10484000019003E0601CC4B20B2001907AE00020CC
:10485000009004F5C05004AA0121039BFDF7FCFD64
:10486000054615B90720019001E0FF20B2E769E095
:104870000020009004F5D05008AA0021039BFDF70A
:10488000EBFD054615B90820019001E0FF20A1E7E6
:1048900058E00020721CD1B2009004F5D05006AA56
:1048A000039BFDF7D9FD054615B90920019001E0EC
:1048B000FF208FE746E0069800684FEA1049069807
:1048C0000088C0F3072A06980078C0F3C4080020C7
:1048D000009007AA51464846039BFDF7BDFD00E046
:1048E0002EE0054685B91D49C8194246079906F0CC
:1048F00047F807EB0800C7B21848801E4770701CC5
:10490000C6B20A2001901DE0FF2063E708980078F6
:10491000B04202DD0820019014E001200F49891EF9
:104920000870049801685846FDF757FE601CC4B231
:10493000002700260B20019004E00320019001E0F5
:10494000FF2047E700BF0648008AA0423FF746AF76
:1049500000203FE7B500002088090020FA49002028
:10496000C8CA01083EB504460B2C6DD2DFE804F03E
:104970006C06121E2A36424E5A66690002200290C8
:10498000002002AB01AA012100904FF4C040FDF7C6
:1049900063FD5AE002200290002002AB01AA02212E
:1049A00000904FF4C040FDF757FD4EE0022002900A
:1049B000002002AB01AA0121009046F20100FDF7A0
:1049C0004BFD42E002200290002002AB01AA02212E
:1049D000009046F20100FDF73FFD36E00420029012
:1049E000002002AB01AA0121009046F20400FDF76D
:1049F00033FD2AE004200290002002AB01AA02212C
:104A0000009046F20400FDF727FD1EE0042002900E
:104A1000002002AB01AA0121009046F20500FDF73B
:104A20001BFD12E004200290002002AB01AA02212B
:104A3000009046F20500FDF70FFD06E0FE480190EC
:104A400003E0FE48019000E000BF00BF019800684D
:104A50003EBD10B50720FFF785FF0446F848006803
:104A60000444204610BD00B52DED108B83B0B0EE90
:104A7000408AF0EE608A9FEDF30B53EC102B51EC63
:104A8000180B07F02DFE41EC100BB0EE40FAF0EEE3
:104A900060FA9FEDEE0B53EC102B51EC1F0B07F05F
:104AA000F7F941EC100BB0EE40EAF0EE60EA06F0E8
:104AB0000FFAB0EE40DAF0EE60DA9FEDE60B53EC61
:104AC000102B51EC1D0B07F02FF941EC100BB0EE41
:104AD00040CAF0EE60CA06F0B3FBB0EE40BAF0EEAA
:104AE00060BA9FEDDE0B53EC102B51EC1B0B07F063
:104AF000EBFB41EC100BB0EE40AAF0EE60AA9FED8C
:104B0000D90B53EC102B51EC1A0B07F011FD41ECB3
:104B1000100B8DED000B9DED000B06F069FCB0EE67
:104B2000409AF0EE609AB0EE490AF0EE690A03B0DE
:104B3000BDEC108B00BD00B52DED108B83B0B0EE39
:104B4000408AF0EE608A9FEDC90B53EC102B51ECBC
:104B5000180B07F0B9FB41EC100BB0EE40FAF0EE89
:104B600060FA53EC182B51EC1F0B07F0ADFB41EC36
:104B7000100BB0EE40EAF0EE60EA9FEDBE0B53EC96
:104B8000102B51EC1E0B07F0D3FC41EC100BB0EED8
:104B900040DAF0EE60DA05F0F3FFB0EE40CAF0EE76
:104BA00060CA9FEDB60B53EC102B51EC1C0B07F0B9
:104BB00097FD41EC100BB0EE40BAF0EE60BA06F093
:104BC000ABFBB0EE40AAF0EE60AA9FEDA00B53EC59
:104BD000102B51EC1A0B07F077FB41EC100BB0EEE9
:104BE000409AF0EE609A9FED970B53EC102B51EC2E
:104BF000190B07F099F841EC100B8DED000B9DEDB2
:104C0000000B03B0BDEC108B00BD10B52DED048B77
:104C10000520FFF7A7FE04469A4884421CD960424B
:104C200007F002FB41EC100BB0EE409AF0EE609AF8
:104C30009FED950B53EC102B51EC190B07F028F955
:104C400041EC100BB0EE408AF0EE608A51EC180B8C
:104C500007F0A6FA04461BE0204607F0E5FA41EC0F
:104C6000100BB0EE409AF0EE609A9FED870B53EC7C
:104C7000102B51EC190B07F00BF941EC100BB0EEB7
:104C8000408AF0EE608A51EC180B07F089FA04466E
:104C90002046BDEC048B10BD7D49097801294AD11D
:104CA000FF2809D102217B4A11707B49098821F034
:104CB0000F01794A118041E000F00F0191F00F01DE
:104CC0002FD00321734A11707349098821F00F0115
:104CD000714A1180C143C1F3C00121B11146098855
:104CE00041F002011180C143C1F3800129B16A4939
:104CF000098841F00101684A1180C143C1F34001B4
:104D000029B16549098841F00201634A11800121F6
:104D1000814313D06049098841F001015E4A118046
:104D20000CE001215B4A11705B49098821F00F01F9
:104D3000594A118002E00621564A1170704713B596
:104D400086B000208DF80D008DF80C0008208DF83D
:104D50000E0044200190BDF81800C0B28DF80F007D
:104D6000BDF81800010A8DF81010BDF81A00C1B284
:104D70008DF81110BDF81A00010A8DF81210BDF857
:104D80001C00C1B28DF81310BDF81C00010A8DF88B
:104D90001410BDF81E00C1B28DF81510BDF81E002C
:104DA000010A8DF8161000BF01A93C4802F0ECFA88
:104DB00004462146394802F07FFB012005F060FCE3
:104DC000374800780028EFD008B010BD13B586B082
:104DD00000208DF80D008DF80C0008208DF80E00D5
:104DE000452001909DF818008DF80F009DF81910CE
:104DF0008DF810109DF81A108DF811109DF81B10E9
:104E00008DF812109DF81C108DF813109DF81D10D0
:104E10008DF81410BDF81E00C1B28DF81510BDF844
:104E20001E00010A8DF8161000BF01A91B4802F0F0
:104E3000ABFA0446214635E01000002014000020A3
:104E4000900900200000000000B073400000000046
:104E50000060884062F888981249D63FDF4F8D572E
:104E60006FFE134130BB272F7230204111D77B3B9F
:104E7000D395C93E454772F90FE9F93FA1815836EC
:104E80007348D63FC0BDF0FF9A9999999999094006
:104E90000100002000000020AE0900200064004056
:104EA000AC000020FE4802F007FB012005F0E8FB03
:104EB000FC4800780028B8D008B010BD13B586B003
:104EC00000208DF80D008DF80C0008208DF80E00E4
:104ED000492001900698C0B28DF80F000698010A8B
:104EE0008DF810100698010C8DF811100698000E20
:104EF0008DF812000798C1B28DF813100798010AB7
:104F00008DF814100798010C8DF815100798000EF5
:104F10008DF8160000BF01A9E14802F035FA0446F9
:104F20002146DF4802F0C8FA012005F0A9FBDD4860
:104F300000780028EFD008B010BD1FB5DDE90001F2
:104F4000FFF7FDFEDDE90201FFF740FF1FBD70B571
:104F500086B005460C4600208DF80D008DF80C003B
:104F600005208DF80E0048200190042D1EDAE0B2D5
:104F70008DF80F00210A8DF81010210C8DF81110FA
:104F8000200E8DF812008DF8135000BF01A9C448FF
:104F900002F0FAF906463146C14802F08DFA0120C6
:104FA00005F06EFBBF4800780028EFD006B070BD5A
:104FB000F0B589B007460E46154607F5C060059066
:104FC00000208DF818008DF81950002405E0315D9F
:104FD0000DF11A000155601CC4B2AC42F7DB694602
:104FE00005A8FCF783FA6946AF4802F0CDF909B08D
:104FF000F0BD2DE9F34F2DED088B8BB08A464FF0B5
:10500000000B00200A9009900890A8A103C9CDE9DF
:105010000601FFF7FAFD0A21B0FBF1F080B2ADF80E
:1050200000000620FFF79EFC0746B7F1004F02D9AB
:10503000C7F1000800E0B846404607F0F5F841EC3B
:10504000100BB0EE40AAF0EE60AA9FED9A0B53EC65
:10505000102B51EC1A0B06F01BFF41EC100BB0EEBD
:10506000409AF0EE609A51EC190B07F099F880B273
:10507000ADF802000120FFF775FC1FFA80FBCBF3AF
:10508000C00058B18D48008820F010008B4908807E
:105090000846008840F01000088005E08748008836
:1050A00020F0100085490880CBF380200A908448C6
:1050B0000078002835D10A9828B98248006810B1D4
:1050C0008148006850BB0020804908708049087002
:1050D0008049087080480078022822D1BDF800106D
:1050E0007E4A1288501A01D4014600E041427C4AAF
:1050F000126811447A4A116010460068B0F57A7F50
:1051000007D9104601680020FFF721FF00207449ED
:105110000860BDF800007149088002E001206B4979
:105120000870BAF1020F7CD00320FFF71BFC1FFAB6
:1051300080F9C9F3C00058B16048008820F0200011
:105140005E4908800846008840F02000088005E09D
:105150005A48008820F0200058490880FFF779FC61
:105160000890089807F060F841EC100BB0EE40AAE8
:10517000F0EE60AA9FED5B0B53EC102B51EC1A0B79
:1051800006F086FE41EC100BB0EE409AF0EE609A0D
:10519000FFF7D1FCB0EE408AF0EE608A9FED530B32
:1051A00053EC102B51EC180B07F08EF841EC100B60
:1051B000B0EE409AF0EE609A51EC190B06F0F0FF59
:1051C00080B2ADF804000820FFF7CCFB0546B5F52A
:1051D000100F01D96E4200E02E46304607F024F849
:1051E00041EC100BB0EE40BAF0EE60BA9FED410B0F
:1051F00053EC102B51EC1B0B06F04AFE41EC100B4C
:10520000B0EE40AAF0EE60AA9FED3C0B53EC102BE1
:1052100051EC1A0B07F058F841EC100BB0EE409A25
:1052200000E0A1E0F0EE609A51EC190B06F0B8FF37
:1052300080B2ADF80600C9F38020099031480078AB
:1052400060BB099828B93048006810B12F48006841
:1052500028BB00202E4908702E4908702E4908707E
:105260001D480078022867D1BDF804102B4A128827
:10527000501A01D4014600E04142294A1268114403
:10528000274A116010460068B0F57A7F4CD9104665
:1052900001680120FFF75BFE002043E04CE048E09E
:1052A00000640040AC000020006800404001100095
:1052B000000000000000000000004040AE09002097
:1052C00044000020288241422C824142970900205C
:1052D0000B00002005000020000000209A0900209B
:1052E000A009002000000000004CDD40000000008C
:1052F0000000244000000000006A08410000000097
:1053000000606D40450000203082414234824142BD
:10531000980900200C000020040000209C090020B7
:10532000A4090020FD490860BDF80400FC4908807C
:1053300002E00120FB490870FB48007802280FD1E9
:10534000FA48007830B1FA48008840F00800F8497F
:10535000088005E0F648008820F00800F44908803D
:105360000120F249087006E042F23410ADF8040062
:105370000020ADF80600EF48006838B9EE48006834
:1053800010B144F0010401E004F0FE04EA480068B2
:1053900038B9E848006810B144F0020401E004F0B4
:1053A000FD04E648006810B144F0040401E004F094
:1053B000FB04E348006810B944F0100401E004F075
:1053C000EF04E048006810B944F0200401E004F064
:1053D000DF04DD48006810B944F0400401E004F047
:1053E000BF04DA48006810B944F0800401E004F01A
:1053F0007F04D7480078D7490978884207DD012122
:105400000320FFF7A4FDD2480078D2490870C848AD
:10541000007810F0330F40D00120CF4908700822E7
:1054200006A9FFF7C5FD642005F02AF9CA480078EF
:1054300030B1BF48008840F00400BD49088005E055
:10544000BB48008820F00400B94908800920FFF714
:1054500089FA04900120B5490870082206A90220A3
:10546000FFF7A6FD642005F00BF9B048007830B1D5
:10547000AF48008840F00800AD49088005E0AC481E
:10548000008820F00800AA4908800A20FFF76AFA7D
:105490000590DDE90401FFF711FDA348007802281B
:1054A0000FD1AD48007830B1A148008840F0040029
:1054B0009F49088005E09E48008820F004009C4930
:1054C00008800120A4490870974800788DF80800EA
:1054D000A24801788DF80B109D4801788DF80C10CA
:1054E000904801788DF80A109D4801788DF80910D0
:1054F0008DF80D408E480188ADF80E1010226946D7
:10550000139805F03DFA0BB0BDEC088BBDE8FC8F9D
:105510007CB505460C4615B1012D7AD17AE02B20D9
:105520008DF800005A208DF8010060208DF80200EF
:1055300000208DF803001CB907208DF8040002E05C
:1055400005208DF8040000208DF80500062269462C
:105550000120FFF72DFD00210120FCF7AFFA2320E9
:105560008DF8000084208DF8010060208DF8020085
:1055700000208DF803008DF8040019208DF8050037
:1055800000208DF806008DF80700082269460120EA
:10559000FFF70EFD00210120FCF790FA23208DF883
:1055A000000085208DF8010060208DF802000020A9
:1055B0008DF803008DF8040019208DF805000020F7
:1055C0008DF806008DF80700082269460120FFF7D4
:1055D000EFFC00210120FCF771FA2B208DF8000070
:1055E00040208DF8010060208DF8020000208DF829
:1055F00003000B208DF8040000208DF80500062222
:1056000069460120FFF7D4FC00210120FCF756FA7F
:105610005EE05CE02B208DF800005A208DF8010040
:1056200060208DF8020000208DF803001CB90720CF
:105630008DF8040002E005208DF8040000208DF8AC
:105640000500062269460220FFF7B2FC0021022075
:10565000FCF734FA23208DF8000085208DF8010036
:1056600060208DF8020000208DF8030080208DF866
:10567000040038208DF8050001208DF80600002078
:105680008DF80700082269460220FFF791FC0021EF
:105690000220FCF713FA2B208DF8000040208DF833
:1056A000010060208DF8020000208DF803000B201F
:1056B0008DF8040000208DF80500062269460220BE
:1056C000FFF776FC00210220FCF7F8F900E000BFAC
:1056D00000BF00207CBD1CB5044614B1012C5DD177
:1056E00040E02B208DF8000040208DF80100602064
:1056F0008DF8020000208DF8030080208DF8040052
:1057000000208DF80500062269460120FFF750FCB5
:1057100000210120FCF7D2F941E00000A40900209B
:105720009C09002098090020000000209609002014
:10573000AE09002020024042248241423882414288
:10574000288241422C82414234824142308241428D
:10575000B1090020B009002095090020940900201B
:10576000970900202B208DF8000040208DF80100C3
:1057700060208DF8020000208DF8030080208DF855
:10578000040000208DF80500062269460220FFF77C
:105790000FFC00210220FCF791F900E000BF00BFE0
:1057A00000201CBD1CB504462B208DF800004020B5
:1057B0008DF8010060208DF8020000208DF80300B4
:1057C00004208DF8040000208DF8050014B1012C90
:1057D00014D109E0062269460120FFF7E9FB002108
:1057E0000120FCF76BF90AE0062269460220FFF768
:1057F000DFFB00210220FCF761F900E000BF00BFE1
:1058000000201CBD2DE9FF4F91B0894690461C46F3
:105810001EADE0CD04F0FF0AC4F3072BC4F307402C
:105820000E90200E0D90E8B20C90C5F307200B905F
:10583000C5F307400A90280E0990F0B20890C6F30D
:1058400007200790C6F307400690300E0590F8B287
:105850000490C7F307200390C7F307400290380E67
:105860000190B9F1010F03D0B9F1030F7ED10CE122
:105870002F208DF83C0060208DF83D008DF83E0013
:1058800000208DF83F0001208DF8400005220FA96F
:105890001198FFF78DFB00211198FCF70FF92B20D1
:1058A0008DF83C0086208DF83D0060208DF83E008C
:1058B00000208DF83F008DF840008DF84100062251
:1058C0000FA91198FFF774FB00211198FCF7F6F867
:1058D00023208DF83C007A208DF83D0060208DF863
:1058E0003E0000208DF83F008DF840A08DF841B0BB
:1058F0000E988DF842000D988DF8430008220FA9EC
:105900001198FFF755FB00211198FCF7D7F82320D9
:105910008DF83C0081208DF83D0060208DF83E0020
:1059200000208DF83F000C988DF840000B988DF802
:1059300041000A988DF8420009988DF8430008222A
:105940000FA91198FFF734FB00211198FCF7B6F866
:1059500023208DF83C0083208DF83D0060208DF8D9
:105960003E0000208DF83F00089800E08EE08DF8A2
:10597000400007988DF8410006988DF84200059880
:105980008DF8430008220FA91198FFF711FB0021A1
:105990001198FCF793F823208DF83C0084208DF8B3
:1059A0003D0060208DF83E0000208DF83F000498F7
:1059B0008DF8400003988DF8410002988DF8420060
:1059C00001988DF8430008220FA91198FFF7F0FA0B
:1059D00000211198FCF772F82B208DF83C00402034
:1059E0008DF83D0060208DF83E0000208DF83F00CE
:1059F0000F208DF8400000208DF8410006220FA9ED
:105A00001198FFF7D5FA00211198FCF757F8B8F173
:105A1000100F1BD12B208DF83C0040208DF83D004D
:105A200060208DF83E0000208DF83F001F208DF88B
:105A3000400000208DF8410006220FA91198FFF7C1
:105A4000B7FA00211198FCF739F81DE0B8F1010F01
:105A50001AD12B208DF83C0040208DF83D006020AD
:105A60008DF83E0000208DF83F003F208DF840006B
:105A700000208DF8410006220FA91198FFF798FA2F
:105A800000211198FCF71AF801E000E000BF00BF08
:105A9000002015B0BDE8F08F2DE9F0412DED068B0B
:105AA00084B006460F461546984608EB8801480024
:105AB00006F0BAFB41EC100BB0EE408AF0EE608AC3
:105AC0009FEDFE0B53EC102B51EC180B06F0FAFC7B
:105AD00014D29FEDFC0B53EC102B51EC180B06F07D
