:020000040800F2
:2000000000F4012039020008F10E0008E90E0008ED0E0008D7030008A912000800000000DA
:2000200000000000000000000000000025110008650C000800000000810F00083D1200081A
:200040005302000853020008530200085302000853020008530200085302000853020008B8
:20006000530200085302000853020008530200085302000853020008530200085302000898
:200080005302000853020008530200082D050008DD03000853020008D5040008530200088C
:2000A000530200085302000853020008530200085302000853020008530200085302000858
:2000C000530200085302000853020008530200085302000853020008530200085302000838
:2000E000530200085302000853020008530200085302000853020008530200085302000818
:200100005302000853020008530200085302000853020008530200085302000853020008F7
:200120005302000853020008530200085302000853020008530200085302000853020008D7
:200140005302000853020008530200085302000853020008530200085302000853020008B7
:20016000530200085302000853020008530200085302000853020008530200085302000897
:20018000530200085302000800F002F800F03CF80AA090E8000C82448344AAF10107DA451A
:2001A00001D100F031F8AFF2090EBAE80F0013F0010F18BFFB1A43F0010318478C140000B6
:2001C000AC140000103A24BF78C878C1FAD8520724BF30C830C144BF04680C607047000030
:2001E0000023002400250026103A28BF78C1FBD8520728BF30C148BF0B6070471FB501F011
:200200001DFA1FBD10B510BD00F0AEF81146FFF7F5FF01F05FF900F0CCF803B4FFF7F2FFE7
:2002200003BC00F0D1F8000030BF72B6704762B6704780F30888704709488047094800473F
:20024000FEE7FEE7FEE7FEE7FEE7FEE7FEE7FEE7FEE7FEE704480549034A054B70470000BE
:200260004112000889010008E00E002000F4012000F00120032A40F2308010F0030C00F04F
:20028000158011F8013BBCF1020F624498BF11F801CB00F8013B38BF11F8013BA2F10402EB
:2002A00098BF00F801CB38BF00F8013B11F0030300F02880083AC0F0088051F8043B083A15
:2002C00051F804CBA0E80810F5E7121D5CBF51F8043B40F8043BAFF30080D20724BF11F85A
:2002E000013B11F801CB48BF11F8012B24BF00F8013B00F801CB48BF00F8012B704770473D
:200300007047704710B5203AC0F00B80B1E81850203AA0E81850B1E81850A0E81850BFF426
:20032000F5AF5FEA027C24BFB1E81850A0E8185044BF18C918C0BDE810405FEA827C24BFA3
:2003400051F8043B40F8043B08BF7047D20728BF31F8023B48BF11F8012B28BF20F8023B82
:2003600048BF00F8012B7047754600F029F8AE4605006946534620F00700854618B020B50F
:20038000FFF768FFBDE820404FF000064FF000074FF000084FF0000B21F00701AC46ACE840
:2003A000C009ACE8C009ACE8C009ACE8C0098D4670470446AFF300802046FFF72EFF0000DE
:2003C000004870477C0E002001491820ABBEFEE726000200704700BFFEE7000010B53248E2
:2003E00000210268314800F022FB2F48006800683E2814D12C4909688A7A2D492D4B1B68FF
:20040000C818294909680B31FFF734FF26480068807A284909680844264908602CE0224869
:20042000006800683F2827D11F480068C07A20280CD11D480068C0681F49086008460068E4
:200440001C49086001201D49087015E016480068C07A212808D11448006880891849088003
:2004600001201849087007E00F480068C07A112802D1012014490870144800781D2803D1B3
:2004800000201249087004E010480078401C0F4908700E48007800EB80000D4901EB80008E
:2004A0000149086010BD00001400002000640040001000200C000020040000200000002045
:2004C000080000200100002002000020180000202400002010B504480468C1140248183849
:2004E00000F06EF810BD00001864004070B586B005460C4616460120029000208DF80D0064
:200500008DF80C008DF80E400195224631460DF10F00FFF7AFFE01A9034800F010FB012041
:2005200000F008FF06B070BD006400402248006810F0010F11D02048006810F0020F03D0C6
:2005400001201E49087002E000201C4908701A48006840F08000184908601748006810F4AE
:20056000807F11D01448006810F4007F03D001201249087002E00020104908700E480068FC
:2005800040F400400C4908600B48006810F4803F11D00948006810F4003F03D0012007498B
:2005A000087002E00020054908700348006840F400000149086070470864004011000020CE
:2005C000B1F5007F3AD00FDC202928D006DC01291CD004291DD0082940D11DE0402921D015
:2005E000B1F5807F3AD126E0B1F5004F31D006DCB1F5806F25D0B1F5006F2FD124E0B1F524
:20060000803F12D0B1F5003F28D111E0154A826025E00822C26022E01022C2601FE0082259
:2006200002611CE01022026119E00822426016E01022426013E00422426010E004224260C4
:200640000DE0042242600AE0002282610422426005E0002282610422426000E000BF00BF1E
:20066000704700000101010000B58BB05148524908600020514908700121082000F082FC4A
:200680000121480600F08EFC0320099002208DF8280000208DF82A0003208DF82900012024
:2006A0008DF82B0009A9464800F0B3FB09220021434800F0F6FB09220121414800F0F1FB42
:2006C0004FF4C06000F052FC14208DF8200002208DF8210000208DF8220001208DF8230048
:2006E00008A800F007FC16208DF8200001208DF8210000208DF8220001208DF8230008A875
:2007000000F0F8FB13208DF8200003208DF8210000208DF8220008A800F0ECFB294800F0A6
:2007200053F805A800F0FBF900208DF81A0001208DF81B0000208DF81C008DF81D008DF875
:200740001E008DF81F008DF816008DF8170005208DF8180006208DF81900ADF8140005A9B3
:20076000184800F0DAF800208DF80E008DF80F0001208DF810004FF4C060ADF8040000202E
:20078000ADF806004FF47E40ADF808000020ADF80A00ADF80C0001208DF8110001A800F030
:2007A0002FF8012248F60301064800F0ADF80BB000BD0000240000201400002018000020A2
:2007C000000C02400064004010B504460B48844209D10121480600F0F5FB00214FF0007005
:2007E00000F0F0FB08E00121880600F0EBFB00214FF0806000F0E6FB10BD0000006400402E
:2008000010B50021837A012202FA03F13D4A126842F001023B4B1A603A4A1C3212688A4393
:20082000384B1C331A60027BCAB9364A0C3212688A43344B0C331A604288C38842EA0343A8
:20084000304A4032847A42F834300288838842EA03432C4A4032847A02EBC4025360027B40
:20086000012A19D1274A0C3212680A43254B0C331A604288038842EA0343224A4032847A21
:2008800042F83430C288838842EA03431D4A4032847A02EBC4025360C27A3AB9194A121DF5
:2008A00012688A43174B1B1D1A6006E0154A121D12680A43134B1B1D1A60028932B9114AC1
:2008C000143212688A430F4B14331A600289012A06D10C4A143212680A430A4B14331A606A
:2008E000427B012A06D1074A1C3212680A43054B1C331A60034A126822F00102014B1A6018
:2009000010BD0000006600401AB143690B43436102E043698B434361704730B502460020F7
:200920000023146824F002041460146844F00104146000E05B1C546814F0010F03D1A3F5CE
:200940007F44FF3CF6D1546814F0010F01D100206CE08C79012C04D1146844F08004146015
:2009600003E0146824F080041460CC79012C04D1146844F04004146003E0146824F04004A6
:2009800014600C7A012C04D1146844F02004146003E0146824F0200414604C7A012C04D140
:2009A000146844F01004146003E0146824F0100414608C7A012C04D1146844F008041460CC
:2009C00003E0146824F008041460CC7A012C04D1146844F00404146003E0146824F0040435
:2009E00014608C78A407CD7844EA05640D7944EA05444D7944EA05540D886D1E2C43D461EA
:200A0000146824F001041460002300E05B1C546814F0010F03D0A3F57F44FF3CF6D1546897
:200A200014F0010F01D0002000E0012030BD10B500F5D87303EB01131B6803F004031372BA
:200A4000137A53B900F5D87303EB01131B6840F2FF7404EA5353136009E000F5D87303EB75
:200A600001131B686FF0604404EAD303536000F5D87303EB01131B6803F00203537200F5EE
:200A8000D87303EB01135B6803F00F03937200F5D87303EB01135B681B0AD37400F5D8738B
:200AA00003EB01139B68D37200F5D87303EB01139B681C0A147300F5D87303EB01139B68B5
:200AC0001C0C547300F5D87303EB01139B681B0E937300F5D87303EB0113DB68D37300F5F3
:200AE000D87303EB0113DB681C0A147400F5D87303EB0113DB681C0C547400F5D87303EB15
:200B00000113DB681B0E937421B9C36843F02003C36003E0036943F02003036110BD0021D9
:200B20008171C171017241728172C1728170C170032101710221417101210180704710B599
:200B400002460020936803F08063B3F1806F00D110E0936803F00063B3F1006F01D10120B1
:200B600008E0936803F08053B3F1805F01D1022000E00420042874D002F5C07303EB0013B6
:200B80001B6803F0010402F5C07303EB00131C600B7A7BB94B7A0C8843EA445302F5C07432
:200BA00004EB00142468234302F5C07404EB0014236010E00B7A4C6843EAC4034C7A234346
:200BC00002F5C07404EB00142468234302F5C07404EB001423608B7A03F00F038B7202F546
:200BE000C07303EB00135B6823F00F0402F5C07303EB00135C6002F5C07303EB00135B6803
:200C00008C7A234302F5C07404EB001463608B7B1C064B7B44EA03440B7B44EA0323CC7AF4
:200C2000234302F5C07404EB0014A3608B7C1C064B7C44EA03440B7C44EA0323CC7B234330
:200C400002F5C07404EB0014E36002F5C07303EB00131B6843F0010402F5C07303EB001312
:200C60001C6010BD7047000030B10749096841F48061054A116005E00349096821F4806164
:200C8000014A116070470000003C024070B504460A460026092502B909E0012A01D1160297
:200CA00005E0022A01D1160201E04FF4407600F09FF80546092D28D11548006820F44070D5
:200CC0001349086008460068304308600846006820F0F80008600846006844F00201084361
:200CE0000B4908600846006840F48030086000F07FF805460648006820F002000449086007
:200D00000846006820F0F8000860284670BD0000103C024009201349096801F48031B1F542
:200D2000803F01D101201CE00E49096811F0100F01D0062015E00B49096811F4807F01D097
:200D400002200EE00749096811F0EF0F01D0072007E00449096811F0020F01D0082000E03B
:200D6000092070470C3C02400348006840F000400149086070470000103C024030B50246C2
:200D80000C46092500F034F80546092D19D10E48006820F440700C4908600846006840F423
:200DA000007008600846006840F001000860146000F01EF805460448006820F00100024937
:200DC0000860284630BD0000103C02400548006810F0004F05D0044802490C39086003485A
:200DE00008607047103C024023016745AB89EFCD08B509200090FFF78DFF009002E0FFF726
:200E000089FF00909DF800000128F8D09DF8000008BDF0B50A4600210023002400BF3DE0A1
:200E2000012505FA01F3156805EA03049C4234D105684F000326BE40B543056015794E0027
:200E4000B5400668354305601579012D02D01579022D16D185684F000326BE40B5438560E0
:200E600055794E00B540866835438560456801268E40B5434560456896798E40B6B235436D
:200E80004560C5684F000326BE40B543C560D5794E00B540C6683543C560491C1029BFD361
:200EA000F0BDF0B5002300244D07ED0E02FA05F3CE1000F1200555F826504E07F70E0F2610
:200EC000BE40B543CF1000F1200646F82750CE1000F1200555F8265045EA0304CE1000F1B5
:200EE000200545F82640F0BD00BFFEE700BFFEE77047000070B5002100230F22C47824B3D1
:200F0000174C246804F4E064C4F5E064C4F30721C1F10404E3B20A4144789C40E1B2847809
:200F2000144021430C07210E0E4C05786155047804F01F050124AC4005786D114FF0E02645
:200F400006EB8505C5F8004109E0047804F01F040125A540044C0678761144F8265070BD5D
:200F60000CED00E000E400E080E100E002490143024A1160704700000000FA050CED00E0B8
:200F80007047000029B1064A12680243044B1A6004E0034A12688243014B1A6070470000FB
:200FA0003038024029B1064A12680243044B1A6004E0034A12688243014B1A6070470000E8
:200FC0004038024029B1064A12680243044B1A6004E0034A12688243014B1A6070470000B8
:200FE0002038024001461C48814201D2002070471A48814201D20820F9E71948814201D248
:201000001020F4E71748814201D21820EFE71648814201D22020EAE71448814201D2282083
:20102000E5E71348814201D23020E0E71148814201D23820DBE71048814201D24020D6E7C8
:201040000E48814201D24820D1E70D48814201D25020CCE75820CAE700400008008000087D
:2010600000C00008000001080000020800000408000006080000080800000A0800000C0845
:2010800000000E0801460868704700002DE9F04704460E4617464FF009080025A946B4F17B
:2010A000006F02D314F0030F01D0BDE8F087FFF78DFE0020FFF7D8FD254604EB8709184833
:2010C000854215D211E02846FFF7DCFF401C0BD02846FFF787FF82460221FFF7D7FD804696
:2010E000B8F1090F01D002E02D1D4D45EBD300BFB8F1090F0CD108E020463168FFF73EFE6C
:20110000092800D003E0241D361D4C45F4D300BF0120FFF7A9FDFFF727FE00BFC5E70000FD
:201120000000FF1F704700000CB50020019000903448006840F480303249086000BF3148F5
:20114000006800F4003000900198401C0190009818B90198B0F5A04FF1D12A48006810F4B7
:20116000003F02D00120009001E0002000900098012845D123484030006840F08050214998
:20118000403108602048006840F440401E4908601C48083000681B49083108600846006864
:2011A00040F4004008600846006840F4A05008601648091F0860081F006840F08070091F4C
:2011C000086000BF0F48006810F0007FFAD040F205700F4908600B480830006820F0030073
:2011E0000849083108600846006840F00200086000BF04480830006800F00C000828F8D10D
:201200000CBD0000003802400070004019544007003C0240042808D14FF0E021096941F0C1
:2012200004014FF0E022116107E04FF0E021096921F004014FF0E022116170477047000026
:2012400010B51548006840F47000134908601348006840F001001149086000200F49083135
:2012600008600E4800680E4908400C4908600D48091D0860081F006820F48020091F086036
:20128000002006490C310860FFF74EFF4FF0006001498039086010BD88ED00E00038024051
:2012A000FFFFF6FE1030002400BFFEE72DE9F04106460F4690464FF0FF340D48007820B95E
:2012C00000F0ECF801200A490870002509E0E0B2E919715C4840074951F8200080EA1424FC
:2012E0006D1C4545F3D3E4432046BDE8F0810000100000207C02002010B504466FF0040032
:20130000FFF788FFE11704EB5171C910074A11701046007800EB4001C1EBC0104FF6FF71D1
:2013200001EAC0000249088010BD00001A0000201C00002070B504464FF4077094FBF0F054
:20134000C6B24FF4077094FBF0F100FB114085B205E04FF4077000F009F8701EC6B2002EA4
:20136000F7D115B1284600F001F870BD0146114A12884A434FF0E0235A6100229A611A4618
:20138000126942F001021A6100BF4FF0E022106910F0010F02D010F4803FF6D04FF0E022FD
:2013A000126922F001024FF0E0231A6100229A61704700001C0000207CB504460D460020E2
:2013C00000900190002621208DF800002A4621460548FFF76BFF0646CDF801606A46052134
:2013E0004F20FFF783F87CBD001000201CB500200090019011208DF800006A4601214F209B
:20140000FFF774F81CBD000010B50446206807490840B0F1005F08D1606805490860206883
:20142000FEF707FF02480068804710BD0000FE2F200000202DE9F05F074688469146002582
:20144000BB464446AA461DE0E0780606A07846EA0046607846EA002620780643241D284664
:20146000691C8DB20C4941F82060B5F5007F07D100254FF400725846FFF708FE0BF5006BBA
:201480000AF1040ACA45DFD325B12A4602495846FFF7FCFDBDE8F09F7C060020002011E07D
:2014A0000146002208E011F0010F03D0074B83EA510100E04908521C082AF4DB044B43F8BC
:2014C0002010401CFF28EBDD704700002083B8ED7C020020002400254FF4A060FFF746FD2F
:2014E000A820FFF709FFFFF7BFF84FF4FA70FFF721FF00F096F870E0062D6AD2DFE805F0BD
:20150000031523324F5CB4F5FA7F02DD0024042501E0601C84B23148007828B100F074F8AC
:2015200000202E490870012553E02D48007848B12C4801882C480068FFF73EFF00202849C0
:201540000870022545E02548007830B100F05CF8002022490870012503E02448007800B11C
:20156000032536E0224800682249884215D12048401EC06800F07F40B0F1006F0BD11E4851
:201580000068A0F108021D491D48FFF753FFFFF72DFF042502E0002500E0002519E0184885
:2015A000406800F07F40B0F1006F03D11448FFF72BFF00E005250CE01248406800F07F40CD
:2015C000B0F1006F03D10F48FFF71EFF00E0002500BF00BF0A20FFF7ADFE8DE700000020DB
:2015E00001000020080000200400002002000020011000205441424C0C00002008100020A4
:201600000000010800000E081CB500200090019020208DF800006A4601214F20FEF766FF39
:201620001CBD1CB500200090019010208DF800006A4601214F20FEF759FF1CBD4FF04070B4
:20164000E1EE100A70470000681600080000002024000000C40100088C1600082400002065
:20166000DCF30100E0010008000000000000000000000000000000000000000000000000B1
:20168000000000000000000000000000FFFFFFFFFFFFFFFFFFFFFFFFFFFFFFFFFFFFFFFF5E
:2016A000FFFFFFFFFFFFFFFFFFFFFFFFFFFFFFFFFFFFFFFFFFFFFFFFFFFFFFFFFFFFFFFF4A
:2016C000FFFFFFFFFFFFFFFFFFFFFFFFFFFFFFFFFFFFFFFFFFFFFFFFFFFFFFFFFFFFFFFF2A
:2016E000FFFFFFFFFFFFFFFFFFFFFFFFFFFFFFFFFFFFFFFFFFFFFFFFFFFFFFFFFFFFFFFF0A
:20170000FFFFFFFFFFFFFFFFFFFFFFFFFFFFFFFFFFFFFFFFFFFFFFFFFFFFFFFFFFFFFFFFE9
:204000000CEB8C0C03EBCC035888FFF7E6F907466FBB012004EB840CDFF8BCE00EEB4C1CB4
:2040200000909DF834E00EEB8E0E0CEBCE0C9CF8053004EB840CDFF8A0E00EEB4C1C9DF84C
:2040400034E00EEB8E0E0CEBCE0C0CF1070204EB840CDFF884E00EEB4C1C9DF834E00EEB23
:204060008E0E0CEBCE0C9CF8041001E038E010E004EB840CDFF860E00EEB4C1C9DF834E0A2
:204080000EEB8E0E0CEBCE0CBCF80200FEF70AFA07462FB304EB84000F4B03EB40109DF83C
:2040A000343003EB830300EBC300027904EB8400094B03EB40109DF8343003EB830300EBA2
:2040C000C30041883B462046FEF700FF9DF834102046FEF79DFD01E0044A0020FF201DE63A
:2040E000202040EA09108DF822005AE19DF82200C0F381069DF82200C0F340000B909DF890
:20410000220000F0010A9DF8201004EB8400FE4A02EB40109DF8342002EB820200F8321031
:2041200008A8007908A9C97860F31F2104EB8400F54A02EB40109DF8342002EB820200EB9D
:20414000C200418008A8407904EB8401EE4A02EB41119DF8342002EB820201EBC201087106
:204160000B9800287ED0BAF1000F7CD0002512E00DF12300E91C415C04EB8400E24A02EBBA
:2041800040109DF8342002EB820200EBC200C01D4155681CC5B2C6F10400A842E8DCC6F13A
:2041A000040004EB8401D84A02EB41119DF8342002EB820201EBC2014871002004EB8401D0
:2041C000D14A02EB41119DF8342002EB820201EBC201887104EB8403DFF82CC30CEB4313FA
:2041E0009DF834C00CEB8C0C03EBCC03DA1D04EB8403DFF814C30CEB43139DF834C00CEB02
:204200008C0C03EBCC03197904EB8403DFF8F8C20CEB43139DF834C00CEB8C0C03EBCC038E
:204220005888FFF7DAF80746EFBB012004EB840CDFF8D4E20EEB4C1C00909DF834E00EEB1F
:204240008E0E0CEBCE0C9CF8053004EB840CDFF8B8E20EEB4C1C9DF834E00EEB8E0E0CEBA2
:20426000CE0C01E061E046E00CF1070204EB840CDFF894E20EEB4C1C9DF834E00EEB8E0EAB
:204280000CEBCE0C9CF8041004EB840CDFF878E20EEB4C1C9DF834E00EEB8E0E0CEBCE0C85
:2042A000BCF8020000E002E0FEF7FCF80746DFB304EB8400944B03EB40109DF8343003EB47
:2042C000830300EBC300027904EB84008E4B03EB40109DF8343003EB830300EBC3004188C1
:2042E0003B462046FEF7F2FD9DF834102046FEF78FFCFF2012E5002104EB8400824A02EBD1
:2043000040109DF8342002EB820200EBC200817104EB84007C4A02EB40109DF8342002EB08
:20432000820200EBC200417138E0BAF1000F1CD008A8817904EB8400734A02EB40109DF830
:20434000342002EB820200EBC2004171002104EB84006D4A02EB40109DF8342002EB820257
:2043600000EBC200817119E059E0002104EB8400654A02EB40109DF8342002EB820200EBA7
:20438000C200817104EB84005F4A02EB40109DF8342002EB820200EBC200417160208DF852
:2043A000220004208DF8210004EB8400564901EB40109DF8341001EB810100EBC1008178D7
:2043C00008A8C17004EB84004F4901EB40109DF8341001EB810100EBC1004088010A08A83F
:2043E000017104EB8400484901EB40109DF8341001EB810100EBC100017908A841712046D6
:2044000008A90EC9FEF7DCFC0B9810B9BBF1000F12D09DF834102046FEF7FAFB0CE0022007
:2044200004EB8401384A02EB41119DF8342002EB820201EBC201487000206FE4FF206DE4A3
:204440002DE9F04F87B004460E4692469B46DDF8408000200490019002A803902046FEF707
:2044600027FC05AA31462046FEF791FC0690069820B105A92046FEF772FC069000278CE066
:204480000020009007F5945004AA0121039BFDF7D9FF8146B9F1000F7DD10498007800F080
:2044A0007F00B04277D10120019004EB8400164901EB40109DF8141001EB810100F83160D3
:2044C00004EB8400104901EB40109DF8141001EB810100EBC100A0F802A004EB84000A4901
:2044E00001EB40109DF8141001EB810100EBC10080F804B004EB8400034901EB40109DF8F1
:20450000141001EB810101E0044A002000EBC10080F8058004EB8401994A02EB41119DF8E6
:20452000142002EB820201EBC201C81D4246119906F01CFA002510E01198415D04EB840035
:204540008F4A02EB40109DF8142002EB820200EBC200C01D4155681CC5B24545ECDB01217D
:2045600004EB8400864A02EB40109DF8142002EB820200EBC20041700020824901EB8401C7
:2045800088559DF814102046FEF7CDFC002007B0BDE8F08FFFE7781CC7B27B480089B8422D
:2045A0003FF76EAFFF20F2E72DE9F04F85B004460D4691469A460020039001A8029004AA36
:2045C00029462046FEF7E3FB8346BBF1000F0BD004A92046FEF7C3FB8346BBF1000F08D0B2
:2045E000FF2005B0BDE8F08F9DF810102046FEF70FFB00270DE0002104EB0410634A02EBD7
:20460000C00005EB051200EB4200401CC155781CC7B2202FEFDB002663E00020009006F5FA
:20462000945003AA0121029BFDF70CFF8046B8F1000F54D10398007800F07F00A8424ED1FD
:2046400004EB84004E4901EB40109DF8101001EB810100F8315004EB8400494901EB401037
:204660009DF8101001EB810100EBC100A0F8029004EB8400424901EB40109DF8101001EB66
:20468000810100EBC10080F804A0002004EB84013B4A02EB41119DF8102002EB820201EB56
:2046A000C2014871052004EB8401354A02EB41119DF8102002EB820201EBC20148709DF8F5
:2046C00010102046FEF72FFC002004EB04112F4A02EBC10105EB051201F8120081E7701CE2
:2046E000C6B229480089B04297DCFF2079E770B5044615460020187004EB0410234E06EB8D
:20470000C00001EB011610F8160001281ED104EB04101E4E06EBC00001EB011600EB46004C
:2047200090F82100187000220DE004EB0410174E06EBC00001EB011600EB4600401C805CB4
:20474000A854501CC2B218789042EEDC04EB04100E4E06EBC00001EB011610F8160070BDF3
:204760000246084800EB8200405C704710B5084B03EB411303EBC20418CCC0E9003410BD45
:20478000044A00208C090020B8CA0008A44A00202C4B00202DE9F04F89B0834600200890B8
:2047A000079006900590049002A803900320019000240026002762480078052803D00020FF
:2047C00009B0BDE8F08FB4E00198C01E09287DD2DFE800F0051633AC44556792A900002065
:2047E000009004F5C05005AA0221039BFDF72AFE054615B90420019001E0FF20E0E797E088
:2048000005980078012813DB05980078F0280FDC4C48005D401CC0B24A4908550599097886
:20482000884205D10020474908550520019003E0601CC4B20B2001907AE00020009004F581
:20484000C05004AA0121039BFDF7FCFD054615B90720019001E0FF20B2E769E0002000908A
:2048600004F5D05008AA0021039BFDF7EBFD054615B90820019001E0FF20A1E758E0002020
:20488000721CD1B2009004F5D05006AA039BFDF7D9FD054615B90920019001E0FF208FE7FD
:2048A00046E0069800684FEA104906980088C0F3072A06980078C0F3C4080020009007AA3A
:2048C00051464846039BFDF7BDFD00E02EE0054685B91D49C8194246079906F047F807EB5A
:2048E0000800C7B21848801E4770701CC6B20A2001901DE0FF2063E708980078B04202DD74
:204900000820019014E001200F49891E0870049801685846FDF757FE601CC4B20027002627
:204920000B20019004E00320019001E0FF2047E700BF0648008AA0423FF746AF00203FE70B
:20494000B500002088090020FA490020B8CA00083EB504460B2C6DD2DFE804F06C06121ED4
:204960002A36424E5A66690002200290002002AB01AA012100904FF4C040FDF763FD5AE06F
:2049800002200290002002AB01AA022100904FF4C040FDF757FD4EE002200290002002ABFE
:2049A00001AA0121009046F20100FDF74BFD42E002200290002002AB01AA0221009046F2EC
:2049C0000100FDF73FFD36E004200290002002AB01AA0121009046F20400FDF733FD2AE046
:2049E00004200290002002AB01AA0221009046F20400FDF727FD1EE004200290002002AB01
:204A000001AA0121009046F20500FDF71BFD12E004200290002002AB01AA0221009046F2E5
:204A20000500FDF70FFD06E0FE48019003E0FE48019000E000BF00BF019800683EBD10B5DB
:204A40000720FFF785FF0446F84800680444204610BD00B52DED108B83B0B0EE408AF0EE65
:204A6000608A9FEDF30B53EC102B51EC180B07F02FFE41EC100BB0EE40FAF0EE60FA9FEDE0
:204A8000EE0B53EC102B51EC1F0B07F0F9F941EC100BB0EE40EAF0EE60EA06F011FAB0EE7C
:204AA00040DAF0EE60DA9FEDE60B53EC102B51EC1D0B07F031F941EC100BB0EE40CAF0EE79
:204AC00060CA06F0B5FBB0EE40BAF0EE60BA9FEDDE0B53EC102B51EC1B0B07F0EDFB41EC18
:204AE000100BB0EE40AAF0EE60AA9FEDD90B53EC102B51EC1A0B07F013FD41EC100B8DED16
:204B0000000B9DED000B06F06BFCB0EE409AF0EE609AB0EE490AF0EE690A03B0BDEC108B0F
:204B200000BD00B52DED108B83B0B0EE408AF0EE608A9FEDC90B53EC102B51EC180B07F0BA
:204B4000BBFB41EC100BB0EE40FAF0EE60FA53EC182B51EC1F0B07F0AFFB41EC100BB0EED7
:204B600040EAF0EE60EA9FEDBE0B53EC102B51EC1E0B07F0D5FC41EC100BB0EE40DAF0EE08
:204B800060DA05F0F5FFB0EE40CAF0EE60CA9FEDB60B53EC102B51EC1C0B07F099FD41EC5D
:204BA000100BB0EE40BAF0EE60BA06F0ADFBB0EE40AAF0EE60AA9FEDA00B53EC102B51EC4E
:204BC0001A0B07F079FB41EC100BB0EE409AF0EE609A9FED970B53EC102B51EC190B07F0AD
:204BE0009BF841EC100B8DED000B9DED000B03B0BDEC108B00BD10B52DED048B0520FFF783
:204C0000A7FE04469A4884421CD9604207F004FB41EC100BB0EE409AF0EE609A9FED950BAC
:204C200053EC102B51EC190B07F02AF941EC100BB0EE408AF0EE608A51EC180B07F0A8FA0E
:204C400004461BE0204607F0E7FA41EC100BB0EE409AF0EE609A9FED870B53EC102B51EC64
:204C6000190B07F00DF941EC100BB0EE408AF0EE608A51EC180B07F08BFA04462046BDEC66
:204C8000048B10BD7D49097801294AD1FF2809D102217B4A11707B49098821F00F01794A89
:204CA000118041E000F00F0191F00F012FD00321734A11707349098821F00F01714A118096
:204CC000C143C1F3C00121B11146098841F002011180C143C1F3800129B16A49098841F054
:204CE0000101684A1180C143C1F3400129B16549098841F00201634A11800121814313D022
:204D00006049098841F001015E4A11800CE001215B4A11705B49098821F00F01594A11802F
:204D200002E00621564A1170704713B586B000208DF80D008DF80C0008208DF80E00442032
:204D40000190BDF81800C0B28DF80F00BDF81800010A8DF81010BDF81A00C1B28DF811108A
:204D6000BDF81A00010A8DF81210BDF81C00C1B28DF81310BDF81C00010A8DF81410BDF88C
:204D80001E00C1B28DF81510BDF81E00010A8DF8161000BF01A93C4802F0ECFA04462146D9
:204DA000394802F07FFB012005F060FC374800780028EFD008B010BD13B586B000208DF88E
:204DC0000D008DF80C0008208DF80E00452001909DF818008DF80F009DF819108DF81010E0
:204DE0009DF81A108DF811109DF81B108DF812109DF81C108DF813109DF81D108DF8141013
:204E0000BDF81E00C1B28DF81510BDF81E00010A8DF8161000BF01A91B4802F0ABFA04466C
:204E2000214635E01000002014000020900900200000000000B0734000000000006088404E
:204E400062F888981249D63FDF4F8D576FFE134130BB272F7230204111D77B3BD395C93E44
:204E6000454772F90FE9F93FA18158367348D63FC0BDF0FF9A99999999990940010000201E
:204E800000000020AE09002000640040AC000020FE4802F007FB012005F0E8FBFC480078BC
:204EA0000028B8D008B010BD13B586B000208DF80D008DF80C0008208DF80E0049200190C7
:204EC0000698C0B28DF80F000698010A8DF810100698010C8DF811100698000E8DF812004C
:204EE0000798C1B28DF813100798010A8DF814100798010C8DF815100798000E8DF8160007
:204F000000BF01A9E14802F035FA04462146DF4802F0C8FA012005F0A9FBDD4800780028D3
:204F2000EFD008B010BD1FB5DDE90001FFF7FDFEDDE90201FFF740FF1FBD70B586B0054621
:204F40000C4600208DF80D008DF80C0005208DF80E0048200190042D1EDAE0B28DF80F00BC
:204F6000210A8DF81010210C8DF81110200E8DF812008DF8135000BF01A9C44802F0FAF987
:204F800006463146C14802F08DFA012005F06EFBBF4800780028EFD006B070BDF0B589B026
:204FA00007460E46154607F5C060059000208DF818008DF81950002405E0315D0DF11A00EA
:204FC0000155601CC4B2AC42F7DB694605A8FCF783FA6946AF4802F0CDF909B0F0BD2DE923
:204FE000F34F2DED088B8BB08A464FF0000B00200A9009900890A8A103C9CDE90601FFF7BA
:20500000FAFD0A21B0FBF1F080B2ADF800000620FFF79EFC0746B7F1004F02D9C7F1000876
:2050200000E0B846404607F0F7F841EC100BB0EE40AAF0EE60AA9FED9A0B53EC102B51EC86
:205040001A0B06F01DFF41EC100BB0EE409AF0EE609A51EC190B07F09BF880B2ADF80200BD
:205060000120FFF775FC1FFA80FBCBF3C00058B18D48008820F010008B49088008460088DE
:2050800040F01000088005E08748008820F0100085490880CBF380200A9084480078002832
:2050A00035D10A9828B98248006810B18148006850BB002080490870804908708049087055
:2050C00080480078022822D1BDF800107E4A1288501A01D4014600E041427C4A12681144CE
:2050E0007A4A116010460068B0F57A7F07D9104601680020FFF721FF002074490860BDF850
:2051000000007149088002E001206B490870BAF1020F7CD00320FFF71BFC1FFA80F9C9F398
:20512000C00058B16048008820F020005E4908800846008840F02000088005E05A4800885A
:2051400020F0200058490880FFF779FC0890089807F062F841EC100BB0EE40AAF0EE60AA4A
:205160009FED5B0B53EC102B51EC1A0B06F088FE41EC100BB0EE409AF0EE609AFFF7D1FC8A
:20518000B0EE408AF0EE608A9FED530B53EC102B51EC180B07F090F841EC100BB0EE409ADC
:2051A000F0EE609A51EC190B06F0F2FF80B2ADF804000820FFF7CCFB0546B5F5100F01D921
:2051C0006E4200E02E46304607F026F841EC100BB0EE40BAF0EE60BA9FED410B53EC102B16
:2051E00051EC1B0B06F04CFE41EC100BB0EE40AAF0EE60AA9FED3C0B53EC102B51EC1A0BA5
:2052000007F05AF841EC100BB0EE409A00E0A1E0F0EE609A51EC190B06F0BAFF80B2ADF865
:205220000600C9F3802009903148007860BB099828B93048006810B12F48006828BB002062
:205240002E4908702E4908702E4908701D480078022867D1BDF804102B4A1288501A01D42B
:20526000014600E04142294A12681144274A116010460068B0F57A7F4CD9104601680120FF
:20528000FFF75BFE002043E04CE048E000640040AC000020006800404001100000000000BF
:2052A0000000000000004040AE09002044000020288241422C824142970900200B000020EA
:2052C00005000020000000209A090020A009002000000000004CDD40000000000000244030
:2052E00000000000006A08410000000000606D40450000203082414234824142980900205A
:205300000C000020040000209C090020A4090020FD490860BDF80400FC49088002E0012074
:20532000FB490870FB48007802280FD1FA48007830B1FA48008840F00800F849088005E0A1
:20534000F648008820F00800F44908800120F249087006E042F23410ADF804000020ADF80A
:205360000600EF48006838B9EE48006810B144F0010401E004F0FE04EA48006838B9E8486D
:20538000006810B144F0020401E004F0FD04E648006810B144F0040401E004F0FB04E34842
:2053A000006810B944F0100401E004F0EF04E048006810B944F0200401E004F0DF04DD481E
:2053C000006810B944F0400401E004F0BF04DA48006810B944F0800401E004F07F04D7480A
:2053E0000078D7490978884207DD01210320FFF7A4FDD2480078D2490870C848007810F05D
:20540000330F40D00120CF490870082206A9FFF7C5FD642005F02AF9CA48007830B1BF48EA
:20542000008840F00400BD49088005E0BB48008820F00400B94908800920FFF789FA0490DE
:205440000120B5490870082206A90220FFF7A6FD642005F00BF9B048007830B1AF480088D4
:2054600040F00800AD49088005E0AC48008820F00800AA4908800A20FFF76AFA0590DDE9A3
:205480000401FFF711FDA348007802280FD1AD48007830B1A148008840F004009F49088033
:2054A00005E09E48008820F004009C4908800120A4490870974800788DF80800A24801784B
:2054C0008DF80B109D4801788DF80C10904801788DF80A109D4801788DF809108DF80D406F
:2054E0008E480188ADF80E1010226946139805F03DFA0BB0BDEC088BBDE8FC8F7CB505462F
:205500000C4615B1012D7AD17AE02B208DF800005A208DF8010060208DF8020000208DF824
:2055200003001CB907208DF8040002E005208DF8040000208DF80500062269460120FFF7BB
:205540002DFD00210120FCF7AFFA23208DF8000084208DF8010060208DF8020000208DF8A5
:2055600003008DF8040019208DF8050000208DF806008DF80700082269460120FFF70EFDAA
:2055800000210120FCF790FA23208DF8000085208DF8010060208DF8020000208DF80300AA
:2055A0008DF8040019208DF8050000208DF806008DF80700082269460120FFF7EFFC00216C
:2055C0000120FCF771FA2B208DF8000040208DF8010060208DF8020000208DF803000B20BC
:2055E0008DF8040000208DF80500062269460120FFF7D4FC00210120FCF756FA5EE05CE0BB
:205600002B208DF800005A208DF8010060208DF8020000208DF803001CB907208DF8040086
:2056200002E005208DF8040000208DF80500062269460220FFF7B2FC00210220FCF734FA2F
:2056400023208DF8000085208DF8010060208DF8020000208DF8030080208DF80400382027
:205660008DF8050001208DF8060000208DF80700082269460220FFF791FC00210220FCF794
:2056800013FA2B208DF8000040208DF8010060208DF8020000208DF803000B208DF80400E4
:2056A00000208DF80500062269460220FFF776FC00210220FCF7F8F900E000BF00BF00203A
:2056C0007CBD1CB5044614B1012C5DD140E02B208DF8000040208DF8010060208DF8020079
:2056E00000208DF8030080208DF8040000208DF80500062269460120FFF750FC00210120B3
:20570000FCF7D2F941E00000A40900209C090020980900200000002096090020AE090020A1
:20572000200240422482414238824142288241422C8241423482414230824142B1090020B9
:20574000B00900209509002094090020970900202B208DF8000040208DF8010060208DF87A
:20576000020000208DF8030080208DF8040000208DF80500062269460220FFF70FFC002191
:205780000220FCF791F900E000BF00BF00201CBD1CB504462B208DF8000040208DF8010042
:2057A00060208DF8020000208DF8030004208DF8040000208DF8050014B1012C14D109E023
:2057C000062269460120FFF7E9FB00210120FCF76BF90AE0062269460220FFF7DFFB00218A
:2057E0000220FCF761F900E000BF00BF00201CBD2DE9FF4F91B0894690461C461EADE0CDBF
:2058000004F0FF0AC4F3072BC4F307400E90200E0D90E8B20C90C5F307200B90C5F307408C
:205820000A90280E0990F0B20890C6F307200790C6F307400690300E0590F8B20490C7F3ED
:2058400007200390C7F307400290380E0190B9F1010F03D0B9F1030F7ED10CE12F208DF8CB
:205860003C0060208DF83D008DF83E0000208DF83F0001208DF8400005220FA91198FFF79F
:205880008DFB00211198FCF70FF92B208DF83C0086208DF83D0060208DF83E0000208DF85F
:2058A0003F008DF840008DF8410006220FA91198FFF774FB00211198FCF7F6F823208DF8BD
:2058C0003C007A208DF83D0060208DF83E0000208DF83F008DF840A08DF841B00E988DF803
:2058E00042000D988DF8430008220FA91198FFF755FB00211198FCF7D7F823208DF83C0098
:2059000081208DF83D0060208DF83E0000208DF83F000C988DF840000B988DF841000A9889
:205920008DF8420009988DF8430008220FA91198FFF734FB00211198FCF7B6F823208DF854
:205940003C0083208DF83D0060208DF83E0000208DF83F00089800E08EE08DF8400007982D
:205960008DF8410006988DF8420005988DF8430008220FA91198FFF711FB00211198FCF74D
:2059800093F823208DF83C0084208DF83D0060208DF83E0000208DF83F0004988DF840008A
:2059A00003988DF8410002988DF8420001988DF8430008220FA91198FFF7F0FA002111988F
:2059C000FCF772F82B208DF83C0040208DF83D0060208DF83E0000208DF83F000F208DF861
:2059E000400000208DF8410006220FA91198FFF7D5FA00211198FCF757F8B8F1100F1BD173
:205A00002B208DF83C0040208DF83D0060208DF83E0000208DF83F001F208DF8400000200D
:205A20008DF8410006220FA91198FFF7B7FA00211198FCF739F81DE0B8F1010F1AD12B2096
:205A40008DF83C0040208DF83D0060208DF83E0000208DF83F003F208DF8400000208DF873
:205A6000410006220FA91198FFF798FA00211198FCF71AF801E000E000BF00BF002015B0E1
:205A8000BDE8F08F2DE9F0412DED068B84B006460F461546984608EB8801480006F0BCFB71
:205AA00041EC100BB0EE408AF0EE608A9FEDFE0B53EC102B51EC180B06F0FCFC14D29FED9F
:205AC000FC0B53EC102B51EC180B06F0F5FB41EC100BB0EE409AF0EE609A51EC190B06F010
:205AE00057FB0446644220E053EC182B9FEDEE0B51EC100B06F0ECFD41EC100BB0EE40AA56
:205B0000F0EE60AA9FEDEA0B53EC102B51EC1A0B06F0D2FB41EC100BB0EE409AF0EE609AE5
:205B200051EC190B06F034FB0446284606F074FB41EC100BB0EE40AAF0EE60AA9FEDDE0B95
:205B400053EC102B51EC1A0B06F0B6FB41EC100BB0EE409AF0EE609A51EC190B06F018FBC0
:205B600005464FF4C856374623460122114610468DE8E000FFF73CFE04B0BDEC068BBDE8AB
:205B8000F0812DE9F0432DED068B83B007460E460A20B6FBF0F9484606F03EFB41EC100B03
:205BA000B0EE40AAF0EE60AAFEF753FFB0EE409AF0EE609A9FEDC20B53EC102B51EC190BAA
:205BC00006F07AFB41EC100BB0EE408AF0EE608A51EC180B06F0DCFA0446384606F01CFBE1
:205BE00041EC100BB0EE40AAF0EE60AA9FEDB60B53EC102B51EC1A0B06F042F941EC100B4B
:205C0000B0EE409AF0EE609A9FEDB10B53EC102B51EC190B06F050FB41EC100BB0EE408A20
:205C2000F0EE608A51EC180B06F0B2FA8046AA480068844203D9A8480068251A05E0A6486E
:205C40000068C0F1FF302044451C49F64040CDE900802B460122114602900220FFF7C8FDE8
:205C600003B0BDEC068BBDE8F08300B593B0302107A804F0F2FE994AD2E901311068D268C1
:205C8000CDE9043106920390022303AA40F281314FF4A050FBF762FF302107A804F0DDFEE3
:205CA0008E4B1033D3E90020D3E90213CDE90513CDE903200120022103AB40F28132CDE9E7
:205CC000001041F60301FBF79FFF302107A804F0C4FE824B20330FCBCDE90523CDE90301A1
:205CE000022303AA40F2812141F20140FBF736FF302107A804F0B1FE784B3033D3E90021BD
:205D0000D3E90203CDE90503CDE903210220009003AB40F2812241F6010101900120FBF718
:205D200073FF13B000BD00B593B0302107A804F094FE6A4A4032D2E901311068D268CDE978
:205D4000043106920390022303AA40F2823141F20240FBF703FF302107A804F07EFE5F4BA9
:205D60005033D3E90020D3E90213CDE90513CDE903200120022103AB40F28232CDE90010AE
:205D800041F603010220FBF73FFF302107A804F064FE524B60330FCBCDE90523CDE903017E
:205DA000022303AA4FF4C17141F20340FBF7D6FE302107A804F051FE484B7033D3E900210A
:205DC000D3E90203CDE90503CDE903210220009003AB4FF4C17241F601010190FBF714FFC5
:205DE00013B000BD38B50546FF200090FBF752FDFCF782F90320FBF7E0FC0520FBF7D7FCB2
:205E0000002404E0002036490855601CC4B2032CF8DB01210020FCF7B5F9642004F026FC0D
:205E20000120FBF713FE2E4948706A4642F210712C48006804F020F89DF8000050B9FF2005
:205E40002949087001214FF49450FBF708FEFFF70CFF02E0FE20244908700A2004F006FC11
:205E6000022D4ED002210020FCF78CF9642004F0FDFB0220FBF7EAFD19498870FF200090A6
:205E80006A4642F210711948006803F0F5FF9DF8000040B9FF2016490870022141F2812072
:205EA000FBF7DDFD26E028E000000000000000009A999999999909400000000000004040A8
:205EC00000000000004CDD400000000000606D4000000000006A084190090020D8CA000836
:205EE000AA09002064000020A809002068000020A9090020FFF717FF06E0FD20FE49087052
:205F000002E0FF20FC490870FC480078FF280FD1F9480078FF280BD1012342F210728021C9
:205F20001846FBF7A9FF012200210846FCF7F9F8F2480078F0490978084038BD2DE9FF4FE6
:205F400087B00E4614461D4600200490FF200390E7B2C4F30728C4F307494FEA146AE8B2BC
:205F60000290C5F3072BC5F307400190280E0090079810B101287DD1EBE02F208DF81400C5
:205F800060208DF815008DF8160000208DF8170006208DF8180000208DF81900062205A939
:205FA0000120FEF7FBFF00210120FBF77DFD2F208DF8140098208DF8150060208DF81600CE
:205FC00000208DF817008DF818608DF81900062205A90120FEF7E2FF00210120FBF764FD08
:205FE00023208DF8140099208DF8150060208DF8160001208DF817008DF818708DF819806F
:206000008DF81A908DF81BA0082205A9FEF7C6FF00210120FBF748FD23208DF81400992071
:206020008DF8150060208DF8160002208DF81700D2208DF818004E208DF8190001208DF8AC
:206040001A0000208DF81B00082205A90120FEF7A5FF00210120FBF727FD23208DF81400A0
:206060009A208DF8150060208DF8160000208DF8170000E064E102988DF818008DF819B04B
:2060800001988DF81A0000988DF81B00082205A90120FEF783FF00210120FBF705FD2B209F
:2060A0008DF8140040208DF8150060208DF8160000208DF817000F208DF8180000208DF805
:2060C0001900062205A90120FEF768FF00210120FBF7EAFC2B208DF8140040208DF815005C
:2060E00060208DF8160000208DF817001F208DF8180000208DF81900062205A90120FEF743
:206100004DFF00210120FBF7CFFC01207C49087003AA4FF6E8517B48006803F0ADFE9DF84D
:206120000C0098B9FF2004900020774908604FF0030004F09BFA01207449C1F89C020320E4
:2061400004F094FA00207049086001E0FE200490F7E02F208DF8140060208DF815008DF88B
:20616000160000208DF8170006208DF8180000208DF81900062205A90220FEF70FFF0021B0
:206180000220FBF791FC2F208DF8140098208DF8150060208DF8160000208DF817008DF8C8
:2061A00018608DF81900062205A90220FEF7F6FE00210220FBF778FC23208DF814009920AA
:2061C0008DF8150060208DF8160001208DF817008DF818708DF819808DF81A908DF81BA0B3
:2061E000082205A90220FEF7D9FE00210220FBF75BFC23208DF8140099208DF8150060209E
:206200008DF8160002208DF817008DF818708DF819808DF81A908DF81BA0082205A9FEF7BE
:20622000BDFE00210220FBF73FFC23208DF814009A208DF8150060208DF8160000208DF843
:20624000170002988DF818008DF819B001988DF81A0000988DF81B00082205A90220FEF743
:206260009DFE00210220FBF71FFC2B208DF8140040208DF8150060208DF8160000208DF895
:2062800017000F208DF8180000208DF81900062205A90220FEF782FE00210220FBF704FCBB
:2062A0002B208DF8140040208DF8150060208DF8160000208DF817001F208DF8180000202D
:2062C0008DF81900062205A90220FEF767FE00210220FBF7E9FB01200D49087003AA4FF6D4
:2062E000E8510C48006803F0C7FD9DF80C0020BBFF20049000200FE0A9090020A809002011
:20630000080000206C0000209C024142000041420900002070000020424908604FF0030037
:2063200004F0A4F901204049C1F89C02032004F09DF900203B49086001E0FD20049000E0A0
:2063400000BF00BF04980BB0BDE8F08F70B50646012E03D135483649086002E03548344990
:20636000086036B1012E05D0022E2BD0032E41D101E000BF00BF00202F4908604FF00100BD
:206380002E49C1F89C022E4908604FF00000FFF798F90A2004F06AF90120FFF792F9142033
:2063A00004F064F9274B284A13210020FFF7C6FD04464FF4FD53254A13210120FFF7BEFD49
:2063C000054617E000201C4908604FF001001B49C1F89C024FF00000FFF773F90A2004F0D4
:2063E00045F9184B184A13210020FFF7A7FD0446FF2500BF00BF04EA050070BD70B506462F
:206400003046FFF7EFFC0546FF2D04D13046FFF79DFF044600E0FC24F32040EA840028405E
:2064200070BD00009C02414200004142A53521019009002095F03A01980240420000404278
:2064400094024042401F0100D24E010078EC0B0010B54FF4807001F063FBC8B14FF4807041
:2064600001F069FB28480068012808D1274908700020274908602749C1F8940208E0002046
:20648000224908700120224908602249C1F8940210BD00B585B00121082000F039FC4FF402
:2064A0008070039000208DF8100003A91A4800F091F90121880300F085FC0821032000F0C2
:2064C0008CFD4FF48070019000208DF8080010208DF8090001208DF80A0001A801F0BAFA06
:2064E0004FF4C06000F07EF817208DF8000000208DF801008DF8020001208DF80300684693
:2065000000F075F805B000BD20824142B10900209C02404200004042000C024070B505464D
:206520000C4645F2555001F00FFB284601F00FFB204601F00FFB01F010FB70BD10B501F089
:2065400011FB10BD10B501F008FB10BD70B50446012000F091FA00BF612000F02FFA002850
:20656000FAD045F2555001F0EFFA032001F0EFFA022C00D2022440F6CC40844200D904464D
:2065800040F2E24060434FF47A71B0FBF1F0401E85B2284601F0DEFA01F0DFFA01F0E2FAE7
:2065A00070BD00000948804709480047FEE7FEE7FEE7FEE7FEE7FEE7FEE7FEE7FEE7FEE70C
:2065C00004480549054A064B704700006B11000889010008D8570020D85D0020D8590020BF
:2065E000D859002033490143334A1160704770B5002100230F22C47824B32F4C246804F439
:20660000E064C4F5E064C4F30721C1F10404E3B20A4144789C40E1B28478144021430C07CE
:20662000210E264C05786155047804F01F050124AC4005786D114FF0E02606EB8505C5F869
:20664000004109E0047804F01F040125A5401C4C0678761144F8265070BD1A4A0A40024333
:20666000154B1B1F1A60704739B1134A121D12680243114B1B1D1A6006E00F4A121D126824
:2066800082430D4B1B1D1A607047042808D14FF0E021096941F004014FF0E022116107E0ED
:2066A0004FF0E021096921F004014FF0E0221161704700000000FA050CED00E000E400E00C
:2066C00080E100E080FFFF1F10B504469848844208D10121084600F086FB0021012000F03B
:2066E00082FB76E09348844208D10121022000F07AFB0021022000F076FB6AE08E4884421A
:2067000008D10121042000F06EFB0021042000F06AFB5EE08948844208D10121082000F07F
:2067200062FB0021082000F05EFB52E08448844208D10121102000F056FB0021102000F0F9
:2067400052FB46E07F48844208D10121202000F04AFB0021202000F046FB3AE07A48844295
:2067600008D10121402000F03EFB0021402000F03AFB2EE07548844208D10121802000F0D3
:2067800032FB0021802000F02EFB22E07048844208D10121801500F026FB0021A01500F00B
:2067A00022FB16E06B48844208D10121401500F01AFB0021601500F016FB0AE06648844203
:2067C00007D10121001500F00EFB0021201500F00AFB10BDF0B50A4600210023002400BF7D
:2067E0003DE0012505FA01F3156805EA03049C4234D105684F000326BE40B543056015793F
:206800004E00B5400668354305601579012D02D01579022D16D185684F000326BE40B5435D
:20682000856055794E00B540866835438560456801268E40B5434560456896798E40B6B2E6
:2068400035434560C5684F000326BE40B543C560D5794E00B540C6683543C560491C102961
:20686000BFD3F0BD4FF6FF7101600021017141718171C171704708B54FF480320092009AC5
:206880000A430092009AC261C161009AC261C2690092C269009208BD0246002013690B420D
:2068A00001D0012000E0002070470146086980B270470246002053690B4201D0012000E04B
:2068C000002070470146486980B2704701837047418370470AB1018300E04183704741610E
:2068E000704742694A4042617047F0B5002300244D07ED0E02FA05F3CE1000F1200555F8E2
:2069000026504E07F70E0F26BE40B543CF1000F1200646F82750CE1000F1200555F826501A
:2069200045EA0304CE1000F1200545F82640F0BD000002400004024000080240000C0240BD
:20694000001002400014024000180240001C0240002002400024024000280240F9480068FC
:2069600040F00100F74908600020F64908310860F4480068F4490840F2490860F348091D11
:206980000860F348EF4984310860F0481038091D0860EC48006820F48020EA4908600020E6
:2069A000E8490C310860E7498C31086070470021E44A921C117011460870704710B50146E5
:2069C0000022002300204A11012A02D1DD4C236808E0022A03D1DB4C7034236802E0D94C00
:2069E0007434236801F01F02012494401C4201D0012000E0002010BD38B50020009000247B
:206A0000002500BF3120FFF7D9FF05460098401C00900098B0F5A04F01D0002DF2D0312067
:206A2000FFF7CCFF08B1012400E00024204638BD01460020C34A106820F0F80040EAC10079
:206A400010607047C349086070470021BD4A703211701170012802D004280AD104E0012110
:206A6000B84A7032117005E00521B64A7032117000E000BF00BF7047B7490860704770B56A
:206A8000049C41EA82150126C6EB530645EA0645054345EA0465AB4E361D356070BDAD4905
:206AA00008667047820142EA0172A64B84331A607047A8498866704710B5830143EA016346
:206AC00043EA02739F4C8834236010BDA14908677047A049C864704702460020994B0833BA
:206AE000186820F0EC6042EA01031843954B08331860704702460020924B0833186820F0D5
:206B0000784042EA010318438E4B083318607047014600208B4A0832106820F003000843A3
:206B20001060704787480830006800F00C00704701460020834A0832106820F0F0000843DB
:206B400010607047014600207E4A0832106820F4E05008431060704701460020794A083213
:206B6000106820F4604040EAC10010607047F0B5002100220024022500260223714F08375A
:206B80003F6807F00C0121B1042905D0082937D105E0724F076036E0714F076033E0694F28
:206BA0003F1D3F68C7F38056664F3F1D3F6807F03F036EB16A4FB7FBF3F7DFF888C10CF1C0
:206BC000040CDCF800C0CCF3881C07FB0CF40CE0624FB7FBF3F7DFF86CC10CF1040CDCF88E
:206BE00000C0CCF3881C07FB0CF4564F3F1D3F68C7F301477F1C7D00B4FBF5F7076002E0CA
:206C0000564F076000BF00BF4E4F08373F6807F0F0010909534F7A5C0768D7404760494F30
:206C200008373F6807F4E051890A4E4F7A5C4768D7408760434F08373F6807F46041490B27
:206C4000484F7A5C4768D740C760F0BD002100F44072B2F5407F0AD13A4A0832116821F4D9
:206C6000F811414A02401143364A08321160354A70321268C0F30B031A43324B70331A606C
:206C800070473549443908607047334940390860704736490860704701460020294A8C32D9
:206CA000106820F01F004A1E1043264A8C321060704701460020234A8C32106820F4F850B7
:206CC0004A1E40EA02201F4A8C3210607047014600201C4A8C32106820F440100843106090
:206CE000704701460020174A8C32106820F4400008431060704701460020124A8C32106820
:206D000020F4403008431060704719490860704739B10C4A3032126802430A4B30331A6069
:206D200006E0084A303212688243064B30331A607047F9B1034A343212680243014B3433C6
:206D40001A601CE000380240FFFFF6EA103000240030002000004742800E47420024F400F9
:206D600040787D01B2090020FFFCFF0F5C014742E01147428F4A126882438E4B1A60704777
:206D800039B18C4A121D126802438A4B1B1D1A6006E0884A121D12688243864B1B1D1A6015
:206DA000704739B1834A0C3212680243814B0C331A6006E07F4A0C32126882437D4B0C33B0
:206DC0001A60704739B17B4A103212680243794B10331A6006E0774A103212688243754B69
:206DE00010331A60704739B1724A243A12680243704B243B1A6006E06E4A243A126882438D
:206E00006C4B243B1A60704739B16A4A203A12680243684B203B1A6006E0664A203A126882
:206E20008243644B203B1A60704739B1614A1C3A126802435F4B1C3B1A6006E05D4A1C3A4A
:206E4000126882435B4B1C3B1A60704739B1594A143A12680243574B143B1A6006E0554A3B
:206E6000143A12688243534B143B1A60704739B1504A103A126802434E4B103B1A6006E096
:206E80004C4A103A126882434A4B103B1A60704739B1484A1C3212680243464B1C331A60DF
:206EA00006E0444A1C3212688243424B1C331A60704739B13F4A2032126802433D4B203365
:206EC0001A6006E03B4A203212688243394B20331A60704739B1374A243212680243354B34
:206EE00024331A6006E0334A243212688243314B24331A60704739B12E4A2C321268024346
:206F00002C4B2C331A6006E02A4A2C3212688243284B2C331A60704739B1264A30321268F1
:206F20000243244B30331A6006E0224A303212688243204B30331A607047012808D11D4966
:206F40003C31096841F008011A4A3C32116007E018493C31096821F00801164A3C32116057
:206F6000704739B1134A273A12780243114B273B1A7006E00F4A273A127882430D4B273BF2
:206F80001A7070470B484030006840F08070094940310860704701460020064A283A1268F0
:206FA0000A4201D0012000E00020704701492639087070473438024010B501218803FFF7EE
:206FC00056FF00214FF48040FFF751FF10BD1C49086070471B490862704730B500228B0783
:206FE0001C0F0F2303FA04F2154B08338C1053F824309343124C08348D1044F82530234664
:207000008C1053F824308C07240F00FA04F423430B4C08348D1044F8253030BD0A490860AE
:2070200070470A4908607047002005492031096811F4807F01D0012000E00020704700004A
:207040000038014000002742DC0027420004274210B50446FE48844209D101214806FFF741
:20706000F5FE00214FF00070FFF7F0FE08E001218806FFF7EBFE00214FF08060FFF7E6FED8
:2070800010BD30B5024600200023146824F002041460146844F00104146000E05B1C54686D
:2070A00014F0010F03D1A3F57F44FF3CF6D1546814F0010F01D100206CE08C79012C04D176
:2070C000146844F08004146003E0146824F080041460CC79012C04D1146844F040041460EE
:2070E00003E0146824F0400414600C7A012C04D1146844F02004146003E0146824F02004FE
:2071000014604C7A012C04D1146844F01004146003E0146824F0100414608C7A012C04D1F8
:20712000146844F00804146003E0146824F008041460CC7A012C04D1146844F004041460B8
:2071400003E0146824F0040414608C78A407CD7844EA05640D7944EA05444D7944EA05546B
:207160000D886D1E2C43D461146824F001041460002300E05B1C546814F0010F03D0A3F58D
:207180007F44FF3CF6D1546814F0010F01D0002000E0012030BD10B50021837A012202FA79
:2071A00003F1AC4A126842F00102AA4B1A60A94A1C3212688A43A74B1C331A60027BCAB984
:2071C000A44A0C3212688A43A24B0C331A604288C38842EA03439F4A4032847A42F8343018
:2071E0000288838842EA03439A4A4032847A02EBC4025360027B012A19D1964A0C321268A4
:207200000A43944B0C331A604288038842EA0343904A4032847A42F83430C288838842EA59
:2072200003438C4A4032847A02EBC4025360C27A3AB9884A121D12688A43864B1B1D1A6062
:2072400006E0844A121D12680A43824B1B1D1A60028932B97F4A143212688A437D4B14332A
:207260001A600289012A06D17A4A143212680A43784B14331A60427B012A06D1754A1C32E6
:2072800012680A43734B1C331A60724A126822F00102704B1A6010BD00218171C17101729B
:2072A00041728172C1728170C17003210171022141710121018070476649096841F00101BB
:2072C000644A11601146096843F60E729143614A11601146096841EA0021116011460968D1
:2072E00021F001011160704721B1026842F48032026003E0026822F4803202607047E1B10D
:20730000026842F0800202604FF4C272125842F480734FF4C27213504FF4CA72125842F4EA
:2073200080734FF4CA7213504FF4D272125842F480734FF4D27213501BE0026822F080027B
:2073400002604FF4C272125822F480734FF4C27213504FF4CA72125822F480734FF4CA7296
:2073600013504FF4D272125822F480734FF4D2721350704710B502460020936803F0806311
:20738000B3F1806F00D110E0936803F00063B3F1006F01D1012008E0936803F08053B3F1F5
:2073A000805F01D1022000E00420042879D002F5C07303EB00131B6803F0010402F5C073B1
:2073C00003EB00131C600B7A7BB94B7A0C8843EA445302F5C07404EB00142468234302F543
:2073E000C07404EB0014236010E00B7A4C6843EAC4034C7A234302F5C07404EB00142468D0
:20740000234302F5C07404EB001423608B7A03F00F038B7202F5C07303EB00135B6823F04D
:207420000F0402F5C07303EB00135C6002F5C07303EB00135B688C7A234302F5C07404EBDE
:20744000001463608B7B1C064B7B44EA034403E000640040006600400B7B44EA0323CC7AA5
:20746000234302F5C07404EB0014A3608B7C1C064B7C44EA03440B7C44EA0323CC7B234388
:2074800002F5C07404EB0014E36002F5C07303EB00131B6843F0010402F5C07303EB00136A
:2074A0001C6010BD10B50246002021B1012907D002290FD109E09368F74C03EA04000BE075
:2074C0009368F64C03EA040006E09368F44C03EA040001E0002000BF00BFF24C031BA042AF
:2074E00016D007DC80B16FF08063C3180ED0022B18D111E0B3F5007F10D0EB4C1B1909D045
:20750000B3F5003F0ED10BE002200DE000200BE0002009E0002007E0012005E0012003E086
:20752000012001E0002000BF00BF10BD21B1012907D002290FD109E0826842F08002826097
:207540000AE0826842F40042826005E0826842F40002826000E000BF00BF704710B500F545
:20756000D87303EB01131B6803F004031372137A53B900F5D87303EB01131B6840F2FF74B9
:2075800004EA5353136009E000F5D87303EB01131B686FF0604404EAD303536000F5D8737C
:2075A00003EB01131B6803F00203537200F5D87303EB01135B6803F00F03937200F5D8733A
:2075C00003EB01135B681B0AD37400F5D87303EB01139B68D37200F5D87303EB01139B68AB
:2075E0001C0A147300F5D87303EB01139B681C0C547300F5D87303EB01139B681B0E937336
:2076000000F5D87303EB0113DB68D37300F5D87303EB0113DB681C0A147400F5D87303EB3E
:207620000113DB681C0C547400F5D87303EB0113DB681B0E937421B9C36843F02003C360D0
:2076400003E0036943F02003036110BD21B9C26842F02002C26003E0026942F020020261D5
:2076600070470246002019B9D36803F0030006E0012903D1136903F0030000E000207047DB
:2076800010B502460B4600204FF6FF71BBB9146824F0020444F00104146000E0491E5468FD
:2076A00004F00304012C01D00029F7D1546804F00304012C01D0002032E0012030E0012B9C
:2076C00013D1146824F00304146000E0491E546814F0030F01D00029F8D1546814F0030F0D
:2076E00001D000201CE001201AE0022B17D1146824F0010444F00204146000E0491E546827
:2077000004F00304022C01D00029F7D1546804F00304022C01D0002002E0012000E00020A5
:2077200010BD014600200A6822F0010242F002020A604A6802F00302022A00D10120704770
:2077400001464FF6FF7200200B6823F002030B6000E0521E4B6803F00203022B01D1002AF2
:20776000F7D14B6803F00203022B00D001207047014600208A6902F07000704701460020E7
:207780008A69100E7047014600208A69C2F3074070471AB143690B43436102E043698B434F
:2077A0004361704710B50246002011F4700F08D09369C1F31304234201D001202DE000209A
:2077C0002BE011F0807F08D05368C1F31304234201D0012021E000201FE011F0006F08D081
:2077E0009368C1F31304234201D0012015E0002013E011F0007F08D0D368C1F313042342A1
:2078000001D0012009E0002007E01369C1F31304234201D0012000E0002010BD0022234B8B
:20782000994202D10023836111E0C1F3130211F0007F01D0C2600AE011F0806F01D0026158
:2078400005E011F0006F01D0826000E042607047024600200A4201D0012000E0002070478A
:2078600070B504460D4600266069284271D0B5F5807F68D01CDC082D41D006DC012D2CD081
:20788000022D30D0042D7ED133E0102D3DD0202D41D0402D77D144E0030000040003000893
:2078A00000000310000100080001FFF77000F030B5F5004F61D009DCB5F5007F4AD0B5F529
:2078C000806F4DD0B5F5006F5DD150E0B5F5803F2DD0B5F5003F56D12FE0A0685549FFF704
:2078E000B7FF064651E0E0680321FFF7B1FF06464BE0E0680821FFF7ABFF064645E0E06802
:207900001021FFF7A5FF06463FE020690321FFF79FFF064639E020690821FFF799FF0646FF
:2079200033E020691021FFF793FF06462DE060680821FFF78DFF064627E060681021FFF7E4
:2079400087FF064621E0A0690121FFF781FF06461BE01BE0A0690221FFF77AFF064614E096
:20796000A0690421FFF774FF06460EE00BE0A0697021FFF76DFF064607E060680421FFF739
:2079800067FF064601E0002600BF00E00026304670BDB1F5007F3AD00FDC202928D006DC89
:2079A00001291CD004291DD0082940D11DE0402921D0B1F5807F3AD126E0B1F5004F31D052
:2079C00006DCB1F5806F25D0B1F5006F2FD124E0B1F5803F12D0B1F5003F28D111E0154AAD
:2079E000826025E00822C26022E01022C2601FE0082202611CE01022026119E0082242601C
:207A000016E01022426013E00422426010E0042242600DE0042242600AE00022826104225F
:207A2000426005E0002282610422426000E000BF00BF704701010100002041490860091DA2
:207A40000860091D0860091D08603E483C4914310860704700213A498279002A3AD00A4610
:207A6000126803689A430B461A600A1D126803689A430B1D1A60027911440A6803681A43E4
:207A80000A602F4A0832126803689A432C4B08331A601A1D126803689A43294B0C331A60B5
:207AA0004279102A0ED11A1F126803681A43244B08331A601A1D126803681A43204B0C3330
:207AC0001A600DE01E49427911440A6803681A430A6005E0027911440A6803689A430A604B
:207AE00070470021016001710C2141710021817170471349103109680143114A10321160D2
:207B00007047014600200E4A143212680A4201D0012000E000207047094914310860704784
:207B200001460020064A143212680A4201D0012000E000207047024914310860704700002A
:207B4000003C0140FFFF7F000E49086070470D49486070470B49886070474AF6AA200949B1
:207B6000086070474CF6CC4006490860704701460020044AD2680A4201D0012000E00020FD
:207B80007047000000300040FE4A1070704730B1FC49096841F48071FA4A116005E0F949A6
:207BA000096821F48071F74A1160704730B1F549096841F40071F34A116005E0F149096871
:207BC00021F40071EF4A1160704730B1ED49096841F48061EB4A116005E0EA49096821F4DC
:207BE0008061E84A11607047E648006840F40060E44908607047E348006840F48050E14913
:207C000008607047DF481030006810F0004F05D0DD48DC49091D0860DC4808607047D94816
:207C20001030006840F00040D6491031086070470920D4490C31096801F48031B1F5803FAE
:207C400001D1012020E0CF490C31096811F0100F01D0062018E0CB490C31096811F4807F96
:207C600001D0022010E0C7490C31096811F0EF0F01D0072008E0C3490C31096811F0020FB8
:207C800001D0082000E00920704708B509200090FFF7CEFF009002E0FFF7CAFF00909DF89C
:207CA00000000128F8D09DF8000008BD70B504460A460026092502B909E0012A01D11602AD
:207CC00005E0022A01D1160201E04FF44076FFF7DCFF0546092D2DD1AA481030006820F4D1
:207CE0004070A8491031086008460068304308600846006820F0F80008600846006844F099
:207D0000020108439F49103108600846006840F480300860FFF7B9FF05469A4810300068FF
:207D200020F002009749103108600846006820F0F8000860284670BD30B502460025092468
:207D4000FFF7A3FF044602B909E0012A01D1150205E0022A01D1150201E04FF44075092C81
:207D600020D188481030006820F4407085491031086008460068284308600846006840F0F0
:207D8000040008600846006840F480300860FFF77CFF04467B481030006820F00400794979
:207DA00010310860204630BD30B5024600250924FFF76BFF044602B909E0012A01D11502E6
:207DC00005E0022A01D1150201E04FF44075092C20D16C481030006820F440706949103197
:207DE000086008460068284308600846006840F0040008600846006840F480300860FFF748
:207E000044FF04465F481030006820F004005D4910310860204630BD30B502460025092451
:207E2000FFF733FF044602B909E0012A01D1150205E0022A01D1150201E04FF44075092C10
:207E400020D150481030006820F440704D491031086008460068284308600846006840F47B
:207E6000004008600846006840F480300860FFF70CFF044643481030006820F400404149FC
:207E800010310860204630BD70B5064614461D464FF00902FFF7F9FE0246092A1ED1394896
:207EA0001030006820F440703649103108600846006840F4407008600846006840F0010045
:207EC000086034607560FFF7E0FE02462D481030006820F001002B4910310860104670BDE7
:207EE00030B502460C460925FFF7CFFE0546092D1DD124481030006820F440702149103120
:207F000008600846006840F4007008600846006840F0010008601460FFF7B7FE054619481D
:207F20001030006820F00100164910310860284630BD30B502460C460925FFF7A6FE054693
:207F4000092D1DD10F481030006820F440700D49103108600846006840F4807008600846AB
:207F6000006840F0010008601480FFF78EFE054604481030006820F00100024910310860A6
:207F8000284630BD003C024023016745AB89EFCD30B502460C460925FFF777FE0546092DAF
:207FA00017D19B48006820F44070994908600846006808600846006840F00100086014708F
:207FC000FFF763FE05469248006820F0010090490860284630BD8E48001D006810F0010FA5
:207FE00005D08C488A49083908608B48086070478748001D006840F001008549091D086089
:20800000704730B502460C460925FFF73EFE0546092D10D13CB17E48801D008890437C49F8
:20802000891D088007E07A48801D008891B208437749891D088030BD30B502460C4609252E
:20804000FFF723FE0546092D10D13CB170480A30008890436E490A31088007E06C480A301E
:20806000008891B208436A490A31088030BDFF21674AD21D127802F07F0140EA0102644BEF
:20808000DB1D1A70704730B502460C460925FFF7FCFD0546092D10D144B15D48801D0088EA
:2080A00091B208435A49891D088006E05848801D008890435649891D088030BD30B50246FC
:2080C0000C460925FFF7E1FD0546092D10D144B14F480A30008891B208434D490A310880B5
:2080E00006E04B480A300088904349490A31088030BD10B502460924FFF7C7FD0446092CBD
:2081000002D14348401D027010BDF0B504460D46FF260927FFF7B9FD0746092F0BD13C483D
:20812000001D007800F00F0645EA0600104320433749091D0870F0BD3549091D097821F0B9
:208140001001334A121D1170114609780143117070472F49091D097821F00C012C4A121DAB
:2081600011701146097801431170704700B509222748001D007840F002002549091D087008
:20818000FFF783FD0246104600BD2148001D0068C0F3471070471E48801D008870471C48B9
:2081A0000A30008870471A48801D0088704718480A300088704700201549491D0978AA29F7
:2081C00001D0012000E0002070471148001D007800F00C00704729B10D4A126802430C4B0E
:2081E0001A6004E00A4A12688243094B1A60704701460020064A121F12680A4201D0012069
:2082000000E0002070470249091F086070470000103C02403B2A19087F6E5D4C0146002004
:2082200002E0491C421CD0B20A78002AF9D170472DE9F04105460E4614460027FA480078C9
:2082400020B1112020700020BDE8F0812878012808D0022807D0032802D0042804D100E0D6
:2082600000BF00BF00BF03E0012020700020EBE700BF02F017FB0746286930603068FFF77C
:20828000CDFF8046384602F011FB002020704046DAE72DE9F04105460E4614460027E24848
:2082A000007818B112202070BDE8F0812878012808D0022807D0032802D0042804D100E025
:2082C00000BF00BF00BF02E001202070ECE700BF02F0E8FA07462E61384602F0E7FA00201B
:2082E000207000BFE0E7F0B5024612F8304F95785678A2F130020B4618680FE000F10B078F
:208300003F5DB74300F10B0C0CF8047067463F5D17B9877AAF4387721B1D18680028EDD1A4
:20832000F0BDC249C24A1278885CC249095CBF4A515C01EBC001C04A1170704710B500240D
:2083400002F0B0FA0446B8480078F8B9BB480078E0B9FFF7E6FFBA48B749097850F8210033
:20836000B8490860B4480078B749097888420DD0B4480068406B401CB24909684863B3487B
:208380000068401CB149086002F0A5FA204602F08DFA10BD70B501460024AD4D2D68EC610E
:2083A000AB4C246821620B4618681BE0A84C246894F8305000F10B04645DA54D2D6895F88A
:2083C00031502C43A24D2D6895F8306000F10B05AC55847A9E4D2D6895F832502C43847218
:2083E0001B1D18680028E1D1994C246894F83020904CA45C964D2D6895F83150AC438D4D73
:20840000AC542C46A45C44B9914C246894F83250874C2478AC43864D2C7070BD2DE9FF4F18
:2084200083B083460E461546DDF84080002000903060D946D9F8004018E02078062807D2F5
:20844000DFE800F00604050307080AE009E008E000BF00BF012088F80000002007B0BDE8EE
:20846000F08F00BF09F10409D9F80040002CE4D16D48007820B1022088F800000020EDE731
:208480006E48007820B10D2088F800000020E5E702F008FA00900020029082460190D94696
:2084A000D9F800405DE02078062849D2DFE800F048172A03494A208960B12089401E208155
:2084C00010C601200290002001C50AF101001FFA80FA03E0019840F0010001903CE060687C
:2084E00058B1606801C50020606010C6012002900AF101001FFA80FA03E0019840F002003F
:20850000019029E06768F88AA8B13969081D3861086801C5B9683869884201D178683861AA
:20852000F88A401EF88210C6012002900AF101001FFA80FA03E0019840F0040001900BE09D
:2085400000BF00BF009802F0B1F900203060012088F80000504681E700BF09F10409D9F883
:208560000040002C9FD10298012809D100203060009802F09BF9002088F8000050466DE72A
:208580003348006890F82C00019941F0800108432F49096881F82C0000202D49096881F89F
:2085A0002D002B490698096888625846FFF7F2FE009802F07BF9FFF7C1FE02F073F90090FC
:2085C0002348006890F82D0020B101281BD0022818D100E000BF1E480068C4693CB110C6BE
:2085E000002030600AF101001FFA80FA09E001201749096881F82D00594615480068FFF761
:2086000072FE06E000BF594611480068FFF76BFE00BF00BF0E48006890F82D00D0B10128EB
:2086200041D002283ED137E0CC09002058CB0008D0090020D1090020CF090020CD090020D8
:20864000A44F0020E4090020CE090020C4090020DC090020207806280DD2DFE800F00C06A3
:2086600007030D0E002001C511E000BFFD480068406A01C50BE000BF00BF009802F016F920
:2086800000203060012088F800005046E6E600BF002088F800000CE0002001C50E2088F848
:2086A000000006E000BF002001C50A2088F8000000BF00BF0020EB49096881F82C00E9496B
:2086C000096881F82D00E7490968C861E54909680862E44909684862009802F0E7F8504669
:2086E000BCE6002400BF00BF02F0DCF80446DE480068401CDC490860204602F0D7F801F097
:20870000F5FFF1E700B587B0032000218022D74BCDE90132CDE903104FF6FF701F23D44AD3
:208720000090AFF2410001F01FFD06AAD1A11F2001F067FE07B000BD04E0002200F8012B65
:208740004A1E91B20029F8D1704770B54FF41671CC48FFF7F1FF002411E0601C85B204EB25
:208760008400C84901EB800305EB850001EB8006002018705E60C4A01861601C84B21D2CD0
:20878000EBD304EB8400BF4901EB8003002018705860BDA018610846BC49086070BD70B5EE
:2087A0004FF4D261BA48FFF7C7FF8021B948FFF7C3FF00230FE0581CC5B203EB8300B449C0
:2087C00001EB001405EB850001EB00166661AEA0A064581CC3B2142BEDD303EB8300AC49BB
:2087E00001EB001400206061A7A0A0640020AA490860A748A949086070BD0021A84A1170C8
:20880000002004E00021A74A1154411CC8B20428F8D30021A44A1170A44A1170A44A1160B1
:20882000904A116070470020A2490870A2490870A2490870A2490870A24908608A490860FC
:20884000704710B501F04EFFFFF7EDFFFFF7D5FFFFF7A5FFFFF779FF01F043FAFFF752FF35
:2088600001F041FF10BD96480078012808D191480078FF2804D28F480078401C8D4908705B
:20888000704710B500248E480078012830D102F009F804468748007820B186480078401EC7
:2088A0008449087083480078F8B983480078E0B9FFF737FD77487D49097850F821007C4945
:2088C00008607A4800787849097888420DD078480068406B401C76490968486379480068DA
:2088E000401C7849086001F0FDFF204601F0DEFF10BD10B5002472480078012811D101F0EE
:20890000D1FF04466B48007840B96B480078FF2804D269480078401C67490870204601F0ED
:20892000C5FF10BD10B5002465480078012821D101F0B8FF044660480078C0B15E480078DC
:20894000401E5D4908700846007860B95948007828B9204601F0AAFFFFF7F0FC0AE0204690
:2089600001F0A4FF06E0204601F0A0FF02E0204601F09CFF10BD10B55148007890B9FFF7D1
:20898000D0FC4A4800784849087042484749097850F8210046490860084600683149086065
:2089A00001F087FF10BD70B500254548007801283ED13948046837E001F074FF0546A06A2F
:2089C00070B3A06A401EA062A06A48BB94F82C0010F0370F09D014F82C0F00F0C800207097
:2089E00001206070A4F12C0402E0002084F82D0094F82C0010F0080F12D104F13004A07823
:208A00002749097840EA01002549087020782549085C617840EA010014F83019214A505482
:208A20006469284601F042FF94F82E001F28C3D170BD40F223107047704710B590F8302097
:208A400001F10B039B5C90F83140A34301F10B04A35423469B5C23B98B7A90F83240A34327
:208A60008B7210BDDC090020D8090020A44D0020A04F002075432F4F532D49492049646C85
:208A8000650000004C4B00203F000000C809002024500020A44F0020E8090020E0090020C9
:208AA000D0090020D1090020CE090020CF090020E4090020CC090020CD090020D6090020DD
:208AC000D5090020C40900202DE9F04F05460F4690469946A87A8E490E5C05F10B00805DC0
:208AE00011F800B00BEBC60000F0FF0A894850F82A40002004F1240460602760207A20EA5D
:208B00000800207284F80990207AA4F1240410F0080F0DD194F832007F49097808437E4941
:208B200008707E48805D94F8311008437B49885529462046FFF781FF206A20B12046216ACA
:208B4000FFF7D1FBE5615046BDE8F08F10B5744A1268D061724A126892F8303000F10B0207
:208B6000D25C6F4B1B6893F831301A436C4B1B6893F8304000F10B031A55827A684B1B686C
:208B800093F832301A438272654A126892F83010624A525C624B1B6893F831309A435F4BA7
:208BA0005A541A46525C42B95D4A126892F83230594A12789A43584B1A7010BD0146002284
:208BC0008A72002005E0002301F10B021354421CD0B20428F7D3704705E011F8013B00F85C
:208BE000013B531E9AB2002AF7D170472DE9F84F05460F4690469946DDE90AAB00200090F6
:208C000001F050FE009047480468002C7AD054F8140F44490860009801F048FE44F8147C15
:208C2000A576002020766076606144F810BC44F808AC44F80C8C0C9824F8040C24F8029C76
:208C40000020E077E810207705F00700E076217F01208840A077E17E0120884060770020DD
:208C6000A060E06020612062A0626062E0622063AFF2EC106063A4F114044FF0000606E0F0
:208C8000002104F14C0040F82610701CC6B2002EF6D0204601F002FE204601F025FD01F04B
:208CA00001FE00901B4840F825401F48006860610020A0611C48006810B11B480068846137
:208CC0001948046004F13004A0781349097840EA01001149087020781049085C617840EA5C
:208CE000010014F830190D4A50541048007800F101000E490870009801F0D8FD0020BDE86F
:208D0000F88FFFE7009801F0D1FD4220F7E7000058CB0008A44F0020D0090020D10900201E
:208D2000DC090020E0090020E8090020D609002070B5044600262078012801D0002070BDA1
:208D400001F0B0FD0646656800206060304601F0ADFD2846F3E770B505460026E8480078E5
:208D600008B1002070BD01F09DFD0646E5480468006820B1E34800684068E2490860304600
:208D800001F094FD4CB101202070002020816560DDA020612046FFF711FF2046E2E72DE96E
:208DA000F0470446884615464FF000092078012804D0012028702046BDE8F087D048007861
:208DC00018B10F2028702046F6E701F06BFD8146A07A08B1012700E00027B8F1000F03D013
:208DE000B8F1010F3AD119E08FB9C7A0206100202070C4480068606000202081C148046074
:208E0000484601F053FD00202870002605E0484601F04CFD49202870264626E005E000237D
:208E2000022219462046FFF74FFEA07A0028F6D1B5A0206100202070B24800686060002035
:208E40002081B0480460484601F030FD012F01D1FFF774FA00202870002606E0484601F0C0
:208E600025FD07202870264600BF00BF3046A3E72DE9F04105460F4614464FF000082878FF
:208E8000012804D0012020700020BDE8F0819C48007818B1022020700020F6E79B480078BF
:208EA00018B10D2020700020EFE701F0FBFC80466E6846B100206860404601F0F7FC002049
:208EC00020703046E1E79248006890F82C0040F002008F49096881F82C0000208C49096848
:208EE00081F82D008A48006887622846FFF72EFE404601F0DBFCFFF721FA01F0D3FC804634
:208F00008348006890F82D0020B101280DD002280AD105E07E480068466A002020700DE02D
:208F200000260E20207009E000BF294678480068FFF783FD00260A20207000BF00BF00201A
:208F40007349096881F82C007149096881F82D006F490968C8616E49096808626C49096864
:208F60004862404601F0A2FC30468EE72DE9F04104460F4615464FF000082078012804D02A
:208F8000012028700020BDE8F08101F08BFC8046A07A18B300267FB1012F0CD107E0022350
:208FA0001A4600212046FFF78FFD701CC6B2A07A0028F4D108E000BF02231A46002120468A
:208FC000FFF782FD761C00BF00BF404601F06EFCFFF7B4F90E2028703046D4E7404601F01A
:208FE00065FC0020287000BFCDE770B504460D4600262078012801D0012070BD01F052FCDE
:209000000646A07A60B10023022229462046FFF75BFD304601F04AFCFFF790F90020ECE750
:20902000606820B1304601F041FC1420E5E76560304601F03BFC0020DFE72DE9F041044619
:209040000E46154600272078012802D00120BDE8F08101F027FC0746A07AE8B115F0010F47
:209060000AD005E00023022231462046FFF72CFDA07A0028F6D105E00023022231462046DC
:20908000FFF722FD384601F011FC15F0040F01D1FFF754F90020DAE7606820B1384601F029
:2090A00005FC1420D3E76660384601F0FFFB0020CDE72DE9F04704460D464FF000092078F4
:2090C000012802D00120BDE8F08701F0EBFB8146A07A287204F10B0705F10408002605E0F2
:2090E00017F8010B08F8010B701CC6B2042EF7D360682860484601F0D9FB0020E3E70000BC
:20910000CC090020C80900203F000000CD090020DC0900202DE9F04104460D46002720788C
:20912000042804D0012028700020BDE8F081FA48007818B1022028700020F6E701F0B2FB68
:20914000074620890612207AFF2820D1208900F47F4020812089F149096891F82E100843EC
:209160002081EE4800686060EC48006890F82E00B04205DC384601F099FB7820287004E0B4
:20918000384601F093FB002028700120CDE7384601F08CFB0020287000BFC6E72DE9F041E4
:2091A00005460E460027DC48007820B1102030700020BDE8F08101F075FB0746D84850F860
:2091C000250030B1384601F071FB282030700020EFE70120D24941F82500D24804684CB9AB
:2091E000002041F82500384601F060FB042030702046DEE7CB4800684068CA49086038461C
