:020000040800F2
:10000000E05E00209D010008A5010008850F0008A2
:10001000A9010008AB010008AD01000800000000C4
:10002000000000000000000000000000AF01000818
:10003000B101000800000000B3010008B50100088C
:10004000B7010008B7010008B7010008B7010008B0
:10005000B7010008B7010008B7010008B7010008A0
:10006000B7010008B7010008B7010008B701000890
:10007000B7010008B7010008B7010008B701000880
:10008000B7010008B7010008B7010008B701000870
:10009000B7010008B7010008B7010008B701000860
:1000A000B7010008B7010008B7010008B701000850
:1000B000B7010008B7010008B7010008B701000840
:1000C000B7010008B7010008B7010008B701000830
:1000D000B7010008B7010008B7010008B701000820
:1000E000B7010008B7010008B7010008B701000810
:1000F000B7010008B7010008B7010008B701000800
:10010000B7010008B7010008B7010008B7010008EF
:10011000B7010008B7010008B7010008B7010008DF
:10012000B7010008B7010008B7010008B7010008CF
:10013000B7010008B7010008B7010008B7010008BF
:10014000B7010008B7010008B7010008B7010008AF
:10015000B7010008B7010008B7010008B70100089F
:10016000B7010008B7010008B7010008B70100088F
:10017000B7010008B7010008B7010008B70100087F
:10018000B7010008B7010008DFF80CD000F034FC1C
:1001900000480047F9B60008E05E002006488047A6
:1001A00006480047FEE7FEE7FEE7FEE7FEE7FEE75C
:1001B000FEE7FEE7FEE7FEE7ED1200088901000812
:1001C000004870470034050810B50446FFF7F8FFF3
:1001D0000068005D00F0010010BD00000649074AFC
:1001E0000868504343F239021044086040087047E1
:1001F0000149086070470000EC0000206D4EC641C8
:1002000010B5431A934209D28318881803E010F8F6
:10021000011D03F8011D521EF9D210BD40EA010371
:100220009B0703D009E008C9121F08C0042AFAD2AC
:1002300003E011F8013B00F8013B521EF9D210BD5A
:10024000D2B201E000F8012B491EFBD27047002218
:10025000F6E710B513460A4604461946FFF7F0FFC5
:10026000204610BDCAB2401E10F8011F8A4202D0BB
:100270000029F9D100207047421C10F8011B002909
:10028000FBD1801A704710B5002200E0521C835C3D
:100290008C5CA34201D1002BF8D1D8B2E1B2401A54
:1002A00010BD30B504460020034600E05B1C9342BD
:1002B00003D2E05CCD5C401BF8D030BD034611F8A2
:1002C000012B00F8012B002AF9D11846704730B5F0
:1002D00005460020034600E05B1C934205D2EC5C1F
:1002E000C85C201A01D1002CF6D130BD0FB400B586
:1002F0008DB010A909900B9000914FF0FF300A903B
:1003000000200C9005480690054807906A4609A809
:100310000F9900F0A1F90DB05DF814FB7506000807
:10032000930600082DE9FF5F1D464FF0FF3BD5E91E
:10033000014691465F464FF00008A9697F1C01986D
:100340008847296A824688470028F6D11AF10100B9
:100350000CD024F4C064002E19DD600614D5BAF167
:100360002B0F09D0BAF12D0F0ED103E0584604B07F
:10037000BDE8F09F44F48064A9697F1C0198884718
:10038000761E8246002E02DDBAF1300F03D0B9F19D
:10039000000F26D032E0761EA96944F400747F1C59
:1003A000019888478246002E05DDBAF1780F06D005
:1003B000BAF1580F03D0B9F1000F10D01EE0B9F117
:1003C000000F02D0B9F1100F18D1761EA96924F4DC
:1003D00000747F1C019888478246102002E00820A4
:1003E00000E00A20814609E008FB0908761EA96999
:1003F00044F400747F1C019888478246002E05DD76
:100400004946504600F013F90028EDDAE9690198F1
:100410008847A00502D46FF00100A8E7E00727D1C4
:10042000600614D5600502D5C8F1000000E0404622
:10043000296801F104022A600968220501D50870C3
:1004400016E0220701D5088012E0086010E0286855
:1004500000F1040129600068210502D580F80080C0
:1004600006E0210702D5A0F8008001E0C0F8008076
:1004700038467CE72DE9FE4F81EA030404F000448E
:1004800021F0004100944FF0000B23F0004350EAAC
:10049000010402D052EA030404D10020014603B053
:1004A000BDE8F08FC3F30A54C1F30A552C44A4F2FB
:1004B000F3340194A0FB0254C1F3130141F4801101
:1004C000C3F3130343F4801301FB024400FB034E08
:1004D000840A970A44EA815447EA8357A4FB0768D1
:1004E00002958D0A05FB07854FEA932C04FB0C54FB
:1004F0002705029D4FEA065847EA1637B5EB08056F
:100500006EEB070C870E920E47EA811742EA8312C0
:10051000A7FB0201B6EB0B0164EB00042B0D43EAD1
:100520000C335E1844EB1C50DA465146E7FB0201DF
:10053000C5F313044FEA0B3343EA14534FEA043272
:10054000019C43EA0603A4F10C040294009CCDE94B
:1005500000B400F0BCF8A2E70EB5C10F80EAE0706D
:100560000844CA07002140F233438DE80E000A46D2
:100570000B4600F0ACF803B000BD00F0004230F0D4
:1005800000400AD0C10D01F56071C0F3160042EAC7
:100590000151C208400711437047002001467047CF
:1005A00030B50B46014600202022012409E021FA43
:1005B00002F59D4205D303FA02F5491B04FA02F540
:1005C0002844151EA2F10102F1DC30BD2DE9F05FD7
:1005D0000546002092469B468846064681464024B2
:1005E0001BE0284641464746224600F026FA53467D
:1005F0005A46C01A914110D311461846224600F0BF
:100600000DFA2D1A67EB01084F4622460120002102
:1006100000F004FA17EB00094E41201EA4F101047A
:10062000DFDC484631462A464346BDE8F09F3A287B
:1006300000D2303820F02002412A01D3A2F1370045
:10064000884201D34FF0FF30704700000268114428
:100650001378016018467047D1600449516104491C
:10066000116200211161114600F00ABA4D0600081E
:10067000C9010008426842B1016811F8013B23B189
:10068000521EC0E90012184670470121C160881E41
:10069000704742685AB1C368016843B983688B42A6
:1006A00005D0491E521CC0E90012002070474FF0CF
:1006B000FF30704710B5002B08DA401C41F10001F3
:1006C00092185B411A4301D120F0010010BD2DE9C1
:1006D000F04D92469B4611B1B1FA81F202E0B0FAB8
:1006E00080F22032904600F099F904460F4640EA25
:1006F0000A0041EA0B0153465A46084303D12046FB
:100700003946BDE8F08D114653EA010015D0C8F115
:100710004002504600F091F905460E4650465946B3
:10072000424600F07BF9084301D0012000E00020A0
:10073000054346EAE0762C4337430A984FEA445390
:10074000A0EB08004FEAD4240A304FF0000244EA3C
:1007500047544FEAD72502D500200146D1E70105CD
:1007600010196941DDE9084500196941BDE8F04DFE
:10077000A0E72DE9FE4F804681EA0300C00F0C463A
:10078000009021F0004123F00045B8EB0200A941A0
:1007900005D24046214690461C460B46024623F0B1
:1007A0000040104304D14046214603B0BDE8F08F1D
:1007B000270DC7F30A00C3F30A510290401A0190B3
:1007C000402866DAC3F3130040F4801B0098924679
:1007D00020B10023D2EB030A63EB0B0B01985946BF
:1007E000C0F14002504600F019F906460D46504649
:1007F0005946019A00F031F910EB080061410024DC
:1008000087EA115284EAE7731A433BD0009A3AB35D
:10081000019A012A4FEA075210DC001B61EB02012A
:100820004FF0004202EA0752CDE90042001C41F5B8
:10083000801132462B46FFF74AFFB6E7001B61EBFB
:100840000201001C41F5801300185B412018A2F53D
:10085000001747EB030140EAD570B6196D4111E06E
:100860006D084FEA360645EAC0754FEA0752001B8D
:1008700061EB0201001C41F5801149084FEA30008C
:100880000019514132462B4603B0BDE8F04FFFF747
:1008900011BF0098012240000023D0EB020263EB5D
:1008A000E073009821464FEAE074B8EB000061EB7A
:1008B0000401E9E783F000435BE781F0004158E77A
:1008C0002DE9F04D81EA030404F0004B21F00045CE
:1008D00014464FF0000A23F0004150EA050220D0F0
:1008E00054EA01021DD0C5F30A570246C5F31303AB
:1008F000C1F31300C1F30A5640F4801543F480138A
:10090000A7EB0608101BD64608F2FD3873EB05006E
:1009100002D308F1010801E092185B41B8F1000F21
:1009200003DA00200146BDE8F08D00204FF480116D
:10093000064684460EE0171B73EB050705D3121B12
:1009400063EB050306434CEA010C49084FEA30000B
:1009500092185B4150EA0107EDD152EA030012D030
:1009600082EA040083EA0501084303D100224FF024
:10097000004308E0101BAB4102D20122002302E039
:100980006FF0010253101AEB06004CEB085110EB0C
:100990000A0041EB0B01BDE8F04DFFF78BBEC1F340
:1009A0000A52C1F3130140F2FF3341F480119A421D
:1009B00002DA00200146704740F233439A42A2F225
:1009C000334202DC524200F038B800F027B8000091
:1009D00030B5002904DB4FF00044404264EB0101D4
:1009E000002B04DB4FF00044524264EB03039942B6
:1009F00008BF904230BD0000064C074D06E0E0689D
:100A000040F0010394E8070098471034AC42F6D355
:100A1000FFF7BEFBA8340508C8340508202A04DB0C
:100A2000203A00FA02F1002070479140C2F1200301
:100A300020FA03F3194390407047202A04DB203A40
:100A400021FA02F00021704721FA02F3D040C2F1EE
:100A500020029140084319467047202A06DBCB1735
:100A6000203A41FA02F043EAE07306E041FA02F369
:100A7000D040C2F12002914008431946704700005F
:100A80002DE9F34F8BB04FF0000801F10C000C463C
:100A90004FF0010B46460DF1080A019062690121F1
:100AA0000198904705002DD0252D2CD0216A88472C
:100AB000C0B16269012101989047216A88470028E6
:100AC000F7D1411E62690198904700E0761CA16948
:100AD0000B988847216A88470028F7D1E1690B986D
:100AE0008847DBE7A1690B9888470746A84201D1F0
:100AF000761CD3E7E1690B9888477F1C02D1B8F1D7
:100B0000000F6FD045E1002762693D4639460198E4
:100B100090472A2804D16269012101989047012554
:100B2000DFF884926269012101989047A0F13001B9
:100B30000A290AD24F45E5DC07EB870100EB4107A4
:100B4000303FDFD445F01005ECE7E90601D46FF043
:100B500000476C280AD04C2814D0682815D06A2881
:100B60000DD074281CD07A281AD01DE062690121AA
:100B7000019890476C2802D045F0040514E045F038
:100B800002050DE045F020050AE0626901210198A7
:100B90009047682802D045F0080505E045F4006557
:100BA0006269012101989047C4E9015765283DD049
:100BB00019DC582879D00CDC452837D004DC2528EE
:100BC00026D0412831D131E046282FD047282CD1DA
:100BD0002CE05B287FD0612828D063287BD0642854
:100BE00023D159E0CFE06F2847D008DC66281DD01C
:100BF00067281BD0692821D06E2816D127E07028DD
:100C000044D0732867D0752846D078280DD14CE0A1
:100C1000A1690B988847054625283FF469AFE1692B
:100C20000B9888476D1C3FF46AAFB2E023466A46D2
:100C30006FF001000B99AFF300809DE045F040009C
:100C40006060A80723464FF0000235D43DE02068DD
:100C500000F1040121600068290501D506701DE737
:100C6000290701D5068019E7A90704D54FEAE671DF
:100C7000C0E9006112E7066010E745F040006060DF
:100C8000A80723464FF0080216D41EE040F60E01D6
:100C900025EA0100606016E045F040006060A807AA
:100CA00023464FF00A0207D40FE045F04000606091
:100CB000A80708D5234610226FF001000B99AFF367
:100CC000008059E007E0234610226FF001000B99E5
:100CD000FFF728FB50E04FF000094F464B466328D2
:100CE00002D05B2806D040E0E80601D40120A060D5
:100CF00001273AE062690121019890475E2805D1F9
:100D00004FF001096269494601989047216939B954
:100D100000210B46524642F82130491C0829FADBD3
:100D2000B0B3216969B9C11700EBD1614B110AEB6E
:100D3000830221F01F01411A0120136888400343F8
:100D4000136062690121019890475D28E8D1B9F1EB
:100D5000000F09D00020514651F82020D24341F81D
:100D60002020401C0828F7DB02AB224600976FF0DA
:100D700001000B99AFF3008000280CDA401C08D169
:100D8000BBF1000F05D04FF0FF300DB0BDE8F08F84
:100D9000FFE74046F9E7E90701D108F101080644F9
:100DA0004FF0000B7AE60000CCCCCC0C0246094B8D
:100DB0009A4201D2084801E00648103811F0005F5D
:100DC00003D0064B0B40C36002E0044B0B40836032
:100DD0007047000010640240006002407D0F7D0FEC
:100DE00021B1026842F00102026003E0026822F0D1
:100DF00001020260704721B1026842F020020260E5
:100E000003E0026822F020020260704730B503461A
:100E10000A46002000240A4DAB4201D2094901E0F4
:100E20000749103912F0005F01D04C6800E00C68EF
:100E3000054D2C40144201D0012000E0002030BDBF
:100E400010640240006002407D0F7D0F10B500224B
:100E50000268134B1A40CC680B6823434C69234348
:100E60008C692343CC6923430C6A23434C6A234394
:100E70008C6A23434C6B23438C6B23431A430260DD
:100E8000426922F00702D1E90B3423431A4342613D
:100E90000B6943604B6883608B68C36010BD0000C2
:100EA0003F801CF0F0B50A4600210023002400BF5B
:100EB0003DE0012505FA01F3156805EA03049C42AB
:100EC00034D105684F000326BE40B543056015794F
:100ED0004E00B5400668354305601579012D02D0F6
:100EE0001579022D16D185684F000326BE40B54303
:100EF000856055794E00B540866835438560456804
:100F000001268E40B5434560456896798E40B6B25D
:100F100035434560C5684F000326BE40B543C560F4
:100F2000D5794E00B540C6683543C560491C1029C7
:100F3000BFD3F0BDF0B5002300244D07ED0E02FA3B
:100F400005F3CE1000F1200555F826504E07F70E98
:100F50000F26BE40B543CF1000F1200646F82750BB
:100F6000CE1000F1200555F8265045EA0304CE10B6
:100F700000F1200545F82640F0BD0AB1018300E0EC
:100F80004183704702A003F013FA00BFFEE70000A0
:100F900048617264204572726F72210A000000007D
:100FA00029B1064A12680243044B1A6004E0034A5E
:100FB00012688243014B1A607047000030380240CB
:100FC00029B1064A12680243044B1A6004E0034A3E
:100FD00012688243014B1A6070470000403802409B
:100FE00029B1064A12680243044B1A6004E0034A1E
:100FF00012688243014B1A60704700004438024077
:10100000F0B5002100220024022500260223324FE1
:101010003F6807F00C0121B1042905D0082937D118
:1010200005E02E4F076036E02D4F076033E02A4F72
:101030003F1F3F68C7F38056274F3F1F3F6807F0A9
:101040003F036EB1264FB7FBF3F7DFF88CC0ACF16E
:10105000040CDCF800C0CCF3881C07FB0CF40CE09B
:101060001E4FB7FBF3F7DFF870C0ACF1040CDCF8EF
:1010700000C0CCF3881C07FB0CF4174F3F1F3F68E0
:10108000C7F301477F1C7D00B4FBF5F7076002E062
:10109000124F076000BF00BF0F4F3F6807F0F0011D
:1010A0000909104F7A5C0768D74047600A4F3F68CC
:1010B00007F4E051890A0B4F7A5C4768D740876094
:1010C000054F3F6807F46041490B064F7A5C47685B
:1010D000D740C760F0BD0000083802400024F4008B
:1010E00000127A00180000200149086070470000D3
:1010F000382C01400149086070470000A08025425B
:1011000001490860704700008C85254200210B4B87
:1011100002681A601B1D42681A601A1D116821F0CE
:10112000F701D0E902231A4303691A4343691A43BA
:101130001143024A0832116070470000242C01401C
:1011400001480068C0B27047102C014001460020E1
:10115000034A12680A4201D0012000E000207047D3
:10116000342C014008B50146002000900248084494
:1011700000900098006808BD142C014000210A4A24
:10118000116847F6FF629143027D83681A43436802
:101190001A43C3681A4303681A4303691A43114385
:1011A000014A116070470000042C01400021094BE6
:1011B00002681A601A1D11686FF30A01D0E9012351
:1011C0001A43C3681A4303691A431143014A121DA3
:1011D00011607047082C0140014908607047000009
:1011E000002C01400149086070470000AC85254291
:1011F00000210175016041608160C160016170473B
:101200000CB50020019000903448006840F4803014
:101210003249086000BF3148006800F40030009097
:101220000198401C0190009818B90198B0F5A04FA2
:10123000F1D12A48006810F4003F02D0012000904C
:1012400001E0002000900098012845D1234840305B
:10125000006840F080502149403108602048006813
:1012600040F440401E4908601C48083000681B4993
:10127000083108600846006840F4004008600846ED
:10128000006840F4A05008601648091F0860081F55
:10129000006840F08070091F086000BF0F480068B8
:1012A00010F0007FFAD040F205700F4908600B483B
:1012B0000830006820F0030008490831086008463B
:1012C000006840F00200086000BF04480830006871
:1012D00000F00C000828F8D10CBD000000380240D6
:1012E0000070004008544007003C024010B515480B
:1012F000006840F47000134908601348006840F02B
:1013000001001149086000200F49083108600E48AB
:1013100000680E4908400C4908600D48091D086026
:10132000081F006820F48020091F0860002006497B
:101330000C310860FFF764FF4FF00060014980390D
:10134000086010BD88ED00E000380240FFFFF6FEA7
:101350001030002421B1028842F00102028004E032
:1013600002884FF6FE731A40028070470146486AB1
:10137000704730B504460D462946204600F005F872
:10138000208940F00700208130BD0A4600210189F4
:101390004FF68F73194011430181704782884FF6D1
:1013A0008F731A40828082880A43828070470000CF
:1013B00000220288184B98420ED0184B98420BD04E
:1013C000B0F1804F08D0164B984205D0154B98428B
:1013D00002D0154B984204D14FF68F731A404B88B8
:1013E0001A43124B984207D0114B984204D04FF643
:1013F000FF431A400B891A4302804B68C3620B8873
:101400000385054B984202D0044B984201D18B7A58
:1014100003860123838270470000014000040140DD
:101420000004004000080040000C00400010004094
:10143000001400404FF0FF31416000210180018124
:1014400041808172704721B1828942F400528281C9
:1014500004E082894DF6FF731A408281704702468C
:101460000020B1F5007F00D100BF13880B4201D0EE
:10147000012000E0002070472DE9FF4705460E4699
:101480000024A14600BFA046B08900B100BF2C8A4D
:1014900024F44054F08804432C82AC8941F20C605F
:1014A0008443B08831890843718908430443AC817F
:1014B000AC8A24F44074B0890443AC826846FFF7D8
:1014C0009FFD2048854202D01F48854202D1DDF8A9
:1014D0000C9001E0DDF80890A88910F4004F08D0C6
:1014E00009EBC90000EB091031684900B0FBF1F7C6
:1014F00007E009EBC90000EB091031688900B0FB77
:10150000F1F76420B7FBF0F004012009642101FB2E
:101510001078A88910F4004F08D0322000EBC800E2
:10152000B0FBF1F000F00700044308E0322000EBCC
:1015300008106421B0FBF1F000F00F0004432C818F
:10154000BDE8FF8700100140001401400146888873
:10155000C0F308007047C1F30802828070474FF45F
:101560001651016000218180C18001810C214181DF
:1015700000218181704700002DE9F04180460F462F
:1015800015461E463146284600F020FA08B1BDE84F
:10159000F08109200AF0FAF9044644B909A002F0E2
:1015A00007FF1DB1042200213046A847EFE726605F
:1015B0006560277223460B4A0B49404601F002FF43
:1015C00000BFE4E7576946695F4173736F63696100
:1015D00074653A206D616C6C6F63206661696C653F
:1015E00064210A00AD170008340100202DE9FF5FD7
:1015F00004468B461E460E9F3946304600F0E6F9FB
:1016000008B1BDE8FF9F6068FEF736FE1FFA80F95B
:1016100009F10B000AF0BAF9054645B91BA002F022
:10162000C7FE1EB1042200213846B047E9E72F600B
:101630006E6005F1080A8AF800B00AF10108029804
:1016400088F8000009F1010208F101006168FEF765
:10165000D7FD2078012805D12A461549A06802F057
:10166000CDFA10E02078022802D02078032805D196
:101670002A460F49A06802F0E5FB04E02A460C491F
:10168000132001F0DFFC00BFBBE70000576946698B
:101690005F4173736F636961746545783A206D616A
:1016A0006C6C6F63206661696C6564210A000000E0
:1016B000B51600082DE9FC5F044689461646A24689
:1016C000DAF800000190DAF804700AF1080B0BF167
:1016D0000105681C0090B9F1000F01D1002003E062
:1016E000B9F80400C0F30E008046B8F1120F02D022
:1016F000B8F1060F1CD1B8F1120F0CD10EB1072EA4
:1017000009D1204607F07CFB1FB1324649460198BB
:10171000B847BDE8FC9F287850B195F90000401CFF
:1017200003D02878401E40B228704FF028080026C9
:101730005EB116A002F03CFE204607F061FB1FB12F
:10174000324649460198B847E3E7B8F1280F12D06E
:10175000B8F15E0F03D0B8F1C40F14D105E02246F2
:1017600011491B2001F06EFC0DE022460E491320AA
:1017700001F068FC07E09BF8001023460A4A009835
:10178000FFF7FAFE00BF00BF00BFC2E75769466916
:101790005F4173736F636961746545782065727228
:1017A0006F72210A00000000B51600082DE9F74FFE
:1017B0008AB006468B460996099E30680890099EB5
:1017C0007768099E06F1080007900C9868B16AA036
:1017D00002F0EEFD304607F013FB1FB159460C9A9C
:1017E0000898B8470DB0BDE8F08F694800F001FDDA
:1017F0008046BBF1000F01D1002003E0BBF80400DC
:10180000C0F30E00062802D012287CD190E0614C73
:101810005F48416AE160008D20825D48408D6082B2
:101820000A20A0825A48808DE08201202076584804
:101830004088021D564904F11900FEF7E1FC5448A6
:101840004088001D04F1190100EB010A0320AAF8E9
:1018500000000120AAF802004D4890F82E008AF8F6
:1018600004000AF105090020C9F80000C9F80400C5
:10187000A9F808000420A9F800000620A9F8020031
:101880004348408E021D4249303109F10A00FEF7FB
:10189000B7FC3F48408E001D09F10A01451840F28F
:1018A0001F1028800220688007980078A880A81D53
:1018B0002146401A80B20690B8F1020F13D1A81D3C
:1018C00004903348B0F88800021D314986310498ED
:1018D000FEF796FC2E48B0F88800001D06990844D3
:1018E00080B2069017E0B8F1030F14D1A81D039041
:1018F0002748B0F84400021D254942310398FEF7FD
:101900007FFC234800E034E0B0F84400001D069955
:10191000084480B20690022047F230511E4BCDE9B8
:10192000006102901B491220069A02F05DF820E047
:10193000304607F065FACDF814B0CFB10598008AAB
:10194000A0F57F41FF3904D1012259460898B847D4
:101950000EE0B8F1020F02D0B8F1030F04D1072254
:1019600059460898B84703E0002259460898B847F6
:1019700000BF00BF00BF35E7576946695F41737319
:101980006F6369617465206572726F72210A00006D
:101990003401002078030020AD17000810B506A020
:1019A00002F006FD08480AF0F5FD0748006A10B984
:1019B000054805F08DF810BD41757468656E746951
:1019C0006361746564210A00F800002070B5044664
:1019D0000D4600F03FFD48B105A002F0E9FC1CB146
:1019E000022200212846A047012070BD0020FCE70C
:1019F0005761726E696E673A20546865207072652F
:101A000076696F757320636F6D6D616E64206973A5
:101A100020696E2070726F6772657373210A00000F
:101A2000FEB5244E0CF0FAF823490968471AB7F5B9
:101A3000FA6F01D900F03CFC204800F063F805463D
:101A4000012D09D1B1881EA002F0B2FC0322194970
:101A50001A4802F067FC17E0022D15D11748407AAA
:101A6000401EC0B215490969144A5268CDE90021E7
:101A700002901248002211460368104601F0B4FF9C
:101A8000B18816A002F094FC002410E004EB84015D
:101A90001B4A02EB810000F035F80546012D04D108
:101AA0000321601C40B201F0EBFA601C44B20B2C25
:101AB000ECDBFEBD7803002004000020880200203B
:101AC000436F6D6D616E64203078253034782074FA
:101AD000696D656F7574210A00000000436F6D6DBC
:101AE000616E64203078253034782074696D656FBC
:101AF00075742120526573656E642E2E2E0A0000C7
:101B00009C02002070B50446207A70B10CF086F873
:101B1000E168451A2069A84207D2607A18B100200E
:101B20002072022070BD0120FCE70020FAE70000CF
:101B30002DE9F84307460E460024002E43D03046D8
:101B4000FEF79AFB84B2052C01D00D2C05D122465C
:101B500031463846FEF754FB35E00A2C01D01A2CEA
:101B600030D1002527E0FEF72BFB0068715D10F8EF
:101B7000018088EA880010F0800F0BD0FEF720FB70
:101B80000168681C305C11F8008088EA880010F059
:101B9000800F03D14FF0FF30BDE8F88370196A461B
:101BA0000AA1FEF7A3FB284605EBD072521000995C
:101BB000B954A81CC5B2A542D5DB204604EBD071B0
:101BC0004C1000E0002460B2E6E7000025303278D7
:101BD000000000002DE9FE4380460C461646DFF863
:101BE000709031462046FFF7F1FE08B1BDE8FE8354
:101BF00009F10C0000F056FA074647B915A002F0AB
:101C0000D7FB1CB1012200213046A047EEE7082097
:101C100009F0BCFE054645B91AA002F0C9FB1CB18B
:101C2000042200213046A047E0E72E606C60A9F84E
:101C3000128002204FF47A711C4B1422CDE900511E
:101C400002900349242001F0CFFE00BFCEE7000040
:101C500078030020576946695F446561757468655B
:101C60006E7469636174653A2057694669206973C7
:101C7000206E6F7420636F6E6E6563746564210AF5
:101C800000000000576946695F44656175746865C6
:101C90006E7469636174653A206D616C6C6F63206A
:101CA0006661696C6564210A00000000B11C0008CF
:101CB0002DE9F0470446884615462646D6F800909A
:101CC0007768204607F09CF82DB94FF4A9710748B2
:101CD000FEF7BDFA02E006A002F06AFB1FB12A4639
:101CE00041464846B847BDE8F0870000340100206F
:101CF000576946695F446561757468656E746963A8
:101D0000617465206661696C6564210A00000000E9
:101D1000F8B5002417E0204600F0D8F9054685B153
:101D2000002000900948006801192B46002201207C
:101D300000F050FD064626B12246294604A002F0D6
:101D400037FB601CC4B2102CE5DBF8BD0C00002092
:101D500044697363617264656420256420627974E8
:101D60006573206F662064617461206F6E20706FF0
:101D700072742025640A0000F0B589B0264E274C05
:101D800037E02648844203D00021022002F0DAFA2C
:101D90004021012000F020FE07464121012000F0F3
:101DA0001BFE47EA002515F0010F04D01CA002F02D
:101DB000FFFA00BFFEE7A54200D9A5B2202C0ED243
:101DC0002A46314601A8FEF71BFA20202B4601AA1D
:101DD00000901B480168012001F002F807E02B4643
:101DE0003246174800940168012000F0F9FF641B97
:101DF0002E44002CC5D10021022002F0A3FA00BF1E
:101E000000F076F9A0F57E41DC39F9D10DA002F0A1
:101E1000CFFA09B0F0BD0000003D010830E6030034
:101E20004572726F723A20616E206F64642073692C
:101E30007A6520697320696E76616C6964210A0095
:101E40000C0000204669726D77617265206973200D
:101E50007375636365737366756C6C7920646F77F3
:101E60006E6C6F61646564210A00000010B5044661
:101E7000A08811282CD008DC03280DD0042812D00B
:101E8000082817D0092836D11BE0172827D01E288C
:101E900029D046282FD12AE018A002F089FA1D483F
:101EA0000AF06CFB27E01CA002F082FA19480AF045
:101EB00071FB20E027A002F07BFA16480AF05EFBD7
:101EC00019E029A002F074FA12480AF057FB12E058
:101ED00029A002F06DFA0F480AF050FB0BE036A083
:101EE00002F066FA07E03DA002F062FA03E04AA0C1
:101EF00002F05EFA00BF00BF10BD000042656163E2
:101F00006F6E204C6F73732F4C696E6B204C6F7328
:101F1000730A0000F8000020546865206E756D6239
:101F20006572206F662073746174696F6E732069C7
:101F30006E207468697320616420686F63206E6529
:101F400077746F726B20686173206368616E676578
:101F500064210A00446561757468656E7469636123
:101F6000746564210A0000004469736173736F63D0
:101F70006961746564210A00416C6C206F74686546
:101F8000722073746174696F6E7320686176652066
:101F90006265656E20617761792066726F6D20746D
:101FA00068697320616420686F63206E6574776F61
:101FB000726B210A00000000574D4D20737461744C
:101FC0007573206368616E6765206576656E742041
:101FD0006F63637572726564210A0000494253534E
:101FE00020636F616C657363696E672070726F63E5
:101FF0006573732069732066696E69736865642010
:10200000616E6420425353494420686173206368C1
:10201000616E676564210A005745502064656372EC
:10202000797074696F6E206572726F72210A000098
:1020300010B504462288A1880CA002F0B9F9A08846
:10204000032806D0082805D0092804D02B280BD156
:1020500007E000BF00BF4FF4A9710948FEF7F7F889
:1020600002E0FFF79BFC00BF00BF10BD5B4576653B
:102070006E742025645D2073697A653D25640A00CD
:10208000340100200146002207E011F0010F01D0C9
:10209000104670474910501C42B2102AF5DB4FF031
:1020A000FF30F6E710B5044624B10748416A2160C5
:1020B000008DA08006210448243009F065F908B994
:1020C000012010BD0020FCE73401002070B504465B
:1020D000600000F10801012000F07EFC0546600070
:1020E00000F10901012000F077FC45EA002070BDF5
:1020F00010B56021012000F06FFC04466121012031
:1021000000F06AFC44EA002010BD000070B50546EE
:102110000E4631462846FFF759FC00B170BD082035
:1021200009F034FC04463CB908A002F041F904224D
:1021300000213046A847F1E72660656023460C4A37
:102140000021084600F050FF00BFE7E757694669E5
:102150005F4765744D4143416464726573733A200F
:102160006D616C6C6F63206661696C6564210A0047
:10217000752100082DE9F04704460D46164627460E
:10218000D7F80090D7F80480AA46204606F038FE1B
:102190002EB932460AF10E014846C04706E004A0B7
:1021A00002F006F9324600214846C047BDE8F087F4
:1021B000576946695F4765744D4143416464726580
:1021C0007373206572726F72210A0000014901F178
:1021D000180070477804002010B50421012000F099
:1021E000FBFB04460521012000F0F6FB44EA002039
:1021F00010BD014691F82A0010F0100F0BD0B1F875
:10220000420008B103207047B1F8860008B10220EF
:10221000F9E70120F7E70020F5E710B506210120D6
:1022200000F0DAFB04460721012000F0D5FB44EA68
:10223000002010BD10B500F0C3FA01F037FE0222F5
:102240001146002000F0BAFE00BF0321002000F07C
:10225000C3FB10F0020FF8D003220421002000F08D
:10226000ADFE03220221012000F0A8FE782101200A
:1022700000F0B2FB04467921012000F0ADFB44EAF6
:1022800000247A21012000F0A7FB44EA004007491E
:1022900008602021012000F0FFFCFFF76DFD4FF4E6
:1022A0008071012000F0F8FC10BD00000C0000203F
:1022B0002DE9FE4F4F48019081460746DFF838A1CF
:1022C0000BF0ACFC4D4908600321012000F084FBB9
:1022D00005460DB9BDE8FE8F032020EA0502014640
:1022E000012000F06BFE15F0020F18D0012414E05D
:1022F000601E00EB8000424901EB8000007A50B183
:10230000FFF78BFF06460121A140314203D0002197
:10231000204600F0B5FE601C44B20B2CE8DD15F041
:10232000010F65D0FFF758FF06465BE00120A04093
:102330008643E0B2FFF7CAFE02904FF400600090BF
:102340003048006801192B4A0120029B00F042FA34
:102350008046B8F1000F00D144E00198408820B1D8
:10236000012811D003283BD133E0B9F80A00022834
:1023700004D12146484600F0D1FE04E0B9F80A1025
:1023800021A002F015F82BE0387A9AF8081088425C
:102390001ED10BF043FC2049C968A0EB010BB988A2
:1023A0005A461EA002F004F8788908B900250AE010
:1023B0007889022806D10825BAF804101DA001F07A
:1023C000F7FF00E001252A460A49134801F0AAFF59
:1023D00006E00848FFF72CFE0648FFF747FD00BF60
:1023E00000BF00BF3046FFF74DFE0446401C9DD1A4
:1023F00000BF6FE7780B0020780300200400002066
:102400009C0200200C0000205B526563765D207406
:102410007970653D25640A0088020020434D4452CE
:10242000455350203078253034782061742025645D
:102430006D730A00436F6D6D616E642030782530D6
:10244000347820697320756E737570706F7274655F
:1024500064210A000148007A7047000088020020C9
:1024600070B5054600240120FEF770FE01280AD150
:10247000FEF73AFE641C4948006800F03F02294616
:1024800047A001F095FF0420FEF760FE01280BD164
:102490000420FEF729FE641C4048006800F03F025B
:1024A000294645A001F084FF0220FEF74FFE0128D7
:1024B00007D10220FEF718FE641C294643A001F054
:1024C00077FF0820FEF742FE012807D10820FEF71B
:1024D0000BFE641C294643A001F06AFF4FF4007014
:1024E000FEF734FE012807D14002FEF7FDFD641C13
:1024F000294641A001F05CFF1020FEF727FE0128CD
:1025000007D11020FEF7F0FD641C294640A001F021
:102510004FFF2020FEF71AFE012807D12020FEF7EA
:10252000E3FD641C29463FA001F042FF4FF09051AB
:102530004148FEF76BFC01280AD14FF090513E480C
:10254000FEF734FC601CC4B229463CA001F030FF09
:102550004FF082513848FEF759FC01280AD14FF05C
:1025600082513548FEF722FC601CC4B229463AA0CD
:1025700001F01EFF4FF088512F48FEF747FC01285D
:102580000AD14FF088512C48FEF710FC601CC4B2F1
:10259000294637A001F00CFF204670BD0C2C0140ED
:1025A00025733A20434D44256420435243206661FD
:1025B000696C6564210A000025733A20434D442567
:1025C000642074696D656F7574210A0025733A2063
:1025D0006461746120435243206661696C656421C3
:1025E0000A00000025733A20646174612074696DEB
:1025F000656F7574210A000025733A207374617247
:102600007420626974206572726F72210A00000082
:1026100025733A206461746120756E646572727509
:102620006E210A0025733A2064617461206F76651B
:102630007272756E210A00005864024025733A20B8
:10264000444D41207472616E7366657220657272CA
:102650006F72210A0000000025733A20444D41208A
:102660004649464F206572726F72210A00000000D1
:1026700025733A20444D4120646972656374206D6E
:102680006F6465206572726F72210A001CB50121AA
:102690000D20FEF785FC01208DF8040000208DF848
:1026A00006004FF48040009000208DF807008DF860
:1026B000050069462A48FEF7F5FB00224FF48041E9
:1026C0002748FEF75AFC4FF4004000906946254821
:1026D000FEF7E8FB00224FF400412248FEF74DFCD4
:1026E000642002F0B7FB012291031D48FEF745FC70
:1026F0000C2208211C48FEF71DFC0C2209211A4857
:10270000FEF718FC0C220A211748FEF713FC0C22D6
:102710000B211548FEF70EFC0C2211461248FEF75D
:1027200009FC0C2202210E48FEF704FC02208DF861
:10273000040000208DF806004FF4F85000900020AF
:102740008DF8070003208DF8050069460648FEF75E
:10275000A9FB0420009069460148FEF7A3FB1CBDBD
:10276000000C0240000002400008024070B5044620
:102770000D460F4931F8140000F0A6FA0C4931F863
:1027800014102868B0FBF1F086B2094931F8141032
:102790002868B0FBF1F201FB120008B1701C86B290
:1027A000034830F8140070432860304670BD0000C4
:1027B000120000200148007870470000100000203F
:1027C00010B501210803FEF7EBFBFFF75FFF00F0F8
:1027D00017F910BD2DE9FF4192B00746884616460D
:1027E0001C9C16F0030F02D05DA001F0E1FD1598CE
:1027F00030B969A001F0DCFD002016B0BDE8F08121
:1028000015A93846FFF7B2FF05468CB115988442EA
:102810000ED222466B48159901F0CAFD00200090A7
:10282000024641463846159BFFF7D4FF0020E4E7F7
:10283000002007904FF000600390002006900420D5
:102840000E9003200F904FF40000109040120B9058
:1028500000200C905C4804904FF40010119040123E
:102860000A90002008904FF440300D9024B1059656
:102870004FF48060099003E002A8059000200990C1
:1028800003A95248FEF7E2FA01215048FEF7A8FAE0
:1028900055B100204E4908614FF000632A46414679
:1028A000384600F0D9F909E0042049490861159833
:1028B00082B200234146384600F0CEF944491598CB
:1028C0004860012048610220C8600846FEF71EFCEF
:1028D00000BF4FF40050FEF739FC0028F9D00AE0A1
:1028E0004FF40050FEF732FC20B12020FEF72EFC02
:1028F000012800D106E04FF0C0513448FEF786FAB7
:102900000028EDD000BF4FF0C0513048FEF74EFA1E
:1029100000212E48FEF764FA00BF4FF40060FEF776
:1029200015FC012805D04FF40050FEF70FFC0128DC
:1029300004D12020FEF70AFC0028EED00020244914
:1029400048610846FEF7E2FB4FF4A860FEF7CCFBB7
:102950002048FFF785FD08B901204EE700204CE72D
:10296000576946695F4C6F774C6576656C5F526559
:102970006164446174613A2064617461206D7573AF
:102980007420626520342D6279746520616C6967FA
:102990006E6564210A000000576946695F4C6F77D5
:1029A0004C6576656C5F52656164446174613A2080
:1029B00073697A652063616E6E6F74206265203082
:1029C000210A0000603C0108802C0140586402404C
:1029D0008C130020EC3B010870B504460D46002323
:1029E0001A462946204600F019F9044800F0D8F9A3
:1029F0000020FEF7B7FBC0B270BD0000033C010829
:102A000070B586B00121C802FEF7EAFA01218805F7
:102A1000FEF7C6FA0320FEF7DFFB6846FEF7E8FB89
:102A200076208DF814006846FEF7A8FB0120FEF71B
:102A300061FB20214B48FEF7DEF90120FEF760FB29
:102A40000120FEF7CFFB0A2002F004FA00204649DD
:102A50000860052048604FF480600861402088606D
:102A60000020C8600846FEF7A1FB404800F098F936
:102A70000020FEF777FB0546FEF762FB06462A4676
:102A800031463BA001F094FC4FF4401036490860F9
:102A90000846FEF78BFB354800F082F90020FEF770
:102AA00061FB0446FEF74CFB05462246294630A052
:102AB00001F07EFC14F0004F0DD0C4F302703249D7
:102AC00008700846017831A001F072FCC4F3C061BF
:102AD00036A001F06DFC0020234908600320486007
:102AE0000846FEF763FB214800F05AF90020FEF784
:102AF00039FB000C324908800846018831A001F0FA
:102B000057FC2F48008800041749086007204860D8
:102B10000846FEF74BFB154800F042F90020FEF78F
:102B200021FB054629462FA001F042FC00208DF82C
:102B3000140033483349086033A001F039FC4FF4E6
:102B4000006003906846FEF719FB07210020FFF79D
:102B500043FF40F002052A460721002000F02EFA2C
:102B600006B070BD5864024078130020193C01087B
:102B700052455350434D4425642C20524553503107
:102B80005F253038780A0000100000204E756D6215
:102B90006572206F6620492F4F2046756E637469F9
:102BA0006F6E733A2025640A000000004D656D6F5A
:102BB00072792050726573656E743A2025640A003C
:102BC0001600002052656C6174697665204361725D
:102BD0006420416464726573733A20307825303420
:102BE000780A0000436172642073656C65637465E4
:102BF00064212052455350315F253038780A000057
:102C0000009F24008C1300205344494F20436C6FD5
:102C1000636B3A2032344D487A0A00002DE9F041C6
:102C200004460D4616461F46200740EA452030431D
:102C3000384308490860342048604FF480600861D8
:102C4000402088600020C8600846FEF7AFFABDE863
:102C5000F0810000781300202DE9F04104460D4674
:102C600016461F46200740EA4520C6F308010843E0
:102C7000384308490860352048604FF48060086197
:102C8000402088600020C8600846FEF78FFABDE843
:102C9000F08100007813002070B504460D46094904
:102CA00021F81450EAB2102040EA0421002000F07C
:102CB00085F9112040EA0421C5F30722002000F025
:102CC0007DF970BD12000020802845D010DC082856
:102CD00032D006DC012823D0022825D004285BD17D
:102CE00026E010282CD020282ED0402854D12FE0C8
:102CF000B0F5006F40D009DCB0F5807F30D0B0F582
:102D0000007F31D0B0F5806F46D131E0B0F5805F03
:102D100036D0B0F5005F37D0B0F5804F3CD137E00A
:102D200000211E4A916037E010211C4A916033E077
:102D300020211A4A91602FE03021184A91602BE03F
:102D40004021164A916027E05021144A916023E007
:102D50006021124A91601FE07021104A91601BE0CF
:102D600080210E4A916017E090210C4A916013E097
:102D7000A0210A4A91600FE0B021084A91600BE05F
:102D8000C021064A916007E0D021044A916003E027
:102D9000E021024A916000BF00BF70478C13002001
:102DA00070B50446012500BF1DB90C48FEF7FEF9B9
:102DB00000E0002500BF4FF40060FEF7C7F90128CE
:102DC000F9D02046FFF74CFB4020FEF7BFF9002862
:102DD000EAD04020FEF788F970BD0000781300208B
:102DE0002DE9FF4190B00746884615461A9E15F01A
:102DF000030F02D053A001F0DBFA139830B95FA0A3
:102E000001F0D6FA002014B0BDE8F08113A93846CD
:102E1000FFF7ACFC04461398864204D2324662485F
:102E2000139901F0C5FA54B10020604908614FF0D0
:102E30000843224641463846FFF70EFF0AE00420C9
:102E40005A490861139882B24FF000434146384610
:102E5000FFF702FF5648FFF7A3FF002005904FF051
:102E6000006001904020049004200C9003200D90FD
:102E700003954FF400000E90401209900011079046
:102E800000200A904B4802904FF400100F9040121F
:102E90000890002006904FF440300B9001A946485E
:102EA000FDF7D4FF01214448FDF79AFF3F491398ED
:102EB0004860012048610020C8600846FEF726F9F6
:102EC00000BF4FF48050FEF741F90028F9D00AE026
:102ED0004FF48050FEF73AF920B11020FEF736F992
:102EE000012800D106E04FF0C0513348FDF78EFFB6
:102EF0000028EDD000BF4FF0C2512F48FDF756FF1C
:102F000000212D48FDF76CFF00BF4FF48050FEF705
:102F10001DF9012804D11020FEF718F90028F4D07B
:102F20000020224948610846FEF7F0F84FF4A060FF
:102F3000FEF7DAF81E48FFF793FA08B9012062E7B6
:102F4000002060E7576946695F4C6F774C6576658E
:102F50006C5F5772697465446174613A206461748E
:102F600061206D75737420626520342D62797465FB
:102F700020616C69676E6564210A000057694669C3
:102F80005F4C6F774C6576656C5F5772697465440A
:102F90006174613A2073697A652063616E6E6F7443
:102FA0002062652030210A00B03C01088C1300200B
:102FB000303C0108802C01405864024070B5044642
:102FC0000D4616464FF00843324629462046FFF785
:102FD00025FE0448FFF7E4FE0020FEF7C3F8C0B268
:102FE00070BD0000483C01082DE9FE4380460C46B8
:102FF00015461E46124F31462846FEF7E7FC08B13B
:10300000BDE8FE83BC81012C07D1D8F80000C7F8C9
:103010000E00B8F80400788203E00020C7F80E0024
:10302000788202204FF47A712B461422CDE9006198
:10303000029003494D2000F0D7FC00BFE0E70000FC
:1030400078030020FEB506460C4615460B4F294670
:103050002046FEF7BBFC00B1FEBDBE810020F8811A
:1030600002204FF47A7123461022CDE900510290DC
:103070000249282000F0B8FC00BFEDE778030020EB
:103080007CB504460D467DB90AF0C8FD611E01EB12
:103090008101124A02EB8101C968461A3246214673
:1030A0000FA001F085F905E0032D03D1214614A0FE
:1030B00001F07EF90520ADF800000020ADF8020017
:1030C0008DF80440611E01EB8101044A02EB81008E
:1030D0002A46694601F026F97CBD00009C020020CA
:1030E0005061636B6574206F6E20706F7274202561
:1030F000642041434B2061742025646D730A0000F5
:103100005061636B6574206F6E20706F7274202540
:10311000642074696D656F7574210A0070B5064688
:103120000C460348C5696E602C8105F033FE70BD06
:10313000F80000200EB502204FF47A710022054BF2
:10314000CDE9002102900C2203498D2000F04CFCB7
:103150000EBD00005D310008780300202DE9F04726
:103160002DED028B84B082460E4617464FF00108C3
:10317000B14609F10C05002F57D130A001F018F924
:10318000002449E0324800EB840090ED000AB5EEDF
:10319000C00AF1EE10FA3DD004EB840105EB81008A
:1031A000142108F0F1F8002834D18046284800EBBB
:1031B000840090ED000A10EE101A0846FDF7DDF9C4
:1031C00041EC100BB0EE408AF0EE608A04EB840014
:1031D00005EB8000806804EB840105EB8101496800
:1031E00004EB840205EB82021268CDE90021029013
:1031F00053EC182B17A001F0DBF804EB840005EB6F
:103200008000026904EB840005EB8000C16820A007
:1032100001F0CEF8601CC4B20D2CB3D3B8F1000F8E
:1032200006D025A001F0C4F802E025A001F0C0F806
:1032300004B0BDEC028BBDE8F08700005B54782041
:103240007061636B6574207374617475735D0A00DB
:10325000B83B0108252E31664D6270733A20506BE1
:1032600074496E6974436E743D25642C20506B74F0
:1032700053756363657373436E743D25642C2054EA
:1032800078417474656D7074733D25640A000000A4
:10329000202052657472794661696C7572653D25AE
:1032A000642C204578706972794661696C75726525
:1032B0003D25640A00000000284E6F6E65290A0053
:1032C000576946695F5072696E74547852617465CB
:1032D00073206661696C6564210A00002DE9FE4374
:1032E00007468846DFF8B89009F11305414638468D
:1032F000FEF76CFB08B1BDE8FE83082008F046FB32
:10330000064646B927A001F053F81FB10422002158
:103310004046B847EFE7C6F800807760032089F899
:103320000C000020C9F80D00A9F8110040F20110AE
:1033300028801C206880002420E00021C4EBC40207
:10334000281D8154601CC1B2C4EBC402281D104466
:1033500041700021C4EBC402281D10448170C4EBED
:10336000C402281D1044A0F803106421C4EBC40259
:10337000281D1044A0F80510601CC4B2042CDCDB2E
:10338000022047F23051CDE9006102906888173081
:1033900082B20B4B0249062000F026FB00BFAAE7D1
:1033A00078030020576946695F5363616E3A206D68
:1033B000616C6C6F63206661696C6564210A000052
:1033C000693600082DE9FE4F83460D469046994622
:1033D000DFF8F8A049464046FEF7F8FA08B1BDE824
:1033E000FE8F0C2008F0D2FA074657B938A000F03B
:1033F000DFFFB8F1000F03D0042200214846C04788
:10340000EDE7C7F80090C7F80480BD604FF4A971DC
:103410002846FCF71CFF03208AF80C000020CAF89D
:103420000D00AAF8110028805846FCF725FF688097
:103430006A885946281DFCF7E3FE6888021D294664
:103440000AF11300FCF7DCFE6888001D0AF1130185
:10345000441840F20110208062206080002620E0A5
:103460000021C6EBC602201D8154701CC1B2C6EB00
:10347000C602201D104441700021C6EBC602201D6B
:1034800010448170C6EBC602201D1044A0F8031042
:103490006421C6EBC602201D1044A0F80510701C64
:1034A000C6B20E2EDCDB022047F23051CDE90071AE
:1034B00002900648211A6088001D084482B20C4B15
:1034C0000249062000F090FA00BF88E77803002048
:1034D000576946695F5363616E535349443A206D9F
:1034E000616C6C6F63206661696C6564210A000021
:1034F000F53400082DE9F74F84B007468A46BB46ED
:10350000DBF800000390DBF80460DBF80840CDF83E
:1035100004A0DDF804A00AF10F08384605F070FC9D
:10352000069850B145A000F043FF1EB15146069ADF
:103530000398B04707B0BDE8F08F0198807B40B991
:1035400044A000F035FF1EB1062251460398B04753
:10355000F0E7D8F802006062B8F806002085B8F8F5
:1035600013006085B8F81100A08508F11505B8F8BA
:103570000000133880B2029055E02878012806D068
:1035800003280BD030280DD0DD2842D111E00E22C7
:10359000294604F1300000F0A7FE3AE0A87884F84C
:1035A0002E0036E04022294604F1420000F09CFE45
:1035B0002FE005F1020999F8000048BB99F80100D5
:1035C000502825D199F80200F22821D199F803005A
:1035D000012804D0022809D0042818D110E0402284
:1035E000294604F1860000F07FFE10E06878182874
:1035F00005D14022294604F1CA0000F075FE06E01C
:103600004022294604F5877000F06EFE00BF00BF1F
:1036100000BF00BF6878801C0299081A80B202902F
:103620006878801C054402980028A6DC1EB151462B
:10363000069A0398B04700BF7CE7000057694669C7
:103640005F5363616E53534944206572726F7221F8
:103650000A00000053534944206E6F7420666F7552
:103660006E64210A000000002DE9F74F2DED048B58
:1036700096B08146CDF85490DDF85490D9F800000A
:103680001490DDF85490D9F804B09C481390139826
:10369000133012901B9806901C9888B198A000F0E7
:1036A00087FE484605F0ACFBBBF1000F03D0DDE917
:1036B0001B121498D84716B0BDEC048BBDE8FE8FE2
:1036C00012984079001DC7B20E2F28DA0D2F02D1B3
:1036D0004FF0020801E04FF00408C8EBC80112984F
:1036E0004180002609E0F019C1B2C6EBC60212986B
:1036F000001D10444170701CC6B24645F3DB022029
:1037000047F23051CDE9009102901298408817306D
:1037100082B2804B7949062000F066F901E04FF053
:1037200000080698807B002870DD069800F10F04E1
:103730000026CFE0012005900020049004F115053B
:103740002088133880B207903FE02878032815D0EE
:1037500003DC38B101282ED10EE0302811D0DD284D
:1037600029D111E06A78A91C09A8FCF749FD0020BD
:10377000697809AA50541EE004951CE0A8780890C6
:1037800019E00320059016E00598032812D005F1F2
:10379000020A9AF8000068B99AF80100502809D185
:1037A0009AF80200F22805D19AF80300012801D105
:1037B0000220059000BF00BF6878801C0799081A96
:1037C00080B207906878801C054407980028BCDC0C
:1037D000E07C10F0100F01D10020059009A94EA047
:1037E00000F0E6FDE079A1796279CDE9002102904F
:1037F0002379E278A1784BA000F0DAFD217A52A07B
:10380000089A00F0D5FDB4F8131000E067E054A06A
:1038100000F0CEFD059830B1012808D002280AD06A
:10382000032810D10BE057A000F0C2FD0BE058A018
:1038300000F0BEFD07E057A000F0BAFD03E056A07F
:1038400000F0B6FD00BF00BF55A000F0B1FDE07C68
:1038500010F0020F03D055A000F0AAFD02E055A021
:1038600000F0A6FD57A000F0A3FD049868B356A091
:1038700000F09EFD002721E00499891CC95D01F03C
:103880007F00FCF769FE41EC100BB0EE409AF0EEC1
:10389000609A9FED500B53EC102B51EC190BFCF779
:1038A000E9FD41EC100BB0EE408AF0EE608A53EC7B
:1038B000182B4AA000F07CFD781CC7B20498407811
:1038C000B842D9DC12A000F073FD2188A01C0C18AE
:1038D000701CC6B20698807BB0423FF72BAFB8F1A0
:1038E000000F09D1484605F08BFABBF1000F03D059
:1038F000DDE91B121498D84700BFDCE678030020EE
:10390000576946695F5363616E206572726F7221F9
:103910000A000000693600085353494420272573E4
:10392000272C20004D414320253032583A25303293
:10393000583A253032583A253032583A25303258E4
:103940003A253032582C2000525353492025642CFC
:10395000204368616E6E656C2025640A00000000DB
:1039600020204361706162696C6974793A20307813
:1039700025303478202853656375726974793A204C
:1039800000000000556E7365637572656400000089
:103990005745500057504100575041320000000039
:1039A0002C204D6F64653A200000000041642D48D2
:1039B0006F630000496E667261737472756374752B
:1039C00072650000290A0000202052617465733A74
:1039D00000000000000000000000E03F20252E3124
:1039E000664D6270730000002DE9F84F80460E4668
:1039F00015461F46DDE90BABDDF82890234C494600
:103A00003846FDF7E3FF08B1BDE8F88F5EB11F4807
:103A1000864208D00DB1284600E030880246314683
:103A20001A48FCF7EDFB95B1258001206080A4F8D1
:103A30000480281FE080164800782072144800781F
:103A4000401C1349087000206072608100E02588E6
:103A50004FF480702B460D4A00900E4801680120FB
:103A6000FFF7BEF90C48C0F8049001200A4908721B
:103A70000846076080F809B00AF0D0F80649C86027
:103A80000846C0F810A000BFBEE700007803002081
:103A9000080000200C000020880200202DE9F84FCB
:103AA00007460D4691469A46DDF828B04F4C0DB9B1
:103AB00004F1180700BF4E4800780B2801D10126F9
:103AC00003E04B480078401C46B200BFFEF7A5FB60
:103AD00080460120B04010EA080FF7D0701E00EBBE
:103AE0008000444901EB8000007A18B10021304683
:103AF000FFF7C6FA701E00EB80003E4901EB800024
:103B0000007A0028D7D13A48067004F1180087429D
:103B100003D02A463946FCF773FB9DB105F1180026
:103B200020800020608020716071E5801420208159
:103B300000206081E06020746074A074A4F8130019
:103B40006075E0824FF4E060009023882A480068A6
:103B5000274A92F900208118244A0120FFF740F9F2
:103B6000234890F90000401E00EB8000214901EB42
:103B70008000C0F804A001211D4890F90000401EFB
:103B800000EB80001B4A02EB80000172184890F99C
:103B90000000401E00EB8000114641F820900021FB
:103BA000134890F90000401E00EB800002EB8000FB
:103BB00041720AF033F80E4991F90010491E01EBE9
:103BC00081010C4A02EB8101C860094890F90000AC
:103BD000401E00EB8000114601EB8000C0F810B0E1
:103BE000034890F90000BDE8F88F00007804002039
:103BF000090000209C0200200C0000202DE9FF5F3E
:103C000006460F469146DFF8E0B00BF10E0404F1D2
:103C10000E00039049463846FDF7D8FE08B1BDE8CE
:103C2000FF9F0120ABF80C004FF4CE7020800A20DB
:103C30006080002060602081307CA0720020E072F3
:103C40000C20A081307C56F820100398801CFDF7D2
:103C50006FFF0546681C01D0002D0ED1681C03D1F2
:103C600022A000F0A5FB02E02FA000F0A1FB1FB1F5
:103C7000052200214846B847D1E7039805806188AE
:103C8000A81C084460806088001D00EB0408307C9C
:103C9000314991F90010884214D02F4890F9000062
:103CA00088F80000307C40B22B49087098F9000079
:103CB000401C07D008F1010ACAF80070274FCAF863
:103CC0000490C14602204FF47A71CDE90091029030
:103CD0000548A8EB000082B23B4603495E20FFF78F
:103CE00083FE00BF9BE70000780300205769466908
:103CF0005F53657457455045783A2054686520688D
:103D00006578206B657920636F6E7461696E7320CE
:103D1000696E76616C696420636861726163746561
:103D20007273210A00000000576946695F53657489
:103D300057455045783A20546865206C656E677425
:103D400068206F66206B657920697320696E7661E3
:103D50006C6964210A0000000A000020613D00082F
:103D60002DE9FF5F06468B469046DFF8A09009F1EB
:103D70000E04354605F1010ADAF80070DAF804009D
:103D80000390B8F1000F09D021A000F011FB1FB182
:103D9000424659460398B847BDE8FF9F95F9000091
:103DA0000A280CDB95F90000A0F10A011EA000F022
:103DB000FFFA1FB1424659460398B847ECE7042082
:103DC000A9F80C004FF4CE7020800A2060800020FB
:103DD000606020812878A0720020E072A08128789D
:103DE0000A3040B2287002204FF47A71CDE90061A8
:103DF00002906088001D20440449401A82B2104B92
:103E00005E20FFF7F1FD00BFC6E700007803002049
:103E1000576946695F536574574550457820657208
:103E2000726F72210A00000052656D6F7665642022
:103E30006F6C6420574550206B65792025640A001B
:103E4000613D00082DE9FE4380460E461746164D9B
:103E500039463046FDF7BAFD08B1BDE8FE830120C2
:103E6000A8810020E88105F110044FF49E702080A5
:103E70004046FCF701FA60804146201DFCF71EFA1F
:103E8000022047F23051CDE9007102906088001D98
:103E900020440549401A82B233462946C420FFF720
:103EA000A3FD00BFD9E70000780300202DE9F04F03
:103EB000C1B0FEF77FFC82464FF000089DE009206C
:103EC00040EA082421460020FEF786FD8346611C57
:103ED0000020FEF781FD4BEA002BA11C0020FEF71D
:103EE0007BFD4BEA00442246414647A000F060FAC1
:103EF00076E007B974E02146641C0020FEF76CFDF3
:103F00000646002507E061190020FEF765FD01A9BE
:103F10004855681CC5B2B542F5DB152F06D0202FD9
:103F200023D0212F2CD0222F49D134E03DA000F006
:103F30003FFA022511E001A94819FCF79DF900F0AC
:103F4000FF09B9F1000F04D001A841193BA000F00E
:103F50002FFA09F101002844C5B201A8405DFF28ED
:103F6000E9D137A000F024FA34E0BDF8041035A000
:103F700000F01EFABDF8061039A000F019FA29E089
:103F80009DF804103FA000F013FA9DF8051044A01E
:103F900000F00EFA1EE09DF8040050B9BDF80510BF
:103FA00049A000F005FA9DF807104DA000F000FAB6
:103FB00004E0BDF8101044A000F0FAF90AE0A21ED7
:103FC000334639464FA000F0F3F9314601A803F01B
:103FD0006BFE00BF00BFFF2E00D109E0344400BFDC
:103FE0002146641C0020FEF7F7FC0746FF2880D11D
:103FF00000BF08F1010000F0FF08D0457FF75FAF78
:1040000041B0BDE8F08F00005B4349535D20667509
:104010006E633D25642C207074723D3078253038F5
:10402000780A000050726F6475637420496E666F81
:10403000726D6174696F6E3A000000002025730094
:104040000A0000004D616E75666163747572657279
:1040500020436F64653A203078253034780A0000B8
:104060004D616E75666163747572657220496E6626
:104070006F726D6174696F6E3A20307825303478D4
:104080000A000000436172642046756E6374696FB4
:104090006E20436F64653A203078253032780A000C
:1040A00053797374656D20496E697469616C697ABE
:1040B0006174696F6E20426974204D61736B3A20A0
:1040C0003078253032780A004D6178696D756D2041
:1040D000426C6F636B2053697A653A2025640A004D
:1040E0004D6178696D756D205472616E736665728D
:1040F000205261746520436F64653A203078253022
:1041000032780A005B434953205475706C65203047
:1041100078253032785D20616464723D30782530D6
:1041200038782073697A653D25640A003EB5134CE2
:10413000FEF790F900B13EBD0020A0814FF48070E1
:10414000E081062104F10E00218200216182032119
:10415000A1820021E18202204FF47A710022CDE990
:104160000021029004F118000449401A82B2044B65
:104170005E20FFF739FC00BFDDE700007803002078
:10418000854100082DE9F05F83460F4691463D4684
:1041900005F10E04B9F1000F04D028A000F008F9D1
:1041A000BDE8F09F3DE0A08818B92CA000F000F910
:1041B0000EE0A07910F0020F03D02AA000F0F8F86A
:1041C00006E0A07910F0010F02D028A000F0F0F86E
:1041D0002389E288A18827A000F0EAF8A078801F50
:1041E00000F0FF0AA08858B904F10A067278317805
:1041F00027A000F0DDF82189B01C03F055FD07E091
:104200002AA000F0D5F8514604F10A0003F04CFD55
:104210006088001D00EB0408B8F80200001D00EBE8
:104220000804E8882844A042BDD805F10E00844265
:1042300002D11FA000F0BCF800BFB1E75769466982
:104240005F53686F774B65794D6174657269616C16
:1042500073206661696C6564210A00005B574550F4
:104260005D2000005B50544B5D2000005B47544BC9
:104270005D200000747970653D25642C20696E66B0
:104280006F3D307825782C206C656E3D25640000EC
:104290002C20696E6465783D25642C2069735F6409
:1042A000656661756C743D25640A00000A000000B3
:1042B0004E6F206B6579206D6174657269616C73F6
:1042C000210A00003EB504460D4602204FF47A71E3
:1042D00023460C22CDE90051029002494020FFF70D
:1042E00083FB3EBD7803002070B504460D4616469C
:1042F000287820806878B04201DD668001E0687827
:1043000060803146201DFBF7A2FF6288A91C201D9A
:10431000FBF776FF60886978884201D1012070BD83
:104320000020FCE770B504460D461646207A40B1E1
:1043300000202072206820B132462946D4E900309E
:10434000984770BD2DE9F04104460D4609F066FC22
:1043500007460CE009F062FCC61B45B1AE4206D927
:1043600021460BA000F024F80020BDE8F0810321D5
:104370000120FEF731FB2040A042EBD1032020EAD0
:10438000040201460120FEF719FE0120EDE70000BE
:10439000576946695F5761697428307825303278EB
:1043A000293A2074696D656F7574210A0000000058
:1043B0000FB4054B10B503A9044A029800F0C6F8E3
:1043C00010BC5DF814FB0000B98D0008E800002067
:1043D00002E008C8121F08C1002AFAD170477047CE
:1043E000002001E001C1121F002AFBD1704700002C
:1043F0002DE9FF5FDDE90220010DDDF838B0024351
:1044000010D10F9801244CA2012808D00021009857
:104410000F9BC0E90021C0E90243BDE8FF9F6FEA9E
:104420000B01F4E7A1F2FF3144F6105041430D14A3
:104430000F9801280ED0A5EB0B00401C4FF0000494
:104440003E4EDFF8FC90B0F1000AA04605DACAF152
:10445000000717E0CBF10000F0E7074612E0F8078D
:1044600007D02246334640464946FCF703F88046CB
:1044700089462246334610461946FBF7FBFF0446A1
:104480000E467F10002FEAD1DDE90201BAF1000FDC
:1044900042464B4602DAFBF7EDFF01E0FCF710FA6B
:1044A00004460E460022274BFCF792FA03D84FF041
:1044B000FF30014607E00022234B20463146FCF73F
:1044C00058F9FCF76CFA102409E0002C0ADB0A22E8
:1044D0000023FCF77BF8019B30321A55641E50EA2A
:1044E0000102F2D1641C019AC4F1110314440F9A21
:1044F000012A09D00122084301D15B450FDD4FF0AD
:10450000000205F101050DE0084303D1A3EB0B0503
:104510006D1E09E000204FF0110B0F9088E701DAC3
:1045200000226D1E002A83D000980F99C0E9023145
:10453000C0E9004571E700003000000000002440A1
:104540000000F03F0000F0430000E03F2DE9FF4F86
:1045500095B09B4689460646002512E2252878D16B
:104560000024761CF94A2746012105943378203B24
:1045700001FA03F0104202D00443761CF6E73078CB
:104580002A2811D06FF02F033078A0F13002092AC9
:1045900016D8059A44F0020402EB820203EB4202B1
:1045A0001044761C0590EFE759F8042B0592002A79
:1045B00003DA504244F40054059044F00204761C9F
:1045C00030782E2816D116F8010F44F004042A285A
:1045D0000DD06FF02F023078A0F13003092B09D8ED
:1045E00007EB870302EB4303C718761CF3E759F880
:1045F000047B761C30786C280FD006DC4C2817D052
:1046000068280DD06A2814D104E0742810D07A28C4
:104610000FD10DE044F400140AE044F4801401E0EA
:1046200044F440147278824202D1761C04F580145E
:10463000761C307866280BD013DC582877D009DC3C
:10464000002875D04528F6D04628F4D047281AD13E
:104650009FE118E0632835D0642879D0652812D10D
:1046600097E1702873D008DC6728F1D069286FD0F3
:104670006E280DD06F2806D1B5E073282CD0752890
:1046800075D0782874D05A46179990476D1C76E1FA
:10469000C4F30250022809D003280DD0D9F8001025
:1046A00004280DD00D6009F1040968E1D9F8001063
:1046B000EA17C1E90052F6E7D9F800100D80F2E7D9
:1046C0000D70F0E719F8041B8DF8001000208DF82C
:1046D0000100EA46012003E059F804AB4FF0FF3037
:1046E00061074FF0000102D40DE008F10101884696
:1046F000B9420FDA8045F8DB1AF808100029F4D126
:1047000008E008F1010188468142FADB1AF8081036
:104710000029F6D105985B46A0EB080721463846EC
:10472000179A00F09EFA284400EB080507E04DE0D8
:104730002BE10DE01AF8010B5A4617999047B8F192
:104740000108F7D25B4621463846179A14E142E049
:104750000A220092C4F302524FF0000A022A08D043
:1047600059F804CB032A4FEAEC710AD00DE029E096
:104770002AE009F1070121F00702F2E802C191469F
:1047800009E00FFA8CFC4FEAEC71042A03D14FFACE
:104790008CFC4FEAEC71002907DA0A460021DCF1B3
:1047A000000C61EB02012D2202E0220504D52B2230
:1047B0008DF80420012203E0E20701D02022F7E770
:1047C000904653E00A2102E010220DE010214FF044
:1047D000000A00910BE010224FF0000A44F004049C
:1047E0000827009203E008224FF0000A0092C4F369
:1047F0000252022A05D059F804CB0021032A08D01E
:1048000009E009F1070121F00702F2E802C191462F
:1048100005E01FFA8CFC042A01D10CF0FF0C4FF0CC
:104820000008220722D5702827D0009B83F01003B0
:1048300053EA0A0309D15CEA010206D030228DF85E
:1048400004208DF8050002229046009B83F00803A7
:1048500053EA0A030AD15CEA010201D1620705D5D5
:1048600030228DF804204FF001087F1E582809D00F
:1048700037A003900EA8029013E040228DF8042088
:104880000122E1E737A0F4E753466046009AFBF7C0
:104890009DFE84460398825C0298A0F1010002907C
:1048A00002705CEA0100EFD1029806A9A1EB0000BA
:1048B00000F1200A600702D524F4803400E00127CB
:1048C000574502DDA7EB0A0000E0002000EB0A01DB
:1048D000009005984144A0EB01000590E00306D448
:1048E0005B462146179A059800F0BBF9054400275E
:1048F00006E001A85A46C05D179990476D1C7F1CC1
:104900004745F6DBE0030CD55B462146179A059830
:1049100000F0A7F9054404E030205A461799904763
:104920006D1C0099481E00900029F5DC08E00298F3
:1049300002995A460078491C0291179990476D1CBC
:10494000BAF10001AAF1010AF1DC6BE109280100CA
:1049500030313233343536373839616263646566F5
:1049600000000000303132333435363738394142B7
:10497000434445460000000000F060F9054406F19C
:104980000106307800287FF4E9AD19B02846BDE86B
:10499000F08F620700D4062709F1070222F0070C06
:1049A000FCE80223E14603F000485FEA080C02D06D
:1049B0000FF27C2C0DE05FEA045C02D50FF2742C40
:1049C00007E05FEAC47C02D00FF26C2C01E0AFF28A
:1049D000700C4FF0FF3823F00043CDF850C065282D
:1049E0000CD006DC452809D046281DD047283ED1EA
:1049F0003EE0662818D0672839D139E00021112F10
:104A000001DB112000E0781CCDE9000106A90EA809
:104A1000FFF7EEFCDDE90F010E9A039100210092F1
:104A200007F1010A04914EE04FF000400097CDE9F4
:104A3000011006A90EA8FFF7DBFCDDE90F020392C7
:104A40000E9B11990022DDF80CA00093049219B975
:104A500007F1010100EB010AB7EB0A0004D4C0F131
:104A6000FF3007F1010A0490AAEB0700019046E02D
:104A7000012F00DA01270021112F01DD112000E0B4
:104A80003846CDE9000106A90EA8FFF7B1FCDDE923
:104A90000F010E9A0391002104910092BA4621075A
:104AA0000CD40399514500DA8A46BAF1010F05DDAD
:104AB000009AAAF10101515C302908D0B84202DA0B
:104AC00010F1040F06DA0121CDE9011017E0AAF177
:104AD0000101E9E7002805DC049901440491AAEBEF
:104AE000000102E0411C514500DD8A460499A0EB1B
:104AF000010000F1010001904FF0004002902007FA
:104B000004D40198504501DBCDF8048000208DF8D5
:104B10004F0002980DF14F07B0F1004F25D02B2028
:104B20000E9002984FF0020800280CDA40420290E2
:104B30002D200E9007E00A210298FBF731FD30315D
:104B4000029007F8011DB8F10001A8F10108F2DC9C
:104B500002980028EFD1791E0E980870307800F086
:104B6000200040F0450007F8020D12A8A0EB070056
:104B700000F107081498007800B1012000EB0A0149
:104B8000019801EBE07105984144A0EB0100A0F110
:104B900001000590E00306D45B462146179A05986C
:104BA00000F05FF805441498007820B15A46179930
:104BB000904705F10105E00323D55B462146179A8E
:104BC000059800F04EF805441BE00498002807DB28
:104BD000DDE90301884203DD0098405C179901E09C
:104BE000179930205A46904704986D1C401C049039
:104BF0000198401E019004D12E205A4617999047E3
:104C00006D1CBAF10001AAF1010ADEDC05E017F81B
:104C1000010B5A46179990476D1CB8F10001A8F195
:104C20000108F4DC5B462146179A0598A4E60000CB
:104C30002D0000002B000000200000002DE9F041B5
:104C4000044600251E461746880405D406E039466A
:104C50002020B04705F10105641EF8D52846BDE8BF
:104C6000F0812DE9F041044600251E469046C80318
:104C700001D5302700E02027880405D506E041460D
:104C80003846B04705F10105641EF8D52846BDE851
:104C9000F081000070B505460E46144634B1012C73
:104CA0000CD0062C06D0072C10D10BE00BA0FFF780
:104CB0007FFB10E00DA0FFF77BFB0CE010A0FFF7DF
:104CC00077FB08E014A0FFF773FB04E021461AA06D
:104CD000FFF76EFB00BF00BF70BD00004173736F34
:104CE000636961746564210A0000000053534944FC
:104CF000206E6F7420666F756E64210A00000000DC
:104D00004173736F63696174696F6E206661696C6A
:104D10006564210A0000000057616974696E6720AC
:104D2000666F722061757468656E74696361746919
:104D30006F6E210A00000000556E6B6E6F776E205B
:104D40006572726F7221207374617475733D25648E
:104D50000A0000001FB502208DF8040006A0029092
:104D600008A0039000200A4B421E0146009001A8B3
:104D7000FCF73CFC1FBD00004F6374313135382D0A
:104D80003200000070617373776F7264000000007E
:104D9000954C00082DE9F04105460AF03EFE064616
:104DA00026B911A0FFF704FBBDE8F0811349304696
:104DB00009F07EFE284605F07DFE0746394610A024
:104DC000FFF7F6FA144B50222946304609F07EFBD5
:104DD000044634B1304609F00FFA21460FA0FFF720
:104DE000E7FA00BFE0E70000077463705F6E657765
:104DF000206661696C6564210A0000005134010875
:104E0000436F6E6E656374696E6720746F202573DF
:104E10002E2E2E0A00000000BD330108436F6E6E77
:104E2000656374696F6E206661696C6564212065D5
:104E300072723D25640A000070B504462546686814
:104E4000804722460249286808F022FF70BD000012
:104E5000394E000870B5044608F0E0FE064600BF73
:104E600008F0DCFE851BA542FAD970BD70B5054679
:104E70000E4600BF65B900BF0CA340F27B3212A101
:104E800015A0FFF795FA0020002000BFAFF30080C7
:104E900000BF2C6A4CB1607A082806D13068A16A3C
:104EA000884202D1284600F02FFB70BD6C776970F4
:104EB0002D322E302E335C636F72655C69707634F0
:104EC0005C646863702E63006E6574696620213DC2
:104ED000204E554C4C000000417373657274696F2D
:104EE0006E2022257322206661696C6564206174DE
:104EF000206C696E6520256420696E2025730A0088
:104F00007CB5064600BF002E0CD100BF49A340F27D
:104F1000FE324FA155A0FFF74BFA0020002000BF42
:104F2000AFF3008000BF346A00BF002C0CD100BF7B
:104F300040A34FF4806257A14CA0FFF739FA00203C
:104F4000002000BFAFF3008000BF00202084606B12
:104F5000401C0ED0606B1E303C21B0FBF1F5B5F566
:104F6000803F01D34FF6FF756584608C08B901203E
:104F70006084A06B401C10D0A06B1E303C21B0FBA5
:104F8000F1F5B5F5803F01D34FF6FF752583208BF2
:104F900008B901202083208BA083E06B401C10D037
:104FA000E06B1E303C21B0FBF1F5B5F5803F01D33D
:104FB0004FF6FF756583608B08B901206083608BB5
:104FC000E083208B618B884204DB608B002801DD4D
:104FD00000202083E07A10B1E06A019010E094F89C
:104FE00028007F2802DCFF21019108E0C02803DBB4
:104FF0006FF07F41019102E04FF6FF71019100BF18
:10500000206B0090009848B900BFA06A0199084041
:10501000009000BF009840F0807000900A21204668
:1050200001F04EFD6B4601AA04F12801304607F05D
:105030004EFA7CBD6C7769702D322E302E335C6356
:105040006F72655C697076345C646863702E6300AF
:10505000646863705F62696E643A206E6574696645
:1050600020213D204E554C4C0000000041737365DB
:105070007274696F6E2022257322206661696C65E7
:1050800064206174206C696E6520256420696E203F
:1050900025730A00646863705F62696E643A206415
:1050A00068637020213D204E554C4C002DE9F041A5
:1050B00005462C6A0821204601F002FD002204F179
:1050C0002801284603F0E4F90746A07AFF2802DA0F
:1050D000A07A401CA0724FF4FA7606F2F310314623
:1050E00090FBF1F0E082BDE8F081000070B5184857
:1050F00005682AE02C6A34B3607A20B3608C68B10A
:10510000208C401C80B22084618C884206D12846C5
:1051100001F096FB284600F0DDFA14E0E08B40B188
:10512000E18B481EE083012903D1284601F03BFEB4
:1051300009E0A08B38B1A18B481EA083012902D1C0
:10514000284601F00FFE2D6800BF002DD2D170BDA2
:10515000640000202DE9F04107460C46164600BFCA
:10516000002F0CD100BF73A340F21D7278A180A064
:10517000FFF71EF90020002000BFAFF3008000BF42
:1051800000BF002C0CD100BF6AA340F21E7282A1A6
:1051900077A0FFF70DF90020002000BFAFF30080DB
:1051A00000BF00BFE06800280CD000BF61A340F240
:1051B0001F7281A16EA0FFF7FBF80020002000BF46
:1051C000AFF3008000BF00BF206900280CD000BFF3
:1051D00058A34FF4E46282A165A0FFF7E9F800202C
:1051E000002000BFAFF3008000BF00224FF49A718F
:1051F000104607F005FAE060E06818B94FF0FF309C
:10520000BDE8F08100BFE0684089B0F59A7F0CD21C
:1052100000BF48A340F227727BA155A0FFF7C8F852
:105220000020002000BFAFF3008000BF032E02D19A
:10523000607A032808D1A07A18B9FAF7CFFF82491B
:105240000860814800682060E068406820610120B3
:10525000216908702169487097F82E0021698870CB
:1052600000202169C870206806F004F921694860AF
:10527000002021690881216948812169C860082EC0
:105280000BD0042E09D0072E07D0032E08D1607A48
:10529000052802D0607A042802D178682169C860A4
:1052A0000020216908612169486121698861002520
:1052B0000FE097F82E00A84205DD062D03D207F176
:1052C0002F00405D00E0002021691C314855681C1A
:1052D00085B2102DEDD3002505E0002120692C308A
:1052E0004155681C85B2402DF7D3002505E000210B
:1052F00020696C304155681C85B2802DF7D3534826
:105300002169C1F8EC000020A082002504E020699A
:10531000F0304555681C85B2442DF8D30122352163
:10532000204600F087FB3146204600F0CDFB0020F0
:1053300066E700006C7769702D322E302E335C6387
:105340006F72655C697076345C646863702E6300AC
:10535000646863705F6372656174655F6D73673AFB
:10536000206E6574696620213D204E554C4C00002E
:10537000417373657274696F6E20222573222066F3
:1053800061696C6564206174206C696E65202564B8
:1053900020696E2025730A00646863705F6372651C
:1053A0006174655F6D73673A206468637020213DA6
:1053B000204E554C4C000000646863705F6372655A
:1053C0006174655F6D73673A20646863702D3E7029
:1053D0005F6F7574203D3D204E554C4C0000000021
:1053E000646863705F6372656174655F6D73673A6B
:1053F00020646863702D3E6D73675F6F7574203D28
:105400003D204E554C4C0000646863705F637265CC
:105410006174655F6D73673A20636865636B2074C0
:1054200068617420666972737420706275662063A7
:10543000616E20686F6C642073747275637420648D
:105440006863705F6D736700D000002063825363F0
:1054500010B500BF1048007800280BDC00BF0FA378
:10546000F32215A11DA0FEF7A3FF0020002000BF1E
:10547000AFF3008000BF08480078401E064908705E
:105480000846007830B91F4800680EF021FA002065
:105490001C49086010BD0000D80000206C776970BE
:1054A0002D322E302E335C636F72655C69707634FA
:1054B0005C646863702E6300646863705F7063622D
:1054C0005F726566636F756E7428293A207265662F
:1054D000636F756E74206572726F720041737365CD
:1054E0007274696F6E2022257322206661696C6573
:1054F00064206174206C696E6520256420696E20CB
:1055000025730A00D40000202DE9FC4105462C6AD1
:1055100000260C21204601F0D3FA04222146284619
:10552000FFF718FE064616BB04223221204600F083
:1055300081FAA06A05F09EFF80464146204600F0B1
:105540009DFB204600F058FCA28AF03291B2E06840
:1055500007F046FF0F48CDE9005043230E4A0F489D
:10556000E16800680EF01EFA204600F019F8A07AF3
:10557000FF2802DAA07A401CA07242F2107707F2EC
:10558000F3104FF4FA7190FBF1F0E0823046BDE881
:10559000FC810000AC250508B0250508D4000020DA
:1055A00010B5044600BF002C0CD100BF1CA340F274
:1055B0006D7222A129A0FEF7FBFE0020002000BF93
:1055C000AFF3008000BF00BFE06800280CD100BF2F
:1055D00013A340F26E722BA120A0FEF7E9FE00207B
:1055E000002000BFAFF3008000BF00BF206900288B
:1055F0000CD100BF0AA340F26F722CA117A0FEF7D6
:10560000D7FE0020002000BFAFF3008000BFE0689D
:1056100010B1E06807F00EFD0020E060206110BDD1
:105620006C7769702D322E302E335C636F72655C3F
:10563000697076345C646863702E630064686370BC
:105640005F64656C6574655F6D73673A2064686359
:105650007020213D204E554C4C0000004173736575
:105660007274696F6E2022257322206661696C65F1
:1056700064206174206C696E6520256420696E2049
:1056800025730A00646863705F64656C6574655FA8
:105690006D73673A20646863702D3E705F6F757438
:1056A00020213D204E554C4C000000006468637082
:1056B0005F64656C6574655F6D73673A20646863E9
:1056C000702D3E6D73675F6F757420213D204E55C0
:1056D0004C4C00002DE9FC4105462C6A00270020B7
:1056E000A0620621204601F0EBF90122214628465E
:1056F000FFF730FD0746002F2ED102223921204628
:1057000000F098F9A98D204600F02EFB04223721E5
:10571000204600F08FF9002606E01F48815D2046F4
:1057200000F0D2F9701CC6B2042EF6D3204600F069
:1057300063FBA28AF03291B2E06807F051FE17488D
:10574000CDE900504323164A1648E16800680EF080
:1057500029F92046FFF724FFA07AFF2802DAA07A71
:10576000401CA072A07A062803DAA17A01208840A2
:1057700000E03C2000EB4001C1EBC0104FF6FF7190
:1057800001EAC00808F2F3104FF4FA7190FBF1F04F
:10579000E0823846BDE8FC81CC000020AC2505083D
:1057A000B0250508D400002070B50D48056813E049
:1057B0002C6A7CB1E08A012803DDE08A401EE08289
:1057C00008E0E08A012805D1E08A401EE0822846F0
:1057D00001F00DFB2D6800BF002DE9D170BD000068
:1057E00064000020F8B50646346A0020E0622063B9
:1057F0002648C07810B12648C06860632348007905
:1058000018B123480069A06302E0606B4008A06300
:105810001E48407918B11E484069E06304E0606B9F
:10582000C0EBC000C008E06360680069A062174870
:10583000807938B11649886905F01CFEE0620120C4
:10584000E07201E00020E0721048C07920B11049F8
:10585000C86905F00FFE206300250DE005F1080181
:105860000B4A52F8210005F005FE009069462846D3
:1058700002F0E4F8681CC5B2022D05DA05F1080053
:105880000249085C0028E9D1F8BD000080530020DF
:105890005853002070B50446256A0C21284601F0B3
:1058A0000FF9054B1A461146204606F010FE204619
:1058B000FFF710FF70BD0000AC25050870B5054668
:1058C0002C6A0748807850B10649886805F0D2FDF7
:1058D000606260680069A062284601F06BF870BDE4
:1058E000805300205853002010B52048007800282D
:1058F00035D100BF1E48006800280BD000BF1DA393
:10590000D92223A12CA0FEF753FD0020002000BFC8
:10591000AFF3008000BF0DF095FF15490860084601
:10592000006810B94FF0FF3010BD11480068007AD0
:1059300040F020000E4909680872442228490C48AA
:1059400000680DF0DFFD43222549094800680DF08D
:1059500023FE00222349064800680DF0B5FF0348E6
:105960000078401C014908700020DDE7D8000020C5
:10597000D40000206C7769702D322E302E335C639A
:105980006F72655C697076345C646863702E630066
:10599000646863705F696E635F7063625F7265669F
:1059A000636F756E7428293A206D656D6F7279206A
:1059B0006C65616B00000000417373657274696F00
:1059C0006E2022257322206661696C6564206174F3
:1059D000206C696E6520256420696E2025730A009D
:1059E000AC2505089966000870B505462C6A04B90F
:1059F00070BD607A042809D003DC80B103280FD180
:105A000007E0052803D00A280AD101E000BF00BF43
:105A100000BF0020A072284600F0D0FD06E005E09F
:105A20000020A0722846FFF755FE00BF00BF00BF50
:105A3000DEE7000070B504460E46154600BFA08A9A
:105A4000801C284444280CD900BF0DA34FF4AE623B
:105A5000124913A0FEF7ACFC0020002000BFAFF3FA
:105A6000008000BFA18A481CA0822069F030465403
:105A7000A18A481CA0822069F030455470BD000006
:105A80006C7769702D322E302E335C636F72655CDB
:105A9000697076345C646863702E6300DC240508EA
:105AA000417373657274696F6E20222573222066BC
:105AB00061696C6564206174206C696E6520256481
:105AC00020696E2025730A0070B504460D4600BF9C
:105AD000A08A44280CD300BF09A340F27B520FA137
