:020000040800F2
:10000000505F0020450100084D01000899130008C9
:1000100051010008530100085501000800000000CC
:100020000000000000000000000000005701000870
:1000300059010008000000005B0100085D01000894
:100040005F0100085F0100085F0100085F01000810
:100050005F0100085F0100085F0100085F01000800
:100060005F0100085F0100085F0100085F010008F0
:100070005F0100085F0100085F0100085F010008E0
:100080005F0100085F0100085F0100085F010008D0
:100090005F0100085F0100085F0100085F010008C0
:1000A0005F0100085F0100085F0100085F010008B0
:1000B0005F0100085F0100085F0100085F010008A0
:1000C0005F0100085F0100085F0100085F01000890
:1000D0005F0100085F0100085F0100085F01000880
:1000E0005F0100085F0100085F0100085F01000870
:1000F0005F0100085F0100085F0100085F01000860
:100100005F0100085F0100085F0100085F0100084F
:100110005F0100085F0100085F0100085F0100083F
:100120005F0100085F0100085F0100085F0100082F
:10013000DFF80CD000F060FE0048004791BE0008D8
:10014000505F00200648804706480047FEE7FEE76C
:10015000FEE7FEE7FEE7FEE7FEE7FEE7FEE7FEE777
:100160001D18000831010008004870478454010838
:1001700010B50446FFF7F8FF0068005D00F00100CD
:1001800010BD00000649074A0868504343F239028F
:10019000104408604008704701490860704700003B
:1001A000F40000206D4EC641014610B509683C229E
:1001B000B1FBF2F302FB1313B1FBF2F11D48036034
:1001C000B1FBF2F302FB1313B1FBF2F1182243600F
:1001D000B1FBF2F302FB1313B1FBF2F183600A1DD2
:1001E0000723B2FBF3F403FB142282618A0040F27E
:1001F000B55102F66C32B2FBF1F344334361B2FB0A
:10020000F1F301FB13218908C1613B2903D3027D6E
:10021000920700D0491C0022074C13460261E25CA1
:100220008A4203D8891A5B1C0361F8E7491CC16044
:1002300010BD0000205900208854010870B5054603
:1002400001B90721541A241DB4F5B67F09DD2868C9
:1002500000F036F9A04204DC2868401C2860012028
:1002600070BD002C05DA2868401E286000F028F9CF
:100270000444072094FBF0F0401C70BD2DE9F04FC2
:1002800089B01D468A468046002401AF4FF0070B17
:100290000192079057F8241011F8010B47F8241029
:1002A00048B125280DD0BAF1010F06D908F8010B85
:1002B000AAF1010A5CE0641E5AE0002009B0BDE822
:1002C000F08F11F8010B47F824100028F3D0022614
:1002D0004FF030095A284BD020DC4D2873D014DC65
:1002E000442871D008DC2528DDD041282AD04228B6
:1002F0002ED043283CD130E0462847D0472857D05D
:10030000482862D0492833D161E0523808282FD2DA
:10031000DFE800F0787AA6838A97A6A861381928C2
:1003200026D2DFE800F00D1318202E253513255CAA
:10033000252560642566256D257375258B9BA0009A
:100340006AA000E070A0A9690091B4E07DA000E07F
:1003500088482969F8E788A007E06969642091FB6B
:10036000F0F0133082E0E86880E0641C47F8240075
:10037000002C8FDA002088F800000799A8EB010014
:100380009CE7E8684FF02009009070E07EA0ECE761
:10039000686900F26C700090D5E906126846FFF7B4
:1003A0004DFF0099642091FBF0F200FB12105DE01C
:1003B0006869042600F26C700090D5E90612684660
:1003C000FFF73CFF53E010E048E0A8684EE0A86863
:1003D0000C21173090FBF1F201FB120001E0E869FB
:1003E0000326401C42E02869FBE768683EE069A0FC
:1003F000BBE7A8680C2801DA67A0B6E767A0B4E7F6
:1004000067A0B2E769A0B0E728682FE069A0ACE771
:10041000A869012608BB072028E0D5E90610401A84
:10042000C01D90FBFBF021E0686900F26C70009049
:10043000D5E906126846FFF701FF17E00126A86913
:1004400014E0A9695846891D91FBF0F20BFB1211CB
:10045000EA69511AC91D91FBFBF007E056A084E739
:1004600058A082E70426686900F26C7000900021B1
:100470008DF8181006A80A2113E0009A92FBF1F3F8
:1004800001FB1322303200F8012D009A92FBF1F2A9
:10049000009232B901E000F8019D321EA6F101067A
:1004A000F9DC321EA6F10106E7DC5EE710F8011B5D
:1004B0000029FBD100994A1E00920029F6DC54E77E
:1004C00081070CD1642190FBF1F201FB120151B9BB
:1004D0004FF4C87190FBF1F201FB120018B100203B
:1004E00000F26D1070470120FAE7000053756E00AE
:1004F0004D6F6E0054756500576564005468750053
:10050000467269005361740053756E646179004DE1
:100510006F6E646179005475657364617900576525
:10052000646E65736461790054687572736461798F
:10053000004672696461790053617475726461790F
:10054000000000004A616E00466562004D61720065
:10055000417072004D6179004A756E004A756C00F9
:1005600041756700536570004F6374004E6F7600ED
:1005700044656300945401082561202562202565A7
:10058000202554202559000025592D256D2D256441
:10059000000000000A000000414D0000504D000026
:1005A00025493A254D3A25532025700025483A25FE
:1005B0004D00000009000000256D2F25642F2579CE
:1005C0000000000025483A254D3A25530000000060
:1005D00010B5431A934209D28318881803E010F823
:1005E000011D03F8011D521EF9D210BD40EA01039E
:1005F0009B0703D009E008C9121F08C0042AFAD2D9
:1006000003E011F8013B00F8013B521EF9D210BD86
:10061000D2B201E000F8012B491EFBD27047002244
:10062000F6E710B513460A4604461946FFF7F0FFF1
:10063000204610BDCAB2401E10F8011F8A4202D0E7
:100640000029F9D100207047421C10F8011B002935
:10065000FBD1801A704710B5002200E0521C835C69
:100660008C5CA34201D1002BF8D1D8B2E1B2401A80
:1006700010BD30B504460020034600E05B1C9342E9
:1006800003D2E05CCD5C401BF8D030BD034611F8CE
:10069000012B00F8012B002AF9D11846704730B51C
:1006A00005460020034600E05B1C934205D2EC5C4B
:1006B000C85C201A01D1002CF6D130BD0FB400B5B2
:1006C0008DB010A909900B9000914FF0FF300A9067
:1006D00000200C9005480690054807906A4609A836
:1006E0000F9900F0B7F90DB05DF814FB710A00081E
:1006F0008F0A00082DE9FF5F1D464FF0FF3BD5E94B
:10070000014691465F464FF00008A9697F1C019899
:100710008847296A824688470028F6D1BAF1FF3F08
:100720000CD024F4C064002E19DD600614D5BAF193
:100730002B0F09D0BAF12D0F0ED103E0584604B0AB
:10074000BDE8F09F44F48064A9697F1C0198884744
:10075000761E8246002E02DDBAF1300F03D0B9F1C9
:10076000000F26D032E0A969761E44F400747F1C85
:10077000019888478246002E05DDBAF1780F06D031
:10078000BAF1580F03D0B9F1000F10D01EE0B9F143
:10079000000F02D0B9F1100F18D1A969761E24F408
:1007A00000747F1C019888478246102002E00820D0
:1007B00000E00A20814609E008FB0908A969761EC5
:1007C00044F400747F1C019888478246002E05DDA2
:1007D0004946504600F029F90028EDDAE969019808
:1007E0008847A00502D46FF00100A8E7E00725D1F3
:1007F000600613D5600502D5C8F1000000E0404650
:1008000029680A1D2A600968220501D5087015E0CB
:10081000220701D5088011E008600FE02868011D5B
:1008200029600068210502D580F8008006E02107D4
:1008300002D5A0F8008001E0C0F8008038467EE7CD
:100840002DE9FE4F81EA030404F0004421F0004149
:1008500000944FF0000B23F0004350EA01045ED0F7
:1008600052EA03045BD0C3F30A54C1F30A552C4483
:10087000A4F2F3340194A0FB0254C1F3130141F438
:100880008011C3F3130343F4801301FB024400FB04
:10089000034E840A970A44EA815447EA8357A4FB2B
:1008A000076802958D0A05FB07854FEA932C04FB28
:1008B0000C542705029D4FEA065847EA1637B5EB58
:1008C00008056EEB070C870E920E47EA811742EA85
:1008D0008312A7FB0201B6EB0B0164EB00042B0DA6
:1008E00043EA0C335E1844EB1C50DA465146E7FBF2
:1008F0000201C5F313044FEA0B3343EA14534FEAE2
:100900000432019C43EA0603A4F10C040294009C07
:10091000CDE900B400F0DBF803B0BDE8F08F0020B3
:100920000146F9E70EB5C10F80EAE0700844CA0736
:10093000002140F233438DE80E000A460B4600F0DA
:10094000C6F803B000BD00F0004230F000400AD00D
:10095000C10D01F56071C0F3160042EA0151C208F1
:1009600040071143704700200146704730B5041E10
:1009700071F1000404DB4FF00044404264EB0101DC
:10098000141E73F1000405DB1C464FF00043524275
:1009900063EB04038B4208BF824230BD30B50B4687
:1009A000014600202022012409E021FA02F59D429F
:1009B00005D303FA02F5491B04FA02F52844151E73
:1009C000A2F10102F1DC30BD2DE9F05F0546002007
:1009D00092469B4688460646814640241BE02846B0
:1009E00041464746224600F028FA53465A46C01A66
:1009F000914110D311461846224600F00FFA2D1AE5
:100A000067EB01084F4622460120002100F006FA5C
:100A100017EB00094E41201EA4F10104DFDC48461B
:100A200031462A464346BDE8F09F3A2800D2303886
:100A300020F02002412A01D3A2F13700884201D3DD
:100A40004FF0FF30704700000268114413780160D6
:100A500018467047D1600449516104491162002170
:100A60001161114600F00CBA490A00087101000832
:100A7000426842B1016811F8013B23B1521EC0E93E
:100A80000012184670470121C160881E70474268F5
:100A90005AB1C368016843B983688B4205D0491EC7
:100AA000521CC0E90012002070474FF0FF30704721
:100AB00010B5141E73F1000408DA401C41F1000166
:100AC00092185B411A4301D120F0010010BD2DE9BD
:100AD000F04D92469B4611B1B1FA81F202E0B0FAB4
:100AE00080F22032904600F099F904460F4640EA21
:100AF0000A0041EA0B0153465A46084313D01146F7
:100B000053EA010019D0C8F14002504600F095F9AF
:100B100005460E4650465946424600F07FF90843C6
:100B200005D0012004E020463946BDE8F08D0020C4
:100B3000054346EAE0762C4337430A986305E40A06
:100B4000A0EB08000022FD0A44EA47540A3002D50F
:100B500000200146E9E7010510196941DDE9084572
:100B600000196941BDE8F04DA2E72DE9FE4F80462E
:100B700081EA0300C00F0C46009021F0004123F0F1
:100B80000045B8EB0200A94105D2404621469046F7
:100B90001C460B46024623F00040104347D0270D69
:100BA000C7F30A00C3F30A510290401A019040288B
:100BB0006BDAC3F3130040F4801B0098924620B117
:100BC0000023D2EB030A63EB0B0B01985946C0F1EB
:100BD0004002504600F022F906460D46504659465E
:100BE000019A00F03AF910EB08006141002487EA0D
:100BF000115284EAE7731A4340D0009A62B3019A13
:100C0000012A4FEA075215DC001B61EB02014FF08D
:100C1000004202EA0752CDE90042001C41F5801172
:100C200032462B46FFF753FF03B0BDE8F08F404636
:100C30002146F9E7001B61EB0201001C41F580131E
:100C400000185B412018A2F5001747EB030140EAAA
:100C5000D570B6196D4111E06D084FEA360645EAC8
:100C6000C0754FEA0752001B61EB0201001C41F501
:100C7000801149084FEA30000019514132462B4695
:100C800003B0BDE8F04FFFF713BF0098012240000A
:100C90000023D0EB020263EBE073009821464FEA99
:100CA000E074B8EB000061EB0401E9E783F0004376
:100CB0005BE781F0004158E72DE9F04D81EA03043C
:100CC00004F0004B21F0004514464FF0000A23F0D9
:100CD000004150EA050220D054EA01021DD0C5F3BC
:100CE0000A570246C5F31303C1F31300C1F30A56B2
:100CF00040F4801543F48013A7EB0608101BD6467A
:100D000008F2FD3873EB050002D308F1010801E099
:100D100092185B41B8F1000F03DA00200146BDE8EC
:100D2000F08D00204FF48011064684460EE0171B1C
:100D300073EB050705D3121B63EB050306434CEA6F
:100D4000010C49084FEA300092185B4150EA010754
:100D5000EDD152EA030012D082EA040083EA0501D1
:100D6000084305D0101BAB4106D20122002306E048
:100D700000224FF0004302E06FF0010253101AEB23
:100D800006004CEB085110EB0A0041EB0B01BDE8EB
:100D9000F04DFFF78DBEC1F30A52C1F3130140F2CB
:100DA000FF3341F480119A4202DA00200146704775
:100DB00040F233439A42A2F2334202DC524200F044
:100DC0003CB800F02BB8000030B5041E71F10004EF
:100DD00004DB4FF00044404264EB0101141E73F148
:100DE000000405DB1C464FF00043524263EB040352
:100DF000994208BF904230BD064C074D06E0E068BE
:100E000040F0010394E8070098471034AC42F6D351
:100E1000FFF792F9F857010818580108202A04DB57
:100E2000203A00FA02F1002070479140C2F12003FD
:100E300020FA03F3194390407047202A04DB203A3C
:100E400021FA02F00021704721FA02F3D040C2F1EA
:100E500020029140084319467047202A06DBCB1731
:100E6000203A41FA02F043EAE07306E041FA02F365
:100E7000D040C2F12002914008431946704700005B
:100E80002DE9F34F8BB04FF0000801F10C000C4638
:100E90004FF0010B46460DF1080A019062690121ED
:100EA00001989047051E2DD0252D2CD0216A88470A
:100EB000C0B16269012101989047216A88470028E2
:100EC000F7D1411E62690198904700E0761CA16944
:100ED0000B988847216A88470028F7D1E1690B9869
:100EE0008847DBE7A1690B9888470746A84201D1EC
:100EF000761CD3E7E1690B9888477F1C02D1B8F1D3
:100F0000000F6FD046E1002762693D4639460198DF
:100F100090472A2804D16269012101989047012550
:100F2000DFF884926269012101989047A0F13001B5
:100F30000A290AD24F45E5DC07EB870100EB4107A0
:100F4000303FDFD445F01005ECE7E90601D46FF03F
:100F500000476C280AD04C2814D0682815D06A287D
:100F60000DD074281CD07A281AD01DE062690121A6
:100F7000019890476C2802D045F0040514E045F034
:100F800002050DE045F020050AE0626901210198A3
:100F90009047682802D045F0080505E045F4006553
:100FA0006269012101989047C4E9015765283DD045
:100FB00019DC58287AD00CDC452837D004DC2528E9
:100FC00026D0412831D131E046282FD047282CD1D6
:100FD0002CE05B2877D0612828D063287CD0642857
:100FE00023D15AE0D0E06F2848D008DC66281DD015
:100FF00067281BD0692821D06E2816D127E07028D9
:1010000045D0732868D0752847D078280DD14DE099
:10101000A1690B988847054625283FF469AFE16927
:101020000B9888476D1C3FF46AAFB3E023466A46CD
:101030006FF001000B99AFF300809EE045F0400097
:101040006060A80723464FF0000236D43EE0E80770
:101050007FF447AF2068011D21600068290501D594
:1010600006701BE7290701D5068017E7A90703D5F6
:10107000F117C0E9006111E706600FE745F0400095
:101080006060A80723464FF0080216D41EE040F621
:101090000E0125EA0100606016E045F04000606046
:1010A000A80723464FF00A0207D40FE045F040009E
:1010B0006060A80708D5234610226FF001000B9945
:1010C000AFF3008059E007E0234610226FF00100E3
:1010D0000B99FFF70FFB50E04FF000094F464B46CE
:1010E000632802D05B2806D040E0E80601D4012046
:1010F000A06001273AE062690121019890475E28CB
:1011000005D14FF00109626949460198904721696C
:1011100039B900210A46534643F82120491C0829C1
:10112000FADBB0B3216969B9C11700EBD162531181
:101130000AEB830122F01F02821A01200B68904003
:1011400003430B6062690121019890475D28E8D153
:10115000B9F1000F09D00020514651F82020D243A8
:1011600041F82020401C0828F7DB02AB22460097FC
:101170006FF001000B99AFF3008000280CDA401CDF
:1011800008D1BBF1000F05D04FF0FF300DB0BDE826
:10119000F08FFFE74046F9E7E90701D108F10108C0
:1011A00006444FF0000B79E6CCCCCC0C10B50246CF
:1011B0000B46002100BF04E052F82100034C2060E0
:1011C000491C9942F8D30148006810BD0030024024
:1011D00001200149886070470030024000F08051D2
:1011E00011B10349086001E00249486070470000FE
:1011F000040402400000024021B1026842F00102F2
:10120000026004E002684FF6FE731A400260704705
:1012100001460020002201F0805313B1054B1A68EB
:1012200001E0054B1A6802EA01030BB1012000E05E
:1012300000207047000402400000024010B5002268
:10124000026847F6F0739A430C6A8B6823430C6973
:1012500023434C6923438C692343CC6923434C6A61
:1012600023438C6A23431A430260CB6843600B68B4
:1012700083604B68C36010BD2DE9F0410246002534
:101280000026002000230024002791F803C00CF062
:101290000F0591F803C00CF0100CBCF1000F03D047
:1012A00091F802C04CEA050591F800C0BCF1000FAE
:1012B00031D0146800202BE04FF0010C0CFA00F341
:1012C000B1F800C00CEA03069E4220D183004FF023
:1012D0000F0C0CFA03F7BC4305FA03FC4CEA0404B8
:1012E00091F803C0BCF1280F06D14FF0010C0CFAA5
:1012F00000FCC2F814C00AE091F803C0BCF1480F2A
:1013000005D14FF0010C0CFA00FCC2F810C0401CD3
:101310000828D1D31460B1F800C0BCF1FF0F34DD50
:10132000546800202EE000F1080C4FF0010808FA84
:101330000CF3B1F800C00CEA03069E4221D18300F1
:101340004FF00F0C0CFA03F7BC4305FA03FC4CEA10
:10135000040491F803C0BCF1280F05D100F1080C7A
:1013600008FA0CF8C2F8148091F803C0BCF1480FD9
:1013700007D100F1080C4FF0010808FA0CF8C2F888
:101380001080401C0828CED35460BDE8F0810AB11B
:10139000016100E04161704702A003F0C1FA00BFA3
:1013A000FEE7000048617264204572726F72210A84
:1013B00000000000014908627047000000000E4272
:1013C00029B1064A52690243044B5A6104E0034AB8
:1013D00052698243014B5A6170470000001002407D
:1013E00029B1064AD2690243044BDA6104E0034A98
:1013F000D2698243014BDA6170470000001002405D
:1014000029B1064A92690243044B9A6104E0034AF7
:1014100092698243014B9A617047000000100240BC
:1014200001490860704700004004424230B5002185
:101430000022002400232D4D6D6805F00C0121B120
:10144000042905D0082923D105E0294D056022E0B3
:10145000274D05601FE0254D6D6805F47012234D82
:101460006D6805F48034022505EB92421CB9214DCC
:10147000554305600BE01D4D6D6805F400351DB149
:101480001C4D5543056002E0194D5543056002E0CF
:10149000174D056000BF00BF144D6D6805F0F001E9
:1014A0000909154D6B5C0568DD4045600F4D6D68A1
:1014B00005F4E061090A104D6B5C4568DD4085600C
:1014C0000A4D6D6805F46051C90A0B4D6B5C4568A7
:1014D000DD40C560054D6D6805F44041890B074D41
:1014E0006B5CC568B5FBF3F5056130BD00100240CB
:1014F00000127A0000093D00DC000020EC00002012
:1015000010B501460022002300204A11012A02D111
:10151000094C236806E0022A02D1074C236A01E045
:10152000054C636A01F01F02012494401C400CB179
:10153000012000E0002010BD0010024001490860B9
:101540007047000080044242014908607047000073
:101550003C0442420249096A0143014A1162704750
:10156000001002400348008840F010000149088044
:101570007047000004280040034800884FF6EF71D0
:1015800008400149088070470428004000210348B2
:101590000188001F008841EA004070471C28004075
:1015A0000020044909880907080B0249091D098818
:1015B000084370471028004000B50246FFF7D2FFED
:1015C000C2F3034003490880091D0A80FFF7D4FFD6
:1015D00000BD00000828004000BF0348008800F05C
:1015E00020000028F9D070470428004007480088F0
:1015F0004FF6F77108400549088000BF034800888E
:1016000000F008000028F9D07047000004280040CE
:10161000014988637047000000800140014908606B
:1016200070470000A0003042014908607047000088
:101630008C05304200210A4B02685A6242689A6265
:101640001A46D16A21F0F701D0E902231A4303694F
:101650001A4343691A431143014AD162704700009B
:101660000080014001480069C0B27047008001401D
:1016700001460020034A526B0A400AB1012000E0F3
:10168000002070470080014008B50146002000900E
:101690000248084400900098006808BD148001408A
:1016A00000210A4A516847F6FF629143027D836830
:1016B0001A4343681A43C3681A4303681A43036909
:1016C0001A431143014A51607047000000800140F5
:1016D0000021094B02689A601A46D1686FF30A012B
:1016E000D0E901231A43C3681A4303691A4311431B
:1016F000014AD16070470000008001400549096837
:1017000021F00301034A1160114609680143116089
:1017100070470000008001400149086070470000E8
:10172000AC05304200210175016041608160C160FB
:101730000161704710B500F001F810BD0CB5002034
:10174000019000903348006840F4803031490860CF
:1017500000BF3048006800F4003000900198401C41
:101760000190009818B90198B0F5A06FF1D12948FF
:10177000006800F4003010B10120009001E000206A
:1017800000900098012843D12348006840F01000E1
:10179000214908600846006820F0030008600846F8
:1017A000006840F0020008601A4840681949486023
:1017B0000846406848600846406840F480604860D9
:1017C0000846406820F47C1048600846406840F4B1
:1017D000E81048600846006840F08070086000BF6C
:1017E0000C48006800F000700028F9D009484068F3
:1017F00020F00300074948600846406840F00200B6
:10180000486000BF0348406800F00C000828F9D188
:101810000CBD0000001002400020024010B513482B
:10182000006840F00100114908600846406810490E
:1018300008400E494860084600680E4908400B49B8
:1018400008600846006820F4802008600846406868
:1018500020F4FE0048604FF41F008860FFF76AFF25
:101860004FF000600449086010BD00000010024005
:101870000000FFF8FFFFF6FE08ED00E021B18289CD
:1018800042F40052828104E082894DF6FF731A40CF
:101890008281704702460020B1F5007F00D100BF71
:1018A00013880B400BB1012000E0002070470000BE
:1018B0002DE9F04786B005460E460024A24600BF3B
:1018C000A1460027B08900B100BF2F462C8A4CF6F4
:1018D000FF700440F08804432C82AC894EF6F3106C
:1018E0000440B08831890843718908430443AC81BE
:1018F000AC8A4FF6FF400440B0890443AC8201A893
:10190000FFF794FD1F48874202D1DDF810A001E0E7
:10191000DDF80CA0A88900F4004040B10AEBCA0031
:1019200000EB0A1031684900B0FBF1F807E00AEB60
:10193000CA0000EB0A1031688900B0FBF1F864209E
:10194000B8FBF0F004012009642101FB1089A8898B
:1019500000F4004040B1322000EBC900B0FBF1F0D0
:1019600000F00700044308E0322000EB0910642176
:10197000B0FBF1F000F00F0004432C8106B0BDE88D
:10198000F08700000038014001468888C0F3080055
:101990007047C1F30802828070474FF4165101600E
:1019A00000218180C18001810C2141810021818140
:1019B000704700002DE9F04180460F4615461E464F
:1019C0003146284600F022FA08B1BDE8F08109202E
:1019D0000AF088FB044644B909A002F0A1FF1DB13A
:1019E000042200213046A847EFE726606560277291
:1019F00023460B4A0B49404601F0F6FE00BFE4E7E0
:101A0000576946695F4173736F63696174653A2012
:101A10006D616C6C6F63206661696C6564210A009E
:101A2000E91B0008781100202DE9FF5F04468B4672
:101A30001E460E9F3946304600F0E8F908B1BDE871
:101A4000FF9F6068FEF700FE1FFA80F909F10B00A6
:101A50000AF048FB054645B91BA002F061FF1EB124
:101A6000042200213846B047E9E72F606E6005F197
:101A7000080A8AF800B00AF10108029888F8000004
:101A800009F1010208F101006168FEF7A1FD20786B
:101A9000012805D12A461549A06802F0B7FA10E0DE
:101AA0002078022802D02078032805D12A460F4941
:101AB000A06802F0D5FB04E02A460C49132001F08F
:101AC000C3FC00BFBBE70000576946695F41737301
:101AD0006F636961746545783A206D616C6C6F6302
:101AE000206661696C6564210A000000F11A000833
:101AF0002DE9FC5F044689461646A246DAF8000046
:101B00000190DAF804700AF1080B0BF10105681C6A
:101B10000090B9F1000F01D1002003E0B9F80400F2
:101B2000C0F30E008046B8F1120F02D0B8F1060FD4
:101B30001CD1B8F1120F0CD10EB1072E09D12046DD
:101B400007F04CFC1FB1324649460198B847BDE842
:101B5000FC9F287850B195F90000401C18B12878F6
:101B6000401E40B228704FF0280800265EB116A033
:101B700002F0D6FE204607F031FC1FB1324649463E
:101B80000198B847E3E7B8F1280F12D0B8F15E0F1B
:101B900003D0B8F1C40F14D105E0224611491B202F
:101BA00001F052FC0DE022460E49132001F04CFCDE
:101BB00007E09BF8001023460A4A0098FFF7FAFE58
:101BC00000BF00BF00BFC2E7576946695F4173733A
:101BD0006F63696174654578206572726F72210A5E
:101BE00000000000F11A00082DE9F74F8CB00646FE
:101BF0008B460B960B9E30680A900B9E77680B9E67
:101C000006F1080009900E9868B16BA002F088FEFA
:101C1000304607F0E3FB1FB159460E9A0A98B847C1
:101C20000FB0BDE8F08F6A4800F031FD8046BBF18F
:101C3000000F01D1002003E0BBF80400C0F30E0048
:101C4000062802D012287CD192E0624C6048416A9A
:101C5000E160008D20825E48408D60820A20A08273
:101C60005B48808DE0820120207659484088021D23
:101C7000574904F11900FEF7ABFC55484088001D98
:101C800004F1190100EB010A0320AAF80000012069
:101C9000AAF802004E4890F82E008AF804000AF1D3
:101CA00005090020C9F80000C9F80400A9F80800D7
:101CB0000420A9F800000620A9F802004448408E3C
:101CC000021D4349303109F10A00FEF781FC40480A
:101CD000408E001D09F10A01451840F21F102880AE
:101CE0000220688009980078A880A81D2146401A23
:101CF00080B20890B8F1020F13D1A81D06903448A5
:101D0000B0F88800021D324986310698FEF760FC63
:101D10002F48B0F88800001D0899084480B2089048
:101D200017E0B8F1030F14D1A81D05902848B0F8AA
:101D30004400021D264942310598FEF749FC24481B
:101D400000E036E0B0F84400001D0899084480B275
:101D50000890022047F230511F4A0023CDE90026A7
:101D6000CDE902101B491220089A02F041F820E048
:101D7000304607F033FBCDF81CB0CFB10798008A8E
:101D80004FF6FF71884204D1012259460A98B8479C
:101D90000EE0B8F1020F02D0B8F1030F04D1072210
:101DA00059460A98B84703E0002259460A98B847AE
:101DB00000BF00BF00BF33E7576946695F417373D7
:101DC0006F6369617465206572726F72210A000029
:101DD0007811002078010020E91B000810B506A04A
:101DE00002F09EFD08480AF0CDFF0748006A10B9CE
:101DF000054805F027F910BD41757468656E746972
:101E00006361746564210A000001002070B5044616
:101E10000D4600F06FFD48B105A002F081FD1CB138
:101E2000022200212846A047012070BD0020FCE7C7
:101E30005761726E696E673A2054686520707265EA
:101E400076696F757320636F6D6D616E6420697361
:101E500020696E2070726F6772657373210A0000CB
:101E60002DE9FF41254E0CF029FB25490968471A49
:101E7000B7F5FA6F01D900F069FC224800F066F866
:101E80000546012D09D1B1881FA002F049FD0322AA
:101E90001A491C4802F0FEFC19E0022D17D119481E
:101EA000407A401EC0B217490969164A5268154B5C
:101EB0001B68CDE90032CDE9021000231A4619460D
:101EC000184601F095FFB18816A002F029FD002404
:101ED00010E004EB84011C4A02EB810000F036F8AC
:101EE0000546012D04D10321601C40B201F0CEFA59
:101EF000601C44B20B2CECDBBDE8FF8178010020B4
:101F000008000020CC120020436F6D6D616E6420CC
:101F10003078253034782074696D656F7574210AC6
:101F200000000000436F6D6D616E642030782530D5
:101F300034782074696D656F7574212052657365FE
:101F40006E642E2E2E0A0000E012002070B50446AA
:101F5000207A70B10CF0B2FAE168451A2069A84203
:101F600007D2607A18B100202072022070BD0120D3
:101F7000FCE70020FAE700002DE9F84307460E468B
:101F80000024002E44D03046FEF75EFB84B2052CC0
:101F900001D00D2C05D1224631463846FEF718FBFC
:101FA00036E00A2C01D01A2C31D1002527E0FEF7AB
:101FB000DBF80068715D10F8018088EA880000F0A5
:101FC000800058B1FEF7D0F80168681C305C11F849
:101FD000008088EA880000F0800018B94FF0FF30D8
:101FE000BDE8F88370196A460AA1FEF767FB284628
:101FF00005EBD07252100099B954A81CC5B2A54285
:10200000D5DB204604EBD071C1F34F0400E000247F
:1020100060B2E5E725303278000000002DE9FF4787
:1020200080460C461646DFF8749031462046FFF78E
:10203000EDFE08B1BDE8FF8709F10C0000F080FA61
:10204000074647B916A002F06BFC1CB10122002123
:102050003046A047EEE708200AF044F8054645B9A7
:102060001BA002F05DFC1CB1042200213046A047F9
:10207000E0E72E606C60A9F8128002204FF47A71BC
:102080001D4A0023CDE90025CDE9021014220349A1
:10209000242001F0ADFE00BFCCE700007801002055
:1020A000576946695F446561757468656E746963F4
:1020B0006174653A2057694669206973206E6F74B0
:1020C00020636F6E6E6563746564210A0000000012
:1020D000576946695F446561757468656E746963C4
:1020E0006174653A206D616C6C6F63206661696C28
:1020F0006564210A00000000FD2000082DE9F0477A
:102100000446884615462646D6F80090776820464D
:1021100007F064F92DB94FF4A9710748FEF77FFA6B
:1021200002E006A002F0FCFB1FB12A4641464846E9
:10213000B847BDE8F087000078110020576946696C
:102140005F446561757468656E7469636174652068
:102150006661696C6564210A00000000F8B500241E
:1021600017E0204600F000FA054685B100200090F7
:102170000948006801192B460022012000F02AFDC1
:10218000064626B12246294604A002F0C9FB601C7F
:10219000C4B2102CE5DBF8BD040000204469736371
:1021A0006172646564202564206279746573206FB0
:1021B000662064617461206F6E20706F72742025D8
:1021C000640A0000F0B589B0274E301F046839E07A
:1021D0002548001F0068A04203D00021022002F021
:1021E00069FB4021012000F0EBFD07464121012061
:1021F00000F0E6FD47EA002505F0010020B11BA034
:1022000002F08EFB00BFFEE7A54200D9A5B2202C4C
:102210000ED22A46314601A8FEF7DAF920202B46D5
:1022200001AA009019480168012000F0E5FF07E0CD
:102230002B463246154800940168012000F0DCFF6F
:10224000641B2E44002CC3D10021022002F032FB7B
:1022500000BF00F09BF94FF6DC618842F9D10CA079
:1022600002F05EFB09B0F0BD041804084572726FFD
:10227000723A20616E206F64642073697A65206908
:102280007320696E76616C6964210A000400002085
:102290004669726D77617265206973207375636337
:1022A00065737366756C6C7920646F776E6C6F61A3
:1022B000646564210A00000070B504462A4890F85D
:1022C0003500C0F38005A08811282CD008DC032835
:1022D0000DD0042812D0082817D0092836D11BE0C9
:1022E000172827D01E2829D046282FD12AE01FA042
:1022F00002F016FB1C480AF039FD27E021A002F08D
:102300000FFB19480AF03EFD20E02DA002F008FB6B
:1023100015480AF02BFD19E02EA002F001FB12482F
:102320000AF024FD12E02FA002F0FAFA0E480AF09B
:102330001DFD0BE03BA002F0F3FA07E042A002F023
:10234000EFFA03E04FA002F0EBFA00BF00BF55B177
:10235000054890F83500C0F3800020B94FA002F086
:10236000DFFA02F0A7FF70BD000100204265616343
:102370006F6E204C6F73732F4C696E6B204C6F73B4
:10238000730A0000546865206E756D626572206F77
:10239000662073746174696F6E7320696E2074684F
:1023A000697320616420686F63206E6577746F7253
:1023B0006B20686173206368616E676564210A0041
:1023C000446561757468656E7469636174656421E0
:1023D0000A0000004469736173736F636961746517
:1023E00064210A00416C6C206F74686572207374FC
:1023F0006174696F6E732068617665206265656ED1
:1024000020617761792066726F6D2074686973202E
:10241000616420686F63206E6574776F726B210A48
:1024200000000000574D4D20737461747573206374
:1024300068616E6765206576656E74206F6363758D
:1024400072726564210A00004942535320636F6130
:102450006C657363696E672070726F636573732058
:1024600069732066696E697368656420616E6420B3
:10247000425353494420686173206368616E676505
:1024800064210A005745502064656372797074694D
:102490006F6E206572726F72210A00005265636F61
:1024A0006E6E656374696E672E2E2E0A0000000042
:1024B00070B50446E07900F00105A07965F31F10BE
:1024C00003462288A1880DA002F02AFAA0880328DA
:1024D00006D0082805D0092804D02B280BD107E006
:1024E00000BF00BF4FF4A9710C48FEF798F802E056
:1024F000FFF774FC00BF00BF70BD00005B45766550
:102500006E742025645D2073697A653D25642C20F6
:102510006273733D3078253032780A0078110020DC
:102520000146002207E001F0010008B110467047A3
:102530004910501C42B2102AF5DB4FF0FF30F6E78D
:1025400010B5044624B10748416A2160008DA0807F
:1025500006210448243009F0A7FA08B9012010BD6B
:102560000020FCE77811002070B50446600000F1FF
:102570000801012000F024FC0546600000F109017B
:10258000012000F01DFC45EA002070BD10B560215F
:10259000012000F015FC04466121012000F010FC30
:1025A00044EA002010BD000070B505460E463146D5
:1025B0002846FFF72BFC00B170BD082009F092FD02
:1025C00004463CB908A002F0ABF9042200213046D1
:1025D000A847F1E72660656023460C4A00210846BB
:1025E00000F004FF00BFE7E7576946695F4765747D
:1025F0004D4143416464726573733A206D616C6C44
:102600006F63206661696C6564210A001126000809
:102610002DE9F04704460D4616462746D7F80090A8
:10262000D7F80480AA46204606F0D8FE2EB93246D6
:102630000AF10E014846C04706E004A002F070F916
:10264000324600214846C047BDE8F08757694669D1
:102650005F4765744D4143416464726573732065DF
:1026600072726F72210A0000014901F1180070476F
:102670007802002010B50421012000F0A1FB0446DF
:102680000521012000F09CFB44EA002010BD01461A
:1026900091F82A0000F0100058B1B1F8420008B1DA
:1026A00003207047B1F8860008B10220F9E7012045
:1026B000F7E70020F5E710B50621012000F080FBC8
:1026C00004460721012000F07BFB44EA002010BDF6
:1026D00010B500F04FFA01F0F7FD0222114600207C
:1026E00000F06EFE00BF0321002000F069FB00F047
:1026F00002000028F7D003220421002000F060FE31
:1027000003220221012000F05BFE7821012000F06D
:1027100057FB04467921012000F052FB44EA0024D3
:102720007A21012000F04CFB44EA00400649086091
:102730002021012000F09EFCFFF744FD4FF4807142
:10274000012000F097FC10BD040000202DE9FE4F91
:102750005048019081460746DFF83CA10BF0AEFEE1
:102760004E4908600321012000F02AFB05460DB9FF
:10277000BDE8FE8F032020EA05020146012000F09B
:102780001FFE05F00200C0B1012414E0601E00EB42
:102790008000434901EB8000007A50B1FFF78BFFC6
:1027A00006460121A140314019B10021204600F028
:1027B0006DFE601C44B20B2CE8DD05F00100002822
:1027C00066D0FFF757FF06465BE00120A040864336
:1027D000E0B2FFF7C9FE02904FF40060009031486C
:1027E000006801192B4A0120029B00F0F3F9804692
:1027F000B8F1000F00D144E00198408820B10128D1
:1028000011D003283BD133E0B9F80A00022804D1E3
:102810002146484600F088FE04E0B9F80A1022A0DC
:1028200002F07EF82BE0387A9AF8081088421ED120
:102830000BF044FE2049C968A0EB010BB9885A4649
:102840001EA002F06DF8788908B900250AE07889A1
:10285000022806D10825BAF804101EA002F060F87C
:1028600000E001252A460B49134802F013F806E060
:102870000848FFF71DFE0748FFF71EFD00BF00BF19
:1028800000BF3046FFF74CFE0446401C00289CD198
:1028900000BF6DE7780900207801002008000020C3
:1028A000E0120020040000205B526563765D207416
:1028B0007970653D25640A00CC120020434D4452D6
:1028C00045535020307825303478206174202564B9
:1028D0006D730A00436F6D6D616E64203078253032
:1028E000347820697320756E737570706F727465BB
:1028F00064210A000148007A70470000CC120020D1
:1029000070B5054600240120FEF7B2FE01280BD168
:10291000FEF77EFE601CC4B23848C06800F03F027B
:10292000294637A001F0FCFF0420FEF7A1FE012894
:102930000CD10420FEF76CFE601CC4B22F48C068A6
:1029400000F03F02294634A001F0EAFF0220FEF722
:102950008FFE012808D10220FEF75AFE601CC4B287
:10296000294632A001F0DCFF0820FEF781FE012895
:1029700008D10820FEF74CFE601CC4B2294631A0E5
:1029800001F0CEFF4FF40070FEF772FE012808D16F
:102990004002FEF73DFE601CC4B229462EA001F0A5
:1029A000BFFF1020FEF764FE012808D11020FEF7BB
:1029B0002FFE601CC4B229462DA001F0B1FF2020DB
:1029C000FEF756FE012808D12020FEF721FE601CEC
:1029D000C4B229462BA001F0A3FF2F48FEF718FC34
:1029E000012808D12C48FEF7F9FB601CC4B2294627
:1029F0002AA001F095FF204670BD00000080014034
:102A000025733A20434D4425642043524320666198
:102A1000696C6564210A000025733A20434D442502
:102A2000642074696D656F7574210A0025733A20FE
:102A30006461746120435243206661696C6564215E
:102A40000A00000025733A20646174612074696D86
:102A5000656F7574210A000025733A2073746172E2
:102A60007420626974206572726F72210A0000001E
:102A700025733A206461746120756E6465727275A5
:102A80006E210A0025733A2064617461206F7665B7
:102A90007272756E210A00000080001025733A20C2
:102AA000444D41207472616E736665722065727266
:102AB0006F72210A0000000008B501213820FEF7DE
:102AC0009FFC10208DF803000002ADF800000320E9
:102AD0008DF8020069460F48FEF7CEFB642002F035
:102AE00075FC012211030B48FEF751FC18208DF8EC
:102AF00003004FF4F850ADF8000069460648FEF7B1
:102B0000BBFB0420ADF8000069460448FEF7B4FBA7
:102B100008BD0000000C01400010014000140140FD
:102B200070B504460D460F4931F8140000F0BAFAAA
:102B30000C4931F814102868B0FBF1F086B209494D
:102B400031F814102868B0FBF1F201FB120008B153
:102B5000701C86B2034830F8140070432860304679
:102B600070BD000010000020014800787047000090
:102B70001400002010B501214020FEF721FC00F0D8
:102B8000FDFA20B904A001F0CBFE00BFFEE7FFF77D
:102B900093FF00F029F910BD4572726F723A20540C
:102BA0006865206669726D776172652073746F72F3
:102BB000656420696E20666C617368206D656D6F59
:102BC000727920697320636F727275707465642105
:102BD0000A0000002DE9FF418EB0074688461646E0
:102BE000189C06F0030010B156A001F099FE119850
:102BF00030B962A001F094FE002012B0BDE8F0816F
:102C000011A93846FFF78CFF05468CB11198844214
:102C10000ED222466448119901F082FE00200090F5
:102C2000024641463846119BFFF7D4FF0020E4E7F7
:102C3000119880080690002005900D904FF40060D8
:102C40000A9000200B9059480390401509900020ED
:102C500007904FF440500C901CB1049680200890CF
:102C600003E002A804900020089003A95048FEF752
:102C7000E5FA01214E48FEF7BFFA55B100204D4953
:102C800008614FF000632A464146384600F0D2F909
:102C900009E0042047490861119882B200234146A7
:102CA000384600F0C7F9434911984860012048614F
:102CB0000220C8600846FEF7BDFC00BF4FF400507C
:102CC000FEF7D6FC0028F9D00AE04FF40050FEF7DA
:102CD000CFFC20B12020FEF7CBFC012800D104E07E
:102CE0003548FEF795FA0028EFD000BF3248FEF7CE
:102CF00075FA00212E48FEF77FFA00BF4FF40060FE
:102D0000FEF7B6FC012805D04FF40050FEF7B0FCEA
:102D1000012804D12020FEF7ABFC0028EED00020D3
:102D2000244948610846FEF785FC4FF4A860FEF789
:102D30006FFC2248FFF7E4FD08B901205DE70020A1
:102D40005BE70000576946695F4C6F774C657665B5
:102D50006C5F52656164446174613A2064617461BE
:102D6000206D75737420626520342D62797465203E
:102D7000616C69676E6564210A00000057694669E5
:102D80005F4C6F774C6576656C5F5265616444613A
:102D900074613A2073697A652063616E6E6F742086
:102DA00062652030210A000034550108808001400E
:102DB00044040240D013002000200010AC4401085D
:102DC00070B504460D4600231A462946204600F0F9
:102DD00013F9044800F0F0F90020FEF755FCC0B2EA
:102DE00070BD0000C344010870B586B0012188029F
:102DF000FEF7E6FA01210220FEF7E2FA0320FEF7D1
:102E00007DFC6846FEF78EFCB2208DF81400684603
:102E1000FEF746FC0120FEF701FC0120FEF77CFCDA
:102E20000120FEF701FC0A2002F0D0FA00204549FB
:102E30000860052048604FF4806008614020886089
:102E40000020C8600846FEF743FC3F4800F0B4F994
:102E50000020FEF719FC0546FEF704FC06462A464C
:102E600031463AA001F05CFD4FF44010354908604E
:102E70000846FEF72DFC344800F09EF90020FEF7CE
:102E800003FC0446FEF7EEFB0546224629462FA02A
:102E900001F046FD04F0004068B1C4F3027031490E
:102EA00008700846017830A001F03AFDC4F3C06113
:102EB00035A001F035FD002022490860032048605C
:102EC0000846FEF705FC204800F076F90020FEF7E2
:102ED000DBFB000C314908800846018830A001F076
:102EE0001FFD2E480088000416490860072048602E
:102EF0000846FEF7EDFB144800F05EF90020FEF7EF
:102F0000C3FB054629462EA001F00AFD01208DF8DD
:102F1000140032483249086032A001F001FD4FF43C
:102F2000006003906846FEF7BBFB07210020FFF717
:102F300047FF40F002052A460721002000F040FA32
:102F400006B070BDBC130020D9440108524553504F
:102F5000434D4425642C2052455350315F25303871
:102F6000780A0000140000204E756D626572206FB3
:102F70006620492F4F2046756E6374696F6E733AF1
:102F80002025640A000000004D656D6F72792050A5
:102F9000726573656E743A2025640A00160000207D
:102FA00052656C6174697665204361726420416486
:102FB00064726573733A203078253034780A0000E3
:102FC000436172642073656C65637465642120528B
:102FD000455350315F253038780A0000009F2400A7
:102FE000D01300205344494F20436C6F636B3A2049
:102FF00032344D487A0A00002DE9F04104460D466E
:1030000016461F46200740EA45203043384308490A
:103010000860342048604FF4806008614020886078
:103020000020C8600846FEF753FBBDE8F0810000B1
:10303000BC1300202DE9F04104460D4616461F46FC
:10304000200740EA4520C6F30801084338430849F1
:103050000860352048604FF4806008614020886037
:103060000020C8600846FEF733FBBDE8F081000091
:10307000BC13002070B504460D46094921F81450D0
:10308000EAB2102040EA0421002000F099F9112052
:1030900040EA0421C5F30722002000F091F970BD39
:1030A00010000020802845D010DC082832D006DC33
:1030B000012823D0022825D004285BD126E010283F
:1030C0002CD020282ED0402854D12FE0B0F5006F0E
:1030D00040D009DCB0F5807F30D0B0F5007F31D032
:1030E000B0F5806F46D131E0B0F5805F36D0B0F5F5
:1030F000005F37D0B0F5804F3CD137E000211E4A49
:10310000916037E010211C4A916033E020211A4A77
:1031100091602FE03021184A91602BE04021164A3F
:10312000916027E05021144A916023E06021124A07
:1031300091601FE07021104A91601BE080210E4ACF
:10314000916017E090210C4A916013E0A0210A4A97
:1031500091600FE0B021084A91600BE0C021064A5F
:10316000916007E0D021044A916003E0E021024A27
:10317000916000BF00BF7047D013002070B50C48AD
:1031800000680C49884201D0002070BD08480068E2
:10319000022101EB9005FEF71BF829460448FEF7D3
:1031A00005F804460CB90120EFE70020EDE7000028
:1031B0000018040830E6030070B50446012500BF7E
:1031C0001DB90C48FEF784FA00E0002500BF4FF45B
:1031D0000060FEF74DFA0128F9D02046FFF790FB7A
:1031E0004020FEF745FA0028EAD04020FEF710FA0A
:1031F00070BD0000BC1300202DE9FF418CB00746D4
:1032000088461546169E05F0030010B14DA001F04A
:1032100087FB0F9830B959A001F082FB002010B055
:10322000BDE8F0810FA93846FFF77AFC04460F98F5
:10323000864204D232465C480F9901F071FB54B1CA
:1032400000205A4908614FF008432246414638465B
:10325000FFF7F0FE0AE00420544908610F9882B29B
:103260004FF0004341463846FFF7E4FE5048FFF771
:10327000A3FF0F98800804901020039000200B906B
:1032800002954FF40060089080200690002009907D
:103290004848019040150790002005904FF4405099
:1032A0000A9001A94448FDF7C9FF01214248FDF7F2
:1032B000A3FF3E490F984860012048610020C86084
:1032C0000846FEF7B7F900BF4FF48050FEF7D0F97B
:1032D0000028F9D00AE04FF48050FEF7C9F920B178
:1032E0001020FEF7C5F9012800D104E03348FDF7AE
:1032F0008FFF0028EFD000BF3048FDF76FFF00219F
:103300002D48FDF779FF00BF4FF48050FEF7B0F96C
:10331000012804D11020FEF7ABF90028F4D00020DA
:10332000224948610846FEF785F94FF4A060FEF790
:103330006FF91F48FFF7E4FA08B901206FE7002092
:103340006DE70000576946695F4C6F774C6576659D
:103350006C5F5772697465446174613A206461748A
:1033600061206D75737420626520342D62797465F7
:1033700020616C69676E6564210A000057694669BF
:103380005F4C6F774C6576656C5F57726974654406
:103390006174613A2073697A652063616E6E6F743F
:1033A0002062652030210A0084550108D0130020D6
:1033B000F0440108808001404404024000200010D5
:1033C00070B504460D4616464FF00843324629466E
:1033D0002046FFF711FE0448FFF7EEFE0020FEF73F
:1033E00053F9C0B270BD0000084501082DE9FF4146
:1033F00080460C4615461E46124F31462846FEF7BB
:1034000005FD08B1BDE8FF81BC81012C07D1D8F8CA
:103410000000C7F80E00B8F80400788203E000202E
:10342000C7F80E00788202204FF47A71002314222C
:10343000CDE90056CDE9021002494D2000F0D8FC3C
:1034400000BFDFE7780100202DE9FF4106460C466A
:1034500015460D4F29462046FEF7D8FC08B1BDE8B9
:10346000FF81BE810020F88102204FF47A71002391
:103470001022CDE90045CDE902100349282000F0D3
:10348000B7FC00BFEBE70000780100207CB50446E4
:103490000D467DB90BF012F8611E01EB8101124A55
:1034A00002EB8101C968461A324621460FA001F09D
:1034B00037FA05E0032D03D1214614A001F030FABC
:1034C0000520ADF800000020ADF802008DF80440A2
:1034D000611E01EB8101044A02EB81002A46694624
:1034E00001F0D8F97CBD0000E01200205061636B50
:1034F0006574206F6E20706F7274202564204143C4
:103500004B2061742025646D730A00005061636B69
:103510006574206F6E20706F72742025642074694A
:103520006D656F7574210A002DE9F04104460F4660
:10353000207900F00101607961F31F108046B8F135
:10354000000F01D1084D06E0B8F1110F01D1074D70
:1035500001E0BDE8F081EE69B460B781284605F06E
:1035600007FF00BFF5E70000000100203C0100203C
:103570001FB502204FF47A710022064BCDE90032CC
:10358000CDE9021013460C2203498D2000F030FCD7
:103590001FBD00009D350008780100202DE9FE4F79
:1035A0000E4691464FF0010AB3460BF10C05B9F1F6
:1035B000000F4ED129A001F0B3F9002440E02C49BE
:1035C00051F82400FDF7BFF9074600221346FDF726
:1035D000CDF933D004EB840105EB8100142108F010
:1035E00063FA00282AD18246214951F82400FDF7C8
:1035F000AAF907460B4604EB840005EB80008068BF
:1036000004EB840105EB8101496804EB840205EBBE
:1036100082021268CDE9002102903A4615A001F01D
:103620007FF904EB840005EB8000026904EB840061
:1036300005EB8000C1681EA001F072F9601CC4B2E5
:103640000D2CBCD3BAF1000F06D023A001F068F90D
:1036500002E023A001F064F9BDE8FE8F5B547820FE
:103660007061636B6574207374617475735D0A00B7
:1036700078440108252E31664D6270733A20506BF4
:1036800074496E6974436E743D25642C20506B74CC
:1036900053756363657373436E743D25642C2054C6
:1036A00078417474656D7074733D25640A00000080
:1036B000202052657472794661696C7572653D258A
:1036C000642C204578706972794661696C75726501
:1036D0003D25640A00000000284E6F6E65290A002F
:1036E000576946695F5072696E74547852617465A7
:1036F00073206661696C6564210A00002DE9FF474B
:1037000007468846DFF8BC9009F113054146384664
:10371000FEF77CFB08B1BDE8FF87082008F0E2FC5B
:10372000064646B928A001F0FBF81FB1042200218B
:103730004046B847EFE7C6F800807760032089F875
:103740000C000020C9F80D00A9F8110040F201108A
:1037500028801C206880002420E00021C4EBC402E3
:10376000281D8154601CC1B2C4EBC402281D104442
:1037700041700021C4EBC402281D10448170C4EBC9
:10378000C402281D1044A0F803106421C4EBC40235
:10379000281D1044A0F80510601CC4B2042CDCDB0A
:1037A000022047F230510F4ACDE90026CDE9021040
:1037B0006888173082B200230249062000F018FB07
:1037C00000BFA8E778010020576946695F5363612D
:1037D0006E3A206D616C6C6F63206661696C656424
:1037E000210A0000913A00082DE9FF5F83460D464B
:1037F00090469946DFF8FCA049464046FEF706FB96
:1038000008B1BDE8FF9F0C2008F06CFC074657B9D3
:1038100039A001F085F8B8F1000F03D0042200218F
:103820004846C047EDE7C7F80090C7F80480BD6080
:103830004FF4A9712846FCF7F2FE03208AF80C0029
:103840000020CAF80D00AAF8110028805846FCF79D
:10385000FBFE68806A885946281DFCF7B9FE688817
:10386000021D29460AF11300FCF7B2FE6888001D0C
:103870000AF11301441840F2011020806220608098
:10388000002620E00021C6EBC602201D8154701CDA
:10389000C1B2C6EBC602201D104441700021C6EB28
:1038A000C602201D10448170C6EBC602201D1044C4
:1038B000A0F803106421C6EBC602201D1044A0F836
:1038C0000510701CC6B20E2EDCDB022047F2305110
:1038D000114ACDE90027CDE902100648211A608877
:1038E000001D084482B200230249062000F080FA3D
:1038F00000BF86E778010020576946695F5363611E
:103900006E535349443A206D616C6C6F632066615D
:10391000696C6564210A00001D3900082DE9F74F24
:1039200084B007468A46BB46DBF800000390DBF80C
:103930000460DBF80840CDF804A0DDF804A00AF12B
:103940000F08384605F04AFD069850B145A000F032
:10395000E7FF1EB15146069A0398B04707B0BDE88D
:10396000F08F0198807B40B944A000F0D9FF1EB1D0
:10397000062251460398B047F0E7D8F8020060628B
:10398000B8F806002085B8F813006085B8F8110073
:10399000A08508F11505B8F80000133880B2029030
:1039A00055E02878012806D003280BD030280DD008
:1039B000DD2842D111E00E22294604F1300000F04A
:1039C0004BFF3AE0A87884F82E0036E040222946E2
:1039D00004F1420000F040FF2FE005F1020999F8E0
:1039E000000048BB99F80100502825D199F8020041
:1039F000F22821D199F80300012804D0022809D027
:103A0000042818D110E04022294604F1860000F075
:103A100023FF10E06878182805D14022294604F1D8
:103A2000CA0000F019FF06E04022294604F587701D
:103A300000F012FF00BF00BF00BF00BF6878801C0D
:103A40000299081A80B202906878801C0544029896
:103A50000028A6DC1EB15146069A0398B04700BF65
:103A60007CE70000576946695F5363616E535349B1
:103A700044206572726F72210A000000535349445A
:103A8000206E6F7420666F756E64210A000000005E
:103A90002DE9F74F96B08146CDF85490DDF854905B
:103AA000D9F800001490DDF85490D9F804B0964885
:103AB000139013981330129017980690189878B1B5
:103AC00092A000F02DFF484605F088FCBBF1000FE6
:103AD00003D0DDE917121498D84719B0BDE8F08F6C
:103AE00012984079001DC7B20E2F2ADA0D2F02D18D
:103AF0004FF0020801E04FF00408C8EBC80112982B
:103B00004180002609E0F019C1B2C6EBC602129846
:103B1000001D10444170701CC6B24645F3DB022004
:103B200047F230517E4ACDE90029CDE902101298C2
:103B30004088173082B200237349062000F058F9FC
:103B400001E04FF000080698807B002870DD0698A1
:103B500000F10F040026C3E001200590002004902E
:103B600004F115052088133880B207903FE02878CB
:103B7000032815D003DC38B101282ED10EE03028FF
:103B800011D0DD2829D111E06A78A91C09A8FCF719
:103B90001FFD0020697809AA50541EE004951CE01E
:103BA000A878089019E00320059016E005980328EE
:103BB00012D005F1020A9AF8000068B99AF80100DB
:103BC000502809D19AF80200F22805D19AF803008A
:103BD000012801D10220059000BF00BF6878801C39
:103BE0000799081A80B207906878801C05440798E6
:103BF0000028BCDCE07C00F0100008B90020059033
:103C000009A948A000F08CFEE079A1796279CDE99C
:103C1000002102902379E278A17845A000F080FE8F
:103C2000217A4CA0089A00F07BFEB4F8131000E053
:103C30005BE04EA000F074FE059830B1012808D07A
:103C400002280AD0032810D10BE051A000F068FE32
:103C50000BE052A000F064FE07E051A000F060FE0F
:103C600003E050A000F05CFE00BF00BF4FA000F0DA
:103C700057FEE07C00F0020018B14FA000F050FEAB
:103C800002E04FA000F04CFE51A000F049FE049865
:103C900008B350A000F044FE002715E00499891CE9
:103CA000C95D01F07F00FCF73DFE00224C4BCDE9E1
:103CB0000001FCF7C5FD02460B46CDE9020149A013
:103CC00000F02EFE781CC7B204984078B842E5DCBC
:103CD00012A000F025FE2188A01C0C18701CC6B292
:103CE0000698807BB0423FF737AFB8F1000F09D19B
:103CF000484605F073FBBBF1000F03D0DDE9171256
:103D00001498D84700BFE8E6780100205769466953
:103D10005F5363616E206572726F72210A0000004A
:103D2000913A00085353494420272573272C20003B
:103D30004D414320253032583A253032583A25300B
:103D400032583A253032583A253032583A253032F6
:103D5000582C2000525353492025642C204368617D
:103D60006E6E656C2025640A00000000202043610F
:103D7000706162696C6974793A20307825303478E2
:103D8000202853656375726974793A200000000039
:103D9000556E736563757265640000005745500089
:103DA0005750410057504132000000002C204D6F09
:103DB00064653A200000000041642D486F630000F4
:103DC000496E667261737472756374757265000012
:103DD000290A0000202052617465733A0000000037
:103DE0000000E03F20252E31664D62707300000018
:103DF0002DE9F84F07460E4615469846DDE90BAB10
:103E0000DDF82890234C51464846FDF7FFFF08B1E6
:103E1000BDE8F88F5EB11F48864208D00DB1284634
:103E200000E03088024631461A48FCF7D1FB95B1D4
:103E3000258001206080A780281FE0801648007838
:103E4000207215480078401C1349087084F80980D6
:103E50000020608100E025884FF480702B460D4AD9
:103E600000900E4801680120FFF7C6F90C48C0F821
:103E700004A001200A4908720846C0F800900D9875
:103E800048720AF01BFB0649C8600846C0F810B02B
:103E900000BFBDE7780100200C00002004000020D6
:103EA000CC1200202DE9F84F07460D4690469A4661
:103EB000DDF828B0514C0DB904F1180700BF504887
:103EC00000780B2801D1012603E04D480078401C02
:103ED00046B200BFFEF7EFFB81460120B04000EA8A
:103EE00009000028F6D0701E00EB8000454901EB68
:103EF0008000007A18B100213046FFF7C7FA701E23
:103F000000EB80003F4901EB8000007A0028D6D109
:103F10003B48067004F11800874203D02A46394610
:103F2000FCF756FBBDB105F1180020800020608031
:103F3000C8F30010207108F00F006071E5801420B4
:103F4000208100206081E06020746074A074A4F877
:103F500013006075E0824FF4E060009023882A48E7
:103F60000068274A92F900208118244A0120FFF7AF
:103F700043F9234890F90000401E00EB80002149DE
:103F800001EB8000C0F804B001211D4890F9000049
:103F9000401E00EB80001B4A02EB800001721848B3
:103FA00090F90000401E00EB8000114641F820A06F
:103FB0000021134890F90000401E00EB800002EB46
:103FC000800041720AF07AFA0D4991F90010491EF9
:103FD00001EB81010B4A02EB8101C860084991F9AC
:103FE0000010491E01EB810102EB81010B98086171
:103FF000034890F90000BDE8F88F00007802002027
:104000000D000020E0120020040000202DE9F04FF8
:1040100085B006460F469146DFF8E0B00BF10E047E
:1040200004F10E00049049463846FDF7EFFE10B14A
:1040300005B0BDE8F08F0120ABF80C004FF4CE7056
:1040400020800A206080002060602081307CA07287
:104050000020E0720C20A081307C56F820100498DB
:10406000801CFDF789FF0546681C08B1002D0ED1A4
:10407000681C18B922A000F053FC02E02FA000F049
:104080004FFC1FB1052200214846B847D0E70498ED
:1040900005806188A81C084460806088001D00EBD2
:1040A0000408307C314991F90010884214D02F481F
:1040B00090F9000088F80000307C40B22B4908706D
:1040C00098F90000401C38B108F1010ACAF80070E4
:1040D000274FCAF80490C14602204FF47A71CDE907
:1040E0000079CDE902100548A8EB000082B2002358
:1040F00002495E20FFF77CFE00BF99E778010020AF
:10410000576946695F53657457455045783A20545E
:10411000686520686578206B657920636F6E7461CF
:10412000696E7320696E76616C6964206368617280
:10413000616374657273210A000000005769466963
:104140005F53657457455045783A20546865206C34
:10415000656E677468206F66206B657920697320CF
:10416000696E76616C6964210A0000000E0000200F
:10417000754100082DE9F04F85B006468B46904604
:10418000DFF8A49009F10E04354605F1010ADAF8CA
:104190000070DAF804000490B8F1000F0AD023A0F0
:1041A00000F0BEFB1FB1424659460498B84705B01F
:1041B000BDE8F08F95F900000A280CDB95F90000A6
:1041C000A0F10A011FA000F0ABFB1FB14246594607
:1041D0000498B847EBE70420A9F80C004FF4CE7020
:1041E00020800A2060800020606020812878A072F2
:1041F0000020E072A08128780A3040B228700220A6
:104200004FF47A71154ACDE90026CDE90210608895
:10421000001D20440449401A82B200235E20FFF7AB
:10422000E7FD00BFC3E70000780100205769466939
:104230005F5365745745504578206572726F7221DF
:104240000A00000052656D6F766564206F6C642013
:10425000574550206B65792025640A007541000898
:104260002DE9FF4180460E461746164D3946304629
:10427000FDF7CCFD08B1BDE8FF810120A881002039
:10428000E88105F110044FF49E7020804046FCF751
:10429000DBF960804146201DFCF7F8F9022047F267
:1042A0003051CDE90067CDE902106088001D20443F
:1042B0000449401A82B200232946C420FFF798FD22
:1042C00000BFD8E7780100202DE9F04FC1B0FEF71C
:1042D0004BFC82464FF000089DE0092040EA08248C
:1042E00021460020FEF76CFD8346611C0020FEF78E
:1042F00067FD4BEA002BA11C0020FEF761FD4BEA95
:1043000000442246414647A000F00AFB76E007B988
:1043100074E02146641C0020FEF752FD064600258D
:1043200007E061190020FEF74BFD01A94855681C04
:10433000C5B2B542F5DB152F06D0202F23D0212F93
:104340002CD0222F49D134E03DA000F0E9FA02251B
:1043500011E001A94819FCF777F900F0FF09B9F15C
:10436000000F04D001A841193BA000F0D9FA09F1CF
:1043700001002844C5B201A8405DFF28E9D137A05B
:1043800000F0CEFA34E0BDF8041035A000F0C8FA11
:10439000BDF8061039A000F0C3FA29E09DF804101A
:1043A0003FA000F0BDFA9DF8051044A000F0B8FA57
:1043B0001EE09DF8040050B9BDF8051049A000F0BA
:1043C000AFFA9DF807104DA000F0AAFA04E0BDF87E
:1043D000101044A000F0A4FA0AE0A21E33463946A9
:1043E0004FA000F09DFA314601A803F049FF00BF3D
:1043F00000BFFF2E00D109E0344400BF2146641CF9
:104400000020FEF7DDFC0746FF2880D100BF08F141
:10441000010000F0FF08D0457FF75FAF41B0BDE875
:10442000F08F00005B4349535D2066756E633D2548
:10443000642C207074723D3078253038780A000082
:1044400050726F6475637420496E666F726D61742B
:10445000696F6E3A00000000202573000A0000001A
:104460004D616E75666163747572657220436F6429
:10447000653A203078253034780A00004D616E7539
:10448000666163747572657220496E666F726D61E4
:1044900074696F6E3A203078253034780A00000055
:1044A000436172642046756E6374696F6E20436F5A
:1044B00064653A203078253032780A005379737475
:1044C000656D20496E697469616C697A6174696FA0
:1044D0006E20426974204D61736B3A20307825302C
:1044E00032780A004D6178696D756D20426C6F639A
:1044F0006B2053697A653A2025640A004D6178691A
:104500006D756D205472616E7366657220526174B0
:104510006520436F64653A203078253032780A0090
:104520005B434953205475706C65203078253032D8
:10453000785D20616464723D30782530387820736E
:10454000697A653D25640A007FB5144D05F10E04B6
:10455000FEF7D0F900B17FBD0020A8814FF4807034
:104560002080062060800020A0800320E0800020C2
:10457000208102204FF47A710022094BCDE90032EC
:10458000CDE9021004F10A000449401A82B2002366
:104590005E20FFF72DFC00BFDDE700007801002062
:1045A000A54500082DE9F05F83460F4691463D463C
:1045B00005F10E04B9F1000F04D028A000F0B0F905
:1045C000BDE8F09F3DE0A08818B92CA000F0A8F944
:1045D0000EE0A07900F0020018B12AA000F0A0F9C6
:1045E00006E0A07900F0010010B128A000F098F9D1
:1045F0002389E288A18827A000F092F9A078801F83
:1046000000F0FF0AA08858B904F10A0672783178E0
:1046100027A000F085F92189B01C03F031FE07E0E6
:104620002AA000F07DF9514604F10A0003F028FEAB
:104630006088001D00EB0408B8F80200001D00EBC4
:104640000804E8882844A042BDD805F10E00844241
:1046500002D11FA000F064F900BFB1E757694669B5
:104660005F53686F774B65794D6174657269616CF2
:1046700073206661696C6564210A00005B574550D0
:104680005D2000005B50544B5D2000005B47544BA5
:104690005D200000747970653D25642C20696E668C
:1046A0006F3D307825782C206C656E3D25640000C8
:1046B0002C20696E6465783D25642C2069735F64E5
:1046C000656661756C743D25640A00000A0000008F
:1046D0004E6F206B6579206D6174657269616C73D2
:1046E000210A00002DE9FF5F07468B469046994658
:1046F000DFF888A049464046FDF788FB08B1BDE8D1
:10470000FF9F0120AAF80C007868A8B10AF10E04F6
:10471000002020807868FBF797FF60806088202861
:1047200001D9202060806288201D7968FBF750FF46
:104730006088001D051901E00AF10E0540F21F1006
:10474000288002206880A5F804B06888001D4619FA
:10475000C6F80080C6F8049002204FF47A71084A27
:10476000CDE90026CDE902100448301A82B21123A7
:104770000249B020FFF73CFB00BFC0E778010020F2
:10478000854700082DE9FF4704460E4690460EB9BE
:10479000002002E0B088C0F30E00814627463D6845
:1047A000D7F804A0B8F1000F0AD0494614A000F0D1
:1047B000B7F81DB1424631465046A847BDE8FF87CD
:1047C000B9F1B00F03D0B9F1B10F15D10EE002204D
:1047D0004FF47A71144A1123CDE90024CDE9021077
:1047E0000C221249B120FFF703FB05E01DB1424640
:1047F00031465046A84700BF00BF00BFDEE70000BB
:10480000576946695F53746172744D6963726F4191
:1048100050206661696C65642120636D643D307869
:10482000253034780A000000854700087801002010
:104830007FB504460D4602204FF47A7100230C2206
:10484000CDE90045CDE9021002494020FFF7D0FA3A
:104850007FBD00007801002070B504460D46164665
:10486000287820806878B04201DD668001E06878B1
:1048700060803146201DFBF7D2FE6288A91C201DF6
:10488000FBF7A6FE60886978884201D1012070BDDF
:104890000020FCE770B504460D461646207A40B16C
:1048A00000202072206820B132462946D4E9003029
:1048B000984770BD2DE9F04104460D4609F0FEFD14
:1048C00007460CE009F0FAFDC61B45B1AE4206D919
:1048D00021460BA000F024F80020BDE8F081032160
:1048E0000120FEF76DFA2040A042EBD1032020EA20
:1048F000040201460120FEF763FD0120EDE7000000
:10490000576946695F576169742830782530327875
:10491000293A2074696D656F7574210A00000000E2
:104920000FB4054B10B503A9044A029800F0CAF869
:1049300010BC5DF814FB000095930008F000002007
:1049400002E008C8121F08C1002AFAD17047704758
:10495000002001E001C1121F002AFBD170470000B6
:104960002DE9FF5FDDE90220010DDDF838B00243DB
:1049700018D044F61050A1F2FF3141430D140F98A6
:10498000012820D0A5EB0B00401C5FEA000A4FF085
:104990000004474EDFF81C91A046504616D5CAF1D8
:1049A000000728E00F98012443A2012808D0002125
:1049B00000980F9BC0E90021C0E90243BDE8FF9FBA
:1049C0006FEA0B01F4E7CBF10000DEE7074612E0E7
:1049D000F80707D02246334640464946FBF730FFEA
:1049E000804689462246334610461946FBF728FF83
:1049F00004460E467F10002FEAD1DDE90201BAF12C
:104A0000000F42464B4602DAFBF71AFF01E0FCF7C3
:104A100053F904460E460022284BFCF7D5F903D87B
:104A20004FF0FF30014607E00022254B204631467B
:104A3000FCF79BF8FCF7AFF9102409E0002C0ADB27
:104A40000A220023FBF7C0FF019B30321A55641E77
:104A500050EA0102F2D1641C019AC4F1110314441A
:104A60000F9A012A03D0012208430DD10AE008431E
:104A700004D000204FF0110B0F9080E7A3EB0B0543
:104A80006D1E0DE05B4504DD4FF0000205F10105F0
:104A900004E003DA4FF00002A5F10105002AECD092
:104AA00000980F99C0E90231C0E9004586E700008F
:104AB000000024400000F03F300000000000F04300
:104AC0000000E03F2DE9FF4F95B09B468946064622
:104AD00000250FE2252877D100242746F84A012136
:104AE000059400E0044316F8013F203B01FA03F06F
:104AF0001042F7D130782A2811D06FF02F03307888
:104B0000A0F13002092A16D8059A44F0020402EBFB
:104B1000820203EB42021044761C0590EFE759F83D
:104B2000042B0592002A03DA504244F40054059005
:104B300044F00204761C30782E2816D116F8010FA6
:104B400044F004042A280DD06FF02F023078A0F131
:104B50003003092B09D807EB870302EB4303C7187F
:104B6000761CF3E759F8047B761C30786C280FD05C
:104B700006DC4C2817D068280DD06A2814D104E030
:104B8000742810D07A280FD10DE044F400140AE004
:104B900044F4801401E044F440147278824202D15B
:104BA00004F58014761C761C307866280BD013DC54
:104BB000582877D009DC002875D04528F6D046283B
:104BC000F4D047281AD19DE118E0632835D0642835
:104BD00079D0652812D195E1702873D008DC672858
:104BE000F1D069286FD06E280DD06F2806D1B5E0BE
:104BF00073282CD0752875D0782874D05A46179908
:104C000090476D1C75E1C4F30250022809D00328B7
:104C10000DD0D9F8001004280DD00D6009F1040959
:104C200067E1D9F80010EA17C1E90052F6E7D9F8B0
:104C300000100D80F2E70D70F0E719F8041B8DF8F5
:104C4000001000208DF80100EA46012003E059F829
:104C500004AB4FF0FF3061074FF0000102D40DE0CC
:104C600008F101018846B9420FDA8045F8DB1AF8ED
:104C700008100029F4D108E008F1010188468142BA
:104C8000FADB1AF808100029F6D105985B46A0EB6C
:104C9000080721463846179A00F094FA284400EB9A
:104CA000080507E04DE029E10DE01AF8010B5A462E
:104CB00017999047B8F10108F7D25B46214638466C
:104CC000179A13E142E00A220092C4F302524FF015
:104CD000000A022A08D059F804CB032A4FEAEC71E3
:104CE0000AD00DE029E02AE009F1070121F00702CE
:104CF000F2E802C1914609E00FFA8CFC4FEAEC7130
:104D0000042A03D14FFA8CFC4FEAEC71002907DA30
:104D10000A460021DCF1000C61EB02012D2202E0C9
:104D2000220504D52B228DF80420012203E0E2079E
:104D300001D02022F7E7904659E00A2102E0102234
:104D40000DE010214FF0000A00910BE010224FF00F
:104D5000000A44F004040827009203E008224FF000
:104D6000000A0092C4F30252022A05D059F804CB7B
:104D70000021032A08D009E009F1070121F0070208
:104D8000F2E802C1914605E01FFA8CFC042A01D129
:104D90000CF0FF0C4FF00008220728D5702806D031
:104DA000009B83F0100353EA0A0305D00EE0402273
:104DB0008DF80420012208E05CEA010206D03022CE
:104DC0008DF804208DF8050002229046009B83F0A8
:104DD000080353EA0A030AD15CEA010201D162071F
:104DE00005D530228DF804204FF001087F1E582889
:104DF00004D034A003900EA802900DE036A0F9E78D
:104E000053466046009AFBF7DFFD84460398825CB8
:104E10000298401E029002705CEA0100F0D10298F4
:104E200006A9081A00F1200A600702D524F480348C
:104E300000E00127574502DDA7EB0A0000E0002053
:104E400000EB0A01009005984144401A0590E003E8
:104E500006D45B462146179A059800F0B3F905443D
:104E6000002706E001A85A46C05D179990476D1CBF
:104E70007F1C4745F6DBE0030CD55B462146179ABD
:104E8000059800F09FF9054404E030205A46179930
:104E900090476D1C0099481E00900029F5DC08E041
:104EA000029802995A460078491C02911799904736
:104EB0006D1CBAF10001AAF1010AF1DC65E1000004
:104EC00009280100303132333435363738396162E0
:104ED00063646566000000003031323334353637A4
:104EE00038394142434445460000000000F058F97B
:104EF0000544761C307800287FF4ECAD19B02846C4
:104F0000BDE8F08F620700D4062709F1070222F0FE
:104F1000070CFCE80223E14603F000485FEA080CB6
:104F200002D00FF2702C0DE05FEA045C02D50FF2A4
:104F3000682C07E05FEAC47C02D00FF2602C01E02D
:104F4000AFF2700C4FF0FF3823F00043CDF850C0A3
:104F500065280CD006DC452809D046281DD04728F6
:104F60003DD13DE0662818D067287ED138E0002189
:104F7000112F01DB112000E0781CCDE9000106A90A
:104F80000EA8FFF7EDFCDDE90F010E9A0391002159
:104F9000009207F1010A04914DE04FF000400097A4
:104FA000CDE9011006A90EA8FFF7DAFCDDE90F0232
:104FB00003920E9B11990022DDF80CA0009304923D
:104FC00011B9791C00EB010AB7EB0A0004D4C0F157
:104FD000FF3007F1010A0490AAEB0700019044E0BA
:104FE000012F00DA01270021112F01DD112000E03F
:104FF0003846CDE9000106A90EA8FFF7B1FCDDE9AE
:105000000F010E9A0391002104910092BA462107E4
:105010000CD40399514500DA8A46BAF1010F05DD37
:10502000009AAAF10101515C302908D0B84202DA95
:1050300010F1040F06DA0121CDE9011015E0AAF103
:105040000101E9E7002805DC049901440491AAEB79
:10505000000102E0411C514500DD8A460499401AD6
:10506000401C01904FF000400290200704D40198AA
:10507000504501DBCDF8048000208DF84F000298E8
:105080000DF14F07B0F1004F25D02B200E90029864
:105090004FF0020800280CDA404202902D200E90BA
:1050A00007E00A210298FBF779FC3031029007F8FB
:1050B000011DB8F10001A8F10108F2DC02980028F6
:1050C000EFD1791E0E980870307800F0200040F083
:1050D000450007F8020D12A8C01B00F1070814983C
:1050E000007800B1012000EB0A01019801EBE071AA
:1050F00005984144401A401E0590E00306D45B46E3
:105100002146179A059800F05DF805441498007838
:1051100018B15A46179990476D1CE00324D55B4699
:105120002146179A059800F04DF805441CE00498B4
:10513000002807DBDDE90301884203DD0098405CBD
:10514000179901E0179930205A469047049805F1C5
:105150000105401C04900198401E019004D12E20AE
:105160005A46179990476D1CBAF10001AAF1010A3D
:10517000DDDC05E017F8010B5A46179990476D1CC6
:10518000B8F10001A8F10108F4DC5B462146179A4A
:105190000598ABE62D0000002B0000002000000069
:1051A0002DE9F041044600251E461746880404D424
:1051B00005E039462020B0476D1C641EF9D528460D
:1051C000BDE8F0812DE9F041044600251E469046D9
:1051D000C80301D5302700E02027880404D505E066
:1051E00041463846B0476D1C641EF9D52846BDE8D7
:1051F000F081000070B505460E46144634B1012C0E
:105200000CD0062C06D0072C10D10BE00BA0FFF71A
:1052100087FB10E00DA0FFF783FB0CE010A0FFF769
:105220007FFB08E014A0FFF77BFB04E021461AA0F7
:10523000FFF776FB00BF00BF70BD00004173736FC6
:10524000636961746564210A000000005353494496
:10525000206E6F7420666F756E64210A0000000076
:105260004173736F63696174696F6E206661696C05
:105270006564210A0000000057616974696E672047
:10528000666F722061757468656E746963617469B4
:105290006F6E210A00000000556E6B6E6F776E20F6
:1052A0006572726F7221207374617475733D256429
:1052B0000A0000001FB502208DF8040006A002902D
:1052C00008A003900020104B421E0146009001A848
:1052D000FCF7AAFB1FBD00004F6374313135382D38
:1052E000320000007769354E6B6A39514842696770
:1052F00071526D63586F78383675353434424E4983
:105300007A4D397200000000F55100082DE9F04196
:1053100005460AF0BCFF064626B911A0FFF700FBC0
:10532000BDE8F0811349304609F0FCFF284605F03E
:105330004FFF0746394610A0FFF7F2FA144B5022F0
:105340002946304609F0F8FC044634B1304609F0ED
:1053500089FB21460FA0FFF7E3FA00BFE0E700005A
:10536000077463705F6E6577206661696C656421A0
:105370000A000000E93C0108436F6E6E65637469C2
:105380006E6720746F2025732E2E2E0A00000000F9
:10539000553C0108436F6E6E656374696F6E2066DD
:1053A00061696C656421206572723D25640A0000A4
:1053B00070B5044625466868804722460249286839
:1053C00009F0A4F870BD0000B153000870B50446A0
:1053D00009F074F8064600BF09F070F8851BA54275
:1053E000FAD970BD70B505460E4600BF65B900BF5D
:1053F0000CA340F27B3212A115A0FFF791FA002016
:10540000002000BFAFF3008000BF2C6A4CB1607A6F
:10541000082806D13068A16A884202D1284600F0E7
:105420002FFB70BD6C7769702D322E302E335C638C
:105430006F72655C697076345C646863702E6300BB
:105440006E6574696620213D204E554C4C0000006D
:10545000417373657274696F6E2022257322206612
:1054600061696C6564206174206C696E65202564D7
:1054700020696E2025730A007CB5064600BF002E09
:105480000CD100BF49A340F2FE324FA155A0FFF757
:1054900047FA0020002000BFAFF3008000BF346A4D
:1054A00000BF64B900BF41A34FF4806257A14DA073
:1054B000FFF736FA0020002000BFAFF3008000BFE6
:1054C00000202084606B401C70B1606B1E303C215A
:1054D000B0FBF1F5B5F5803F01D34FF6FF7565845C
:1054E000608C08B901206084A06B401C80B1A06B67
:1054F0001E303C21B0FBF1F5B5F5803F01D34FF6EE
:10550000FF752583208B08B901202083208BA08381
:10551000E06B401C80B1E06B1E303C21B0FBF1F52C
:10552000B5F5803F01D34FF6FF756583608B08B9F1
:1055300001206083608BE083208B618B884204DBD9
:10554000608B002801DD00202083E07A10B1E06A42
:10555000019010E094F828007F2802DCFF210191DF
:1055600008E0C02803DB6FF07F41019102E04FF6B5
:10557000FF71019100BF206B0090009848B900BFF7
:10558000A06A01990840009000BF009840F0807028
:1055900000900A21204601F04DFD6B4601AA04F15E
:1055A0002801304607F08BFB7CBD00006C776970EA
:1055B0002D322E302E335C636F72655C69707634E9
:1055C0005C646863702E6300646863705F62696E18
:1055D000643A206E6574696620213D204E554C4C1E
:1055E00000000000417373657274696F6E2022259C
:1055F0007322206661696C6564206174206C696E39
:105600006520256420696E2025730A006468637034
:105610005F62696E643A206468637020213D204EA9
:10562000554C4C002DE9F04105462C6A08212046D6
:1056300001F000FD002204F12801284603F014FACD
:105640000746A07AFF2802DAA07A401CA0724FF425
:10565000FA7606F2F310314690FBF1F0E082BDE8F5
:10566000F081000070B5184805682AE02C6A34B350
:10567000607A20B3608C68B1208C401C80B220849A
:10568000618C884206D1284601F096FB284600F03E
:10569000DDFA14E0E08B40B1E18B481EE083012984
:1056A00003D1284601F03BFE09E0A08B38B1A18B65
:1056B000481EA083012902D1284601F00FFE2D6863
:1056C00000BF002DD2D170BD540000202DE9F04163
:1056D00007460C46164600BF002F0CD100BF73A32F
:1056E00040F21D7278A180A0FFF71AF90020002077
:1056F00000BFAFF3008000BF00BF002C0CD100BF83
:105700006AA340F21E7282A177A0FFF709F9002078
:10571000002000BFAFF3008000BF00BFE06800289A
:105720000CD000BF61A340F21F7281A16EA0FFF7F1
:10573000F7F80020002000BFAFF3008000BF00BFDB
:10574000206900280CD000BF58A34FF4E46282A166
:1057500065A0FFF7E5F80020002000BFAFF3008050
:1057600000BF00224FF49A71104607F041FBE06041
:10577000E06818B94FF0FF30BDE8F08100BFE06885
:105780004089B0F59A7F0CD200BF48A340F227723F
:105790007BA155A0FFF7C4F80020002000BFAFF3A5
:1057A000008000BF032E02D1607A032808D1A07ABE
:1057B00018B9FAF7E7FC8249086081480068206060
:1057C000E068406820610120216908702169487003
:1057D00097F82E002169887000202169C870206820
:1057E00006F0ECF9216948600020216908812169EF
:1057F00048812169C860082E0BD0042E09D0072EDD
:1058000007D0032E08D1607A052802D0607A0428D8
:1058100002D178682169C860002021690861216986
:1058200048612169886100250FE097F82E00A842A1
:1058300005DD062D03D207F12F00405D00E00020BA
:1058400021691C314855681C85B2102DEDD3002507
:1058500005E0002120692C304155681C85B2402D9F
:10586000F7D3002505E0002120696C304155681C04
:1058700085B2802DF7D353482169C1F8EC00002090
:10588000A082002504E02069F0304555681C85B2EF
:10589000442DF8D301223521204600F087FB314604
:1058A000204600F0CDFB002066E700006C776970B1
:1058B0002D322E302E335C636F72655C69707634E6
:1058C0005C646863702E6300646863705F63726514
:1058D0006174655F6D73673A206E65746966202137
:1058E0003D204E554C4C0000417373657274696FD6
:1058F0006E2022257322206661696C6564206174C4
:10590000206C696E6520256420696E2025730A006D
:10591000646863705F6372656174655F6D73673A35
:10592000206468637020213D204E554C4C000000DF
:10593000646863705F6372656174655F6D73673A15
:1059400020646863702D3E705F6F7574203D3D204C
:105950004E554C4C00000000646863705F637265D4
:105960006174655F6D73673A20646863702D3E6D86
:1059700073675F6F7574203D3D204E554C4C0000A1
:10598000646863705F6372656174655F6D73673AC5
:1059900020636865636B2074686174206669727344
:1059A0007420706275662063616E20686F6C64207D
:1059B00073747275637420646863705F6D736700DD
:1059C000C80000206382536310B500BF1048007800
:1059D00000280BDC00BF0FA3F32215A11DA0FEF7CA
:1059E0009FFF0020002000BFAFF3008000BF0848E9
:1059F0000078401E064908700846007830B91F48F4
:105A000000680EF0C5FB00201C49086010BD0000B6
:105A1000C40000206C7769702D322E302E335C6309
:105A20006F72655C697076345C646863702E6300C5
:105A3000646863705F7063625F726566636F756EE2
:105A40007428293A20726566636F756E74206572DA
:105A5000726F7200417373657274696F6E202225D4
:105A60007322206661696C6564206174206C696EC4
:105A70006520256420696E2025730A00C00000207F
:105A80002DE9FC4105462C6A00260C21204601F038
:105A9000D1FA042221462846FFF718FE064616BB17
:105AA00004223221204600F081FAA06A06F086F82E
:105AB00080464146204600F09DFB204600F058FC01
:105AC000A28AF03291B2E06808F080F80F48CDE980
:105AD000005043230E4A0F48E16800680EF0C2FBF5
