:020000040800F2
:10000000D85D00202567000821120008231200088F
:10001000271200082B1200082F1200080000000011
:100020000000000000000000000000003312000883
:10003000351200080000000035AA00083712000839
:100040003F6700083F6700083F6700083F670008F8
:100050003F6700083F6700083F6700083F670008E8
:100060003F6700083F6700083F6700083F670008D8
:100070003F6700083F6700083F6700083F670008C8
:100080003F6700083F6700083F67000867170008E0
:10009000051700083F670008551700085966000853
:1000A0003F6700083F6700083F6700083F67000898
:1000B0003F6700083F6700083F6700083F67000888
:1000C0003F6700083F6700083F6700083F67000878
:1000D0003F6700083F6700083F6700083F67000868
:1000E0003F6700083F6700083F6700083F67000858
:1000F0003F6700083F6700083F6700083F67000848
:100100003F6700083F6700083F6700083F67000837
:100110003F6700083F6700083F6700083F67000827
:100120003F6700083F6700083F6700083F67000817
:100130003F6700083F6700083F6700083F67000807
:10014000151800083F6700083F6700083F67000870
:100150003F6700083F6700083F6700083F670008E7
:100160003F6700083F6700083F6700083F670008D7
:100170003F6700083F6700083F6700083F670008C7
:100180003F6700083F67000800F002F800F05CF8E5
:100190000AA090E8000C82448344AAF10107DA45E2
:1001A00001D100F051F8AFF2090EBAE80F0013F0D8
:1001B000010F18BFFB1A43F0010318479CCD000044
:1001C000BCCD00000A444FF0000C10F8013B13F0C6
:1001D000070408BF10F8014B1D1108BF10F8015BA0
:1001E000641E05D010F8016B641E01F8016BF9D193
:1001F00013F0080F1EBF10F8014BAD1C0C1B09D1EA
:100200006D1E58BF01F801CBFAD505E014F8016B5B
:1002100001F8016B6D1EF9D59142D6D370470000ED
:100220000023002400250026103A28BF78C1FBD8FF
:10023000520728BF30C148BF0B6070471FB50CF094
:10024000D1FB1FBD10B510BD0AF0E4FC1146FFF74D
:10025000F5FF00F036FF0AF002FD03B4FFF7F2FFEE
:1002600003BC0AF003FD00007FB5684606F03FFDC1
:100270004FF47A720198B0FBF2F1481EB0F1807F22
:1002800000D319E0481E4FF0E022506150170F22B2
:10029000002806DA1301FE4C00F00F052D1F6355F0
:1002A00002E01301FB4C235400BF00204FF0E0227A
:1002B00090610720106100BF7FBD86B0002400BFA1
:1002C00041F288300AF072FA41F288300AF06EFA90
:1002D000F14800780228F3D1002419E03120019080
:1002E00001208DF80F0050218DF8111046218DF856
:1002F000121098218DF813103A218DF8141001A9CD
:10030000E648006809F082FCC8200AF04FFA641C35
:100310005A2CE3DB002418E03120019001208DF8F5
:100320000F0000218DF811108DF8121098218DF812
:1003300013103A218DF8141001A9D848006809F06B
:1003400065FCC8200AF032FA641C5A2CE4DB002455
:1003500019E03120019001208DF80F0050218DF817
:10036000111046218DF8121098218DF813103A21A2
:100370008DF8141001A9C948006809F047FCC8208D
:100380000AF014FA641C5A2CE3DB002418E0312034
:10039000019001208DF80F0000218DF811108DF8CB
:1003A000121098218DF813103A218DF8141001A91C
:1003B000BA48006809F02AFCC8200AF0F7F9641C62
:1003C0005A2CE4DBB648007802283FF479AF0024C9
:1003D00019E03220019001208DF80F00C8218DF81E
:1003E000111019218DF81210B8218DF813100B215E
:1003F0008DF8141001A9A948006809F007FCC8206D
:100400000AF0D4F9641C4B2CE3DB002419E0322001
:10041000019001208DF80F0060218DF8111022212C
:100420008DF81210B8218DF813100B218DF81410CF
:1004300001A99A48006809F0E9FBC8200AF0B6F95A
:10044000641C4B2CBFF63CAFE1E7002400BF012049
:1004500094490870002094490870944908709048A5
:10046000007806F0BFF804469148047003E041F2BA
:1004700088300AF09BF9FAE708B500BF6A46002108
:100480008C48006808F094FD04469DF800000028A0
:10049000F4D16A4600218848006809F027F8D4E9B9
:1004A0000032D4E9020105F0E1FB8348006809F05D
:1004B0004AF9012081490870002081490870DDE770
:1004C00008B500BF6A4600217E48006808F070FD4C
:1004D00004469DF800000028F4D16A4600217648C1
:1004E000006809F003F8D4E9001005F03EFC7248FA
:1004F000006809F028F90120734908700020734949
:100500000870DFE708B500BF6A46FA217048006846
:1005100009F0B2FA0446604800780228F4D19DF848
:10052000000000284ED16B48007840B100206A4995
:100530000860684908704FF032000AF037F96748E0
:10054000007808B9E07A78B9002065490870012080
:100550006449087048706448006808F0E6FD4EF68B
:10056000602062490860CFE7E07A0128CCD10F20F3
:10057000005B5F4908600D20005B5E4908605E48D3
:1005800000685B490968884205D1584800685949A4
:10059000096888420DD05648006858494860554857
:1005A000006808604348006808F0BFFD0120444926
:1005B00008704F480068504908604E4800684B4931
:1005C0000860A1E74E48007800289DD000204449EB
:1005D000087001204349087048704348006808F0DB
:1005E000A4FD4EF66020414908608DE708B500BFC4
:1005F0006A46FA214348006809F03EFA0446264854
:1006000000780228F4D19DF8000000283ED1032094
:1006100004F07AFA0546C5F3C00058B13A480068BC
:1006200010B93A48006828B1012005F063F932207A
:100630000AF0BCF82948007808B9E07A80B90020AF
:100640003349087002202749087001204870264865
:10065000006808F06AFD4EF660202E490860C7E782
:10066000E07A0128C4D10F20005B2B4908600D20DF
:10067000005B2A4908602A480068274909688842BF
:1006800052D124480068254909684BE063E0000026
:1006900018ED00E000E400E0000000205000002021
:1006A0000D000020010000200600002007000020AF
:1006B0000A000020580000208000002005000020D3
:1006C000440000205C0000200400002045000020C1
:1006D000480000209409002098024042B1090020FF
:1006E0000B0000209400002060000020300000205B
:1006F00024000020280000202C000020D0410020F1
:10070000970900204C00002034824142308241424F
:100710000C000020400000203400002038000020A1
:100720003C00002088420DD0FD480068FD4948602B
:10073000FD4800680860FD48006808F0F6FC0120EC
:10074000FB490870F6480068FA490860F6480068F6
:10075000F94908604CE7F94800780028FAD00020F1
:10076000F74908700220F749087001204870F648E0
:10077000006808F0DAFC4EF66020EF49086037E7C1
:1007800008B500BF6A460021EF48006808F010FC79
:1007900004469DF800000028F4D1EC4800780228B7
:1007A00013D12078012820D16A460021E84800684A
:1007B00008F09CFE61782278521ED0B204F093FFBC
:1007C000E348006808F0BFFF0FE06A460021E048F8
:1007D000006808F08BFE61782278521ED0B204F0D7
:1007E00082FFDB48006808F0AEFF2078012802D1C4
:1007F000D8490870C6E72078022803D10120D049E3
:100800000870BFE70020D3490870CD490870B9E7E8
:100810008AB000BFD048007804F010FBCB480178C4
:1008200001A804F0D5FC01A80FC8CDE90723CDE944
:10083000050109AA0021C948006808F057FE05A86B
:100840000FC804F062FCC548006808F07CFF642013
:1008500009F0ACFFDEE78AB0002007900890059011
:1008600006908DF809008DF8080000F0CAFE4320BC
:10087000009005208DF80A00FF208DF80B00022162
:100880008DF80C1005218DF80D1018218DF80E1023
:10089000B34801788DF80F106946B24806F02AFE79
:1008A000642009F083FF00BF09AA0021AE48006858
:1008B00009F0E2F80446206833287DD006DC3028B1
:1008C0000BD0312863D0322860D192E0362874D022
:1008D000372873D03F28F7D10BE240200090012049
:1008E0008DF80A0030208DF80B00E07A30B1012835
:1008F0001AD0022825D0032840D139E09B4800783F
:10090000012810D0A07A01280DD10121032004F084
:1009100006FC0120964908700F208F490870954801
:10092000006809F0FAFB29E0002004F0E3FF322020
:1009300009F03CFF012004F0DDFF322009F036FF12
:100940001CE08A480078022811D1002005F014F834
:10095000052009F02BFF0121022004F0E0FB01201B
:10096000854908608549C1F89C028549087005E001
:100970000020814908608249087000BF00BF6946B5
:10098000784806F0B7FD012009F010FFEFE14120A3
:10099000009001208DF80A0031208DF80B00694687
:1009A000704806F0A7FD7749097801EB8101764A86
:1009B00002EB8100142202E04CE03CE16AE12146B6
:1009C0000AF0B9F86F4802780078401C6D4B187037
:1009D00002EB82006C4A02EB80016C48006809F06F
:1009E00015F9684800781E2802D100206549087072
:1009F000BDE14220009001208DF80A0032208DF8E0
:100A00000B006946574806F075FD012009F0CEFE3F
:100A10005F49097801EB81015E4A02EB81001422F3
:100A200021460AF088F85A4802780078401C584B52
:100A3000187002EB8200574A02EB800156480068AA
:100A400009F0E4F8524800781E2802D100205049ED
:100A500008708CE143200090E07AFB285FD0FC28EE
:100A60003AD0FD2815D0FF2812D105208DF80A00B4
:100A7000FF208DF80B0002218DF80C1005218DF858
:100A80000D1018218DF80E10354801788DF80F10D3
:100A9000C8E008208DF80A00FD208DF80B003F48C3
:100AA00001788DF80C10401C01788DF80D10401C59
:100AB00001788DF80E10401C01788DF80F10401C45
:100AC00001788DF81010401C01788DF81110401C31
:100AD00001788DF81210A5E001208DF80A00FC20A5
:100AE0008DF80B0007F0A5FF07F02CF9002007F0A8
:100AF0000CF90221302007F079F9217B274807F013
:100B0000E7FA617B2548401C07F0E2FAA17B234805
:100B1000801C07F0DDFAE17B2048C01C40E057E074
:100B2000340000208C000020380000205C000020F1
:100B3000450000203C0000204000002098090020D3
:100B40000C00002094000020600000200D00002018
:100B5000800000200B0000200A0000207C00002004
:100B600000000D080064004050000020000000203C
:100B70000100002084000020980240420000404212
:100B80009409002088000020E04100204800002057
:100B900018000020384400204C0000200008050800
:100BA00007F096FA217CFE4807F092FA617CFC4837
:100BB000401C07F08DFAA17CF948801C07F088FAE8
:100BC000012007F0A2F807F0CAF807F04BFF29E070
:100BD00001208DF80A00FB208DF80B00F148007809
:100BE000032804DCEF480178207B814219D007F00C
:100BF00020FF07F0A7F8002007F087F80221502017
:100C000007F0F4F8217BE74807F062FA012007F0CB
:100C10007CF807F0A4F807F025FFE2480078E249E5
:100C2000087000BF00BF6946E04806F063FC012081
:100C300009F0BCFD9BE054F80B0F0790606808902A
:100C4000082207A9012004F0A2FA0120D84908705F
:100C500009AA4FF4FA61D748006809F0ADF99DF888
:100C6000240060B9002005900690D34801680591E2
:100C70004068069005A9462000F0D0FC09E000205D
:100C800005900690FF208DF8140005A9462000F07D
:100C9000C5FC6CE054F80B0F0790606808900822C0
:100CA00007A9022004F073FA0120C149087009AABB
:100CB0004FF4FA61C148006809F07EF99DF82400FC
:100CC00060B9002005900690BB4801680591406816
:100CD000069005A9472000F0A1FC09E0002005903E
:100CE0000690FF208DF8140005A9472000F096FC1F
:100CF0003DE04F200090E07A20B101280CD0102870
:100D000028D112E001208DF80A0000208DF80B0098
:100D10000A2009F047FC21E001208DF80A008DF837
:100D20000B000A2009F0A7FC18E0012080F31388CB
:100D300000BF00BFBFF34F8FA148006800F4E06020
:100D4000A0490843001D9E490860BFF34F8F00BFB4
:100D500000BFFEE7EE208DF80B0000BF00BF694624
:100D6000924806F0C7FB012009F020FD00BF9BE57B
:100D70008AB000BF6A4600219348006808F018F95D
:100D80000446607A8DF81D00207A8DF81C00A07A48
:100D90008DF81E0020680590002507E004F10B0087
:100DA000415D0DF11F004155681CC5B2082DF5DBF2
:100DB00001A905A800F08AFC0198C0F3C7162068B5
:100DC000A0F5E06101390CD1E07A0F2809D07F4805
:100DD000007830B97E48006809F09FF901207B490E
:100DE00008702068A0F5E06102390CD1E07A0F2884
:100DF00009D07848007830B97748006809F08DF953
:100E00000120744908702068A0F50071813915D15E
:100E1000E07A372812D1207BC0F3800070B1207BAC
:100E200010F0010F0AD16D480078012806D16C48F6
:100E3000006809F072F90020684908702068A0F580
:100E40000071813902D10020664908702068B0F530
:100E5000C17F15D1E07A372812D1207BC0F3800002
:100E600070B1207B10F0010F0AD15F480078012893
:100E700006D15E48006809F050F900205A49087010
:100E80002068B0F5C17F02D1002059490870206860
:100E9000A0F5A061813911D14548007801280DD114
:100EA0000020434908704448D4F80B100160D4F87E
:100EB0000F1041603F48006809F02FF9207B01289E
:100EC0000ED1607B10280BD12068A0F5A06181397C
:100ED00006D10020434908700F2000594549086099
:100EE0002068A0F5A061823911D13148007801282D
:100EF0000DD100202E4908702F48D4F80B10016046
:100F0000D4F80F1041602D48006809F006F9207BE5
:100F100001280ED1607B10280BD12068A0F5A061BC
:100F2000823906D10020324908700F200059324919
:100F30000860C6EBC600314901EB800080690028DB
:100F40003FF418AFC6EBC60001EB800001A982692F
:100F5000002090470EE770B505460923284A002176
:100F6000284809F057F904460423274A0021274856
:100F700009F050F904460E23254A0021254809F0BE
:100F800049F904460F23244A0021244809F042F974
:100F900004460823224A0021224809F03BF943E095
:100FA0000408050800000D080D0000200064004042
:100FB000210000207400002019000020780000208B
:100FC0000CED00E00000FA055400002006000020AF
:100FD00064000020070000206800002008000020B6
:100FE0006C000020950900200900002070000020FE
:100FF000960900201000002014000020CC000020E2
:10100000EC13002057080008EC370020BB02000852
:10101000EC2B002079040008EC2F0020C10400080C
:10102000EC3300208107000804460A23594A0021B6
:10103000594809F0EFF804460C23584A0021584853
:1010400009F0E8F804460D23564A0021564809F0F5
:10105000E1F8044641F2883009F0A8FB0B23534A1B
:101060000021534809F0D6F804460CB100BFFEE752
:10107000FF2009F069F970BD70B50546FFF7F4F877
:101080004C480078032803DD00204B49087003E03A
:1010900048480078484908700723484A00214848D2
:1010A00009F0B8F804460323464A0021464809F0EF
:1010B000B1F804460CB100BFFEE7FF2009F044F987
:1010C00070BD08B500F0D0FB05F0E7FA00F0C2F9FA
:1010D00007F057FC1E213D4808F0FAFB3C49086028
:1010E0001E213C4808F0F4FB3B4908601E213B48A8
:1010F00008F0EEFB3A490860002007F0CCFE3949C1
:101100000860002007F0C7FE37490860002007F09C
:10111000C2FE36490860002007F0BDFE3449086071
:10112000002008F0BCFE33490860002008F0B7FE3C
:1011300031490860002008F0B2FE30490860002004
:1011400008F0ADFE2E490860002008F0A8FE2D49E9
:101150000860002008F0A3FE2B490860002008F07A
:101160009EFE2A4908606946052008F0B7F828491C
:1011700008606946062008F0B1F826490860022395
:10118000254A0021254809F045F807F094FC002085
:1011900008BD0000EC1B002011080008EC3B0020FB
:1011A00005050008EC3F0020ED050008EC270020B5
:1011B0004B04000800000D080D000020EC1F00206B
:1011C000710D0008EC230020570F0008E0400020BC
:1011D00048000020584100204C000020F03F002033
:1011E0005000002054000020580000205C00002027
:1011F0006000002064000020680000206C000020D7
:10120000700000208400002074000020780000207E
:101210007C00002080000020EC0B002079100008EA
:10122000704700BFFEE700BFFEE700BFFEE700BF5C
:10123000FEE77047704710B507F0B5FB07F053FCA9
:1012400007F0BFFB10BD00000CB50020019000901E
:101250007548006840F480307349086000BF7248E8
:10126000006800F4003000900198401C0190009844
:1012700018B90198B0F5A04FF1D16B48006810F48F
:10128000003F02D00120009001E000200090009873
:10129000012845D164484030006840F080506249E0
:1012A000403108606148006840F440405F49086090
:1012B0005D48083000685C490831086008460068ED
:1012C00040F4004008600846006840F4A050086000
:1012D0005748091F0860081F006840F08070091F08
:1012E000086000BF5048006810F0007FFAD040F25C
:1012F0000570504908604C480830006820F0030031
:101300004949083108600846006840F0020008605A
:1013100000BF45480830006800F00C000828F8D1EC
:101320000CBD10B54448006840F4700042490860A4
:101330003D48006840F001003B49086000203A4900
:1013400008310860384800683C4908403649086060
:101350003B48091D0860081F006820F48020091F11
:101360000860002030490C310860FFF76DFF4FF036
:10137000006031498039086010BD70B5002000223E
:10138000022300240221284D08352D6805F00C00A9
:1013900020B1042806D0082834D107E0294D2A4E70
:1013A000356033E0294D284E35602FE01E4D2D1D50
:1013B0002D68C5F380541C4D2D1D2D6805F03F018F
:1013C00054B1224DB5FBF1F5174E361D3668C6F304
:1013D000881605FB06F209E01A4DB5FBF1F5124E31
:1013E000361D3668C6F3881605FB06F20E4D2D1D18
:1013F0002D68C5F301456D1C6B00B2FBF3F5124E71
:10140000356003E00F4D104E356000BF00BF064D44
:1014100008352D68C5F303150D4E705D0A4D2D6816
:10142000C540094E356070BD003802400070004074
:1014300019544007003C024088ED00E0FFFFF6FE33
:10144000103000240024F4009800002040787D0132
:101450009C00002000B58BB0F848F94908600020D6
:10146000F849087001210A2005F012FD01214FF012
:10147000C06005F056FD0320099002208DF8280079
:1014800000208DF82A0003208DF8290001208DF816
:101490002B0009A9EC4805F05DFA602009900220B4
:1014A0008DF8280000208DF82A0003208DF82900EF
:1014B00001208DF82B0009A9E44805F04BFA092218
:1014C0000021E14805F0D1FA09220121DE4805F0AA
:1014D000CCFA09220521DD4805F0C7FA09220621C8
:1014E000DA4805F0C2FA4FF4C06005F03BF9142069
:1014F0008DF8200002208DF8210000208DF82200B8
:1015000001208DF8230008A805F031F916208DF888
:10151000200001208DF8210000208DF822000120FC
:101520008DF8230008A805F022F913208DF820007B
:1015300003208DF8210000208DF8220008A805F076
:1015400016F940208DF8200000208DF8210008A811
:1015500005F00DF9BE4805F03BFEBE4805F038FE2B
:1015600005A805F059FF00208DF81A0001208DF81C
:101570001B0000208DF81C008DF81D008DF81E004A
:101580008DF81F008DF816008DF8170005208DF8D6
:10159000180006208DF81900ADF8140005A9AC4814
:1015A00005F02FFE05A9AB4805F02BFE00208DF8B5
:1015B0000E008DF80F0001208DF810004FF4C06070
:1015C000ADF804000020ADF806004FF47E40ADF801
:1015D00008000020ADF80A00ADF80C0001208DF8DD
:1015E000110001A805F097FE0020ADF80800ADF845
:1015F0000A000E208DF80E0001A805F08CFE0BB03D
:1016000000BD10B5012248F60301914806F081F9AA
:10161000012202218F4806F07CF910BD70B586B01A
:1016200005460C460120029000208DF80D008DF833
:101630000C0008208DF80E00019520788DF80F0021
:1016400061788DF81010A1788DF81110E1788DF87F
:10165000121021798DF8131061798DF81410A17989
:101660008DF81510E1798DF8161000BF01A97848A2
:1016700005F040FF06463146754805F0D3FF0120CE
:1016800009F094F8744800780028EFD006B070BDD7
:1016900010B50246106808601079012802D10220B6
:1016A000487201E000204872507988720020087268
:1016B000002306E0901DC45C01F10B00C454581CCB
:1016C000C3B250799842F5DC002010BD10B5024637
:1016D00010680860507A022802D10120087101E0E8
:1016E00000200871907A4871002306E002F10B0097
:1016F000C45C881DC454581CC3B2907A9842F5DC6F
:10170000002010BD10B507F04EF94D4800210268C9
:101710004F4805F0E3FF4A4801685048006808F068
:1017200075FA484800781D2803D100204549087003
:1017300004E044480078401C424908704148007861
:1017400000EB80003D4901EB80003D49086007F057
:1017500038F910BD10B53E4818300468C1143C4833
:1017600006F0D7F910BD10B507F01DF9384808305C
:10177000006810F0010F14D035480830006810F0F0
:10178000020F03D001203449087002E000203249E2
:1017900008702F480830006840F080002C4908315C
:1017A00008602B480830006810F4807F14D0284867
:1017B0000830006810F4007F03D00120264908702B
:1017C00002E000202449087021480830006840F4F5
:1017D00000401F49083108601D480830006810F4B7
:1017E000803F14D01A480830006810F4003F03D03E
:1017F00001201949087002E00020174908701448B8
:101800000830006840F4000011490831086007F012
:10181000D8F810BD10B507F0C6F8114A00210D48E0
:1018200005F05CFF0E480068802804D00C490D4884
:10183000006807F07AFC07F0C4F810BD904600205D
:10184000B0000020B4000020000C02400004024060
:101850000064004000680040AC0000205000002000
:10186000E8480020540000201CB50121084605F07E
:101870000FFB41F6F000009001208DF804000020DD
:101880008DF806008DF8050069462D4805F062F8D0
:101890000121084605F0FCFA4FF48070009000200A
:1018A0008DF804008DF805006946254805F052F8CA
:1018B0000121022005F0ECFA4FF4006000900120B5
:1018C0008DF8040000208DF806008DF805006946AB
:1018D0001C4805F03FF80121042005F0D9FA8020CA
:1018E000009001208DF8040000208DF806008DF88E
:1018F00005006946144805F02DF80121082005F07F
:10190000C7FA4FF4FC40009000208DF804008DF8D9
:10191000050069460D4805F01DF800200C490860D7
:101920004FF001000B49C1F89C020B4908604FF0D1
:1019300000000A49086001F1040108601CBD0000B4
:10194000000002400004024000080240000C024077
:10195000980240420000404294024042AC024042A1
:10196000FE4800787047FD4908707047FC480078D1
:10197000704711B587B09DF81C00F94908709DF8B3
:101980001C0000F5C06006900020042306AA012177
:1019900000904FF4905000F061FE9DF81C0000F59F
:1019A000B06006900020042306AA022100904FF4A4
:1019B000905000F053FE0020012307AA032100905D
:1019C0004FF4905000F04AFEE64B0FCB02AC0FC430
:1019D000002411E002A850F824009DF81C100844CF
:1019E00006900020009004F5A050042306AA0121CF
:1019F00000F034FE601CC4B2DB488089A04201DDE7
:101A0000042CE7DBD74B10330FCBCDE90423CDE912
:101A10000201002411E002A850F824009DF81C10D7
:101A2000084406900020009004F5C050042306AA44
:101A3000012100F013FE601CC4B2CB48008AA04212
:101A400001DD042CE7DB002008B010BD30B500211B
:101A500055E000224FE0002001EB8104C34D05EB6F
:101A6000441402EB820504F8350001EB8104BF4DFC
:101A700005EB441402EB820504EBC504607001EB36
:101A80008104BA4D05EB441402EB820504EBC50456
:101A9000608001EB8104B54D05EB441402EB820537
:101AA00004EBC504207101EB8104B04D05EB441437
:101AB00002EB820504EBC504607101EB8104AB4DC0
:101AC00005EB441402EB820504EBC504A07100236E
:101AD0000DE0002401EB8100A44D05EB401002EB6A
:101AE000820500EBC500C01DC454581CC3B2202B96
:101AF000EFDB501CC2B2042AADDB481CC1B2012985
:101B0000A7DB00210CE0002206E00120984C04EB4A
:101B10008104A054501CC2B2042AF6DB481CC1B296
:101B20000129F0DB002123E000221DE0012001EB70
:101B30000114904D05EBC40402EB021504F81500E6
:101B400000230DE0002401EB01108A4D05EBC000DD
:101B500002EB021500EB4500401CC454581CC3B2F4
:101B6000202BEFDB501CC2B2042ADFDB481CC1B2C1
:101B70000129D9DB00210DE0002207E00F2001EB55
:101B800041047D4D2C44A054501CC2B2032AF5DB05
:101B9000481CC1B20129EFDB002030BD00B585B083
:101BA000802004900020039002900190042304AA56
:101BB0000146009041F2050000F050FD0020042392
:101BC00003AA0146009041F2060000F047FD002004
:101BD000042302AA0146009041F2070000F03EFDF6
:101BE0000020022301AA0146009041F2170000F0F4
:101BF00035FD00206149087005B000BD00205F4937
:101C00000870704770B504462146002000F040FA85
:101C10000546284670BDFEB504460D46042605F56A
:101C2000C060029000200090A0B2334602AA0121B9
:101C300000F014FD05F5B060029000200090A0B205
:101C4000334602AA022100F009FD01950126002079
:101C50000090A0B2334601AA032100F0FFFCFEBDB4
:101C60002DE9F04105460E46002716B1FF20BDE8DC
:101C7000F08100BF2946002002F04EFE04460520F8
:101C800008F094FDB7F57A7F01DBFF20EFE7781CC1
:101C900087B2002CEED0802C01D1FF20E7E7002096
:101CA000E5E72DE9F04105460E4617469846B8F19E
:101CB000000F02D0FF20BDE8F08100BF3B46324656
:101CC0002946002002F0EFFD0028F7D03B463246BF
:101CD0002946002002F0E7FD0446802C01D1FF20B8
:101CE000E9E70020E7E7FEB504460D460127002698
:101CF000029502A803234FF490522146CDE90070CB
:101D0000002002F079FC064631462046FFF7A8FF86
:101D10000020FEBD7FB584B0054616460020019028
:101D20000090A8B2042305AA012100F097FC00202E
:101D300005F50071009088B2012307AA002100F088
:101D40008DFC002005F50071009088B201AB03AA5C
:101D5000002100F053FC00242CE00000B50000201E
:101D6000C8000020F0C90008F8CB0008044A002091
:101D70008C090020A44A0020BE000020B6000020EC
:101D800036F83400010406EBC400007941EA002073
:101D900006EBC4014979084302900020621CD1B2CD
:101DA00005F50072009090B2042302AA00F056FCE0
:101DB000601CC4B29DF81C008442E1DB08B070BD19
:101DC0002DE9FE4F80460C4617461E464FF001098E
:101DD000052008F0EBFC07F10040029002A8042166
:101DE000A2B20123CDE900104146002002F004FC1C
:101DF0008246052008F0DAFC51464046FFF730FFE6
:101E0000FF2801D1BDE8FE8F0DA80121A2B2022357
:101E1000CDE900104146002002F0EEFB824605208D
:101E200008F0C4FC51464046FFF71AFF002002901C
:101E300002A8CDE9009004F5007082B2002341466B
:101E4000184602F0D9FB8246052008F0AFFC514647
:101E50004046FFF705FF002523E036F83500010472
:101E600006EBC500007941EA002006EBC50149797F
:101E70000843029002A80421CDE90010681CC3B2F7
:101E800004F5007082B24146002002F0B5FB8246A4
:101E9000052008F08BFC51464046FFF7E1FE681C28
:101EA000C5B29DF830008542D7DB0CA8CDE9009083
:101EB00004F5007082B200234146184602F09CFBF4
:101EC0008246052008F072FC51464046FFF7C8FEE6
:101ED000029702A80421A2B20123CDE900104146D5
:101EE000002002F089FB8246052008F05FFC514685
:101EF0004046FFF7B5FE00BF84E7FEB505460E4637
:101F000001960020012301AA0146009041F216002B
:101F100000F0A4FB002413E015F8240005EB840175
:101F2000498860F31F41029100200090601CC1B2FB
:101F3000042302AA41F2160000F090FB601CC4B218
:101F4000B442E9DBFEBD1CB5044601940020022327
:101F500001AA0146009041F2170000F07FFB1CBD72
:101F60002DE9FE4306460D46174600241AE015F8F3
:101F7000240005EB8401498860F31F41029102A807
:101F80000421CDE90010601CC3B241F216023146B3
:101F9000002002F031FB804641463046FFF760FEEC
:101FA000601CC4B2BC42E2DBBDE8FE8333B583B043
:101FB000044604A80221002341F21702CDE90010D3
:101FC0002146184602F018FB054629462046FFF731
:101FD00047FE05B030BD13B582B004460020009026
:101FE000A0B2012303AA022100F038FB1FBD77B580
:101FF00083B004460D4605A80121AAB20223CDE90B
:1020000000102146002002F0F7FA0646314620462D
:10201000FFF726FE06B070BD01B582B00020042394
:1020200002AA0146009041F2060000F017FB0EBD27
:10203000FFB583B005460C461E4605A804210023C3
:1020400041F20602CDE900102946184602F0D4FA02
:10205000074639462846FFF703FE0A2008F0A6FB8C
:102060000EB9029402E004F18040029002A804211B
:10207000002341F20502CDE900102946184602F07E
:10208000BBFA074639462846FFF7EAFD07B0F0BD20
:1020900010B5024602EB42037E4C2344585C10BD4F
:1020A000352803D101217C4A117004E0332802D184
:1020B0000021794A117070472DE9F04F8DB0064626
:1020C0000C46207800F07F050DF1140B20790128D3
:1020D0002FD172480078854227D17048007800F5EA
:1020E000E060019001208DF8090000208DF80800C3
:1020F0006B4800788DF80A006A48007848B19DF86E
:102100000A0040F080008DF80A0000206549087040
:1021100002E001206349087008A901A8FFF7B8FA96
:1021200008A9614805F0E6F900BF01200DB0BDE83F
:10213000F08F2079002851D1A07900F07F0006EBC4
:102140004601544A1144485506EB460011460844DE
:10215000405D08B90120E9E706EB46004D49084417
:10216000405D0F283AD000205B4607AA0146009048
:1021700041F2160000F042FA80BB079800780A2866
:1021800002DD4FF00A0802E0079890F8008000276F
:1021900022E000200090781CC1B25B4606AA41F202
:1021A000160000F02BFAA8B9069800881FFA80F9EB
:1021B00006980068C0F3074AB9F1000F0AD05545E8
:1021C00008D135480078012804D13320FFF768FF93
:1021D0000020ABE7781CC7B24745DADB0120A5E752
:1021E00070472DE970438EB00DF1040900204B4675
:1021F00004AA0146009041F2160000F0FFF940BB2E
:10220000049800780A2801DD0A2601E0049806787F
:1022100000251CE000200090681CC1B24B4603AAB8
:1022200041F2160000F0EAF978B90398008884B208
:102230005CB1BC4209DA03980068C0F30748352056
:10224000FFF72EFF4046FFF7CBFF681CC5B2B54233
:10225000E0DB00204B4602AA0146009041F2170045
:1022600000F0CCF978B90298048864B1A7420ADB7F
:102270000AA905A8FFF72AFA05A90B4805F03AF9BB
:1022800000200A4988800EB0BDE870830020024912
:1022900008707047BE000020C1000020C800002068
:1022A000B5000020B600002000680040B800002003
:1022B00010B500210DE0002207E0002001EB4103F2
:1022C000334C23449854501CC2B2032AF5DB481CFB
:1022D000C1B20129EFDB002010BD70B586B0064603
:1022E0000C461546002001908DF80D0002208DF857
:1022F0000E008DF80F508DF8104000208DF80C0066
:1023000001A9244805F0F6F8002006B070BD30B5EC
:1023100085B005460C4644F4E060009002208DF83C
:10232000090001208DF80A0000208DF80800694698
:10233000184805F0DFF8002005B030BD70B5044640
:102340000D460F2004EB4401134A11444855012067
:1023500004EB44010E4A114448559DB9002000BFCA
:102360000DE00F2104EB44020B4B1A4411540121E0
:1023700004EB4402064B1A441154411CC8B2032812
:10238000EFDB00BF29462046FFF7C1FF002070BDEC
:10239000C200002000680040BE00002070B5054665
:1023A000049CCA4EA01BB44214D007DCC8482018B5
:1023B0000ED0A0F57F40FE380DD107E0C54E801944
:1023C00007D06FF40036801905D100E004E003E087
:1023D00002E001E000E000BF00BF002070BD70B56A
:1023E00004460D461646002100201860B4F5805FB3
:1023F00016DBB4F5905F13DAA4F5805081B2B648CD
:102400000088A04203DBB54850F8310018B9B44841
:102410001860002070BDB14800EBC1021046F9E71A
:10242000B4F5A05F16DBB4F5B05F13DAA4F5A050E5
:1024300081B2A9484089A04203DBAA4850F8310084
:1024400018B9A74818600020E4E7A64800EBC102CD
:102450001046DFE7B4F5C05F16DBB4F5D05F13DAE2
:10246000A4F5C05081B29C48C089A04203DB9E48BD
:1024700050F8310018B99A4818600020CAE79A4805
:1024800000EBC1021046C5E7B4F5B05F16DBB4F54A
:10249000C05F13DAA4F5B05081B28F48408AA042E1
:1024A00003DB924850F8310018B98D4818600020BD
:1024B000B0E78E4800EBC1021046ABE7B4F5D05F41
:1024C00016DBB4F5E05F13DAA4F5D05081B2824890
:1024D000808AA04203DB864850F8310018B9804852
:1024E0001860002096E7824800EBC102104691E791
:1024F000B4F5905F16DBB4F5945F13DAA4F5905051
:1025000081B275484088A04203DB7A4850F8310018
:1025100018B97348186000207CE7764800EBC102C8
:10252000104677E7B4F5945F16DBB4F5985F13DADD
:10253000A4F5945081B26848C088A04203DB6E487D
:1025400050F8310018B966481860002062E76A4800
:1025500000EBC10210465DE7B4F5005F16DBB4F591
:10256000C04F13DAA4F5005081B25B48C08AA04284
:1025700003DB624850F8310018B959481860002050
:1025800048E75E4800EBC102104643E7B4F5C04F90
:1025900016DBB4F5C44F13DAA4F5C04081B24E483F
:1025A000008BA04203DB564850F8310018B94C4864
:1025B000186000202EE7524800EBC102104629E7C0
:1025C000B4F5C44F16DBB4F5204F13DAA4F5C440BC
:1025D00081B24148408BA04203DB4A4850F83100A9
:1025E00018B93F481860002014E7464800EBC102C4
:1025F00010460FE73A48186000200BE72DE9F84332
:1026000080460C4616461F46DDF820906B46002299
:1026100021464046FFF7E3FE0546009810B10098BA
:10262000BDE8F8832879A04201DC3748F8E7B9F122
:10263000000F07D0286810F83400012802D1244880
:10264000C043EDE7286800EBC400406830602868AC
:1026500000EBC400807838700020E1E72DE9F84FE6
:1026600081460C4617461E46DDF828A06B463246CA
:1026700021464846FFF7B3FE0546009810B1009882
:10268000BDE8F88F2879A04201DC1F48F8E72868E8
:1026900000EBC40090F80280B04501D01B48EFE782
:1026A000BAF1000F07D0286810F83400022802D1D0
:1026B00007484042E4E7296801EBC4013246486814
:1026C000394608F0F3F90020DAE70000410004067B
:1026D000FEFFFEF93100FDFFF8CB000810CA00082C
:1026E0000000020630CB000860CB000880CB000859
:1026F000A0CB0008D8CA0008E0CA0008B8CB000880
:10270000C0CB0008F0CB0008110009061000070636
:102710000FB470B586B006460F9DF94800780528BD
:102720002BD100208DF80C000B98C0F30A0001900B
:10273000A5B900208DF80D009DF830008DF80E0031
:10274000002406E00DF13100015D22380155601CC6
:10275000C4B29DF83000A042F4DC05E002208DF800
:102760000D0000208DF80E0001A9E64804F0C2FE1D
:10277000002006B070BC5DF814FBFF20F9E7F0B54F
:1027800087B007460D46E0480078012825D103951B
:10279000DD4840788DF81000002407E0DA48801CFE
:1027A000015D0DF111000155601CC4B29DF81000CF
:1027B000A042F3DC0020019006980090384603A95F
:1027C0000EC9FFF7A5FF0646CF48007840F0080085
:1027D000CD490870304607B0F0BDFF20FBE72DE97A
:1027E000F04F85B007468846002004900390029081
:1027F0000DF1040B4FF0010A00250026A7F5C0508B
:102800001FFA80F9BE480078052803D0FF2005B0E4
:10281000BDE8F08F6FE0BAF1070F6BD2DFE80AF086
:102820006A041324365E680000205B46424601219C
:1028300000903846FFF7E2FE044614B94FF0020A52
:1028400058E0FF20E3E7002009F5D051009088B25E
:102850005B4604AA0021FFF7D1FE044614B94FF0ED
:10286000030A47E0FF20D2E700206A1CD1B209F535
:10287000D052009090B25B4602AAFFF7BFFE04461A
:1028800014B94FF0040A35E0FF20C0E700200090A3
:10289000029A1288C2F30721029A1268100C5B4652
:1028A00003AAFFF7ABFE0446B4B902990978C1F355
:1028B000C4029549891C8819039908F0F7F8029811
:1028C0000078C0F3C4003044C6B28F484670681C1C
:1028D000C5B24FF0050A0DE0FF2098E70498007894
:1028E000A84202DD4FF0030A04E04FF0060A01E0BF
:1028F00000208CE700BF8EE72DE9F04188B0074645
:102900000E4600240DF1180800BF20E000200090C2
:1029100004F5A050434607AA0121FFF76FFE0546C4
:102920009DB907980068B0420FD1079800680290DF
:1029300000208DF80C000120019005980090384689
:1029400002A90EC9FFF7E4FE00BF601CC4B26F48C5
:10295000007CA042DADC08B0BDE8F0812DE9F04F40
:1029600089B083460D460020089007900690059098
:10297000049002A803904FF0010A614800780528EE
:1029800079D100BF4FF0000900244FF000082879EA
:10299000002871D1ADE0BAF1090F19D2DFE80AF0D1
:1029A000A805192B4B5B6F839C00002706E0A81D30
:1029B000C15D5548801CC155781CC7B26879B842C2
:1029C000F5DC687950494870F72008704FF0020A2A
:1029D0008EE00020009004F5A05004AA0121039B82
:1029E000FFF70CFE064616B94FF0030A80E0FF2001
:1029F00009B0BDE8F08F049800682988C1F30A0186
:102A0000884202D14FF0040A72E0601CC4B24FF059
:102A1000020A002706E0A81DC15D3B48801CC15585
:102A2000781CC7B26879B842F5DC687936494870D5
:102A3000F72008705CE00020009004F5B05008AA70
:102A40000021039BFFF7DAFD064616B94FF0050A91
:102A50004EE0FF20CCE7002008F10102D1B2009047
:102A600004F5B05006AA039BFFF7C8FD064626B939
:102A70004FF0060A3CE0F9E04AE0FF20B8E700200A
:102A80000090069A1288C2F30721069A1268100C69
:102A900007AA039BFFF7B2FD064616B94FF0070AD7
:102AA00026E0FF20A4E706980078C0F3C402164889
:102AB000801C00EB0901079807F0F8FF06980078E2
:102AC000C0F3C400484400F0FF0908F1010000F021
:102AD000FF084FF0080A0BE008980078404502DD37
:102AE0004FF0050A04E04FF00009C84600207FE7D8
:102AF00000BF06488089A0423FF74DAFB4E0000018
:102B0000B500002000680040F8490020F8CB00081C
:102B100028790128F2D1A2E0BAF10A0F18D2DFE831
:102B20000AF09D059D9D1D39495B889B0020009002
:102B300004F5C05004AA0121039BFFF75FFD064680
:102B40003EB9049800682968884202D14FF0040A0F
:102B500084E0601CC4B24FF0010A7FE000200090C6
:102B600004F5C05005AA0221039BFFF747FD064666
:102B700076B905980078FD2807D005980078FC28DC
:102B800003D005980078FF2802D14FF0050A65E0D0
:102B9000FF202DE70020009004F5D05008AA002166
:102BA000039BFFF72BFD064616B94FF0060A55E0CA
:102BB000FF201DE7002008F10102D1B2009004F5CA
:102BC000D05006AA039BFFF719FD064616B94FF031
:102BD000070A43E0FF200BE700200090069A1288C6
:102BE000C2F30721069A1268100C07AA039BFFF78D
:102BF00005FD0646DEB906990978C1F3C40270499D
:102C000001EB0900079907F051FF06980078C0F31F
:102C1000C400484400F0FF096948801E80F8019014
:102C200008F1010000F0FF084FF0080A16E0FF204D
:102C3000DEE608980078404502DD4FF0060A0DE018
:102C400001205F49891E0870049801685846FFF703
:102C500096FD4FF0090A01E00020C9E600BF59487F
:102C6000008AA0423FF758AF0020C1E60020BFE62F
:102C70002DE9F04788B081460F46002500200790D7
:102C80000690059004900390002401260DF1080A97
:102C90004FF0010893E0B8F1090F13D2DFE808F014
:102CA0008E05172D334761717E000020009004F5DA
:102CB000D050534607AA0021FFF7A0FC054615B9DE
:102CC0004FF002087AE0FF2008B0BDE8F0870798CF
:102CD0000078B0420CDB0020009004F5D050534641
:102CE00006AA3146FFF78AFC05464FF0030803E0C9
:102CF000601CC4B20126B04660E015B94FF004086C
:102D00005CE0FF20E0E700200090069A1288C2F302
:102D10000721069A1268100C534605AAFFF76EFCAD
:102D2000054615B94FF0050848E0FF20CCE70598A7
:102D3000B84211D100260020009004F5C05053463F
:102D400003AA0121FFF75AFC054615B94FF0060802
:102D500001E0FF20B8E731E0701CC6B24FF0020876
:102D60002CE00020009004F5C050534604AA022134
:102D7000FFF744FC054615B94FF007081EE0FF2099
:102D8000A2E704980078FF2802D14FF0080815E068
:102D9000601CC4B24FF00108FF2095E704F5C05055
:102DA00003A9FFF71CFD01200549891E087003983F
:102DB00001684846FFF7E3FC002085E700BF6AE7AB
:102DC000FA490020F8CB000830B5002300EB80045E
:102DD000FE4D05EB441401EB810504F8353000EBA2
:102DE0008004FA4D05EB441401EB810504EBC504A6
:102DF000637000EB8004F54D05EB441401EB810595
:102E000004EBC504638000EB8004F04D05EB441433
:102E100001EB810504EBC504237100EB8004EB4D4D
:102E200005EB441401EB810504EBC504637100EB71
:102E30008004E64D05EB441401EB810504EBC50469
:102E4000A37100220DE0002400EB8003DF4D05EBB1
:102E5000431301EB810503EBC503DB1D9C54531C9D
:102E6000DAB2202AEFDB30BD30B5014600204FE05A
:102E7000002301EB8104D54D05EB441400EB8005E4
:102E800004F8353001EB8104D04D05EB441400EB20
:102E9000800504EBC504637001EB8104CB4D05EBA9
:102EA000441400EB800504EBC504638001EB81044E
:102EB000C64D05EB441400EB800504EBC5042371FB
:102EC00001EB8104C14D05EB441400EB800504EBDC
:102ED000C504637101EB8104BC4D05EB441400EBA8
:102EE000800504EBC504A37100220DE0002401EB72
:102EF0008103B64D05EB431300EB800503EBC503DF
:102F0000DB1D9C54531CDAB2202AEFDB431CD8B2E1
:102F10000428ADDB30BD10B502460B4600210EE0A3
:102F200002EB8200A94C04EB401001EB810410F885
:102F3000340010B91970002010BD481CC1B204291A
:102F4000EEDBFF20F8E730B503460C4600210FE02A
:102F500003EB83009D4D05EB401001EB810510F85C
:102F60003500A04202D11170002030BD481CC1B212
:102F70000429EDDBFF20F8E72DE9FF418EB0804604
:102F800093480078052803D0914800787F2877D1AE
:102F900000200490039002AF9DF83C008D49097811
:102FA000884209D100203B4604AA022100904FF438
:102FB0009050FFF723FB30E0002518E0002005F5D6
:102FC0009451009088B23B4603AA0321FFF716FBF9
:102FD000064636B9039800789DF83C10884204D123
:102FE00009E0FF2012B0BDE8F081681C85B27A4884
:102FF0000089A842E2DC00BF77480089A84201D1DD
:10300000FF20EFE7002005F59451009088B23B4681
:1030100004AA0121FFF7F2FA00BF049800680A90A1
:1030200000208DF82C0008208DF82D009DF83D0023
:10303000002803DD9DF83E008DF82E00012407E0F6
:10304000611E0DF13F00415C11380155601CC4B296
:103050009DF83D00A042F3DC9DF83D4005E00021D5
:103060000DF12E000155601CC4B2082CF7DB05A938
:103070000AA8FEF70DFB05A9584804F03BFA00BF6B
:10308000FF20AFE72DE9FE4307460D4616461C46D6
:1030900008208DF8010080208DF802004D4800784E
:1030A0008DF80000E9B28DF80310290A8DF804109C
:1030B0008DF80560E1B28DF80610210A8DF8071031
:1030C000210C8DF80810210E8DF8091038469DE866
:1030D0000E00FFF751FF80464046BDE8FE832DE914
:1030E000F04F85B004460D46FF20049004EB8400A9
:1030F000364901EB401005EB850110F831008DF8E1
:10310000000004EB8400314901EB401005EB850120
:1031100000EBC100407810F0080F56D104EB84009A
:103120002A4901EB401005EB850100EBC100407816
:1031300000F00300012802D003287CD1F0E004EB6A
:103140008400224901EB401005EB850100EBC10032
:1031500081788DF8031004EB84001C4901EB4010CA
:1031600005EB850100EBC1004088010A8DF80410D1
:1031700004EB8400154901EB401005EB850100EBE1
:10318000C10001798DF8051004EB84000F4901EBB3
:10319000401005EB850100EBC100407810F0040FF2
:1031A0007DD104EB8400094901EB401005EB85015A
:1031B00000EBC100407905284EDA04EB8400034996
:1031C00001EB401005EB85010AE0DEE1044A002036
:1031D000B5000020C8000020F8CB000800680040BF
:1031E00000EBC1004079C0F10400C7B24FF0010A02
:1031F000D346C7F10800C0B28DF80100002610E0E8
:1032000004EB8400FE4901EB401005EB850100EB67
:10321000C100C01D825D0DF10300F11C4254701C01
:10322000C6B2C7F10400B042EADC04EB8400F44902
:1032300001EB401000E0A2E105EB850100EBC100CD
:10324000407904EB8401EE4A02EB411105EB850263
:1032500001EBC201887126E00027BA464FF0010B4E
:1032600004EB8400E64901EB401005EB850100EB1F
:10327000C10041798DF8061000218DF809108DF8F4
:1032800007108DF8081008208DF80100002004EBCD
:103290008401DB4A02EB411105EB850200E00EE000
:1032A00001EBC201887107F00300202141EA800090
:1032B00040EA4A0040EA0B008DF8020010E00420CA
:1032C0008DF8010040208DF80200002004EB8401FD
:1032D000CB4A02EB411105EB850201EBC20188717B
:1032E00020469DE80E00FFF747FE049004EB8400A3
:1032F000C34901EB401005EB850100EBC1004078AC
:1033000020F00300C01C40F0080004EB8401BC4A1C
:1033100002EB411105EB850201EBC201487033E17C
:1033200004EB8400B64A02EB401005EB850210F86E
:10333000321003AA2046FFF706FE9DF80C5004EB5E
:103340008400AF4901EB401005EB850100EBC100A3
:10335000407810F0040F7CD104EB8400A84901EB05
:10336000401005EB850100EBC100407904EB8401BE
:10337000A34A02EB411105EB850201EBC2018979F9
:10338000401AC6B2002E10DC0020049004EB840129
:103390009B4A02EB411105EB850201EBC20148702B
:1033A00029462046FFF710FDEEE0072E02DD00273C
:1033B000B94604E0C6F10700C7B24FF00109C7F1F2
:1033C0000800C0B28DF8010000262EE004EB840056
:1033D0008B4901EB401005EB850100EBC1008179C1
:1033E00004EB8400864A02EB401005EB850200EBFB
:1033F000C2008079401C04EB8402814B03EB421233
:1034000005EB850302EBC302907104EB84007C4A58
:1034100002EB401005EB850200EBC200C01D415CD1
:103420000DF103008155701CC6B2C7F10700B04210
:10343000CCDC04EB8400724901EB401005EB850104
:1034400000EBC1004078C0F30018002040EA0810EB
:1034500000E025E007F0070140EA410040EA0900EA
:103460008DF8020004EB8400654901EB401005EB88
:10347000850100EBC100407880F0100004EB84016E
:103480005F4A02EB411105EB850201EBC201487076
:10349000B9F1000F53D029462046FFF795FC4EE0C6
:1034A00004EB8400564901EB401005EB850100EB6D
:1034B000C10081788DF8031004EB8400504901EBC2
:1034C000401005EB850100EBC1004088010A8DF832
:1034D000041004EB84004A4901EB401005EB850120
:1034E00000EBC10001798DF8051004208DF8010072
:1034F00004EB8400424901EB401005EB850100EB31
:10350000C1004078C0F30018602040EA08108DF830
:10351000020004EB84003A4901EB401005EB850101
:1035200000EBC100407880F0100004EB8401344AC5
:1035300002EB411105EB850201EBC2014870204608
:103540009DE80E00FFF718FD049004EB84002C4961
:1035500001EB401005EB850100EBC100407820F045
:103560000300C01C40F0080004EB8401244A02EB75
:10357000411105EB850201EBC201487004E02946C8
:103580002046FFF721FC00BF00BF049805B0BDE84E
:10359000F08F2DE9FF5F0446894692460020039094
:1035A000B4F5B05F04DBB4F5C05F01DA012000E0E0
:1035B00000200290B4F5D05F04DBB4F5E05F01DADF
:1035C000012100E000210191DDE90110084332D022
:1035D000B9F1000F2FDDDAF80070380C0090C7F356
:1035E0000725C7F3C40803AB424629460098FEF7F7
:1035F000F6FE0646039838B1024804B0BDE8F09FD5
:10360000044A0020410004063079A84201DCFE484B
:10361000F3E7306800EBC50090F802B0C34501D075
:10362000F948EAE7029830B1306810F8350002280E
:1036300001D1F548E1E70020DFE72DE9F04F8FB039
:103640000446884600200B900790069083468246E9
:1036500004A80590ED480078052803D0EB480078D1
:103660007F287DD198F8000000F07F008DF82000C1
:1036700098F805008DF821009DF82100002803DD51
:1036800098F806008DF82200012508E008F10600F0
:10369000425D691E0DF123004254681CC5B29DF8BD
:1036A0002100A842F2DC9DF820100DAA2046FFF769
:1036B0004AFC0E900E9820B10DA92046FFF72BFC76
:1036C0000E9004EB8400D24901EB40109DF83410B9
:1036D00001EB810100EBC100407800F003000328FA
:1036E0007ED104EB8400CA4901EB40109DF83410F0
:1036F00001EB810100EBC100407810F0080F6FD0A2
:1037000098F804000028EBD10C9086E2002000908D
:103710000C9901F5945006AA0221059BFEF76EFF55
:1037200002900298002875D106980068D8F8001019
:103730008842F8D19DF8220080286DD104EB8400E6
:10374000B34901EB40109DF8341001EB810100EB0F
:10375000C1004088AF4901EB44119DF8202000E0F2
:10376000FEE321F8320004EB8400A94901EB40108C
:103770009DF8341001EB810100EBC1000079A549EF
:1037800001EB44119DF8202001EBC201887008A8CC
:103790008179C07941EA002108A8007A41EA004114
:1037A00008A8407A41EA00609A4901EB44119DF86B
:1037B000202001EBC201486004EB8400944901EB36
:1037C00040109DF8341001EB810100EBC1004078FE
:1037D00010F0040F09D180208F4901EB840100E033
:1037E00022E29DF8202088540BE0802004EB041195
:1037F0008A4A02EBC1019DF8202002EB021201F877
:1038000012009DF834102046FFF7DEFA80200FB03A
:10381000BDE8F08FFDE1FFE79DF8220010F0200FDA
:1038200035D004EB84007A4901EB40109DF8341048
:1038300001EB810100EBC100407904EB8401744A83
:1038400002EB41119DF8342002EB820201EBC20130
:10385000897988421ADC704800EB84009DF82010BA
:10386000405C30B901206C4901EB84019DF82020B7
:103870008854002004EB8401654A02EB41119DF855
:10388000342002EB820201EBC2014870A2E19DF8F4
:10389000220010F0400F75D19DF82200C0F30019EE
:1038A0009DF82200C0F342069DF8220000F0010BB3
:1038B000002538E00DF12300415D04EB8400544AFB
:1038C00002EB40109DF8342002EB820200EBC200B4
:1038D000827904EB84004E4B03EB40109DF83430AA
:1038E00003EB830300EBC3008079401CC3B204EBFD
:1038F0008400DFF81CC10CEB40109DF834C00CEBC9
:103900008C0C00EBCC00837104EB8400404B03EB88
:1039100040109DF8343003EB830300EBC300C01D5F
:103920008154681CC5B2C6F10700A842C2DCBBF1D5
:10393000000FABD0042004EB8401354A02EB4111A7
:103940009DF8342002EB820201EBC201487004EBC7
:103950000410324901EBC0009DF8201001EB011169
:1039600010F81100002891D1012004EB04112B4A1A
:1039700002EBC1019DF8202002EB021201F81200B7
:1039800000251CE051E004EB8400214901EB4010CC
:103990009DF8341001EB810100EBC100C01D415DB9
:1039A00004EB04101D4A02EBC0009DF8202002EB3E
:1039B000021200EB4200401C4155681CC5B204EBEA
:1039C0008400134901EB40109DF8341001EB810194
:1039D00000EBC1008079A842D5DC04EB84000C49DF
:1039E00001EB40109DF8341001EB810100EBC100A8
:1039F000807904EB0411094A02EBC1019DF82020F3
:103A000002EB02120CE0000041000406B5000020A9
:103A1000044A00202C4B00208C090020A44A0020DE
:103A200001EB420181F82100D4E09DF82200C0F3AF
:103A300081069DF82200C0F340000B909DF8220003
:103A400000F0010A0B9800287ED0BAF1000F00D1D7
:103A50000026002512E00DF12300E91C415C04EB77
:103A60008400FE4A02EB40109DF8342002EB8202F3
:103A700000EBC200C01D4155681CC5B2C6F1040070
:103A8000A842E8DCC6F1040004EB8401F34A02EB2F
:103A900041119DF8342002EB820201EBC201487112
:103AA000042004EB8401ED4A02EB41119DF834201F
:103AB00002EB820201EBC201487004EB0410E849FA
:103AC00001EBC0009DF8201001EB011110F811006E
:103AD000D8BB012004EB0411E14A02EBC1019DF8BF
:103AE000202002EB021201F8120000251BE004EB7B
:103AF0008400DA4901EB40109DF8341001EB81019C
:103B000000EBC100C01D415D04EB0410D44A02EB80
:103B1000C0009DF8202002EB021200EB4200401C86
:103B20004155681CC5B204EB8400CC4901EB401040
:103B30009DF8341001EB810100EBC1004079A842EF
:103B4000D5DC04EB840001E018E043E0C34901EB5D
:103B500040109DF8341001EB810100EBC100407969
:103B600004EB0411BE4A02EBC1019DF8202002EBD8
:103B7000021201EB420181F821002BE0BAF1000FA3
:103B80001BD008A8807904EB8401B44A02EB4111F0
:103B90009DF8342002EB820201EBC2014871002043
:103BA00004EB8401AD4A02EB41119DF8342002EB95
:103BB000820201EBC20188710CE0002004EB840159
:103BC000A64A02EB41119DF8342002EB820201EB80
:103BD000C201887104EB8400A04901EB40109DF8FC
:103BE000341001EB810100EBC100407820F00800A7
:103BF00004EB8401994A02EB41119DF8342002EB59
:103C0000820201EBC20148709DF834102046FFF794
:103C100066FA0C98401CC0B20C90924801890C982E
:103C200081423FF773AD16E29DF8220010F0800F3D
:103C30007ED19DF820008C4909788842F8D1002077
:103C4000009007AA01214FF49050059BFEF7D6FC87
:103C5000029002980028E6D107980068D8F8001072
:103C60008842E0D19DF8220010F0400F7ED09DF8F0
:103C7000220010F0400F04D19DF8220010F0200F18
:103C800009D09DF8220010F0400F70D09DF822005E
:103C900010F0200F6BD09DF82200C0F3001904EB48
:103CA00084006E4901EB40109DF8341001EB810156
:103CB00000EBC100407904EB8401684A02EB41113A
:103CC0009DF8342002EB820201EBC2018979401A8F
:103CD000C5B2002D05DC9DF834102046FFF774F8BE
:103CE000B9E1072D02DD0026B34604E0C5F1070067
:103CF000C6B24FF0010B00253CE004EB84005749AD
:103D000001EB40109DF8341001EB810100EBC10084
:103D1000817904EB8400514A02EB40109DF8342075
:103D200002EB820200EBC2008079401CC2B200E0CC
:103D3000F6E304EB8400494B03EB40109DF834306C
:103D400003EB830300EBC300827104EB8400434A5E
:103D500002EB40109DF8342002EB820200EBC2001F
:103D6000C01D415C0DF12300415501E074E11BE0F1
:103D7000681CC5B2C6F10700A842BEDC002040EABC
:103D8000091006F0070140EA410040EA0B008DF8F7
:103D90002200C6F10800C0B28DF82100204608A913
:103DA0000EC9FFF7E9F856E10DA92046FFF7B3F871
:103DB00008A8007908A9C97860F31F2104EB8400E2
:103DC000264A02EB40109DF8342002EB820200EB01
:103DD000C200418008A8407904EB84011F4A02EB2D
:103DE00041119DF8342002EB820201EBC2010871FF
:103DF000002004EB8401194A02EB41119DF83420A4
:103E000002EB820201EBC201487104EB8401134A08
:103E100002EB41119DF8342002EB820201EBC2015A
:103E20008871039004EB8402DFF830C00CEB42127F
:103E300000909DF834C00CEB8C0C02EBCC02531DAF
:103E400004EB8402DFF814C00CEB42129DF834C07E
:103E50000CEB8C0C02EBCC02117907E0044A002039
:103E6000A44A0020F8CB0008C800002004EB84021C
:103E7000DFF81CC40CEB42129DF834C00CEB8C0C28
:103E800002EBCC02508803AAFEF7B8FB074617B333
:103E900004EB8400FE4B03EB40109DF8343003EB41
:103EA000830300EBC300027904EB8400F84B03EBBF
:103EB00040109DF8343003EB830300EBC3004188CE
:103EC0003B462046FFF7DEF89DF834102046FEF70B
:103ED0007BFFFF209BE4002510E00398415D04EB8D
:103EE0008400EB4A02EB40109DF8342002EB820282
:103EF00000EBC200C01D4155681CC5B204EB840034
:103F0000E34901EB40109DF8341001EB810100EB17
:103F1000C1004079A842E0DC04EB8400DC4901EBFD
:103F200040109DF8341001EB810100EBC100407995
:103F3000052858DA04EB8400D54901EB40109DF8C0
:103F4000341001EB810100EBC1004079C0F10400A5
:103F5000C6B201200B90824604EB8400CC4900E0FD
:103F600048E301EB40109DF8341001EB810100EBB8
:103F7000C100817808A8C17004EB8400C44901EB3A
:103F800040109DF8341001EB810100EBC100408826
:103F9000010A08A8017104EB8400BD4901EB40103F
:103FA0009DF8341001EB810100EBC100017908A8F4
:103FB0004171002512E004EB8400B54901EB40108B
:103FC0009DF8341001EB810100EBC100C01D425D82
:103FD0000DF12300E91C4254681CC5B2C6F104006F
:103FE000A842E8DC16E0002600200B904FF0010A02
:103FF00004EB8400A64901EB40109DF8341001EB5E
:10400000810100EBC100417908A881710021417252
:10401000C171017206F00300402141EA80010B9852
:1040200041EA400040EA0A008DF8220008208DF89D
:104030002100002104EB8400954A02EB40109DF81A
:10404000342002EB820200EBC2008171204608A9F5
:104050000EC9FEF791FFCBE29DF8220010F0400F51
:1040600004D19DF8220010F0200F09D09DF8220005
:1040700010F0400F7DD09DF8220010F0200FF9D0F5
:104080009DF820100DAA2046FEF75DFF9DF8220046
:10409000C0F300199DF82200C0F342069DF82200EB
:1040A00000F0010B002537E00DF12300415D04EB2A
:1040B0008400774A02EB40109DF8342002EB820224
:1040C00000EBC200827904EB8400714B03EB4010DB
:1040D0009DF8343003EB830300EBC3008079401C70
:1040E00004EB8403DFF8A8C10CEB43139DF834C044
:1040F0000CEB8C0C03EBCC03987104EB8400644B49
:1041000003EB40109DF8343003EB830300EBC30056
:10411000C01D8154681CC5B2C6F10700A842C3DCAB
:10412000BBF1000F7ED004EB8400594901EB401035
:104130009DF8341001EB810100EBC100807904EBA4
:104140008401534A02EB41119DF8342002EB8202B4
:1041500001EBC2014871002104EB84004C4A02EBE0
:1041600040109DF8342002EB820200EBC200817106
:1041700000E097E004EB8403DFF814C10CEB431379
:104180009DF834C00CEB8C0C03EBCC03DA1D04EB74
:104190008403DFF8FCC00CEB43139DF834C00CEB38
:1041A0008C0C03EBCC03197904EB8403DFF8E0C03B
:1041B0000CEB43139DF834C00CEB8C0C03EBCC03DD
:1041C0005888FFF7E6F907466FBB012004EB840C23
:1041D000DFF8BCE00EEB4C1C00909DF834E00EEBD9
:1041E0008E0E0CEBCE0C9CF8053004EB840CDFF843
:1041F000A0E00EEB4C1C9DF834E00EEB8E0E0CEBA9
:10420000CE0C0CF1070204EB840CDFF884E00EEB1B
:104210004C1C9DF834E00EEB8E0E0CEBCE0C9CF893
:10422000041001E038E010E004EB840CDFF860E0FB
:104230000EEB4C1C9DF834E00EEB8E0E0CEBCE0C0E
:10424000BCF80200FEF70AFA07462FB304EB84001D
:104250000F4B03EB40109DF8343003EB830300EB6E
:10426000C300027904EB8400094B03EB40109DF876
:10427000343003EB830300EBC30041883B46204608
:10428000FEF700FF9DF834102046FEF79DFD01E08B
:10429000044A0020FF201DE6202040EA09108DF886
:1042A00022005AE19DF82200C0F381069DF8220009
:1042B000C0F340000B909DF8220000F0010A9DF829
:1042C000201004EB8400FE4A02EB40109DF83420DD
:1042D00002EB820200F8321008A8007908A9C97818
:1042E00060F31F2104EB8400F54A02EB40109DF8B7
:1042F000342002EB820200EBC200418008A8407922
:1043000004EB8401EE4A02EB41119DF8342002EBEC
:10431000820201EBC20108710B9800287ED0BAF12D
:10432000000F7CD0002512E00DF12300E91C415C58
:1043300004EB8400E24A02EB40109DF8342002EBCB
:10434000820200EBC200C01D4155681CC5B2C6F117
:104350000400A842E8DCC6F1040004EB8401D84A5A
:1043600002EB41119DF8342002EB820201EBC20105
:104370004871002004EB8401D14A02EB41119DF801
:10438000342002EB820201EBC201887104EB84034A
:10439000DFF82CC30CEB43139DF834C00CEB8C0CF2
:1043A00003EBCC03DA1D04EB8403DFF814C30CEB3E
:1043B00043139DF834C00CEB8C0C03EBCC03197940
:1043C00004EB8403DFF8F8C20CEB43139DF834C010
:1043D0000CEB8C0C03EBCC035888FFF7DAF807469C
:1043E000EFBB012004EB840CDFF8D4E20EEB4C1C95
:1043F00000909DF834E00EEB8E0E0CEBCE0C9CF88A
:10440000053004EB840CDFF8B8E20EEB4C1C9DF891
:1044100034E00EEB8E0E0CEBCE0C01E061E046E0DA
:104420000CF1070204EB840CDFF894E20EEB4C1C59
:104430009DF834E00EEB8E0E0CEBCE0C9CF80410C5
:1044400004EB840CDFF878E20EEB4C1C9DF834E0B2
:104450000EEB8E0E0CEBCE0CBCF8020000E002E07E
:10446000FEF7FCF80746DFB304EB8400944B03EB44
:1044700040109DF8343003EB830300EBC300027956
:1044800004EB84008E4B03EB40109DF8343003EBBB
:10449000830300EBC30041883B462046FEF7F2FD54
:1044A0009DF834102046FEF78FFCFF2012E5002116
:1044B00004EB8400824A02EB40109DF8342002EBAA
:1044C000820200EBC200817104EB84007C4A02EBA3
:1044D00040109DF8342002EB820200EBC2004171D3
:1044E00038E0BAF1000F1CD008A8817904EB8400F1
:1044F000734A02EB40109DF8342002EB820200EB7D
:10450000C2004171002104EB84006D4A02EB4010AF
:104510009DF8342002EB820200EBC200817119E0A9
:1045200059E0002104EB8400654A02EB40109DF83D
:10453000342002EB820200EBC200817104EB8400A4
:104540005F4A02EB40109DF8342002EB820200EB40
:10455000C200417160208DF8220004208DF82100F6
:1045600004EB8400564901EB40109DF8341001EB38
:10457000810100EBC100817808A8C17004EB8400C0
:104580004F4901EB40109DF8341001EB810100EB25
:10459000C1004088010A08A8017104EB8400484961
:1045A00001EB40109DF8341001EB810100EBC100DC
:1045B000017908A84171204608A90EC9FEF7DCFC64
:1045C0000B9810B9BBF1000F12D09DF834102046A3
:1045D000FEF7FAFB0CE0022004EB8401384A02EB00
:1045E00041119DF8342002EB820201EBC2014870B8
:1045F00000206FE4FF206DE42DE9F04F87B0044602
:104600000E4692469B46DDF84080002004900190C3
:1046100002A803902046FEF727FC05AA3146204653
:10462000FEF791FC0690069820B105A92046FEF7FA
:1046300072FC069000278CE00020009007F5945053
:1046400004AA0121039BFDF7D9FF8146B9F1000FB0
:104650007DD10498007800F07F00B04277D101202E
:10466000019004EB8400164901EB40109DF81410F2
:1046700001EB810100F8316004EB8400104901EB8B
:1046800040109DF8141001EB810100EBC100A0F86F
:1046900002A004EB84000A4901EB40109DF81410BD
:1046A00001EB810100EBC10080F804B004EB840051
:1046B000034901EB40109DF8141001EB810101E06A
:1046C000044A002000EBC10080F8058004EB84015F
:1046D000994A02EB41119DF8142002EB820201EB92
:1046E000C201C81D4246119906F0E0F9002510E00C
:1046F0001198415D04EB84008F4A02EB40109DF855
:10470000142002EB820200EBC200C01D4155681C60
:10471000C5B24545ECDB012104EB8400864A02EB7F
:1047200040109DF8142002EB820200EBC2004170A1
:104730000020824901EB840188559DF81410204621
:10474000FEF7CDFC002007B0BDE8F08FFFE7781C36
:10475000C7B27B480089B8423FF76EAFFF20F2E74F
:104760002DE9F04F85B004460D4691469A4600204B
:10477000039001A8029004AA29462046FEF7E3FB15
:104780008346BBF1000F0BD004A92046FEF7C3FB04
:104790008346BBF1000F08D0FF2005B0BDE8F08FC5
:1047A0009DF810102046FEF70FFB00270DE00021BA
:1047B00004EB0410634A02EBC00005EB051200EBAA
:1047C0004200401CC155781CC7B2202FEFDB0026E9
:1047D00063E00020009006F5945003AA0121029B9B
:1047E000FDF70CFF8046B8F1000F54D10398007814
:1047F00000F07F00A8424ED104EB84004E4901EB4B
:1048000040109DF8101001EB810100F8315004EBCD
:104810008400494901EB40109DF8101001EB810123
:1048200000EBC100A0F8029004EB8400424901EBC8
:1048300040109DF8101001EB810100EBC10080F8E1
:1048400004A0002004EB84013B4A02EB41119DF8D7
:10485000102002EB820201EBC2014871052004EB3B
:104860008401354A02EB41119DF8102002EB8202CF
:1048700001EBC20148709DF810102046FEF72FFC96
:10488000002004EB04112F4A02EBC10105EB0512D5
:1048900001F8120081E7701CC6B229480089B042B5
:1048A00097DCFF2079E770B50446154600201870A4
:1048B00004EB0410234E06EBC00001EB011610F8C8
:1048C000160001281ED104EB04101E4E06EBC0009A
:1048D00001EB011600EB460090F821001870002251
:1048E0000DE004EB0410174E06EBC00001EB0116BF
:1048F00000EB4600401C805CA854501CC2B21878E3
:104900009042EEDC04EB04100E4E06EBC00001EB0F
:10491000011610F8160070BD0246084800EB820030
:10492000405C704710B5084B03EB411303EBC20426
:1049300018CCC0E9003410BD044A00208C090020C6
:10494000F8CB0008A44A00202C4B00202DE9F04FA2
:1049500089B0834600200890079006900590049047
:1049600002A803900320019000240026002762483B
:104970000078052803D0002009B0BDE8F08FB4E02E
:104980000198C01E09287DD2DFE800F0051633AC7F
:1049900044556792A9000020009004F5C05005AA74
:1049A0000221039BFDF72AFE054615B9042001905C
:1049B00001E0FF20E0E797E005980078012813DB8D
:1049C00005980078F0280FDC4C48005D401CC0B210
:1049D0004A49085505990978884205D10020474978
:1049E00008550520019003E0601CC4B20B20019023
:1049F0007AE00020009004F5C05004AA0121039B36
:104A0000FDF7FCFD054615B90720019001E0FF20E8
:104A1000B2E769E00020009004F5D05008AA002118
:104A2000039BFDF7EBFD054615B90820019001E059
:104A3000FF20A1E758E00020721CD1B2009004F5DD
:104A4000D05006AA039BFDF7D9FD054615B90920EC
:104A5000019001E0FF208FE746E0069800684FEAEA
:104A6000104906980088C0F3072A06980078C0F31A
:104A7000C4080020009007AA51464846039BFDF752
:104A8000BDFD00E02EE0054685B91D49C819424626
:104A9000079906F00BF807EB0800C7B21848801E0C
:104AA0004770701CC6B20A2001901DE0FF2063E72A
:104AB00008980078B04202DD0820019014E001203F
:104AC0000F49891E0870049801685846FDF757FE83
:104AD000601CC4B2002700260B20019004E00320D4
:104AE000019001E0FF2047E700BF0648008AA0428E
:104AF0003FF746AF00203FE7B500002088090020BF
:104B0000FA490020F8CB00083EB504460B2C6DD2C4
:104B1000DFE804F06C06121E2A36424E5A6669001F
:104B200002200290002002AB01AA012100904FF464
:104B3000C040FDF763FD5AE002200290002002AB66
:104B400001AA022100904FF4C040FDF757FD4EE04E
:104B500002200290002002AB01AA0121009046F23F
:104B60000100FDF74BFD42E002200290002002AB65
:104B700001AA0221009046F20100FDF73FFD36E058
:104B800004200290002002AB01AA0121009046F20D
:104B90000400FDF733FD2AE004200290002002AB60
:104BA00001AA0221009046F20400FDF727FD1EE055
:104BB00004200290002002AB01AA0121009046F2DD
:104BC0000500FDF71BFD12E004200290002002AB5F
:104BD00001AA0221009046F20500FDF70FFD06E054
:104BE000FE48019003E0FE48019000E000BF00BFD6
:104BF000019800683EBD10B50720FFF785FF044609
:104C0000F84800680444204610BD00B52DED108B17
:104C100083B0B0EE408AF0EE608A9FEDF30B53EC68
:104C2000102B51EC180B07F0F3FD41EC100BB0EE1C
:104C300040FAF0EE60FA9FEDEE0B53EC102B51ECC6
:104C40001F0B07F0BDF941EC100BB0EE40EAF0EE9F
:104C500060EA06F0D5F9B0EE40DAF0EE60DA9FEDEA
:104C6000E60B53EC102B51EC1D0B07F0F5F841EC63
:104C7000100BB0EE40CAF0EE60CA06F079FBB0EE61
:104C800040BAF0EE60BA9FEDDE0B53EC102B51EC06
:104C90001B0B07F0B1FB41EC100BB0EE40AAF0EE9D
:104CA00060AA9FEDD90B53EC102B51EC1A0B07F0B7
:104CB000D7FC41EC100B8DED000B9DED000B06F0C9
:104CC0002FFCB0EE409AF0EE609AB0EE490AF0EE9A
:104CD000690A03B0BDEC108B00BD00B52DED108B43
:104CE00083B0B0EE408AF0EE608A9FEDC90B53ECC2
:104CF000102B51EC180B07F07FFB41EC100BB0EEC2
:104D000040FAF0EE60FA53EC182B51EC1F0B07F051
:104D100073FB41EC100BB0EE40EAF0EE60EA9FED61
:104D2000BE0B53EC102B51EC1E0B07F099FC41EC21
:104D3000100BB0EE40DAF0EE60DA05F0B9FFB0EE3D
:104D400040CAF0EE60CA9FEDB60B53EC102B51EC4D
:104D50001C0B07F05DFD41EC100BB0EE40BAF0EE1D
:104D600060BA06F071FBB0EE40AAF0EE60AA9FEDCB
:104D7000A00B53EC102B51EC1A0B07F03DFB41EC50
:104D8000100BB0EE409AF0EE609A9FED970B53EC4B
:104D9000102B51EC190B07F05FF841EC100B8DED67
:104DA000000B9DED000B03B0BDEC108B00BD10B5EA
:104DB0002DED048B0520FFF7A7FE04469A48844298
:104DC0001CD9604207F0C8FA41EC100BB0EE409AD3
:104DD000F0EE609A9FED950B53EC102B51EC190BF4
:104DE00007F0EEF841EC100BB0EE408AF0EE608A6E
:104DF00051EC180B07F06CFA04461BE0204607F054
:104E0000ABFA41EC100BB0EE409AF0EE609A9FEDD9
:104E1000870B53EC102B51EC190B07F0D1F841EC38
:104E2000100BB0EE408AF0EE608A51EC180B07F0E0
:104E30004FFA04462046BDEC048B10BD7D4909782D
:104E400001294AD1FF2809D102217B4A11707B49EF
:104E5000098821F00F01794A118041E000F00F012B
:104E600091F00F012FD00321734A11707349098803
:104E700021F00F01714A1180C143C1F3C00121B17A
:104E80001146098841F002011180C143C1F380013C
:104E900029B16A49098841F00101684A1180C1437A
:104EA000C1F3400129B16549098841F00201634A13
:104EB00011800121814313D06049098841F001012B
:104EC0005E4A11800CE001215B4A11705B49098840
:104ED00021F00F01594A118002E00621564A117053
:104EE000704733B585B0002400208DF809008DF897
:104EF000080008208DF80A0044200090BDF8140036
:104F0000C0B28DF80B00BDF81400010A8DF80C102A
:104F1000BDF81600C1B28DF80D10BDF81600010ADB
:104F20008DF80E10BDF81800C1B28DF80F10BDF845
:104F30001800010A8DF81010BDF81A00C1B28DF8E2
:104F40001110BDF81A00010A8DF8121000BF694651
:104F50003B4802F0CFFA05462946394802F062FB89
:104F6000012005F023FCC82C00D105E0601CC4B270
:104F7000344800780028EAD000BF07B030BD33B510
:104F800085B0002400208DF809008DF80800082065
:104F90008DF80A00452000909DF814008DF80B0054
:104FA0009DF815108DF80C109DF816108DF80D1049
:104FB0009DF817108DF80E109DF818108DF80F1031
:104FC0009DF819108DF81010BDF81A00C1B28DF8B7
:104FD0001110BDF81A00010A36E000001000002090
:104FE00014000020900900200000000000B0734071
:104FF000000000000060884062F888981249D63F9F
:10500000DF4F8D576FFE134130BB272F7230204189
:1050100011D77B3BD395C93E454772F90FE9F93F5C
:10502000A18158367348D63FC0BDF0FF9A9999992F
:10503000999909400100002000000020AE090020DD
:1050400000640040AC0000208DF8121000BF6946DB
:10505000FE4802F04FFA05462946FC4802F0E2FA03
:10506000012005F0A3FBC82C00D105E0601CC4B2F0
:10507000F74800780028EAD000BF07B030BD33B54C
:1050800085B0002400208DF809008DF80800082064
:105090008DF80A00492000900598C0B28DF80B00E9
:1050A0000598010A8DF80C100598010C8DF80D106B
:1050B0000598000E8DF80E000698C1B28DF80F10FD
:1050C0000698010A8DF810100698010C8DF8111041
:1050D0000698000E8DF8120000BF6946DB4802F00A
:1050E00009FA05462946D94802F09CFA012005F044
:1050F0005DFBC82C00D105E0601CC4B2D448007828
:105100000028EAD000BF07B030BD1FB5DDE90001BF
:10511000FFF7E7FEDDE90201FFF731FF1FBDF0B544
:1051200085B005460C46002600208DF809008DF854
:10513000080005208DF80A0048200090042D24DA8C
:10514000E0B28DF80B00210A8DF80C10210C8DF8BF
:105150000D10200E8DF80E008DF80F5000BF69461F
:10516000BA4802F0C7F907463946B84802F05AFA79
:10517000012005F01BFBC82E00D105E0701CC6B253
:10518000B34800780028EAD000BF05B0F0BDF0B504
:1051900089B007460E46154607F5C0600590002009
:1051A0008DF818008DF81950002405E0315D0DF1DF
:1051B0001A000155601CC4B2AC42F7DB694605A871
:1051C000FCF766FA6946A34802F094F909B0F0BD0D
:1051D0002DE9F34F2DED088B8BB08A464FF0000B75
:1051E00000200A90099008909BA103C9CDE906010F
:1051F000FFF7DDFD0A21B0FBF1F080B2ADF8000051
:105200000620FFF781FC0746B7F1004F02D9C7F12E
:10521000000800E0B846404607F09EF841EC100B4D
:10522000B0EE40AAF0EE60AA9FED8D0B53EC102B70
:1052300051EC1A0B06F0C4FE41EC100BB0EE409A94
:10524000F0EE609A51EC190B07F042F880B2ADF81D
:1052500002000120FFF758FC1FFA80FBCBF3C000CF
:1052600058B18148008820F010007F490880084626
:10527000008840F01000088005E07B48008820F09E
:10528000100079490880CBF380200A907748007895
:10529000002835D10A9828B97548006810B17548BA
:1052A000006850BB00207449087074490870744944
:1052B000087074480078022822D1BDF80010724AA4
:1052C0001288501A01D4014600E041426F4A126828
:1052D00011446E4A116010460068B0F57A7F07D914
:1052E000104601680020FFF71AFF00206749086098
:1052F000BDF800006449088002E001205E490870A2
:10530000BAF1020F7ED00320FFF7FEFB1FFA80F9EF
:10531000C9F3C00058B15448008820F02000524919
:1053200008800846008840F02000088005E04E48CC
:10533000008820F020004C490880FFF75CFC0890B2
:10534000089807F009F841EC100BB0EE40AAF0EE17
:1053500060AA9FED4F0B53EC102B51EC1A0B06F08B
:105360002FFE41EC100BB0EE409AF0EE609AFFF782
:10537000B4FCB0EE408AF0EE608A9FED470B53EC30
:10538000102B51EC180B07F037F841EC100BB0EE76
:10539000409AF0EE609A51EC190B06F099FF80B23A
:1053A000ADF804000820FFF7AFFB0546B5F5100F78
:1053B00001D96E4200E02E46304606F0CDFF41ECAA
:1053C000100BB0EE40BAF0EE60BA9FED350B53EC27
:1053D000102B51EC1B0B06F0F3FD41EC100BB0EE63
:1053E00040AAF0EE60AA9FED300B53EC102B51EC6D
:1053F0001A0B07F001F841EC100BB0EE409AF0EEFA
:10540000609A00E09BE051EC190B06F061FF80B25E
:10541000ADF80600C9F3802009902548007898B9B6
:10542000099828B92348006810B12348006860B97A
:10543000002022490870224908702249087011484A
:105440000078022863D13FE061E05DE00064004045
:10545000AC00002000680040400110000000000087
:105460000000000000004040AE0900204400002081
:10547000288241422C824142970900200B000020E3
:1054800005000020000000209A090020A00900204B
:1054900000000000004CDD4000000000000024403F
:1054A00000000000006A08410000000000606D403C
:1054B0004500002030824142348241429809002058
:1054C0000C00002004000020BDF80410F74A1288E8
:1054D000501A01D4014600E04142F54A12681144D5
:1054E000F34A116010460068B0F57A7F07D910467C
:1054F00001680120FFF713FE0020ED490860BDF8A8
:105500000400EA49088002E00120EA490870EA48FC
:10551000007802280FD1E948007830B1E8480088C7
:1055200040F00800E649088005E0E548008820F0E2
:105530000800E34908800120E049087006E042F2D3
:105540003410ADF804000020ADF80600DD48006816
:1055500038B9DD48006810B144F0010401E004F0FE
:10556000FE04D948006838B9D648006810B144F044
:10557000020401E004F0FD04D448006810B144F0D6
:10558000040401E004F0FB04D148006810B944F0C1
:10559000100401E004F0EF04CE48006810B944F0B4
:1055A000200401E004F0DF04CB48006810B944F0A7
:1055B000400401E004F0BF04C848006810B944F09A
:1055C000800401E004F07F04C5480078C5490978EB
:1055D000884207DD01210320FFF7A1FDC0480078C4
:1055E000C0490870B648007810F0330F40D0012051
:1055F000BD490870082206A9FFF7C9FD642005F01F
:10560000D5F8B948007830B1AD48008840F00400C2
:10561000AB49088005E0AA48008820F00400A849AA
:1056200008800920FFF770FA04900120A349087050
:10563000082206A90220FFF7AAFD642005F0B6F8AB
:105640009E48007830B19E48008840F008009C4990
:10565000088005E09A48008820F0080098490880F2
:105660000A20FFF751FA0590DDE90401FFF707FD75
:105670009148007802280FD19B48007830B19048BB
:10568000008840F004008E49088005E08C480088BE
:1056900020F004008A490880012093490870864858
:1056A00000788DF80800914801788DF80B108C482F
:1056B00001788DF80C107F4801788DF80A108C481D
:1056C00001788DF809108DF80D407D480188ADF8FE
:1056D0000E1010226946139805F0E8F90BB0BDECE6
:1056E000088BBDE8FC8F7CB505460C4615B1012D35
:1056F0007AD17AE02B208DF800005A208DF8010035
:1057000060208DF8020000208DF803001CB90720EE
:105710008DF8040002E005208DF8040000208DF8CB
:105720000500062269460120FFF731FD0021012016
:10573000FCF796FA23208DF8000084208DF80100F4
:1057400060208DF8020000208DF803008DF8040021
:1057500019208DF8050000208DF806008DF807004F
:10576000082269460120FFF712FD00210120FCF705
:1057700077FA23208DF8000085208DF80100602045
:105780008DF8020000208DF803008DF80400192028
:105790008DF8050000208DF806008DF8070008221E
:1057A00069460120FFF7F3FC00210120FCF758FABD
:1057B0002B208DF8000040208DF8010060208DF82E
:1057C000020000208DF803000B208DF8040000205B
:1057D0008DF80500062269460120FFF7D8FC00215C
:1057E0000120FCF73DFA5EE05CE02B208DF8000024
:1057F0005A208DF8010060208DF8020000208DF8FD
:1058000003001CB907208DF8040002E005208DF884
:10581000040000208DF80500062269460220FFF7EB
:10582000B6FC00210220FCF71BFA23208DF80000B3
:1058300085208DF8010060208DF8020000208DF891
:10584000030080208DF8040038208DF80500012029
:105850008DF8060000208DF8070008226946022016
:10586000FFF795FC00210220FCF7FAF92B208DF8B8
:10587000000040208DF8010060208DF8020000201B
:105880008DF803000B208DF8040000208DF8050032
:10589000062269460220FFF77AFC00210220FCF76D
:1058A000DFF900E000BF00BF00207CBD9C090020A4
:1058B000A40900209809002000000020960900207B
:1058C000AE090020200240422482414238824142F7
:1058D000288241422C8241423482414230824142FC
:1058E000B1090020B009002095090020940900208A
:1058F000970900201CB5044614B1012C38D11BE0D7
:105900002B208DF8000040208DF8010060208DF8DC
:10591000020000208DF8030080208DF80400002094
:105920008DF80500062269460120FFF730FC0021B2
:105930000120FCF795F91CE02B208DF80000402099
:105940008DF8010060208DF8020000208DF8030022
:1059500080208DF8040000208DF80500062269469D
:105960000220FFF714FC00210220FCF779F900E087
:1059700000BF00BF00201CBD1CB504462B208DF8C5
:10598000000040208DF8010060208DF8020000200A
:105990008DF8030004208DF8040000208DF8050028
:1059A00014B1012C14D109E0062269460120FFF749
:1059B000EEFB00210120FCF753F90AE006226946BC
:1059C0000220FFF7E4FB00210220FCF749F900E088
:1059D00000BF00BF00201CBD2DE9FF4F91B08946DC
:1059E00090461C461EADE0CD04F0FF0AC4F3072B21
:1059F000C4F307400E90200E0D90E8B20C90C5F352
:105A000007200B90C5F307400A90280E0990F0B2CA
:105A10000890C6F307200790C6F307400690300EA3
:105A20000590F8B20490C7F307200390C7F307402E
:105A30000290380E0190B9F1010F03D0B9F1030FB4
:105A40007ED10CE12F208DF83C0060208DF83D00C8
:105A50008DF83E0000208DF83F0001208DF84000B9
:105A600005220FA91198FFF792FB00211198FCF76E
:105A7000F7F82B208DF83C0086208DF83D00602043
:105A80008DF83E0000208DF83F008DF840008DF825
:105A9000410006220FA91198FFF779FB0021119808
:105AA000FCF7DEF823208DF83C007A208DF83D00CD
:105AB00060208DF83E0000208DF83F008DF840A05A
:105AC0008DF841B00E988DF842000D988DF8430086
:105AD00008220FA91198FFF75AFB00211198FCF733
