:020000040801F1
:1000000050570020C16301083D1001083F1001084E
:1000100043100108471001084B10010800000000C0
:100020000000000000000000000000004F10010868
:10003000511001080000000011A701085310010829
:10004000DB630108DB630108DB630108DB63010894
:10005000DB630108DB630108DB630108DB63010884
:10006000DB630108DB630108DB630108DB63010874
:10007000DB630108DB630108DB630108DB63010864
:10008000DB630108DB630108DB63010883150108FA
:1000900021150108DB630108711501086D62010873
:1000A000DB630108DB630108DB630108DB63010834
:1000B000DB630108DB630108DB630108DB63010824
:1000C000DB630108DB630108DB630108DB63010814
:1000D000DB630108DB630108DB630108DB63010804
:1000E000DB630108DB630108DB630108DB630108F4
:1000F000DB630108DB630108DB630108DB630108E4
:10010000DB630108DB630108DB630108DB630108D3
:10011000DB630108DB630108DB630108DB630108C3
:10012000DB630108DB630108DB630108DB630108B3
:10013000DB630108DB630108DB630108DB630108A3
:1001400031160108DB630108DB630108DB6301088A
:10015000DB630108DB630108DB630108DB63010883
:10016000DB630108DB630108DB630108DB63010873
:10017000DB630108DB630108DB630108DB63010863
:10018000DB630108DB63010800F002F800F05CF8B3
:100190000AA090E8000C82448344AAF10107DA45E2
:1001A00001D100F051F8AFF2090EBAE80F0013F0D8
:1001B000010F18BFFB1A43F0010318475CCA000087
:1001C0007CCA00000A444FF0000C10F8013B13F009
:1001D000070408BF10F8014B1D1108BF10F8015BA0
:1001E000641E05D010F8016B641E01F8016BF9D193
:1001F00013F0080F1EBF10F8014BAD1C0C1B09D1EA
:100200006D1E58BF01F801CBFAD505E014F8016B5B
:1002100001F8016B6D1EF9D59142D6D370470000ED
:100220000023002400250026103A28BF78C1FBD8FF
:10023000520728BF30C148BF0B6070471FB50CF094
:100240003DFA1FBD10B510BD0AF052FB1146FFF775
:10025000F5FF00F00FFE0AF070FB03B4FFF7F2FFAA
:1002600003BC0AF071FB00007FB5684606F08DFB09
:100270004FF47A720198B0FBF2F1481EB0F1807F22
:1002800000D319E0481E4FF0E022506150170F22B2
:10029000002806DA1301FE4C00F00F052D1F6355F0
:1002A00002E01301FB4C235400BF00204FF0E0227A
:1002B00090610720106100BF7FBD06F04DF800BFC0
:1002C00006F04EF84FF47A700AF0DEF8F8E708B559
:1002D000002400BF6A460021EF48006809F0DAFCFC
:1002E0009DF800000028F5D1EC490870EC49087031
:1002F000EC48007805F090FF0446EB480470E9E70D
:1003000008B500BF6A460021E848006808F0BEFC56
:1003100004469DF800000028F4D16A460021E44814
:10032000006809F0B7FC9DF8000080B9D4E90032FC
:10033000D4E9020105F0B4FA0120DE49087000207A
:10034000DD490870DA48006809F055FDDAE7D84859
:10035000006809F050FDD5E708B500BF6A460021E6
:10036000D648006808F092FC04469DF8000000287A
:10037000F4D16A460021CE48006809F08BFC9DF854
:10038000000070B9D4E9001005F009FB0120CC4948
:1003900008700020CB490870C548006809F02BFDA3
:1003A000DCE7C348006809F026FDD7E708B500BFC1
:1003B0006A46FA21C448006809F0CCF90446C348EB
:1003C00000780228F4D19DF80000002864D10120B3
:1003D00004F0D2FA0546C5F3C00070B10020BC4954
:1003E00008700120BB4908704870BB48006808F0DD
:1003F0000AFD4EF66020B9490860B948007840B15E
:100400000020B8490860B64908704FF032000AF081
:100410003BF8B548007808B9E07A78B90020AC49D3
:1004200008700120AB4908704870AB48006808F0BC
:10043000EAFC4EF66020A9490860B9E7E07A012895
:10044000B6D10F20005BA94908600D20005BA849C8
:100450000860A8480068A5490968884205D19F48F6
:100460000068A349096888420DD0A0480068A249E5
:1004700048609F48006808608C48006808F0C3FC2A
:1004800001208D490870994800689A490860984889
:100490000068924908608BE700208D4908700120B0
:1004A0008C49087048708C48006808F0ACFC4EF627
:1004B00060208A4908607BE708B500BF6A46FA21D8
:1004C0008E48006809F046F9044680480078022802
:1004D000F4D19DF80000002867D1032004F04CFA05
:1004E0000546C5F3C000E0B18548006810B98548ED
:1004F000006830B1012004F0FEFF322009F0C4FF93
:100500000FE0002080490870022072490870012025
:1005100048707148006808F076FC4EF660207B4910
:1005200008607148007808B9E07A80B900207649FF
:10053000087002206749087001204870664800680A
:1005400008F061FC4EF6602070490860B6E7E07A7A
:100550000128B3D10F20005B6D4908600D20005BBE
:100560006C4908606C48006869490968884205D18F
:10057000664800686749096888420DD06448006889
:10058000664948606348006808604C48006808F0A5
:100590003AFC01204B4908705D4800685E490860DC
:1005A0005C4800685949086088E70020564908708F
:1005B000022048490870012048704748006808F048
:1005C00022FC4EF660205149086077E708B500BF6D
:1005D0006A4600214048006808F058FB04469DF830
:1005E00000000028F4D16A4600213148006809F073
:1005F00051FB9DF8000050BB2A480078022809D121
:10060000207801280CD161782278521ED0B204F0F3
:100610008FFE05E061782278521ED0B204F088FE89
:100620002078012802D12A4908700BE0207802289E
:1006300003D101203449087004E0002024490870E7
:10064000314908701A48006809F0D5FBC0E718481E
:10065000006809F0D0FBBBE78AB000BF1248007801
:1006600004F01DFB0F48017801A804F043FC01A829
:100670000FC8CDE90723CDE9050109AA00212848C3
:10068000006808F0A1FD05A80FC804F0F6FB49E0DA
:1006900018ED00E000E400E07C00002006000020EF
:1006A00007000020100000200A0000205000002059
:1006B0006C000020050000203C00002054000020B9
:1006C000040000203D000020400000200000002029
:1006D0000B0000208C000020580000202800002083
:1006E00018090020980240422D0900201C0000201B
:1006F00020000020240000204C3B0020440000206B
:1007000034824142308241420C00002038000020F7
:100710002C00002030000020340000208400002045
:1007200078000020FB48006808F07BFE642009F098
:10073000ABFE93E78AB000200790089005900690E2
:100740008DF809008DF8080000F069FE4320009044
:1007500005208DF80A00FF208DF80B0002218DF88E
:100760000C1001218DF80D1018218DF80E1012219A
:100770008DF80F106946E84806F00AFD642009F07C
:1007800083FE00BF09AA0021E448006808F0E2FFE8
:100790000446206833287DD006DC30280BD0312871
:1007A0005CD0322859D187E0362874D0372873D0EE
:1007B0003F28F7D1E7E14020009001208DF80A00A2
:1007C00030208DF80B00E07A30B1012813D00228D8
:1007D0001ED0032839D132E0D1480078012809D051
:1007E0000120D04908700F20CF490870CF48006819
:1007F00009F001FB29E0002004F07DFE322009F021
:1008000043FE012004F077FE322009F03DFE1CE09B
:10081000C3480078022802D1002004F0AEFE052073
:1008200009F032FEBE480078012807D00120C049F7
:100830000860C049C1F89C02BF49087005E000206B
:10084000BB490860BC49087000BF00BF6946B24898
:1008500006F09EFC642009F017FECEE141200090D6
:1008600001208DF80A0031208DF80B006946AA4856
:1008700006F08EFC012009F007FEB049097801EB73
:100880008101AF4A02EB81001422214609F0C1FF29
:10089000AA4802E03AE0E9E017E102780078401C5B
:1008A000A64B187002EB8200A54A02EB8001A54816
:1008B000006809F019F8A0E14220009001208DF8AD
:1008C0000A0032208DF80B006946934806F060FC60
:1008D000012009F0D9FD9C49097801EB81019B4A6F
:1008E00002EB81001422214609F093FF964802781A
:1008F0000078401C944B187002EB8200934A02EB84
:1009000080019348006808F0EFFF76E143200090F3
:10091000E07AFB2877D0FC2839D0FD2814D0FF28B6
:1009200011D105208DF80A00FF208DF80B0002215F
:100930008DF80C1001218DF80D1018218DF80E1076
:1009400012218DF80F1088E008208DF80A00FD2094
:100950008DF80B007F4801788DF80C10401C017851
:100960008DF80D10401C01788DF80E10401C017898
:100970008DF80F10401C01788DF81010401C017884
:100980008DF81110401C01788DF8121065E00120DF
:100990008DF80A00FC208DF80B0007F0B8FE07F078
:1009A0003FF8002007F01FF80221302007F08CF8F4
:1009B000217B684807F0FAF9617B6648401C07F024
:1009C000F5F9A17B6348801C07F0F0F9E17B6148F1
:1009D000C01C07F0EBF9217C5E48001D07F0E6F92A
:1009E000617C5C48401D07F0E1F9A17C5948801DFD
:1009F00007F0DCF9012006F0F6FF07F01EF807F01B
:100A00009FFE2AE0FFE701208DF80A00FB208DF809
:100A10000B0051480078032804DC4F480178207B04
:100A2000814219D007F073FE06F0FAFF002006F0AD
:100A3000DAFF0221502007F047F8217B464807F0F3
:100A4000B5F9012006F0CFFF06F0F7FF07F078FEBA
:100A5000414800784149087000BF00BF69462E48F0
:100A600006F096FB642009F00FFDC6E054F80B0F6A
:100A7000079060680890082207A9012004F037FC5D
:100A800001203749087009AA4FF4FA613548006817
:100A900009F000F99DF8240060B900200590069047
:100AA0003148016805914068069005A9462000F08C
:100AB000C3FC09E0002005900690FF208DF814008B
:100AC00005A9462000F0B8FC97E054F80B0F0790FA
:100AD00060680890082207A9022004F008FC0120A1
:100AE0001F49087009AA4FF4FA612048006809F00C
:100AF000D1F89DF8240060B90020059006901A48AE
:100B0000016805914068069005A9472000F094FC13
:100B100038E02DE07800002000640040480000200C
:100B200000000020010000200A0000207C000020BE
:100B30009802404200004042180900208000002036
:100B40005C3B00204000002011000020B43D00204C
:100B5000440000200008050800000D0810000020D7
:100B60001A000020700000201200002074000020F5
:100B7000002005900690FF208DF8140005A947205D
:100B800000F05AFC39E04F200090E07A20B10128B3
:100B90000CD0102828D112E001208DF80A00002086
:100BA0008DF80B00092009F06BFB1DE001208DF88A
:100BB0000A008DF80B00092009F0CBFB14E001209E
:100BC00080F3138800BF00BFBFF34F8FE148006878
:100BD00000F4E060E0490843001DDE490860BFF30F
:100BE0004F8F00BF00BFFEE700BF6946DB4806F03D
:100BF000CFFA642009F048FC00BF00BFD848007855
:100C00001E2802D10020D6490870D64800781E2838
:100C10007FF4B8AD0020D3490870B3E58AB000BFB7
:100C20006A460021D048006808F030F80446607A2F
:100C30008DF81D00207A8DF81C00A07A8DF81E001A
:100C400020680590002507E004F10B00415D0DF1DF
:100C50001F004155681CC5B2082DF5DB01A905A888
:100C600000F042FC0198C0F3C7162068A0F5E061CF
:100C700001390CD1E07A0F2809D0BC48007830B98E
:100C8000BB48006809F0B7F80120B849087020682F
:100C9000A0F5E06102390CD1E07A0F2809D0B548FF
:100CA000007830B9B448006809F0A5F80120B149CE
:100CB00008702068A0F50071813915D1E07A3728D5
:100CC00012D1207BC0F3800070B1207B10F0010FA7
:100CD0000AD1AA480078012806D1A948006809F07D
:100CE0008AF80020A54908702068B0F5C17F15D1A9
:100CF000E07A372812D1207BC0F3800070B1207BCE
:100D000010F0010F0AD19F480078012806D19E48B3
:100D1000006809F070F800209A4908702068A0F572
:100D2000A061813911D19948007801280DD10020A6
:100D3000964908709648D4F80B100160D4F80F104B
:100D400041609448006809F056F82068A0F5A06159
:100D5000823910D18D48007801280CD100208B49B0
:100D600008708B4854F80B1F0160616841608A4825
:100D7000006809F040F8C6EBC600884901EB800026
:100D8000806900283FF44CAFC6EBC60001EB800041
:100D900001A982690020904742E770B50546082303
:100DA0007F4A00217F4809F0A3F804460A237E4ABF
:100DB00000217E4809F09CF8044604237C4A002167
:100DC0007C4809F095F804460E237B4A00217B48B5
:100DD00009F08EF804460F23794A0021794809F07A
:100DE00087F804460723784A0021784809F080F8FC
:100DF00004460923764A0021764809F079F804462A
:100E00000C23754A0021754809F072F804460D2339
:100E1000734A0021734809F06BF804460CB100BF17
:100E2000FEE7FF2009F0FEF870BD70B50546FFF73C
:100E30001BFA6D480078032803DD00206B49087019
:100E400003E069480078694908700623684A002170
:100E5000684809F04DF804460323674A00216748B3
:100E600009F046F804460CB100BFFEE7FF2009F088
:100E7000D9F870BD08B562483649091F086040F6C8
:100E8000AC5005F071FA00F0FDFB05F010FA00F02F
:100E9000EFF907F0E4FB1E215A4808F087FB5A4996
:100EA00008601E21594808F081FB594908601E213D
:100EB000584808F07BFB58490860002007F059FEAD
:100EC00029490860002007F054FE544908600020BA
:100ED00007F04FFE52490860002007F04AFE5149D2
:100EE0000860002008F049FE21490860002008F051
:100EF00044FE21490860002008F03FFE20490860B8
:100F0000002008F03AFE20490860002008F035FE75
:100F100045490860002008F030FE1E4908600020A6
:100F200008F02BFE1C4908600A2008F026FE3F4905
:100F300008606946052008F03FF83D490860022333
:100F40003C4A00213C4808F0D3FF07F022FC002077
:100F500008BD00000CED00E00000FA050064004050
:100F600080000020110000204C000020060000201E
:100F70005C00002007000020600000200800002026
:100F80006400002009000020680000201A000020F2
:100F9000120000207000002074000020C400002017
:100FA000681300203507010868250020CF020108DA
:100FB00068310020BB0201086829002001030108F4
:100FC000682D002059030108682F0020CD05010875
:100FD000681B00205906010868350020AD03010890
:100FE00068390020B904010800000D081000002035
:100FF000681F00201D0C0108682300209B0D0108BC
:10100000000001085C3A002040000020D43A002093
:10101000440000206C3900204800002050000020CF
:1010200054000020580000207C0000206C000020AC
:1010300078000020680B00202B0E0108704700BFCD
:10104000FEE700BFFEE700BFFEE700BFFEE7704718
:10105000704710B507F015FB07F0B3FB07F01FFB57
:1010600010BD00000CB5002001900090754800688C
:1010700040F480307349086000BF7248006800F493
:10108000003000900198401C0190009818B9019818
:10109000B0F5A04FF1D16B48006810F4003F02D0CA
:1010A0000120009001E0002000900098012845D127
:1010B00064484030006840F0805062494031086028
:1010C0006148006840F440405F4908605D4808306E
:1010D00000685C49083108600846006840F4004038
:1010E00008600846006840F4A05008605748091F8F
:1010F0000860081F006840F08070091F086000BF8A
:101100005048006810F0007FFAD040F20570504956
:1011100008604C480830006820F003004949083155
:1011200008600846006840F00200086000BF4548BB
:101130000830006800F00C000828F8D10CBD10B58C
:101140004448006840F47000424908603D48006827
:1011500040F001003B49086000203A49083108602E
:10116000384800683C490840364908603B48091D3A
:101170000860081F006820F48020091F0860002014
:1011800030490C310860FFF76DFF4FF000603149C6
:101190008039086010BD70B50020002202230024B1
:1011A0000221284D08352D6805F00C0020B10428D7
:1011B00006D0082834D107E0294D2A4E356033E0A7
:1011C000294D284E35602FE01E4D2D1D2D68C5F38D
:1011D00080541C4D2D1D2D6805F03F0154B1224D4A
:1011E000B5FBF1F5174E361D3668C6F3881605FBBC
:1011F00006F209E01A4DB5FBF1F5124E361D3668C0
:10120000C6F3881605FB06F20E4D2D1D2D68C5F39D
:1012100001456D1C6B00B2FBF3F5124E356003E027
:101220000F4D104E356000BF00BF064D08352D68CC
:10123000C5F303150D4E705D0A4D2D68C540094E6E
:10124000356070BD003802400070004019544007FE
:10125000003C024088ED00E0FFFFF6FE1030002465
:101260000024F4009000002040787D0194000020CC
:1012700000B58BB0F848F94908600020F8490870BB
:1012800001210A2005F052FC01214FF0C06005F059
:1012900096FC0320099002208DF8280000208DF88C
:1012A0002A0003208DF8290001208DF82B0009A9C0
:1012B000EC4805F09DF96020099002208DF8280087
:1012C00000208DF82A0003208DF8290001208DF8D8
:1012D0002B0009A9E44805F08BF909220021E14817
:1012E00005F011FA09220121DE4805F00CFA092265
:1012F0000521DD4805F007FA09220621DA4805F044
:1013000002FA4FF4C06005F07BF814208DF820003D
:1013100002208DF8210000208DF8220001208DF898
:10132000230008A805F071F816208DF82000012090
:101330008DF8210000208DF8220001208DF8230077
:1013400008A805F062F813208DF8200003208DF81E
:10135000210000208DF8220008A805F056F8402052
:101360008DF8200000208DF8210008A805F04DF828
:10137000BE4805F07BFDBE4805F078FD05A805F0E8
:1013800099FE00208DF81A0001208DF81B00002026
:101390008DF81C008DF81D008DF81E008DF81F00C3
:1013A0008DF816008DF8170005208DF8180006201E
:1013B0008DF81900ADF8140005A9AC4805F06FFDD3
:1013C00005A9AB4805F06BFD00208DF80E008DF8E7
:1013D0000F0001208DF810004FF4C060ADF804003C
:1013E0000020ADF806004FF47E40ADF80800002064
:1013F000ADF80A00ADF80C0001208DF8110001A82D
:1014000005F0D7FD0020ADF80800ADF80A000E2069
:101410008DF80E0001A805F0CCFD0BB000BD10B595
:10142000012248F60301914806F0C1F80122022189
:101430008F4806F0BCF810BD70B586B005460C4666
:101440000120029000208DF80D008DF80C0008207E
:101450008DF80E00019520788DF80F0061788DF8D9
:101460001010A1788DF81110E1788DF81210217903
:101470008DF8131061798DF81410A1798DF815107D
:10148000E1798DF8161000BF01A9784805F080FEBB
:1014900006463146754805F013FF012008F0F4FFB9
:1014A000744800780028EFD006B070BD10B5024631
:1014B000106808601079012802D10220487201E00A
:1014C000002048725079887200200872002306E0DC
:1014D000901DC45C01F10B00C454581CC3B2507978
:1014E0009842F5DC002010BD10B502461068086077
:1014F000507A022802D10120087101E00020087111
:10150000907A4871002306E002F10B00C45C881D4C
:10151000C454581CC3B2907A9842F5DC002010BD28
:1015200010B507F0AEF84D48002102684F4805F0AD
:1015300023FF4A4801685048006808F0D5F9484838
:1015400000781D2803D100204549087004E0444874
:101550000078401C424908704148007800EB800048
:101560003D4901EB80003D49086007F098F810BD47
:1015700010B53E4818300468C1143C4806F017F90D
:1015800010BD10B507F07DF838480830006810F03D
:10159000010F14D035480830006810F0020F03D056
:1015A00001203449087002E00020324908702F48B9
:1015B0000830006840F080002C49083108602B4852
:1015C0000830006810F4807F14D028480830006884
:1015D00010F4007F03D001202649087002E00020AB
:1015E0002449087021480830006840F400401F4931
:1015F000083108601D480830006810F4803F14D09E
:101600001A480830006810F4003F03D0012019493F
:10161000087002E00020174908701448083000687C
:1016200040F4000011490831086007F038F810BD97
:1016300010B507F026F8114A00210D4805F09CFE70
:101640000E480068802804D00C490D48006807F057
:10165000DAFB07F024F810BD0C400020A8000020A1
:10166000AC000020000C0240000402400064004076
:1016700000680040A40000204800002064420020D0
:101680004C0000201CB50121084605F04FFA41F638
:10169000F000009001208DF8040000208DF8060075
:1016A0008DF8050069462D4804F0A2FF0121084687
:1016B00005F03CFA4FF48070009000208DF8040093
:1016C0008DF805006946254804F092FF01210220AB
:1016D00005F02CFA4FF40060009001208DF8040012
:1016E00000208DF806008DF8050069461C4804F0BE
:1016F0007FFF0121042005F019FA802000900120CD
:101700008DF8040000208DF806008DF8050069466C
:10171000144804F06DFF0121082005F007FA4FF48A
:10172000FC40009000208DF804008DF8050069460B
:101730000D4804F05DFF00200C4908604FF00100E7
:101740000B49C1F89C020B4908604FF000000A49A0
:10175000086001F1040108601CBD000000000240A7
:101760000004024000080240000C0240980240427F
:101770000000404294024042AC024042FE480078E1
:101780007047FD4908707047FC480078704711B5F4
:1017900087B09DF81C00F94908709DF81C0000F501
:1017A000C06006900020042306AA012100904FF497
:1017B000905000F061FE9DF81C0000F5B0600690AE
:1017C0000020042306AA022100904FF4905000F05C
:1017D00053FE0020012307AA032100904FF49050EC
:1017E00000F04AFEE64B0FCB02AC0FC4002411E020
:1017F00002A850F824009DF81C1008440690002010
:10180000009004F5A050042306AA012100F034FE44
:10181000601CC4B2DB488089A04201DD042CE7DBF8
:10182000D74B10330FCBCDE90423CDE902010024BF
:1018300011E002A850F824009DF81C1008440690FE
:101840000020009004F5C050042306AA012100F0F6
:1018500013FE601CC4B2CB48008AA04201DD042CF8
:10186000E7DB002008B010BD30B5002155E00022B4
:101870004FE0002001EB8104C34D05EB441402EB63
:10188000820504F8350001EB8104BF4D05EB4414DB
:1018900002EB820504EBC504607001EB8104BA4DD4
:1018A00005EB441402EB820504EBC504608001EBF8
:1018B0008104B54D05EB441402EB820504EBC5042D
:1018C000207101EB8104B04D05EB441402EB82055D
:1018D00004EBC504607101EB8104AB4D05EB4414CE
:1018E00002EB820504EBC504A07100230DE0002487
:1018F00001EB8100A44D05EB401002EB820500EBEB
:10190000C500C01DC454581CC3B2202BEFDB501CB3
:10191000C2B2042AADDB481CC1B20129A7DB0021F9
:101920000CE0002206E00120984C04EB8104A05456
:10193000501CC2B2042AF6DB481CC1B20129F0DBFC
:10194000002123E000221DE0012001EB0114904D55
:1019500005EBC40402EB021504F8150000230DE0AA
:10196000002401EB01108A4D05EBC00002EB0215CB
:1019700000EB4500401CC454581CC3B2202BEFDBC5
:10198000501CC2B2042ADFDB481CC1B20129D9DBDA
:1019900000210DE0002207E00F2001EB41047D4D06
:1019A0002C44A054501CC2B2032AF5DB481CC1B21F
:1019B0000129EFDB002030BD00B585B08020049008
:1019C0000020039002900190042304AA0146009095
:1019D00041F2050000F050FD0020042303AA014657
:1019E000009041F2060000F047FD0020042302AA07
:1019F0000146009041F2070000F03EFD0020022366
:101A000001AA0146009041F2170000F035FD0020C8
:101A10006149087005B000BD00205F49087070473B
:101A200070B504462146002000F040FA05462846DD
:101A300070BDFEB504460D46042605F5C060029053
:101A400000200090A0B2334602AA012100F014FD4C
:101A500005F5B060029000200090A0B2334602AAC3
:101A6000022100F009FD0195012600200090A0B29E
:101A7000334601AA032100F0FFFCFEBD2DE9F04131
:101A800005460E46002716B1FF20BDE8F08100BFD5
:101A90002946002002F04EFE04460A2008F0F4FC1D
:101AA000B7F5FA7F01DBFF20EFE7781C87B2002C47
:101AB000EED0802C01D1FF20E7E70020E5E72DE9FB
:101AC000F04105460E4617469846B8F1000F02D081
:101AD000FF20BDE8F08100BF3B463246294600208A
:101AE00002F0EFFD0028F7D03B46324629460020A1
:101AF00002F0E7FD0446802C01D1FF20E9E7002039
:101B0000E7E7FEB504460D4601270026029502A828
:101B100003234FF490522146CDE90070002002F0DB
:101B200079FC064631462046FFF7A8FF0020FEBD9F
:101B30007FB584B005461646002001900090A8B2FB
:101B4000042305AA012100F097FC002005F500718F
:101B5000009088B2012307AA002100F08DFC00202C
:101B600005F50071009088B201AB03AA002100F0D6
:101B700053FC00242CE00000AD000020C000002039
:101B8000C8C60108B8C80108804300201009002019
:101B900020440020B6000020AE00002036F83400BB
:101BA000010406EBC400007941EA002006EBC40101
:101BB0004979084302900020621CD1B205F50072F9
:101BC000009090B2042302AA00F056FC601CC4B23C
:101BD0009DF81C008442E1DB08B070BD2DE9FE4F8A
:101BE00080460C4617461E464FF00109052008F0B6
:101BF0004BFC07F10040029002A80421A2B201238D
:101C0000CDE900104146002002F004FC8246052088
:101C100008F03AFC51464046FFF730FFFF2801D15B
:101C2000BDE8FE8F0DA80121A2B20223CDE900106C
:101C30004146002002F0EEFB8246052008F024FC1D
:101C400051464046FFF71AFF0020029002A8CDE956
:101C5000009004F5007082B200234146184602F05D
:101C6000D9FB8246052008F00FFC51464046FFF79D
:101C700005FF002523E036F83500010406EBC5001A
:101C8000007941EA002006EBC5014979084302903A
:101C900002A80421CDE90010681CC3B204F500704D
:101CA00082B24146002002F0B5FB8246052008F0D2
:101CB000EBFB51464046FFF7E1FE681CC5B29DF8BC
:101CC00030008542D7DB0CA8CDE9009004F5007008
:101CD00082B200234146184602F09CFB8246052052
:101CE00008F0D2FB51464046FFF7C8FE029702A813
:101CF0000421A2B20123CDE900104146002002F0E8
:101D000089FB8246052008F0BFFB51464046FFF79D
:101D1000B5FE00BF84E7FEB505460E4601960020DD
:101D2000012301AA0146009041F2160000F0A4FB35
:101D3000002413E015F8240005EB8401498860F3C2
:101D40001F41029100200090601CC1B2042302AA2E
:101D500041F2160000F090FB601CC4B2B442E9DB13
:101D6000FEBD1CB5044601940020022301AA0146D1
:101D7000009041F2170000F07FFB1CBD2DE9FE43EF
:101D800006460D46174600241AE015F8240005EB18
:101D90008401498860F31F41029102A80421CDE922
:101DA0000010601CC3B241F216023146002002F05E
:101DB00031FB804641463046FFF760FE601CC4B2EE
:101DC000BC42E2DBBDE8FE8333B583B0044604A821
:101DD0000221002341F21702CDE9001021461846E6
:101DE00002F018FB054629462046FFF747FE05B0DE
:101DF00030BD13B582B0044600200090A0B201238C
:101E000003AA022100F038FB1FBD77B583B004465A
:101E10000D4605A80121AAB20223CDE900102146F2
:101E2000002002F0F7FA064631462046FFF726FE6C
:101E300006B070BD01B582B00020042302AA01469D
:101E4000009041F2060000F017FB0EBDFFB583B015
:101E500005460C461E4605A80421002341F2060251
:101E6000CDE900102946184602F0D4FA0746394653
:101E70002846FFF703FE0A2008F006FB0EB902947D
:101E800002E004F18040029002A80421002341F204
:101E90000502CDE900102946184602F0BBFA0746B4
:101EA00039462846FFF7EAFD07B0F0BD10B50246F7
:101EB00002EB42037E4C2344585C10BD352803D10D
:101EC00001217C4A117004E0332802D10021794AB3
:101ED000117070472DE9F04F8DB006460C46207802
:101EE00000F07F050DF1140B207901282FD17248E5
:101EF0000078854227D17048007800F5E0600190B5
:101F000001208DF8090000208DF808006B4800784A
:101F10008DF80A006A48007848B19DF80A0040F040
:101F200080008DF80A0000206549087002E0012059
:101F30006349087008A901A8FFF7B8FA08A9614821
:101F400005F026F900BF01200DB0BDE8F08F207923
:101F5000002851D1A07900F07F0006EB4601544AD9
:101F60001144485506EB460011460844405D08B947
:101F70000120E9E706EB46004D490844405D0F2883
:101F80003AD000205B4607AA0146009041F21600B5
:101F900000F042FA80BB079800780A2802DD4FF073
:101FA0000A0802E0079890F80080002722E000204D
:101FB0000090781CC1B25B4606AA41F2160000F000
:101FC0002BFAA8B9069800881FFA80F906980068CD
:101FD000C0F3074AB9F1000F0AD0554508D135487A
:101FE0000078012804D13320FFF768FF0020ABE719
:101FF000781CC7B24745DADB0120A5E770472DE919
:1020000070438EB00DF1040900204B4604AA01462E
:10201000009041F2160000F0FFF940BB04980078F0
:102020000A2801DD0A2601E00498067800251CE054
:1020300000200090681CC1B24B4603AA41F2160072
:1020400000F0EAF978B90398008884B25CB1BC4228
:1020500009DA03980068C0F307483520FFF72EFF20
:102060004046FFF7CBFF681CC5B2B542E0DB00205D
:102070004B4602AA0146009041F2170000F0CCF94D
:1020800078B90298048864B1A7420ADB0AA905A8B6
:10209000FFF72AFA05A90B4805F07AF800200A494B
:1020A00088800EB0BDE87083002002490870704738
:1020B000B6000020B9000020C0000020AD000020C4
:1020C000AE00002000680040B000002010B50021E4
:1020D0000DE0002207E0002001EB4103334C2344D4
:1020E0009854501CC2B2032AF5DB481CC1B2012926
:1020F000EFDB002010BD70B586B006460C461546D5
:10210000002001908DF80D0002208DF80E008DF852
:102110000F508DF8104000208DF80C0001A92448C4
:1021200005F036F8002006B070BD30B585B0054624
:102130000C4644F4E060009002208DF80900012074
:102140008DF80A0000208DF808006946184805F04F
:102150001FF8002005B030BD70B504460D460F20B5
:1021600004EB4401134A11444855012004EB440197
:102170000E4A114448559DB9002000BF0DE00F21C3
:1021800004EB44020B4B1A441154012104EB4402AA
:10219000064B1A441154411CC8B20328EFDB00BFA0
:1021A00029462046FFF7C1FF002070BDBA0000207D
:1021B00000680040B600002070B50546049CCA4E79
:1021C000A01BB44214D007DCC84820180ED0A0F5DC
:1021D0007F40FE380DD107E0C54E801907D06FF45F
:1021E0000036801905D100E004E003E002E001E0E0
:1021F00000E000BF00BF002070BD70B504460D4672
:102200001646002100201860B4F5805F16DBB4F597
:10221000905F13DAA4F5805081B2B6480088A042DE
:1022200003DBB54850F8310018B9B44818600020F5
:1022300070BDB14800EBC1021046F9E7B4F5A05FEC
:1022400016DBB4F5B05F13DAA4F5A05081B2A9484B
:102250004089A04203DBAA4850F8310018B9A748CA
:1022600018600020E4E7A64800EBC1021046DFE753
:10227000B4F5C05F16DBB4F5D05F13DAA4F5C05037
:1022800081B29C48C089A04203DB9E4850F83100CF
:1022900018B99A4818600020CAE79A4800EBC102B2
:1022A0001046C5E7B4F5B05F16DBB4F5C05F13DACE
:1022B000A4F5B05081B28F48408AA04203DB924817
:1022C00050F8310018B98D4818600020B0E78E48EA
:1022D00000EBC1021046ABE7B4F5D05F16DBB4F5F6
:1022E000E05F13DAA4F5D05081B28248808AA04220
:1022F00003DB864850F8310018B980481860002088
:1023000096E7824800EBC102104691E7B4F5905F72
:1023100016DBB4F5945F13DAA4F5905081B27548DA
:102320004088A04203DB7A4850F8310018B973485E
:10233000186000207CE7764800EBC102104677E782
:10234000B4F5945F16DBB4F5985F13DAA4F59450F6
:1023500081B26848C088A04203DB6E4850F8310063
:1023600018B966481860002062E76A4800EBC102AD
:1023700010465DE7B4F5005F16DBB4F5C04F13DA25
:10238000A4F5005081B25B48C08AA04203DB6248DA
:1023900050F8310018B959481860002048E75E48E5
:1023A00000EBC102104643E7B4F5C04F16DBB4F5AD
:1023B000C44F13DAA4F5C04081B24E48008BA0424E
:1023C00003DB564850F8310018B94C48186000201B
:1023D0002EE7524800EBC102104629E7B4F5C44F7E
:1023E00016DBB4F5204F13DAA4F5C44081B241489E
:1023F000408BA04203DB4A4850F8310018B93F48EF
:102400001860002014E7464800EBC10210460FE7B1
:102410003A48186000200BE72DE9F84380460C4647
:1024200016461F46DDF820906B46002221464046A6
:10243000FFF7E3FE0546009810B10098BDE8F88369
:102440002879A04201DC3748F8E7B9F1000F07D03E
:10245000286810F83400012802D12448C043EDE771
:10246000286800EBC40040683060286800EBC400B6
:10247000807838700020E1E72DE9F84F81460C465E
:1024800017461E46DDF828A06B46324621464846D0
:10249000FFF7B3FE0546009810B10098BDE8F88F2D
:1024A0002879A04201DC1F48F8E7286800EBC40047
:1024B00090F80280B04501D01B48EFE7BAF1000F59
:1024C00007D0286810F83400022802D1074840429B
:1024D000E4E7296801EBC40132464868394608F050
:1024E00053F90020DAE7000041000406FEFFFEF980
:1024F0003100FDFFB8C80108E8C601080000020667
:1025000008C8010828C8010840C8010860C80108B7
:10251000B0C70108B8C7010878C8010880C8010819
:10252000B0C8010811000906100007060FB470B505
:1025300086B006460F9DF948007805282BD100206B
:102540008DF80C000B98C0F30A000190A5B900208B
:102550008DF80D009DF830008DF80E00002406E087
:102560000DF13100015D22380155601CC4B29DF8A7
:102570003000A042F4DC05E002208DF80D000020C0
:102580008DF80E0001A9E64804F002FE002006B016
:1025900070BC5DF814FBFF20F9E7F0B587B0074683
:1025A0000D46E0480078012825D10395DD484078A4
:1025B0008DF81000002407E0DA48801C015D0DF161
:1025C00011000155601CC4B29DF81000A042F3DC5C
:1025D0000020019006980090384603A90EC9FFF725
:1025E000A5FF0646CF48007840F00800CD490870A6
:1025F000304607B0F0BDFF20FBE72DE9F04F85B076
:102600000746884600200490039002900DF1040BC9
:102610004FF0010A00250026A7F5C0501FFA80F9E7
:10262000BE480078052803D0FF2005B0BDE8F08F34
:102630006FE0BAF1070F6BD2DFE80AF06A041324E7
:10264000365E680000205B46424601210090384615
:10265000FFF7E2FE044614B94FF0020A58E0FF20EB
:10266000E3E7002009F5D051009088B25B4604AA48
:102670000021FFF7D1FE044614B94FF0030A47E0EA
:10268000FF20D2E700206A1CD1B209F5D052009099
:1026900090B25B4602AAFFF7BFFE044614B94FF0A2
:1026A000040A35E0FF20C0E700200090029A12885B
:1026B000C2F30721029A1268100C5B4603AAFFF7C7
:1026C000ABFE0446B4B902990978C1F3C402954936
:1026D000891C8819039908F057F802980078C0F30C
:1026E000C4003044C6B28F484670681CC5B24FF073
:1026F000050A0DE0FF2098E704980078A84202DD63
:102700004FF0030A04E04FF0060A01E000208CE7D6
:1027100000BF8EE72DE9F04188B007460E46002441
:102720000DF1180800BF20E00020009004F5A05033
:10273000434607AA0121FFF76FFE05469DB907989A
:102740000068B0420FD107980068029000208DF811
:102750000C000120019005980090384602A90EC98E
:10276000FFF7E4FE00BF601CC4B26F48007CA042CB
:10277000DADC08B0BDE8F0812DE9F04F89B083467E
:102780000D4600200890079006900590049002A83E
:1027900003904FF0010A61480078052879D100BF05
:1027A0004FF0000900244FF000082879002871D16B
:1027B000ADE0BAF1090F19D2DFE80AF0A805192B2C
:1027C0004B5B6F839C00002706E0A81DC15D554848
:1027D000801CC155781CC7B26879B842F5DC6879AD
:1027E00050494870F72008704FF0020A8EE0002030
:1027F000009004F5A05004AA0121039BFFF70CFEF2
:10280000064616B94FF0030A80E0FF2009B0BDE884
:10281000F08F049800682988C1F30A01884202D128
:102820004FF0040A72E0601CC4B24FF0020A0027A5
:1028300006E0A81DC15D3B48801CC155781CC7B28D
:102840006879B842F5DC687936494870F720087035
:102850005CE00020009004F5B05008AA0021039B22
:10286000FFF7DAFD064616B94FF0050A4EE0FF20E5
:10287000CCE7002008F10102D1B2009004F5B0507D
:1028800006AA039BFFF7C8FD064626B94FF0060AC5
:102890003CE0F9E04AE0FF20B8E700200090069A0B
:1028A0001288C2F30721069A1268100C07AA039B2C
:1028B000FFF7B2FD064616B94FF0070A26E0FF20E3
:1028C000A4E706980078C0F3C4021648801C00EB09
:1028D0000901079807F058FF06980078C0F3C40074
:1028E000484400F0FF0908F1010000F0FF084FF034
:1028F000080A0BE008980078404502DD4FF0050A11
:1029000004E04FF00009C84600207FE700BF0648FA
:102910008089A0423FF74DAFB4E00000AD00002039
:102920000068004074430020B8C8010828790128D5
:10293000F2D1A2E0BAF10A0F18D2DFE80AF09D0541
:102940009D9D1D39495B889B0020009004F5C05077
:1029500004AA0121039BFFF75FFD06463EB90498D8
:1029600000682968884202D14FF0040A84E0601CA4
:10297000C4B24FF0010A7FE00020009004F5C0507F
:1029800005AA0221039BFFF747FD064676B9059885
:102990000078FD2807D005980078FC2803D005981A
:1029A0000078FF2802D14FF0050A65E0FF202DE7EF
:1029B0000020009004F5D05008AA0021039BFFF7E7
:1029C0002BFD064616B94FF0060A55E0FF201DE71D
:1029D000002008F10102D1B2009004F5D05006AAFF
:1029E000039BFFF719FD064616B94FF0070A43E0AF
:1029F000FF200BE700200090069A1288C2F30721FF
:102A0000069A1268100C07AA039BFFF705FD0646FD
:102A1000DEB906990978C1F3C402704901EB0900D7
:102A2000079907F0B1FE06980078C0F3C400484447
:102A300000F0FF096948801E80F8019008F101004C
:102A400000F0FF084FF0080A16E0FF20DEE60898C5
:102A50000078404502DD4FF0060A0DE001205F4995
:102A6000891E0870049801685846FFF796FD4FF0DC
:102A7000090A01E00020C9E600BF5948008AA042C7
:102A80003FF758AF0020C1E60020BFE62DE9F04730
:102A900088B081460F4600250020079006900590DB
:102AA00004900390002401260DF1080A4FF001085C
:102AB00093E0B8F1090F13D2DFE808F08E05172D67
:102AC000334761717E000020009004F5D0505346DA
:102AD00007AA0021FFF7A0FC054615B94FF0020830
:102AE0007AE0FF2008B0BDE8F08707980078B04290
:102AF0000CDB0020009004F5D050534606AA314666
:102B0000FFF78AFC05464FF0030803E0601CC4B2DF
:102B10000126B04660E015B94FF004085CE0FF20E4
:102B2000E0E700200090069A1288C2F30721069A77
:102B30001268100C534605AAFFF76EFC054615B93E
:102B40004FF0050848E0FF20CCE70598B84211D1C6
:102B500000260020009004F5C050534603AA01212E
:102B6000FFF75AFC054615B94FF0060801E0FF20B3
:102B7000B8E731E0701CC6B24FF002082CE000202C
:102B8000009004F5C050534604AA0221FFF744FC0C
:102B9000054615B94FF007081EE0FF20A2E704988C
:102BA0000078FF2802D14FF0080815E0601CC4B27D
:102BB0004FF00108FF2095E704F5C05003A9FFF787
:102BC0001CFD01200549891E0870039801684846CC
:102BD000FFF7E3FC002085E700BF6AE776430020AB
:102BE000B8C8010830B5002300EB8004FE4D05EBAA
:102BF000441401EB810504F8353000EB8004FA4DF4
:102C000005EB441401EB810504EBC504637000EB94
:102C10008004F54D05EB441401EB810504EBC5047C
:102C2000638000EB8004F04D05EB441401EB81055B
:102C300004EBC504237100EB8004EB4D05EB441459
:102C400001EB810504EBC504637100EB8004E64DE4
:102C500005EB441401EB810504EBC504A3710022CC
:102C60000DE0002400EB8003DF4D05EB431301EB87
:102C7000810503EBC503DB1D9C54531CDAB2202AEB
:102C8000EFDB30BD30B5014600204FE0002301EB03
:102C90008104D54D05EB441400EB800504F8353074
:102CA00001EB8104D04D05EB441400EB800504EBEF
:102CB000C504637001EB8104CB4D05EB441400EBBC
:102CC000800504EBC504638001EB8104C64D05EB70
:102CD000441400EB800504EBC504237101EB81046F
:102CE000C14D05EB441400EB800504EBC504637192
:102CF00001EB8104BC4D05EB441400EB800504EBB3
:102D0000C504A37100220DE0002401EB8103B64D40
:102D100005EB431300EB800503EBC503DB1D9C545F
:102D2000531CDAB2202AEFDB431CD8B20428ADDBF7
:102D300030BD10B502460B4600210EE002EB8200CA
:102D4000A94C04EB401001EB810410F8340010B9D9
:102D50001970002010BD481CC1B20429EEDBFF2011
:102D6000F8E730B503460C4600210FE003EB830083
:102D70009D4D05EB401001EB810510F83500A04298
:102D800002D11170002030BD481CC1B20429EDDB16
:102D9000FF20F8E72DE9FF418EB080469348007888
:102DA000052803D0914800787F2877D1002004902F
:102DB000039002AF9DF83C008D490978884209D103
:102DC00000203B4604AA022100904FF49050FFF7E8
:102DD00023FB30E0002518E0002005F59451009019
:102DE00088B23B4603AA0321FFF716FB064636B915
:102DF000039800789DF83C10884204D109E0FF2038
:102E000012B0BDE8F081681C85B27A480089A842FA
:102E1000E2DC00BF77480089A84201D1FF20EFE73C
:102E2000002005F59451009088B23B4604AA012188
:102E3000FFF7F2FA00BF049800680A9000208DF8AE
:102E40002C0008208DF82D009DF83D00002803DDA2
:102E50009DF83E008DF82E00012407E0611E0DF163
:102E60003F00415C11380155601CC4B29DF83D0023
:102E7000A042F3DC9DF83D4005E000210DF12E005D
:102E80000155601CC4B2082CF7DB05A90AA8FEF79F
:102E90000DFB05A9584804F07BF900BFFF20AFE700
:102EA0002DE9FE4307460D4616461C4608208DF8C0
:102EB000010080208DF802004D4800788DF8000058
:102EC000E9B28DF80310290A8DF804108DF8056019
:102ED000E1B28DF80610210A8DF80710210C8DF84B
:102EE0000810210E8DF8091038469DE80E00FFF7F6
:102EF00051FF80464046BDE8FE832DE9F04F85B086
:102F000004460D46FF20049004EB8400364901EB93
:102F1000401005EB850110F831008DF8000004EB3E
:102F20008400314901EB401005EB850100EBC10045
:102F3000407810F0080F56D104EB84002A4901EBC9
:102F4000401005EB850100EBC100407800F0030064
:102F5000012802D003287CD1F0E004EB8400224950
:102F600001EB401005EB850100EBC10081788DF885
:102F7000031004EB84001C4901EB401005EB8501B4
:102F800000EBC1004088010A8DF8041004EB8400B6
:102F9000154901EB401005EB850100EBC1000179FB
:102FA0008DF8051004EB84000F4901EB401005EB90
:102FB000850100EBC100407810F0040F7DD104EBD7
:102FC0008400094901EB401005EB850100EBC100CD
:102FD000407905284EDA04EB8400034901EB4010E8
:102FE00005EB85010AE0DEE180430020AD00002012
:102FF000C0000020B8C801080068004000EBC10014
:103000004079C0F10400C7B24FF0010AD346C7F1BE
:103010000800C0B28DF80100002610E004EB840027
:10302000FE4901EB401005EB850100EBC100C01D1E
:10303000825D0DF10300F11C4254701CC6B2C7F151
:103040000400B042EADC04EB8400F44901EB4010D8
:1030500000E0A2E105EB850100EBC100407904EB43
:103060008401EE4A02EB411105EB850201EBC2013E
:10307000887126E00027BA464FF0010B04EB84006C
:10308000E64901EB401005EB850100EBC1004179F9
:103090008DF8061000218DF809108DF807108DF8B5
:1030A000081008208DF80100002004EB8401DB4AA1
:1030B00002EB411105EB850200E00EE001EBC201DD
:1030C000887107F00300202141EA800040EA4A00AD
:1030D00040EA0B008DF8020010E004208DF801009A
:1030E00040208DF80200002004EB8401CB4A02EB63
:1030F000411105EB850201EBC201887120469DE874
:103100000E00FFF747FE049004EB8400C34901EB77
:10311000401005EB850100EBC100407820F0030072
:10312000C01C40F0080004EB8401BC4A02EB4111D2
:1031300005EB850201EBC201487033E104EB84002A
:10314000B64A02EB401005EB850210F8321003AAD4
:103150002046FFF706FE9DF80C5004EB8400AF49B3
:1031600001EB401005EB850100EBC100407810F049
:10317000040F7CD104EB8400A84901EB401005EB5F
:10318000850100EBC100407904EB8401A34A02EB06
:10319000411105EB850201EBC2018979401AC6B2E3
:1031A000002E10DC0020049004EB84019B4A02EB0B
:1031B000411105EB850201EBC2014870294620460A
:1031C000FFF710FDEEE0072E02DD0027B94604E010
:1031D000C6F10700C7B24FF00109C7F10800C0B23D
:1031E0008DF8010000262EE004EB84008B4901EBF2
:1031F000401005EB850100EBC100817904EB8400F0
:10320000864A02EB401005EB850200EBC200807994
:10321000401C04EB8402814B03EB421205EB850357
:1032200002EBC302907104EB84007C4A02EB401075
:1032300005EB850200EBC200C01D415C0DF10300EF
:103240008155701CC6B2C7F10700B042CCDC04EB5C
:103250008400724901EB401005EB850100EBC100D1
:103260004078C0F30018002040EA081000E025E094
:1032700007F0070140EA410040EA09008DF802002A
:1032800004EB8400654901EB401005EB850100EB80
:10329000C100407880F0100004EB84015F4A02EB2B
:1032A000411105EB850201EBC2014870B9F1000F35
:1032B00053D029462046FFF795FC4EE004EB8400EE
:1032C000564901EB401005EB850100EBC100817808
:1032D0008DF8031004EB8400504901EB401005EB1E
:1032E000850100EBC1004088010A8DF8041004EB51
:1032F00084004A4901EB401005EB850100EBC10059
:1033000001798DF8051004208DF8010004EB84008C
:10331000424901EB401005EB850100EBC10040780C
:10332000C0F30018602040EA08108DF8020004EB9A
:1033300084003A4901EB401005EB850100EBC10028
:10334000407880F0100004EB8401344A02EB411114
:1033500005EB850201EBC201487020469DE80E0096
:10336000FFF718FD049004EB84002C4901EB40109A
:1033700005EB850100EBC100407820F00300C01C84
:1033800040F0080004EB8401244A02EB411105EBF4
:10339000850201EBC201487004E029462046FFF790
:1033A00021FC00BF00BF049805B0BDE8F08F2DE9F7
:1033B000FF5F04468946924600200390B4F5B05F53
:1033C00004DBB4F5C05F01DA012000E000200290C8
:1033D000B4F5D05F04DBB4F5E05F01DA012100E071
:1033E00000210191DDE90110084332D0B9F1000F4D
:1033F0002FDDDAF80070380C0090C7F30725C7F30B
:10340000C40803AB424629460098FEF7F6FE06467E
:10341000039838B1024804B0BDE8F09F8043002013
:10342000410004063079A84201DCFE48F3E7306829
:1034300000EBC50090F802B0C34501D0F948EAE7B7
:10344000029830B1306810F83500022801D1F548F3
:10345000E1E70020DFE72DE9F04F8FB00446884612
:1034600000200B90079006908346824604A80590A2
:10347000ED480078052803D0EB4800787F287DD1FF
:1034800098F8000000F07F008DF8200098F8050003
:103490008DF821009DF82100002803DD98F8060032
:1034A0008DF82200012508E008F10600425D691E42
:1034B0000DF123004254681CC5B29DF82100A842BA
:1034C000F2DC9DF820100DAA2046FFF74AFC0E9072
:1034D0000E9820B10DA92046FFF72BFC0E9004EBAF
:1034E0008400D24901EB40109DF8341001EB8101BA
:1034F00000EBC100407800F0030003287ED104EB0C
:103500008400CA4901EB40109DF8341001EB8101A1
:1035100000EBC100407810F0080F6FD098F804005D
:103520000028EBD10C9086E2002000900C9901F568
:10353000945006AA0221059BFEF76EFF02900298A6
:10354000002875D106980068D8F800108842F8D194
:103550009DF8220080286DD104EB8400B34901EB73
:1035600040109DF8341001EB810100EBC100408850
:10357000AF4901EB44119DF8202000E0FEE321F863
:10358000320004EB8400A94901EB40109DF834108F
:1035900001EB810100EBC1000079A54901EB441169
:1035A0009DF8202001EBC201887008A88179C079BC
:1035B00041EA002108A8007A41EA004108A8407ABF
:1035C00041EA00609A4901EB44119DF8202001EB8B
:1035D000C201486004EB8400944901EB40109DF85F
:1035E000341001EB810100EBC100407810F0040FB2
:1035F00009D180208F4901EB840100E022E29DF88F
:10360000202088540BE0802004EB04118A4A02EB4E
:10361000C1019DF8202002EB021201F812009DF872
:1036200034102046FFF7DEFA80200FB0BDE8F08F9F
:10363000FDE1FFE79DF8220010F0200F35D004EBEC
:1036400084007A4901EB40109DF8341001EB8101B0
:1036500000EBC100407904EB8401744A02EB411194
:103660009DF8342002EB820201EBC2018979884285
:103670001ADC704800EB84009DF82010405C30B9E3
:1036800001206C4901EB84019DF820208854002022
:1036900004EB8401654A02EB41119DF8342002EBF2
:1036A000820201EBC2014870A2E19DF8220010F0F5
:1036B000400F75D19DF82200C0F300199DF822003B
:1036C000C0F342069DF8220000F0010B002538E00F
:1036D0000DF12300415D04EB8400544A02EB4010DD
:1036E0009DF8342002EB820200EBC200827904EBE9
:1036F00084004E4B03EB40109DF8343003EB830302
:1037000000EBC3008079401CC3B204EB8400DFF8F7
:103710001CC10CEB40109DF834C00CEB8C0C00EB82
:10372000CC00837104EB8400404B03EB40109DF808
:10373000343003EB830300EBC300C01D8154681CCD
:10374000C5B2C6F10700A842C2DCBBF1000FABD086
:10375000042004EB8401354A02EB41119DF834202A
:1037600002EB820201EBC201487004EB0410324903
:1037700001EBC0009DF8201001EB011110F81100C1
:10378000002891D1012004EB04112B4A02EBC10166
:103790009DF8202002EB021201F8120000251CE027
:1037A00051E004EB8400214901EB40109DF83410F6
:1037B00001EB810100EBC100C01D415D04EB041071
:1037C0001D4A02EBC0009DF8202002EB021200EB24
:1037D0004200401C4155681CC5B204EB84001349EB
:1037E00001EB40109DF8341001EB810100EBC100AA
:1037F0008079A842D5DC04EB84000C4901EB401031
:103800009DF8341001EB810100EBC100807904EBDD
:103810000411094A02EBC1019DF8202002EB0212BB
:103820000CE0000041000406AD00002080430020B1
:10383000A8440020100900202044002001EB420190
:1038400081F82100D4E09DF82200C0F381069DF8A4
:103850002200C0F340000B909DF8220000F0010A06
:103860000B9800287ED0BAF1000F00D10026002569
:1038700012E00DF12300E91C415C04EB8400FE4AD8
:1038800002EB40109DF8342002EB820200EBC200F4
:10389000C01D4155681CC5B2C6F10400A842E8DC51
:1038A000C6F1040004EB8401F34A02EB41119DF8D8
:1038B000342002EB820201EBC2014871042004EBC8
:1038C0008401ED4A02EB41119DF8342002EB8202A3
:1038D00001EBC201487004EB0410E84901EBC000A1
:1038E0009DF8201001EB011110F81100D8BB012048
:1038F00004EB0411E14A02EBC1019DF8202002EB28
:10390000021201F8120000251BE004EB8400DA49E2
:1039100001EB40109DF8341001EB810100EBC10078
:10392000C01D415D04EB0410D44A02EBC0009DF8B9
:10393000202002EB021200EB4200401C4155681CA3
:10394000C5B204EB8400CC4901EB40109DF8341063
:1039500001EB810100EBC1004079A842D5DC04EB0A
:10396000840001E018E043E0C34901EB40109DF8FA
:10397000341001EB810100EBC100407904EB04112C
:10398000BE4A02EBC1019DF8202002EB021201EBBE
:10399000420181F821002BE0BAF1000F1BD008A8EA
:1039A000807904EB8401B44A02EB41119DF8342084
:1039B00002EB820201EBC2014871002004EB84019A
:1039C000AD4A02EB41119DF8342002EB820201EB7B
:1039D000C20188710CE0002004EB8401A64A02EBCE
:1039E00041119DF8342002EB820201EBC201887183
:1039F00004EB8400A04901EB40109DF8341001EB6A
:103A0000810100EBC100407820F0080004EB840144
:103A1000994A02EB41119DF8342002EB820201EB3E
:103A2000C20148709DF834102046FFF766FA0C98E2
:103A3000401CC0B20C90924801890C9881423FF71B
:103A400073AD16E29DF8220010F0800F7ED19DF834
:103A500020008C4909788842F8D10020009007AAFC
:103A600001214FF49050059BFEF7D6FC029002987E
:103A70000028E6D107980068D8F800108842E0D105
:103A80009DF8220010F0400F7ED09DF8220010F02B
:103A9000400F04D19DF8220010F0200F09D09DF8AE
:103AA000220010F0400F70D09DF8220010F0200F7F
:103AB0006BD09DF82200C0F3001904EB84006E491E
:103AC00001EB40109DF8341001EB810100EBC100C7
:103AD000407904EB8401684A02EB41119DF83420DF
:103AE00002EB820201EBC2018979401AC5B2002DB6
:103AF00005DC9DF834102046FFF774F8B9E1072D76
:103B000002DD0026B34604E0C5F10700C6B24FF05F
:103B1000010B00253CE004EB8400574901EB401009
:103B20009DF8341001EB810100EBC100817904EBB9
:103B30008400514A02EB40109DF8342002EB8202CF
:103B400000EBC2008079401CC2B200E0F6E304EB57
:103B50008400494B03EB40109DF8343003EB8303A2
:103B600000EBC300827104EB8400434A02EB401077
:103B70009DF8342002EB820200EBC200C01D415CC4
:103B80000DF12300415501E074E11BE0681CC5B252
:103B9000C6F10700A842BEDC002040EA091006F08A
:103BA000070140EA410040EA0B008DF82200C6F10F
:103BB0000800C0B28DF82100204608A90EC9FFF701
:103BC000E9F856E10DA92046FFF7B3F808A80079F7
:103BD00008A9C97860F31F2104EB8400264A02EB90
:103BE00040109DF8342002EB820200EBC2004180BD
:103BF00008A8407904EB84011F4A02EB41119DF8AB
:103C0000342002EB820201EBC2010871002004EBB8
:103C10008401194A02EB41119DF8342002EB820223
:103C200001EBC201487104EB8401134A02EB41111C
:103C30009DF8342002EB820201EBC20188710390EF
:103C400004EB8402DFF830C00CEB421200909DF8C8
:103C500034C00CEB8C0C02EBCC02531D04EB840241
:103C6000DFF814C00CEB42129DF834C00CEB8C0C46
:103C700002EBCC02117907E08043002020440020B1
:103C8000B8C80108C000002004EB8402DFF81CC49F
:103C90000CEB42129DF834C00CEB8C0C02EBCC0206
:103CA000508803AAFEF7B8FB074617B304EB84005D
:103CB000FE4B03EB40109DF8343003EB830300EB25
:103CC000C300027904EB8400F84B03EB40109DF82D
:103CD000343003EB830300EBC30041883B462046AE
:103CE000FFF7DEF89DF834102046FEF77BFFFF203B
:103CF0009BE4002510E00398415D04EB8400EB4A4F
:103D000002EB40109DF8342002EB820200EBC2006F
:103D1000C01D4155681CC5B204EB8400E34901EBAA
:103D200040109DF8341001EB810100EBC100407997
:103D3000A842E0DC04EB8400DC4901EB40109DF874
:103D4000341001EB810100EBC1004079052858DAFD
:103D500004EB8400D54901EB40109DF8341001EBD1
:103D6000810100EBC1004079C0F10400C6B201201E
:103D70000B90824604EB8400CC4900E048E301EB61
:103D800040109DF8341001EB810100EBC1008178F7
:103D900008A8C17004EB8400C44901EB40109DF8F1
:103DA000341001EB810100EBC1004088010A08A832
:103DB000017104EB8400BD4901EB40109DF8341003
:103DC00001EB810100EBC100017908A841710025D8
:103DD00012E004EB8400B54901EB40109DF834106B
:103DE00001EB810100EBC100C01D425D0DF123001C
:103DF000E91C4254681CC5B2C6F10400A842E8DCC4
:103E000016E0002600200B904FF0010A04EB84001E
:103E1000A64901EB40109DF8341001EB810100EB45
:103E2000C100417908A8817100214172C1710172FC
:103E300006F00300402141EA80010B9841EA40006E
:103E400040EA0A008DF8220008208DF821000021A8
:103E500004EB8400954A02EB40109DF8342002EBFD
:103E6000820200EBC2008171204608A90EC9FEF74C
:103E700091FFCBE29DF8220010F0400F04D19DF895
:103E8000220010F0200F09D09DF8220010F0400F02
:103E90007DD09DF8220010F0200FF9D09DF8201061
:103EA0000DAA2046FEF75DFF9DF82200C0F3001921
:103EB0009DF82200C0F342069DF8220000F0010B9D
:103EC000002537E00DF12300415D04EB8400774AC3
:103ED00002EB40109DF8342002EB820200EBC2009E
:103EE000827904EB8400714B03EB40109DF8343071
:103EF00003EB830300EBC3008079401C04EB8403D5
:103F0000DFF8A8C10CEB43139DF834C00CEB8C0C0C
:103F100003EBCC03987104EB8400644B03EB40107B
:103F20009DF8343003EB830300EBC300C01D8154C4
:103F3000681CC5B2C6F10700A842C3DCBBF1000F84
:103F40007ED004EB8400594901EB40109DF83410F9
:103F500001EB810100EBC100807904EB8401534A3D
:103F600002EB41119DF8342002EB820201EBC20109
:103F70004871002104EB84004C4A02EB40109DF88C
:103F8000342002EB820200EBC200817100E097E076
:103F900004EB8403DFF814C10CEB43139DF834C029
:103FA0000CEB8C0C03EBCC03DA1D04EB8403DFF881
:103FB000FCC00CEB43139DF834C00CEB8C0C03EBF2
:103FC000CC03197904EB8403DFF8E0C00CEB431356
:103FD0009DF834C00CEB8C0C03EBCC035888FFF736
:103FE000E6F907466FBB012004EB840CDFF8BCE068
:103FF0000EEB4C1C00909DF834E00EEB8E0E0CEB9B
:10400000CE0C9CF8053004EB840CDFF8A0E00EEB3E
:104010004C1C9DF834E00EEB8E0E0CEBCE0C0CF12C
:10402000070204EB840CDFF884E00EEB4C1C9DF8D7
:1040300034E00EEB8E0E0CEBCE0C9CF8041001E07D
:1040400038E010E004EB840CDFF860E00EEB4C1C71
:104050009DF834E00EEB8E0E0CEBCE0CBCF802009B
:10406000FEF70AFA07462FB304EB84000F4B03EB6D
:1040700040109DF8343003EB830300EBC30002795A
:1040800004EB8400094B03EB40109DF8343003EB44
:10409000830300EBC30041883B462046FEF700FF48
:1040A0009DF834102046FEF79DFD01E0804300207E
:1040B000FF201DE6202040EA09108DF822005AE179
:1040C0009DF82200C0F381069DF82200C0F3400055
:1040D0000B909DF8220000F0010A9DF8201004EBDF
:1040E0008400FE4A02EB40109DF8342002EB82026D
:1040F00000F8321008A8007908A9C97860F31F21D8
:1041000004EB8400F54A02EB40109DF8342002EBEA
:10411000820200EBC200418008A8407904EB8401D0
:10412000EE4A02EB41119DF8342002EB820201EBD2
:10413000C20108710B9800287ED0BAF1000F7CD024
:10414000002512E00DF12300E91C415C04EB840022
:10415000E24A02EB40109DF8342002EB820200EBB1
:10416000C200C01D4155681CC5B2C6F10400A8427A
:10417000E8DCC6F1040004EB8401D84A02EB4111EB
:104180009DF8342002EB820201EBC201487100204D
:1041900004EB8401D14A02EB41119DF8342002EB7B
:1041A000820201EBC201887104EB8403DFF82CC3A7
:1041B0000CEB43139DF834C00CEB8C0C03EBCC03DD
:1041C000DA1D04EB8403DFF814C30CEB43139DF8F2
:1041D00034C00CEB8C0C03EBCC03197904EB840397
:1041E000DFF8F8C20CEB43139DF834C00CEB8C0CD9
:1041F00003EBCC035888FFF7DAF80746EFBB012042
:1042000004EB840CDFF8D4E20EEB4C1C00909DF81C
:1042100034E00EEB8E0E0CEBCE0C9CF8053004EB6C
:10422000840CDFF8B8E20EEB4C1C9DF834E00EEB8A
:104230008E0E0CEBCE0C01E061E046E00CF10702C3
:1042400004EB840CDFF894E20EEB4C1C9DF834E098
:104250000EEB8E0E0CEBCE0C9CF8041004EB840CD1
:10426000DFF878E20EEB4C1C9DF834E00EEB8E0E7E
:104270000CEBCE0CBCF8020000E002E0FEF7FCF80C
:104280000746DFB304EB8400944B03EB40109DF82A
:10429000343003EB830300EBC300027904EB8400AA
:1042A0008E4B03EB40109DF8343003EB830300EB9F
:1042B000C30041883B462046FEF7F2FD9DF83410CE
:1042C0002046FEF78FFCFF2012E5002104EB84005E
:1042D000824A02EB40109DF8342002EB820200EB90
:1042E000C200817104EB84007C4A02EB40109DF80F
:1042F000342002EB820200EBC200417138E0BAF1D7
:10430000000F1CD008A8817904EB8400734A02EBEB
:1043100040109DF8342002EB820200EBC200417194
:10432000002104EB84006D4A02EB40109DF834201C
:1043300002EB820200EBC200817119E059E000211A
:1043400004EB8400654A02EB40109DF8342002EB38
:10435000820200EBC200817104EB84005F4A02EB31
:1043600040109DF8342002EB820200EBC200417144
:1043700060208DF8220004208DF8210004EB8400D9
:10438000564901EB40109DF8341001EB810100EB20
:10439000C100817808A8C17004EB84004F4901EB8B
:1043A00040109DF8341001EB810100EBC100408802
:1043B000010A08A8017104EB8400484901EB401090
:1043C0009DF8341001EB810100EBC100017908A8D0
:1043D0004171204608A90EC9FEF7DCFC0B9810B904
:1043E000BBF1000F12D09DF834102046FEF7FAFB07
:1043F0000CE0022004EB8401384A02EB41119DF8E5
:10440000342002EB820201EBC201487000206FE40D
:10441000FF206DE42DE9F04F87B004460E4692462A
:104420009B46DDF8408000200490019002A8039094
:104430002046FEF727FC05AA31462046FEF791FCF0
:104440000690069820B105A92046FEF772FC06905A
:1044500000278CE00020009007F5945004AA012169
:10446000039BFDF7D9FF8146B9F1000F7DD1049878
:10447000007800F07F00B04277D10120019004EB7A
:104480008400164901EB40109DF8141001EB8101E6
:1044900000F8316004EB8400104901EB40109DF8F6
:1044A000141001EB810100EBC100A0F802A004EBA5
:1044B00084000A4901EB40109DF8141001EB8101C2
:1044C00000EBC10080F804B004EB8400034901EB69
:1044D00040109DF8141001EB810101E080430020A1
:1044E00000EBC10080F8058004EB8401994A02EBDF
:1044F00041119DF8142002EB820201EBC201C81D9C
:104500004246119906F040F9002510E01198415DEE
:1045100004EB84008F4A02EB40109DF8142002EB5C
:10452000820200EBC200C01D4155681CC5B2454562
:10453000ECDB012104EB8400864A02EB40109DF87D
:10454000142002EB820200EBC2004170002082497D
:1045500001EB840188559DF814102046FEF7CDFC30
:10456000002007B0BDE8F08FFFE7781CC7B27B489A
:104570000089B8423FF76EAFFF20F2E72DE9F04F18
:1045800085B004460D4691469A460020039001A846
:10459000029004AA29462046FEF7E3FB8346BBF1BE
:1045A000000F0BD004A92046FEF7C3FB8346BBF1E6
:1045B000000F08D0FF2005B0BDE8F08F9DF8101067
:1045C0002046FEF70FFB00270DE0002104EB04104E
:1045D000634A02EBC00005EB051200EB4200401CF1
:1045E000C155781CC7B2202FEFDB002663E0002006
:1045F000009006F5945003AA0121029BFDF70CFFE1
:104600008046B8F1000F54D10398007800F07F0085
:10461000A8424ED104EB84004E4901EB40109DF8B6
:10462000101001EB810100F8315004EB840049497E
:1046300001EB40109DF8101001EB810100EBC1006F
:10464000A0F8029004EB8400424901EB40109DF871
:10465000101001EB810100EBC10080F804A00020E4
:1046600004EB84013B4A02EB41119DF8102002EB60
:10467000820201EBC2014871052004EB8401354A36
:1046800002EB41119DF8102002EB820201EBC20106
:1046900048709DF810102046FEF72FFC002004EB18
:1046A00004112F4A02EBC10105EB051201F81200BB
:1046B00081E7701CC6B229480089B04297DCFF2010
:1046C00079E770B5044615460020187004EB041015
:1046D000234E06EBC00001EB011610F8160001286E
:1046E0001ED104EB04101E4E06EBC00001EB0116B8
:1046F00000EB460090F82100187000220DE004EB5A
:104700000410174E06EBC00001EB011600EB46004B
:10471000401C805CA854501CC2B218789042EEDC59
:1047200004EB04100E4E06EBC00001EB011610F86E
:10473000160070BD0246084800EB8200405C7047DE
:1047400010B5084B03EB411303EBC20418CCC0E9CE
:10475000003410BD8043002010090020B8C80108B3
:1047600020440020A84400202DE9F04F89B0834662
:1047700000200890079006900590049002A80390EE
:1047800003200190002400260027624800780528B5
:1047900003D0002009B0BDE8F08FB4E00198C01E3E
:1047A00009287DD2DFE800F0051633AC4455679246
:1047B000A9000020009004F5C05005AA0221039B27
:1047C000FDF72AFE054615B90420019001E0FF20FF
:1047D000E0E797E005980078012813DB059800785A
:1047E000F0280FDC4C48005D401CC0B24A49085517
:1047F00005990978884205D10020474908550520C8
:10480000019003E0601CC4B20B2001907AE000200C
:10481000009004F5C05004AA0121039BFDF7FCFDA4
:10482000054615B90720019001E0FF20B2E769E0D5
:104830000020009004F5D05008AA0021039BFDF74A
:10484000EBFD054615B90820019001E0FF20A1E726
:1048500058E00020721CD1B2009004F5D05006AA96
:10486000039BFDF7D9FD054615B90920019001E02C
:10487000FF208FE746E0069800684FEA1049069847
:104880000088C0F3072A06980078C0F3C408002007
:10489000009007AA51464846039BFDF7BDFD00E086
:1048A0002EE0054685B91D49C8194246079905F00D
:1048B0006BFF07EB0800C7B21848801E4770701CDA
:1048C000C6B20A2001901DE0FF2063E70898007837
:1048D000B04202DD0820019014E001200F49891E3A
:1048E0000870049801685846FDF757FE601CC4B272
:1048F000002700260B20019004E00320019001E036
:10490000FF2047E700BF0648008AA0423FF746AFB6
:1049100000203FE7AD0000200C0900207643002076
:10492000B8C8010801460878704770B504460D46BE
:1049300003F076F8002003F056F80221182003F067
:10494000C3F82146FE4803F031FA2946FD4803F03A
:104950002DFA012003F047F803F06FF8F948FFF74C
:10496000E1FFA84206D1F648FFF7DCFFA04201D1E3
:10497000012070BD0020FCE73EB50446092C66D23C
:10498000DFE804F06505111D2935414D590002206D
:104990000290002002AB01AA012100904FF4C04018
:1049A000FDF73AFD54E002200290002002AB01AA7C
:1049B000022100904FF4C040FDF72EFD48E0022098
:1049C0000290002002AB01AA0121009046F20100F2
:1049D000FDF722FD3CE002200290002002AB01AA7C
:1049E0000221009046F20100FDF716FD30E00420A0
:1049F0000290002002AB01AA0121009046F20400BF
:104A0000FDF70AFD24E004200290002002AB01AA79
:104A10000221009046F20400FDF7FEFC18E004209D
:104A20000290002002AB01AA0121009046F205008D
:104A3000FDF7F2FC0CE004200290002002AB01AA7A
:104A40000221009046F20500FDF7E6FC00E000BF01
:104A500000BF019800683EBD10B50720FFF78CFF2E
:104A60000446B94800680444204610BD00B52DED49
:104A7000108B83B0B0EE408AF0EE608A9FEDB30BEE
:104A800053EC102B51EC180B07F02EFD41EC100BE2
:104A9000B0EE40FAF0EE60FA9FEDAE0B53EC102B47
:104AA00051EC1F0B07F0F8F841EC100BB0EE40EAA8
:104AB000F0EE60EA06F010F9B0EE40DAF0EE60DAFF
:104AC0009FEDA60B53EC102B51EC1D0B07F030F8AB
:104AD00041EC100BB0EE40CAF0EE60CA06F0B4FA3A
:104AE000B0EE40BAF0EE60BA9FED9E0B53EC102B87
:104AF00051EC1B0B07F0ECFA41EC100BB0EE40AAA6
:104B0000F0EE60AA9FED990B53EC102B51EC1A0BB1
:104B100007F012FC41EC100B8DED000B9DED000B2E
:104B200006F06AFBB0EE409AF0EE609AB0EE490AE9
:104B3000F0EE690A03B0BDEC108B00BD00B52DEDA1
:104B4000108B83B0B0EE408AF0EE608A9FED890B47
:104B500053EC102B51EC180B07F0BAFA41EC100B88
:104B6000B0EE40FAF0EE60FA53EC182B51EC1F0B4C
:104B700007F0AEFA41EC100BB0EE40EAF0EE60EA5E
:104B80009FED7E0B53EC102B51EC1E0B07F0D4FB6A
:104B900041EC100BB0EE40DAF0EE60DA05F0F4FE16
:104BA000B0EE40CAF0EE60CA9FED760B53EC102BCE
:104BB00051EC1C0B07F098FC41EC100BB0EE40BA26
:104BC000F0EE60BA06F0ACFAB0EE40AAF0EE60AAE1
:104BD0009FED600B53EC102B51EC1A0B07F078FA99
:104BE00041EC100BB0EE409AF0EE609A9FED570B3F
:104BF00053EC102B51EC190B06F09AFF41EC100B03
:104C00008DED000B9DED000B03B0BDEC108B00BDD6
:104C100010B52DED048B0520FFF7AEFE04465B4872
:104C200084421CD9604207F003FA41EC100BB0EE4D
:104C3000409AF0EE609A9FED560B53EC102B51EC1E
:104C4000190B07F029F841EC100BB0EE408AF0EE9A
:104C5000608A51EC180B07F0A7F904461BE02046C8
:104C600007F0E6F941EC100BB0EE409AF0EE609AD6
:104C70009FED470B53EC102B51EC190B07F00CF880
:104C800041EC100BB0EE408AF0EE608A51EC180B4C
:104C900007F08AF904462046BDEC048B10BD3E495E
:104CA000097801292AD1FF2809D102213B4A117034
:104CB0003B49098821F00F01394A118021E000F0B9
:104CC0000F0191F00F010FD00321344A11703449C4
:104CD000098821F00F01324A11800F218143128887
:104CE00011432F4A11800CE001212C4A11702C49EC
:104CF000098821F00F012A4A118002E00621274A83
:104D00001170704713B586B000208DF80D008DF836
:104D10000C0008208DF80E0044200190BDF818000A
:104D2000C0B28DF80F00BDF81800010A8DF8101000
:104D3000BDF81A00C1B28DF81110BDF81A0031E0AB
:104D400000C4000800C8000814090020000000008A
:104D500000B07340000000000060884062F888984E
:104D60001249D63FDF4F8D576FFE134130BB272FBF
:104D70007230204111D77B3BD395C93E454772F92C
:104D80000FE9F93FA18158367348D63FC0BDF0FF07
:104D90009A999999999909400100002000000020F2
:104DA0000E000020010A8DF81210BDF81C00C1B2DF
:104DB0008DF81310BDF81C00010A8DF81410BDF811
:104DC0001E00C1B28DF81510BDF81E00010A8DF845
:104DD000161000BF01A9FC4802F0DAF9044621468A
:104DE000F94802F06DFA012005F04EFBF748007813
:104DF0000028EFD008B010BD13B586B000208DF8A4
:104E00000D008DF80C0008208DF80E004520019053
:104E10009DF818008DF80F009DF819108DF81010EE
:104E20009DF81A108DF811109DF81B108DF81210B6
:104E30009DF81C108DF813109DF81D108DF814109E
:104E4000BDF81E00C1B28DF81510BDF81E00010A94
:104E50008DF8161000BF01A9DB4802F099F904464D
:104E60002146D94802F02CFA012005F00DFBD74865
:104E700000780028EFD008B010BD1FB5DDE90001B3
:104E8000FFF740FFDDE90201FFF7B6FF1FBD70B578
:104E900086B005460C4600208DF80D008DF80C00FC
:104EA00004208DF80E0015B94820019003E0012D73
:104EB00001D149200190E0B28DF80F00210A8DF850
:104EC0001010210C8DF81110200E8DF8120000BF6B
:104ED00001A9BD4802F05CF906463146BA4802F025
:104EE000EFF9012005F0D0FAB84800780028EFD09B
:104EF00006B070BD2DE9F34F2DED088B89B08A46C1
:104F00004FF0000B00200890079006900590049049
:104F1000FFF77EFE0A21B0FBF1F080B2ADF8000091
:104F20000620FFF729FD0746B7F1004F02D9C7F168
:104F3000000800E0B846404607F07AF841EC100B54
:104F4000B0EE40AAF0EE60AA9FEDA10B53EC102B3F
:104F500051EC1A0B06F0A0FE41EC100BB0EE409A9B
:104F6000F0EE609A51EC190B07F01EF880B2ADF824
:104F700002000120FFF700FD1FFA80FBCBF3C00009
:104F800058B19548008820F01000934908800846E1
:104F9000008840F01000088005E08F48008820F06D
:104FA00010008D490880CBF3802008908B48007852
:104FB00080BB089828B98A48006810B18948006801
:104FC00048BB0020069088490870884908708848C6
:104FD0000078022821D1BDF80010864A1288501AA4
:104FE00001D4014600E04142834A12681144824ADA
:104FF000116010460068B0F57A7F07D91046016845
:105000000020FFF744FF00207B490860BDF8000046
:105010007849088001E001200690BAF1020F7CD0A7
:105020000320FFF7A9FC1FFA80F9C9F3C00058B1AB
:105030006948008820F020006749088008460088F9
:1050400040F02000088005E06348008820F0200040
:1050500061490880FFF700FD0490049806F0E8FF1E
:1050600041EC100BB0EE40AAF0EE60AA9FED630B8E
:1050700053EC102B51EC1A0B06F00EFE41EC100B0A
:10508000B0EE409AF0EE609AFFF758FDB0EE408A1D
:10509000F0EE608A9FED5B0B53EC102B51EC180B7C
:1050A00007F016F841EC100BB0EE409AF0EE609A63
:1050B00051EC190B06F078FF80B2ADF8040008201F
:1050C000FFF75AFC0546B5F5100F01D96E4200E016
:1050D0002E46304606F0ACFF41EC100BB0EE40BA65
:1050E000F0EE60BA9FED490B53EC102B51EC1B0B0B
:1050F00006F0D2FD41EC100BB0EE40AAF0EE60AA33
:105100009FED440B53EC102B51EC1A0B06F0E0FF13
:1051100041EC100BB0EE409A00E043E0F0EE609AF4
:1051200051EC190B06F040FF80B2ADF80600C9F350
:10513000802007903948007880BB079828B9384804
:10514000006810B13748006848BB00200590364918
:1051500008703649087026480078022829D1BDF821
:105160000410334A1288501A01D4014600E041422B
:10517000304A126811442F4A116010460068B0F599
:105180007A7F07D9104601680120FFF780FE0020D2
:1051900028490860BDF804002549088009E001207D
:1051A000059006E042F23410ADF804000020ADF89E
:1051B00006002148006828B92048006818B144F06A
:1051C00001043FE03EE03BE000640040A40000201A
:1051D00000000000000040400E0000203C000020C5
:1051E000288241422C8241420B0000200500002011
:1051F000000000201A090020200900200000000003
:10520000004CDD40000000000000244000000000D1
:10521000006A08410000000000606D403D00002071
:1052200030824142348241420C00002004000020C0
:105230001C0900202409002020024042248241420F
:1052400004F0FE04FE48006838B9FE48006810B15A
:1052500044F0020401E004F0FD04FB48006810B1D2
:1052600044F0040401E004F0FB04F848006810B9BD
:1052700044F0100401E004F0EF04F548006810B9B0
:1052800044F0200401E004F0DF04F248006810B9A3
:1052900044F0400401E004F0BF04EF48006810B996
:1052A00044F0800401E004F07F04EC4800788DF8BD
:1052B0000800EB4801788DF80B10EA4801788DF86A
:1052C0000C1005988DF80A0006988DF809008DF8E5
:1052D0000D40E5480188ADF80E101022694611987E
:1052E00005F052FA09B0BDEC088BBDE8FC8FF0B5B3
:1052F00089B007460E46154607F5C06005900020A8
:105300008DF818008DF81950002405E0315D0DF17D
:105310001A000155601CC4B2AC42F7DB694605A80F
:10532000FCF7C4F86946D14801F032FF09B0F0BD7E
:105330007CB505460C4615B1012D7AD17AE02B20BB
:105340008DF800005A208DF8010060208DF80200D1
:1053500000208DF803001CB907208DF8040002E03E
:1053600005208DF8040000208DF80500062269460E
:105370000120FFF7BCFF00210120FCF77FFB232069
:105380008DF8000084208DF8010060208DF8020067
:1053900000208DF803008DF8040019208DF8050019
:1053A00000208DF806008DF80700082269460120CC
:1053B000FFF79DFF00210120FCF760FB23208DF803
:1053C000000085208DF8010060208DF8020000208B
:1053D0008DF803008DF8040019208DF805000020D9
:1053E0008DF806008DF80700082269460120FFF7B6
:1053F0007EFF00210120FCF741FB2B208DF80000EF
:1054000040208DF8010060208DF8020000208DF80A
:1054100003000B208DF8040000208DF80500062203
:1054200069460120FFF763FF00210120FCF726FBFE
:105430005EE05CE02B208DF800005A208DF8010022
:1054400060208DF8020000208DF803001CB90720B1
:105450008DF8040002E005208DF8040000208DF88E
:105460000500062269460220FFF741FF00210220C5
:10547000FCF704FB23208DF8000085208DF8010047
:1054800060208DF8020000208DF8030080208DF848
:10549000040038208DF8050001208DF8060000205A
:1054A0008DF80700082269460220FFF720FF00213F
:1054B0000220FCF7E3FA2B208DF8000040208DF845
:1054C000010060208DF8020000208DF803000B2001
:1054D0008DF8040000208DF80500062269460220A0
:1054E000FFF705FF00210220FCF7C8FA00E000BF2B
:1054F00000BF00207CBD1CB5044614B1012C38D17E
:105500001BE02B208DF8000040208DF8010060206A
:105510008DF8020000208DF8030080208DF8040033
:1055200000208DF80500062269460120FFF7DFFE06
:1055300000210120FCF7A2FA1CE02B208DF80000CE
:1055400040208DF8010060208DF8020000208DF8C9
:10555000030080208DF8040000208DF8050006224D
:1055600069460220FFF7C3FE00210220FCF786FAFD
:1055700000E000BF00BF00201CBD1CB504462B206E
:105580008DF8000040208DF8010060208DF80200A9
:1055900000208DF8030004208DF8040000208DF811
:1055A000050014B1012C14D109E00622694601203E
:1055B000FFF79DFE00210120FCF760FA0AE00622B9
:1055C00069460220FFF793FE00210220FCF756FAFD
:1055D00000E000BF00BF00201CBD2DE9FF4F91B0CF
:1055E000894690461C461EADE0CD04F0FF0AC4F388
:1055F000072BC4F307400E90200E0D90E8B20C90DC
:10560000C5F307200B90C5F307400A90280E0990B8
:10561000F0B20890C6F307200790C6F30740069043
:10562000300E0590F8B20490C7F307200390C7F33B
:1056300007400290380E0190B9F1010F1CD017E01D
:105640002482414220024042388241422882414223
:105650002C8241423482414230824142000000208B
:10566000180900202D0900200E00002000680040CD
:10567000B9F1030F7ED10CE12F208DF83C006020A2
:105680008DF83D008DF83E0000208DF83F00012090
:105690008DF8400005220FA91198FFF728FE002180
:1056A0001198FCF7EBF92B208DF83C0086208DF843
:1056B0003D0060208DF83E0000208DF83F008DF801
:1056C00040008DF8410006220FA91198FFF70FFE48
:1056D00000211198FCF7D2F923208DF83C007A20A4
:1056E0008DF83D0060208DF83E0000208DF83F00D1
:1056F0008DF840A08DF841B00E988DF842000D98BD
:105700008DF8430008220FA91198FFF7F0FD002142
:105710001198FCF7B3F923208DF83C0081208DF817
:105720003D0060208DF83E0000208DF83F000C9871
:105730008DF840000B988DF841000A988DF84200D2
:1057400009988DF8430008220FA91198FFF7CFFDA3
:1057500000211198FCF792F923208DF83C0083205A
:105760008DF83D0060208DF83E0000208DF83F0050
:10577000089800E08EE08DF8400007988DF8410011
:1057800006988DF8420005988DF8430008220FA96D
:105790001198FFF7ACFD00211198FCF76FF9232059
:1057A0008DF83C0084208DF83D0060208DF83E008F
:1057B00000208DF83F0004988DF8400003988DF884
:1057C000410002988DF8420001988DF843000822AC
:1057D0000FA91198FFF78BFD00211198FCF74EF9E6
:1057E0002B208DF83C0040208DF83D0060208DF886
:1057F0003E0000208DF83F000F208DF84000002073
:105800008DF8410006220FA91198FFF770FD0021C5
:105810001198FCF733F9B8F1100F1BD12B208DF83C
:105820003C0040208DF83D0060208DF83E000020B7
:105830008DF83F001F208DF8400000208DF84100BA
:1058400006220FA91198FFF752FD00211198FCF7CD
:1058500015F91DE0B8F1010F1AD12B208DF83C008D
:1058600040208DF83D0060208DF83E0000208DF82E
:105870003F003F208DF8400000208DF841000622B7
:105880000FA91198FFF733FD00211198FCF7F6F8E6
:1058900001E000E000BF00BF002015B0BDE8F08FC0
:1058A0002DE9F0412DED068B84B006460F461546D6
:1058B000984608EB8801480006F0BAFB41EC100B53
:1058C000B0EE408AF0EE608A9FEDFE0B53EC102B99
:1058D00051EC180B06F0FAFC14D29FEDFC0B53ECC4
:1058E000102B51EC180B06F0F3FB41EC100BB0EE53
:1058F000409AF0EE609A51EC190B06F055FB044605
:10590000644220E053EC182B9FEDEE0B51EC100B92
:1059100006F0EAFD41EC100BB0EE40AAF0EE60AAF2
:105920009FEDEA0B53EC102B51EC1A0B06F0D0FB59
:1059300041EC100BB0EE409AF0EE609A51EC190B6E
:1059400006F032FB0446284606F072FB41EC100BD1
:10595000B0EE40AAF0EE60AA9FEDDE0B53EC102BE8
:1059600051EC1A0B06F0B4FB41EC100BB0EE409A70
:10597000F0EE609A51EC190B06F016FB05464FF459
:10598000C856374623460122114610468DE8E000EE
:10599000FFF723FE04B0BDEC068BBDE8F0812DE9D6
:1059A000F0432DED068B83B007460E460A20B6FB6A
:1059B000F0F9484606F03CFB41EC100BB0EE40AA73
:1059C000F0EE60AAFFF752F8B0EE409AF0EE609A5F
:1059D0009FEDC20B53EC102B51EC190B06F078FB2A
:1059E00041EC100BB0EE408AF0EE608A51EC180BDF
:1059F00006F0DAFA0446384606F01AFB41EC100BC2
:105A0000B0EE40AAF0EE60AA9FEDB60B53EC102B5F
:105A100051EC1A0B06F040F941EC100BB0EE409A35
:105A2000F0EE609A9FEDB10B53EC102B51EC190B7B
:105A300006F04EFB41EC100BB0EE408AF0EE608AAF
:105A400051EC180B06F0B0FA8046AA480068844270
:105A500003D9A8480068251A05E0A6480068C0F1E7
:105A6000FF302044451C49F64040CDE900802B46DC
:105A70000122114602900220FFF7AFFD03B0BDECFA
:105A8000068BBDE8F08300B593B0302107A804F081
:105A9000F2FE994AD2E901311068D268CDE90431A9
:105AA00006920390022303AA40F281314FF4A050E2
:105AB000FCF73EF8302107A804F0DDFE8E4B1033D2
:105AC000D3E90020D3E90213CDE90513CDE9032082
:105AD0000120022103AB40F28132CDE9001041F6F2
