:020000040800F2
:1000000000F4012039020008A50F00089D0F000828
:10001000A10F0008D70300085D13000800000000CE
:10002000000000000000000000000000D9110008DE
:10003000190D00080000000035100008F11200083A
:10004000530200085302000853020008530200083C
:10005000530200085302000853020008530200082C
:10006000530200085302000853020008530200081C
:10007000530200085302000853020008530200080C
:100080005302000853020008530200084505000807
:10009000DD03000853020008D504000853020008DD
:1000A00053020008530200085302000853020008DC
:1000B00053020008530200085302000853020008CC
:1000C00053020008530200085302000853020008BC
:1000D00053020008530200085302000853020008AC
:1000E000530200085302000853020008530200089C
:1000F000530200085302000853020008530200088C
:10010000530200085302000853020008530200087B
:10011000530200085302000853020008530200086B
:10012000530200085302000853020008530200085B
:10013000530200085302000853020008530200084B
:10014000530200085302000853020008530200083B
:10015000530200085302000853020008530200082B
:10016000530200085302000853020008530200081B
:10017000530200085302000853020008530200080B
:10018000530200085302000800F002F800F03CF8A7
:100190000AA090E8000C82448344AAF10107DA45E2
:1001A00001D100F031F8AFF2090EBAE80F0013F0F8
:1001B000010F18BFFB1A43F0010318474415000054
:1001C00064150000103A24BF78C878C1FAD85207E5
:1001D00024BF30C830C144BF04680C6070470000C1
:1001E0000023002400250026103A28BF78C1FBD840
:1001F000520728BF30C148BF0B6070471FB501F0E0
:1002000079FA1FBD10B510BD00F0AEF81146FFF72A
:10021000F5FF01F0B9F900F0CCF803B4FFF7F2FFF5
:1002200003BC00F0D1F8000030BF72B6704762B670
:10023000704780F30888704709488047094800479D
:10024000FEE7FEE7FEE7FEE7FEE7FEE7FEE7FEE786
:10025000FEE7FEE704480549034A054B70470000E6
:10026000F512000889010008E00E002000F40120CA
:1002700000F00120032A40F2308010F0030C00F05F
:10028000158011F8013BBCF1020F624498BF11F8D0
:1002900001CB00F8013B38BF11F8013BA2F1040289
:1002A00098BF00F801CB38BF00F8013B11F0030301
:1002B00000F02880083AC0F0088051F8043B083A62
:1002C00051F804CBA0E80810F5E7121D5CBF51F807
:1002D000043B40F8043BAFF30080D20724BF11F881
:1002E000013B11F801CB48BF11F8012B24BF00F8E6
:1002F000013B00F801CB48BF00F8012B7047704765
:100300007047704710B5203AC0F00B80B1E8185024
:10031000203AA0E81850B1E81850A0E81850BFF4EF
:10032000F5AF5FEA027C24BFB1E81850A0E818508E
:1003300044BF18C918C0BDE810405FEA827C24BFE2
:1003400051F8043B40F8043B08BF7047D20728BF70
:1003500031F8023B48BF11F8012B28BF20F8023BBF
:1003600048BF00F8012B7047754600F029F8AE46EB
:1003700005006946534620F00700854618B020B5B1
:10038000FFF768FFBDE820404FF000064FF0000780
:100390004FF000084FF0000B21F00701AC46ACE82D
:1003A000C009ACE8C009ACE8C009ACE8C0098D469A
:1003B00070470446AFF300802046FFF72EFF000091
:1003C000004870477C0E002001491820ABBEFEE7B4
:1003D00026000200704700BFFEE7000010B532485B
:1003E00000210268314800F02EFB2F4800680068A9
:1003F0003E2814D12C4909688A7A2D492D4B1B6857
:10040000C818294909680B31FFF734FF26480068EE
:10041000807A284909680844264908602CE0224867
:10042000006800683F2827D11F480068C07A20284C
:100430000CD11D480068C0681F4908600846006864
:100440001C49086001201D49087015E01648006825
:10045000C07A212808D1144800688089184908808A
:1004600001201849087007E00F480068C07A112879
:1004700002D1012014490870144800781D2803D1C6
:1004800000201249087004E010480078401C0F4911
:1004900008700E48007800EB80000D4901EB8000E9
:1004A0000149086010BD00001400002000640040F5
:1004B000001000200C00002004000020000000209C
:1004C0000800002001000020020000201800002089
:1004D0002400002010B504480468C11402481838EC
:1004E00000F07AF810BD000018640040F0B585B047
:1004F00005460C4616460120019000208DF80900A3
:100500008DF808008DF80A400095224631460DF11D
:100510000B00FFF7AFFE00BF6946084800F01BFB69
:1005200007463946054800F0A9FB012000F05CFFB2
:10053000034800780028EFD005B0F0BD006400400B
:10054000110000202248006810F0010F11D020484F
:10055000006810F0020F03D001201E49087002E06D
:1005600000201C4908701A48006840F080001849B3
:1005700008601748006810F4807F11D014480068A4
:1005800010F4007F03D001201249087002E000201F
:10059000104908700E48006840F400400C4908609B
:1005A0000B48006810F4803F11D00948006810F42F
:1005B000003F03D001200749087002E000200549F0
:1005C00008700348006840F4000001490860704763
:1005D0000864004011000020B1F5007F3AD00FDC24
:1005E000202928D006DC01291CD004291DD0082987
:1005F00040D11DE0402921D0B1F5807F3AD126E0DD
:10060000B1F5004F31D006DCB1F5806F25D0B1F5E2
:10061000006F2FD124E0B1F5803F12D0B1F5003F3B
:1006200028D111E0154A826025E00822C26022E04C
:100630001022C2601FE0082202611CE01022026149
:1006400019E00822426016E01022426013E0042202
:10065000426010E0042242600DE0042242600AE0A1
:10066000002282610422426005E0002282610422AD
:10067000426000E000BF00BF7047000001010100C0
:1006800000B58BB0514852490860002051490870AC
:100690000121082000F0D0FC0121480600F0DCFC1C
:1006A0000320099002208DF8280000208DF82A00F0
:1006B00003208DF8290001208DF82B0009A9464858
:1006C00000F001FC09220021434800F044FC09220B
:1006D0000121414800F03FFC4FF4C06000F0A0FC55
:1006E00014208DF8200002208DF8210000208DF8C4
:1006F000220001208DF8230008A800F055FC1620E8
:100700008DF8200001208DF8210000208DF82200B6
:1007100001208DF8230008A800F046FC13208DF876
:10072000200003208DF8210000208DF8220008A869
:1007300000F03AFC294800F053F805A800F0FBF956
:1007400000208DF81A0001208DF81B0000208DF884
:100750001C008DF81D008DF81E008DF81F008DF80F
:1007600016008DF8170005208DF8180006208DF86A
:100770001900ADF8140005A9184800F0DAF80020B7
:100780008DF80E008DF80F0001208DF810004FF449
:10079000C060ADF804000020ADF806004FF47E40C4
:1007A000ADF808000020ADF80A00ADF80C000120FB
:1007B0008DF8110001A800F02FF8012248F603017E
:1007C000064800F0ADF80BB000BD0000240000208A
:1007D0001400002018000020000C024000640040BB
:1007E00010B504460B48844209D10121480600F0A7
:1007F00043FC00214FF0007000F03EFC08E00121B6
:10080000880600F039FC00214FF0806000F034FCD5
:1008100010BD00000064004010B50021837A012261
:1008200002FA03F13D4A126842F001023B4B1A60A2
:100830003A4A1C3212688A43384B1C331A60027BD6
:10084000CAB9364A0C3212688A43344B0C331A60E8
:100850004288C38842EA0343304A4032847A42F8ED
:1008600034300288838842EA03432C4A4032847A37
:1008700002EBC4025360027B012A19D1274A0C32D1
:1008800012680A43254B0C331A604288038842EAF7
:100890000343224A4032847A42F83430C288838843
:1008A00042EA03431D4A4032847A02EBC402536099
:1008B000C27A3AB9194A121D12688A43174B1B1D96
:1008C0001A6006E0154A121D12680A43134B1B1DDD
:1008D0001A60028932B9114A143212688A430F4BE6
:1008E00014331A600289012A06D10C4A14321268A4
:1008F0000A430A4B14331A60427B012A06D1074A85
:100900001C3212680A43054B1C331A60034A1268F2
:1009100022F00102014B1A6010BD00000066004089
:100920001AB143690B43436102E043698B4343615E
:10093000704730B5024600200023146824F00204FA
:100940001460146844F00104146000E05B1C5468F7
:1009500014F0010F03D1A3F57F44FF3CF6D1546896
:1009600014F0010F01D100206CE08C79012C04D12E
:10097000146844F08004146003E0146824F08004D8
:100980001460CC79012C04D1146844F04004146044
:1009900003E0146824F0400414600C7A012C04D1A4
:1009A000146844F02004146003E0146824F0200468
:1009B00014604C7A012C04D1146844F010041460C3
:1009C00003E0146824F0100414608C7A012C04D124
:1009D000146844F00804146003E0146824F0080468
:1009E0001460CC7A012C04D1146844F0040414601F
:1009F00003E0146824F0040414608C78A407CD7814
:100A000044EA05640D7944EA05444D7944EA055405
:100A10000D886D1E2C43D461146824F00104146009
:100A2000002300E05B1C546814F0010F03D0A3F511
:100A30007F44FF3CF6D1546814F0010F01D0002030
:100A400000E0012030BD10B500F5D87303EB0113B1
:100A50001B6803F004031372137A53B900F5D873BB
:100A600003EB01131B6840F2FF7404EA5353136055
:100A700009E000F5D87303EB01131B686FF06044C5
:100A800004EAD303536000F5D87303EB01131B682A
:100A900003F00203537200F5D87303EB01135B6894
:100AA00003F00F03937200F5D87303EB01135B6837
:100AB0001B0AD37400F5D87303EB01139B68D37240
:100AC00000F5D87303EB01139B681C0A147300F53F
:100AD000D87303EB01139B681C0C547300F5D87397
:100AE00003EB01139B681B0E937300F5D87303EBA4
:100AF0000113DB68D37300F5D87303EB0113DB68D4
:100B00001C0A147400F5D87303EB0113DB681C0C8A
:100B1000547400F5D87303EB0113DB681B0E937458
:100B200021B9C36843F02003C36003E0036943F0C5
:100B30002003036110BD00218171C17101724172F6
:100B40008172C1728170C1700321017102214171F2
:100B500001210180704710B502460020936803F020
:100B60008063B3F1806F00D110E0936803F00063FD
:100B7000B3F1006F01D1012008E0936803F08053C6
:100B8000B3F1805F01D1022000E00420042874D07A
:100B900002F5C07303EB00131B6803F0010402F5B8
:100BA000C07303EB00131C600B7A7BB94B7A0C8883
:100BB00043EA445302F5C07404EB00142468234351
:100BC00002F5C07404EB0014236010E00B7A4C684B
:100BD00043EAC4034C7A234302F5C07404EB0014C7
:100BE0002468234302F5C07404EB001423608B7A5D
:100BF00003F00F038B7202F5C07303EB00135B6805
:100C000023F00F0402F5C07303EB00135C6002F5E0
:100C1000C07303EB00135B688C7A234302F5C07446
:100C200004EB001463608B7B1C064B7B44EA03449B
:100C30000B7B44EA0323CC7A234302F5C07404EB14
:100C40000014A3608B7C1C064B7C44EA03440B7CA1
:100C500044EA0323CC7B234302F5C07404EB001465
:100C6000E36002F5C07303EB00131B6843F001045B
:100C700002F5C07303EB00131C6010BD10B50246F3
:100C8000002021B1012907D002290FD109E0936882
:100C90001C4C03EA04000BE093681B4C03EA0400BD
:100CA00006E09368194C03EA040001E0002000BF4D
:100CB00000BF174C031BA04216D007DC80B16FF0B9
:100CC0008063C3180ED0022B18D111E0B3F5007F5A
:100CD00010D0104C1B1909D0B3F5003F0ED10BE01A
:100CE00002200DE000200BE0002009E0002007E0DA
:100CF000012005E0012003E0012001E0002000BF09
:100D000000BF10BD03000004000300080000031032
:100D1000000100080001FFF77047000030B10749EB
:100D2000096841F48061054A116005E003490968DA
:100D300021F48061014A116070470000003C0240CC
:100D400070B504460A460026092502B909E0012AC1
:100D500001D1160205E0022A01D1160201E04FF48A
:100D6000407600F09FF80546092D28D11548006807
:100D700020F440701349086008460068304308605A
:100D80000846006820F0F80008600846006844F053
:100D9000020108430B4908600846006840F48030AF
:100DA000086000F07FF805460648006820F0020061
:100DB000044908600846006820F0F80008602846EA
:100DC00070BD0000103C024009201349096801F47D
:100DD0008031B1F5803F01D101201CE00E49096846
:100DE00011F0100F01D0062015E00B49096811F42D
:100DF000807F01D002200EE00749096811F0EF0F53
:100E000001D0072007E00449096811F0020F01D062
:100E1000082000E0092070470C3C024003480068AD
:100E200040F000400149086070470000103C02405B
:100E300030B502460C46092500F034F80546092D68
:100E400019D10E48006820F440700C49086008462B
:100E5000006840F4007008600846006840F0010037
:100E60000860146000F01EF805460448006820F091
:100E7000010002490860284630BD0000103C0240D5
:100E80000548006810F0004F05D0044802490C39AD
:100E90000860034808607047103C02402301674522
:100EA000AB89EFCD08B509200090FFF78DFF0090CA
:100EB00002E0FFF789FF00909DF800000128F8D0BC
:100EC0009DF8000008BDF0B50A460021002300246B
:100ED00000BF3DE0012505FA01F3156805EA0304AA
:100EE0009C4234D105684F000326BE40B5430560DF
:100EF00015794E00B5400668354305601579012D1A
:100F000002D01579022D16D185684F000326BE4008
:100F1000B543856055794E00B54086683543856098
:100F2000456801268E40B5434560456896798E40F8
:100F3000B6B235434560C5684F000326BE40B54391
:100F4000C560D5794E00B540C6683543C560491CBB
:100F50001029BFD3F0BDF0B5002300244D07ED0EDE
:100F600002FA05F3CE1000F1200555F826504E0781
:100F7000F70E0F26BE40B543CF1000F1200646F80D
:100F80002750CE1000F1200555F8265045EA0304FD
:100F9000CE1000F1200545F82640F0BD00BFFEE769
:100FA00000BFFEE77047000070B5002100230F224C
:100FB000C47824B3174C246804F4E064C4F5E064F6
:100FC000C4F30721C1F10404E3B20A4144789C4010
:100FD000E1B28478144021430C07210E0E4C0578B1
:100FE0006155047804F01F050124AC4005786D11AB
:100FF0004FF0E02606EB8505C5F8004109E00478CE
:1010000004F01F040125A540044C0678761144F82D
:10101000265070BD0CED00E000E400E080E100E04F
:1010200002490143024A1160704700000000FA05BE
:101030000CED00E07047000029B1064A1268024337
:10104000044B1A6004E0034A12688243014B1A60A1
:10105000704700003038024029B1064A1268024346
:10106000044B1A6004E0034A12688243014B1A6081
:10107000704700004038024029B1064A1268024316
:10108000044B1A6004E0034A12688243014B1A6061
:10109000704700002038024001461C48814201D2BE
:1010A000002070471A48814201D20820F9E7194808
:1010B000814201D21020F4E71748814201D2182062
:1010C000EFE71648814201D22020EAE71448814226
:1010D00001D22820E5E71348814201D23020E0E721
:1010E0001148814201D23820DBE71048814201D209
:1010F0004020D6E70E48814201D24820D1E70D4872
:10110000814201D25020CCE75820CAE700400008B5
:101110000080000800C0000800000108000002086C
:1011200000000408000006080000080800000A0883
:1011300000000C0800000E08014608687047000017
:101140002DE9F04704460E4617464FF009080025E2
:10115000A946B4F1006F02D314F0030F01D0BDE82B
:10116000F087FFF78DFE0020FFF7D8FD254604EB42
:1011700087091848854215D211E02846FFF7DCFFA1
:10118000401C0BD02846FFF787FF82460221FFF75D
:10119000D7FD8046B8F1090F01D002E02D1D4D4565
:1011A000EBD300BFB8F1090F0CD108E0204631683D
:1011B000FFF73EFE092800D003E0241D361D4C45F4
:1011C000F4D300BF0120FFF7A9FDFFF727FE00BF02
:1011D000C5E700000000FF1F704700000CB50020AD
:1011E000019000903448006840F480303249086033
:1011F00000BF3148006800F4003000900198401CA6
:101200000190009818B90198B0F5A04FF1D12A4883
:10121000006810F4003F02D00120009001E000209F
:1012200000900098012845D123484030006840F0E4
:1012300080502149403108602048006840F4404017
:101240001E4908601C48083000681B4908310860C6
:101250000846006840F4004008600846006840F412
:10126000A05008601648091F0860081F006840F079
:101270008070091F086000BF0F48006810F0007FF1
:10128000FAD040F205700F4908600B48083000683A
:1012900020F003000849083108600846006840F063
:1012A0000200086000BF04480830006800F00C002D
:1012B0000828F8D10CBD0000003802400070004042
:1012C00019544007003C0240042808D14FF0E021A7
:1012D000096941F004014FF0E022116107E04FF08D
:1012E000E021096921F004014FF0E022116170470B
:1012F0007047000010B51548006840F470001349AD
:1013000008601348006840F001001149086000209F
:101310000F49083108600E4800680E4908400C4922
:1013200008600D48091D0860081F006820F480202F
:10133000091F0860002006490C310860FFF74EFFC6
:101340004FF0006001498039086010BD88ED00E071
:1013500000380240FFFFF6FE1030002400BFFEE719
:101360002DE9F04106460F4690464FF0FF340D48F8
:10137000007820B900F0ECF801200A490870002537
:1013800009E0E0B2E919715C4840074951F82000D2
:1013900080EA14246D1C4545F3D3E4432046BDE8A0
:1013A000F0810000100000207C02002010B50446EF
:1013B0006FF00400FFF788FFE11704EB5171C910CB
:1013C000074A11701046007800EB4001C1EBC010D5
:1013D0004FF6FF7101EAC0000249088010BD00000D
:1013E0001A0000201C00002070B504464FF407705E
:1013F00094FBF0F0C6B24FF4077094FBF0F100FBE1
:10140000114085B205E04FF4077000F009F8701E36
:10141000C6B2002EF7D115B1284600F001F870BD14
:101420000146114A12884A434FF0E0235A610022D4
:101430009A611A46126942F001021A6100BF4FF028
:10144000E022106910F0010F02D010F4803FF6D0B6
:101450004FF0E022126922F001024FF0E0231A61FE
:1014600000229A61704700001C0000207CB50446F1
:101470000D46002000900190002621208DF80000EC
:101480002A4621460548FFF76BFF0646CDF8016066
:101490006A4605214F20FFF729F87CBD0010002087
:1014A0001CB500200090019011208DF800006A46C4
:1014B00001214F20FFF71AF81CBD000010B50446AB
:1014C000206807490840B0F1005F08D1606805490D
:1014D00008602068FEF7ADFE02480068804710BD36
:1014E0000000FE2F200000202DE9F05F074688460F
:1014F00091460025BB464446AA461DE0E078060614
:10150000A07846EA0046607846EA0026207806433E
:10151000241D2846691C8DB20C4941F82060B5F5A0
:10152000007F07D100254FF400725846FFF708FEF0
:101530000BF5006B0AF1040ACA45DFD325B12A4630
:1015400002495846FFF7FCFDBDE8F09F7C060020ED
:10155000002011E00146002208E011F0010F03D045
:10156000074B83EA510100E04908521C082AF4DBCA
:10157000044B43F82010401CFF28EBDD70470000AF
:101580002083B8ED7C020020002400254FF4A060E9
:10159000FFF746FDA820FFF709FFFFF771F84FF4AA
:1015A000FA70FFF721FF00F098F86FE0062D69D27E
:1015B000DFE805F0031523324E5BB4F5FA7F02DD58
:1015C0000024042501E0601C84B23148007828B171
:1015D00000F076F800202E490870012552E02D48D1
:1015E000007848B12C4801882C480068FFF73EFF7E
:1015F000002028490870022544E02548007830B1D1
:1016000000F05EF8002022490870012503E024481C
:10161000007800B1032535E022480068224988425D
:1016200014D12248006800F07F40B0F1006F0BD168
:101630001F480068A0F180021E491F48FFF754FFB1
:10164000FFF72EFF042502E0002500E0002519E049
:101650001948406800F07F40B0F1006F03D1164890
:10166000FFF72CFF00E005250CE01448406800F06F
:101670007F40B0F1006F03D11048FFF71FFF00E07B
:10168000002500BF00BF0A20FFF7AEFE8EE7000076
:1016900000000020010000200800002004000020BD
:1016A0000200002000100020234653238410002055
:1016B0000C000020801000200000010800000E082F
:1016C0001CB500200090019020208DF800006A4693
:1016D00001214F20FEF70AFF1CBD1CB50020009021
:1016E000019010208DF800006A4601214F20FEF77E
:1016F000FDFE1CBD4FF04070E1EE100A7047000087
:10170000201700080000002024000000C401000889
:101710004417000824000020DCF30100E001000869
:1017200000000000000000000000000000000000B9
:1017300000000000000000000000000000000000A9
:0417400000000000A5
:040000050800018965
:00000001FF
